:020000040800F2
:100000000080012005BD0008D9770008DD770008D1
:10001000E1770008E5770008E977000800000000B4
:10002000000000000000000000000000C5620008A1
:10003000ED7700080000000081620008BD61000843
:1000400055BD000855BD000855BD000855BD000848
:1000500055BD000855BD000855BD000855BD000838
:1000600055BD000855BD000855BD0008F1770008D2
:100070003510000855BD000855BD000855BD0008E5
:10008000F5770008F9770008FD77000855BD0008EE
:1000900055BD000855BD000855BD000855BD0008F8
:1000A00055BD00080178000855BD000855BD000881
:1000B00055BD000855BD000855BD000855BD0008D8
:1000C00055BD000855BD000855BD000855BD0008C8
:1000D00055BD000855BD000855BD000855BD0008B8
:1000E00055BD000855BD000855BD000855BD0008A8
:1000F00055BD000855BD000855BD000855BD000898
:1001000055BD000855BD000855BD000855BD000887
:1001100055BD000855BD000855BD000855BD000877
:1001200055BD000855BD000855BD000855BD000867
:1001300055BD000855BD000855BD000855BD000857
:1001400055BD000855BD000855BD00080D780008D4
:1001500055BD000855BD000855BD000855BD000837
:1001600055BD000855BD000855BD000855BD000827
:1001700055BD000855BD000855BD00080000000031
:0801800055BD000855BD000843
:1001880081F0004102E000BF83F0004330B54FEA40
:1001980041044FEA430594EA050F08BF90EA020FAD
:1001A8001FBF54EA000C55EA020C7FEA645C7FEA40
:1001B800655C00F0E2804FEA5454D4EB5555B8BF63
:1001C8006D420CDD2C4480EA020281EA030382EAD4
:1001D800000083EA010180EA020281EA0303362D66
:1001E80088BF30BD11F0004F4FEA01314FF4801C39
:1001F8004CEA113102D0404261EB410113F0004F4B
:100208004FEA03334CEA133302D0524263EB430301
:1002180094EA050F00F0A780A4F10104D5F1200E9F
:100228000DDB02FA0EFC22FA05F2801841F10001FA
:1002380003FA0EF2801843FA05F359410EE0A5F1CE
:1002480020050EF1200E012A03FA0EFC28BF4CF0FF
:10025800020C43FA05F3C01851EBE37101F00045B5
:1002680007D54FF0000EDCF1000C7EEB00006EEBC2
:100278000101B1F5801F1BD3B1F5001F0CD349084C
:100288005FEA30004FEA3C0C04F101044FEA4452A3
:1002980012F5800F80F09A80BCF1004F08BF5FEA2A
:1002A800500C50F1000041EB045141EA050130BD0A
:1002B8005FEA4C0C404141EB0101013C28BFB1F51C
:1002C800801FE9D291F0000F04BF01460020B1FA67
:1002D80081F308BF2033A3F10B03B3F120020CDA3A
:1002E8000C3208DD02F1140CC2F10C0201FA0CF018
:1002F80021FA02F10CE002F11402D8BFC2F1200C7D
:1003080001FA02F120FA0CFCDCBF41EA0C01904032
:10031800E41AA2BF01EB0451294330BD6FEA04047B
:100328001F3C1CDA0C340EDC04F11404C4F1200266
:1003380020FA04F001FA02F340EA030021FA04F378
:1003480045EA030130BDC4F10C04C4F1200220FACF
:1003580002F001FA04F340EA0300294630BD21FA0D
:1003680004F0294630BD94F0000F83F4801306BFD3
:1003780081F480110134013D4EE77FEA645C18BFC7
:100388007FEA655C29D094EA050F08BF90EA020F5E
:1003980005D054EA000C04BF1946104630BD91EA56
:1003A800030F1EBF0021002030BD5FEA545C05D159
:1003B8004000494128BF41F0004130BD14F5800498
:1003C8003CBF01F5801130BD01F0004545F0FE410C
:1003D80041F470014FF0000030BD7FEA645C1ABF41
:1003E800194610467FEA655C1CBF0B46024650EA78
:1003F800013406BF52EA033591EA030F41F40021A4
:1004080030BD00BF90F0000F04BF0021704730B529
:100418004FF4806404F132044FF000054FF00001FE
:1004280050E700BF90F0000F04BF0021704730B5BF
:100438004FF4806404F1320410F0004548BF404294
:100448004FF000013EE700BF42004FEAE2014FEAE9
:1004580031014FEA02701FBF12F07F4393F07F4FC4
:1004680081F06051704732F07F4208BF704793F0C7
:100478007F4F04BF41F40021704730B54FF46074DA
:1004880001F0004521F000411CE700BF50EA0102DD
:1004980008BF704730B54FF000050AE050EA010286
:1004A80008BF704730B511F0004502D5404261EBF6
:1004B80041014FF4806404F132045FEA915C3FF437
:1004C800D8AE4FF003025FEADC0C18BF03325FEAD4
:1004D800DC0C18BF033202EBDC02C2F1200300FA85
:1004E80003FC20FA02F001FA03FE40EA0E0021FAAA
:1004F80002F11444BDE600BF70B54FF0FF0C4CF498
:10050800E06C1CEA11541DBF1CEA135594EA0C0F49
:1005180095EA0C0F00F0DEF82C4481EA030621EA84
:100528004C5123EA4C5350EA013518BF52EA0335BF
:1005380041F4801143F4801338D0A0FB02CE4FF071
:100548000005E1FB02E506F00042E0FB03E54FF0A1
:100558000006E1FB03569CF0000F18BF4EF0010E99
:10056800A4F1FF04B6F5007F64F5407404D25FEA95
:100578004E0E6D4146EB060642EAC62141EA555148
:100588004FEAC52040EA5E504FEACE2EB4F1FD0C8A
:1005980088BFBCF5E06F1ED8BEF1004F08BF5FEA08
:1005A800500E50F1000041EB045170BD06F00046BA
:1005B80046EA010140EA020081EA0301B4EB5C0467
:1005C800C2BFD4EB0C0541EA045170BD41F480115F
:1005D8004FF0000E013C00F3AB8014F1360FDEBF84
:1005E800002001F0004170BDC4F10004203C35DA60
:1005F8000C341BDC04F11404C4F1200500FA05F3E3
:1006080020FA04F001FA05F240EA020001F0004283
:1006180021F0004110EBD37021FA04F642EB0601F9
:100628005EEA430E08BF20EAD37070BDC4F10C0423
:10063800C4F1200500FA04F320FA05F001FA04F2E7
:1006480040EA020001F0004110EBD37041F10001D3
:100658005EEA430E08BF20EAD37070BDC4F12005DE
:1006680000FA05F24EEA020E20FA04F301FA05F246
:1006780043EA020321FA04F001F0004121FA04F2EE
:1006880020EA020000EBD3705EEA430E08BF20EABE
:10069800D37070BD94F0000F0FD101F000464000F8
:1006A80041EB010111F4801F08BF013CF7D041EA7A
:1006B800060195F0000F18BF704703F0004652007E
:1006C80043EB030313F4801F08BF013DF7D043EA4F
:1006D8000603704794EA0C0F0CEA135518BF95EA05
:1006E8000C0F0CD050EA410618BF52EA4306D1D18C
:1006F80081EA030101F000414FF0000070BD50EAAB
:10070800410606BF1046194652EA430619D094EA34
:100718000C0F02D150EA013613D195EA0C0F05D11E
:1007280052EA03361CBF104619460AD181EA030172
:1007380001F0004141F0FE4141F470014FF000002A
:1007480070BD41F0FE4141F4780170BD70B54FF0C5
:10075800FF0C4CF4E06C1CEA11541DBF1CEA135545
:1007680094EA0C0F95EA0C0F00F0A7F8A4EB050427
:1007780081EA030E52EA03354FEA013100F088801E
:100788004FEA03334FF0805545EA131343EA1263E7
:100798004FEA022245EA111545EA10654FEA00269C
:1007A8000EF000419D4208BF964244F1FD0404F555
:1007B800407402D25B084FEA3202B61A65EB0305B1
:1007C8005B084FEA32024FF480104FF4002CB6EB6E
:1007D800020E75EB030E22BFB61A754640EA0C00EE
:1007E8005B084FEA3202B6EB020E75EB030E22BF2E
:1007F800B61A754640EA5C005B084FEA3202B6EB6F
:10080800020E75EB030E22BFB61A754640EA9C002D
:100818005B084FEA3202B6EB020E75EB030E22BFFD
:10082800B61A754640EADC0055EA060E18D04FEABB
:10083800051545EA16754FEA06164FEAC30343EA5B
:1008480052734FEAC2025FEA1C1CC0D111F4801F28
:100858000BD141EA00014FF000004FF0004CB6E721
:1008680011F4801F04BF01430020B4F1FD0C88BFC0
:10087800BCF5E06F3FF6AFAEB5EB030C04BFB6EBCB
:10088800020C5FEA500C50F1000041EB045170BDBE
:100898000EF0004E4EEA113114EB5C04C2BFD4EBEB
:1008A8000C0541EA045170BD41F480114FF0000E6F
:1008B800013C90E645EA060E8DE60CEA135594EAEB
:1008C8000C0F08BF95EA0C0F3FF43BAF94EA0C0FEE
:1008D8000AD150EA01347FF434AF95EA0C0F7FF463
:1008E80025AF104619462CE795EA0C0F06D152EAB7
:1008F80003353FF4FDAE1046194622E750EA41069B
:1009080018BF52EA43067FF4C5AE50EA41047FF4AB
:100918000DAF52EA43057FF4EBAE12E74FF0FF3C10
:1009280006E000BF4FF0010C02E000BF4FF0010CE1
:100938004DF804CD4FEA410C7FEA6C5C4FEA430C5A
:1009480018BF7FEA6C5C1BD001B050EA410C0CBFA9
:1009580052EA430C91EA030F02BF90EA020F00200B
:10096800704710F1000F91EA030F58BF994208BF72
:1009780090422CBFD8176FEAE37040F0010070472F
:100988004FEA410C7FEA6C5C02D150EA013C07D186
:100998004FEA430C7FEA6C5CD6D152EA033CD3D0D1
:1009A8005DF8040B704700BF8446104662468C46CB
:1009B8001946634600E000BF01B5FFF7B7FF0028FE
:1009C80048BF10F1000F01BD4DF808EDFFF7F4FF27
:1009D8000CBF012000205DF808FB00BF4DF808EDB2
:1009E800FFF7EAFF34BF012000205DF808FB00BFD5
:1009F8004DF808EDFFF7E0FF94BF012000205DF8F7
:100A080008FB00BF4DF808EDFFF7CEFF94BF0120AB
:100A180000205DF808FB00BF4DF808EDFFF7C4FFA4
:100A280034BF012000205DF808FB00BF4FEA410CED
:100A38007FEA6C5C02D150EA013C0AD14FEA430CD0
:100A48007FEA6C5C02D152EA033C02D14FF000000D
:100A580070474FF0010070474FEA410212F500124B
:100A680015D211D56FF47873B3EB625212D94FEAED
:100A7800C12343F0004343EA505311F0004F23FAD7
:100A880002F018BF404270474FF00000704750EA2C
:100A9800013005D111F0004008BF6FF000407047E9
:100AA8004FF00000704700BF4A0011D212F5001243
:100AB80011D20DD56FF47873B3EB62520ED44FEAAE
:100AC800C12343F0004343EA505323FA02F070472E
:100AD8004FF00000704750EA013002D14FF0FF306C
:100AE80070474FF0000070474FEA4102B2F1E0430F
:100AF80024BFB3F5001CDCF1FE5C0DD901F0004CFD
:100B08004FEAC0024CEA5070B2F1004F40EB83004C
:100B180008BF20F00100704711F0804F21D113F178
:100B28003872BCBF01F00040704741F480114FEAB1
:100B38005252C2F11802C2F1200C10FA0CF320FA3A
:100B480002F018BF40F001004FEAC1234FEAD32357
:100B580003FA0CFC40EA0C0023FA02F34FEA4303C1
:100B6800CCE77FEA625307D150EA01331EBF4FF04A
:100B7800FE4040F44000704701F0004040F0FE4065
:100B880040F40000704700BF0348044B834202D082
:100B9800034B03B118477047B8020020B802002081
:100BA800000000000548064B1B1AD90F01EBA301F2
:100BB800491002D0034B03B118477047B802002010
:100BC800B80200200000000010B5064C237843B995
:100BD800FFF7DAFF044B13B10448AFF30080012399
:100BE800237010BDB80200200000000028C30008D0
:100BF80008B5054B1BB105490548AFF30080BDE8B2
:100C08000840FFF7CFBF00BF00000000BC02002073
:100C180028C30008CB0703D50368DA6852064DD508
:100C28008B0703D50368DA68920742D54B0703D5CB
:100C38000368DA68520737D50B0703D50368DA6803
:100C480012072CD5CB0603D50368DA68D20621D55E
:100C58008B0603D50368DA68D20716D54B0603D589
:100C68000368DA6812060BD5090603D50368DA6843
:100C7800920600D57047DA6842F02002DA607047C1
:100C8800DA6842F08002DA60EEE7DA6842F00102E0
:100C9800DA60E3E7DA6842F01002DA60D8E7DA6887
:100CA80042F00802DA60CDE7DA6842F00402DA605E
:100CB800C2E7DA6842F00202DA60B7E7DA6842F0BF
:100CC8004002DA60ACE700BFCB0703D50368DA68F7
:100CD80052064CD48B0703D50368DA68920741D4CF
:100CE8004B0703D50368DA68520736D40B0703D5D8
:100CF8000368DA6812072BD4CB0603D50368DA68D1
:100D0800D20620D48B0603D50368DA68D20715D536
:100D18004B0603D50368DA6812060AD4090607D514
:100D28000368DA68920603D5DA6822F02002DA60EE
:100D38007047DA6822F08002DA60EFE7DA6822F0BA
:100D48000102DA60E4E7DA6822F01002DA60D9E733
:100D5800DA6822F00802DA60CEE7DA6822F00402E4
:100D6800DA60C3E7DA6822F00202DA60B8E7DA6824
:100D780022F04002DA60ADE7022921D00368134A65
:100D880093420FD002F5006293420BD002F5406205
:100D9800934207D002F58062934203D002F5806245
:100DA800934203D1032906D0042900D070471A6A58
:100DB80042F001021A621A6A42F004021A6270478B
:100DC8000268136A43F0010313627047002C014064
:100DD800022921D00368134A93420FD002F500621A
:100DE80093420BD002F54062934207D002F580622D
:100DF800934203D002F58062934203D1032906D0BF
:100E0800042900D070471A6A22F001021A621A6A8D
:100E180022F004021A6270470268136A23F0010381
:100E280013627047002C0140022921D00368134A3D
:100E380093420FD002F5006293420BD002F5406254
:100E4800934207D002F58062934203D002F5806294
:100E5800934203D1032906D0042900D070471A6AA7
:100E680042F010021A621A6A42F040021A6270478F
:100E78000268136A43F0100313627047002C0140A4
:100E8800022921D00368134A93420FD002F5006269
:100E980093420BD002F54062934207D002F580627C
:100EA800934203D002F58062934203D1032906D00E
:100EB800042900D070471A6A22F010021A621A6ACE
:100EC80022F040021A6270470268136A23F0100386
:100ED80013627047002C0140022921D00368134A8D
:100EE80093420FD002F5006293420BD002F54062A4
:100EF800934207D002F58062934203D002F58062E4
:100F0800934203D1032906D0042900D070471A6AF6
:100F180042F480721A621A6A42F480621A62704756
:100F28000268136A43F4807313627047002C01400F
:100F3800022921D00368134A93420FD002F50062B8
:100F480093420BD002F54062934207D002F58062CB
:100F5800934203D002F58062934203D1032906D05D
:100F6800042900D070471A6A22F480721A621A6A39
:100F780022F480621A6270470268136A23F480734D
:100F880013627047002C0140022904D10268136AD9
:100F980043F4805313627047022904D10268136A2C
:100FA80023F4805313627047084B02689A420AD1AF
:100FB8001368074906480A6013F0600314BF012349
:100FC80012680B71704700231A60FFDE00040040AE
:100FD800D40200200369DA6812F4406F24D1427AFF
:100FE800022A08D0427A042A05D0427A082A02D076
:100FF8001A68110718D51A68D20602D510221A6085
:101008004272427A102A0FD0427A082A0CBF012273
:10101800202242729A6822F0004222F03F0242F0F7
:10102800040200209A60704701207047154916484D
:101038008A794B69825C9858800703EB020C1DD5AE
:10104800186880061BD504204872202058609858DC
:10105800800615D4985820F0010010B40C689850F8
:10106800DCF80410090C09042143CCF80410995841
:101078005DF8044B41F00101995070477047704783
:10108800704700BF6003002040C3000801290269BF
:101098000DD0D36C13F0C00F00D17047936823F0C4
:1010A800004323F03F0343F0080393607047D3687D
:1010B80013F4406FF1D0936823F0004323F03F030B
:1010C80043F0040393607047F0B4324C0569A542BD
:1010D8002FD1314C4FF0000C012B256184F807C04B
:1010E80024D04AB3637A082B20D0C76842690668BF
:1010F800E760626190F806C084F806C0037923713E
:101108002B6B0498266023F00F03034301292B63FC
:1011180007D0042920D0022903D16B6843F00803C3
:101128006B60082363721C48F0BC70472046F0BC13
:1011380070470020F0BC7047A37A082BF6D043799B
:101148006371022903D008231348A372EFE76B6881
:1011580043F040036B60F6E7104BE96813F80C3076
:1011680041F00301D018E9600D4981608160C760D2
:101178004168090C090431434160D15841F002012A
:10118800D150D15841F00801D150D15841F0010156
:10119800D150C6E7000104506003002040C3000896
:1011A8004001045002699368DB0707D4936823F071
:1011B800004323F03F0343F001039360704700BFEF
:1011C800036953B1012928D0042910B5944604466F
:1011D80005D0022923D0012010BD01207047DA680C
:1011E80012F4406FF7D1012242729A6822F000424D
:1011F80022F03F0242F004029A60637A042BFCD189
:10120800E379012B21D02268E168520060460BF097
:1012180079F808236372002010BDFFF7DBBE437A1C
:10122800202B05D0437A042B02D0437A102BD2D13D
:10123800E3790822012B627210D02268E16852001B
:1012480060460BF05FF8002010BD2368E1685A0083
:1012580001EB430160460BF055F8DAE72368E168D3
:101268005A0001EB430160460BF04CF8002010BD1A
:10127800036910B49C68E40707D59C6824F0004C07
:101288002CF03F0C4CF002049C605C68240603D5EB
:101298005C6824F080045C605C68E40603D55C68E4
:1012A80024F010045C6092B1012903D0022936D0E1
:1012B800042916D0002282710271196BC26021F0D4
:1012C8000F010260426119635DF8044B70470229FF
:1012D8004271F9D15A685DF8044B22F040025A6015
:1012E80070478179104C4269615C545824F00104BC
:1012F8005450545824F004045450545824F008040A
:101308005450545824F0020454500A445168090CAB
:1013180009045160DA6822F00302DA60CAE75A6801
:1013280022F008025A60C5E740C3000810B40369F8
:101338009A6812F0010283B007D09C6824F0004C30
:101348002CF03F0C4CF002049C6031BB996821F0F2
:10135800404121F03F0141F000419960996800291E
:10136800FCDB002304E000BFBDF8063001331BB2EC
:10137800ADF80630BDF806309BB2032BF3D942B165
:101388000269936823F0004323F03F0343F001030D
:10139800936003B05DF8044B70470129996821F008
:1013A800404121F03F0126D041F000419960996801
:1013B8000029FCDB0021ADF80610BDF8061089B243
:1013C80003290CD800BFBDF8063001331BB2ADF8B5
:1013D8000630BDF806309BB2032BF3D90369996830
:1013E80021F0404121F03F0141F040419960996866
:1013F8000029B6DAFBE741F0404199609968002975
:10140800AFDAFBE770B51D4C002604F5A87E03E0B3
:1014180094451CD0A6452FD034F902CF8445F7D186
:10142800B4F950518D42F3D1B4F9A0529542EFD19D
:10143800B4F9F0539D42EBD14FF0000C944526804F
:10144800A4F85061A4F8A062A4F8F063E2D1B4F95A
:1014580050C19C45DED1B4F9A0528542DAD1B4F925
:10146800F0538D42D6D1A6452680A4F85061A4F841
:10147800A062A4F8F063CFD170BD00BF361D002074
:101488002DE9F84F624C634B54E902678B4692464C
:10149800304600223946FFF797FA002860D0D4E991
:1014A800040100220023FFF78FFA002800F096803D
:1014B800DFF87891584C4FF0000844E90289574DFD
:1014C8004046D5E900234946FEF760FE4CA3D3E920
:1014D800002306460F46FFF70FF802460B46304634
:1014E8003946FEF751FEC5E90001CAE9008954E909
:1014F800028955E9022340464946FEF745FE42A3C4
:10150800D3E9002306460F46D4E90001FEF7F4FFAD
:1015180002460B4630463946FEF738FE06460F4669
:10152800C4E900673E4B002240464946FEF7E4FF07
:1015380002460B463046394616461F460022394BAE
:10154800FEF7DAFF02460B4630463946FEF71EFE26
:10155800CBE9000154E9022345E90223BDE8F88FED
:101568004FF000084FF000093046394642464B46D6
:10157800FFF72AFAB8B1D4E90445264B00222046E1
:101588002946FFF721FA38B1DFF8A490224C4FF032
:10159800000844E9028992E72046294642464B461C
:1015A800FFF712FA90B9204C0022D4E90001002379
:1015B800FFF70AFA70B154E90401164B0022FFF74D
:1015C80003FA38B14FF000084FF04049124C44E993
:1015D800028974E7104C54E9028970E754E906015E
:1015E80000220023FFF7F0F90028DCD00A4C4FF066
:1015F80000084FF0804944E9028960E7AFF30080B2
:101608007B14AE47E17A743FCDCCCCCCCCCCEC3F4C
:10161800980B00200000F03FA829002098290020FE
:101628000000244000001840B80B00200000E0BF74
:101638000000E03F000000002DE9F04FDFF83CB368
:10164800C74BDFF854A30BF5F661D1E9000191B05F
:101658000022FFF7B9F9002840F028810BF5FC615A
:1016680051E90201BE4B0022FFF7AEF9002840F015
:101678001D81BC49BA4B51E902010022FFF7A4F9C8
:10168800002840F01583B849B54BD1E90001002284
:10169800FFF79AF9002840F04383B44B6FF080219C
:1016A80003F1600243F8041B9342FBD1B04CB148EC
:1016B80047F6FF73C4220021C8260227ABF8643717
:1016C8000AF0EEFDC4E900674FF448720021AA4809
:1016D8000AF0E6FD4FF448720021A8480AF0E0FD40
:1016E800BAF9321DBAF9309DBAF92A0D08904B1E85
:1016F800C3EBC3034B4403F27F33BAF92E0D0390B7
:101708000BEB43030022BAF9280D9A800790A4F640
:10171800D233BAF92C0DAAF8482D0B930C910490EA
:10172800ABF82093ABF8B014CDF8149009910126CA
:10173800CDF834A00B464A46013BC3EBC30302EB8A
:10174800030A0AF27F3A0BEB4A0ACDF81890CDF853
:1017580028A0DDE90E9ADFF8448238F9021F069BBB
:101768008B4200F01D819FED7A7B7BA5D5E9004572
:101778008DED007B059B994224D033460B9A90450A
:10178800EBD1012BCDE90E9ADDF818900BD07C49EE
:10179800013B5A00881E05920AF068FD7949059AAE
:1017A800881E0AF063FD013EB1B236B2002900F08E
:1017B8004381BBF9B0340993BBF920330593059AEB
:1017C800099BB9E7B8F95031099A9342D5D10A9BD8
:1017D800B3F904000130B0F5004F00F09B80FEF72C
:1017E80021FEDDE90023FEF7D1FC04460D468146C3
:1017F80021F0004A644B002248465146FFF7EEF8B4
:10180800A8B1624B002220462946FFF7FBF807469D
:10181800002800F082805D4B204629460022FEF712
:10182800B5FC41EC100B0AF057FB55EC104B294660
:101838002046FFF711F9B8F9F0C3B8F9A0520CF136
:10184800FF33C3EBC3032B4403F27F3247F6FF7722
:101858000BEB4202B8420146B2F904E0A8BF394690
:1018680009B28E4503F1FF3487DDB0F5004F69DB1F
:10187800978004F54874059A2BF8142003F55473DF
:10188800099A2BF8132047F6FF739E4200F0BC809C
:10189800731C324606F1C8011EB202F5C8722BF855
:1018A800125001F5C8722BF812C067E7BAF9300D6B
:1018B800BAF92A4D364EBAF9321DBAF9285DBAF985
:1018C8002C3DBAF92E2D04440D44B442B8BF344619
:1018D800B54247F6FF77B8BF3546BD42D4BFC3EB24
:1018E8000503C3EB0703BC42D4BFC2EB0402C2EB3F
:1018F8000702B342B8BF3346B242B8BF3246BB4212
:10190800A8BF3B46BA42A8BF3A461BB212B2FFF77D
:1019180079FDAEE6A146AA466CE71E4B002220469A
:101928002946FFF779F8002874D1184B2046294634
:101938000022FEF729FC41EC100B0AF045FA55ECA1
:10194800104B74E707B20BEB4402A2F8047790E758
:10195800000000000000000000000000C0FFDF40A1
:101968000000F03FA80B0020980B0020DC0A0020A4
:10197800582A0020180A0020F8060020D803002062
:10198800FA0600208A080020000030430000E03FEB
:101998000080FFFF0000E0BF381D0020361D00203A
:1019A800B8F950210C9B93427FF4DDAEB8F9A03210
:1019B8000698984212DD039B012B13D09FEDB07B54
:1019C800B8F9F033B44D9A428DED007B4FF0000426
:1019D80013DD049B012B7FF4CDAEC4E6EEDA089B41
:1019E800012BEBD19FEDA87BB8F9F0339A42A8A55B
:1019F800D5E900458DED007BEBDCBFF6BBAE079B60
:101A0800012B7FF4B7AEAEE6334648F2C60147F67F
:101A1800FE7242E7B8F9F0C3B8F9A0520CF1FF33EF
:101A2800C3EBC3032B440BEB43025C1EB2F9022742
:101A3800002A7FF7A2AE86E79DED007B974EDDF882
:101A480034A04FF44872A6F5AA6006ED027B0AF0AE
:101A580027FCBAF9345DBAF8363DABF8B034002D3E
:101A6800ABF82053D8BF4FF0FF3340DDA6F5DC6755
:101A7800A6F24E580124A6F2BE3604F10040013801
:101A880041462BF81050BBF9B03427F81030013B11
:101A9800BBF92003C3EBC303034403F21F3003F570
:101AA80054733BF910503BF813307D48ABF8B2340F
:101AB8004FF4C772ABF822530AF0D8FB4FF4C77241
:101AC800784831460AF0D2FB24B2002D47F6FF735E
:101AD80004F1010203DD9C42CFD014B2CDE714F526
:101AE800004FAAF8484D04F1FF3300F015815A1E43
:101AF800C7333BF912204A4540F3A18007990129D1
:101B080000F04281049808990890089C0398049072
:101B1800012C0798039007914FF000004FF0000147
:101B280000F04581079D0895039D0795049DCDE923
:101B380003543BF913300C9CA34236DD089B012B60
:101B480000F06D81039B012B11D10899079CAAF81D
:101B58002C1D1846AAF8283D049B04915249AAF85E
:101B68002A4DCDE90704AAF82E3D03930020049BD3
:101B7800012B12D108990798AAF8283D039BAAF8C7
:101B88002A3D08930123CDE90310AAF82E1DAAF8CF
:101B98002C0D079300204FF080414A4539DA089B05
:101BA800012B3BD011B0BDE8F08FF6DA089B012B72
:101BB80000F00F81039B012B11D11C46AAF82C3D84
:101BC800079B04980899AAF8281DCDE90334CDE9A4
:101BD80007103649AAF82A0DAAF82E3D0020079BBF
:101BE800012BDAD11C46AAF82C3D049B0898AAF8C8
:101BF800283D1946039BAAF82E0D4A45CDE9030452
:101C0800CDE90713AAF82A3D4FF000004FF08041B4
:101C1800C5DBC7DD039B012BC4D1089BAAF82E3D69
:101C2800079BAAF82C3D049BAAF8283D039BAAF819
:101C38002A3D00204FF0804111B0BDE8F08F80F2BE
:101C480004810799012900F0D78000200021049C15
:101C5800012C7FF46EAF03980899AAF8280D254641
:101C6800079CAAF82C1DCDE90704CDE90351AAF871
:101C78002A4D0D49AAF82E5D00205AE7AFF30080DF
:101C8800000000000000E03F00000000000000002D
:101C980000000000C0FFDF40E0FFDF40480C0020EC
:101CA800F8060020880800200000F03F0000F0BF80
:101CB800BAF9300DBAF9284D654EBAF9321DBAF99C
:101CC8002E5DBAF92A3DBAF92C2D04440D44B442CC
:101CD800B8BF3446B54247F6FF77B8BF3546BD4270
:101CE800D4BFC3EB0503C3EB0703BC42D4BFC2EBAD
:101CF8000402C2EB0702B342B8BF3346B242B8BFD0
:101D08003246BB42A8BF3B46BA42A8BF3A461BB2BE
:101D180012B2FFF777FBB6E44E4B6FF40042E8E6E9
:101D2800BAF9300DBAF92C4D494EBAF9321DBAF943
:101D38002A5DBAF92E3DBAF9282D04440D44B4425F
:101D4800B8BF3446B54247F6FF77B8BF3546BD42FF
:101D5800D4BFC3EB0503C3EB0703BC42D4BFC2EB3C
:101D68000402C2EB0702B342B8BF3346B242B8BF5F
:101D78003246BB42A8BF3B46BA42A8BF3A461BB24E
:101D880012B2FFF73FFB88E40399089CAAF8281DC4
:101D98000799AAF82A1D0899AAF82C1D012C04995C
:101DA800AAF82E1D4FF000002B497FF4BBAE07990F
:101DB800AAF8281D0899AAF82A1D0499AAF82C1D22
:101DC80003993BF91330AAF82E1D0C99994226DB8A
:101DD80038DD039B07990498AAF8283DCDE9073117
:101DE8000123AAF82A1DAAF82E0D03901A49AAF869
:101DF8002C3D04930020DDE60898039CAAF8280DE2
:101E08000D460499AAF82A1DCDE90701CDE9035426
:101E18001249AAF82C4DAAF82E5D002017E7049B5A
:101E280007980399AAF82A3D08930123CDE90301ED
:101E3800AAF82C1DAAF82E0D0849AAF8283D0793E0
:101E480000207FE605490020E4E60020002170E636
:101E58000080FFFFC780FFFF0000F03F0000F0BFD9
:101E6800034B5B79B3FA83F35B094370704700BF98
:101E780020340020000000002DE9F04F2DED108BDC
:101E8800B749B84C4A79DFF818A3531CDBB2142BB6
:101E9800B2FA82F228BF00235209A3B08A714B71AB
:101EA80022460421DAF88C0BFFF78AF9BAF84A3D82
:101EB800AD4AE1892588A6896788B4F808C0A08852
:101EC800A2F8F6579BB2A2F8EA67A2F8E8171993A6
:101ED800A2F8F47713466289E488A3F8F2070E9013
:101EE8002046A3F8EEC7A3F8EC27A3F8F0070F9055
:101EF80008466446CDF860C0159516960D92149163
:101F08001797FEF77FFA0A46014642EC171B974BD4
:101F1800304603ED027BCDE91E12FEF773FA0A463E
:101F28000146924B0D98924E42EC171B83ED007BB5
:101F3800CDE91212FEF766FA0A46014642EC171B73
:101F4800204606ED027BCDE90412FEF75BFA034654
:101F58000C4644EC173B0F9886ED007BCDE9023424
:101F6800FEF750FA02460B4643EC172B0E9886ED07
:101F7800027BCDE90823FEF745FAC6E90401CDE95D
:101F880006013846FEF73EFAC6E90601CDE910011A
:101F98002846FEF737FA774BD3E92E45C6E90801FC
:101FA8000AF5A356CDE91C012246D6E900012B46C5
:101FB800FEF70AFD08B9C6E900456F4C6F49502283
:101FC80020460AF09FF99DED127B6C4984ED147B45
:101FD800482204F158000AF095F9274604F1500107
:101FE800502266480AF08EF9F7E80434214657E98A
:101FF8000245184622462B46CDE90001FEF7EEFCC5
:10200800002801F001820126D7E9008920462946E7
:1020180042464B46FEF7E2FC10B144464D460126C7
:10202800574F57E9028922462B4640464946FEF754
:10203800F3FC10B144464D460126D7E900892046F5
:10204800294642464B46FEF7C9FC10B144464D4668
:1020580001264C4F57E902892046294642464B46FD
:10206800FEF7BCFC10B144464D460126D7E900896D
:1020780022462B4640464946FEF7CEFC10B1444660
:102088004D460126404F57E9028922462B464046D5
:102098004946FEF7C1FC10B144464D46012697ED6E
:1020A800007B2B4651EC170BB0EE478AF0EE678A9F
:1020B8002246FEF7B1FC354B53E90289002801F0AE
:1020C800938151EC180B42464B46FEF787FC0028DB
:1020D80001F0A781274B2E4ED3E93445D6E90001FC
:1020E80022462B46FEF770FC08B9C6E90045294E82
:1020F8002949C82230460AF005F906F1C807C6E999
:102108003289254906F1D000C0220AF0FBF822489E
:10211800C82239460AF0F6F8B6EC027B4FF0000800
:102128008DED007BC34659EC178BF6E80245424615
:102138004B4620462946FEF751FC18B1A046A94651
:102148004FF0010BB742F0D149EC198BBBF1000FEE
:1021580001F0E483074B114ED3E9284522E000BF84
:10216800203400207C030020D8030020480B0020E6
:10217800580B002000000020D8180020A0310020B3
:10218800F818002008190020181900202819002024
:1021980048330020A81B002050330020F82E0020D0
:1021A800381D0020D6E9000122462B46FEF70CFC1C
:1021B80008B9C6E90045BA4CBA49C82220460AF00F
:1021C800A1F89DED047BB74984ED327BC02204F170
:1021D800D0000AF097F8A346B24804F1C801C82213
:1021E8000AF090F8BBEC027B8DED007B59EC178B65
:1021F80000275E46F6E8024542464B4620462946F9
:10220800FEF70AFC10B1A046A9460127A64BB34227
:10221800F0D149EC1A8B002F01F07883A34BA44E20
:10222800D3E92445D6E9000122462B46FEF7CCFB2C
:1022380008B9C6E900459F4C9F49C82220460AF0C4
:1022480061F89DED027B9C4984ED327BC02204F14C
:10225800D0000AF057F82646974804F1C801C8226A
:102268000AF050F8B6EC027B4FF000088DED027BC7
:1022780037460496464659EC178BF7E8024542461E
:102288004B4620462946FEF7C7FB10B1A046A94693
:1022980001268A4BBB42F0D149EC1B8BB046049E09
:1022A800B8F1000F01F02A83804B854FD3E922450E
:1022B800D7E9000122462B46FEF786FB08B9C7E995
:1022C8000045804C8049C82220460AF01BF89DED45
:1022D800087B7D4984ED327B04F1D000C0220AF0EE
:1022E80011F8254604F1C8017748C8220AF00AF80F
:1022F800B5EC027B8DED047B002759EC178BCDF8EC
:1023080028B02C460896BB46F4E8026742464B467E
:1023180030463946FEF780FB18B1B046B9464FF053
:10232800010B6A4B9C42EFD15F46089EDDF828B04E
:1023380049EC1C8B002F01F0D9825C4B644CD3E92B
:102348002089D4E9000142464B46FEF73DFB08B917
:10235800C4E900895F4F6049C822384609F0D2FFB6
:102368009DED067B5C4987ED327B07F1D000C022EA
:1023780009F0C8FF3C4607F1C8015748C82209F0D0
:10238800C1FFB4EC027B8DED067B002359EC178B63
:102398000A96CDF868B027460894AB461E46F7E87B
:1023A800024542464B4620462946FEF735FB10B10A
:1023B800A046A9460126494B9F42F0D133465D46C7
:1023C800089CDDF868B00A9E49EC1D8B002B01F0D3
:1023D8006582364B424FD3E9308957E902014246BC
:1023E8004B46FEF7F1FA08B947E90289DFF8FC80A5
:1023F8003B495022404609F085FF9DED107B384946
:1024080088ED147B482208F1580009F07BFF474605
:1024180008F150015022324809F074FFF7E804012E
:1024280017ED027B53EC172BB0EE478AF0EE678A64
:10243800CDE90A01FEF7D2FA002800F0CB87012384
:102448000893D7E9008953EC182B40464946FEF714
:10245800E3FA18B1012349EC188B0893214F57E987
:10246800028953EC182B40464946FEF7D5FA18B1B5
:10247800012349EC188B0893D7E9008953EC182BF2
:1024880040464946FEF7C8FA18B1012349EC188BB3
:102498000893154F57E9028953EC182B404627E05B
:1024A80028140020002F0020F01400200000002035
:1024B800382D002008110020402D0020D0110020C8
:1024C800582C0020780F0020602C0020401000209D
:1024D800782B0020E80D0020802B0020B00E002073
:1024E8000832002098190020A81900207819002027
:1024F8004946FEF791FA18B1012349EC188B089365
:10250800D7E9008953EC182B40464946FEF784FA70
:1025180018B1012349EC188B0893C74F57E9028972
:1025280051EC180B42464B46FEF758FA18B10123F6
:1025380049EC188B0893D7E9008953EC182B4046CF
:102548004946FEF769FABD4B002800F0368713EDBF
:10255800027B424651EC170B4B468DED0A7BFEF78A
:102568005BFA002800F03287B54BB64FD3E93289C1
:10257800D7E9000142464B46FEF726FA08B9C7E9F3
:102588000089DFF8E482B049C822404609F0BAFE63
:102598009DED0A7BAC4988ED327B08F1D000C02262
:1025A80009F0B0FE474608F1C801A748C82209F05B
:1025B800A9FEB7EC027B8DED087B002359EC178B45
:1025C800CDE91A6B0A94AB461E46F7E80245424627
:1025D8004B4620462946FEF701FA10B1A046A94607
:1025E80001269A4BBB42F0D133465D460A9CDDF882
:1025F8006CB01A9E49EC188B002B01F04781B0EEA5
:10260800490AF0EE690ABAF84C3D914F9BB208931B
:10261800199B3B8009F060FC9FED851B09F09EFB30
:1026280059EC108B10EE100A002200234946FEF7E1
:10263800D5F9002841F0158140464946FEF734FA9D
:1026480080B27880B0EE4A0AF0EE6A0A09F044FCDB
:102658009FED771B09F082FB59EC108B10EE100AE6
:10266800002200234946FEF7B9F9002841F0F0801E
:1026780040464946FEF718FA80B2B880B0EE4B0AD9
:10268800F0EE6B0A09F028FC9FED691B09F066FB68
:1026980059EC108B10EE100A002200234946FEF771
:1026A8009DF9002841F0CB8040464946FEF7FCF9E9
:1026B80080B2F880B0EE4C0AF0EE6C0A09F00CFC1F
:1026C8009FED5B1B09F04AFB59EC108B10EE100ACA
:1026D800002200234946FEF781F9002841F0A68030
:1026E80040464946FEF7E0F980B23881B0EE4D0A1F
:1026F800F0EE6D0A09F0F0FB9FED4D1B09F02EFB83
:1027080059EC108B10EE100A002200234946FEF700
:1027180065F9002841F05E8040464946FEF7C4F955
:1027280080B27881B0EE480AF0EE680A09F0D4FB6E
:102738009FED3F1B09F012FB59EC108B10EE100AAD
:10274800002200234946FEF749F9002841F0398064
:1027580040464946FEF7A8F980B2089BFB81BAF8C3
:102768004E3D374AB8819BB2D2E92C890A93B2F818
:1027780066303B82374F4246D7E900014B46FEF7A9
:1027880023F908B9C7E90089DFF8E0803249C8228F
:10279800404609F0B7FD9DED127B2F4988ED327B4D
:1027A80008F1D000C02209F0ADFDC82208EB0201F3
:1027B800294809F0A7FD98ED007B08F10807A7F65E
:1027C80058338DED087B83ED007B59EC178B002384
:1027D800CDE9196B1294AB461E46F7E8024542460E
:1027E8004B4620462946FEF7F9F810B1A046A946FF
:1027F80001261A4BBB42F0D133465D46129CDDF8E8
:1028080068B0199E49EC188B002B01F06780144BB7
:10281800C3E900899DED007B124B1296002783EDDA
:10282800007BB84657EC176B0894A94620E000BF18
:10283800000000000000F040B8190020C81900206E
:10284800000000206832002070320020E01A0020CA
:1028580090030020B8300020C0300020101800205D
:10286800F80B0020180C0020181A00204817002028
:10287800FBE8024532463B4620462946FEF7AEF8BD
:1028880018B126462F464FF00108CB4B9B45EFD198
:1028980047EC176B47EC196B4746089C129E4D4650
:1028A800002F01F01380A3F6D80383ED007B9DED84
:1028B800027BC24B009403ED027B59EC178B002777
:1028C800AB46F6E8024542464B4620462946FEF707
:1028D80085F810B1A046A9460127B94BB342F0D1FB
:1028E800009C49EC1A8B5D46002F00F0E787A3F5A2
:1028F800B56343E902899DED047BDFF8F482009417
:1029080008ED027B57EC176B4FF00009AB46FBE86C
:10291800024532463B4620462946FEF75FF818B185
:1029280026462F464FF00109A64B5B45EFD1009C88
:1029380047EC1B6BB9F1000F00F0B88748E9026754
:102948009DED067B002588ED007BA146AB4655EC46
:10295800174BF9E8026722462B4630463946FEF700
:102968003DF818B134463D464FF0010B964B99455A
:10297800EFD145EC174B45EC1C4B5D46002D00F0A4
:102988007D8788ED007B914B914ED3E92A45D6E9A6
:10299800000122462B46FEF717F808B9C6E900459C
:1029A8008C4D8D49C822284609F0ACFC9DED107B62
:1029B800894985ED327B05F1D000C02209F0A2FCDF
:1029C8002C4605F1C8018448C82209F09BFCB4ECE8
:1029D800027BA5F51A638DED007B03ED027B59ECB4
:1029E800178B4FF0000B04F1C005F4E8026740466E
:1029F800494632463B46FEF70FF818B1B046B9468D
:102A08004FF0010BA542F0D1BBF1000F00F0328767
:102A1800724B43E90289B0EE480AF0EE680ABAF848
:102A2800503D6F4E9FB20A9B338009F055FA9FEDD7
:102A3800601B09F093F955EC104B10EE100A0022B8
:102A480000232946FDF7CAFF002840F08D8620465E
:102A58002946FEF729F880B27080B0EE490AF0EEF8
:102A6800690A09F039FA9FED521B09F077F955EC1C
:102A7800104B10EE100A002200232946FDF7AEFF86
:102A8800002840F0688620462946FEF70DF880B2F7
:102A9800B080B0EE4A0AF0EE6A0A09F01DFA9FED1E
:102AA800441B09F05BF955EC104B10EE100A00229C
:102AB80000232946FDF792FF002840F0798620463A
:102AC8002946FDF7F1FF80B2F080B0EE4B0AF0EE38
:102AD8006B0A09F001FA9FED361B09F03FF955EC36
:102AE800104B10EE100A002200232946FDF776FF4E
:102AF800002840F0548620462946FDF7D5FF80B2CD
:102B08003081B0EE4C0AF0EE6C0A09F0E5F99FED61
:102B1800281B09F023F955EC104B10EE100A00227F
:102B280000232946FDF75AFF002840F02F8620464B
:102B38002946FDF7B9FF80B2708149EC108B09F086
:102B4800CBF99FED1B1B09F009F91C4955EC104BFB
:102B580081ED000B10EE100A002200232946FDF734
:102B68003DFF002840F0098620462946FDF79CFFD6
:102B780080B21C4B154A9B79B2F86C20B081F78162
:102B8800328243B19DED1E7B174B03ED027B9DED19
:102B98001C7B83ED007B0D4B1498B3F86040DFF885
:102BA8005490124D04FB00F0FDF72CFC24E000BF0C
:102BB800000000000000F040F0140020280C002065
:102BC800D011002040100020B00E0020000000208E
:102BD800D82F0020B8150020E02F0020180C002066
:102BE800A40300202034002018290020A80B00206E
:102BF800080C0020880B0020BC4B0022FDF77CFC51
:102C080049E90201169804FB00F0FDF7FBFBB74BFE
:102C18000022FDF771FCE9E804010D9804FB00F0BF
:102C2800FDF7F0FBB14B0022FDF766FC49E9020114
:102C3800189804FB00F0FDF7E5FBAC4B0022FDF70C
:102C48005BFCC9E900010F9804FB00F0FDF7DAFB13
:102C5800A64B0022FDF750FC45E902010E9804FB43
:102C680000F0FDF7CFFBA14B0022FDF745FCC5E9BD
:102C78000001179804FB00F0FDF7C4FB9B4B0022F2
:102C8800FDF73AFCC5E90201159804FB00F0FDF7D1
:102C9800B9FB964B0022FDF72FFC954B0026C3E9A4
:102CA8000066C3E90266934BC3E90066924BC5E927
:102CB80004011E609149924B51E902011E600022F5
:102CC800904BFDF763FA904B8C4AA3F8746804465E
:102CD8000D46012742E90245C3F8707883F8766803
:102CE80000220023FDF77AFE804629462046B8F1E7
:102CF800000F40F02985FDF7AFFE0446072C09DDDB
:102D0800824A82FB04322244E317C3EBA203C3EBDB
:102D1800C303E41A032C4FF00003C4BFC4F1070433
:102D280047469C42ADF884308DF8863040F3F984EC
:102D3800002F01F01484744A131B032C93F876387F
:102D480082F87638A2EB040393F8753882F8753860
:102D5800A2EB040393F8743882F87438A2EB0403E6
:102D680093F8733882F873380AD0131B012C93F840
:102D7800723882F8723804BF92F8703882F8713865
:102D880063482246002109F08BFA5F4B93F970489B
:102D9800002C41F044845C4D5E4A95F975380093E7
:102DA8004FF40071003B946118BF0123916218032E
:102DB80095F97358DB0280F4805783F400664FF46A
:102DC8008041A446534AC2F818C09162002D00F011
:102DD8009F844FF4807C0021C2F818C091624FF4A0
:102DE800004C4C4AC2F818C0916290619762002C5E
:102DF80000F08484484A4FF4805000219061916229
:102E08004FF40050404A009F82F8FF7782F800781C
:102E180082F8FC47174682F8FD5782F8FE4782F889
:102E2800014882F8025882F803483A4A9061916250
:102E3800936196629AF8553DC7F8F827002B00F081
:102E48003084DFF8E4B00BF110070BF12008334EA3
:102E5800DFF8D8C0B646BEE80F00ACE80F00BEE801
:102E68000F00ACE80F00BEE80F00ACE80F009EE8CA
:102E78000F008CE80F0056E91001224B0022FDF7E5
:102E8800A3FD002840F0FC83012C04D1244B53E916
:102E98000223C6E910235BE902011A4B0022FDF761
:102EA80093FD002840F0DB83012D05D11C4A1D4B02
:102EB800D2E9000143E90201DBE90001114B0022DC
:102EC800FDF782FD002840F0BA83012C04D159E9AE
:102ED8000201144BC3E9000157E90201094B002222
:102EE800FDF772FD002840F0998321E00000503E74
:102EF80028340020B80300203C340020D8290020C2
:102F0800383400200000F03FD80300209324499271
:102F1800480C00200010004800040048F827002052
:102F2800880B002048280020C8270020400B0020DC
:102F3800009B012B04D1D9E90001AB4B43E9020105
:102F4800D7E90001A94B0022FDF73EFD002840F01B
:102F58005383009B012B05D1A54AA34B52E90201DB
:102F6800C3E9000158E90201A04B0022FDF72CFD3E
:102F7800002840F03083012C05D19D4A9D4BD2E9B1
:102F8800000143E90201D8E90001984B0022FDF74E
:102F98001BFD002840F00E83012D05D1964A954B64
:102FA80052E90201C3E9000156E902018F4B0022F0
:102FB800FDF70AFD002800F0F3828F4A8F4BD2E913
:102FC8000001012C43E9020101F0058353E91223B2
:102FD800FDF7DAF88A4BC3E900015BE90201834B8C
:102FE8000022FDF7F1FC002840F0BE82854B93EDEE
:102FF800007BB0EE47AAF0EE67AA57E902017B4BC7
:103008000022FDF7E1FC002840F092827E4B93ED10
:10301800007BB0EE47BAF0EE67BAD7E90001734B10
:103028000022FDF7D1FC002840F03182774B13EDE8
:10303800027BB0EE47CAF0EE67CAD8E900016B4BD5
:103048000022FDF7C1FC002840F005826C4B13ED0F
:10305800027BB0EE47DAF0EE67DA6D4C6D4D0FCCBF
:103068000FC50FCC0FC50FCC0FC594E80F0085E82E
:103078000F0094F96400FDF7D5F946E9100194F9B9
:103088006500FDF7CFF94BE9020194F96600FDF7F9
:10309800C9F946E90C0194F96700FDF7C3F947E956
:1030A800020194F96800FDF7BDF946E9080194F9B1
:1030B8006900FDF7B7F948E9020194F96A00FDF7DC
:1030C800B1F946E9040194F96B00FDF7ABF9402228
:1030D80046E9020104F11000002109F0E1F84E4B25
:1030E80014ED087B53E90245B0EE47EAF0EE67EAD3
:1030F80051EC170B22462B46FDF78EFC18B13B4BC3
:10310800002249E90223414B93ED007B424BB0EE8C
:1031180047FAF0EE67FA93ED006B51EC170BB0EE3F
:10312800468AF0EE668A53EC162BFDF775FC20B143
:103138002E4B2F490022C1E90023384953EC1A2BA2
:10314800D1E90001FDF74AFC002800F07F81274BF8
:1031580033490022C1E90023CDE902232F4B53E96B
:10316800020153EC1D2BFDF739FC20B11F4B2249FE
:10317800002241E902232B4953EC1C2B51E902019F
:10318800FDF72CFC002800F05C81002306934FF427
:10319800004317490493154B002241E90223214BB0
:1031A800D3E9000153EC1B2BFDF718FC002800F0B5
:1031B80044814FF4005308930C4B0022C9E90023C3
:1031C8004FF0000B0E4B93ED007B174BB0EE479A78
:1031D800F0EE679AD3E9006751EC170B32463B468D
:1031E800FDF71AFC38B321E0582800200000F03F12
:1031F800A80B002068280020B80B0020B828002061
:10320800780B0020480B0020580B0020680B00208A
:10321800400B0020F82700202829002048290020FA
:10322800880B00203829002058290020AE4BAF49D0
:103238000022C1E90023AE4B53E90289AD4B13EDDF
:10324800027B404653EC172B49468DED007BFDF77A
:10325800E3FB20B1A44BA849002241E902234246DE
:103268004B4651EC190BFCF791FF53EC1F2BFCF765
:103278008DFF53EC1E2BFCF789FF41EC170B53EC29
:10328800182B2046294655EC174BFCF77FFFDDE944
:103298000023FCF77BFF32463B46FCF777FF8AA307
:1032A800D3E90023FDF728F902460B4620462946B4
:1032B800FDF794FB002840F0BB809FED857B8DEDEA
:1032C800007B8E4B089A83ED007B8D4BDDE9020174
:1032D8009A61C3F828B000220023FDF775FB002887
:1032E80000F0A380814B002253E902010023FDF77F
:1032F8006BFBB0FA80F04009830383F48040804A76
:10330800804F9361049B90629361069B93627E4B0E
:103318007E4CC7F8F847D3E9000100220023FDF7E7
:1033280053FBB0FA80F04009794B7A4DC000A06198
:1033380080F00800A0629868FDF786F866A3D3E9D4
:103348000023FDF7D9F855E90223FCF71FFF26698A
:10335800714B9AF8524D1A69C7F87828FF2CCDE9B5
:10336800020145E9020103D00134E4B28AF8524D62
:103378009AF8443D13F0200700F0D88203F01F03A9
:10338800013B06F0040602F04002122B01F2F08322
:10339800DFE813F06D098709CA09EC09350A5A0AEA
:1033A800830AFB088A0A420B300C9F0BAF0BC30B36
:1033B800EB0BF90B200C5609FE0853E9028951EC76
:1033C800180B42464B46FDF709FB10B3CDE90A89B5
:1033D800FFF7CAB89DED0A7B00230893B0EE478A31
:1033E800F0EE678AFFF72DB82046294642464B463D
:1033F800FDF7F4FA00287EF46DAE002E41F07784D4
:10340800DDE90089FEF766BEDDE900450026FEF726
:10341800FBBD089B002B3FF4A7A88DED0A8BFFF797
:10342800A3B859EC188BFEF755BE4FF4804366E7F6
:103438009FED2B7B8DED007B43E708904FF4005BFD
:10344800C0E64FF4004304900693A8E69FED207B66
:103458008DED027B82E63149314B51E902010022B0
:10346800FDF74AF82F4B04460D460022D3E9000128
:103478002B4BFDF741F80B46024629462046FCF740
:1034880085FE264B41EC1D0B43E90201E5E5264983
:10349800234B51E902010022FDF72EF8234B044685
:1034A8000D460022D3E900011D4BFDF725F80B4618
:1034B800024629462046FCF769FE1B4B41EC1C0BD3
:1034C80043E90201B9E500BF333333333333E33F14
:1034D80000000000000000007B14AE47E17A743F52
:1034E800000000000000F03F0000F03FB80B002093
:1034F800480B002058290020880B0020280C0020A9
:1035080000080048D80300200000002000040048FC
:10351800CC0300206829002000100048780B002008
:103528000000E03F28280020680B00201828002011
:10353800AD49AE4BD1E900010022FCF7DDFFAC4BF1
:1035480004460D46002253E90201A84BFCF7D4FFBC
:103558000B46024629462046FCF718FEA24B41ECD2
:103568001B0BC3E9000158E5A249A04BD1E90001B2
:103578000022FCF7C1FFA04B04460D46002253E988
:1035880002019A4BFCF7B8FF0B4602462946204633
:10359800FCF7FCFD974B41EC1A0BC3E900012CE545
:1035A800012C7FF41AAD954A954BD2E9000143E905
:1035B800020112E5914A934B52E90201012DC3E938
:1035C800000101F0028053E91023FCF7DDFD8E4B6A
:1035D80043E90201E8E48D4A8A4BD2E90001012C53
:1035E80043E9020100F0EB8753E91223FCF7CCFD15
:1035F800874BC3E90001C6E4844A864B52E90201BD
:10360800009A012AC3E9000101F0038053E910235D
:10361800FCF7BAFD7E4B43E90201A3E4D9E90001B6
:10362800009A7C4B012A43E9020100F0EC8753E938
:103638001223FCF7A9FD6C4BC3E9000180E459E9AA
:103648000201754B012CC3E9000100F0D68753E94C
:103658001023FCF799FD644B43E902013CE46F4AEF
:103668006D4BD2E90001012D43E9020100F0BF874B
:1036780053E91223FCF788FD5E4BC3E900011BE404
:10368800664B53E90201012CC6E9200100F0A98725
:10369800D6E91023FCF778FD564B43E90201FFF702
:1036A800FABB2046FCF7BEFEDFF87C810F460646D3
:1036B800C346EBE804672846FCF7B4FE02460B460F
:1036C800CBE900674BE902230098CDE90223FCF718
:1036D800A9FEDDE90223C8E90C230122C8E90E6727
:1036E800C8E90A67C8E90601C8E9080108F120071E
:1036F8008AF8552D08F13008FFF7A9BB484A4FF45E
:1037080080519461204691624FF40051FFF77ABBD3
:103718004FF480719561AC4691624FF40041FFF718
:1037280060BB4FF400664FF48057184600931D465F
:1037380001243C4A4FF4007C0021C2F818C0916271
:103748004FF4804CFFF73EBBFDF786F9B84644427C
:103758003746FFF7D3BA204605F10041FDF7A4F933
:10376800404280B2FFF794B9204605F10041FDF7C9
:103778009BF9404280B2FFF76FB9204605F100413E
:10378800FDF792F9404280B2FFF7F3B9204605F100
:103798000041FDF789F9404280B2FFF7CDB92046D4
:1037A80005F10041FDF780F9404280B2FFF7A8B962
:1037B800204605F10041FDF777F9404280B2FFF756
:1037C80083B9404609F10041FDF76EF9404280B2E5
:1037D800FEF7C3BF404609F10041FDF765F94042D5
:1037E80080B2FEF79EBF00BF580B00200000E03FEC
:1037F80018280020480B002008280020B80B0020BB
:1038080078280020A8280020780B0020A80B00208A
:10381800680B00209828002088280020880B0020AA
:103828000004004800100048B8270020404609F16D
:103838000041FDF739F9404280B2FEF756BF4046D5
:1038480009F10041FDF730F9404280B2FEF731BF7F
:10385800404609F10041FDF727F9404280B2FEF7E2
:103868000CBF404609F10041FDF71EF9404280B205
:10387800FEF7E7BEDDE90089FFF7CDB89DED067BD1
:10388800B0EE47CAF0EE67CAFFF77DB89DED087B3A
:10389800B0EE478AF0EE678AFEF7B1BE9DED067B73
:1038A800B0EE47DAF0EE67DAFEF793BD9DED047BE4
:1038B800B0EE47BAF0EE67BAFFF742B89DED027B6B
:1038C800B0EE47AAF0EE67AAFFF715B89DED007BAA
:1038D800B0EE479AF0EE679AFEF7E9BF9DED087BD8
:1038E800B0EE478AF0EE678AFEF794BF9DED047B41
:1038F800B0EE47CAF0EE67CAFEF71FBD9DED027B2A
:10390800B0EE47BAF0EE67BAFEF7CEBC9DED007B8D
:10391800B0EE47AAF0EE67AAFEF780BC9DED007BEB
:10392800B0EE479AF0EE679AFEF714BC23F03F0317
:1039380043F02D038AF8443DC34BCAF8303D39465D
:103948000123C248CAF8283D4FF4A862CAF82C7D62
:1039580008F0A6FC02230093BD4B394647F6FF7CCE
:1039680003F580597B1C02931DB201240022002F0D
:1039780000F09E82614500F0C582481C0E4601F1A8
:10398800A80B01F5A87801F5FC7E8B1C01B22AF87A
:10399800165026B22AF81B602AF818702AF81E60FA
:1039A80096B2002A00F06282614500F09E8203F11F
:1039B800A70B03F24F1803F2F71E19B2062F2AF8C5
:1039C80010502AF81B402AF818502AF81E6000F0F8
:1039D800958208464B1C614500F07E8203F1A70BD7
:1039E80003F24F1803F2F71E19B22AF8105023B247
:1039F80000982AF81B30062A2AF818002AF81E30E0
:103A08001AD06145084601F1010300F0558203F11F
:103A1800A7012AF810502AF8114003F24F11013279
:103A28002AF8115003F2F7110236072A2AF8116012
:103A380004F1010419B29AD1009B029F01339BB291
:103A4800072F00938ED1834BCAF8323DCAF83E3D0A
:103A5800814BCAF8363D0423AAF8423D7B494FF012
:103A68000113CAF83A3D4FF4A862881808F04AFCD6
:103A78007A4B0693069C7A4B54E902010022FCF724
:103A8800A3FF002840F0A882764B94ED007BA3F1B9
:103A980070020892A3F160020092A3F1200204923E
:103AA800B0EE478AF0EE678AA3F1300213ED027B8D
:103AB8001C460292A3F1400BA3F150026A4BB0EEF0
:103AC80047AAF0EE67AA74E9048913ED027B0A920B
:103AD800B0EE479AF0EE679A089D009BD5E900671B
:103AE80053E9020132463B46FCF74EFB52A3D3E9A9
:103AF8000023FCF701FD32463B46FCF747FB5B4AD7
:103B0800D2E92C67C2E900013B4655E90201324679
:103B1800FCF73AFB48A3D3E90023FCF7EDFC324657
:103B28003B46FCF733FB009B0A9D504AD3E90067EC
:103B380042E902013B4655E902013246FCF724FB03
:103B48003FA3D3E90023FCF7D7FC32463B46FCF7FA
:103B58001DFB029A464BD2E9006743E9020104992A
:103B680032463B4651E90201FCF70EFB34A3D3E988
:103B78000023FCF7C1FC32463B46FCF707FBDBE9B8
:103B88000067029A3A4BC3E9000152E902013B4639
:103B98003246FCF7F9FA374B0022FCF7ADFC324607
:103BA8003B46FCF7F3FA344B43E90201D5E90067D9
:103BB8005BE9020132463B46FCF7E6FA2D4B002250
:103BC800FCF79AFC32463B46FCF7E0FA2A4B4246A1
:103BD800C3E900014B4651EC1A0BFCF7D5FA16A3C2
:103BE800D3E90023FCF788FC42464B46FCF7CEFAA3
:103BF800224BC3E900010499D1E9006754E90201A5
:103C080032463B46FCF7C0FA0BA3D3E90023FCF786
:103C180073FC32463B46FCF7B9FA55EC184B804624
:103C28008946174B18EE100A00222946FCF7F4FEC5
:103C380028E000BFAFF300803D0AD7A3703DEA3FFC
:103C4800AE47E17A14AED73F01000200381D0020CC
:103C5800380D01200100040004000100E80B0020D9
:103C68000000F03F582A0020F80B002028290020E7
:103C7800382900200000D03F48290020582900207A
:103C880000002440002800F06B8118EE100AC54B94
:103C9800DFEDC58A29460022FCF758FDC34B0022F8
:103CA800FCF774FA04460D46FCF71EFF08EE100AEE
:103CB80000260027BE4B43E90289BE4BC3E90C45E9
:103CC80055EC194BC3E9006740F20113AAF8533DBC
:103CD80019EE100AB84B00222946FCF79DFE002871
:103CE80000F01C81AF4B2946002219EE100AFCF7A0
:103CF8002DFDAE4B0022FCF749FA04460D46FCF7B1
:103D0800F3FEDFEDA96A07EE100A00260027AB4B89
:103D1800B5EEC08AF1EE10FAC3E90045C3E90267BF
:103D2800DAF8D03B00F10484DFEDA57AB4EE678AB7
:103D3800F1EE10FAC8BFB0EE678A19681A79CB6A33
:103D4800DFED9F5AC86BB2FA82F25209134407EEAC
:103D5800903AF8EE677A67EE887A87EEA56AFCEE05
:103D6800C67A17EE903A8342DFED957A18BFCB6397
:103D7800CB6AF4EE678AF1EE10FA1344C8BFF0EE8E
:103D8800678AF0EE675A07EE903AF8EE677A0A6C9F
:103D980067EEA87AB5EEC07A87EEA56AFCEEC67A19
:103DA80017EE903A934218BF0B64F1EE10FADAF866
:103DB800C03B00F1BA83DFED827AB4EE677AF1EEA8
:103DC80010FAC8BFB0EE677A19681A79CB6A9FED06
:103DD8007C6A486B7B4CB2FA82F25209134407EEB4
:103DE800903AF8EE677A67EE877A87EE867AFCEE85
:103DF800C77A9FED737A17EE903A834218BF4B63E8
:103E0800CB6A134407EE903AF4EE476AF1EE10FAE3
:103E1800F8EE677AC8BFF0EE476A67EEA67AF0EE6A
:103E2800476A87EEA67A8A6BFCEEC77A17EE903A55
:103E3800934218BF8B636449C1F8F847634900226D
:103E4800D1E902010023FCF7BFFDB0FA80F0400978
:103E5800C00180F08003A061A36201F097FE23B047
:103E6800BDEC108BBDE8F04F01F078BF062F7FF452
:103E7800B2AD61457FF4CBAD554BA9F84C41023644
:103E8800A9F8EC630134A3F8FC5F0122A9F89C525D
:103E980047F6FF7147F6FE7648F2A60B48F24E1831
:103EA80048F2F61E08464FF40043002F7FF46FAD2A
:103EB80096B208464B1C74E5454BA9F84C410132B3
:103EC8000236072AA9F8EC6304F10104A3F8FC5FA1
:103ED800A9F89C52DCD1AFE548F2F61E48F24E181C
:103EE80048F2A60B47F6FE707FE548F2F61E48F248
:103EF8004E1848F2A60B47F6FE705FE5062A7FF4D7
:103F080080ADA0E54FF40043084648F2F61E48F29B
:103F18004E1848F2A60B47F6FE7638E52D4B19EEFB
:103F2800100A00222946FCF759FD002800F00383F7
:103F38001C4B2946002219EE100AFCF707FC1B4B04
:103F48000022FCF721F921F0004739460646FCF724
:103F5800CBFD002406EE900A9FED137A0025D6E6E5
:103F68001C4B18EE100A00222946FCF737FD0028E2
:103F780000F0EB8218EE100A0A4B9FED0B8A2946D7
:103F88000022FCF7E3FB094B0022FCF7FDF821F0C7
:103F9800004739460646FCF7A7FD002408EE900ABC
:103FA800002587E60000084000000000008050401F
:103FB80058290020F80B002000002440180C00208D
:103FC8000000C842000C0048D80300200000002070
:103FD800380D0120000024C0C94B13ED027BB0EE60
:103FE80047EAF0EE67EA93ED007BB0EE47BAF0EEF1
:103FF80067BA93ED047BB0EE47FAF0EE67FA93EDFB
:10400800027BB0EE47CAF0EE67CA13ED047BB0EE50
:1040180047AAF0EE67AA93ED067B53E90689B0EE4E
:1040280047DAF0EE67DA93ED087BB0EE479AF0EEE8
:10403800679AB44E089656E9024553EC1E2B204663
:104048002946FCF7CBFCB8B1A1A3D3E9002320464D
:104058002946FCF751FAA0A3D3E9002304460D46EC
:1040680051EC1E0BFCF748FA02460B46204629463F
:10407800FCF78CF846E90201A34ED6E9004553EC5B
:104088001E2B20462946FCF7C7FCB8B190A3D3E9FC
:10409800002320462946FCF72FFA8FA3D3E90023F3
:1040A80004460D4651EC1E0BFCF726FA02460B4659
:1040B80020462946FCF76AF8C6E90001934E0096A7
:1040C80056E9024553EC1F2B20462946FCF786FC8F
:1040D800B8B17FA3D3E9002320462946FCF70CFAA0
:1040E8007DA3D3E9002304460D4651EC1F0BFCF7D2
:1040F80003FA02460B4620462946FCF747F846E9EC
:104108000201089ED6E9004553EC1F2B204629469C
:10411800FCF782FCB8B16EA3D3E9002320462946F8
:10412800FCF7EAF96CA3D3E9002304460D4651ECE9
:104138001F0BFCF7E1F902460B4620462946FCF71F
:1041480025F8C6E90001724E049656E9024553EC7B
:104158001B2B20462946FCF741FCB8B160A3D3E9E4
:10416800002320462946FCF7C7F95FA3D3E90023BB
:1041780004460D4651EC1B0BFCF7BEF902460B46F4
:1041880020462946FCF702F846E90201614E0296EC
:10419800D6E9004553EC1B2B20462946FCF73CFC8E
:1041A800B8B14FA3D3E9002320462946FCF7A4F968
:1041B8004DA3D3E9002304460D4651EC1B0BFCF735
:1041C8009BF902460B4620462946FBF7DFFFC6E966
:1041D8000001514E0A9656E9024553EC1C2B204625
:1041E8002946FCF7FBFBB8B13DA3D3E900232046E1
:1041F8002946FCF781F93CA3D3E9002304460D4680
:1042080051EC1C0BFCF778F902460B462046294670
:10421800FBF7BCFF46E90201009ED6E9004553ECD6
:104228001C2B20462946FCF7F7FBB8B12CA3D3E991
:10423800002320462946FCF75FF92BA3D3E9002386
:1042480004460D4651EC1C0BFCF756F902460B468A
:1042580020462946FBF79AFFC6E90001DFF8BCB003
:104268005BE9024557EC1A6B1AEE102A3B462046CA
:104278002946FCF7B3FBC0B11DA3D3E900232046B0
:104288002946FCF739F91CA3D3E9002304460D4657
:104298001AEE100A3946FCF72FF902460B4620465B
:1042A8002946FBF773FF4BE902010A9ED6E9004550
:1042B80053EC1A2B20462946FCF7AEFB002840D0C9
:1042C8000BA3D3E9002320462946FCF715F927E07C
:1042D8009A9999999999E93F9A9999999999C93F78
:1042E800666666666666EE3F9A9999999999A93FB6
:1042F800CDCCCCCCCCCCEC3F9A9999999999B93F33
:10430800580B0020E8290020D8290020F82900208F
:10431800382A0020282A0020082A0020182A0020ED
:10432800FDA3D3E9002304460D4651EC1A0BFCF714
:10433800E3F802460B4620462946FBF727FFC6E965
:104348000001029E56E9024553EC1D2B20462946E2
:10435800FCF744FBB8B1F2A3D3E900232046294671
:10436800FCF7CAF8ECA3D3E9002304460D4651EC48
:104378001D0BFCF7C1F802460B4620462946FBF701
:1043880005FF46E90201DBE9004557EC1D6B1DEE10
:10439800102A3B4620462946FCF73EFBC0B1E0A365
:1043A800D3E9002320462946FCF7A6F8DAA3D3E987
:1043B800002304460D461DEE100A3946FCF79CF80A
:1043C80002460B4620462946FBF7E0FECBE90001F2
:1043D800C54C54E9026742464B4630463946FCF71D
:1043E800FDFAB8B1BCA3D3E9002330463946FCF73F
:1043F80083F8BBA3D3E9002306460F464046494647
:10440800FCF77AF802460B4630463946FBF7BEFE03
:1044180044E90201049DD5E9006742464B4630460F
:104428003946FCF7F9FAB8B1ABA3D3E90023304613
:104438003946FCF761F8AAA3D3E9002306460F46DC
:1044480040464946FCF758F802460B46304639467E
:10445800FBF79CFEC5E90001A44D15ED027B59EC64
:10446800198BB0EE47AAF0EE67AA57EC176B19EE56
:10447800102A17EE100A4B463946FCF7AFFAD8B1A6
:1044880095A3D3E900231AEE100A3946FCF734F84D
:1044980093A3D3E9002306460F4619EE100A4946AE
:1044A800FCF72AF802460B4630463946FBF76EFE03
:1044B80045E9020141EC1A0BD4E9008953EC192BA8
:1044C80040464946FCF7A8FAF8B183A3D3E900238C
:1044D80040464946FCF710F881A3D3E90023064675
:1044E8000F4651EC190BFCF707F802460B4630460D
:1044F8003946FBF74BFE8046894615ED027BC4E939
:104508000089B0EE47AAF0EE67AA069B93ED007B00
:10451800774BB0EE478AF0EE678A13ED027BB0EE78
:10452800479AF0EE679AFFF7D7BA9FED727A4BE495
:104538009FED708A01E4DFED6F6A00240025B0EE7C
:10454800667A26462F46FFF7E2BBDFED6A8A00242B
:104558000025B0EE688A26462F46FFF7ABBB2246F9
:10456800654921A807F0CEFE3946C4F10702634821
:1045780007F096FE624BC4F50760073021A9224672
:10458800184407F0BFFEFEF700BC632C40F2888198
:104598009AF8443D5B4C052262F304038AF8443DD3
:1045A80000238AF8523D584B069354E90201574BB1
:1045B8000022FBF7EBFD44E90201FFF75BBA43E990
:1045C800120102460B46FFF711B843E910010246F3
:1045D8000B46FEF7FABF43E9120102460B46FEF707
:1045E800F7BCC6E9100102460B46FFF753B843E98A
:1045F800120102460B46FFF73DB843E91001024697
:104608000B46FFF726B843E9120102460B46FFF7AF
:1046180010B843E9100102460B46FEF7F9BF384BC4
:1046280093F9752893F973580092131E18BF012344
:104638001803DB0280F4805783F40066FFF779B82B
:10464800C72C40F22D819AF8443D314C042262F384
:1046580004038AF8443D2C4B0693DDE902012D4BF7
:104668000022FBF791FD44E90201FFF703BA052C8C
:1046780040F216819AF8443D254C112262F3040356
:104688008AF8443D00238AF8523D1F4B0693DDE922
:1046980002011E4B0022FBF777FD44E90201FFF7F8
:1046A800E9B9052C40F2FC809AF8443D184C1022D8
:1046B80062F304038AF8443D00238AF8523D124B02
:1046C8000693DDE90201114B0022FBF75FFD44E987
:1046D8000201FFF7CFB900BF9A9999999999E93FD3
:1046E8009A9999999999C93F482A0020582A0020EF
:1046F800F80B0020000000004CC30008480C002004
:10470800D803002088290020E80B002000805640AC
:1047180078290020008086409A9999999999B93FFB
:10472800CDCCCCCCCCCCEC3F052C40F2B9809AF85F
:10473800443DAD4D06950B2262F304038AF8443DCF
:1047480000238AF8523DA94BA94C0022C5E9002351
:10475800A84B0022C5E90223DDE90201A64B00228D
:10476800FBF714FD44E90201FFF784B9A04C54E9B2
:104778000267DDE9020132463B46FBF705FD0022F0
:104788000023FCF72BF9002800F0FC839FED907BB9
:104798009A4B954AB0EE479AF0EE679A03ED027B82
:1047A800B0EE478AF0EE678A9AF8443D02ED027B44
:1047B80082ED007B0C2262F304038AF8443D002357
:1047C800AAF8483D8E4BA3F170020892A3F160024B
:1047D80013ED027B0092A3F120020492A3F13002B0
:1047E8001C460292A3F1500274E90489B0EE47AA6C
:1047F800F0EE67AA0A92A3F1400BFFF76DB9814E5C
:10480800DDE9022356E90201FBF7BEFC0022002382
:1048180080468946FCF7E2F810B9632C40F25E84C2
:104828009AF8443D70490691082262F304038AF815
:10483800443D00238AF8523D6E4B0022C1E9002313
:10484800C1E90223FFF716B9D5E9004500224FF068
:10485800804320462946FCF7B7F80646002800F0B2
:104868006782634B0022D3E90001674BFCF7ACF881
:10487800B0B19AF8443D5C490691032262F30403FF
:104888008AF8443D00238AF8523D604B0022C1E972
:104898000023C1E90223FFF7EDB8C72C00F2D1804D
:1048A800514B0693FFF7E6B8544A564CDFF83C9153
:1048B80002F13001A2F17800FCF7E2FD4F4946A36E
:1048C800D3E90023D1E90001FBF716FED4E9002360
:1048D800FBF75CFC06460F46A04664E80467474BB6
:1048E80054E90201D3E90C23FBF750FC32463B465E
:1048F800FBF74CFC55E90223FBF746FCF8E90C23CF
:1049080006460F46FBF742FC35A3D3E900230446CD
:104918000D46FBF7F1FD02460B4620462946FBF7FC
:1049280033FC58E90223C8E9000130463946FBF751
:104938002BFC374B0022FBF7DFFD364B04460D46B8
:10494800002230463946FBF7D7FD02460B46204683
:104958002946FBF71BFC48E9026702460B46064658
:104968000F4600202349FBF70FFC4FF000084B4689
:10497800424604460D46FCF745F8204B002800F057
:10498800F68143E9044529461A4D2046002422466B
:104998002B46FCF741F8002800F0EB81174B224624
:1049A80043E9044530462B463946FBF7EFFB4246C0
:1049B8004B4604460D46FCF725F8002840F0EF81E9
:1049C8000E4B43E90289103B0693FFF753B800BF2B
:1049D80000000000000000009A9999999999A93F50
:1049E8007B14AE47E17A743FE80B0020000059C001
:1049F800782900200000594000806640F80B00200C
:104A0800582A0020882900200000F03F000049C0F3
:104A180000004E4000001840DDE90001B84B0022BC
:104A2800FBF7D2FF002800F0E5814F2C40F2E2812D
:104A3800DAF8342DDAF8303D934200F05A83002E2C
:104A480071D09AF8443DAF48AF4C062262F3040394
:104A58008AF8443DFCF7F0FDBAF92A2DBAF9323D3F
:104A6800C5E90001BAF9305DBAF9281D15441944A1
:104A7800A542BAF92E2DBAF92C3D47F6FF70B8BFFA
:104A88002546A142B8BF21468542D4BFC2EB0502E4
:104A9800C2EB00028142D4BFC3EB0103C3EB0003A6
:104AA800A242B8BF2246A342B8BF23468242A8BF4B
:104AB80002468342A8BF03469149AAF8323D934B68
:104AC800AAF8302D0020924A0692C3E90001FEF7A9
:104AD800D1BF002E40F021829AF8443D8AF8526DE9
:104AE800122262F304038AF8443D894B0693FEF7C9
:104AF800C1BF9AF8443D864906910C2262F304032B
:104B08008AF8443D00230022AAF8483D0023C1E961
:104B18000023C1E90223FEF7ADBF002A00F0AC82F2
:104B2800002E7FF4BDAE9AF8443D7A490F2262F315
:104B38000403A1F5A8604FF4A8628AF8443D07F081
:104B4800E1FBDAF83C3DCAF8303DCAF8383DDAF8FE
:104B5800403DCAF8343D0123CAF8283D0023CAF86D
:104B68002C3D6B4B0693FEF785BF002A7FF498AE69
:104B78009AF8443D072262F304038AF8443D00236F
:104B88008AF8523D8CE6614EDDE9022356E90201BE
:104B9800FBF7FAFA0022002380468946FBF71EFF3E
:104BA80008B94F2C37D99DED027B5B4A9AF8443DF2
:104BB80082ED007B0A2262F304038AF8443D002355
:104BC8008AF8523D524B06930022002346E90223FD
:104BD800FEF750BF4D4EDDE9022356E90201FBF70F
:104BE800D3FA0022002380468946FBF715FF0028E8
:104BF800D9D1D6E7454EDDE9022356E90201FBF794
:104C0800C3FA0022002380468946FBF7E7FE002806
:104C1800C9D18B2CC7D8F6E9142340464946FBF77F
:104C2800B5FA35A3D3E9002304460D46FBF764FC27
:104C380002460B4620462946FBF7A6FA56E9022308
:104C4800C6E9000140464946FBF79EFA334B00226D
:104C5800FBF752FC324B04460D46002240464946BB
:104C6800FBF74AFC02460B4620462946FBF78EFA1C
:104C780004460D4646E9028922462B4600200021BB
:104C8800FBF782FA274B002206460F46FBF7BAFECF
:104C9800002800F0EA81DFF894904FF000083046D1
:104CA800394642464B46FBF7B7FE002800F0DF8145
:104CB800174B0693C3E900891A4B00222046294660
:104CC800FBF78CFE002863D1174B204643E90245C9
:104CD8002946164B0022FBF79FFE00283EF4CAAE79
:104CE800124B1149002241E90223FEF7C3BEA04638
:104CF800A946FDF7EFB900BF7B14AE47E17A743FD0
:104D08000000F03F800B00200080FFFF7829002082
:104D1800E80B0020782200208829002000004E405F
:104D280000001840000059C0F80B0020000059404E
:104D3800894B002220462946FBF746FE07460028F5
:104D48003CD0864B0022D3E90001854BFBF73CFEA3
:104D580000283FF4A5AD83499AF8443D8AF8526D7E
:104D68000691022262F304038AF8443D8DE543E983
:104D78000489304639467C4B0022FBF707FA7B4B07
:104D8800002204460D46FBF73DFE40B9754B0693DD
:104D9800764B7749002241E90223FEF76BBE744B3C
:104DA800204643E9024529466F4B0022FBF734FEB3
:104DB80000283FF475AD6B4B069391E7684B0022D2
:104DC80020462946FBF700FE8046002800F05E8159
:104DD800624B0022D3E90001614BFBF7F5FD002887
:104DE8003FF45EAD5F499AF8443D8AF8527D0691DA
:104DF8000122B7E7002E3FF496AEDFF884815D4CC0
:104E08004246A8F10801A8F1B800FCF739FB4EA307
:104E1800D3E90023D8E90001FBF76EFBD4E90023AE
:104E2800FBF7B4F906460F46A14664E8046758E95B
:104E3800022354E90201FBF7A9F932463B46FBF786
:104E4800A5F955E90223FBF79FF9F9E90C23064672
:104E58000F46FBF79BF93EA3D3E9002304460D4612
:104E6800FBF74AFB02460B4620462946FBF78CF91E
:104E780059E90223C9E9000130463946FBF784F9AC
:104E88003D4B0022FBF738FB3C4B04460D46002205
:104E980030463946FBF730FB02460B46204629468A
:104EA800FBF774F949E9026702460B4641EC180B17
:104EB8002D492E4F0020FBF767F9002632463B4666
:104EC80004460D46FBF79EFD002800F0298148E9BD
:104ED80014452946244D2046002422462B46FBF73C
:104EE8009BFD002800F01E8148E9144522462B4608
:104EF80051EC180BFBF74AF932463B4604460D467F
:104F0800FBF780FD00287FF44AAF194B43E902679D
:104F1800A8F150030693FEF7ADBD002A3FF428AE72
:104F2800104B93ED007BB0EE478AF0EE678A93ED65
:104F3800027B0020002143E90201B0EE479AF0EE1F
:104F4800679A3FE4AFF300809A9999999999A93F94
:104F58007B14AE47E17A743F0000F0BF7829002047
:104F68000000F03FE80B002000005940000059C045
:104F7800F80B00208829002000004E40000018404F
:104F8800380C0020704D06953946704F3046002683
:104F980045E90267DDE90223FBF7F6F802460B460E
:104FA80043EC182BF4E91423FBF7F0F862A3D3E9D8
:104FB800002306460F46FBF79FFA02460B4630468B
:104FC8003946FBF7E1F854E90223C4E9000151EC42
:104FD800180BFBF7D9F85E4B0022FBF78DFA5D4BF7
:104FE80006460F46002251EC180BFBF785FA0246DD
:104FF8000B4630463946FBF7C9F804ED028B0D46DF
:10500800044622462B4600200021FBF7BDF8524BF0
:10501800002206460F46FBF7F5FC002863D04F4BED
:10502800304639460022FBF7F7FC00285DD09FED9B
:10503800447B069B83ED007B474F0026204629468C
:1050480032463B46FBF7CAFC00284AD1434F0026AC
:105058003B46204629463246FBF7DEFC404B0028FB
:1050680063D043E90267FEF7E4BF3B4F0026364BA7
:105078000693C3E900671FE69AF8443D39491422AC
:1050880062F304038AF8443DFEF7EDBC00260027CE
:105098002046294632463B46FBF796FC00283FF45B
:1050A800FFAB314C294BD4E900010022FBF78CFC03
:1050B80000283FF4F5AB9AF8443D8AF8528D9DEDEF
:1050C800027B0A2262F304038AF8443D1E4B0693CE
:1050D80044E9026784ED047BFEF7CCBCF6E91023B3
:1050E8009BE51F4BBDE71C4F0026069BC3E90067E5
:1050F800A2E79AF8442D144806900E2161F30402A1
:105108008AF8442DDAF8382DCAF8342DCAF8383D13
:1051180000220023C0E90023C0E90223FEF7AABC4D
:1051280048E9146751EC180B25E643E90245FEF7F8
:1051380080BF00BFAFF300807B14AE47E17A743FB5
:105148000000000000005940E80B00200000F03F7C
:1051580000004E4000001840000059C000005940AF
:10516800F80B0020381D00207829002000000000DE
:105178002DE9F04FA24AA34B2DED048BD2E9266707
:1051880003F5A06453E9028983B0D4E900013246EB
:105198003B46FBF719FC08B9C4E900679A4C9B49E0
:1051A800C822204607F0AEF8A4F56C65C4E9328938
:1051B80096490095C02204F1D00007F0A3F8C82250
:1051C800A118924807F09EF8D4E900AB04F108054D
:1051D8002C46D046D946F4E802674046494632464E
:1051E8003B46FBF7FBFB08B1B046B946884B9C42EF
:1051F800F1D149EC108B06F06FFE9FED7F1B06F096
:10520800ADFD57EC106B10EE100A00220023394652
:10521800FBF7E4FB002840F0CE8030463946FBF728
:1052280043FC83B20193764B7A4CD3E91E67A4F50D
:10523800C07393ED008BD4E9000132463B46FBF77F
:10524800C3FB08B9C4E90067734E009B7349C822C1
:10525800304603F6481807F055F886ED328B6F494B
:1052680006F1D000C02207F04DF8344606F1C80117
:105278006A48C82207F046F8B4EC027B57EC176B73
:10528800B0EE478AF0EE678A4BEC19ABA146A3460D
:105298000095F9E802453046394622462B46FBF789
:1052A8009DFB08B126462F46C145F2D147EC106B4D
:1052B80006F012FE9FED501B009D06F04FFD57ECC7
:1052C800106B10EE100A0022002339465C465BEC96
:1052D80019ABFBF783FB002840F08680304639463F
:1052E800FBF7E2FB80B2DFF83891019B00954BECAD
:1052F80019ABC346A04655EC184BA9F84C0DA9F8B4
:105308004A3DF8E802672046294632463B46FBF705
:1053180083FB08B134463D46D845F2D145EC104BE5
:1053280006F0DAFD9FED341B009D06F017FD57ECE3
:10533800106B10EE100A0022002339465BEC19AB03
:10534800FBF74CFB002847D130463946FBF7ACFB4E
:1053580084B2F5E8026752465B4630463946FBF7A9
:105368003DFB08B1B246BB46294BAB42F1D14BECF1
:1053780010AB06F0B1FD9FED201B06F0EFFC57ECDB
:10538800106B10EE100A002200233946FBF726FBAB
:10539800D0B930463946FBF787FB80B2A9F8504DA3
:1053A800A9F84E0D00F0F2FB03B0BDEC048BBDE88C
:1053B800F04F00F0D3BC304607F10041FBF774FB17
:1053C800404283B201932EE7304607F10041FBF7D4
:1053D8006BFB404280B2E1E7304607F10041FBF742
:1053E80063FB404284B2B4E7304607F10041FBF763
:1053F8005BFB404280B276E7000000000000F0400E
:10540800000000201829002098120020202E0020DB
:1054180060130020982A0020580C0020A02A0020A1
:10542800381D0020000000002DE9F04FB44DB548AC
:10543800B5F86E70B5F87060B5F872400782002153
:1054480067F30F0167F31F410022C0E90011C0E9AB
:10545800021166F30F02AC49AC480E8266F31F4294
:105468000023C1E90022C1E9022264F30F03A8491D
:10547800B5F874600C8264F31F43A7B0C1E9003328
:10548800C1E90233082295F87610A24C06F008FF0D
:105498000023A14AA96DA14866F30F0366F31F43D1
:1054A800C2E90033C2E902339D4B2E6D1960596081
:1054B80099609C4BEA6D26609B4C1A60D5E9086799
:1054C8005A609A606B6D036004F5406343E90267B4
:1054D800D5E90A67C3E90067D5E90C6704F54163B4
:1054E80043E90267D5E90E67C3E90067D5E91067A4
:1054F80004F5426343E90267D5E91267C3E9006727
:10550800D5E9042304F53F6141E90223D5E90623DF
:10551800C1E9002300F0DCFB4FF0010201238DF804
:1055280012200822C4F8843B0092B5F86200A4F85F
:105538004A0DB5F86400A4F84C0DB5F86800A4F855
:105548004E0DB5F86A00A4F8500D002084F8800BC1
:1055580084F8880B0920754F0390ADF81000744843
:105568009FED657BCDE9077004F53960042304F5E8
:105578004E6E04F54F6C04F5506704F54A6B04F55C
:105588004B6A04F54C6904F54D6806904FF40070B9
:1055980019468BED007B8AED007B89ED007B88ED59
:1055A800007B8EED007B8CED007B87ED007B87ED2B
:1055B800047B0122ADF8240003A8FBF785FD022136
:1055C800C4F88C0BFBF7B2FED4F88C0BFBF7EAFDA2
:1055D80004F58056D4F88C0B0121FBF757FDD5E96B
:1055E8002E010123C6F85834C6F8083606F5C363F9
:1055F8000AF5F86AA3F5C47E07F5F66704F5A4581A
:1056080004F5A55C04F5A35BCBE900014AE90201B6
:10561800CAE9000148E90201C8E900014EE90201AE
:10562800CEE900014CE90201CCE9000147E9020199
:10563800C7E90001D5E9340109F51569C9E900018F
:105648004FF0010284F8882B86F8B82486F8E02603
:1056580004F5B752E3E802019A42FBD10123D5E9E8
:10566800280186F89032C6F8B831324B03F1D002DF
:10567800E3E80201E3E802019342FBD1D5E9240102
:10568800012386F8D030C4F8F83FC6E900012A4B58
:1056980003F1C802E3E802019A42FBD10123D5E9EC
:1056A800220184F8F03FC4F8183F244B03F1D002DC
:1056B800E3E80201E3E802019A42FBD10123D5E9BC
:1056C800200184F8103FC4F8383E1D4B03F1D00286
:1056D800E3E80201E3E802019342FBD1DFF864C08A
:1056E800D5E930016746E7E804014CE9020147E9DA
:1056F8000201C7E9000127E000000000000008409F
:10570800000000207C03002090030020B803002044
:10571800A40300203C340020283400203834002022
:10572800C0030020CC030020381D002000010450D5
:1057380000000240F82E0020402D0020582C0020A8
:10574800782B002008320020CCE91201CCE90601B0
:10575800CCE90801CCE90A01CCE90C01CCE90E013D
:10576800CCE91001D5E93201CCE9180101230CF18B
:1057780020090CF130080CF1400E86F82035C6F8E7
:10578800C03486F80036C6F828350CF598720CF146
:105798006803E3E802019342FBD10123D5E92C0118
:1057A80086F85034C6F878335E4B03F1D002E3E84C
:1057B8000201E3E802019342FBD10123D5E92A0162
:1057C80086F87033C6F89832574B03F1D002E3E8F5
:1057D8000201E3E802019A42FBD1544B03930027EC
:1057E800012303A8C4F8C83B84F8C47B84F8CC7BA5
:1057F800ADF81070FBF7D8FB3946C4F8D00BFBF7AF
:1058080009FAD4F8D00B0221FBF766FB0221D4F881
:10581800D00BFBF7B9FBD4F8D03B454A1B68996815
:105828000A40062A4CD10123002784F8CC3BC4F84F
:10583800B83B03A83D4B039384F8B47B84F8BC7B46
:10584800ADF81070FBF7B0FB3946C4F8C00BFBF796
:10585800E1F9D4F8C00B0221FBF78EFA0221D4F843
:10586800C00BFBF7E1FAD4F8C03B314A1B689968D2
:105878000A40062A38D10123D5E9260184F8BC3B21
:1058880086F8B031C6F8D8302A4B03F1D002E3E8E5
:105898000201E3E802019342FBD1D5E91E01264A41
:1058A8001346E3E80201012584F8305EC4F8585D28
:1058B800D032E3E802019A42FBD127B0BDE8F08F6D
:1058C8001A68510724D41A6842F004021A605A6907
:1058D80042F001025A611A6822F004021A601A683A
:1058E80042F001021A609EE71A68520715D41A6836
:1058F80042F004021A605A6942F001025A611A68B9
:1059080022F004021A601A6842F001021A60B2E733
:105918005A6942F001025A61E1E75A6942F001020C
:105928005A61F0E7B8300020D82F0020000400406A
:1059380007000100182E0020982A002010B52D4CD1
:1059480094F8803B33B9D4F8842B01239A4284F825
:10595800803B2DD094F8C41B31B9D4F8C83B012240
:10596800934284F8C42B2DD094F8B41B31B9D4F8E1
:10597800B83B0122934284F8B42B00D010BD94F8B0
:10598800BC3B002BFAD0D4F8C00B0268136823F094
:1059980001031360FBF798F9D4F8C00B0221FBF759
:1059A80017FAD4F8C00B0221BDE81040FBF768BA1B
:1059B80094F8883B002BCDD0D4F88C0B0421FBF74E
:1059C80057FCC7E794F8CC3B002BCDD0D4F8D00BCC
:1059D8000268136823F001031360FBF775F9D4F824
:1059E800D00B0221FBF7A4FAD4F8D00B0221FBF765
:1059F800D3FAB9E7381D002038B5044672B60C4D05
:105A080000F09CFB2B68B3F5C87F0FD0094902460C
:105A180003F5C87041F8234041F82020064803F5F3
:105A28004872006841F8220001332B6062B638BD25
:105A380010470020503400204434002030B5214C59
:105A480023785A1C83B022702BB11F4A237001217E
:105A5800116003B030BD01A8FCF702FA62B602205B
:105A680006F076F9FCF708FA022006F073F972B628
:105A78002378164D9DF80520013B23706B78C2B141
:105A88005A1C6A70CBB96378002BE2D1012363708A
:105A980062B6032006F05CF9FFF76AFB032006F004
:105AA80059F972B66A786378013A013B6A70637093
:105AB800CFE7002BE7D103B030BD034A6B7001215B
:105AC8001160C6E748340020403400204C340020E0
