:020000040800F2
:10000000008001204D0B0108AF920008B592000856
:10001000BB920008C1920008C792000800000000CF
:10002000000000000000000000000000F56500086E
:10003000CD92000800000000B1650008E1640008EE
:100040009D0B01089D0B01089D0B01089D0B0108EC
:100050009D0B01089D0B01089D0B01089D0B0108DC
:100060009D0B01089D0B01089D0B0108DB92000808
:10007000792000089D0B01089D0B01089D0B0108CC
:10008000E9920008F7920008059300089D0B01080B
:100090009D0B01089D0B01089D0B01089D0B01089C
:1000A0009D0B0108159300089D0B01089D0B01088D
:1000B0009D0B01089D0B01089D0B01089D0B01087C
:1000C0009D0B01089D0B01089D0B01089D0B01086C
:1000D0009D0B01089D0B01089D0B01089D0B01085C
:1000E0009D0B01089D0B01089D0B01089D0B01084C
:1000F0009D0B01089D0B01089D0B01089D0B01083C
:100100009D0B01089D0B01089D0B01089D0B01082B
:100110009D0B01089D0B01089D0B01089D0B01081B
:100120009D0B01089D0B01089D0B01089D0B01080B
:100130009D0B01089D0B01089D0B01089D0B0108FB
:100140009D0B01089D0B01089D0B010829930008D8
:100150009D0B01089D0B01089D0B01089D0B0108DB
:100160009D0B01089D0B01089D0B01089D0B0108CB
:100170009D0B01089D0B01089D0B0108000000006C
:080180009D0B01089D0B010815
:1001880081F0004102E000BF83F0004330B54FEA40
:1001980041044FEA430594EA050F08BF90EA020FAD
:1001A8001FBF54EA000C55EA020C7FEA645C7FEA40
:1001B800655C00F0E2804FEA5454D4EB5555B8BF63
:1001C8006D420CDD2C4480EA020281EA030382EAD4
:1001D800000083EA010180EA020281EA0303362D66
:1001E80088BF30BD11F0004F4FEA01314FF4801C39
:1001F8004CEA113102D0404261EB410113F0004F4B
:100208004FEA03334CEA133302D0524263EB430301
:1002180094EA050F00F0A780A4F10104D5F1200E9F
:100228000DDB02FA0EFC22FA05F2801841F10001FA
:1002380003FA0EF2801843FA05F359410EE0A5F1CE
:1002480020050EF1200E012A03FA0EFC28BF4CF0FF
:10025800020C43FA05F3C01851EBE37101F00045B5
:1002680007D54FF0000EDCF1000C7EEB00006EEBC2
:100278000101B1F5801F1BD3B1F5001F0CD349084C
:100288005FEA30004FEA3C0C04F101044FEA4452A3
:1002980012F5800F80F09A80BCF1004F08BF5FEA2A
:1002A800500C50F1000041EB045141EA050130BD0A
:1002B8005FEA4C0C404141EB0101013C28BFB1F51C
:1002C800801FE9D291F0000F04BF01460020B1FA67
:1002D80081F308BF2033A3F10B03B3F120020CDA3A
:1002E8000C3208DD02F1140CC2F10C0201FA0CF018
:1002F80021FA02F10CE002F11402D8BFC2F1200C7D
:1003080001FA02F120FA0CFCDCBF41EA0C01904032
:10031800E41AA2BF01EB0451294330BD6FEA04047B
:100328001F3C1CDA0C340EDC04F11404C4F1200266
:1003380020FA04F001FA02F340EA030021FA04F378
:1003480045EA030130BDC4F10C04C4F1200220FACF
:1003580002F001FA04F340EA0300294630BD21FA0D
:1003680004F0294630BD94F0000F83F4801306BFD3
:1003780081F480110134013D4EE77FEA645C18BFC7
:100388007FEA655C29D094EA050F08BF90EA020F5E
:1003980005D054EA000C04BF1946104630BD91EA56
:1003A800030F1EBF0021002030BD5FEA545C05D159
:1003B8004000494128BF41F0004130BD14F5800498
:1003C8003CBF01F5801130BD01F0004545F0FE410C
:1003D80041F470014FF0000030BD7FEA645C1ABF41
:1003E800194610467FEA655C1CBF0B46024650EA78
:1003F800013406BF52EA033591EA030F41F40021A4
:1004080030BD00BF90F0000F04BF0021704730B529
:100418004FF4806404F132044FF000054FF00001FE
:1004280050E700BF90F0000F04BF0021704730B5BF
:100438004FF4806404F1320410F0004548BF404294
:100448004FF000013EE700BF42004FEAE2014FEAE9
:1004580031014FEA02701FBF12F07F4393F07F4FC4
:1004680081F06051704732F07F4208BF704793F0C7
:100478007F4F04BF41F40021704730B54FF46074DA
:1004880001F0004521F000411CE700BF50EA0102DD
:1004980008BF704730B54FF000050AE050EA010286
:1004A80008BF704730B511F0004502D5404261EBF6
:1004B80041014FF4806404F132045FEA915C3FF437
:1004C800D8AE4FF003025FEADC0C18BF03325FEAD4
:1004D800DC0C18BF033202EBDC02C2F1200300FA85
:1004E80003FC20FA02F001FA03FE40EA0E0021FAAA
:1004F80002F11444BDE600BF70B54FF0FF0C4CF498
:10050800E06C1CEA11541DBF1CEA135594EA0C0F49
:1005180095EA0C0F00F0DEF82C4481EA030621EA84
:100528004C5123EA4C5350EA013518BF52EA0335BF
:1005380041F4801143F4801338D0A0FB02CE4FF071
:100548000005E1FB02E506F00042E0FB03E54FF0A1
:100558000006E1FB03569CF0000F18BF4EF0010E99
:10056800A4F1FF04B6F5007F64F5407404D25FEA95
:100578004E0E6D4146EB060642EAC62141EA555148
:100588004FEAC52040EA5E504FEACE2EB4F1FD0C8A
:1005980088BFBCF5E06F1ED8BEF1004F08BF5FEA08
:1005A800500E50F1000041EB045170BD06F00046BA
:1005B80046EA010140EA020081EA0301B4EB5C0467
:1005C800C2BFD4EB0C0541EA045170BD41F480115F
:1005D8004FF0000E013C00F3AB8014F1360FDEBF84
:1005E800002001F0004170BDC4F10004203C35DA60
:1005F8000C341BDC04F11404C4F1200500FA05F3E3
:1006080020FA04F001FA05F240EA020001F0004283
:1006180021F0004110EBD37021FA04F642EB0601F9
:100628005EEA430E08BF20EAD37070BDC4F10C0423
:10063800C4F1200500FA04F320FA05F001FA04F2E7
:1006480040EA020001F0004110EBD37041F10001D3
:100658005EEA430E08BF20EAD37070BDC4F12005DE
:1006680000FA05F24EEA020E20FA04F301FA05F246
:1006780043EA020321FA04F001F0004121FA04F2EE
:1006880020EA020000EBD3705EEA430E08BF20EABE
:10069800D37070BD94F0000F0FD101F000464000F8
:1006A80041EB010111F4801F08BF013CF7D041EA7A
:1006B800060195F0000F18BF704703F0004652007E
:1006C80043EB030313F4801F08BF013DF7D043EA4F
:1006D8000603704794EA0C0F0CEA135518BF95EA05
:1006E8000C0F0CD050EA410618BF52EA4306D1D18C
:1006F80081EA030101F000414FF0000070BD50EAAB
:10070800410606BF1046194652EA430619D094EA34
:100718000C0F02D150EA013613D195EA0C0F05D11E
:1007280052EA03361CBF104619460AD181EA030172
:1007380001F0004141F0FE4141F470014FF000002A
:1007480070BD41F0FE4141F4780170BD70B54FF0C5
:10075800FF0C4CF4E06C1CEA11541DBF1CEA135545
:1007680094EA0C0F95EA0C0F00F0A7F8A4EB050427
:1007780081EA030E52EA03354FEA013100F088801E
:100788004FEA03334FF0805545EA131343EA1263E7
:100798004FEA022245EA111545EA10654FEA00269C
:1007A8000EF000419D4208BF964244F1FD0404F555
:1007B800407402D25B084FEA3202B61A65EB0305B1
:1007C8005B084FEA32024FF480104FF4002CB6EB6E
:1007D800020E75EB030E22BFB61A754640EA0C00EE
:1007E8005B084FEA3202B6EB020E75EB030E22BF2E
:1007F800B61A754640EA5C005B084FEA3202B6EB6F
:10080800020E75EB030E22BFB61A754640EA9C002D
:100818005B084FEA3202B6EB020E75EB030E22BFFD
:10082800B61A754640EADC0055EA060E18D04FEABB
:10083800051545EA16754FEA06164FEAC30343EA5B
:1008480052734FEAC2025FEA1C1CC0D111F4801F28
:100858000BD141EA00014FF000004FF0004CB6E721
:1008680011F4801F04BF01430020B4F1FD0C88BFC0
:10087800BCF5E06F3FF6AFAEB5EB030C04BFB6EBCB
:10088800020C5FEA500C50F1000041EB045170BDBE
:100898000EF0004E4EEA113114EB5C04C2BFD4EBEB
:1008A8000C0541EA045170BD41F480114FF0000E6F
:1008B800013C90E645EA060E8DE60CEA135594EAEB
:1008C8000C0F08BF95EA0C0F3FF43BAF94EA0C0FEE
:1008D8000AD150EA01347FF434AF95EA0C0F7FF463
:1008E80025AF104619462CE795EA0C0F06D152EAB7
:1008F80003353FF4FDAE1046194622E750EA41069B
:1009080018BF52EA43067FF4C5AE50EA41047FF4AB
:100918000DAF52EA43057FF4EBAE12E74FF0FF3C10
:1009280006E000BF4FF0010C02E000BF4FF0010CE1
:100938004DF804CD4FEA410C7FEA6C5C4FEA430C5A
:1009480018BF7FEA6C5C1BD001B050EA410C0CBFA9
:1009580052EA430C91EA030F02BF90EA020F00200B
:10096800704710F1000F91EA030F58BF994208BF72
:1009780090422CBFD8176FEAE37040F0010070472F
:100988004FEA410C7FEA6C5C02D150EA013C07D186
:100998004FEA430C7FEA6C5CD6D152EA033CD3D0D1
:1009A8005DF8040B704700BF8446104662468C46CB
:1009B8001946634600E000BF01B5FFF7B7FF0028FE
:1009C80048BF10F1000F01BD4DF808EDFFF7F4FF27
:1009D8000CBF012000205DF808FB00BF4DF808EDB2
:1009E800FFF7EAFF34BF012000205DF808FB00BFD5
:1009F8004DF808EDFFF7E0FF94BF012000205DF8F7
:100A080008FB00BF4DF808EDFFF7CEFF94BF0120AB
:100A180000205DF808FB00BF4DF808EDFFF7C4FFA4
:100A280034BF012000205DF808FB00BF4FEA410CED
:100A38007FEA6C5C02D150EA013C0AD14FEA430CD0
:100A48007FEA6C5C02D152EA033C02D14FF000000D
:100A580070474FF0010070474FEA410212F500124B
:100A680015D211D56FF47873B3EB625212D94FEAED
:100A7800C12343F0004343EA505311F0004F23FAD7
:100A880002F018BF404270474FF00000704750EA2C
:100A9800013005D111F0004008BF6FF000407047E9
:100AA8004FF00000704700BF4A0011D212F5001243
:100AB80011D20DD56FF47873B3EB62520ED44FEAAE
:100AC800C12343F0004343EA505323FA02F070472E
:100AD8004FF00000704750EA013002D14FF0FF306C
:100AE80070474FF0000070474FEA4102B2F1E0430F
:100AF80024BFB3F5001CDCF1FE5C0DD901F0004CFD
:100B08004FEAC0024CEA5070B2F1004F40EB83004C
:100B180008BF20F00100704711F0804F21D113F178
:100B28003872BCBF01F00040704741F480114FEAB1
:100B38005252C2F11802C2F1200C10FA0CF320FA3A
:100B480002F018BF40F001004FEAC1234FEAD32357
:100B580003FA0CFC40EA0C0023FA02F34FEA4303C1
:100B6800CCE77FEA625307D150EA01331EBF4FF04A
:100B7800FE4040F44000704701F0004040F0FE4065
:100B880040F40000704700BF0348044B834202D082
:100B9800034B03B118477047B8020020B802002081
:100BA800000000000548064B1B1AD90F01EBA301F2
:100BB800491002D0034B03B118477047B802002010
:100BC800B80200200000000010B5064C237843B995
:100BD800FFF7DAFF044B13B10448AFF30080012399
:100BE800237010BDB8020020000000006C1001083E
:100BF80008B5054B1BB105490548AFF30080BDE8B2
:100C08000840FFF7CFBF00BF00000000BC02002073
:100C18006C10010880B485B000AF78607B681B68F1
:100C280003F06003FB60FB68002B04D17B681B6842
:100C380003F01003FB60FB6818461437BD465DF8E7
:100C4800047B704780B483B000AF78607B681B6B0F
:100C580018460C37BD465DF8047B704780B483B0F6
:100C680000AF786039607B681A6A3B681A437B6812
:100C78001A6200BF0C37BD465DF8047B704780B42C
:100C880083B000AF786039607B681A6A3B68DB43E1
:100C98001A407B681A6200BF0C37BD465DF8047BBA
:100CA800704780B483B000AF78607B685B6C43F4B6
:100CB80000427B685A6400BF0C37BD465DF8047B70
:100CC800704780B483B000AF78607B68DB6843F01E
:100CD80001027B68DA6000BF0C37BD465DF8047B13
:100CE800704780B483B000AF78607B68DB6823F01E
:100CF80001027B68DA6000BF0C37BD465DF8047BF3
:100D0800704780B483B000AF78607B68DB6803F01D
:100D18000103012B01D1012300E0002318460C3701
:100D2800BD465DF8047B704780B483B000AF78603F
:100D38007B68DB6843F002027B68DA6000BF0C372F
:100D4800BD465DF8047B704780B483B000AF78601F
:100D58007B68DB6823F002027B68DA6000BF0C372F
:100D6800BD465DF8047B704780B483B000AF7860FF
:100D78007B68DB6803F00203022B01D1012300E04A
:100D8800002318460C37BD465DF8047B704780B4D5
:100D980083B000AF78607B68DB6843F004027B684F
:100DA800DA6000BF0C37BD465DF8047B704780B43D
:100DB80083B000AF78607B68DB6823F004027B684F
:100DC800DA6000BF0C37BD465DF8047B704780B41D
:100DD80083B000AF78607B68DB6803F00403042B02
:100DE80001D1012300E0002318460C37BD465DF809
:100DF800047B704780B483B000AF78607B68DB68A1
:100E080043F008027B68DA6000BF0C37BD465DF826
:100E1800047B704780B483B000AF78607B68DB6880
:100E280023F008027B68DA6000BF0C37BD465DF826
:100E3800047B704780B483B000AF78607B68DB6860
:100E480003F00803082B01D1012300E00023184612
:100E58000C37BD465DF8047B704780B483B000AFA3
:100E680078607B68DB6843F010027B68DA6000BF5B
:100E78000C37BD465DF8047B704780B483B000AF83
:100E880078607B68DB6823F010027B68DA6000BF5B
:100E98000C37BD465DF8047B704780B483B000AF63
:100EA80078607B68DB6803F01003102B01D1012305
:100EB80000E0002318460C37BD465DF8047B7047F8
:100EC80080B483B000AF78607B68DB6843F02002B1
:100ED8007B68DA6000BF0C37BD465DF8047B70475D
:100EE80080B483B000AF78607B68DB6823F02002B1
:100EF8007B68DA6000BF0C37BD465DF8047B70473D
:100F080080B483B000AF78607B68DB6803F02003AF
:100F1800202B01D1012300E0002318460C37BD46E1
:100F28005DF8047B704780B483B000AF78607B685D
:100F3800DB6843F040027B68DA6000BF0C37BD46CF
:100F48005DF8047B704780B483B000AF78607B683D
:100F5800DB6823F040027B68DA6000BF0C37BD46CF
:100F68005DF8047B704780B483B000AF78607B681D
:100F7800DB6803F04003402B01D1012300E000238C
:100F880018460C37BD465DF8047B704780B483B0C3
:100F980000AF78607B68DB6843F080027B68DA60CA
:100FA80000BF0C37BD465DF8047B704780B483B042
:100FB80000AF78607B68DB6823F080027B68DA60CA
:100FC80000BF0C37BD465DF8047B704780B483B022
:100FD80000AF78607B68DB6803F08003802B01D169
:100FE800012300E0002318460C37BD465DF8047B5A
:100FF800704780B582B000AF78600B467B807B88F5
:1010080003F00103002B0CD07B681B681846FFF720
:10101800AAFF0346012B04D07B681B681846FFF71C
:1010280082FF7B8803F00203002B0CD07B681B68CF
:101038001846FFF799FE0346012B04D07B681B680E
:101048001846FFF771FE7B8803F00403002B0CD0D1
:101058007B681B681846FFF7BAFE0346012B04D0CD
:101068007B681B681846FFF792FE7B8803F008032D
:10107800002B0CD07B681B681846FFF7DBFE034685
:10108800012B04D07B681B681846FFF7B3FE7B88EA
:1010980003F01003002B0CD07B681B681846FFF781
:1010A800FCFE0346012B04D07B681B681846FFF73B
:1010B800D4FE7B8803F02003002B0CD07B681B68D0
:1010C8001846FFF71EFE0346012B04D07B681B68F9
:1010D8001846FFF7F6FD7B8803F04003002B0CD081
:1010E8007B681B681846FFF771FF0346012B04D085
:1010F8007B681B681846FFF749FF7B8803F080036D
:10110800002B0CD07B681B681846FFF7F9FE0346D6
:10111800012B04D07B681B681846FFF7D1FE00BF7F
:101128000837BD4680BD80B582B000AF78600B46F9
:101138007B807B8803F00103002B0CD07B681B6845
:101148001846FFF710FF0346012B04D17B681B6884
:101158001846FFF7F8FE7B8803F00203002B0CD03B
:101168007B681B681846FFF7FFFD0346012B04D177
:101178007B681B681846FFF7E7FD7B8803F00403CC
:10118800002B0CD07B681B681846FFF720FE03462F
:10119800012B04D17B681B681846FFF708FE7B8883
:1011A80003F00803002B0CD07B681B681846FFF778
:1011B80041FE0346012B04D17B681B681846FFF7E4
:1011C80029FE7B8803F01003002B0CD07B681B687A
:1011D8001846FFF762FE0346012B04D17B681B68A3
:1011E8001846FFF74AFE7B8803F02003002B0CD03B
:1011F8007B681B681846FFF784FD0346012B04D063
:101208007B681B681846FFF76CFD7B8803F040037A
:10121800002B0CD07B681B681846FFF7D7FE0346E7
:10122800012B04D17B681B681846FFF7BFFE7B883B
:1012380003F08003002B0CD07B681B681846FFF76F
:101248005FFE0346012B04D17B681B681846FFF735
:1012580047FE00BF0837BD4680BD000080B582B09C
:1012680000AF78600B46FB70FB78022B06D17B68D9
:101278001B6801211846FFF7F1FC31E07B681B6809
:10128800194A934213D07B681B68184A93420ED0C0
:101298007B681B68164A934209D07B681B68154A0D
:1012A800934204D07B681B68134A934218D1FB7899
:1012B800032B06D17B681B6804211846FFF7CEFC78
:1012C8000EE0FB78042B0BD17B681B6801211846C4
:1012D800FFF7C4FC7B681B6804211846FFF7BEFCB7
:1012E80000BF0837BD4680BD002C014000340140D6
:1012F80000400140004401400048014080B582B0F0
:1013080000AF78600B46FB70FB78022B06D17B6838
:101318001B6801211846FFF7B2FC31E07B681B68A7
:10132800194A934213D07B681B68184A93420ED01F
:101338007B681B68164A934209D07B681B68154A6C
:10134800934204D07B681B68134A934218D1FB78F8
:10135800032B06D17B681B6804211846FFF78FFC16
:101368000EE0FB78042B0BD17B681B680121184623
:10137800FFF785FC7B681B6804211846FFF77FFC94
:1013880000BF0837BD4680BD002C01400034014035
:1013980000400140004401400048014080B582B04F
:1013A80000AF78600B46FB70FB78022B06D17B6898
:1013B8001B6810211846FFF751FC31E07B681B6859
:1013C800194A934213D07B681B68184A93420ED07F
:1013D8007B681B68164A934209D07B681B68154ACC
:1013E800934204D07B681B68134A934218D1FB7858
:1013F800032B06D17B681B6840211846FFF72EFC9B
:101408000EE0FB78042B0BD17B681B681021184673
:10141800FFF724FC7B681B6840211846FFF71EFC79
:1014280000BF0837BD4680BD002C01400034014094
:1014380000400140004401400048014080B582B0AE
:1014480000AF78600B46FB70FB78022B06D17B68F7
:101458001B6810211846FFF712FC31E07B681B68F7
:10146800194A934213D07B681B68184A93420ED0DE
:101478007B681B68164A934209D07B681B68154A2B
:10148800934204D07B681B68134A934218D1FB78B7
:10149800032B06D17B681B6840211846FFF7EFFB3A
:1014A8000EE0FB78042B0BD17B681B6810211846D3
:1014B800FFF7E5FB7B681B6840211846FFF7DFFB59
:1014C80000BF0837BD4680BD002C014000340140F4
:1014D80000400140004401400048014080B582B00E
:1014E80000AF78600B46FB70FB78022B07D17B6856
:1014F8001B684FF480711846FFF7B0FB34E07B6837
:101508001B681B4A934213D07B681B68194A934295
:101518000ED07B681B68184A934209D07B681B6809
:10152800164A934204D07B681B68154A93421BD124
:10153800FB78032B07D17B681B684FF48061184642
:10154800FFF78CFB10E0FB78042B0DD17B681B6840
:101558004FF480711846FFF781FB7B681B684FF4D6
:1015680080611846FFF77AFB00BF0837BD4680BD8B
:10157800002C01400034014000400140004401407B
:101588000048014080B582B000AF78600B46FB7020
:10159800FB78022B07D17B681B684FF480711846D3
:1015A800FFF76DFB34E07B681B681B4A934213D03E
:1015B8007B681B68194A93420ED07B681B68184ADF
:1015C800934209D07B681B68164A934204D07B6813
:1015D8001B68154A93421BD1FB78032B07D17B6804
:1015E8001B684FF480611846FFF749FB10E0FB7851
:1015F800042B0DD17B681B684FF480711846FFF7E8
:101608003EFB7B681B684FF480611846FFF737FB89
:1016180000BF0837BD4680BD002C014000340140A2
:1016280000400140004401400048014080B582B0BC
:1016380000AF78600B46FB70FB78022B06D17B6805
:101648001B684FF480511846FFF708FB00BF0837A6
:10165800BD4680BD80B582B000AF78600B46FB7098
:10166800FB78022B06D17B681B684FF48051184623
:10167800FFF705FB00BF0837BD4680BD80B584B0C5
:1016880000AF78600023FB607B681B68304A934298
:1016980001D1304BFB607B681A68FB681A60FB68F5
:1016A8001B681846FFF7B6FAB860BB68002B06D06F
:1016B800BB68102B03D0FB6801221A7102E0FB689B
:1016C80000221A71FB681B68234A934213D0FB68F7
:1016D8001B68224A93420ED0FB681B68204A93423B
:1016E80009D0FB681B681F4A934204D0FB681B683B
:1016F8001D4A934204D1FB681B681846FFF7D1FACC
:10170800FB681B68144A934213D0FB681B68134A92
:1017180093420ED0FB681B68114A934209D0FB68BC
:101728001B68104A934204D0FB681B680E4A934218
:1017380008D17B681B681846FFF784FA0346DAB2BB
:10174800FB685A71FB6818461037BD4680BD00BF5C
:1017580000040040D4020020002C01400034014065
:1017680000400140004401400048014080B485B079
:1017780000AF786039603B68002B03D17B68403349
:10178800FB6001E0044BFB60FB6818461437BD465C
:101798005DF8047B704700BF0C03045080B483B02D
:1017A80000AF78607B68DB6803F44063002B01D1ED
:1017B800012300E0002318460C37BD465DF8047B82
:1017C800704780B483B000AF786039607B681B6B6A
:1017D80023F00F023B681A437B681A6300BF0C377B
:1017E800BD465DF8047B704780B483B000AF786075
:1017F80039607B68DB6823F003023B681A437B6827
:10180800DA6000BF0C37BD465DF8047B704780B4D2
:1018180083B000AF78607B68DB6C03F0C003002BFB
:1018280001D1012300E0002318460C37BD465DF8BE
:10183800047B704780B483B000AF78607B689B6896
:1018480023F0004323F03F0343F001027B689A60D2
:1018580000BF0C37BD465DF8047B704780B483B089
:1018680000AF78607B689B6823F0004323F03F0358
:1018780043F002027B689A6000BF0C37BD465DF8F2
:10188800047B704780B483B000AF78607B689B6846
:1018980003F00103012B01D1012300E000231846C6
:1018A8000C37BD465DF8047B704780B483B000AF49
:1018B800786039607B689B6823F0404323F03F03DE
:1018C8003A6802F08042134343F000427B689A6012
:1018D80000BF0C37BD465DF8047B704780B483B009
:1018E80000AF78607B689B6803F00043B3F1004F5A
:1018F80001D1012300E0002318460C37BD465DF8EE
:10190800047B704780B483B000AF78607B689B68C5
:1019180023F0004323F03F0343F004027B689A60FE
:1019280000BF0C37BD465DF8047B704780B483B0B8
:1019380000AF78607B689B6823F0004323F03F0387
:1019480043F008027B689A6000BF0C37BD465DF81B
:10195800047B704780B483B000AF78607B681B68F5
:1019680003F00803082B01D1012300E000231846E7
:101978000C37BD465DF8047B704780B483B000AF78
:1019880078607B681B6803F01003102B01D10123DA
:1019980000E0002318460C37BD465DF8047B70470D
:1019A80080B483B000AF78607B6810221A6000BFF3
:1019B8000C37BD465DF8047B704780B483B000AF38
:1019C80078607B685B6843F008027B685A6000BFF8
:1019D8000C37BD465DF8047B704780B483B000AF18
:1019E80078607B685B6843F040027B685A6000BFA0
:1019F8000C37BD465DF8047B704780B483B000AFF8
:101A080078607B685B6823F008027B685A6000BFD7
:101A18000C37BD465DF8047B704780B483B000AFD7
:101A280078607B685B6823F010027B685A6000BFAF
:101A38000C37BD465DF8047B704780B483B000AFB7
:101A480078607B685B6823F040027B685A6000BF5F
:101A58000C37BD465DF8047B704780B483B000AF97
:101A680078607B685B6823F080027B685A6000BFFF
:101A78000C37BD465DF8047B704780B483B000AF77
:101A880078607B685B6803F01003102B01D1012399
:101A980000E0002318460C37BD465DF8047B70470C
:101AA80080B483B000AF78607B685B6803F0800324
:101AB800802B01D1012300E0002318460C37BD46D6
:101AC8005DF8047B7047000080B485B000AF786093
:101AD80039607B68FB600C4A3B6813441B781A46E4
:101AE800FB6813441B6808493A680A44127811468F
:101AF800FA680A4443F00103136000BF1437BD4677
:101B08005DF8047B704700BFDC10010880B485B025
:101B180000AF786039607B68FB600C4A3B6813440F
:101B28001B781A46FB6813441B6808493A680A443C
:101B380012781146FA680A4423F00103136000BFC3
:101B48001437BD465DF8047B704700BFDC10010800
:101B580080B485B000AF786039607B68FB60084A64
:101B68003B6813441B781A46FB6813441B6803F050
:101B7800200318461437BD465DF8047B704700BF44
:101B8800DC10010880B487B000AFF860B9607A60F3
:101B9800FB687B610D4ABB6813441B781A467B6956
:101BA80013445B681B0C1B040849BA680A44127882
:101BB80011467A690A4411467A6813434B6000BF9C
:101BC8001C37BD465DF8047B704700BFDC10010878
:101BD80080B487B000AFF860B9607A603B60FB689A
:101BE8007B613B6A102B14D1174ABB6813441B78DE
:101BF8001A467B6913441A467B68D360124ABB684D
:101C080013441B781A467B6913441A463B68936051
:101C180013E00D4ABB6813441B781A467B691344CA
:101C28001A467B689360084ABB6813441B781A46B7
:101C38007B6913441A463B68D36000BF1C37BD4616
:101C48005DF8047B704700BFDC10010880B487B0E2
:101C580000AFF860B9607A60FB687B61074ABB68CF
:101C680013441B781A467B6913441A467B689360B1
:101C780000BF1C37BD465DF8047B7047DC100108C7
:101C880080B483B000AF78607B681B6803F02003E2
:101C9800202B01D1012300E0002318460C37BD4654
:101CA8005DF8047B704780B483B000AF78607B68D0
:101CB80020225A6000BF0C37BD465DF8047B704790
:101CC80080B485B000AF786039607B68FB600C4AEF
:101CD8003B6813441B781A46FB6813441B68084981
:101CE8003A680A4412781146FA680A4443F0020333
:101CF800136000BF1437BD465DF8047B704700BF12
:101D0800DC10010880B485B000AF786039607B686A
:101D1800FB600C4A3B6813441B781A46FB68134463
:101D28001B6808493A680A4412781146FA680A4456
:101D380043F00803136000BF1437BD465DF8047B09
:101D4800704700BFDC10010880B485B000AF786030
:101D580039607B68FB600C4A3B6813441B781A4661
:101D6800FB6813441B6808493A680A44127811460C
:101D7800FA680A4423F00203136000BF1437BD4613
:101D88005DF8047B704700BFDC10010880B485B0A3
:101D980000AF786039607B68FB600C4A3B6813448D
:101DA8001B781A46FB6813441B6808493A680A44BA
:101DB80012781146FA680A4423F00403136000BF3E
:101DC8001437BD465DF8047B704700BFDC1001087E
:101DD80080B485B000AF786039607B68FB600C4ADE
:101DE8003B6813441B781A46FB6813441B68084970
:101DF8003A680A4412781146FA680A4423F008033C
:101E0800136000BF1437BD465DF8047B704700BF00
:101E1800DC10010880B485B000AF786039607B6859
:101E2800FB600A4A3B6813441B781A46FB68134454
:101E38001B6803F00203022B01D1012300E00023F9
:101E480018461437BD465DF8047B7047DC1001085E
:101E580080B584B000AF78600123FB817B681B6983
:101E68001846FFF79BFC0346002B2FD07B685B7A54
:101E7800DBB2022B11D07B685B7ADBB2042B0CD06F
:101E88007B685B7ADBB2082B07D07B681B69184636
:101E9800FFF760FD0346012B18D1786800F0F8F8C9
:101EA8000346002B12D17B685B7ADBB2082B03D187
:101EB8007B6801225A7202E07B6820225A727B6892
:101EC8001B691846FFF71EFD0023FB81FB89184696
:101ED8001037BD4680BD80B586B002AFF860B960E6
:101EE8007A603B600021F868FFF740FC03461A4619
:101EF8007968B868FFF7AAFE0021F868FFF736FC92
:101F080002463B68002100917968B868FFF760FED7
:101F1800BA697968B868FFF735FE7968B868FFF775
:101F2800CFFE7968B868FFF7EDFE7968B868FFF703
:101F3800CBFD00BF1037BD4680BD80B584B000AF73
:101F4800F860B9607A607968B868FFF7DFFD79688A
:101F5800B868FFF71BFF7968B868FFF739FF796839
:101F6800B868FFF7F1FE00227968B868FFF70AFE43
:101F780000BF1037BD4680BD80B584B000AF786023
:101F880039600223FB737B68DB79012B0FD17B68F7
:101F9800DA687B681B685B00D118FB7B7A6812687B
:101FA80002FB03F31A4638680FF04EF80AE07B6824
:101FB800D968FB7B7A68126802FB03F31A46386813
:101FC8000FF042F800BF1037BD4680BD80B586B01F
:101FD80000AFF860B9607A60FB685A69FB689B7962
:101FE80019461046FFF716FF0346DBB2012B37D11F
:101FF800FB685A69BB68104698470346012B2FD1E6
:10200800FB6804225A72FB685A697B681046984735
:10201800FB685A69FB689B7919461046FFF798FDDB
:102028000346002B19D1FB685A69FB689B7919464E
:102038001046FFF76BFDFB685869FB689B791946EA
:10204800FB681B681A46FFF79DFDFB685A69FB6829
:102058009B7919461046FFF737FD0123FB7501E010
:102068000023FB75FB7D18461837BD4680BD000070
:1020780080B500AF034A04490448FFF7A7FF00BF33
:1020880080BD00BFAF1C0008891C00086003002049
:1020980080B582B000AF78607B681B691846FFF78F
:1020A8006CFC0346DBB2012B07D17B681B69184621
:1020B800FFF776FC7B6810225A727B685B7ADBB28A
:1020C800102B0CBF01230023DBB218460837BD468E
:1020D80080BD80B582B000AF78600B46FB70FB789E
:1020E800012B0DD17B681B691846FFF757FB034688
:1020F800012B12D07B681B691846FFF703FC0CE024
:102108007B681B691846FFF782FB0346012B04D046
:102118007B681B691846FFF709FC00BF0837BD46F6
:1021280080BD000090B589B002AFF860084611463E
:102138001A4603467B810B463B811346FB800023EE
:102148007B61FB681B693C4A934201D13B4B7B6135
:102158007B69002B6BD0FB681A697B691A617B6904
:102168000022DA71FB88012B61D03B89002B47D014
:102178007B695B7ADBB2082B42D0FB68DA687B6943
:10218800DA60FB681A687B691A60FB685A697B69C0
:102198005A61FB689A797B699A71FB681A797B693D
:1021A8001A717B691B69B96A1846FFF70AFB7B89B4
:1021B800012B21D07B89042B16D17B691B69032154
:1021C8001846FFF711FB7B6918697B6959697B69B8
:1021D8009B791C467B69DA687B691B680093134608
:1021E8002246FFF778FE07E07B89022B04D17B6942
:1021F8001B691846FFF7E1FB7B6908225A7216E053
:102208003B89002B13D17B699B7ADBB2082B0ED05C
:10221800FB685A797B695A717B89022B04D17B69E7
:102228001B691846FFF7D9FB7B6908229A727B69FC
:1022380018461C37BD4690BD0001045060030020BD
:1022480080B582B000AF78607B681B691846FFF7DD
:1022580019FB0346002B04D17B681B691846FFF75E
:10226800E9FA00BF0837BD4680BD80B586B000AF2B
:10227800F8600B467A607B810123FB82FB681B694F
:10228800002B46D07B89012B05D1F868FFF7E0FDCC
:102298000346FB823DE07B89042B1FD1FB681B6949
:1022A8001846FFF77BFA0346002B32D0FB68012261
:1022B8005A72FB681B691846FFF724FB00BFFB68CE
:1022C8005B7ADBB2042BFAD17968F868FFF754FE21
:1022D800FB6808225A720023FB821AE07B89022BD2
:1022E80017D1FB685B7ADBB2202B09D0FB685B7ADD
:1022F800DBB2042B04D0FB685B7ADBB2102B08D16D
:10230800FB6808225A727968F868FFF735FE0023DF
:10231800FB82FB8A18461837BD4680BD80B582B05F
:1023280000AF78600B467B8013463B807B681B6957
:102338001846FFF7A7FA0346002B04D07B681B69F1
:102348001846FFF78BFA7B681B691846FFF7A8FB4E
:102358000346002B04D07B681B691846FFF77DFBFA
:102368007B681B691846FFF788FB0346002B04D0DF
:102378007B681B691846FFF750FB3B88002B35D05C
:102388007B88012B1AD07B88022B05D17B681B69BF
:102398001846FFF732FB11E07B88042B0ED17B68CF
:1023A80018697B6859697B689B791A46FFF7C5FDF0
:1023B8007B681B6900211846FFF716FA7B68002224
:1023C800DA607B6800221A607B6800225A617B68A9
:1023D80000229A717B6800221A717B681A697B68EF
:1023E8001B7919461046FFF7ECF90AE07B680022D2
:1023F8005A717B88022B04D17B681B691846FFF74A
:102408001CFB00BF0837BD4680BD000080B584B006
:1024180000AF78600B46FB707B681B691846FFF7B6
:1024280031FA0346FB7397F90F30012B04D17B680F
:102438001B691846FFF712FAFB78002B0FD17B684F
:102448001B697F211846FFF730FA00BF7B681B69BC
:102458001846FFF743FA0346012BF7D040E0FB7814
:10246800012B0FD17B681B692C491846FFF71DFA11
:1024780000BF7B681B691846FFF730FA0346012B3B
:10248800F7D02DE07B681B697F211846FFF70DFA0E
:1024980000BF7B681B691846FFF720FA0346012B2B
:1024A800F7D00023BB8107E000BFBB891BB29BB2FA
:1024B80001339BB21BB2BB81BB891BB29BB2032BFE
:1024C800F2D97B681B6915491846FFF7EEF900BF7A
:1024D8007B681B691846FFF701FA0346012BF7D002
:1024E8000023BB8107E000BFBB891BB29BB201334D
:1024F8009BB21BB2BB81BB891BB29BB2032BF2D927
:1025080097F90F30012B04D17B681B691846FFF738
:1025180091F900BF1037BD4680BD00BF00007F4065
:1025280080B483B000AF78607B681B6843F0010219
:102538007B681A6000BF0C37BD465DF8047B7047A6
:1025480080B483B000AF78607B681B6823F0010219
:102558007B681A6000BF0C37BD465DF8047B704786
:1025680080B483B000AF786039607B681B6823F063
:1025780004023B681A437B681A6000BF0C37BD46EB
:102588005DF8047B704780B483B000AF78607B68E7
:102598001B6803F0040318460C37BD465DF8047B3E
:1025A800704780B483B000AF78607B68DB6A1846F8
:1025B8000C37BD465DF8047B704780B483B000AF2C
:1025C800786039607B683A681A6300BF0C37BD468B
:1025D8005DF8047B704780B483B000AF78603960E1
:1025E8007B683A685A6300BF0C37BD465DF8047BC8
:1025F800704780B483B000AF786039607B683A6810
:102608009A6300BF0C37BD465DF8047B704780B401
:1026180083B000AF786039607B683A68DA6300BFDE
:102628000C37BD465DF8047B704780B483B000AFBB
:10263800786039607B683A681A6400BF0C37BD4619
:102648005DF8047B704780B483B000AF78607B6826
:102658005B6B18460C37BD465DF8047B704780B449
:1026680083B000AF78607B689B6B18460C37BD461B
:102678005DF8047B704780B483B000AF78607B68F6
:10268800DB6B18460C37BD465DF8047B704780B499
:1026980083B000AF78607B681B6C18460C37BD466A
:1026A8005DF8047B704780B483B000AF78607B68C6
:1026B8005B6943F001027B685A6100BF0C37BD4675
:1026C8005DF8047B704780B483B000AF78607B68A6
:1026D8001B6918460C37BD465DF8047B704780B40B
:1026E80083B000AF786039607B683A689A6100BF50
:1026F8000C37BD465DF8047B704780B483B000AFEB
:10270800786039607B683A689A6200BF0C37BD46CA
:102718005DF8047B7047000080B584B000AF786036
:1027280087ED000AD7ED007AF5EEC07AF1EE10FADF
:1027380003D54FF000033B600AE0D7ED007A9FED28
:10274800167AF4EEC77AF1EE10FA01DD134B3B600E
:102758007B681B681846FFF724FFF8607B681B79C5
:10276800002B0CBF01230023DBB21A46FB6813447D
:1027780007EE903AB8EE677AD7ED007A27EE277A17
:10278800DFED056AC7EE267AFCEEE77A17EE903A97
:1027980018461037BD4680BD0000C8420000C84238
:1027A80080B582B000AF786039607B681B681846D6
:1027B800FFF749FF02463B68934205D07B681B68D8
:1027C80039681846FFF707FF00BF0837BD4680BDC8
:1027D80080B582B000AF786039607B681B681846A6
:1027E800FFF73DFF02463B68934205D07B681B68B4
:1027F80039681846FFF7FDFE00BF0837BD4680BDA3
:1028080080B582B000AF786039607B681B68184675
:10281800FFF731FF02463B68934205D07B681B688F
:1028280039681846FFF7F3FE00BF0837BD4680BD7C
:1028380080B582B000AF786039607B681B68184645
:10284800FFF725FF02463B68934205D07B681B686B
:1028580039681846FFF7E9FE00BF0837BD4680BD56
:1028680080B584B000AF786087ED000A97ED000A64
:102878007868FFF751FFF860F9687868FFF790FF0C
:1028880000BF1037BD4680BD80B584B000AF78600A
:1028980087ED000A97ED000A7868FFF73DFFF860BA
:1028A800F9687868FFF794FF00BF1037BD4680BD10
:1028B80080B584B000AF786087ED000A97ED000A14
:1028C8007868FFF729FFF860F9687868FFF798FFDC
:1028D80000BF1037BD4680BD80B584B000AF7860BA
:1028E80087ED000A97ED000A7868FFF715FFF86092
:1028F800F9687868FFF79CFF00BF1037BD4680BDB8
:1029080080B485B000AF78607B681B689A68074B15
:102918001340FB60FB68062B0CBF01230023DBB2CE
:1029280018461437BD465DF8047B70470700010060
:1029380080B584B000AF78600B46FB707B681B687D
:102948001846FFF720FEF860FB78002B1ED07B6846
:102958001B68324A934213D07B681B68304A934203
:102968000ED07B681B682F4A934209D07B681B688E
:102978002D4A934204D07B681B682C4A934205D1A8
:102988007B681B6800211846FFF717FEFB68042BBD
:1029980011D07B681B6804211846FFF7E1FD7B68AE
:1029A8001B681846FFF77FFE7B681B68F9681846A6
:1029B800FFF7D6FD04E07B681B681846FFF773FE37
:1029C8007B681B681846FFF7ABFDFB78002B20D00F
:1029D8007B681B68114A934213D07B681B68104AB6
:1029E80093420ED07B681B680E4A934209D07B68DD
:1029F8001B680D4A934204D07B681B680B4A9342BC
:102A080007D17B681A687B685B7919461046FFF71F
:102A1800D4FD00BF1037BD4680BD00BF002C01406B
:102A2800003401400040014000440140004801409A
:102A380080B582B000AF78607B681B681846FFF7E6
:102A48007FFD00BF0837BD4680BD000080B483B05D
:102A580000AF7860074B5B79002B0CBF0123002384
:102A6800DAB27B6801331A7000BF0C37BD465DF8D7
:102A7800047B7047C822002080B400AF0C4B5B7900
:102A8800002B0CBF01230023DAB2094B9A71084BC3
:102A98005A790132D2B25A71054B5B79092B02D9A6
:102AA800034B00225A7100BFBD465DF8047B704796
:102AB800C822002080B485B000AF786039607B6898
:102AC800012283F8D8203B68D3E900237968C1E95B
:102AD80002237B6801221A600023FB600CE07B68FC
:102AE800D3E902237868F9680231C9000144C1E9D1
:102AF8000023FB680133FB60FB68182BEFDD00BF88
:102B080000BF1437BD465DF8047B704780B586B0BA
:102B180000AF87ED040BF860B9607A60BB68D3E951
:102B280002017B68D3E90023FDF74EFF0346002B23
:102B380005D17B68D3E90023B968C1E90223F868A5
:102B4800BB681033C82219460EF07EFAF968D7E937
:102B58000423C1E93223FB6803F1D000BB681033BA
:102B6800C02219460EF070FABB6803F11000FB682A
:102B7800C833C82219460EF067FA00BF1837BD4699
:102B880080BD80B485B000AF786039607B68012271
:102B980083F860203B68D3E900237968C1E9022300
:102BA8007B6801221A600023FB600CE07B68D3E994
:102BB80002237868F9680231C9000144C1E9002399
:102BC800FB680133FB60FB68092BEFDD00BF00BF2A
:102BD8001437BD465DF8047B704780B586B000AFFA
:102BE80087ED040BF860B9607A60BB68D3E902012D
:102BF8007B68D3E90023FDF7E7FE0346002B05D1E8
:102C08007B68D3E90023B968C1E90223F868BB6887
:102C18001033502219460EF017FAF968D7E9042341
:102C2800C1E91423FB6803F15800BB68103348223C
:102C380019460EF009FABB6803F11000FB6850331F
:102C4800502219460EF000FA00BF1837BD4680BD65
:102C580080B58CB002AF78607B6800221A727B68FE
:102C680001225A607B681033BB6100237B741A4BC6
:102C7800FB611A4B3B620123BB74002387F82430A5
:102C8800022387F825300923FB6009233B7407F1E9
:102C98000C0008230093042301220421FFF742FAC1
:102CA80002467B68DA607B68DB6802211846FFF71A
:102CB800ADFB7B68DB681846FFF7C2FA7B68DB6808
:102CC80001211846FFF705FA7B6801221A7200BF36
:102CD8002837BD4680BD00BF0001045000000240F7
:102CE80080B5A6B000AF78601A4BBB6000233B7379
:102CF80000237B7307F108031846FEF7BFFC024662
:102D08007B68DA607B68DB6800211846FEF771F99A
:102D18007B68DB6802211846FEF7E0FB7B68DB680E
:102D280002211846FEF782FC7B68DB681846FFF72D
:102D3800E7FD034687F8973097F89730002B05D1C1
:102D48007B68DB6800211846FFF7F2FD00BF983763
:102D5800BD4680BD0004004080B5A6B000AF7860D5
:102D68001A4BBB6000233B7300237B7307F10803F6
:102D78001846FEF783FC02467B68DA607B68DB68EE
:102D880000211846FEF735F97B68DB6802211846F2
:102D9800FEF764FA7B68DB6802211846FEF7FEFA44
:102DA8007B68DB681846FFF7ABFD034687F897306A
:102DB80097F89730002B05D17B68DB68002118460F
:102DC800FFF7B6FD00BF9837BD4680BD0004004040
:102DD800B0B5AAB000AFFFF74FFEA94BD3F89432B5
:102DE800A84A04211846FFF740FAA54BB3F8C433A4
:102DF800A7F87830A34BDB89A34AA2F85030A14B3F
:102E08001B88A14AA2F85E309E4B9B899E4AA2F875
:102E180052309C4B5B889C4AA2F85C30994B5B898A
:102E2800994AA2F85430974B9B88974AA2F85A308F
:102E3800944B1B89944AA2F85630924BDB88924AED
:102E4800A2F858300023C7F8843012E08E4AD7F829
:102E58008430283332F813008B49D7F8843003F1D3
:102E68002002034621F81230D7F884300133C7F81E
:102E78008430D7F88430072BE8DD834BB3F8423031
:102E88001846FDF7BFFA04460D46804A8049814836
:102E980045EC104BFFF7A1FE7B4B03F55163D3E9DB
:102EA8000023C7E924230023C7F880301DE0D7F8A2
:102EB80080300133744A03F5D173DB001344D3E93E
:102EC8000023C7E92823D7E92823D7E92401FDF7F8
:102ED80085FD0346002B03D0D7E92823C7E924231F
:102EE800D7F880300133C7F88030D7F88030082B06
:102EF800DDDD694A69496A4897ED240BFFF706FE4C
:102F0800614B03F57E63D3E90023C7E92623002339
:102F1800C7F880301DE0D7F8803001335A4A03F5EE
:102F2800FE73DB001344D3E90023C7E92823D7E95C
:102F38002823D7E92601FDF76FFD0346002B03D0B0
:102F4800D7E92823C7E92623D7F880300133C7F803
:102F58008030D7F88030172BDDDD4B4BB3F8443089
:102F68001846FDF74FFA04460D464E4A4E494F485B
:102F780045EC104BFFF7CAFD434B03F50663D3E955
:102F88000023C7E924230023C7F880301DE0D7F8C1
:102F9800803001333C4A03F58673DB001344D3E9E0
:102FA8000023C7E92823D7E92823D7E92401FDF717
:102FB80015FD0346002B03D0D7E92823C7E92423AE
:102FC800D7F880300133C7F88030D7F88030172B16
:102FD800DDDD2D4BB3F846301846FDF713FA0446ED
:102FE8000D46334A3349344845EC104BFFF78EFD04
:102FF800254B03F5A863D3E900232349C1E91E2320
:103008000023C7F880301EE0D7F8803001331E4A0D
:10301800A833DB001344D3E90023C7E928231A4B5C
:10302800D3E91E23D7E92801FDF7F6FC0346002B58
:1030380004D01549D7E92823C1E91E23D7F88030E1
:103048000133C7F88030D7F88030172BDCDD0E4B02
:10305800B3F848301846FDF7D5F904460D46174A27
:103068001749184845EC104BFFF750FD064BD3E9BC
:10307800EC230549C1E920230023C7F8803042E04A
:10308800601500209C030020F0030020B8000020F9
:103098003820002000110020D0000020E821002066
:1030A800D0130020A0000020981D0020500C002004
:1030B80090000020D81B0020300900208800002044
:1030C800F81A0020A0070020D7F8803001339E4A64
:1030D8007633DB001344D3E90023C7E928239A4B4E
:1030E800D3E92023D7E92801FDF796FC0346002BF6
:1030F80004D09549D7E92823C1E92023D7F880309F
:103108000133C7F88030D7F88030172BDCDD8E4BC1
:10311800B3F84A301846FDF775F904460D468B4A50
:103128008B498C4845EC104BFFF7F0FC864BD3E9F4
:1031380088238549C1E922230023C7F880301EE08F
:10314800D7F880300133804A4433DB001344D3E995
:103158000023C7E928237C4BD3E92223D7E9280198
:10316800FDF75AFC0346002B04D07749D7E92823FA
:10317800C1E92223D7F880300133C7F88030D7F867
:103188008030172BDCDD704BB3F84C301846FDF758
:1031980039F904460D46704A7049714845EC104BA0
:1031A800FFF71BFD684B03F55B63D3E90023C7E911
:1031B80022230023C7F880301DE0D7F88030013380
:1031C800614A03F5DB73DB001344D3E90023C7E945
:1031D8002823D7E92823D7E92201FDF7FFFB034677
:1031E800002B03D0D7E92823C7E92223D7F880305A
:1031F8000133C7F88030D7F88030082BDDDD594A15
:1032080059495A4897ED220BFFF780FC4E4B03F5BE
:103218006563D3E90023C7E922230023C7F8803078
:103228001DE0D7F880300133474A03F5E573DB002A
:103238001344D3E90023C7E92823D7E92823D7E98A
:103248002201FDF7E9FB0346002B03D0D7E9282329
:10325800C7E92223D7F880300133C7F88030D7F880
:103268008030172BDDDD424BB3F8C633A7F8763034
:10327800404AB7F87830138097ED260B0DF0E8FC3C
:10328800B0EE407AF0EE607A9FED2D1BB0EE470A63
:10329800F0EE670A0DF0A6FC87ED280B4FF0000250
:1032A8004FF00003D7E92801FDF798FB0346002BF0
:1032B80010D0D7F8A030BB65D7F8A43083F000430E
:1032C800FB65D7E91601FDF7EFFB03469BB25B42AE
:1032D8009BB205E0D7E92801FDF7E6FB03469BB260
:1032E800244A538097ED240B0DF0B2FCB0EE407ADF
:1032F800F0EE607A9FED121BB0EE470AF0EE670A17
:103308000DF070FC87ED280B4FF000024FF0000322
:10331800D7E92801FDF762FB0346002B2CD0D7F82C
:10332800A0303B65D7F8A43083F000437B65D7E92C
:103338001401FDF7B9FB03469BB25B429BB221E047
:10334800000000000000F040F00300208000002092
:10335800181A002010060020C0000020A02000201D
:10336800A0110020C80000200821002040120020E1
:1033780060150020B0030020D7E92801FDF794FB71
:1033880003469BB2B84A9380B84B93ED1E7BB0EED0
:10339800470AF0EE670A0DF05BFCB0EE407AF0EEFB
:1033A800607A9FEDAF1BB0EE470AF0EE670A0DF0AA
:1033B80019FC87ED280B4FF000024FF00003D7E906
:1033C8002801FDF70BFB0346002B10D0D7F8A030DF
:1033D800BB64D7F8A43083F00043FB64D7E912013B
:1033E800FDF762FB03469BB25B429BB205E0D7E95F
:1033F8002801FDF759FB03469BB29B4AD3809B4BA0
:1034080093ED207BB0EE470AF0EE670A0DF020FC42
:10341800B0EE407AF0EE607A9FED911BB0EE470A6D
:10342800F0EE670A0DF0DEFB87ED280B4FF0000287
:103438004FF00003D7E92801FDF7D0FA0346002B27
:1034480010D0D7F8A0303B64D7F8A43083F00043FD
:103458007B64D7E91001FDF727FB03469BB25B426B
:103468009BB205E0D7E92801FDF71EFB03469BB296
:103478007D4A13817D4B93ED227BB0EE470AF0EE37
:10348800670A0DF0E5FBB0EE407AF0EE607A9FED4A
:10349800741BB0EE470AF0EE670A0DF0A3FB87ED48
:1034A800280B4FF000024FF00003D7E92801FDF781
:1034B80095FA0346002B10D0D7F8A030BB63D7F895
:1034C800A43083F00043FB63D7E90E01FDF7ECFA63
:1034D80003469BB25B429BB205E0D7E92801FDF7A2
:1034E800E3FA03469BB2604A538197ED220B0DF035
:1034F800AFFBB0EE407AF0EE607A9FED591BB0EE6C
:10350800470AF0EE670A0DF06DFB87ED280B4FF0C8
:1035180000024FF00003D7E92801FDF75FFA0346E0
:10352800002B10D0D7F8A0303B63D7F8A43083F035
:1035380000437B63D7E90C01FDF7B6FA03469BB25B
:103548005B429BB205E0D7E92801FDF7ADFA0346D7
:103558009BB2454A9381444AB7F87630D381444BAD
:10356800B3F86630404A1382424BB3F8C833A7F821
:1035780078303E4BB3F842301846FCF743FF044618
:103588000D463D4A3D493E4845EC104BFFF7BEFA13
:10359800364B03F53863D3E90023C7E92623002314
:1035A800C7F880301DE0D7F8803001332F4A03F583
:1035B800B873DB001344D3E90023C7E92823D7E90C
:1035C8002823D7E92601FDF727FA0346002B03D065
:1035D800D7E92823C7E92623D7F880300133C7F86D
:1035E8008030D7F88030172BDDDD204B03F50663DC
:1035F800D3E90023C7E922230023C7F880301DE060
:10360800D7F880300133194A03F58673DB00134479
:10361800D3E90023C7E92823D7E92823D7E92201DA
:10362800FDF7FAF90346002B03D0D7E92823C7E9A9
:103638002223D7F880300133C7F88030D7F880309C
:10364800172BDDDD094B03F5A863D3E90023C7E990
:1036580024230023C7F8803031E000BFAFF3008097
:10366800000000000000F040B0030020F00300203C
:103678000000002060150020B0000020581F002026
:10368800700F0020D7F880300133AF4AA833DB0031
:103698001344D3E90023C7E92823D7E92823D7E926
:1036A8002401FDF7B9F90346002B03D0D7E92823F5
:1036B800C7E92423D7F880300133C7F88030D7F81A
:1036C8008030172BDEDDA04BD3E9EC239E49C1E9FE
:1036D8001E230023C7F880301EE0D7F8803001335E
:1036E800994A7633DB001344D3E90023C7E928233A
:1036F800954BD3E91E23D7E92801FDF76FF9034657
:10370800002B04D09049D7E92823C1E91E23D7F814
:1037180080300133C7F88030D7F88030172BDCDDD4
:10372800894BD3E988238849C1E920230023C7F8B6
:1037380080301EE0D7F880300133834A4433DB0001
:103748001344D3E90023C7E928237F4BD3E9202377
:10375800D7E92801FDF742F90346002B04D07A493E
:10376800D7E92823C1E92023D7F880300133C7F8E7
:103778008030D7F88030172BDCDD734BB3F84C3032
:103788001846FCF73FFE04460D46704A70497148DA
:1037980045EC104BFFF7BAF96B4B03F51F63D3E900
:1037A80000236949C1E922230023C7F880301FE0BC
:1037B800D7F880300133644A03F59F73DB00134464
:1037C800D3E90023C7E928235F4BD3E92223D7E9AC
:1037D8002801FDF703F90346002B04D05A49D7E91D
:1037E8002823C1E92223D7F880300133C7F8803075
:1037F800D7F88030172BDBDD574BB3F8CA33A7F85F
:103808007630564AB7F87830138097ED260B0DF0CE
:103818001FFAB0EE407AF0EE607A9FED491BB0EEE9
:10382800470AF0EE670A0DF0DDF987ED280B4FF037
:1038380000024FF00003D7E92801FDF7CFF803464F
:10384800002B10D0D7F8A030BB62D7F8A43083F093
:103858000043FB62D7E90A01FDF726F903469BB24C
:103868005B429BB205E0D7E92801FDF71DF9034645
:103878009BB23A4A538097ED220B0DF0E9F9B0EE6E
:10388800407AF0EE607A9FED2E1BB0EE470AF0EE1C
:10389800670A0DF0A7F987ED280B4FF000024FF0EB
:1038A8000003D7E92801FDF799F80346002B10D04B
:1038B800D7F8A0303B62D7F8A43083F000437B628E
:1038C800D7E90801FDF7F0F803469BB25B429BB2CB
:1038D80005E0D7E92801FDF7E7F803469BB21F4A40
:1038E800938097ED240B0DF0B3F9B0EE407AF0EE2B
:1038F800607A9FED131BB0EE470AF0EE670A0DF0F1
:1039080071F987ED280B4FF000024FF00003D7E95B
:103918002801FDF763F80346002B21D0D7F8A03023
:10392800BB61D7F8A43083F00043FB61D7E90601F7
:10393800FDF7BAF803469BB25B429BB216E000BFA4
:10394800000000000000F040F0030020A800002064
:10395800781E0020E00D002060150020C403002020
:10396800D7E92801FDF7A0F803469BB2AC4AD380FB
:10397800AC4B93ED1E7BB0EE470AF0EE670A0DF0F4
:1039880067F9B0EE407AF0EE607A9FEDA31BB0EED7
:10399800470AF0EE670A0DF025F987ED280B4FF07E
:1039A80000024FF00003D7E92801FDF717F8034696
:1039B800002B10D0D7F8A0303B61D7F8A43083F0A3
:1039C80000437B61D7E90401FDF76EF803469BB21B
:1039D8005B429BB205E0D7E92801FDF765F803468D
:1039E8009BB28F4A13818F4B93ED207BB0EE470A31
:1039F800F0EE670A0DF02CF9B0EE407AF0EE607A3E
:103A08009FED851BB0EE470AF0EE670A0DF0EAF865
:103A180087ED280B4FF000024FF00003D7E928018B
:103A2800FCF7DCFF0346002B10D0D7F8A030BB60B2
:103A3800D7F8A43083F00043FB60D7E90201FDF713
:103A480033F803469BB25B429BB205E0D7E92801F5
:103A5800FDF72AF803469BB2714A5381714B93EDE7
:103A6800227BB0EE470AF0EE670A0DF0F1F8B0EEEF
:103A7800407AF0EE607A9FED681BB0EE470AF0EEF0
:103A8800670A0DF0AFF887ED280B4FF000024FF0F2
:103A98000003D7E92801FCF7A1FF0346002B10D04B
:103AA800D7F8A0303B60D7F8A43083F000437B60A0
:103AB800D7E90001FCF7F8FF03469BB25B429BB2D3
:103AC80005E0D7E92801FCF7EFFF03469BB2544A0B
:103AD8009381534AB7F87630D381534BB3F86C20AF
:103AE8004F4B1A82514B9B79002B15D04D4BB3F895
:103AF80040301846FCF786FC02460B464C49C1E9A3
:103B0800B823484BB3F84E301846FCF77BFC024606
:103B18000B464749C1E9BA230023C7F884302DE092
:103B2800414BB3F8603019463E4AD7F88430283301
:103B380032F8133001FB03F31846FCF763FC4FF02F
:103B480000023C4BFCF7D8FC02460B463548D7F838
:103B58008410C9000144C1E90023374AD7F88430EA
:103B6800134400221A70354AD7F88430002122F80D
:103B78001310D7F884300133C7F88430D7F884306D
:103B8800072BCDDD2E4B00221A602E4B00221A6027
:103B9800274BD3E9C0014FF000022B4BFCF7F6FA94
:103BA80002460B462249C1E9C0230023C7F88430E6
:103BB80011E0264AD7F88430134493F9001007F12E
:103BC8006402D7F8843013440A461A70D7F8843050
:103BD8000133C7F88430D7F88430042BE9DD144B5F
:103BE800D3E9C0014FF000024FF00003FCF7F6FEE6
:103BF8000346002B2CD00E4BD3E9C02310461946A0
:103C0800FCF72AFF03465B42C7F88430002387F895
:103C18007B302AE0AFF30080000000000000F04095
:103C2800C4030020F003002000000020C822002068
:103C3800601500200000503EE8030020D803002053
:103C480094030020980300200000F03FE8100108CA
:103C5800BC4BD3E9C02310461946FCF7FDFE0346CA
:103C6800C7F88430012387F87B30D7F88430052BD8
:103C78000DDDD7F88420B44B83FB02135910D317FA
:103C8800C91A0B469B000B44D31AC7F88430D7F8DF
:103C98008430022B0EDDD7F88430C3F10503C7F852
:103CA800843097F87B30002B0CBF01230023DBB254
:103CB80087F87B30002387F86030002387F861306D
:103CC800D7F88430002B65DD97F87B30002B2CD09B
:103CD8000523C7F8803019E0D7F88020D7F884305A
:103CE800D31A5A1ED7F88030013B483207F16001D9
:103CF8000A4412F9442C483307F160010B4403F8D5
:103D0800442CD7F88030013BC7F88030D7F884209E
:103D1800D7F880309A42DFDBD7F8842007F16403B4
:103D2800002118460DF05EF934E0D7F8842007F139
:103D38006003864918460DF087F9D7F88430C3F137
:103D480005031A4607F16403002118460DF04AF9E5
:103D58000023C7F8803017E0D7F88020D7F88430E0
:103D6800D31A053307F16001D7F880200A4492F985
:103D78000020483307F160010B4403F8442CD7F8BE
:103D880080300133C7F88030D7F88020D7F88430E6
:103D98009A42E1DB6E4B6F4A1A6697F96630002B40
:103DA80004D04FF40073C7F8843002E00023C7F84A
:103DB8008430674B1B6ED7F8842011461846FEF7EF
:103DC8008EFC634B1A6ED7F88430DB4303F4007320
:103DD80019461046FEF791FC5D4B5E4A1A6697F944
:103DE8006630002B04D04FF48043C7F8843002E0DB
:103DF8000023C7F88430564B1B6ED7F88420114631
:103E08001846FEF76CFC524B1A6ED7F88430DB4329
:103E180003F4804319461046FEF76FFC4C4B4D4A9D
:103E28001A6697F96530002B04D04FF48073C7F8F1
:103E3800843002E00023C7F88430454B1B6ED7F866
:103E4800842011461846FEF74AFC414B1A6ED7F8F3
:103E58008430DB4303F4807319461046FEF74DFCAB
:103E68003B4B3C4A1A6697F96530002B04D04FF457
:103E78000043C7F8843002E00023C7F88430344B8D
:103E88001B6ED7F8842011461846FEF728FC304BE5
:103E98001A6ED7F88430DB4303F400431946104602
:103EA800FEF72BFC2A4B2B4A1A6697F96730002B32
:103EB80004D04FF48053C7F8843002E00023C7F8D9
:103EC8008430234B1B6ED7F8842011461846FEF722
:103ED80006FC1F4B1A6ED7F88430DB4303F480537B
:103EE80019461046FEF709FC194B1B4A1A6697F942
:103EF8006430002B04D04FF48053C7F8843002E0BC
:103F08000023C7F88430124B1B6ED7F88420114663
:103F18001846FEF7E4FB0E4B1A6ED7F88430DB43E5
:103F280003F4805319461046FEF7E7FB084B094A8D
:103F38001A6697F96430002B10D04FF40053C7F875
:103F480084300EE06015002067666666E810010898
:103F5800F003002000100048000400480023C7F8C0
:103F68008430944B1B6ED7F8842011461846FEF710
:103F7800B6FB904B1A6ED7F88430DB4303F400533A
:103F880019461046FEF7B9FB8A4B8B4A1A6697F911
:103F98006730002B04D04FF40063C7F8843002E088
:103FA8000023C7F88430834B1B6ED7F88420114652
:103FB8001846FEF794FB7F4B1A6ED7F88430DB4324
:103FC80003F4006319461046FEF797FB7B48FEF79B
:103FD8007AFB38677848FEF776FBF866784B93F8F3
:103FE800CC33FF2B07D0764B93F8CC330133DAB2BE
:103FF800734B83F8CC23724B93F8C03303F0080358
:10400800DBB2002B13D16E4A92F8C03343F0080399
:1040180082F8C0336A4B002283F8CC23684A92F8AE
:10402800C033032161F3020382F8C03388E0644B94
:1040380093F8C033C3F30203DBB2032B2CD0032B5A
:1040480062DC012B02D0022B14D05DE05C4B93F8AC
:10405800CC33632B71D95A4A92F8C033022161F3E9
:10406800020382F8C03353494FF00002554BC1E9AF
:104078001C2362E03B6F03F00403002B5FD1504B1D
:10408800002283F8CC234E4A92F8C033032161F30F
:10409800020382F8C03352E03B6F03F00403002BA5
:1040A80011D1474B93F8CC33C72B0CD9444B002282
:1040B80083F8CC23424A92F8C033042161F3020307
:1040C80082F8C0333CE0FB6E03F04003002B0CD1B8
:1040D8003B4B002283F8CC23394A92F8C0330121A4
:1040E80061F3020382F8C0332AE032494FF000023C
:1040F8004FF00003C1E91A232E494FF000024FF098
:104108000003C1E91C231BE02D4B93F8CC33632B30
:104118000CD92B4B002283F8CC23294A92F8C033C0
:10412800032161F3020382F8C03309E021494FF00B
:104138000002244BC1E91A2302E000BF00E000BFDF
:1041480097F964309AB21B4BA3F8402097F9653071
:104158009AB2184BA3F8422097F966309AB2154BD9
:10416800A3F8442097F967309AB2124BA3F8462077
:1041780097F967309AB20F4BA3F8482097F9663041
:104188009AB20C4BA3F84A2097F965309AB2094BBA
:10419800A3F84C2097F964309AB2064BA3F84E2046
:1041A800074B93F8CF33002B2ED10023C7F8843068
:1041B80022E000BFF003002000100048000400487F
:1041C800601500200000F03F374AD7F884302033CC
:1041D80032F813301846FCF715F902460B463348F7
:1041E800D7F884104131C9000144C1E90023D7F848
:1041F80084300133C7F88430D7F88430072BE3DDE7
:104208002A4B012283F8CF23284B93F8D033002B75
:104218000DD197F968301846FCF704F902460B46A9
:104228002249C1E9C623214B012283F8D0231F4B21
:1042380093F8D133002B10D11C4B0122C3F8002274
:104248001A4B0822C3F804224022002117480CF018
:10425800C9FE164B012283F8D123144BD3E9C601BA
:104268004FF00002124BFCF7AFFB0346002B0CD0BB
:104278000E4B0822C3F800220C4B0122C3F804227B
:104288004022094909480CF0DFFE97F968301846C2
:10429800FCF7C8F802460B460449C1E9C6230023C7
:1042A800C7F8843057E000BFF003002060150020F5
:1042B8000000F03FB44AD7F884304133DB001344A0
:1042C800D3E900014FF00002B04BFCF77DFB034639
:1042D800002B0ED0AE4AD7F88430DB001344D3E964
:1042E8000023A948D7F884104931C9000144C1E91D
:1042F8000023A54AD7F884304933DB001344D3E9B7
:104308000001A14AD7F88430DB001344D3E9002325
:10431800FBF73AFF02460B469D48D7F88410C900C0
:104328000144C1E900239A4AD7F88430203332F88F
:1043380013301846FCF766F802460B469248D7F841
:1043480084104131C9000144C1E90023D7F8843001
:104358000133C7F88430D7F88430072BAADD00234F
:10436800C7F880300023FB67894BD3E91A014FF067
:104378000002864BFCF728FB0346002B00F0C382A3
:104388006423FB676FF06303C7F88030804BD3E981
:1043980004017D4BD3E9D223FCF73EFB0346002BF7
:1043A8001ED0794BD3E9D20173A3D3E90023FCF7DC
:1043B800A3F802460B4614461D46754BD3E9040183
:1043C8006FA3D3E90023FCF797F802460B46204673
:1043D8002946FBF7DBFE02460B466B49C1E9D223AF
:1043E8006B4BD3E90401684BD3E9D023FCF7F6FA09
:1043F8000346002B1ED0644BD3E9D0015EA3D3E95A
:104408000023FCF779F802460B4614461D46604B1C
:10441800D3E904015AA3D3E90023FCF76DF8024657
:104428000B4620462946FBF7B1FE02460B46564985
:10443800C1E9D023564BD3E90A01534BD3E9D6231C
:10444800FCF7EAFA0346002B1ED04F4BD3E9D601FE
:1044580049A3D3E90023FCF74FF802460B4614465C
:104468001D464B4BD3E90A0145A3D3E90023FCF7CA
:1044780043F802460B4620462946FBF787FE0246CC
:104488000B464149C1E9D623414BD3E90A013E4BCA
:10449800D3E9D423FCF7A2FA0346002B1ED03A4BEB
:1044A800D3E9D40134A3D3E90023FCF725F8024665
:1044B8000B4614461D46364BD3E90A0130A3D3E90F
:1044C8000023FCF719F802460B4620462946FBF75D
:1044D8005DFE02460B462C49C1E9D4232C4BD3E997
:1044E8000601294BD3E9E623FCF796FA0346002B8D
:1044F8001ED0254BD3E9E6011FA3D3E90023FBF720
:10450800FBFF02460B4614461D46214BD3E9060124
:104518001BA3D3E90023FBF7EFFF02460B46204617
:104528002946FBF733FE02460B461749C1E9E62345
:10453800174BD3E90601144BD3E9E423FCF74EFAF1
:104548000346002B2DD0104BD3E9E4010AA3D3E98D
:104558000023FBF7D1FF02460B4614461D460C4BC1
:10456800D3E9060106A3D3E90023FBF7C5FF0246FA
:104578000B46204629460DE09A9999999999E93F61
:104588009A9999999999C93F601500200000F03FC0
:10459800F0030020FBF7FAFD02460B46AE49C1E9DD
:1045A800E423AE4BD3E90801AB4BD3E9DA23FCF79C
:1045B80033FA0346002B1ED0A74BD3E9DA01A2A396
:1045C800D3E90023FBF798FF02460B4614461D4625
:1045D800A24BD3E908019EA3D3E90023FBF78CFF84
:1045E80002460B4620462946FBF7D0FD02460B46FD
:1045F8009949C1E9DA23994BD3E90801964BD3E9E4
:10460800D823FCF7EBF90346002B1ED0924BD3E9D5
:10461800D8018DA3D3E90023FBF76EFF02460B46B2
:1046280014461D468D4BD3E9080189A3D3E900231D
:10463800FBF762FF02460B4620462946FBF7A6FD1C
:1046480002460B468449C1E9D823844BD3E90201C9
:10465800814BD3E9DE23FCF7DFF90346002B1ED09C
:104668007D4BD3E9DE0178A3D3E90023FBF744FFB0
:1046780002460B4614461D46784BD3E9020174A343
:10468800D3E90023FBF738FF02460B4620462946AC
:10469800FBF77CFD02460B466F49C1E9DE236F4BF1
:1046A800D3E902016C4BD3E9DC23FCF797F9034605
:1046B800002B1ED0684BD3E9DC0163A3D3E90023A8
:1046C800FBF71AFF02460B4614461D46634BD3E917
:1046D80002015FA3D3E90023FBF70EFF02460B4656
:1046E80020462946FBF752FD02460B465A49C1E9C6
:1046F800DC235A4BD3E90C01574BD3E9E223FCF7EF
:104708008BF90346002B1ED0534BD3E9E2014EA38D
:10471800D3E90023FBF7F0FE02460B4614461D467C
:104728004E4BD3E90C014AA3D3E90023FBF7E4FE7F
:1047380002460B4620462946FBF728FD02460B4653
:104748004549C1E9E223454BD3E90C01424BD3E982
:10475800E023FCF743F90346002B1ED03E4BD3E978
:10476800E00139A3D3E90023FBF7C6FE02460B4656
:1047780014461D46394BD3E90C0135A3D3E9002370
:10478800FBF7BAFE02460B4620462946FBF7FEFC1D
:1047980002460B463049C1E9E023304BD3E900011A
:1047A8002D4BD3E9EA23FCF737F90346002B1ED03B
:1047B800294BD3E9EA0124A3D3E90023FBF79CFEA4
:1047C80002460B4614461D46244BD3E9000120A39C
:1047D800D3E90023FBF790FE02460B462046294604
:1047E800FBF7D4FC02460B461B49C1E9EA231B4BE5
:1047F800D3E90001184BD3E9E823FCF7EFF80346A7
:10480800002B1ED0144BD3E9E8010FA3D3E90023F2
:10481800FBF772FE02460B4614461D460F4BD3E9C2
:1048280000010BA3D3E90023FBF766FE02460B4603
:1048380020462946FBF7AAFC02460B460649C1E971
:10484800E823064B0CE000BF9A9999999999E93F9A
:104858009A9999999999C93F60150020F003002009
:10486800D3E90E019A4BD3E9EE23FCF7D5F80346BA
:10487800002B1ED0964BD3E9EE018DA3D3E900237C
:10488800FBF73AFE02460B4614461D46914BD3E908
:104898000E0189A3D3E90023FBF72EFE02460B463F
:1048A80020462946FBF772FC02460B468849C1E9B7
:1048B800EE23884BD3E90E01854BD3E9EC23FCF7B3
:1048C8008DF80346002B1ED0814BD3E9EC0178A369
:1048D800D3E90023FBF710FE02460B4614461D469B
:1048E8007C4BD3E90E0174A3D3E90023FBF704FE44
:1048F80002460B4620462946FBF748FC02460B4673
:104908007349C1E9EC23724BD3E9EC01704BD3E94D
:10491800EE23FBF73BFC02460B46104619464FF0C8
:1049280000024FF08043FBF711FF02460B46C7E930
:104938002823674BD3E9E801654BD3E9EA23FBF762
:1049480025FC02460B46104619464FF000024FF070
:104958008043FBF7FBFE02460B46C7E926230023EC
:10496800C7F884300BE05B4AD7F884302033002145
:1049780022F81310D7F884300133C7F88430D7F8F9
:104988008430072BEFDD534BD3E90445504BD3E973
:10499800D0014F4BD3E9D223FBF7F8FB02460B4675
:1049A800104619464FF000024FF08043FBF7CEFE49
:1049B80002460B4620462946FCF72EF80346002BF4
:1049C80003D0444B0122A3F84420424BD3E90A45C3
:1049D8003F4BD3E9D4013E4BD3E9D623FBF7D6FBB3
:1049E80002460B46104619464FF000024FF080432E
:1049F800FBF7ACFE02460B4620462946FCF70CF8AE
:104A08000346002B03D0334B0122A3F84A20314B35
:104A1800D3E90E452AA3D3E90023D7E92801FBF7F8
:104A28006BFD02460B4620462946FBF7F5FF034679
:104A3800002B06D026494FF00002274BC1E9C423BA
:104A480019E0244BD3E90E451FA3D3E90023D7E986
:104A58002801FBF751FD02460B4620462946FBF785
:104A6800BDFF0346002B06D019494FF000024FF056
:104A78000003C1E9C423174BD3E9004510A3D3E9C8
:104A88000023D7E92601FBF737FD02460B462046EF
:104A98002946FBF7C1FF0346002B1FD00C494FF0F6
:104AA80000020D4BC1E9C22332E000BFAFF3008022
:104AB8009A9999999999E93F9A9999999999C93F90
:104AC8009A9999999999F13FCDCCCCCCCCCCEC3F23
:104AD80060150020F00300200000F03FAE4BD3E942
:104AE8000045A7A3D3E90023D7E92601FBF704FD76
:104AF80002460B4620462946FBF770FF0346002B6B
:104B080006D0A6494FF000024FF00003C1E9C223C6
:104B18004FF000024FF00003C7E928234FF00002CE
:104B28004FF00003C7E926239B4BD3E91C014FF044
:104B380000029B4BFBF748FF0346002B00F06E81F9
:104B4800954BB3F84430012B0BD1934BB3F84A3053
:104B5800002B19D191494FF00002924BC1E9CC23A7
:104B680012E08D4BB3F84A30012B06D18B494FF038
:104B780000028B4BC1E9CC2306E088494FF00002C4
:104B88004FF00003C1E9CC23844BD3E9CC014FF0AB
:104B98000002834BFBF718FF0346002B10D07E4B17
:104BA800B3F84430012B0BD17B4BB3F84A30012BBF
:104BB80006D17A494FF000024FF08043C1E9CC2377
:104BC800764BD3E9CC014FF00002764BFBF7FCFEA5
:104BD8000346002B10D0704BB3F84430012B0BD197
:104BE8006D4BB3F84A30012B06D16C494FF00002E7
:104BF8004FF04043C1E9CC23684BD3E9CA01674B66
:104C0800D3E9CC23FBF7C2FA02460B466349C1E954
:104C1800CA23624BD3E9CA45604BD3E9CA015AA3F8
:104C2800D3E90023FBF768FC02460B4620462946D9
:104C3800FBF7AAFA02460B465849C1E9CA23574B63
:104C4800D3E9CC01554BD3E9C823FBF79DFA0246BB
:104C58000B4614461D46514BD3E9CE014CA3D3E96C
:104C68000023FBF749FC02460B4620462946FBF782
:104C78008DFA02460B464949C1E9CE23474BD3E991
:104C8800CC014FF00002484BFBF736FC02460B46BE
:104C980010461946414BD3E9CA23FBF777FA024677
:104CA8000B4614461D463D4BD3E9CE014FF000029A
:104CB8003E4BFBF721FC02460B4620462946FBF7F4
:104CC80065FA02460B46C7E92623344BD3E9CC23C1
:104CD8003249C1E9C823D7E926234FF000003349F8
:104CE800FBF752FA02460B46104619464FF00002EF
:104CF8002F4BFBF787FE0346002B0BD0D7E9262363
:104D08004FF000002949FBF73FFA02460B46C7E976
:104D1800282304E04FF00002254BC7E928234FF071
:104D28000002224BD7E92801FBF776FE0346002B49
:104D380004D04FF000021D4BC7E928234FF00002B2
:104D48001A4BD7E92601FBF721FA02460B46104613
:104D580019464FF00002164BFBF754FE0346002B92
:104D680028D04FF00002114BD7E92601FBF70EFAC5
:104D780002460B46C7E9262321E000BFAFF30080B7
:104D8800CDCCCCCCCCCCEC3F7B14AE47E17A743F95
:104D98009A9999999999E93FF003002060150020A4
:104DA8000000F03F0000F0BF00003E400000594006
:104DB800000059C04FF00002AF4BC7E926234FF05F
:104DC8000002AE4BD7E92601FBF726FE0346002B6F
:104DD80004D04FF00002A94BC7E92623A84BD3E91A
:104DE800CC014FF000024FF00003FBF7EDFD034646
:104DF800002B13D0A34BB3F84430012B0ED1A14B99
:104E0800B3F84A30012B09D14FF000029E4BC7E995
:104E180028234FF000029C4BC7E92623D7F88000CF
:104E2800FBF700FB02460B46D7E92801FBF7AEF972
:104E380002460B46C7E92823F86FFBF7F3FA024648
:104E48000B46D7E92601FBF7A1F902460B46C7E94D
:104E580026238B4B93F8CD33002B08D18849D7E90B
:104E68002823C1E9BC23864B012283F8CD23844B38
:104E780093F8CE33002B08D18149D7E92623C1E91D
:104E8800BE237F4B012283F8CE237D4BD3E9BC019F
:104E980075A3D3E90023FBF72FFB02460B46144604
:104EA8001D4673A3D3E90023D7E92801FBF724FBA8
:104EB80002460B4620462946FBF768F902460B4690
:104EC8006F49C1E9BC236E4BD3E9BE0166A3D3E9A0
:104ED8000023FBF711FB02460B4614461D4664A34C
:104EE800D3E90023D7E92601FBF706FB02460B4668
:104EF80020462946FBF74AF902460B466049C1E9B4
:104F0800BE235F4BD3E9BC014FF000025F4BFBF7B8
:104F180083FD0346002B1BD0594BD3E9BC014FF04E
:104F280000025B4BFBF712FC02460B461046194683
:104F38004FF00002574BFBF729F902460B46C7E929
:104F480028234FF000024FF00003C7E9262337E07B
:104F58004B4BD3E9BC014FF000024F4BFBF73EFD32
:104F68000346002B20D04FF000024FF00003C7E9A2
:104F78002823434BD3E9BC014FF00002444BFBF715
:104F8800E5FB02460B46104619464FF00002414B1E
:104F9800FBF7FAF802460B461146C7F8981023F0BB
:104FA8000043C7F89C300BE04FF000024FF00003BD
:104FB800C7E928234FF000024FF00003C7E9262372
:104FC8002F4BD3E9BE014FF00002304BFBF724FD15
:104FD8000346002B1BD02A4BD3E9BE014FF0000239
:104FE8002B4BFBF7B3FB02460B46104619464FF016
:104FF8000002284BFBF7CAF802460B46C7E92223F2
:105008004FF000024FF00003C7E9242352E01C4B85
:10501800D3E9BE014FF000021F4BFBF7DFFC03464C
:10502800002B3BD04FF000024FF00003C7E92223CA
:10503800134BD3E9BE014FF00002154BFBF786FB7B
:1050480002460B46104619464FF00002114BFBF77B
:105058009BF802460B461146C7F8901023F0004310
:10506800C7F8943026E000BF333333333333E33F9C
:105078009A9999999999D93F000059C000005940C7
:1050880060150020F0030020000049C00000244003
:105098000000084000805040000024C04FF000028B
:1050A8004FF00003C7E922234FF000024FF000033E
:1050B800C7E92423784BD3F8D842D7E92801FBF76E
:1050C80013FD034600EE103A2046FDF7F1FB724B44
:1050D800D3F8D842D7E92601FBF706FD034600EED0
:1050E800103A2046FDF7F8FB6B4BD3F8C842D7E9D6
:1050F8002201FBF7F9FC034600EE103A2046FDF7C3
:10510800AFFB654BD3F8C842D7E92401FBF7ECFCA9
:10511800034600EE103A2046FDF7B6FB5F4B604AA7
:105128001A66604BD3E900014FF000024FF000030C
:10513800FBF74AFC0346002B03D18023C7F88430D1
:1051480002E00023C7F88430544B1B6ED7F8842044
:1051580011461846FDF7C3FA504B1A6ED7F884303B
:10516800DB4303F0800319461046FDF7C6FA4B4BA4
:105178004D4A1A66484BD3E9C2014FF000024FF07E
:105188000003FBF721FC0346002B04D14FF4005326
:10519800C7F8843002E00023C7F884303F4B1B6E09
:1051A800D7F8842011461846FDF799FA3B4B1A6E3A
:1051B800D7F88430DB4303F4005319461046FDF753
:1051C8009CFA364B384A1A66344B1B6E0021184637
:1051D800FDF785FA314B1B6E4FF480411846FDF7F9
:1051E8008CFA2E4B304A1A662B4BD3E9C4014FF088
:1051F80000024FF00003FBF7E7FB0346002B04D146
:105208004FF40043C7F8843002E00023C7F8843025
:10521800224B1B6ED7F8842011461846FDF75FFA1B
:105228001E4B1A6ED7F88430DB4303F4004319464B
:105238001046FDF762FA194B1C4A1A66194BD3E956
:1052480002014FF000024FF00003FBF7BDFB0346DD
:10525800002B03D10823C7F8843002E00023C7F8E5
:1052680084300E4B1B6ED7F8842011461846FDF784
:1052780036FA0A4B1A6ED7F88430DB4303F008037A
:1052880019461046FDF739FA00F032FD00F046FEE7
:1052980000BFA837BD46B0BD60150020F003002050
:1052A800000C0048000000200008004800040048E6
:1052B800B0B58EB000AF9C4B93EDB87B9B4A9C4930
:1052C8009C48B0EE470AF0EE670AFDF71FFC9A4BC0
:1052D80003F5DA63D3E90023C7E90C230023FB6253
:1052E80019E0FB6A0133944ADA33DB001344D3E94B
:1052F8000023C7E90823D7E90823D7E90C01FBF7FE
:105308006DFB0346002B03D0D7E90823C7E90C231C
:10531800FB6A0133FB62FB6A172BE2DD97ED0C0B8E
:105328000BF096FCB0EE407AF0EE607A9FED7C1BB5
:10533800B0EE470AF0EE670A0BF054FC87ED080B55
:105348004FF000024FF00003D7E90801FBF746FBD6
:105358000346002B0ED03B6A3B617B6A83F0004317
:105368007B61D7E90401FBF79FFB03469BB25B42D5
:105378009BB205E0D7E90801FBF796FB03469BB211
:10538800FB83694B93EDBA7B6C4A6D496D48B0EE6F
:10539800470AF0EE670AFDF7B9FB674BD3E9242308
:1053A800C7E90C230023FB6219E0FB6A0133624A58
:1053B8001233DB001344D3E90023C7E90823D7E9F4
:1053C8000823D7E90C01FBF709FB0346002B03D0A0
:1053D800D7E90823C7E90C23FB6A0133FB62FB6AA0
:1053E800172BE2DD97ED0C0B0BF032FCB0EE407A98
:1053F800F0EE607A9FED4A1BB0EE470AF0EE670ABE
:105408000BF0F0FB87ED080B4FF000024FF00003A4
:10541800D7E90801FBF7E2FA0346002B0ED03B6AF6
:10542800BB607B6A83F00043FB60D7E90201FBF7AE
:105438003BFB03469BB25B429BB205E0D7E9080100
:10544800FBF732FB03469BB2BB83374ABB8BA2F800
:10545800C633354AFB8BA2F8C433374BD3E9242330
:10546800C7E90C230023FB6219E0FB6A0133324AC7
:105478001233DB001344D3E90023C7E90823D7E933
:105488000823D7E90C01FBF7C7FA0346002B03D022
:10549800D7E90823C7E90C23FB6A0133FB62FB6ADF
:1054A800172BE2DD97ED0C0B0BF0D2FBB0EE407A38
:1054B800F0EE607A9FED1A1BB0EE470AF0EE670A2D
:1054C8000BF090FB87ED080B4FF000024FF0000344
:1054D800D7E90801FBF782FA0346002B0ED03B6A96
:1054E8003B607B6A83F000437B60D7E90001FBF7F0
:1054F800DBFA03469BB25B429BB205E0D7E90801A1
:10550800FBF7D2FA03469BB2FB830B4B03F5DA6336
:10551800D3E90023C7E90C230023FB622EE000BF78
:10552800000000000000F0406015002098000020F6
:10553800B81C0020C00A0020F003002078000020DA
:105548003819002080040020FB6A0133304ADA331E
:10555800DB001344D3E90023C7E90823D7E908236C
:10556800D7E90C01FBF758FA0346002B03D0D7E91B
:105578000823C7E90C23FB6A0133FB62FB6A172B7C
:10558800E2DD97ED0C0B0BF063FBB0EE407AF0EE2A
:10559800607A9FED1D1BB0EE470AF0EE670A0BF02C
:1055A80021FB87ED080B4FF000024FF00003D7E90D
:1055B8000801FBF713FA0346002B0CD03C6A7B6A00
:1055C80083F0004520462946FBF76EFA03469BB256
:1055D8005B429BB205E0D7E90801FBF765FA034691
:1055E8009BB2BB830B4AFB8BA2F8CA33094ABB8B1D
:1055F800A2F8C83300F07CFB00F090FC00BF3837FD
:10560800BD46B0BDAFF30080000000000000F040D0
:10561800F00300206015002080B582B000AF0023A1
:105628007B6017E0824BB3F86E10824A7B6822F8E1
:1056380013107F4BB3F870107F4A7B6822F8131061
:105648007B4BB3F872107D4A7B6822F813107B6895
:1056580001337B607B68082BE4DD00237B6011E06D
:10566800734B93F87610764A7B6813440A461A708F
:105678006F4BB3F87410734A7B6822F813107B6879
:1056880001337B607B68072BEADD694B1B6D6E4A33
:105698001360674B5B6D6D4A1360654B9B6D6C4A7D
:1056A8001360634BDB6D6B4A1360614B9B6D684AFB
:1056B80053605F4BDB6D674A53605D4B9B6D644A7B
:1056C80093605B4BDB6D634A936000F0A5FB584B1E
:1056D800B3F86220604BA3F8C423554BB3F8642099
:1056E8005D4BA3F8C623524BB3F868205A4BA3F876
:1056F800C8234F4BB3F86A20574BA3F8CA2356491F
:105708004FF00002554BC1E9D02353494FF0000236
:10571800524BC1E9D42350494FF000024F4BC1E925
:10572800D8234D494FF000024C4BC1E9DC234A49CC
:105738004FF00002494BC1E9E02347494FF000020E
:10574800464BC1E9E42344494FF00002434BC1E909
:10575800E82341494FF00002404BC1E9EC233E4B9E
:105768000022C3F804223C4B0022C3F88C223A4B97
:10577800002283F888223A48FDF76AFA39493A48FC
:10578800FDF7FFF939493A48FDF794F939493A489C
:10579800FDF790F939493A48FDF78CF939493A4803
:1057A800FDF788F939493A48FDF784F939493A4803
:1057B800FDF7E7F939493A48FDF77CF939493A489C
:1057C800FDF778F939493A48FDF774F9224B002278
:1057D80083F8CC22204B002283F8D4221E4B0122CE
:1057E800C3F8D0223348FDF77BFA1B4B012283F81C
:1057F800D422194B002283F8BC22174B002283F8CD
:10580800C422154B0122C3F8C0222B48FDF7A4FA85
:10581800114B012283F8C42228492948FDF74AF987
:1058280028492948FDF746F900BF0837BD4680BD1D
:10583800000000209C030020B0030020C4030020C7
:10584800E8030020D80300209403002098030020D8
:105858007C03002088030020601500200000084019
:10586800E8170020B800002038200020D0000020D1
:10587800E8210020A0000020981D002090000020B2
:10588800D81B002088000020F81A00208000002083
:10589800181A0020C0000020A0200020C800002006
:1058A80008210020B0000020581F0020A800002078
:1058B800781E00202C1800201C18002098000020BA
:1058C800B81C0020780000203819002080B500AFEF
:1058D8003C4B93F88832002B15D13A4B012283F8C0
:1058E8008822384BD3F88C32012B0CD1354B93F8E6
:1058F8009032002B07D0334BD3F894320122042185
:105908001846FCF70BFD2F4B93F8CC32002B28D10F
:105918002C4B012283F8CC222A4BD3F8D032012B0E
:105928001FD1284B93F8D432002B1AD0254BD3F82B
:10593800D8321846FDF77CF8224BD3F8D83200212C
:105948001846FBF7F0FB1F4BD3F8D8320221184654
:10595800FBF718FE1B4BD3F8D83202211846FBF789
:1059680079FE184B93F8BC32002B28D1154B012235
:1059780083F8BC22134BD3F8C032012B1FD1114B33
:1059880093F8C432002B1AD00E4BD3F8C8321846FD
:10599800FDF74EF80B4BD3F8C83200211846FBF739
:1059A800C2FB084BD3F8C83202211846FBF7A6FC05
:1059B800044BD3F8C83202211846FBF73FFD00BF5D
:1059C80080BD00BF6015002080B489B000AFF860CA
:1059D800B9607A60FB68BB610023FB61BB689B0808
:1059E8007B611B4B1B68B3F5C87F2AD00023FB6182
:1059F80022E0174B1B6817497A6841F82320FB6996
:105A08009B00BA691A44124B1B681268114903F5C6
:105A1800C87341F823200E4B1B680F4A12680D49C2
:105A280003F5487341F82320094B1B680133084AE2
:105A38001360FB690133FB61FA697B699A42D8D329
:105A480000E000BF2437BD465DF8047B704700BF07
:105A5800D0220020D8220020D422002080B584B093
:105A680000AF786072B600BF00F0A6FC0346FB608A
:105A780007F10C037A6804211846FFF7A5FF62B600
:105A880000BF00BF1037BD4680BD000080B582B0A2
:105A980000AF344B1B785A1CD1B2324A1170002B1C
:105AA80009D0314B01221A602E4B1B78013BDAB228
:105AB8002C4B1A7053E03B1D1846FCF7C7FF62B623
:105AC80000BF02200BF072F8FDF782F902200BF0FC
