:020000040800F2
:10000000008001203DBB000811760008157600082D
:10001000197600081D76000821760008000000000F
:100020000000000000000000000000000161000866
:100030002576000800000000BD600008F95F000898
:100040008DBB00088DBB00088DBB00088DBB000870
:100050008DBB00088DBB00088DBB00088DBB000860
:100060008DBB00088DBB00088DBB000829760008F9
:10007000351000088DBB00088DBB00088DBB000843
:100080002D76000831760008357600088DBB000813
:100090008DBB00088DBB00088DBB00088DBB000820
:1000A0008DBB0008397600088DBB00088DBB0008A9
:1000B0008DBB00088DBB00088DBB00088DBB000800
:1000C0008DBB00088DBB00088DBB00088DBB0008F0
:1000D0008DBB00088DBB00088DBB00088DBB0008E0
:1000E0008DBB00088DBB00088DBB00088DBB0008D0
:1000F0008DBB00088DBB00088DBB00088DBB0008C0
:100100008DBB00088DBB00088DBB00088DBB0008AF
:100110008DBB00088DBB00088DBB00088DBB00089F
:100120008DBB00088DBB00088DBB00088DBB00088F
:100130008DBB00088DBB00088DBB00088DBB00087F
:100140008DBB00088DBB00088DBB000845760008FC
:100150008DBB00088DBB00088DBB00088DBB00085F
:100160008DBB00088DBB00088DBB00088DBB00084F
:100170008DBB00088DBB00088DBB0008000000008F
:080180008DBB00088DBB0008D7
:1001880081F0004102E000BF83F0004330B54FEA40
:1001980041044FEA430594EA050F08BF90EA020FAD
:1001A8001FBF54EA000C55EA020C7FEA645C7FEA40
:1001B800655C00F0E2804FEA5454D4EB5555B8BF63
:1001C8006D420CDD2C4480EA020281EA030382EAD4
:1001D800000083EA010180EA020281EA0303362D66
:1001E80088BF30BD11F0004F4FEA01314FF4801C39
:1001F8004CEA113102D0404261EB410113F0004F4B
:100208004FEA03334CEA133302D0524263EB430301
:1002180094EA050F00F0A780A4F10104D5F1200E9F
:100228000DDB02FA0EFC22FA05F2801841F10001FA
:1002380003FA0EF2801843FA05F359410EE0A5F1CE
:1002480020050EF1200E012A03FA0EFC28BF4CF0FF
:10025800020C43FA05F3C01851EBE37101F00045B5
:1002680007D54FF0000EDCF1000C7EEB00006EEBC2
:100278000101B1F5801F1BD3B1F5001F0CD349084C
:100288005FEA30004FEA3C0C04F101044FEA4452A3
:1002980012F5800F80F09A80BCF1004F08BF5FEA2A
:1002A800500C50F1000041EB045141EA050130BD0A
:1002B8005FEA4C0C404141EB0101013C28BFB1F51C
:1002C800801FE9D291F0000F04BF01460020B1FA67
:1002D80081F308BF2033A3F10B03B3F120020CDA3A
:1002E8000C3208DD02F1140CC2F10C0201FA0CF018
:1002F80021FA02F10CE002F11402D8BFC2F1200C7D
:1003080001FA02F120FA0CFCDCBF41EA0C01904032
:10031800E41AA2BF01EB0451294330BD6FEA04047B
:100328001F3C1CDA0C340EDC04F11404C4F1200266
:1003380020FA04F001FA02F340EA030021FA04F378
:1003480045EA030130BDC4F10C04C4F1200220FACF
:1003580002F001FA04F340EA0300294630BD21FA0D
:1003680004F0294630BD94F0000F83F4801306BFD3
:1003780081F480110134013D4EE77FEA645C18BFC7
:100388007FEA655C29D094EA050F08BF90EA020F5E
:1003980005D054EA000C04BF1946104630BD91EA56
:1003A800030F1EBF0021002030BD5FEA545C05D159
:1003B8004000494128BF41F0004130BD14F5800498
:1003C8003CBF01F5801130BD01F0004545F0FE410C
:1003D80041F470014FF0000030BD7FEA645C1ABF41
:1003E800194610467FEA655C1CBF0B46024650EA78
:1003F800013406BF52EA033591EA030F41F40021A4
:1004080030BD00BF90F0000F04BF0021704730B529
:100418004FF4806404F132044FF000054FF00001FE
:1004280050E700BF90F0000F04BF0021704730B5BF
:100438004FF4806404F1320410F0004548BF404294
:100448004FF000013EE700BF42004FEAE2014FEAE9
:1004580031014FEA02701FBF12F07F4393F07F4FC4
:1004680081F06051704732F07F4208BF704793F0C7
:100478007F4F04BF41F40021704730B54FF46074DA
:1004880001F0004521F000411CE700BF50EA0102DD
:1004980008BF704730B54FF000050AE050EA010286
:1004A80008BF704730B511F0004502D5404261EBF6
:1004B80041014FF4806404F132045FEA915C3FF437
:1004C800D8AE4FF003025FEADC0C18BF03325FEAD4
:1004D800DC0C18BF033202EBDC02C2F1200300FA85
:1004E80003FC20FA02F001FA03FE40EA0E0021FAAA
:1004F80002F11444BDE600BF70B54FF0FF0C4CF498
:10050800E06C1CEA11541DBF1CEA135594EA0C0F49
:1005180095EA0C0F00F0DEF82C4481EA030621EA84
:100528004C5123EA4C5350EA013518BF52EA0335BF
:1005380041F4801143F4801338D0A0FB02CE4FF071
:100548000005E1FB02E506F00042E0FB03E54FF0A1
:100558000006E1FB03569CF0000F18BF4EF0010E99
:10056800A4F1FF04B6F5007F64F5407404D25FEA95
:100578004E0E6D4146EB060642EAC62141EA555148
:100588004FEAC52040EA5E504FEACE2EB4F1FD0C8A
:1005980088BFBCF5E06F1ED8BEF1004F08BF5FEA08
:1005A800500E50F1000041EB045170BD06F00046BA
:1005B80046EA010140EA020081EA0301B4EB5C0467
:1005C800C2BFD4EB0C0541EA045170BD41F480115F
:1005D8004FF0000E013C00F3AB8014F1360FDEBF84
:1005E800002001F0004170BDC4F10004203C35DA60
:1005F8000C341BDC04F11404C4F1200500FA05F3E3
:1006080020FA04F001FA05F240EA020001F0004283
:1006180021F0004110EBD37021FA04F642EB0601F9
:100628005EEA430E08BF20EAD37070BDC4F10C0423
:10063800C4F1200500FA04F320FA05F001FA04F2E7
:1006480040EA020001F0004110EBD37041F10001D3
:100658005EEA430E08BF20EAD37070BDC4F12005DE
:1006680000FA05F24EEA020E20FA04F301FA05F246
:1006780043EA020321FA04F001F0004121FA04F2EE
:1006880020EA020000EBD3705EEA430E08BF20EABE
:10069800D37070BD94F0000F0FD101F000464000F8
:1006A80041EB010111F4801F08BF013CF7D041EA7A
:1006B800060195F0000F18BF704703F0004652007E
:1006C80043EB030313F4801F08BF013DF7D043EA4F
:1006D8000603704794EA0C0F0CEA135518BF95EA05
:1006E8000C0F0CD050EA410618BF52EA4306D1D18C
:1006F80081EA030101F000414FF0000070BD50EAAB
:10070800410606BF1046194652EA430619D094EA34
:100718000C0F02D150EA013613D195EA0C0F05D11E
:1007280052EA03361CBF104619460AD181EA030172
:1007380001F0004141F0FE4141F470014FF000002A
:1007480070BD41F0FE4141F4780170BD70B54FF0C5
:10075800FF0C4CF4E06C1CEA11541DBF1CEA135545
:1007680094EA0C0F95EA0C0F00F0A7F8A4EB050427
:1007780081EA030E52EA03354FEA013100F088801E
:100788004FEA03334FF0805545EA131343EA1263E7
:100798004FEA022245EA111545EA10654FEA00269C
:1007A8000EF000419D4208BF964244F1FD0404F555
:1007B800407402D25B084FEA3202B61A65EB0305B1
:1007C8005B084FEA32024FF480104FF4002CB6EB6E
:1007D800020E75EB030E22BFB61A754640EA0C00EE
:1007E8005B084FEA3202B6EB020E75EB030E22BF2E
:1007F800B61A754640EA5C005B084FEA3202B6EB6F
:10080800020E75EB030E22BFB61A754640EA9C002D
:100818005B084FEA3202B6EB020E75EB030E22BFFD
:10082800B61A754640EADC0055EA060E18D04FEABB
:10083800051545EA16754FEA06164FEAC30343EA5B
:1008480052734FEAC2025FEA1C1CC0D111F4801F28
:100858000BD141EA00014FF000004FF0004CB6E721
:1008680011F4801F04BF01430020B4F1FD0C88BFC0
:10087800BCF5E06F3FF6AFAEB5EB030C04BFB6EBCB
:10088800020C5FEA500C50F1000041EB045170BDBE
:100898000EF0004E4EEA113114EB5C04C2BFD4EBEB
:1008A8000C0541EA045170BD41F480114FF0000E6F
:1008B800013C90E645EA060E8DE60CEA135594EAEB
:1008C8000C0F08BF95EA0C0F3FF43BAF94EA0C0FEE
:1008D8000AD150EA01347FF434AF95EA0C0F7FF463
:1008E80025AF104619462CE795EA0C0F06D152EAB7
:1008F80003353FF4FDAE1046194622E750EA41069B
:1009080018BF52EA43067FF4C5AE50EA41047FF4AB
:100918000DAF52EA43057FF4EBAE12E74FF0FF3C10
:1009280006E000BF4FF0010C02E000BF4FF0010CE1
:100938004DF804CD4FEA410C7FEA6C5C4FEA430C5A
:1009480018BF7FEA6C5C1BD001B050EA410C0CBFA9
:1009580052EA430C91EA030F02BF90EA020F00200B
:10096800704710F1000F91EA030F58BF994208BF72
:1009780090422CBFD8176FEAE37040F0010070472F
:100988004FEA410C7FEA6C5C02D150EA013C07D186
:100998004FEA430C7FEA6C5CD6D152EA033CD3D0D1
:1009A8005DF8040B704700BF8446104662468C46CB
:1009B8001946634600E000BF01B5FFF7B7FF0028FE
:1009C80048BF10F1000F01BD4DF808EDFFF7F4FF27
:1009D8000CBF012000205DF808FB00BF4DF808EDB2
:1009E800FFF7EAFF34BF012000205DF808FB00BFD5
:1009F8004DF808EDFFF7E0FF94BF012000205DF8F7
:100A080008FB00BF4DF808EDFFF7CEFF94BF0120AB
:100A180000205DF808FB00BF4DF808EDFFF7C4FFA4
:100A280034BF012000205DF808FB00BF4FEA410CED
:100A38007FEA6C5C02D150EA013C0AD14FEA430CD0
:100A48007FEA6C5C02D152EA033C02D14FF000000D
:100A580070474FF0010070474FEA410212F500124B
:100A680015D211D56FF47873B3EB625212D94FEAED
:100A7800C12343F0004343EA505311F0004F23FAD7
:100A880002F018BF404270474FF00000704750EA2C
:100A9800013005D111F0004008BF6FF000407047E9
:100AA8004FF00000704700BF4A0011D212F5001243
:100AB80011D20DD56FF47873B3EB62520ED44FEAAE
:100AC800C12343F0004343EA505323FA02F070472E
:100AD8004FF00000704750EA013002D14FF0FF306C
:100AE80070474FF0000070474FEA4102B2F1E0430F
:100AF80024BFB3F5001CDCF1FE5C0DD901F0004CFD
:100B08004FEAC0024CEA5070B2F1004F40EB83004C
:100B180008BF20F00100704711F0804F21D113F178
:100B28003872BCBF01F00040704741F480114FEAB1
:100B38005252C2F11802C2F1200C10FA0CF320FA3A
:100B480002F018BF40F001004FEAC1234FEAD32357
:100B580003FA0CFC40EA0C0023FA02F34FEA4303C1
:100B6800CCE77FEA625307D150EA01331EBF4FF04A
:100B7800FE4040F44000704701F0004040F0FE4065
:100B880040F40000704700BF0348044B834202D082
:100B9800034B03B118477047B8020020B802002081
:100BA800000000000548064B1B1AD90F01EBA301F2
:100BB800491002D0034B03B118477047B802002010
:100BC800B80200200000000010B5064C237843B995
:100BD800FFF7DAFF044B13B10448AFF30080012399
:100BE800237010BDB80200200000000050C00008AB
:100BF80008B5054B1BB105490548AFF30080BDE8B2
:100C08000840FFF7CFBF00BF00000000BC02002073
:100C180050C00008CB0703D50368DA6852064DD5E3
:100C28008B0703D50368DA68920742D54B0703D5CB
:100C38000368DA68520737D50B0703D50368DA6803
:100C480012072CD5CB0603D50368DA68D20621D55E
:100C58008B0603D50368DA68D20716D54B0603D589
:100C68000368DA6812060BD5090603D50368DA6843
:100C7800920600D57047DA6842F02002DA607047C1
:100C8800DA6842F08002DA60EEE7DA6842F00102E0
:100C9800DA60E3E7DA6842F01002DA60D8E7DA6887
:100CA80042F00802DA60CDE7DA6842F00402DA605E
:100CB800C2E7DA6842F00202DA60B7E7DA6842F0BF
:100CC8004002DA60ACE700BFCB0703D50368DA68F7
:100CD80052064CD48B0703D50368DA68920741D4CF
:100CE8004B0703D50368DA68520736D40B0703D5D8
:100CF8000368DA6812072BD4CB0603D50368DA68D1
:100D0800D20620D48B0603D50368DA68D20715D536
:100D18004B0603D50368DA6812060AD4090607D514
:100D28000368DA68920603D5DA6822F02002DA60EE
:100D38007047DA6822F08002DA60EFE7DA6822F0BA
:100D48000102DA60E4E7DA6822F01002DA60D9E733
:100D5800DA6822F00802DA60CEE7DA6822F00402E4
:100D6800DA60C3E7DA6822F00202DA60B8E7DA6824
:100D780022F04002DA60ADE7022921D00368134A65
:100D880093420FD002F5006293420BD002F5406205
:100D9800934207D002F58062934203D002F5806245
:100DA800934203D1032906D0042900D070471A6A58
:100DB80042F001021A621A6A42F004021A6270478B
:100DC8000268136A43F0010313627047002C014064
:100DD800022921D00368134A93420FD002F500621A
:100DE80093420BD002F54062934207D002F580622D
:100DF800934203D002F58062934203D1032906D0BF
:100E0800042900D070471A6A22F001021A621A6A8D
:100E180022F004021A6270470268136A23F0010381
:100E280013627047002C0140022921D00368134A3D
:100E380093420FD002F5006293420BD002F5406254
:100E4800934207D002F58062934203D002F5806294
:100E5800934203D1032906D0042900D070471A6AA7
:100E680042F010021A621A6A42F040021A6270478F
:100E78000268136A43F0100313627047002C0140A4
:100E8800022921D00368134A93420FD002F5006269
:100E980093420BD002F54062934207D002F580627C
:100EA800934203D002F58062934203D1032906D00E
:100EB800042900D070471A6A22F010021A621A6ACE
:100EC80022F040021A6270470268136A23F0100386
:100ED80013627047002C0140022921D00368134A8D
:100EE80093420FD002F5006293420BD002F54062A4
:100EF800934207D002F58062934203D002F58062E4
:100F0800934203D1032906D0042900D070471A6AF6
:100F180042F480721A621A6A42F480621A62704756
:100F28000268136A43F4807313627047002C01400F
:100F3800022921D00368134A93420FD002F50062B8
:100F480093420BD002F54062934207D002F58062CB
:100F5800934203D002F58062934203D1032906D05D
:100F6800042900D070471A6A22F480721A621A6A39
:100F780022F480621A6270470268136A23F480734D
:100F880013627047002C0140022904D10268136AD9
:100F980043F4805313627047022904D10268136A2C
:100FA80023F4805313627047084B02689A420AD1AF
:100FB8001368074906480A6013F0600314BF012349
:100FC80012680B71704700231A60FFDE00040040AE
:100FD800D40200200369DA6812F4406F24D1427AFF
:100FE800022A08D0427A042A05D0427A082A02D076
:100FF8001A68110718D51A68D20602D510221A6085
:101008004272427A102A0FD0427A082A0CBF012273
:10101800202242729A6822F0004222F03F0242F0F7
:10102800040200209A60704701207047154916484D
:101038008A794B69825C9858800703EB020C1DD5AE
:10104800186880061BD504204872202058609858DC
:10105800800615D4985820F0010010B40C689850F8
:10106800DCF80410090C09042143CCF80410995841
:101078005DF8044B41F00101995070477047704783
:10108800704700BF6003002068C00008012902699A
:101098000DD0D36C13F0C00F00D17047936823F0C4
:1010A800004323F03F0343F0080393607047D3687D
:1010B80013F4406FF1D0936823F0004323F03F030B
:1010C80043F0040393607047F0B4324C0569A542BD
:1010D8002FD1314C4FF0000C012B256184F807C04B
:1010E80024D04AB3637A082B20D0C76842690668BF
:1010F800E760626190F806C084F806C0037923713E
:101108002B6B0498266023F00F03034301292B63FC
:1011180007D0042920D0022903D16B6843F00803C3
:101128006B60082363721C48F0BC70472046F0BC13
:1011380070470020F0BC7047A37A082BF6D043799B
:101148006371022903D008231348A372EFE76B6881
:1011580043F040036B60F6E7104BE96813F80C3076
:1011680041F00301D018E9600D4981608160C760D2
:101178004168090C090431434160D15841F002012A
:10118800D150D15841F00801D150D15841F0010156
:10119800D150C6E7000104506003002068C0000871
:1011A8004001045002699368DB0707D4936823F071
:1011B800004323F03F0343F001039360704700BFEF
:1011C800036953B1012928D0042910B5944604466F
:1011D80005D0022923D0012010BD01207047DA680C
:1011E80012F4406FF7D1012242729A6822F000424D
:1011F80022F03F0242F004029A60637A042BFCD189
:10120800E379012B21D02268E168520060460AF098
:101218000DFF08236372002010BDFFF7DBBE437A81
:10122800202B05D0437A042B02D0437A102BD2D13D
:10123800E3790822012B627210D02268E16852001B
:1012480060460AF0F3FE002010BD2368E1685A00EA
:1012580001EB430160460AF0E9FEDAE72368E1683A
:101268005A0001EB430160460AF0E0FE002010BD81
:10127800036910B49C68E40707D59C6824F0004C07
:101288002CF03F0C4CF002049C605C68240603D5EB
:101298005C6824F080045C605C68E40603D55C68E4
:1012A80024F010045C6092B1012903D0022936D0E1
:1012B800042916D0002282710271196BC26021F0D4
:1012C8000F010260426119635DF8044B70470229FF
:1012D8004271F9D15A685DF8044B22F040025A6015
:1012E80070478179104C4269615C545824F00104BC
:1012F8005450545824F004045450545824F008040A
:101308005450545824F0020454500A445168090CAB
:1013180009045160DA6822F00302DA60CAE75A6801
:1013280022F008025A60C5E768C0000810B40369D3
:101338009A6812F0010283B007D09C6824F0004C30
:101348002CF03F0C4CF002049C6031BB996821F0F2
:10135800404121F03F0141F000419960996800291E
:10136800FCDB002304E000BFBDF8063001331BB2EC
:10137800ADF80630BDF806309BB2032BF3D942B165
:101388000269936823F0004323F03F0343F001030D
:10139800936003B05DF8044B70470129996821F008
:1013A800404121F03F0126D041F000419960996801
:1013B8000029FCDB0021ADF80610BDF8061089B243
:1013C80003290CD800BFBDF8063001331BB2ADF8B5
:1013D8000630BDF806309BB2032BF3D90369996830
:1013E80021F0404121F03F0141F040419960996866
:1013F8000029B6DAFBE741F0404199609968002975
:10140800AFDAFBE770B51D4C002604F5A87E03E0B3
:1014180094451CD0A6452FD034F902CF8445F7D186
:10142800B4F950518D42F3D1B4F9A0529542EFD19D
:10143800B4F9F0539D42EBD14FF0000C944526804F
:10144800A4F85061A4F8A062A4F8F063E2D1B4F95A
:1014580050C19C45DED1B4F9A0528542DAD1B4F925
:10146800F0538D42D6D1A6452680A4F85061A4F841
:10147800A062A4F8F063CFD170BD00BF261D002084
:101488002DE9F04F844C854B854D85B004F5FC6003
:101498000191002250E90201FFF796FA002840F076
:1014A800BF8004F5F661D1E9000100220023FFF7AF
:1014B8008BFA002800F0B4807A49784B51E9020190
:1014C8000022FFF781FA002840F06A837649734BBF
:1014D800D1E900010022FFF777FA002840F02B83BA
:1014E800724B6FF0802203F1600143F8042B8B42AA
:1014F800FBD1C42200216E4847F6FF79C826A4F81C
:1015080064970AF061FD0223C5F8CC374FF448729E
:101518000021C5F8C86767480AF056FD4FF44872BD
:101528005D4800210AF050FD019B029500221A80B7
:10153800B5F9DA77B5F9D887A4F820837B1EC3EB11
:10154800C303434403F27F3304EB4303A4F8B074AA
:101558009A80C3463B4601261A46013BC3EBC303A8
:101568005B4403F27F335448CDF80C8004EB430509
:10157800924630F9023F5B451ED033464F4A8242BD
:10158800F7D1012BDDF80C800BD04D49013B5A00F7
:10159800881E03920AF0FEFC4A49039A881E0AF044
:1015A800F9FC013EB1B236B2002900F08F80B4F9DF
:1015B80020B3B4F9B034CFE7B0F950315345DCD19A
:1015C800B5F904200132B2F5004FD6D0B0F9F0C316
:1015D800B0F9A0E20CF1FF33C3EBC303734403F289
:1015E8007F3104EB4101B1F904804245C5DA8A80B4
:1015F80003F21F3203F554734E4524F812B024F851
:1016080013A042D0731C324606F1C8011EB202F57F
:10161800C87201F5C87124F812E024F811C0ADE7CA
:10162800B5F9D807B5F9D267DFF89CE0B5F9DA174C
:10163800B5F9D077B5F9D437B5F9D62706440F44AC
:101648007645B8BF7646774547F6FF7CB8BF7746FC
:101658006745D4BFC3EB0703C3EB0C036645D4BF90
:10166800C2EB0602C2EB0C027345B8BF7346724563
:10167800B8BF72466345A8BF63466245A8BF6246C5
:101688001BB212B2FFF7BEFE16E7334648F2C60198
:1016980047F6FE72BBE700BFD80300200000F03F0A
:1016A800281D0020A80B0020980B0020DC0A002031
:1016B800180A0020F8060020261D0020761E0020AB
:1016C800FA0600208A0800200080FFFF029DD64805
:1016D800C823C5F8C8370223C5F8CC374FF4487279
:1016E8000AF072FCB5F9DC97B5F8DE37A4F8209358
:1016F800B9F1000FA4F8B03445DDCC4EDDF8048014
:1017080047F6FF77B8F90030C949BB424FEA4303AF
:101718000CBF4FF6FC7303F5C87C24F8039008BF90
:10172800B446B4F9B03424F80C30B8F90030BB42F0
:101738001CBF01331BB2A8F80030B4F9B034B4F9B7
:1017480020C3013BC3EBC303634403F21F3C03F50F
:10175800547334F91C9034F81330A4F8B2344FF4AD
:10176800C772881EA4F822930AF014FCB1494FF4FA
:10177800C772881E0AF00EFCB9F1000FC2DCB5F979
:10178800D887B5F9DA77019BB3F9006016F5004FF1
:10179800334606F1FF3200F07981B11E34F9111099
:1017A800414540F37081B5F9D017012900F02F8227
:1017B80013F5004F4FF000004FF0000100F0428297
:1017C80002F1FF3C34F91CE0C6451FDDB5F9D4C76A
:1017D800BCF1010F14D1B5F9D037B5F8D227A5F867
:1017E800D027B5F8D627A5F8D637019BA5F8D42772
:1017F800A5F8D2C7B3F900308F491E465A1E0020FB
:1018080013F5004F00F04F8202F1FF3C34F91CE061
:10181800C6451BDAB5F9D0C7BCF1010F10D1D5F810
:10182800D237C5F8D037B5F8D637A5F8D437019BE5
:10183800A5F8D6C7B3F900307F491E465A1E0020C6
:1018480013F5004F00F0268202F1FF3C34F91CC06A
:10185800C4451DDAB5F9D4C7BCF1010F14D1B5F9E7
:10186800D237A5F8D437B5F9D037A5F8D237B5F8B7
:10187800D637A5F8D037019BA5F8D6C7B3F90030FD
:101888006E491E465A1E002013F5004F00F02481B1
:1018980002F1C70C34F91CE0BE451FDDB5F9D2C70B
:1018A800BCF1010F14D1B5F9D037B5F8D427A5F894
:1018B800D227B5F8D627A5F8D637019BA5F8D4279F
:1018C800A5F8D0C7B3F900305B491E465A1E002060
:1018D80013F5004F00F00A8102F1C70C34F91CC05F
:1018E800BC451DDDB5F9D6C7BCF1010F14D1B5F95A
:1018F800D037B5F9D427A5F8D627B5F8D227A5F853
:10190800D237019BA5F8D427A5F8D0C7B3F9003082
:101918004A491E465A1E002013F5004F00F0F08079
:1019280006F1C60C34F91CC0BC451DDAB5F9D2C79E
:10193800BCF1010F14D1B5F9D437B5F9D027A5F802
:10194800D227B5F8D627A5F8D637019BA5F8D02712
:10195800A5F8D4C7B3F9003038491E465A1E0020EE
:1019680013F5004F00F0D68002F1C70C34F91CC003
:10197800BC4519DAB5F9D6C7BCF1010F10D1B5F9D4
:10198800D037A5F8D637D5F8D237C5F8D037019B68
:10199800A5F8D4C7B3F9003027491E465A1E0020BF
:1019A80013F5004F00F0828106F1C60C34F91CC013
:1019B800BC4519DAB5F9D0C7BCF1010F11D1D5F87A
:1019C800D437B5F8D227C5F8D037019BA5F8D62764
:1019D800A5F8D4C7B3F9003000201E465A1E4FF0B0
:1019E800804113F5004F63D002F1C70C34F91CC0D5
:1019F800BC4525DDB5F9D477012F11D1B5F9D63716
:101A0800D5F8D027A5F8D237019BC5F8D427A5F873
:101A1800D077B3F9003000201E465A1E4FF080419F
:101A280013F5004F4AD00BE0F80600208C010100A6
:101A3800FA0600208A0800200000F0BF0000F03FEE
:101A4800023E34F91630434507DAB5F9D237012B8F
:101A580000F00581013A34F91230984510DAB5F9E9
:101A6800D637012B0CD1D5F8D027B5F9D417A5F85E
:101A7800D01700204FF08041C5F8D427A5F8D237F9
:101A880005B0BDE8F08F0020002199E6DFF830C2EC
:101A98003CF9021C41453FF786AE3CF9023C434500
:101AA8004FF000004FF0000140F3D380814B8DE6EA
:101AB800814BB3F90030BB4200F3A780DFF800C2C6
:101AC8003CF9023C4345C8DAB5F9D237012B00F09E
:101AD800C6803CF9023CC0E7DFF8E8C1ACF67263A7
:101AE800B3F90030BB4203DD724BD7E6DFF8D4C14F
:101AF800ACF67263B3F90030BB4203DD6D4BF1E61F
:101B0800DFF8C0C1ACF67263B3F90030BB420ADA41
:101B1800684B0BE7DFF8ACC1ACF6726EBEF900E0BB
:101B2800BE45FFF627AFACF6726CBCF90030BB427D
:101B3800C1DA604B3EE7B5F9D807B5F9D467DFF8E5
:101B480074E1B5F9DA17B5F9D277B5F9D637B5F939
:101B5800D02706440F447645B8BF7646774547F602
:101B6800FF7CB8BF77466745D4BFC3EB0703C3EB19
:101B78000C036645D4BFC2EB0602C2EB0C027345E8
:101B8800B8BF73467245B8BF72466345A8BF63467F
:101B98006245A8BF62461BB212B2FFF733FC9FE44E
:101BA800B5F9D807B5F9D067DFF808E1B5F9DA175C
:101BB800B5F9D677B5F9D237B5F9D42706440F4425
:101BC8007645B8BF7646774547F6FF7CB8BF774677
:101BD8006745D4BFC3EB0703C3EB0C036645D4BF0B
:101BE800C2EB0602C2EB0C027345B8BF73467245DE
:101BF800B8BF72466345A8BF63466245A8BF624640
:101C08001BB212B2FFF7FEFB60E42A4BF2E6B5F90D
:101C1800D227B5F9D437A5F8D427B5F8D627A5F82B
:101C2800D637019BA5F8D217A5F8D027B3F900300D
:101C3800224913F5004F1E4603F1FF324FF0000012
:101C48007FF4BEADDFF878C03CF9023C43453FF76E
:101C58002DAF3CF9023C43451EDA164BDAE5D5F8C0
:101C6800D437B5F8D027C5F8D0370123A5F8D6372B
:101C7800019BA5F8D427B3F9003013F5004F03F101
:101C8800FF324FF000004FF080417FF4E3AEDFF801
:101C980030C01EE7DFF828C03CF9023C4345BFF6D8
:101CA8001BAF044BD6E5DFF818C0D2E7DFF814C045
:101CB80039E700BF0080FFFF6605FF1F0000F03F07
:101CC800D803FF1FD813FF1F2DE9F0479C4E9D4DE9
:101CD80056E90289002482B022462B4640464946EE
:101CE800FEF772FE002800F08680D6E90401002283
:101CF8000023FEF769FE002800F0F3809FED847B47
:101D0800914FDFF860A200268DED007BCAE90067DD
:101D18005AE9022330463946FEF738FA7EA3D3E95A
:101D2800002380468946FEF7E7FB02460B464046FD
:101D38004946FEF729FA854D2C46F4E808234AE976
:101D4800020130463946FEF71FFA75A3D3E900238E
:101D58008046894654E90201FEF7CEFB02460B464F
:101D680040464946FEF712FA02460B4644E902236A
:101D7800774BDFF8F4A10022FEF7BEFBDDE9002374
:101D8800FEF704FAC5E9006702460B4604460D460D
:101D980000207049704FFEF7F7F9002632463B469F
:101DA80080468946FEF72EFE002871D04AE902894E
:101DB8004946DFF8A09140464FF0000842464B469E
:101DC800FEF72AFE002865D02046294642464B46A3
:101DD8004AE90289FEF7DAF932463B4604460D46DF
:101DE800FEF710FE002864D134463D46CAE9004596
:101DF80002B0BDE8F087404649464FF000084FF072
:101E0800000942464B46FEF7DFFDC8B1D6E9046734
:101E180022462B4630463946FEF7D6FD40B19FEDA7
:101E2800427BDFF840A18DED007BCAE900456FE7F2
:101E38003046394642464B46FEF7C6FD002847D194
:101E4800464C0022D4E900010023FEF7BDFD90B105
:101E580054E904013B4B0022FEF7B6FD58B19FED53
:101E6800347BDFF800A100264FF040478DED007B62
:101E7800CAE900674CE7DFF8ECA0394BDAE90067FC
:101E8800002230463946FEF737FBCDE900013FE72F
:101E98004AE902672F4B304F002220462946FEF7B9
:101EA80075F9002632463B4604460D46FEF7AAFD64
:101EB80048B1284F00262046294632463B46FEF7C1
:101EC800ABFD002892D0CAE9006702B0BDE8F087F0
:101ED800DFF890A046464F46CDE90067CAE9008979
:101EE80016E756E9060100220023FEF76DFD0028DB
:101EF800A6D09FED117BDFF86CA000264FF080473D
:101F08008DED007BCAE9006702E700BFAFF30080F0
:101F18000000000000002EC07B14AE47E17A743F39
:101F2800CDCCCCCCCCCCEC3F0000000000002E4047
:101F38000000000000003EC00000000000003E401D
:101F4800980B00200000F03F0000F0BF382400206C
:101F580000405F4000005940000059C0B80B002005
:101F680000002E4048240020F80B0020034B5B792A
:101F7800B3FA83F35B094370704700BFB02E0020AB
:101F88002DE9F04F2DED108BB849B94C4A79DFF89F
:101F98000CA3531CDBB2142BB2FA82F228BF002325
:101FA8005209ABB08A714B7122460421DAF84C060B
:101FB800FFF706F9BAF8E837AE4AE1892588A68915
:101FC8006788B4F808C0A088A2F8F6579BB2A2F8B0
:101FD800EA67A2F8E8171F93A2F8F4771346628914
:101FE800E488A3F8F20711902046A3F8EEC7A3F8F7
:101FF800EC27A3F8F007169008466446CDF870C0A1
:1020080019951A96109218911B97FEF7FBF90A4634
:10201800014642EC171B984B304603ED027BCDE995
:102028002612FEF7EFF90A460146934B1098934E95
:1020380042EC171B83ED007BCDE91412FEF7E2F9A1
:102048000A46014642EC171B204606ED027BCDE905
:102058000C12FEF7D7F903460C4644EC173B1698CA
:1020680086ED007BCDE90634FEF7CCF902460B4637
:1020780043EC172B119886ED027BCDE90823FEF778
:10208800C1F9C6E90401CDE90A013846FEF7BAF9F3
:10209800C6E90601CDE912012846FEF7B3F9784BE7
:1020A800D3E92E45C6E908010AF57066CDE9240191
:1020B8002246D6E900012B46FEF786FC08B9C6E998
:1020C8000045704C70495022204609F0AFFFDDE909
:1020D80014232746E7E914236B49482204F15800E2
:1020E80009F0A4FFA04650223946674809F09EFF30
:1020F800F8E80434214658E90245184622462B469A
:10210800CDE90401FEF76AFC002801F0EB81012605
:10211800D8E9008922462B4640464946FEF77CFC12
:1021280010B144464D460126DFF874B15BE90289D7
:102138002046294642464B46FEF750FC10B144461D
:102148004D460126DBE900892046294642464B4692
:10215800FEF744FC10B144464D460126DFF844B171
:102168005BE9028922462B4640464946FEF754FC65
:1021780010B144464D460126DBE9008922462B462C
:1021880040464946FEF748FC10B144464D460126F4
:10219800DFF814B15BE9028922462B4640464946DE
:1021A800FEF73AFC10B144464D4601269BED007BF4
:1021B800224651EC170BB0EE478AF0EE678A2B46A1
:1021C800FEF72AFC57E90289002801F07B8151ECCF
:1021D800180B42464B46FEF701FC002801F08F81A0
:1021E800274B2A4ED3E93445D6E9000122462B462F
:1021F800FEF7EAFB08B9C6E90045254C2549C8227F
:10220800204609F013FFC4E932892249C02204F1AB
:10221800D00009F00BFF26461E4804F1C801C82269
:1022280009F004FFB6EC027B4FF000088DED047B4B
:10223800C34659EC178B06F1C007F6E8024542463B
:102248004B4620462946FEF7C9FB18B1A046A946C9
:102258004FF0010BB742F0D149EC198BBBF1000FDD
:1022680001F05C83064B0C4E20E000BFB02E00202E
:102278007C030020D8030020480B0020580B0020C6
:1022880000000020C8180020302C0020D82D002085
:10229800981B0020E02D002088290020281D002000
:1022A800E8180020F818002008190020D3E928456C
:1022B800D6E9000122462B46FEF786FB08B9C6E997
:1022C8000045BA4CBA49C822204609F0AFFE9DED38
:1022D8000C7BB74984ED327BC02204F1D00009F0B1
:1022E800A5FEA346B24804F1C801C82209F09EFE23
:1022F800BBEC027B04F1C0038DED047B083359EC81
:10230800178B5E46CDF830B0219300279B46F6E840
:10231800024542464B4620462946FEF77DFB10B152
:10232800A046A9460127B345F1D1DDF830B049EC04
:102338001A8B002F01F0EA829E4B9F4ED3E9244569
:10234800D6E9000122462B46FEF73EFB08B9C6E94E
:1023580000459A4C9A49C822204609F067FE9DED2F
:10236800067B974984ED327BC02204F1D00009F046
:102378005DFE2646924804F1C801C82209F056FEBF
:10238800B6EC027B4FF000088DED067B04F1C80324
:10239800CDF830B0C34659EC178B37460E961D93CF
:1023A8001E46F7E8024542464B4620462946FEF7B8
:1023B80033FB18B1A046A9464FF0010BBE42F0D13D
:1023C80049EC1B8BD8460E9EDDF830B0B8F1000FF3
:1023D80001F09482774B7B4FD3E92245D7E900017E
:1023E80022462B46FEF7F0FA08B9C7E90045764CB5
:1023F8007649C822204609F019FE9DED087B7349ED
:1024080084ED327B04F1D000C02209F00FFE25468E
:1024180004F1C8016D48C82209F008FEB5EC027B3A
:102428008DED087B04F1C803002759EC178B2C4667
:102438000C95CDF838B01E931D461796BB46F4E8A8
:10244800026742464B4630463946FEF7E5FA18B170
:10245800B046B9464FF0010BA542F0D15F460C9D3E
:10246800179EDDF838B049EC1C8B002F01F03E8236
:10247800504B574CD3E92089D4E9000142464B46DA
:10248800FEF7A2FA08B9C4E90089524F5249C82296
:10249800384609F0CBFD9DED0A7B4F4987ED327B2D
:1024A80007F1D000C02209F0C1FD3C4607F1C80180
:1024B800C822494809F0BAFDB4EC027B8DED0A7BCD
:1024C80007F1C803002259EC178BCDF838B01796DE
:1024D800209327460C951E4622949346F7E802451A
:1024E80042464B4620462946FEF796FA18B1A046C2
:1024F800A9464FF0010BB742F0D15B460C9D179EE1
:10250800229CDDF838B049EC1D8B002B01F032829B
:10251800284B324FD3E9308957E9020142464B46EE
:10252800FEF752FA08B947E902892D4F2B49502284
:10253800384609F07BFDDDE912123B46E3E9141247
:1025480007F1580025491793482209F06FFD17999C
:102558002248502209F06AFDF7E8040117ED027BD2
:1025680053EC172BB0EE478AF0EE678ACDE90E01DF
:10257800FEF734FA002800F09B8701230C93D7E973
:10258800008953EC182B40464946FEF745FA18B126
:10259800012349EC188B0C93124F57E9028953EC2D
:1025A800182B40464946FEF737FA1DE0181400205C
:1025B8009029002000000020C8270020F8100020E3
:1025C800D0270020E8260020680F0020F0260020F1
:1025D80008260020D80D002010260020982C002066
:1025E800681900208819002018B1012349EC188BBC
:1025F8000C93D7E9008953EC182B40464946FEF75F
:102608000BFA18B1012349EC188B0C93C64F57E904
:10261800028953EC182B40464946FEF7FDF918B1DC
:10262800012349EC188B0C93D7E9008953EC182B3C
:1026380040464946FEF7F0F918B1012349EC188BDA
:102648000C93BA4F57E9028951EC180B42464B4696
:10265800FEF7C4F918B1012349EC188B0C93D7E99C
:10266800008953EC182B40464946FEF7D5F9179BCD
:10267800002800F0108713ED027B404653EC172B1F
:1026880049468DED0E7BFEF7A9F9002800F00C876E
:10269800A74BA84FD3E93289D7E9000142464B46F8
:1026A800FEF792F908B9C7E90089DFF8A082A249C4
:1026B800C822404609F0BAFC9DED0E7B9E4988ED84
:1026C800327B08F1D000C02209F0B0FC474608F17F
:1026D800C801C822984809F0A9FCB7EC027B974BBF
:1026E800CDF85CB003F5B7538DED0C7B18330022A1
:1026F80059EC178B22960E951E4623949346F7E8BD
:10270800024542464B4620462946FEF767F918B16E
:10271800A046A9464FF0010BBE42F0D15B46DDE969
:1027280022640E9DDDF85CB049EC188B002B01F09B
:10273800FD80B0EE490AF0EE690ABAF8EA37804F30
:102748009BB20C931F9B3B8009F05AFA9FED741BB8
:1027580009F020FA59EC108B10EE100A0022002321
:102768004946FEF73BF9002841F08180404649463A
:10277800FEF79AF980B27880B0EE4A0AF0EE6A0A5B
:1027880009F03EFA9FED661B09F004FA59EC108B2C
:1027980010EE100A002200234946FEF71FF9002810
:1027A80041F05C8040464946FEF77EF980B2B88029
:1027B800B0EE4B0AF0EE6B0A09F022FA9FED581BB7
:1027C80009F0E8F959EC108B10EE100A00220023EA
:1027D8004946FEF703F9002841F03780404649464C
:1027E800FEF762F980B2F880B0EE4C0AF0EE6C0A9F
:1027F80009F006FA9FED4A1B09F0CCF959EC108B49
:1028080010EE100A002200234946FEF7E7F80028D8
:1028180041F0128040464946FEF746F980B23881B9
:10282800B0EE4D0AF0EE6D0A09F0EAF99FED3C1B97
:1028380009F0B0F959EC108B10EE100A00220023B1
:102848004946FEF7CBF8002840F0ED874046494658
:10285800FEF72AF980B27881B0EE480AF0EE680AED
:1028680009F0CEF99FED2E1B09F094F959EC108B65
:1028780010EE100A002200234946FEF7AFF80028A0
:1028880040F0C88740464946FEF70EF980B20C9BD7
:10289800FB81BAF8EC37264AB8819BB2D2E92C8979
:1028A8000E93B2F866303B82264F4246D7E90001C4
:1028B8004B46FEF789F808B9C7E90089DFF8908028
:1028C8002149C822404609F0B1FB9DED147B1E4901
:1028D80088ED327B08F1D000C02209F0A7FBC8229E
:1028E80008EB0201184809F0A1FB98ED007BA8F558
:1028F800316208F1C0038DED0C7B02ED027B08F11B
:1029080008070833002259EC178BCDF85CB01F96E6
:1029180014951E46229493461CE000BFAFF3008036
:10292800000000000000F04098190020A8190020BD
:1029380000000020F82C0020002D0020D8030020E3
:1029480090030020482B0020502B0020081A00205C
:1029580038170020F7E8024542464B4620462946EC
:10296800FEF73CF818B1A046A9464FF0010BBE424D
:10297800F0D15B46149D1F9E229CDDF85CB049ECAB
:10298800188B002B01F02280CD4B43E902899DED85
:10299800047BCB4B1496002783ED007BB946DDF80A
:1029A80084800C9557EC176B1794FBE80245324668
:1029B8003B4620462946FEF711F818B126462F4611
:1029C8004FF00109C345F0D147EC176B47EC196B81
:1029D8004F460C9D179C149E002F00F0EF87B84BB4
:1029E80083ED007B9DED067BB64BDDF874B0049556
:1029F80003ED027B59EC178B00270C94F6E802458F
:102A080042464B4620462946FDF7E8FF10B1A0464E
:102A1800A9460127B345F1D1049D0C9C49EC1A8BBA
:102A2800002F00F0C387A74B43E902899DED087B7F
:102A3800DFF8B082CDF818A04FF0000908ED027B4E
:102A4800A346CDF810901E9C5AEC179BF5E8026738
:102A58004A46534630463946FDF7C0FF18B10123B0
:102A6800B146BA460493AC42F0D14AEC179B4AEC03
:102A78001B9BDDF81090DDF818A05C46B9F1000F3B
:102A880000F08C8708ED027B9DED0A7B88ED007BCA
:102A9800CDF810A0DDF880B05AEC179B0025F4E8BB
:102AA80002674A46534630463946FDF797FF10B14C
:102AB800B146BA460125A345F1D14AEC179B4AEC29
:102AC8001C9BDDF810A0002D00F0608788ED007BCE
:102AD8007D4B7E4ED3E92A45D6E9000122462B4696
:102AE800FDF772FF08B9C6E90045794E7949C82251
:102AF800304609F09BFA9DED127B764986ED327BD4
:102B0800C02206F1D00009F091FAC8227148B11824
:102B180009F08CFA96ED007B6F4B03F5945503F59D
:102B280004638DED047B03ED027B59EC178B18359C
:102B380006F108044FF0000BF4E8026740464946E6
:102B480032463B46FDF768FF18B1B046B9464FF02C
:102B5800010BAC42F0D1BBF1000F00F013875F4BC3
:102B680043E90289B0EE480AF0EE680ABAF8EE378F
:102B78005B4E9FB20E9B338009F042F89FED4E1BCF
:102B880009F008F855EC104B10EE100A002200234B
:102B98002946FDF723FF002840F07B86204629467A
:102BA800FDF782FF80B27080B0EE490AF0EE690A44
:102BB80009F026F89FED401B08F0ECFF55EC104B90
:102BC80010EE100A002200232946FDF707FF00280F
:102BD80040F0568620462946FDF766FF80B2B08051
:102BE800B0EE4A0AF0EE6A0A09F00AF89FED321BC5
:102BF80008F0D0FF55EC104B10EE100A002200230D
:102C08002946FDF7EBFE002840F067862046294656
:102C1800FDF74AFF80B2F080B0EE4B0AF0EE6B0A87
:102C280008F0EEFF9FED241B08F0B4FF55EC104BA5
:102C380010EE100A002200232946FDF7CFFE0028D7
:102C480040F0428620462946FDF72EFF80B23081AB
:102C5800B0EE4C0AF0EE6C0A08F0D2FF9FED161B9E
:102C680008F098FF55EC104B10EE100A00220023D4
:102C78002946FDF7B3FE002840F01D862046294668
:102C8800FDF712FF80B2708149EC108B08F0B8FF95
:102C98009FED091B08F07EFF104955EC104B81EDA4
:102CA800000B10EE100A002200232946FDF796FEBD
:102CB8001AE000BFAFF30080000000000000F04001
:102CC800280C0020380C002000000020682A002072
:102CD800A8150020702A0020D8030020180C002016
:102CE800A4030020080C0020002840F0DB852046C3
:102CF8002946FDF7D9FE80B2BA4BBB4A9B79B2F898
:102D08006C20B081F781328243B19DED267BB74BB1
:102D180003ED027B9DED247B83ED007BB24B18987D
:102D2800B3F86040B24D04FB00F0FDF76BFBB14B0C
:102D38000022FDF7E1FB45E902011A9804FB00F0C7
:102D4800FDF760FBAB4B0022FDF7D6FBE5E804017D
:102D58001098089504FB00F0FDF754FBA54B0022E2
:102D6800FDF7CAFB45E902011C9804FB00F0FDF7DA
:102D780049FBA04B0022FDF7BFFBC5E900011698EF
:102D88009D4D04FB00F0FDF73DFB9A4B0022FDF73B
:102D9800B3FB45E90201119804FB00F0FDF732FB93
:102DA800944B0022FDF7A8FBC5E900011B9804FB22
:102DB80000F0FDF727FB8F4B0022FDF79DFBC5E9CF
:102DC8000201199804FB00F0FDF71CFB894B002257
:102DD800FDF792FB894B0026C3E90066C3E902664A
:102DE800874BC3E90066874BC5E904011E60864925
:102DF800864BD1E900011E600022854BFDF7C6F91C
:102E0800844A814BA2F8646804460D460127C3E949
:102E18000045C2F8607800230022FDF7DFFD8046F8
:102E280029462046B8F1000F40F0ED84FDF714FE66
:102E38000446062C08DD784B83FB0423A3EBE473DC
:102E480003EB4303A4EB4304032C4FF00003C4BF7C
:102E5800C4F1060447469C42ADF8A4308DF8A6306C
:102E680040F3BE84002F01F0EA836A4A131B032C47
:102E780093F8653882F86538A2EB040393F8643850
:102E880082F86438A2EB040393F8633882F8633855
:102E98000AD0131B012C93F8623882F8623804BFF9
:102EA80092F8603882F861385C482246002109F0BF
:102EB8008BF8584B93F96048002C41F02484554D09
:102EC800574A95F9643806934FF40071003B9461B2
:102ED80018BF01239162180395F96258DB0280F448
:102EE800805783F400664FF48041A4464C4AC2F8E8
:102EF80018C09162002D00F06A844FF4807C002194
:102F0800C2F818C091624FF4004C454AC2F818C084
:102F1800916290619762002C00F04F84414A4FF40F
:102F280080500021906191624FF40050394A069F09
:102F380082F8FF7782F8007882F8FC47174682F813
:102F4800FD5782F8FE4782F8014882F8025882F855
:102F58000348334A90619162936196629AF8F43714
:102F6800C7F8F827002B00F0FF83DFF8C4B00BF197
:102F780020030BF110090493DFF8B8802A4E474666
:102F88000FCF0FC60FCF0FC60FCF0FC697E80F0092
:102F980086E80F0058E910011D4B0022FDF714FDCB
:102FA800002840F0D183012C03D1D6E90423C8E9D5
:102FB80010235BE90201164B0022FDF705FD0028EE
:102FC80040F0B183012D05D1094A184BD2E900011F
:102FD80043E90201DBE900010D4B0022FDF7F4FC97
:102FE8002AE000BFB02E002000000020C8230020E7
:102FF800880B00200000503EA80B0020B82E0020AF
:10300800B8030020CC2E002068240020C82E002001
:103018000000F03FD8030020ABAAAA2A380C0020F1
:103028000010004800040048400B0020F82200204F
:1030380078220020A8220020002840F06383012C79
:1030480005D1089AA94B52E90201C3E9000159E9DF
:103058000201A74B0022FDF7B7FC002840F040838F
:10306800069B012B05D1089AA24BD2E9000143E93E
:103078000201D9E900019E4B0022FDF7A5FC0028BA
:1030880040F01C83069B012B05D19B4A994B52E9C2
:103098000201C3E900010499954B51E9020100229C
:1030A800FDF792FC002840F0F882012C05D1924AE5
:1030B800924BD2E9000143E9020104998C4BD1E912
:1030C80000010022FDF780FC002840F0D582012D88
:1030D80005D18B4A894B52E90201C3E9000158E93D
:1030E8000267834B002230463946FDF76DFC002805
:1030F80000F0B882824A834BD2E90001012C43E9EF
:10310800020101F0D08253E91223FDF73DF87E4B0E
:10311800C3E900017D4B5BE90201C3E900670022B6
:10312800734BFDF751FC002840F04D82784B93ED2E
:10313800007BB0EE478AF0EE678A59E902016C4BD2
:103148000022FDF741FC002840F02282714B93EDEC
:10315800007BB0EE479AF0EE679AD9E90001644B1C
:103168000022FDF731FC002840F0F7816A4B13ED8F
:10317800027BB0EE47AAF0EE67AA04995C4BD1E94E
:1031880000010022FDF720FC002840F0C9815E4BB9
:1031980013ED027BB0EE47BAF0EE67BA5F4C604DB4
:1031A8000FCC0FC50FCC0FC50FCC0FC594E80F007F
:1031B80085E80F0094F96400FDF734F948E9100137
:1031C80094F96500FDF72EF94BE9020194F96600C0
:1031D800FDF728F948E90C0194F96700FDF722F991
:1031E80049E9020194F96800FDF71CF948E908016A
:1031F80094F96900FDF716F9049B43E9020194F973
:103208006A00FDF70FF948E9040194F96B00FDF72E
:1032180009F9402248E90201002104F1100008F0F0
:10322800D3FE404B14ED087B13ED026BB0EE47DA8A
:10323800F0EE67DA51EC170B53EC162B8DED046B9F
:10324800FDF7EAFB20B12A4B0899002241E9022345
:10325800314B93ED007B334BB0EE47EAF0EE67EA73
:1032680093ED006B51EC170B53EC162B8DED066BA1
:10327800FDF7D2FB20B11E4B1F490022C1E90023F4
:10328800294953EC182BD1E90001FDF7A7FB0026CB
:10329800002800F04381164F244BC3E90067224BF6
:1032A80053E9020153EC1B2BFDF798FB20B1104B9F
:1032B8001349002241E902231D4953EC1A2B51E915
:1032C8000201FDF78BFB002800F02481084B0A4916
:1032D800002241E902234FF000084FF40044144B48
:1032E800D3E9000153EC192B24E000BFF822002099
:1032F8000000F03F08230020A80B0020182300201E
:10330800B80B002068230020780B0020180C002040
:10331800480B0020580B0020680B0020400B0020B1
:10332800A8220020D8230020F8230020880B0020A2
:10333800E8230020FDF752FB002800F0E780B64B99
:1033480008990022C1E900234FF000094FF4005505
:10335800B24B93ED007BB24BB0EE47CAF0EE67CAB2
:1033680093ED006B51EC170B53EC162B8DED086B9E
:10337800FDF752FB20B1A84BAA490022C1E900235E
:10338800A94B13ED027BA64BB0EE47FAF0EE67FAB5
:1033980013ED026B51EC170B53EC162B8DED0A6BEA
:1033A800FDF73AFB20B19C4BA049002241E90223DA
:1033B8009F4B30469D613946C3F828900022002370
:1033C800FDF702FB002800F09E80964B002253E98F
:1033D80002010023FDF7F8FAB0FA80F040098303F0
:1033E80083F48040924A934D93619062924B94612A
:1033F800C2F82880914A924CC3F8F847D2E90001F4
:1034080000230022FDF7E0FAB0FA80F040098D4B66
:10341800C000A06180F00800A0629868FDF714F869
:1034280077A3D3E90023FDF767F855E90223FCF7F2
:10343800ADFE814B2269BAF8F047C3F86828824B81
:103448000F460646B4F5FF7F45E90267196903D8B8
:103458000134A4B2AAF8F0479AF8E43713F0200828
:1034680000F0BC8203F01F03013B102B01F2C48360
:10347800DFE813F08B09D009E9090A0A500A740A2F
:10348800E90B400BFB08BF0B9E0A0E0BED0BD80B8C
:10349800130C5A09FD0B53E9028951EC180B4246EB
:1034A8004B46FDF79BFA10B3CDE90E89FFF7F0B84C
:1034B8009DED0E7B00230C93B0EE478AF0EE678AF1
:1034C800FFF75DB82046294642464B46FDF786FA87
:1034D80000287EF485AE002E41F01484DDE90489CD
:1034E800FEF77EBEDDE904450026FEF711BE0C9B03
:1034F800002B3FF4CDA88DED0E8BFFF7C9B859EC22
:10350800188BFEF76DBE4FF480436BE705464FF40A
:1035180000591DE704464FF40048E0E60027BEE6E0
:103528003E4E39A3D3E9002356E90201FCF7E4FF34
:10353800464B04460D46D3E9000135A3D3E90023E1
:10354800FCF7DAFF02460B4620462946FCF71EFE2A
:1035580046E9020141EC1B0B20E63D4E3D4B56E986
:1035680002010022FCF7C8FF3B4B04460D4600222F
:10357800D3E90001374BFCF7BFFF02460B46204654
:103588002946FCF703FE46E9020141EC1A0BF4E573
:10359800324E304BD6E900010022FCF7ADFF2E4B2E
:1035A80004460D46002253E902012A4BFCF7A4FF0A
:1035B80002460B4620462946FCF7E8FDC6E900010D
:1035C80041EC190BC9E5184E0FA3D3E90023D6E93E
:1035D8000001FCF791FF224B04460D4653E9020116
:1035E8000BA3D3E90023FCF787FF02460B462046CE
:1035F8002946FCF7CBFDC6E9000141EC180B9CE518
:103608007B14AE47E17A743F9A9999999999C93F81
:103618009A9999999999E93F0000F03F780B002011
:1036280008240020B80B0020480B0020880B00203D
:103638000008004818240020D803002000000020BB
:1036480000040048CC03002000100048D8220020C5
:10365800680B00200000E03FC8220020580B002023
:10366800B8220020012C7FF455ADB44AB44BD2E9FE
:10367800000143E902014DE5B04AB24B52E90201AB
:10368800012DC3E9000101F0388053E91023FCF74C
:103698007BFDAD4B43E9020121E5AC4AA94BD2E9D8
:1036A8000001012C43E9020101F0218053E91223B2
:1036B800FCF76AFDA64BC3E90001FEE4A34AA54B4B
:1036C80052E90201069A012AC3E9000101F00980C2
:1036D80053E91023FCF758FD9D4B43E90201DAE456
:1036E800089A9C4BD2E90001069A012A43E9020193
:1036F80000F0F18753E91223FCF746FD964BC3E926
:103708000001B6E4089A954B52E90201012CC3E97D
:10371800000100F0DA8753E91023FCF735FD8E4BE2
:1037280043E9020193E48E4A8C4BD2E90001012D52
:1037380043E9020100F0C38753E91223FCF724FD93
:10374800884BC3E9000145E4854B53E90201012C8C
:10375800C8E9200100F0AD87D8E91023FCF714FD73
:10376800804B43E9020124E42046FCF75BFE7E4BD4
:1037780006469B460F46EBE804672846FCF752FED0
:10378800894680464BE90289CBE900670698FCF731
:1037980049FE754B0122C3E90C89C3E90E67C3E9E9
:1037A8000A67C3E90601C3E9080103F120093033B8
:1037B8008AF8F4270493FFF7DFBB6C4A4FF4805173
:1037C8009461204691624FF40051FFF7AFBB4FF46C
:1037D80080719561AC4691624FF40041FFF795BB4B
:1037E8004FF400664FF48057184606931D4601248F
:1037F8005F4A4FF4007C0021C2F818C091624FF470
:10380800804CFFF773BBFDF727F9B84644423746AB
:10381800FFF70FBB404609F10041FDF745F940426B
:1038280080B2FFF734B8404609F10041FDF73CF992
:10383800404280B2FFF70FB8404609F10041FDF75A
:1038480033F9404280B2FEF7EABF404609F1004131
:10385800FDF72AF9404280B2FEF7C5BF404609F19C
:103868000041FDF721F9404280B2FEF7A0BF404673
:1038780009F10041FDF718F9404280B2FEF77BBF1D
:10388800204605F10041FDF70FF9404280B2FFF7ED
:10389800A6B9204605F10041FDF706F9404280B27D
:1038A800FFF781B9204605F10041FDF7FDF84042D8
:1038B80080B2FFF721BA204605F10041FDF7F4F880
:1038C800404280B2FFF7DFB9204605F10041FDF71D
:1038D800EBF8404280B2FFF7BAB9204605F1004143
:1038E800FDF7E2F8404280B2FFF795B99DED087BFD
:1038F800B0EE47CAF0EE67CAFEF7BABD9DED067B8B
:10390800B0EE47BAF0EE67BAFEF764BD9DED047BF2
:10391800B0EE47AAF0EE67AAFEF70EBD9DED047B58
:10392800B0EE479AF0EE679AFEF79CBC9DED0C7BD3
:10393800B0EE478AF0EE678AFEF7FBBEB80B0020B0
:103948002823002058230020780B0020A80B0020F3
:10395800680B002048230020580B00203823002043
:10396800880B0020480B0020682200200004004833
:10397800001000489DED0A7BB0EE47DAF0EE67DAFA
:10398800FEF7C6BDDDE90489FFF7ECB89DED0A7BBB
:10399800B0EE47CAF0EE67CAFFF79AB89DED087B0C
:1039A800B0EE47BAF0EE67BAFFF76EB89DED067B4A
:1039B800B0EE47AAF0EE67AAFFF738B89DED047B92
:1039C800B0EE479AF0EE679AFFF70CB89DED0C7BC6
:1039D800B0EE478AF0EE678AFEF7D9BF23F03F03BF
:1039E80043F02D038AF8E437C34BCAF8D837C34BE2
:1039F800CAF8DC370123CAF8D0374146C048CAF8AC
:103A0800D4874FF4A86208F0DFFA02230493BD4B71
:103A18004146474647F6FF7C03F580597B1C0693D1
:103A28001DB201240022002F00F08E82614500F0B3
:103A3800B582481C0E4601F1A80B01F5A87801F5DE
:103A4800FC7E8B1C01B22AF8165026B22AF81B609D
:103A58002AF818702AF81E6096B2002A00F05282DE
:103A6800614500F08E8203F1A70B03F24F1803F2B1
:103A7800F71E19B2062F2AF810502AF81B402AF808
:103A880018502AF81E6000F0858208464B1C6145D4
:103A980000F06E8203F1A70B03F24F1803F2F71E32
:103AA80019B22AF8105023B204982AF81B30062AB3
:103AB8002AF818002AF81E301AD06145084601F184
:103AC800010300F0458203F1A7012AF810502AF8F3
:103AD800114003F24F1101322AF8115003F2F71185
:103AE8000236072A2AF8116004F1010419B29AD1A2
:103AF800049B069F01339BB2072F04938ED14FF08E
:103B08000113CAF8E037804F0123AAF8DA377F4B50
:103B1800002253E902017E4BFCF756FF002840F0D3
:103B2800A7827C4BA3F1700217ED027B0492A3F1EC
:103B380060020692A3F120020C92A3F150020892AF
:103B4800B0EE478AF0EE678AA3F1400297ED007B5A
:103B5800D3E90089B0EE479AF0EE679A53E9024537
:103B68000A92A3F11002A3F1300B0E92069B53E9BF
:103B78000267D3E9000132463B46FCF705FB58A330
:103B8800D3E90023FCF7B8FC32463B46FCF7FEFAC3
:103B9800049A614B52E90267C3E90001D2E90001C6
:103BA8003B463246FCF7F0FA4DA3D3E90023FCF775
:103BB800A3FC32463B46FCF7E9FA574B43E90201BE
:103BC800089B53E90267D3E9000132463B46FCF7FC
:103BD800DBFA45A3D3E90023FCF78EFC32463B46CB
:103BE800FCF7D4FA0C9A4D4B52E9026743E90201FB
:103BF800D2E900013B463246FCF7C6FA3AA3D3E9BC
:103C08000023FCF779FC32463B46FCF7BFFA5BE938
:103C18000267424B3246C3E900013B46DBE900013B
:103C2800FCF7B2FA32A3D3E90023FCF765FC32466D
:103C38003B46FCF7ABFA0A9A394B52E9026743E96B
:103C48000201D2E900013B463246FCF79DFA28A35F
:103C5800D3E90023FCF750FC32463B46FCF796FAC2
:103C68002F4B2246C3E900012B4640464946FCF744
:103C78008BFA1BA3D3E90023FCF73EFC22462B4614
:103C8800FCF784FA274BC3E900010E9B53E9024570
:103C9800D3E9000122462B46FCF776FA10A3D3E9B4
:103CA8000023FCF729FC22462B46FCF76FFA55EC5B
:103CB800184B804689461C4B18EE100A00222946EC
:103CC800FCF7AAFE002800F0978118EE100A174B9F
:103CD800DFED178A29460022FCF738FD2AE000BFED
:103CE8003D0AD7A3703DEA3FAE47E17A14AED73F0D
:103CF800D7A3703D0AD7D33F01000200020001009C
:103D0800281D0020280D0120F80B0020E80B0020BA
:103D18000000F03FE8240020D8230020E8230020FA
:103D2800F823002008240020000024400000084058
:103D380000000000C14B0022FCF728FA04460D469B
:103D4800FCF7D2FE08EE100A00260027BC4B43E918
:103D58000289BC4BC3E9004555EC194BC3E902671E
:103D680040F20113AAF8F23719EE100AB64B0022F6
:103D78002946FCF751FE002800F01C81B34B294668
:103D8800002219EE100AFCF7E1FCAC4B0022FCF70C
:103D9800FDF904460D46FCF7A7FEDFEDAD6A07EE18
:103DA800100A00260027AB4BB5EEC08AF1EE10FAD8
:103DB800C3E90045C3E90267DAF8903600F12784C1
:103DC800DFEDA57AB4EE678AF1EE10FAC8BFB0EE5F
:103DD800678A19681A79CB6ADFED9F5AC86BB2FAFD
:103DE80082F25209134407EE903AF8EE677A67EECA
:103DF800887A87EEA56AFCEEC67A17EE903A834277
:103E0800DFED957A18BFCB63CB6AF4EE678AF1EEE3
:103E180010FA1344C8BFF0EE678AF0EE675A07EE4F
:103E2800903AF8EE677A0A6C67EEA87AB5EEC07A2F
:103E380087EEA56AFCEEC67A17EE903A934218BF51
:103E48000B64F1EE10FADAF8803600F1DD83DFED6D
:103E5800827AB4EE677AF1EE10FAC8BFB0EE677AEC
:103E680019681A79CB6A9FED7C6A486B7B4CB2FA69
:103E780082F25209134407EE903AF8EE677A67EE39
:103E8800877A87EE867AFCEEC77A9FED737A17EE0B
:103E9800903A834218BF4B63CB6A134407EE903ABB
:103EA800F4EE476AF1EE10FAF8EE677AC8BFF0EE62
:103EB800476A67EEA67AF0EE476A87EEA67A8A6BBB
:103EC800FCEEC77A17EE903A934218BF8B636449A9
:103ED800C1F8F84763490022D1E902010023FCF741
:103EE80073FDB0FA80F04009C00180F08003A06142
:103EF800A36201F069FD01F04FFE2BB0BDEC108B01
:103F0800BDE8F08F062F7FF4C2AD61457FF4DBADCD
:103F1800554BA9F84C410236A9F8EC630134A3F8D3
:103F2800FC5F0122A9F89C5247F6FF7147F6FE761E
:103F380048F2A60B48F24E1848F2F61E08464FF40F
:103F48000043002F7FF47FAD96B208464B1C84E5F2
:103F5800454BA9F84C4101320236072AA9F8EC630F
:103F680004F10104A3F8FC5FA9F89C52DCD1BFE579
:103F780048F2F61E48F24E1848F2A60B47F6FE70B5
:103F88008FE548F2F61E48F24E1848F2A60B47F69F
:103F9800FE706FE5062A7FF490ADB0E54FF400435C
:103FA800084648F2F61E48F24E1848F2A60B47F6A5
:103FB800FE7648E52D4B19EE100A00222946FCF73B
:103FC8000DFD002800F02783204B2946002219EE1A
:103FD800100AFCF7BBFB194B0022FCF7D5F821F0BF
:103FE800004739460646FCF77FFD002406EE900A96
:103FF8009FED177A0025D6E61C4B18EE100A002212
:104008002946FCF7EBFC002800F00F8318EE100A95
:104018000E4B9FED0F8A29460022FCF797FB074BB2
:104028000022FCF7B1F821F0004739460646FCF7B4
:104038005BFD002408EE900A002587E600805040CA
:1040480008240020180C002000002440000008402C
:1040580000000000280C00200000C842000C0048A6
:10406800D803002000000020280D0120000024C0F3
:10407800CF4B13ED027BB0EE47DAF0EE67DA93ED43
:10408800007BB0EE479AF0EE679A93ED047BB0EEB2
:1040980047EAF0EE67EA93ED027BB0EE47AAF0EE4E
:1040A80067AA13ED047BB0EE478AF0EE678A13ED3A
:1040B800067BB0EE47FAF0EE67FA93ED067BB0EEBA
:1040C80047BAF0EE67BA93ED087BB0EE47CAF0EE58
:1040D80067CAB84E0496D6E9004559EC1D8B1DEE0B
:1040E800102A4B4620462946FCF778FCC0B1A4A309
:1040F800D3E9002320462946FCF7FEF9A2A3D3E919
:10410800002304460D461DEE100A4946FCF7F4F953
:1041180002460B4620462946FCF738F8C6E9000156
:10412800049E56E9024559EC1D8B1DEE102A4B469C
:1041380020462946FCF770FCC0B191A3D3E90023BF
:1041480020462946FCF7D8F98FA3D3E90023044673
:104158000D461DEE100A4946FCF7CEF902460B46FD
:1041680020462946FCF712F846E90201924E0696C7
:10417800D6E9004559EC1E8B1EEE102A4B46204608
:104188002946FCF72BFCC0B17DA3D3E900232046C8
:104198002946FCF7B1F97CA3D3E9002304460D4670
:1041A8001EEE100A4946FCF7A7F902460B462046C0
:1041B8002946FBF7EBFFC6E90001069E56E90245D2
:1041C80059EC1E8B1EEE102A4B4620462946FCF75A
:1041D80023FCC0B16AA3D3E9002320462946FCF793
:1041E8008BF969A3D3E9002304460D461EEE100A95
:1041F8004946FCF781F902460B4620462946FBF75B
:10420800C5FF46E902016D4E0C96D6E9004559EC0A
:10421800198B19EE102A4B4620462946FCF7DEFB7F
:10422800C0B15BA3D3E9002320462946FCF764F913
:1042380059A3D3E9002304460D4619EE100A49464E
:10424800FCF75AF902460B4620462946FBF79EFF23
:10425800C6E900010C9E56E9024559EC198B19EE86
:10426800102A4B4620462946FCF7D6FBC0B148A386
:10427800D3E9002320462946FCF73EF946A3D3E9B3
:10428800002304460D4619EE100A4946FCF734F996
:1042980002460B4620462946FBF778FF46E902010D
:1042A800474E0896D6E9004559EC1A8B1AEE102AA3
:1042B8004B4620462946FCF791FBC0B134A3D3E90D
:1042C800002320462946FCF717F933A3D3E9002336
:1042D80004460D461AEE100A4946FCF70DF9024647
:1042E8000B4620462946FBF751FFC6E90001089E08
:1042F80056E9024559EC1A8B1AEE102A4B4620460D
:104308002946FCF789FBC0B121A3D3E90023204645
:104318002946FCF7F1F820A3D3E9002304460D460B
:104328001AEE100A4946FCF7E7F802460B46204603
:104338002946FBF72BFF46E90201224E0A96D6E9E9
:10434800004559EC188B18EE102A4B462046294692
:10435800FCF744FB00283FD011A3D3E900232046F3
:104368002946FCF7C9F810A3D3E9002304460D46F3
:1043780018EE100A4946FCF7BFF825E0AFF30080B5
:104388009A9999999999E93F9A9999999999C93FC7
:10439800666666666666EE3F9A9999999999A93F05
:1043A800CDCCCCCCCCCCEC3F9A9999999999B93F82
:1043B800580B00207824002088240020C8240020DE
:1043C80098240020A824002002460B4620462946AF
:1043D800FBF7DCFEC6E900010A9E56E9024559ECE6
:1043E800188B18EE102A4B4620462946FCF714FB7A
:1043F800D0B10FF20C43D3E9002320462946FCF73D
:104408007BF80FF20443D3E9002304460D4618EE67
:10441800100A4946FCF770F802460B462046294622
:10442800FBF7B4FE46E90201DFF8E4B3DBE9004537
:1044380059EC1B8B1BEE102A4B4620462946FCF7ED
:10444800CDFAC0B1EEA3D3E9002320462946FCF7F4
:1044580053F8EDA3D3E9002304460D461BEE100ADA
:104468004946FCF749F802460B4620462946FBF721
:104478008DFECBE900015BE9024559EC1B8B1BEE75
:10448800102A4B4620462946FCF7C6FAC0B1DCA3E1
:10449800D3E9002320462946FCF72EF8DAA3D3E90E
:1044A800002304460D461BEE100A4946FCF724F883
:1044B80002460B4620462946FBF768FE4BE90201F7
:1044C800C34E0E96D6E9004559EC1F8B1FEE102AF5
:1044D8004B4620462946FCF781FAC0B1B8A3D3E978
:1044E800002320462946FCF707F8B7A3D3E90023A1
:1044F80004460D461FEE100A4946FBF7FDFF02462B
:104508000B4620462946FBF741FEC6E900010E9EF0
:1045180056E9024559EC1F8B1FEE102A4B462046E0
:104528002946FCF779FAC0B1A5A3D3E900232046B0
:104538002946FBF7E1FFA4A3D3E9002304460D466F
:104548001FEE100A4946FBF7D7FF02460B462046E6
:104558002946FBF71BFE46E902019E4ED6E9008973
:1045680053EC1C2B40464946FCF738FAC8B194A3D3
:10457800D3E9002340464946FBF7BEFF92A3D3E99F
:10458800002304460D4651EC1C0BFBF7B5FF024611
:104598000B4620462946FBF7F9FD80468946C6E9C1
:1045A800008956E9024553EC1C2B20462946FCF7A6
:1045B80033FAD8B182A3D3E9002320462946FBF772
:1045C8009BFF81A3D3E9002304460D4651EC1C0B45
:1045D800FBF792FF02460B4620462946FBF7D6FD1D
:1045E80004460D4646E90245D6E9008917ED027BE7
:1045F800B0EE478AF0EE678A97ED007BB0EE479AF7
:10460800F0EE679AFFF7B2BA9FED737A28E49FED50
:10461800728AFFF7DEBBDFED706A00240025B0EE7A
:10462800667A26462F46FFF7BEBBDFED6B8A00246D
:104638000025B0EE688A26462F46FFF787BB22463C
:10464800664929A807F0F2FC3946C4F10602644815
:1046580007F0BAFC634BC4F50660063029A9224668
:10466800184407F0E3FCFEF724BC5F4FF7E80401A9
:104678000022002347E90223C7E900235B4B0022FD
:10468800FCF7A2F900283FF442AA594A02920020F6
:104698000021CDE9000103975449703A0020FDF745
:1046A80013FBFFF734BA43E9120102460B46FEF743
:1046B8002CBDC8E9100102460B46FFF74FB843E985
:1046C800120102460B46FFF739B843E910010246CA
:1046D8000B46FFF722B843E9120102460B46FFF7E3
:1046E8000BB843E9100102460B46FEF7F3BF43E956
:1046F800120102460B46FEF7DBBF43E910010246F2
:104708000B46FEF7C4BF374B93F9642893F96258F8
:104718000692131E18BF01231803DB0280F480578A
:1047280083F40066FFF764B83246324E3B4656E9DA
:104738000201FBF729FD0022002380468946FCF789
:104748006BF910B94F2C40F246819AF8E437264F9E
:104758002649082262F304038AF8E4370020BB18CC
:104768000293A7F16802E7E804010024002500236A
:10477800AAF8F037CDE90045039747E90245C7E9AC
:104788000045FDF7A1FAFFF7C2B9052C40F28D816B
:104798009AF8E437174C102262F304038AF8E437D6
:1047A80000233946AAF8F0373046134B134F00223E
:1047B800FBF7EAFC44E90201FFF7A9B9AFF300806F
:1047C8009A9999999999E93F9A9999999999C93F83
:1047D800D8240020E82400200000000074C000084D
:1047E800380C0020D8030020E80B00200000F03F20
:1047F800F00B00202824002000805640F80B0020F1
:10480800CDCCCCCCCCCCEC3F9A9999999999B93F1D
:10481800B8240020052C40F248819AF8E437A84CC7
:104828000F2262F304038AF8E43700233946AAF812
:10483800F0373046A34BA44F0022FBF7A7FC44E90E
:104848000201FFF764B9052C40F22F819AF8E4378A
:104858009B4C0B2262F304038AF8E43700233946A1
:10486800AAF8F037984F994B002247E90223984B52
:104878000022C7E900233046964B0022FBF786FC4E
:1048880044E90201FFF743B9DFF834B25BE90245B6
:104898004FF0000822462B464FF0000930463946B3
:1048A800FBF772FC42464B46FCF798F8002800F0EC
:1048B8009982894B43E90289C3E90289C3E90489DA
:1048C8009AF8E4370C2249EC178B62F3040349EC9D
:1048D800198BB0EE478AF0EE678A8AF8E4377F4B87
:1048E800A3F170020492A3F160020692A3F12002E0
:1048F8000C92A3F150020892A3F140020A92A3F18C
:104908001002D3E9008953E90245A3F1300B0E9256
:10491800FFF72CB93246724E3B4656E90201FBF7C7
:1049280033FC0022002380468946FCF757F810B96B
:10493800632C40F2D8829AF8E437634F0A2262F374
:1049480004038AF8E4370023AAF8F037604B002202
:1049580047E90223C7E90023FFF7D9B8D5E900459D
:1049680000224FF0804320462946FCF72DF80646E2
:10497800002800F0A381524B0022D3E90001594BD3
:10498800FCF722F8002800F090809AF8E4374E4FA0
:10499800032262F304038AF8E4370023AAF8F03705
:1049A800514B002247E90223C7E90023FFF7AFB8BC
:1049B8003246434E3B4656E90201FBF7E5FB00222F
:1049C800002380468946FCF709F800287FF4BDAE2D
:1049D8008B2C3FF6BAAED6E90E2340464946FBF784
:1049E800D5FB33A3D3E9002304460D46FBF784FD2A
:1049F80002460B4620462946FBF7C6FBC6E90E01D0
:104A0800F6E90C2340464946FBF7BEFB374B00222C
:104A1800FBF772FD364B04460D46002240464946D8
:104A2800FBF76AFD02460B4620462946FBF7AEFB1C
:104A380004460D46C6E9008922462B46002000217F
:104A4800FBF7A2FB214B002280468946FBF7DAFFE1
:104A5800002800F09E811E4B404649460022FBF785
:104A6800DBFF002800F099819FED137B164F07EDBF
:104A7800027B164B002220462946FBF7AFFF002891
:104A880000F07681114B0022C7E90023FFF73FB8F9
:104A980012F0040240F054819AF8E437AAF8F0279B
:104AA800112262F304038AF8E437074FFFF72FB89F
:104AB8007B14AE47E17A743F0000000000005940C3
:104AC8002824002000805640F80B0020000059C020
:104AD8000000594000806640E80B0020E8240020D0
:104AE800382400200000F03F000049C000004E407C
:104AF8000000184053EC1F2B51EC1C0BFBF746FB36
:104B080053EC1E2BFBF742FB53EC1D2BFBF73EFB34
:104B1800DDE9062306460F46DDE90401FBF736FB0F
:104B2800DDE90A23FBF732FBDDE90823FBF72EFB5F
:104B3800AAA3D3E90023FBF7DFFC02460B46304665
:104B48003946FBF74BFF00283FF48FAD4F2C7FF61B
:104B58008CADDAF8DC27DAF8D837934200F0F08128
:104B68009AF8E4379048914C914F062262F3040377
:104B78000DF1A2018AF8E437FCF782FCBAF9D227D2
:104B8800BAF9DA37C5E90001BAF9D857BAF9D0172E
:104B980015441944A542BAF9D627BAF9D43747F6C5
:104BA800FF70B8BF2546A142B8BF21468542D4BF91
:104BB800C2EB0502C2EB00028142D4BFC3EB010382
:104BC800C3EB0003A242B8BF2246A342B8BF2346A4
:104BD8008242A8BF02468342A8BF03467549AAF885
:104BE800DA37754BAAF8D8270020C3E90001FEF789
:104BF8008EBF632C7FF659AF9AF8E4376F4C6C4F31
:104C0800052262F304038AF8E437002354E9020119
:104C1800AAF8F03700226A4BFBF7B8FA44E9020118
:104C2800FEF775BFB4F5C87FFFF43FAF9AF8E437D5
:104C38005F4F072262F304038AF8E4370023AAF8D7
:104C4800F037FEF764BFC72C7FF62FAF88E79AF8D6
:104C5800E437574F0C2262F304038AF8E437002242
:104C6800002347E90223C7E90023FEF750BFC72CFA
:104C78007FF61BAF9AF8E4374F4C042262F3040323
:104C880039468AF8E43730464E4B494F0022FBF745
:104C98007BFA44E90201FEF73ABF3246464E3B46EC
:104CA80056E90201FBF770FA002200238046894684
:104CB800FBF794FE00283FF445AD46E5424B002241
:104CC80020462946FBF780FE0746F8B13A4B0022FA
:104CD800D3E90001374BFBF777FE00283FF4E5AE38
:104CE8009AF8E437324FAAF8F067022262F3040315
:104CF8008AF8E437354B002247E90223C7E9002345
:104D0800FEF705BFA046A946FDF76ABA294B00225F
:104D180020462946FBF758FE002800F0FD80264B68
:104D28000022D3E90001234BFBF74EFE00283FF495
:104D3800BCAEAAF8F0779AF8E4371D4F0122D5E700
:104D48004B067FF573AF224A002013460021E3E8A3
:104D5800040113ED027BB0EE478AF0EE678A93ED0B
:104D6800007B42E90201B0EE479AF0EE679AB6E599
:104D7800C7E90045174B204629460022FBF74CFEA1
:104D880000283EF4C4AE134B0022C7E90023FEF707
:104D9800BEBEDFF844904FF00008054F47E902898E
:104DA80067E600BFAFF30080800B00200080FFFFA4
:104DB800F80B00200000F03F2824002038240020B1
:104DC80000805640008086400000F0BF000049C0C7
:104DD800E80B002000005940000059C0333333333A
:104DE8003333E33F3B46CDF810B0694FDFF8C0B12D
:104DF800324600264BE9026720462946FBF7C4F9EC
:104E0800644B53E9022304460D46FBF7BFF95EA342
:104E1800D3E9002306460F46FBF76EFB02460B4616
:104E280030463946FBF7B0F95A4B43E90201049979
:104E3800F1E90C23204604912946FBF7A5F9564BC6
:104E48000022FBF759FB554B06460F460022204629
:104E58002946FBF751FB02460B4630463946FBF71D
:104E680095F9049BC3E9004504460D46404649466A
:104E780022462B46FBF788F9494B00228046894693
:104E8800FBF7C0FD38B3474F002640464946324637
:104E98003B46FBF7C1FD10B3CBE902670BF11007E6
:104EA800DFF8FC904FF000082046294642464B4662
:104EB800FBF794FD58B9DFF8EC904FF00008204656
:104EC800294642464B46FBF7A7FD002855D0C7E9BF
:104ED8000089FFF7FEB8DFF8C8904FF00008324F9E
:104EE80047E90289DCE72B4F404657E90223494648
:104EF800FBF74CF924A3D3E9002304460D46FBF73E
:104F0800FBFA02460B4620462946FBF73DF9F6E92F
:104F1800082347E9020175E52046294600220023B7
:104F2800FBF752FD00283FF4C0AD204B0022D3E927
:104F38000001174BFBF748FD00283FF4B6AD04E429
:104F48009AF8E427184F0E2161F304028AF8E4273F
:104F5800DAF8E027CAF8DC27BAF8E227CAF8E03717
:104F68000023ADF8A220AAF8F0370022002347E971
:104F78000223C7E90023FEF7CABDC7E90045FFF7CA
:104F8800A8B800BFAFF300807B14AE47E17A743F46
:104F98000000F03F6824002000004E400000184048
:104FA800000059C000005940F80B002028240020B8
:104FB800E80B0020000000002DE9F04FA24AA34BA7
:104FC8002DED048BD2E9266703F59C6453E9028929
:104FD80083B0D4E9000132463B46FBF7F5FC08B93B
:104FE800C4E900679A4C9B49C822204607F01EF87E
:104FF800A4F56B65C4E9328996490095C02204F18D
:10500800D00007F013F8C822A118924807F00EF84C
:10501800D4E900AB04F108052C46D046D946F4E89B
:1050280002674046494632463B46FBF7D7FC08B183
:10503800B046B946884B9C42F1D149EC108B06F03A
:10504800DFFD9FED7F1B06F0A5FD57EC106B10EE02
:10505800100A002200233946FBF7C0FC002840F064
:10506800CE8030463946FBF71FFD83B20193764B5D
:105078007A4CD3E91E67A4F5B07393ED008BD4E99D
:10508800000132463B46FBF79FFC08B9C4E90067BC
:10509800734E009B7349C822304603F6381806F051
:1050A800C5FF86ED328B6F4906F1D000C02206F0AD
:1050B800BDFF344606F1C8016A48C82206F0B6FFAB
:1050C800B4EC027B57EC176BB0EE478AF0EE678AB8
:1050D8004BEC19ABA146A3460095F9E802453046CA
:1050E800394622462B46FBF779FC08B126462F465F
:1050F800C145F2D147EC106B06F082FD9FED501BC5
:10510800009D06F047FD57EC106B10EE100A0022C8
:10511800002339465C465BEC19ABFBF75FFC0028C3
:1051280040F0868030463946FBF7BEFC80B2DFF897
:105138003891019B00954BEC19ABC346A04655EC42
:10514800184BA9F8EA07A9F8E837F8E802672046F3
:10515800294632463B46FBF75FFC08B134463D46DC
:10516800D845F2D145EC104B06F04AFD9FED341BB3
:10517800009D06F00FFD57EC106B10EE100A002290
:10518800002339465BEC19ABFBF728FC002847D114
:1051980030463946FBF788FC84B2F5E80267524688
:1051A8005B4630463946FBF719FC08B1B246BB46A8
:1051B800294BAB42F1D14BEC10AB06F021FD9FED32
:1051C800201B06F0E7FC57EC106B10EE100A0022CB
:1051D80000233946FBF702FCD0B930463946FBF7C5
:1051E80063FC80B2A9F8EE47A9F8EC0700F0ECFBE5
:1051F80003B0BDEC048BBDE8F04F00F0CDBC3046E9
:1052080007F10041FBF750FC404283B201932EE7BF
:10521800304607F10041FBF747FC404280B2E1E726
:10522800304607F10041FBF73FFC404284B2B4E747
:10523800304607F10041FBF737FC404280B276E781
:10524800000000000000F04000000020C8230020FB
:1052580088120020B02800205013002028250020A4
:10526800480C002030250020281D002000000000E8
:105278002DE9F04FB24DB348B5F86E70B5F87060CF
:10528800B5F872400782002167F30F0167F31F41E9
:105298000022C0E90011C0E9021166F30F02AA4911
:1052A800AA480E8266F31F420023C1E90022C1E921
:1052B800022264F30F03A649B5F874600C8264F304
:1052C8001F43A7B0C1E90033C1E90233082295F8AA
:1052D8007610A04C06F078FE00239F4AA96D9F48DF
:1052E80066F30F0366F31F43C2E90033C2E90233D2
:1052F8009B4B2E6D1960596099609A4BEA6D266038
:10530800994C1A60D5E908675A609A606B6D03601A
:1053180004F5D86343E90267D5E90A67C3E900677A
:10532800D5E90C6704F5DA6343E90267D5E90E6746
:10533800C3E90067D5E9106704F5DC6343E9026750
:10534800D5E91267C3E90067D5E9042304F5D661F6
:1053580041E90223D5E906230126C1E9002300F02B
:10536800D5FB0822C4F844660092B5F86200A4F898
:10537800E807B5F86400A4F8EA07B5F86800A4F8E7
:10538800EC07B5F86A00A4F8EE07002084F8400698
:1053980084F848060920754F0390ADF8100074484A
:1053A8008DF812609FED647BCDE9077004F5CA6043
:1053B800042304F5F46E04F5F66C04F5F267069020
:1053C80004F5EA6B4FF4007004F5EC6A04F5EE6935
:1053D80004F5F0681946324607ED027B87ED0A7B33
:1053E8000BED027B0AED027B09ED027B08ED027BE7
:1053F8000EED027B0CED027BADF8240003A8FBF751
:1054080063FE0221C4F84C06FBF790FFD4F84C0663
:10541800FBF7C8FE3146D4F84C06FBF737FED5E952
:105428002E2304F57161C1E9002341E9022304F543
:105438007261C1E9002341E9022304F57361C1E9FE
:10544800002341E9022304F57461C1E9002341E91D
:10545800022304F57561C1E9002341E9022304F53B
:105468007061C1E9002301F5DC73D5E9340107F562
:10547800126704F58052C7E9000184F8486684F889
:10548800586FC4F8F86E82F88061C2F8A86004F515
:105498008C56E3E802019E42FBD10123D5E928019D
:1054A80084F8303DC4F8583C324B03F1D006E3E8A9
:1054B8000201E3E80201B342FBD10123D5E924014B
:1054C80084F8703BC4F8983A2B4B03F1D006E3E814
:1054D8000201E3E802019E42FBD10123D5E9220142
:1054E80084F8903AC4F8B839244B03F1D006E3E8BD
:1054F8000201E3E802019E42FBD10123D5E9200124
:1055080084F8B039C4F8D8381D4B03F1D006E3E865
:105518000201E3E80201B342FBD11A4FD5E9300199
:105528003E46E6E8040147E9020146E90201C6E908
:105538000001C7E9120127E0000000000000084050
:10554800000000207C03002090030020B803002006
:10555800A4030020CC2E0020B82E0020C82E002046
:10556800C0030020CC030020281D002000010450A7
:105578000000024088290020C8270020E8260020D3
:1055880008260020982C0020C7E90601C7E9080171
:10559800C7E90A01C7E90C01C7E90E01C7E910010B
:1055A800D5E93201C7E91801012382F8A03007F1D3
:1055B800200807F1300E07F1400C84F8C03FC4F80A
:1055C800603FC4F8C83F07F5987207F16803E3E83D
:1055D80002019342FBD10123D5E92C0184F8F03E66
:1055E800C4F8183E5E4B03F1D002E3E80201E3E899
:1055F80002019342FBD10123D5E92A0184F8103E28
:10560800C4F8383D574B03F1D002E3E80201E3E860
:1056180002019A42FBD101230026C4F8883603A868
:10562800514B039384F8846684F88C66ADF8106057
:10563800FBF7BAFC3146C4F89006FBF7EBFAD4F84E
:1056480090060221FBF748FC0221D4F89006FBF7EC
:105658009BFCD4F89036454A1B6899680A40062A8C
:105668004CD10123002684F88C36C4F8783603A878
:105678003D4B039384F8746684F87C66ADF810603B
:10568800FBF792FC3146C4F88006FBF7C3FAD4F85E
:1056980080060221FBF770FB0221D4F88006FBF795
:1056A800C3FBD4F88036314A1B6899680A40062A39
:1056B80038D12F4AD5E92601012384F87C3684F8AD
:1056C800503CC4F8783B1346E3E80201D032E3E8E3
:1056D80002019342FBD1D5E91E01264A1346E3E8AD
:1056E8000201012584F8D058C4F8F857D032E3E80D
:1056F80002019A42FBD127B0BDE8F08F1A68510722
:1057080024D41A6842F004021A605A6942F001026D
:105718005A611A6822F004021A601A6842F00102FB
:105728001A609EE71A68520715D41A6842F00402F4
:105738001A605A6942F001025A611A6822F004029A
:105748001A601A6842F001021A60B2E75A6942F018
:1057580001025A61E1E75A6942F001025A61F0E731
:10576800482B0020682A00200004004007000100A0
:10577800A82800202825002010B52D4C94F8403684
:1057880033B9D4F8442601239A4284F840362DD000
:1057980094F8841631B9D4F888360122934284F8F3
:1057A80084262DD094F8741631B9D4F878360122AD
:1057B800934284F8742600D010BD94F87C36002BF0
:1057C800FAD0D4F880060268136823F00103136046
:1057D800FBF77AFAD4F880060221FBF7F9FAD4F835
:1057E80080060221BDE81040FBF74ABB94F8483612
:1057F800002BCDD0D4F84C060421FBF739FDC7E7C0
:1058080094F88C36002BCDD0D4F890060268136833
:1058180023F001031360FBF757FAD4F8900602212E
:10582800FBF786FBD4F890060221FBF7B5FBB9E736
:10583800281D002038B5044672B60C4D00F09CFBBC
:105848002B68B3F5C87F0FD00949024603F5C87025
:1058580041F8234041F82020064803F548720068C3
:1058680041F8220001332B6062B638BDA041002008
:10587800E02E0020D42E002030B5214C23785A1C6D
:1058880083B022702BB11F4A23700121116003B02D
:1058980030BD01A8FCF76AFB62B6022006F074F975
:1058A800FCF76EFB022006F071F972B62378164DEC
:1058B8009DF80520013B23706B78C2B15A1C6A70B1
:1058C800CBB96378002BE2D10123637062B6032061
:1058D80006F05AF9FFF770FB032006F057F972B685
:1058E8006A786378013A013B6A706370CFE7002BEE
:1058F800E7D103B030BD034A6B7001211160C6E7E0
:10590800D82E0020D02E0020DC2E0020F8B52A4CFE
:105918002A4D002727702F7001DF03F00DFD00F0DE
:1059280017FC00F077FC00F09FFC01F0B1F800F0E4
:1059380095FD01F051F901F0D9F801F0FFF900F0F7
:105948000DFF01F01DFB01F053FA1D4B1E680120ED
:10595800376006F019F9FFF78BFC012006F016F9FD
:1059680072B69FED180A00F04BFB3368B3FA83F365
:105978005B092B7062B662B64FF0E02206E033682E
:10598800003B18BF0123237023787BB92B7803F0E1
:10599800FF07002BF3D1042006F0F6F8FFF7ECFE22
:1059A800042006F0F3F872B63846F8BD136923F000
:1059B80001031361EAE700BFA5410020A4410020CC
:1059C80070C000080AD7A33B2DE9F0412DED028BEA
:1059D800494CDFED4A8ADFF82C819FED498A86B071
:1059E8004FF0FF37022605ADCDE901670123009589
:1059F8003B22D321204604F055F9BDF81430029714
:105A0800DBBA03EB83035B0007EE903AF8EEE77A24
:105A1800CDE9005667EEA87A0123C8ED007A3D2249
:105A2800D321204604F03EF9BDF814300095DBBAC6
:105A380003EB83035B0007EE903AF8EEE77ACDE9D3
:105A4800016767EEA87A0123C8ED017A3F22D321C6
:105A5800204604F027F9BDF814300095DBBA03EBB3
:105A680083035B0007EE903AF8EEE77ACDE9016729
:105A780067EEA87A0123C8ED027A4322D321204693
:105A880004F010F9BDF81430DFF87C800297DBBA17
:105A980007EE903AF8EEE77ACDE9005687EE887A75
:105AA80001234522D321204688ED007A04F0FAF834
:105AB8002046BDF814400095E4BA07EE904AF8EE87
:105AC800E77ACDE9016787EE887A01234722D32157
