:020000040800F2
:1000000000800120612D0108C3B40008C9B40008B4
:10001000CFB40008D5B40008DBB40008000000002D
:100020000000000000000000000000000988000837
:10003000E1B4000800000000C5870008F58600084C
:10004000B12D0108B12D0108B12D0108B12D010814
:10005000B12D0108B12D0108B12D0108B12D010804
:10006000B12D0108B12D0108B12D0108EFB4000830
:1000700079200008B12D0108B12D0108B12D01082A
:10008000FDB400080BB5000819B50008B12D010832
:10009000B12D0108B12D0108B12D0108B12D0108C4
:1000A000B12D010829B50008B12D0108B12D0108B5
:1000B000B12D0108B12D0108B12D0108B12D0108A4
:1000C000B12D0108B12D0108B12D0108B12D010894
:1000D000B12D0108B12D0108B12D0108B12D010884
:1000E000B12D0108B12D0108B12D0108B12D010874
:1000F000B12D0108B12D0108B12D0108B12D010864
:10010000B12D0108B12D0108B12D0108B12D010853
:10011000B12D0108B12D0108B12D0108B12D010843
:10012000B12D0108B12D0108B12D0108B12D010833
:10013000B12D0108B12D0108B12D0108B12D010823
:10014000B12D0108B12D0108B12D01083DB5000800
:10015000B12D0108B12D0108B12D0108B12D010803
:10016000B12D0108B12D0108B12D0108B12D0108F3
:10017000B12D0108B12D0108B12D010800000000CA
:08018000B12D0108B12D0108A9
:1001880081F0004102E000BF83F0004330B54FEA40
:1001980041044FEA430594EA050F08BF90EA020FAD
:1001A8001FBF54EA000C55EA020C7FEA645C7FEA40
:1001B800655C00F0E2804FEA5454D4EB5555B8BF63
:1001C8006D420CDD2C4480EA020281EA030382EAD4
:1001D800000083EA010180EA020281EA0303362D66
:1001E80088BF30BD11F0004F4FEA01314FF4801C39
:1001F8004CEA113102D0404261EB410113F0004F4B
:100208004FEA03334CEA133302D0524263EB430301
:1002180094EA050F00F0A780A4F10104D5F1200E9F
:100228000DDB02FA0EFC22FA05F2801841F10001FA
:1002380003FA0EF2801843FA05F359410EE0A5F1CE
:1002480020050EF1200E012A03FA0EFC28BF4CF0FF
:10025800020C43FA05F3C01851EBE37101F00045B5
:1002680007D54FF0000EDCF1000C7EEB00006EEBC2
:100278000101B1F5801F1BD3B1F5001F0CD349084C
:100288005FEA30004FEA3C0C04F101044FEA4452A3
:1002980012F5800F80F09A80BCF1004F08BF5FEA2A
:1002A800500C50F1000041EB045141EA050130BD0A
:1002B8005FEA4C0C404141EB0101013C28BFB1F51C
:1002C800801FE9D291F0000F04BF01460020B1FA67
:1002D80081F308BF2033A3F10B03B3F120020CDA3A
:1002E8000C3208DD02F1140CC2F10C0201FA0CF018
:1002F80021FA02F10CE002F11402D8BFC2F1200C7D
:1003080001FA02F120FA0CFCDCBF41EA0C01904032
:10031800E41AA2BF01EB0451294330BD6FEA04047B
:100328001F3C1CDA0C340EDC04F11404C4F1200266
:1003380020FA04F001FA02F340EA030021FA04F378
:1003480045EA030130BDC4F10C04C4F1200220FACF
:1003580002F001FA04F340EA0300294630BD21FA0D
:1003680004F0294630BD94F0000F83F4801306BFD3
:1003780081F480110134013D4EE77FEA645C18BFC7
:100388007FEA655C29D094EA050F08BF90EA020F5E
:1003980005D054EA000C04BF1946104630BD91EA56
:1003A800030F1EBF0021002030BD5FEA545C05D159
:1003B8004000494128BF41F0004130BD14F5800498
:1003C8003CBF01F5801130BD01F0004545F0FE410C
:1003D80041F470014FF0000030BD7FEA645C1ABF41
:1003E800194610467FEA655C1CBF0B46024650EA78
:1003F800013406BF52EA033591EA030F41F40021A4
:1004080030BD00BF90F0000F04BF0021704730B529
:100418004FF4806404F132044FF000054FF00001FE
:1004280050E700BF90F0000F04BF0021704730B5BF
:100438004FF4806404F1320410F0004548BF404294
:100448004FF000013EE700BF42004FEAE2014FEAE9
:1004580031014FEA02701FBF12F07F4393F07F4FC4
:1004680081F06051704732F07F4208BF704793F0C7
:100478007F4F04BF41F40021704730B54FF46074DA
:1004880001F0004521F000411CE700BF50EA0102DD
:1004980008BF704730B54FF000050AE050EA010286
:1004A80008BF704730B511F0004502D5404261EBF6
:1004B80041014FF4806404F132045FEA915C3FF437
:1004C800D8AE4FF003025FEADC0C18BF03325FEAD4
:1004D800DC0C18BF033202EBDC02C2F1200300FA85
:1004E80003FC20FA02F001FA03FE40EA0E0021FAAA
:1004F80002F11444BDE600BF70B54FF0FF0C4CF498
:10050800E06C1CEA11541DBF1CEA135594EA0C0F49
:1005180095EA0C0F00F0DEF82C4481EA030621EA84
:100528004C5123EA4C5350EA013518BF52EA0335BF
:1005380041F4801143F4801338D0A0FB02CE4FF071
:100548000005E1FB02E506F00042E0FB03E54FF0A1
:100558000006E1FB03569CF0000F18BF4EF0010E99
:10056800A4F1FF04B6F5007F64F5407404D25FEA95
:100578004E0E6D4146EB060642EAC62141EA555148
:100588004FEAC52040EA5E504FEACE2EB4F1FD0C8A
:1005980088BFBCF5E06F1ED8BEF1004F08BF5FEA08
:1005A800500E50F1000041EB045170BD06F00046BA
:1005B80046EA010140EA020081EA0301B4EB5C0467
:1005C800C2BFD4EB0C0541EA045170BD41F480115F
:1005D8004FF0000E013C00F3AB8014F1360FDEBF84
:1005E800002001F0004170BDC4F10004203C35DA60
:1005F8000C341BDC04F11404C4F1200500FA05F3E3
:1006080020FA04F001FA05F240EA020001F0004283
:1006180021F0004110EBD37021FA04F642EB0601F9
:100628005EEA430E08BF20EAD37070BDC4F10C0423
:10063800C4F1200500FA04F320FA05F001FA04F2E7
:1006480040EA020001F0004110EBD37041F10001D3
:100658005EEA430E08BF20EAD37070BDC4F12005DE
:1006680000FA05F24EEA020E20FA04F301FA05F246
:1006780043EA020321FA04F001F0004121FA04F2EE
:1006880020EA020000EBD3705EEA430E08BF20EABE
:10069800D37070BD94F0000F0FD101F000464000F8
:1006A80041EB010111F4801F08BF013CF7D041EA7A
:1006B800060195F0000F18BF704703F0004652007E
:1006C80043EB030313F4801F08BF013DF7D043EA4F
:1006D8000603704794EA0C0F0CEA135518BF95EA05
:1006E8000C0F0CD050EA410618BF52EA4306D1D18C
:1006F80081EA030101F000414FF0000070BD50EAAB
:10070800410606BF1046194652EA430619D094EA34
:100718000C0F02D150EA013613D195EA0C0F05D11E
:1007280052EA03361CBF104619460AD181EA030172
:1007380001F0004141F0FE4141F470014FF000002A
:1007480070BD41F0FE4141F4780170BD70B54FF0C5
:10075800FF0C4CF4E06C1CEA11541DBF1CEA135545
:1007680094EA0C0F95EA0C0F00F0A7F8A4EB050427
:1007780081EA030E52EA03354FEA013100F088801E
:100788004FEA03334FF0805545EA131343EA1263E7
:100798004FEA022245EA111545EA10654FEA00269C
:1007A8000EF000419D4208BF964244F1FD0404F555
:1007B800407402D25B084FEA3202B61A65EB0305B1
:1007C8005B084FEA32024FF480104FF4002CB6EB6E
:1007D800020E75EB030E22BFB61A754640EA0C00EE
:1007E8005B084FEA3202B6EB020E75EB030E22BF2E
:1007F800B61A754640EA5C005B084FEA3202B6EB6F
:10080800020E75EB030E22BFB61A754640EA9C002D
:100818005B084FEA3202B6EB020E75EB030E22BFFD
:10082800B61A754640EADC0055EA060E18D04FEABB
:10083800051545EA16754FEA06164FEAC30343EA5B
:1008480052734FEAC2025FEA1C1CC0D111F4801F28
:100858000BD141EA00014FF000004FF0004CB6E721
:1008680011F4801F04BF01430020B4F1FD0C88BFC0
:10087800BCF5E06F3FF6AFAEB5EB030C04BFB6EBCB
:10088800020C5FEA500C50F1000041EB045170BDBE
:100898000EF0004E4EEA113114EB5C04C2BFD4EBEB
:1008A8000C0541EA045170BD41F480114FF0000E6F
:1008B800013C90E645EA060E8DE60CEA135594EAEB
:1008C8000C0F08BF95EA0C0F3FF43BAF94EA0C0FEE
:1008D8000AD150EA01347FF434AF95EA0C0F7FF463
:1008E80025AF104619462CE795EA0C0F06D152EAB7
:1008F80003353FF4FDAE1046194622E750EA41069B
:1009080018BF52EA43067FF4C5AE50EA41047FF4AB
:100918000DAF52EA43057FF4EBAE12E74FF0FF3C10
:1009280006E000BF4FF0010C02E000BF4FF0010CE1
:100938004DF804CD4FEA410C7FEA6C5C4FEA430C5A
:1009480018BF7FEA6C5C1BD001B050EA410C0CBFA9
:1009580052EA430C91EA030F02BF90EA020F00200B
:10096800704710F1000F91EA030F58BF994208BF72
:1009780090422CBFD8176FEAE37040F0010070472F
:100988004FEA410C7FEA6C5C02D150EA013C07D186
:100998004FEA430C7FEA6C5CD6D152EA033CD3D0D1
:1009A8005DF8040B704700BF8446104662468C46CB
:1009B8001946634600E000BF01B5FFF7B7FF0028FE
:1009C80048BF10F1000F01BD4DF808EDFFF7F4FF27
:1009D8000CBF012000205DF808FB00BF4DF808EDB2
:1009E800FFF7EAFF34BF012000205DF808FB00BFD5
:1009F8004DF808EDFFF7E0FF94BF012000205DF8F7
:100A080008FB00BF4DF808EDFFF7CEFF94BF0120AB
:100A180000205DF808FB00BF4DF808EDFFF7C4FFA4
:100A280034BF012000205DF808FB00BF4FEA410CED
:100A38007FEA6C5C02D150EA013C0AD14FEA430CD0
:100A48007FEA6C5C02D152EA033C02D14FF000000D
:100A580070474FF0010070474FEA410212F500124B
:100A680015D211D56FF47873B3EB625212D94FEAED
:100A7800C12343F0004343EA505311F0004F23FAD7
:100A880002F018BF404270474FF00000704750EA2C
:100A9800013005D111F0004008BF6FF000407047E9
:100AA8004FF00000704700BF4A0011D212F5001243
:100AB80011D20DD56FF47873B3EB62520ED44FEAAE
:100AC800C12343F0004343EA505323FA02F070472E
:100AD8004FF00000704750EA013002D14FF0FF306C
:100AE80070474FF0000070474FEA4102B2F1E0430F
:100AF80024BFB3F5001CDCF1FE5C0DD901F0004CFD
:100B08004FEAC0024CEA5070B2F1004F40EB83004C
:100B180008BF20F00100704711F0804F21D113F178
:100B28003872BCBF01F00040704741F480114FEAB1
:100B38005252C2F11802C2F1200C10FA0CF320FA3A
:100B480002F018BF40F001004FEAC1234FEAD32357
:100B580003FA0CFC40EA0C0023FA02F34FEA4303C1
:100B6800CCE77FEA625307D150EA01331EBF4FF04A
:100B7800FE4040F44000704701F0004040F0FE4065
:100B880040F40000704700BF0348044B834202D082
:100B9800034B03B118477047B8020020B802002081
:100BA800000000000548064B1B1AD90F01EBA301F2
:100BB800491002D0034B03B118477047B802002010
:100BC800B80200200000000010B5064C237843B995
:100BD800FFF7DAFF044B13B10448AFF30080012399
:100BE800237010BDB8020020000000008432010804
:100BF80008B5054B1BB105490548AFF30080BDE8B2
:100C08000840FFF7CFBF00BF00000000BC02002073
:100C18008432010880B485B000AF78607B681B68B7
:100C280003F06003FB60FB68002B04D17B681B6842
:100C380003F01003FB60FB6818461437BD465DF8E7
:100C4800047B704780B483B000AF78607B681B6B0F
:100C580018460C37BD465DF8047B704780B483B0F6
:100C680000AF786039607B681A6A3B681A437B6812
:100C78001A6200BF0C37BD465DF8047B704780B42C
:100C880083B000AF786039607B681A6A3B68DB43E1
:100C98001A407B681A6200BF0C37BD465DF8047BBA
:100CA800704780B483B000AF78607B685B6C43F4B6
:100CB80000427B685A6400BF0C37BD465DF8047B70
:100CC800704780B483B000AF78607B68DB6843F01E
:100CD80001027B68DA6000BF0C37BD465DF8047B13
:100CE800704780B483B000AF78607B68DB6823F01E
:100CF80001027B68DA6000BF0C37BD465DF8047BF3
:100D0800704780B483B000AF78607B68DB6803F01D
:100D18000103012B01D1012300E0002318460C3701
:100D2800BD465DF8047B704780B483B000AF78603F
:100D38007B68DB6843F002027B68DA6000BF0C372F
:100D4800BD465DF8047B704780B483B000AF78601F
:100D58007B68DB6823F002027B68DA6000BF0C372F
:100D6800BD465DF8047B704780B483B000AF7860FF
:100D78007B68DB6803F00203022B01D1012300E04A
:100D8800002318460C37BD465DF8047B704780B4D5
:100D980083B000AF78607B68DB6843F004027B684F
:100DA800DA6000BF0C37BD465DF8047B704780B43D
:100DB80083B000AF78607B68DB6823F004027B684F
:100DC800DA6000BF0C37BD465DF8047B704780B41D
:100DD80083B000AF78607B68DB6803F00403042B02
:100DE80001D1012300E0002318460C37BD465DF809
:100DF800047B704780B483B000AF78607B68DB68A1
:100E080043F008027B68DA6000BF0C37BD465DF826
:100E1800047B704780B483B000AF78607B68DB6880
:100E280023F008027B68DA6000BF0C37BD465DF826
:100E3800047B704780B483B000AF78607B68DB6860
:100E480003F00803082B01D1012300E00023184612
:100E58000C37BD465DF8047B704780B483B000AFA3
:100E680078607B68DB6843F010027B68DA6000BF5B
:100E78000C37BD465DF8047B704780B483B000AF83
:100E880078607B68DB6823F010027B68DA6000BF5B
:100E98000C37BD465DF8047B704780B483B000AF63
:100EA80078607B68DB6803F01003102B01D1012305
:100EB80000E0002318460C37BD465DF8047B7047F8
:100EC80080B483B000AF78607B68DB6843F02002B1
:100ED8007B68DA6000BF0C37BD465DF8047B70475D
:100EE80080B483B000AF78607B68DB6823F02002B1
:100EF8007B68DA6000BF0C37BD465DF8047B70473D
:100F080080B483B000AF78607B68DB6803F02003AF
:100F1800202B01D1012300E0002318460C37BD46E1
:100F28005DF8047B704780B483B000AF78607B685D
:100F3800DB6843F040027B68DA6000BF0C37BD46CF
:100F48005DF8047B704780B483B000AF78607B683D
:100F5800DB6823F040027B68DA6000BF0C37BD46CF
:100F68005DF8047B704780B483B000AF78607B681D
:100F7800DB6803F04003402B01D1012300E000238C
:100F880018460C37BD465DF8047B704780B483B0C3
:100F980000AF78607B68DB6843F080027B68DA60CA
:100FA80000BF0C37BD465DF8047B704780B483B042
:100FB80000AF78607B68DB6823F080027B68DA60CA
:100FC80000BF0C37BD465DF8047B704780B483B022
:100FD80000AF78607B68DB6803F08003802B01D169
:100FE800012300E0002318460C37BD465DF8047B5A
:100FF800704780B582B000AF78600B467B807B88F5
:1010080003F00103002B0CD07B681B681846FFF720
:10101800AAFF0346012B04D07B681B681846FFF71C
:1010280082FF7B8803F00203002B0CD07B681B68CF
:101038001846FFF799FE0346012B04D07B681B680E
:101048001846FFF771FE7B8803F00403002B0CD0D1
:101058007B681B681846FFF7BAFE0346012B04D0CD
:101068007B681B681846FFF792FE7B8803F008032D
:10107800002B0CD07B681B681846FFF7DBFE034685
:10108800012B04D07B681B681846FFF7B3FE7B88EA
:1010980003F01003002B0CD07B681B681846FFF781
:1010A800FCFE0346012B04D07B681B681846FFF73B
:1010B800D4FE7B8803F02003002B0CD07B681B68D0
:1010C8001846FFF71EFE0346012B04D07B681B68F9
:1010D8001846FFF7F6FD7B8803F04003002B0CD081
:1010E8007B681B681846FFF771FF0346012B04D085
:1010F8007B681B681846FFF749FF7B8803F080036D
:10110800002B0CD07B681B681846FFF7F9FE0346D6
:10111800012B04D07B681B681846FFF7D1FE00BF7F
:101128000837BD4680BD80B582B000AF78600B46F9
:101138007B807B8803F00103002B0CD07B681B6845
:101148001846FFF710FF0346012B04D17B681B6884
:101158001846FFF7F8FE7B8803F00203002B0CD03B
:101168007B681B681846FFF7FFFD0346012B04D177
:101178007B681B681846FFF7E7FD7B8803F00403CC
:10118800002B0CD07B681B681846FFF720FE03462F
:10119800012B04D17B681B681846FFF708FE7B8883
:1011A80003F00803002B0CD07B681B681846FFF778
:1011B80041FE0346012B04D17B681B681846FFF7E4
:1011C80029FE7B8803F01003002B0CD07B681B687A
:1011D8001846FFF762FE0346012B04D17B681B68A3
:1011E8001846FFF74AFE7B8803F02003002B0CD03B
:1011F8007B681B681846FFF784FD0346012B04D063
:101208007B681B681846FFF76CFD7B8803F040037A
:10121800002B0CD07B681B681846FFF7D7FE0346E7
:10122800012B04D17B681B681846FFF7BFFE7B883B
:1012380003F08003002B0CD07B681B681846FFF76F
:101248005FFE0346012B04D17B681B681846FFF735
:1012580047FE00BF0837BD4680BD000080B582B09C
:1012680000AF78600B46FB70FB78022B06D17B68D9
:101278001B6801211846FFF7F1FC31E07B681B6809
:10128800194A934213D07B681B68184A93420ED0C0
:101298007B681B68164A934209D07B681B68154A0D
:1012A800934204D07B681B68134A934218D1FB7899
:1012B800032B06D17B681B6804211846FFF7CEFC78
:1012C8000EE0FB78042B0BD17B681B6801211846C4
:1012D800FFF7C4FC7B681B6804211846FFF7BEFCB7
:1012E80000BF0837BD4680BD002C014000340140D6
:1012F80000400140004401400048014080B582B0F0
:1013080000AF78600B46FB70FB78022B06D17B6838
:101318001B6801211846FFF7B2FC31E07B681B68A7
:10132800194A934213D07B681B68184A93420ED01F
:101338007B681B68164A934209D07B681B68154A6C
:10134800934204D07B681B68134A934218D1FB78F8
:10135800032B06D17B681B6804211846FFF78FFC16
:101368000EE0FB78042B0BD17B681B680121184623
:10137800FFF785FC7B681B6804211846FFF77FFC94
:1013880000BF0837BD4680BD002C01400034014035
:1013980000400140004401400048014080B582B04F
:1013A80000AF78600B46FB70FB78022B06D17B6898
:1013B8001B6810211846FFF751FC31E07B681B6859
:1013C800194A934213D07B681B68184A93420ED07F
:1013D8007B681B68164A934209D07B681B68154ACC
:1013E800934204D07B681B68134A934218D1FB7858
:1013F800032B06D17B681B6840211846FFF72EFC9B
:101408000EE0FB78042B0BD17B681B681021184673
:10141800FFF724FC7B681B6840211846FFF71EFC79
:1014280000BF0837BD4680BD002C01400034014094
:1014380000400140004401400048014080B582B0AE
:1014480000AF78600B46FB70FB78022B06D17B68F7
:101458001B6810211846FFF712FC31E07B681B68F7
:10146800194A934213D07B681B68184A93420ED0DE
:101478007B681B68164A934209D07B681B68154A2B
:10148800934204D07B681B68134A934218D1FB78B7
:10149800032B06D17B681B6840211846FFF7EFFB3A
:1014A8000EE0FB78042B0BD17B681B6810211846D3
:1014B800FFF7E5FB7B681B6840211846FFF7DFFB59
:1014C80000BF0837BD4680BD002C014000340140F4
:1014D80000400140004401400048014080B582B00E
:1014E80000AF78600B46FB70FB78022B07D17B6856
:1014F8001B684FF480711846FFF7B0FB34E07B6837
:101508001B681B4A934213D07B681B68194A934295
:101518000ED07B681B68184A934209D07B681B6809
:10152800164A934204D07B681B68154A93421BD124
:10153800FB78032B07D17B681B684FF48061184642
:10154800FFF78CFB10E0FB78042B0DD17B681B6840
:101558004FF480711846FFF781FB7B681B684FF4D6
:1015680080611846FFF77AFB00BF0837BD4680BD8B
:10157800002C01400034014000400140004401407B
:101588000048014080B582B000AF78600B46FB7020
:10159800FB78022B07D17B681B684FF480711846D3
:1015A800FFF76DFB34E07B681B681B4A934213D03E
:1015B8007B681B68194A93420ED07B681B68184ADF
:1015C800934209D07B681B68164A934204D07B6813
:1015D8001B68154A93421BD1FB78032B07D17B6804
:1015E8001B684FF480611846FFF749FB10E0FB7851
:1015F800042B0DD17B681B684FF480711846FFF7E8
:101608003EFB7B681B684FF480611846FFF737FB89
:1016180000BF0837BD4680BD002C014000340140A2
:1016280000400140004401400048014080B582B0BC
:1016380000AF78600B46FB70FB78022B06D17B6805
:101648001B684FF480511846FFF708FB00BF0837A6
:10165800BD4680BD80B582B000AF78600B46FB7098
:10166800FB78022B06D17B681B684FF48051184623
:10167800FFF705FB00BF0837BD4680BD80B584B0C5
:1016880000AF78600023FB607B681B68304A934298
:1016980001D1304BFB607B681A68FB681A60FB68F5
:1016A8001B681846FFF7B6FAB860BB68002B06D06F
:1016B800BB68102B03D0FB6801221A7102E0FB689B
:1016C80000221A71FB681B68234A934213D0FB68F7
:1016D8001B68224A93420ED0FB681B68204A93423B
:1016E80009D0FB681B681F4A934204D0FB681B683B
:1016F8001D4A934204D1FB681B681846FFF7D1FACC
:10170800FB681B68144A934213D0FB681B68134A92
:1017180093420ED0FB681B68114A934209D0FB68BC
:101728001B68104A934204D0FB681B680E4A934218
:1017380008D17B681B681846FFF784FA0346DAB2BB
:10174800FB685A71FB6818461037BD4680BD00BF5C
:1017580000040040D4020020002C01400034014065
:1017680000400140004401400048014080B485B079
:1017780000AF786039603B68002B03D17B68403349
:10178800FB6001E0044BFB60FB6818461437BD465C
:101798005DF8047B704700BF0C03045080B483B02D
:1017A80000AF78607B68DB6803F44063002B01D1ED
:1017B800012300E0002318460C37BD465DF8047B82
:1017C800704780B483B000AF786039607B681B6B6A
:1017D80023F00F023B681A437B681A6300BF0C377B
:1017E800BD465DF8047B704780B483B000AF786075
:1017F80039607B68DB6823F003023B681A437B6827
:10180800DA6000BF0C37BD465DF8047B704780B4D2
:1018180083B000AF78607B68DB6C03F0C003002BFB
:1018280001D1012300E0002318460C37BD465DF8BE
:10183800047B704780B483B000AF78607B689B6896
:1018480023F0004323F03F0343F001027B689A60D2
:1018580000BF0C37BD465DF8047B704780B483B089
:1018680000AF78607B689B6823F0004323F03F0358
:1018780043F002027B689A6000BF0C37BD465DF8F2
:10188800047B704780B483B000AF78607B689B6846
:1018980003F00103012B01D1012300E000231846C6
:1018A8000C37BD465DF8047B704780B483B000AF49
:1018B800786039607B689B6823F0404323F03F03DE
:1018C8003A6802F08042134343F000427B689A6012
:1018D80000BF0C37BD465DF8047B704780B483B009
:1018E80000AF78607B689B6803F00043B3F1004F5A
:1018F80001D1012300E0002318460C37BD465DF8EE
:10190800047B704780B483B000AF78607B689B68C5
:1019180023F0004323F03F0343F004027B689A60FE
:1019280000BF0C37BD465DF8047B704780B483B0B8
:1019380000AF78607B689B6823F0004323F03F0387
:1019480043F008027B689A6000BF0C37BD465DF81B
:10195800047B704780B483B000AF78607B681B68F5
:1019680003F00803082B01D1012300E000231846E7
:101978000C37BD465DF8047B704780B483B000AF78
:1019880078607B681B6803F01003102B01D10123DA
:1019980000E0002318460C37BD465DF8047B70470D
:1019A80080B483B000AF78607B6810221A6000BFF3
:1019B8000C37BD465DF8047B704780B483B000AF38
:1019C80078607B685B6843F008027B685A6000BFF8
:1019D8000C37BD465DF8047B704780B483B000AF18
:1019E80078607B685B6843F040027B685A6000BFA0
:1019F8000C37BD465DF8047B704780B483B000AFF8
:101A080078607B685B6823F008027B685A6000BFD7
:101A18000C37BD465DF8047B704780B483B000AFD7
:101A280078607B685B6823F010027B685A6000BFAF
:101A38000C37BD465DF8047B704780B483B000AFB7
:101A480078607B685B6823F040027B685A6000BF5F
:101A58000C37BD465DF8047B704780B483B000AF97
:101A680078607B685B6823F080027B685A6000BFFF
:101A78000C37BD465DF8047B704780B483B000AF77
:101A880078607B685B6803F01003102B01D1012399
:101A980000E0002318460C37BD465DF8047B70470C
:101AA80080B483B000AF78607B685B6803F0800324
:101AB800802B01D1012300E0002318460C37BD46D6
:101AC8005DF8047B7047000080B485B000AF786093
:101AD80039607B68FB600C4A3B6813441B781A46E4
:101AE800FB6813441B6808493A680A44127811468F
:101AF800FA680A4443F00103136000BF1437BD4677
:101B08005DF8047B704700BFF432010880B485B0EB
:101B180000AF786039607B68FB600C4A3B6813440F
:101B28001B781A46FB6813441B6808493A680A443C
:101B380012781146FA680A4423F00103136000BFC3
:101B48001437BD465DF8047B704700BFF4320108C6
:101B580080B485B000AF786039607B68FB60084A64
:101B68003B6813441B781A46FB6813441B6803F050
:101B7800200318461437BD465DF8047B704700BF44
:101B8800F432010880B487B000AFF860B9607A60B9
:101B9800FB687B610D4ABB6813441B781A467B6956
:101BA80013445B681B0C1B040849BA680A44127882
:101BB80011467A690A4411467A6813434B6000BF9C
:101BC8001C37BD465DF8047B704700BFF43201083E
:101BD80080B487B000AFF860B9607A603B60FB689A
:101BE8007B613B6A102B14D1174ABB6813441B78DE
:101BF8001A467B6913441A467B68D360124ABB684D
:101C080013441B781A467B6913441A463B68936051
:101C180013E00D4ABB6813441B781A467B691344CA
:101C28001A467B689360084ABB6813441B781A46B7
:101C38007B6913441A463B68D36000BF1C37BD4616
:101C48005DF8047B704700BFF432010880B487B0A8
:101C580000AFF860B9607A60FB687B61074ABB68CF
:101C680013441B781A467B6913441A467B689360B1
:101C780000BF1C37BD465DF8047B7047F43201088D
:101C880080B483B000AF78607B681B6803F02003E2
:101C9800202B01D1012300E0002318460C37BD4654
:101CA8005DF8047B704780B483B000AF78607B68D0
:101CB80020225A6000BF0C37BD465DF8047B704790
:101CC80080B485B000AF786039607B68FB600C4AEF
:101CD8003B6813441B781A46FB6813441B68084981
:101CE8003A680A4412781146FA680A4443F0020333
:101CF800136000BF1437BD465DF8047B704700BF12
:101D0800F432010880B485B000AF786039607B6830
:101D1800FB600C4A3B6813441B781A46FB68134463
:101D28001B6808493A680A4412781146FA680A4456
:101D380043F00803136000BF1437BD465DF8047B09
:101D4800704700BFF432010880B485B000AF7860F6
:101D580039607B68FB600C4A3B6813441B781A4661
:101D6800FB6813441B6808493A680A44127811460C
:101D7800FA680A4423F00203136000BF1437BD4613
:101D88005DF8047B704700BFF432010880B485B069
:101D980000AF786039607B68FB600C4A3B6813448D
:101DA8001B781A46FB6813441B6808493A680A44BA
:101DB80012781146FA680A4423F00403136000BF3E
:101DC8001437BD465DF8047B704700BFF432010844
:101DD80080B485B000AF786039607B68FB600C4ADE
:101DE8003B6813441B781A46FB6813441B68084970
:101DF8003A680A4412781146FA680A4423F008033C
:101E0800136000BF1437BD465DF8047B704700BF00
:101E1800F432010880B485B000AF786039607B681F
:101E2800FB600A4A3B6813441B781A46FB68134454
:101E38001B6803F00203022B01D1012300E00023F9
:101E480018461437BD465DF8047B7047F432010824
:101E580080B584B000AF78600123FB817B681B6983
:101E68001846FFF79BFC0346002B2FD07B685B7A54
:101E7800DBB2022B11D07B685B7ADBB2042B0CD06F
:101E88007B685B7ADBB2082B07D07B681B69184636
:101E9800FFF760FD0346012B18D1786800F0F8F8C9
:101EA8000346002B12D17B685B7ADBB2082B03D187
:101EB8007B6801225A7202E07B6820225A727B6892
:101EC8001B691846FFF71EFD0023FB81FB89184696
:101ED8001037BD4680BD80B586B002AFF860B960E6
:101EE8007A603B600021F868FFF740FC03461A4619
:101EF8007968B868FFF7AAFE0021F868FFF736FC92
:101F080002463B68002100917968B868FFF760FED7
:101F1800BA697968B868FFF735FE7968B868FFF775
:101F2800CFFE7968B868FFF7EDFE7968B868FFF703
:101F3800CBFD00BF1037BD4680BD80B584B000AF73
:101F4800F860B9607A607968B868FFF7DFFD79688A
:101F5800B868FFF71BFF7968B868FFF739FF796839
:101F6800B868FFF7F1FE00227968B868FFF70AFE43
:101F780000BF1037BD4680BD80B584B000AF786023
:101F880039600223FB737B68DB79012B0FD17B68F7
:101F9800DA687B681B685B00D118FB7B7A6812687B
:101FA80002FB03F31A46386811F05AF90AE07B6815
:101FB800D968FB7B7A68126802FB03F31A46386813
:101FC80011F04EF900BF1037BD4680BD80B586B010
:101FD80000AFF860B9607A60FB685A69FB689B7962
:101FE80019461046FFF716FF0346DBB2012B37D11F
:101FF800FB685A69BB68104698470346012B2FD1E6
:10200800FB6804225A72FB685A697B681046984735
:10201800FB685A69FB689B7919461046FFF798FDDB
:102028000346002B19D1FB685A69FB689B7919464E
:102038001046FFF76BFDFB685869FB689B791946EA
:10204800FB681B681A46FFF79DFDFB685A69FB6829
:102058009B7919461046FFF737FD0123FB7501E010
:102068000023FB75FB7D18461837BD4680BD000070
:1020780080B500AF034A04490448FFF7A7FF00BF33
:1020880080BD00BFAF1C0008891C00086003002049
:1020980080B582B000AF78607B681B691846FFF78F
:1020A8006CFC0346DBB2012B07D17B681B69184621
:1020B800FFF776FC7B6810225A727B685B7ADBB28A
:1020C800102B0CBF01230023DBB218460837BD468E
:1020D80080BD80B582B000AF78600B46FB70FB789E
:1020E800012B0DD17B681B691846FFF757FB034688
:1020F800012B12D07B681B691846FFF703FC0CE024
:102108007B681B691846FFF782FB0346012B04D046
:102118007B681B691846FFF709FC00BF0837BD46F6
:1021280080BD000090B589B002AFF860084611463E
:102138001A4603467B810B463B811346FB800023EE
:102148007B61FB681B693C4A934201D13B4B7B6135
:102158007B69002B6BD0FB681A697B691A617B6904
:102168000022DA71FB88012B61D03B89002B47D014
:102178007B695B7ADBB2082B42D0FB68DA687B6943
:10218800DA60FB681A687B691A60FB685A697B69C0
:102198005A61FB689A797B699A71FB681A797B693D
:1021A8001A717B691B69B96A1846FFF70AFB7B89B4
:1021B800012B21D07B89042B16D17B691B69032154
:1021C8001846FFF711FB7B6918697B6959697B69B8
:1021D8009B791C467B69DA687B691B680093134608
:1021E8002246FFF778FE07E07B89022B04D17B6942
:1021F8001B691846FFF7E1FB7B6908225A7216E053
:102208003B89002B13D17B699B7ADBB2082B0ED05C
:10221800FB685A797B695A717B89022B04D17B69E7
:102228001B691846FFF7D9FB7B6908229A727B69FC
:1022380018461C37BD4690BD0001045060030020BD
:1022480080B582B000AF78607B681B691846FFF7DD
:1022580019FB0346002B04D17B681B691846FFF75E
:10226800E9FA00BF0837BD4680BD80B586B000AF2B
:10227800F8600B467A607B810123FB82FB681B694F
:10228800002B46D07B89012B05D1F868FFF7E0FDCC
:102298000346FB823DE07B89042B1FD1FB681B6949
:1022A8001846FFF77BFA0346002B32D0FB68012261
:1022B8005A72FB681B691846FFF724FB00BFFB68CE
:1022C8005B7ADBB2042BFAD17968F868FFF754FE21
:1022D800FB6808225A720023FB821AE07B89022BD2
:1022E80017D1FB685B7ADBB2202B09D0FB685B7ADD
:1022F800DBB2042B04D0FB685B7ADBB2102B08D16D
:10230800FB6808225A727968F868FFF735FE0023DF
:10231800FB82FB8A18461837BD4680BD80B582B05F
:1023280000AF78600B467B8013463B807B681B6957
:102338001846FFF7A7FA0346002B04D07B681B69F1
:102348001846FFF78BFA7B681B691846FFF7A8FB4E
:102358000346002B04D07B681B691846FFF77DFBFA
:102368007B681B691846FFF788FB0346002B04D0DF
:102378007B681B691846FFF750FB3B88002B35D05C
:102388007B88012B1AD07B88022B05D17B681B69BF
:102398001846FFF732FB11E07B88042B0ED17B68CF
:1023A80018697B6859697B689B791A46FFF7C5FDF0
:1023B8007B681B6900211846FFF716FA7B68002224
:1023C800DA607B6800221A607B6800225A617B68A9
:1023D80000229A717B6800221A717B681A697B68EF
:1023E8001B7919461046FFF7ECF90AE07B680022D2
:1023F8005A717B88022B04D17B681B691846FFF74A
:102408001CFB00BF0837BD4680BD000080B584B006
:1024180000AF78600B46FB707B681B691846FFF7B6
:1024280031FA0346FB7397F90F30012B04D17B680F
:102438001B691846FFF712FAFB78002B0FD17B684F
:102448001B697F211846FFF730FA00BF7B681B69BC
:102458001846FFF743FA0346012BF7D040E0FB7814
:10246800012B0FD17B681B692C491846FFF71DFA11
:1024780000BF7B681B691846FFF730FA0346012B3B
:10248800F7D02DE07B681B697F211846FFF70DFA0E
:1024980000BF7B681B691846FFF720FA0346012B2B
:1024A800F7D00023BB8107E000BFBB891BB29BB2FA
:1024B80001339BB21BB2BB81BB891BB29BB2032BFE
:1024C800F2D97B681B6915491846FFF7EEF900BF7A
:1024D8007B681B691846FFF701FA0346012BF7D002
:1024E8000023BB8107E000BFBB891BB29BB201334D
:1024F8009BB21BB2BB81BB891BB29BB2032BF2D927
:1025080097F90F30012B04D17B681B691846FFF738
:1025180091F900BF1037BD4680BD00BF00007F4065
:1025280080B483B000AF78607B681B6843F0010219
:102538007B681A6000BF0C37BD465DF8047B7047A6
:1025480080B483B000AF78607B681B6823F0010219
:102558007B681A6000BF0C37BD465DF8047B704786
:1025680080B483B000AF786039607B681B6823F063
:1025780004023B681A437B681A6000BF0C37BD46EB
:102588005DF8047B704780B483B000AF78607B68E7
:102598001B6803F0040318460C37BD465DF8047B3E
:1025A800704780B483B000AF78607B68DB6A1846F8
:1025B8000C37BD465DF8047B704780B483B000AF2C
:1025C800786039607B683A681A6300BF0C37BD468B
:1025D8005DF8047B704780B483B000AF78603960E1
:1025E8007B683A685A6300BF0C37BD465DF8047BC8
:1025F800704780B483B000AF786039607B683A6810
:102608009A6300BF0C37BD465DF8047B704780B401
:1026180083B000AF786039607B683A68DA6300BFDE
:102628000C37BD465DF8047B704780B483B000AFBB
:10263800786039607B683A681A6400BF0C37BD4619
:102648005DF8047B704780B483B000AF78607B6826
:102658005B6B18460C37BD465DF8047B704780B449
:1026680083B000AF78607B689B6B18460C37BD461B
:102678005DF8047B704780B483B000AF78607B68F6
:10268800DB6B18460C37BD465DF8047B704780B499
:1026980083B000AF78607B681B6C18460C37BD466A
:1026A8005DF8047B704780B483B000AF78607B68C6
:1026B8005B6943F001027B685A6100BF0C37BD4675
:1026C8005DF8047B704780B483B000AF78607B68A6
:1026D8001B6918460C37BD465DF8047B704780B40B
:1026E80083B000AF786039607B683A689A6100BF50
:1026F8000C37BD465DF8047B704780B483B000AFEB
:10270800786039607B683A689A6200BF0C37BD46CA
:102718005DF8047B7047000080B584B000AF786036
:1027280087ED000AD7ED007AF5EEC07AF1EE10FADF
:1027380003D54FF000033B600AE0D7ED007A9FED28
:10274800167AF4EEC77AF1EE10FA01DD134B3B600E
:102758007B681B681846FFF724FFF8607B681B79C5
:10276800002B0CBF01230023DBB21A46FB6813447D
:1027780007EE903AB8EE677AD7ED007A27EE277A17
:10278800DFED056AC7EE267AFCEEE77A17EE903A97
:1027980018461037BD4680BD0000C8420000C84238
:1027A80080B582B000AF786039607B681B681846D6
:1027B800FFF749FF02463B68934205D07B681B68D8
:1027C80039681846FFF707FF00BF0837BD4680BDC8
:1027D80080B582B000AF786039607B681B681846A6
:1027E800FFF73DFF02463B68934205D07B681B68B4
:1027F80039681846FFF7FDFE00BF0837BD4680BDA3
:1028080080B582B000AF786039607B681B68184675
:10281800FFF731FF02463B68934205D07B681B688F
:1028280039681846FFF7F3FE00BF0837BD4680BD7C
:1028380080B582B000AF786039607B681B68184645
:10284800FFF725FF02463B68934205D07B681B686B
:1028580039681846FFF7E9FE00BF0837BD4680BD56
:1028680080B584B000AF786087ED000A97ED000A64
:102878007868FFF751FFF860F9687868FFF790FF0C
:1028880000BF1037BD4680BD80B584B000AF78600A
:1028980087ED000A97ED000A7868FFF73DFFF860BA
:1028A800F9687868FFF794FF00BF1037BD4680BD10
:1028B80080B584B000AF786087ED000A97ED000A14
:1028C8007868FFF729FFF860F9687868FFF798FFDC
:1028D80000BF1037BD4680BD80B584B000AF7860BA
:1028E80087ED000A97ED000A7868FFF715FFF86092
:1028F800F9687868FFF79CFF00BF1037BD4680BDB8
:1029080080B485B000AF78607B681B689A68074B15
:102918001340FB60FB68062B0CBF01230023DBB2CE
:1029280018461437BD465DF8047B70470700010060
:1029380080B584B000AF78600B46FB707B681B687D
:102948001846FFF720FEF860FB78002B1ED07B6846
:102958001B68324A934213D07B681B68304A934203
:102968000ED07B681B682F4A934209D07B681B688E
:102978002D4A934204D07B681B682C4A934205D1A8
:102988007B681B6800211846FFF717FEFB68042BBD
:1029980011D07B681B6804211846FFF7E1FD7B68AE
:1029A8001B681846FFF77FFE7B681B68F9681846A6
:1029B800FFF7D6FD04E07B681B681846FFF773FE37
:1029C8007B681B681846FFF7ABFDFB78002B20D00F
:1029D8007B681B68114A934213D07B681B68104AB6
:1029E80093420ED07B681B680E4A934209D07B68DD
:1029F8001B680D4A934204D07B681B680B4A9342BC
:102A080007D17B681A687B685B7919461046FFF71F
:102A1800D4FD00BF1037BD4680BD00BF002C01406B
:102A2800003401400040014000440140004801409A
:102A380080B582B000AF78607B681B681846FFF7E6
:102A48007FFD00BF0837BD4680BD000080B483B05D
:102A580000AF7860074B5B79002B0CBF0123002384
:102A6800DAB27B6801331A7000BF0C37BD465DF8D7
:102A7800047B70472830002080B400AF0C4B5B7992
:102A8800002B0CBF01230023DAB2094B9A71084BC3
:102A98005A790132D2B25A71054B5B79092B02D9A6
:102AA800034B00225A7100BFBD465DF8047B704796
:102AB8002830002080B485B000AF786039607B682A
:102AC800012283F8D8203B68D3E900237968C1E95B
:102AD80002237B6801221A600023FB600CE07B68FC
:102AE800D3E902237868F9680231C9000144C1E9D1
:102AF8000023FB680133FB60FB68182BEFDD00BF88
:102B080000BF1437BD465DF8047B704780B586B0BA
:102B180000AF87ED040BF860B9607A60BB68D3E951
:102B280002017B68D3E90023FDF74EFF0346002B23
:102B380005D17B68D3E90023B968C1E90223F868A5
:102B4800BB681033C822194610F08AFBF968D7E928
:102B58000423C1E93223FB6803F1D000BB681033BA
:102B6800C022194610F07CFBBB6803F11000FB681B
:102B7800C833C822194610F073FB00BF1837BD468A
:102B880080BD80B485B000AF786039607B68012271
:102B980083F860203B68D3E900237968C1E9022300
:102BA8007B6801221A600023FB600CE07B68D3E994
:102BB80002237868F9680231C9000144C1E9002399
:102BC800FB680133FB60FB68092BEFDD00BF00BF2A
:102BD8001437BD465DF8047B704780B586B000AFFA
:102BE80087ED040BF860B9607A60BB68D3E902012D
:102BF8007B68D3E90023FDF7E7FE0346002B05D1E8
:102C08007B68D3E90023B968C1E90223F868BB6887
:102C180010335022194610F023FBF968D7E9042332
:102C2800C1E91423FB6803F15800BB68103348223C
:102C3800194610F015FBBB6803F11000FB68503310
:102C48005022194610F00CFB00BF1837BD4680BD56
:102C580080B584B000AF174B0122A3F84029154B6B
:102C68000022A3F84229134B0022A3F84429114B50
:102C78000022A3F846290F4B0122A3F848290D4B3F
:102C88000222A3F84C290B4B0222A3F84A29094B2C
:102C98000122A3F84E294FF4A8620021054810F03C
:102CA800ADFA00237B800023FB602DE100237B60CD
:102CB80023E100BF381D0020FB68002B42DDB7F977
:102CC80002300133BB60B7F9023047F6FF72934216
:102CD80002D147F6FF73BB60FB689BB201339AB21F
:102CE800BB68013B11B28D4A22F813107B689BB276
:102CF80001339AB2BB68A73311B2884A22F813107D
:102D0800BB6803F24F13FA6811B2844A22F8131011
:102D18007B689BB201339AB2BB6803F2F71311B216
:102D28007E4A22F81310B7F902300133BB60B7F9B5
:102D3800023047F6FF72934202D147F6FF73BB6039
:102D4800BB687B807B68002B42DDB7F9023001331A
:102D5800BB60B7F9023047F6FF72934202D147F6DB
:102D6800FF73BB60FB689BB201339AB2BB68013B3F
:102D780011B26A4A22F813107B689BB201339AB2E7
:102D8800BB68A73311B2654A22F81310FB689BB2DF
:102D980001339AB2BB6803F24F1311B25F4A22F8AB
:102DA8001310BB6803F2F7137A6811B25B4A22F872
:102DB8001310B7F902300133BB60B7F9023047F698
:102DC800FF72934202D147F6FF73BB60BB687B80FA
:102DD800FB68052B45DCB7F902300133BB60B7F956
:102DE800023047F6FF72934202D147F6FF73BB6089
:102DF800FB689BB201339AB2BB68013B11B2474AE8
:102E080022F813107B689BB201339AB2BB68A733D0
:102E180011B2424A22F81310FB689BB202339AB2ED
:102E2800BB6803F24F1311B23C4A22F813107B68B7
:102E38009BB201339AB2BB6803F2F71311B2374A57
:102E480022F81310B7F902300133BB60B7F902302A
:102E580047F6FF72934202D147F6FF73BB60BB6827
:102E68007B807B68052B45DCB7F902300133BB60FA
:102E7800B7F9023047F6FF72934202D147F6FF7363
:102E8800BB60FB689BB201339AB2BB68013B11B2CD
:102E9800224A22F813107B689BB201339AB2BB68AE
:102EA800A73311B21D4A22F81310FB689BB20133F5
:102EB8009AB2BB6803F24F1311B2184A22F81310E2
:102EC8007B689BB202339AB2BB6803F2F71311B264
:102ED800124A22F81310B7F902300133BB60B7F970
:102EE800023047F6FF72934202D147F6FF73BB6088
:102EF800BB687B807B6801337B607B68062B7FF730
:102F0800DBAEFB680133FB60FB68062B7FF7CEAEB8
:102F180000BF00BF1037BD4680BD00BF381D002070
:102F280090B484B000AF0446084611461A462346BA
:102F3800FB800346BB800B467B8013463B80002307
:102F4800FB6081E0454AFB6832F813307B81B7F9B2
:102F58000A20B7F906309A4237D1FB68A8333F4AAE
:102F680032F91330B7F904209A422ED1FB6803F5E1
:102F7800A8733A4A32F91330B7F902209A4224D199
:102F8800FB6803F5FC73354A32F91330B7F90020B2
:102F98009A421AD100237B81304AFB68002122F82B
:102FA8001310FB68A8332D4A002122F81310FB6880
:102FB80003F5A873294A002122F81310FB6803F5CA
:102FC800FC73264A002122F81310B7F90A20B7F932
:102FD80002309A4235D1FB68A833204A32F91330BF
:102FE800B7F900209A422CD1FB6803F5A8731B4A55
:102FF80032F91330B7F906209A4222D1FB6803F55B
:10300800FC73164A32F91330B7F904209A4218D1E2
:10301800124AFB68002122F81310FB68A8330F4AF4
:10302800002122F81310FB6803F5A8730B4A00214E
:1030380022F81310FB6803F5FC73084A002122F8F4
:103048001310FB680133FB60FB68A72B7FF77AAF8F
:1030580000BF00BF1037BD4690BC7047381D002028
:1030680080B58CB000AF7860396000233B620BE01C
:103078009A4A3B6A03F560735B00134447F6FF7294
:103088009A803B6A01333B623B6A302BF0DDC422F5
:103098000021934810F0B2F8924BC822C3F838299F
:1030A800904B0222C3F83C294FF4487200218E4805
:1030B80010F0A4F84FF448720021386810F09EF818
:1030C8007B6800221A80874BB3F948391946854B2B
:1030D800B3F94A395A1E1346DB009B1A0B44013BCD
:1030E8007E4A03F560735B00134400229A807D4B8F
:1030F800B3F94829794BA3F820237A4BD3F8383908
:10310800784AB2F94A19754A03F5C87322F81310B8
:1031180001237B8312E1714BB3F820333B83714B5E
:10312800D3F838396D4A03F5C87332F81330FB8287
:1031380000237B62A8E06B4A7B6A32F91330B7F947
:1031480018209A4240F09D807B6AA833654A32F97C
:103158001330B7F916209A4240F09380B7F9163029
:103168005A1E1346DB009A1AB7F918301344013B6C
:103178005A4A03F560735B001344B3F90430013312
:103188003B623B6AFB613B6AB3F5004F02DB47F6E3
:10319800FF73FB617B6A03F5FC73524A32F8133004
:1031A800BB827B6A03F5A8734E4A32F813307B82E0
:1031B800B7F914305A1E1346DB009A1AB7F91230C1
:1031C8001344FB62FB6A013B444A03F560735B00EE
:1031D8001344B3F904301A46FB69934251DA3B6A47
:1031E800B3F5004F02DB47F6FF733B62FB6A013B16
:1031F8003A6A11B2394A03F560735B0013440A4610
:103208009A80FB6A013B354903F548733A8B21F8EC
:103218001320FB6A3033314903F54873FA8A21F8E1
:103228001320B7F91A3001333B62B7F91A3047F661
:10323800FF72934202D147F6FF733B623B6A013B40
:10324800264903F5C8737A8A21F81320254BD3F849
:1032580038293B6A1344013B204903F5C873BA8AED
:1032680021F81320B7F91A3001333B62B7F91A3045
:1032780047F6FF72934202D147F6FF733B623B6AFF
:103288007B837B6A01337B627B6AA72B7FF753AF13
:10329800B7F91A30FB6200237B6244E000233B62EB
:1032A80016E0104BD3F838393A6A03FB02F27B6A0E
:1032B80013440133094A03F5C87332F913203B6AF2
:1032C8005B0030333B4423F8242C3B6A01333B62D8
:1032D8003B6A012BE5DD00233B621EE0F003002082
:1032E800300A0020381D0020100700208A4BD3F830
:1032F80038393A6A03FB02F27B6A1A443B6A5B007C
:1033080030333B4433F9240C844902F5C873024630
:1033180021F813203B6A01333B623B6A012BE5DD50
:103328007B6A01337B62FB6A013B7A6A9A42B5DBAE
:10333800B7F91A309BB2013B9BB27B83B7F91A30BD
:10334800002B3FF7E8AE744BC822C3F83829724BFC
:103358000222C3F83C294FF44872002170480FF04C
:103368004DFF6D4BB3F94C296C4BA3F820236A4BE6
:10337800D3F83839684AB2F94E19684A03F5C87360
:1033880022F813100023BB62644BB3F820337B830D
:10339800B7F91A30002B40F3B4807B68B3F90030DA
:1033A80001333B627B68B3F9003047F6FF72934202
:1033B80002D147F6FF733B623B6A03F10043013BCE
:1033C8005B003A6813447A8B1A80534BD3F8382938
:1033D8003B6AC7335B0039680B44504902F5C87231
:1033E80031F912201A807B68B3F9003001333B624F
:1033F8007B68B3F9003047F6FF72934202D147F673
:10340800FF733B623B6A1AB27B681A80434BB3F97D
:103418002033FB61404BD3F83839404A03F5C87371
:1034280032F813307B830023FB6223E0B7F91A30AC
:103438005A1E1346DB009A1AFB69D118FA6A13461A
:10344800DB009B1ADA00D31A0B445A1E324BD3F80E
:103458003839F96A01FB03F30133304902F5487240
:1034680031F912102D4A03F5C87322F81310FB6ABC
:103478000133FB62FB6A012BD8DD00237B623CE051
:1034880000233B6216E0244BD3F838393A6A03FB31
:1034980002F27B6A13440133204A03F5C87332F9F8
:1034A80013203B6A5B0030333B4423F8242C3B6AEF
:1034B80001333B623B6A012BE5DD00233B6216E0EA
:1034C800154BD3F838393A6A03FB02F27B6A1A447F
:1034D8003B6A5B0030333B4433F9240C0F4902F557
:1034E800C873024621F813203B6A01333B623B6AEA
:1034F800012BE5DD7B6A01337B627B6AC62BBFDD6E
:1035080001E00123BB62BB6A002B3FF43BAF00BF65
:1035180000BF3037BD4680BD381D0020F0030020B5
:103528001007002080B588B000AF786039603B682C
:103538000833D3E900014FF000029C4BFDF744FA31
:103548000346002B63D09A4BB3F948391A46984B77
:10355800B3F9423913447B617B69B3F5004F03DB50
:1035680047F6FF737B6105E07B6913F5004F01DACD
:10357800904B7B618E4BB3F946391A467B699B1A8F
:103588007B617B69B3F5004F03DB47F6FF737B6113
:1035980005E07B6913F5004F01DA864B7B61844BAC
:1035A800B3F940391A46824BB3F94A3913443B619F
:1035B8003B69B3F5004F03DB47F6FF733B6105E05A
:1035C8003B6913F5004F01DA7A4B3B61784BB3F94D
:1035D80044391A463B699B1A3B613B69B3F5004F76
:1035E80003DB47F6FF733B6105E03B6913F5004FCA
:1035F80001DA704B3B616E4BB3F948096C4BB3F978
:103608004A197B691AB23B691BB2FFF789FC3B6810
:103618002033D3E900014FF00002644BFDF7D4F9E1
:103628000346002B63D0624BB3F948391A46604B06
:10363800B3F9403913447B617B69B3F5004F03DB71
:1036480047F6FF737B6105E07B6913F5004F01DAEC
:10365800584B7B61564BB3F944391A467B699B1A20
:103668007B617B69B3F5004F03DB47F6FF737B6132
:1036780005E07B6913F5004F01DA4E4B7B614C4B3B
:10368800B3F94A391A464A4BB3F9463913443B61F0
:103698003B69B3F5004F03DB47F6FF733B6105E079
:1036A8003B6913F5004F01DA424B3B61404BB3F9DC
:1036B80042391A463B699B1A3B613B69B3F5004F97
:1036C80003DB47F6FF733B6105E03B6913F5004FE9
:1036D80001DA384B3B61364BB3F94809344BB3F93F
:1036E8004A197B691AB23B691BB2FFF719FC3B68A0
:1036F8001833D3E900014FF000022C4BFDF764F9B1
:103708000346002B6AD02A4BB3F948391A46284B8E
:10371800B3F9443913447B617B69B3F5004F03DB8C
:1037280047F6FF737B6105E07B6913F5004F01DA0B
:10373800204B7B611E4BB3F940391A467B699B1AB3
:103748007B617B69B3F5004F03DB47F6FF737B6151
:1037580005E07B6913F5004F01DA164B7B61144BCA
:10376800B3F94A391A46124BB3F9423913443B614B
:103778003B69B3F5004F03DB47F6FF733B6105E098
:103788003B6913F5004F01DA0A4B3B61084BB3F96B
:1037980046391A463B699B1A3B613B69B3F5004FB2
:1037A8000ADB47F6FF733B610CE000BF0000F03F07
:1037B800381D00200080FFFF3B6913F5004F01DA38
:1037C800A94B3B61A94BB3F94809A84BB3F94A196E
:1037D8007B691AB23B691BB2FFF7A2FBA449786860
:1037E800FFF73EFC4FF000024FF00003C7E9062345
:1037F8007B68B3F90030013B7B617B68B3F900302B
:1038080013F5004F01D1984B7B617B69013B984AC6
:1038180032F91320954BB3F948399A4223DD934B7B
:10382800B3F94039012B1ED14FF00002914BC7E983
:1038380006238E4BB3F84239FB818C4BB3F84439DD
:10384800BB818A4BB3F94629884BA3F84029874B9B
:103858000122A3F84229854AFB89A2F84439834A00
:10386800BB89A2F846397B68B3F90030013B7B611C
:103878007B68B3F9003013F5004F01D17A4B7B61B7
:103888007B69013B7A4A32F91320784BB3F94839FE
:103898009A4221DD754BB3F94439012B1CD14FF005
:1038A8000002754BC7E90623704BB3F84039BB815A
:1038B8006E4BB3F942296D4BA3F840296B4B01229B
:1038C800A3F84229694BB3F94629684BA3F8442960
:1038D800664ABB89A2F846397B68B3F90030013BD8
:1038E8007B617B68B3F9003013F5004F01D15E4B63
:1038F8007B617B69013B5E4A32F913205B4BB3F96C
:1039080048399A421FDA594BB3F94039012B1AD179
:103918004FF00002584BC7E90623544BB3F942292C
:10392800524BA3F84029514BB3F944294F4BA3F804
:1039380042294E4BB3F946294C4BA3F844294B4B2B
:103948000122A3F846297B68B3F90030013B7B616B
:103958007B68B3F9003013F5004F01D1424B7B610E
:103968007B69013B424A32F91320404BB3F948398D
:103978009A4223DA3D4BB3F94439012B1ED14FF05B
:1039880000023C4BC7E90623384BB3F84239BB81E8
:10399800364BB3F84039FB81344BB3F94629334BE6
:1039A800A3F84029314AFB89A2F842392F4ABB893A
:1039B800A2F844392D4B0122A3F846297B68B3F9B4
:1039C8000030013B7B617B68B3F9003013F5004F91
:1039D80001D1254B7B617B69C733254A32F9132016
:1039E800224BB3F94A399A4221DD204BB3F94239C7
:1039F800012B1CD14FF000021F4BC7E906231B4BBC
:103A0800B3F84039BB81194B0122A3F84029174B61
:103A1800B3F94429154BA3F84229144BB3F94629A5
:103A2800124BA3F84429114ABB89A2F846397B688E
:103A3800B3F90030013B7B617B68B3F9003013F5C3
:103A4800004F01D1084B7B617B69C733084A32F9C3
:103A58001320064BB3F94A399A422EDD034BB3F9CA
:103A68004639012B29D109E00080FFFF381D0020CD
:103A7800F00300200000F03F0000F0BF4FF000020C
:103A8800AC4BC7E90623AC4BB3F84039FB81AA4BD2
:103A9800B3F84439BB81A84BB3F94229A64BA3F824
:103AA8004429A54B0122A3F84029A34AFB89A2F87F
:103AB8004239A14ABB89A2F846397B68B3F900307C
:103AC800013B7B617B68B3F9003013F5004F01D1EE
:103AD8009A4B7B617B69C733994A32F91320964B1D
:103AE800B3F94A399A4223DA934BB3F94239012B95
:103AF8001ED14FF000028F4BC7E906238E4BB3F857
:103B08004439BB818C4BB3F84039FB818A4BB3F9FC
:103B18004629894BA3F84029874AFB89A2F84239EC
:103B2800854B0122A3F84429834ABB89A2F8463968
:103B38007B68B3F90030013B7B617B68B3F90030E7
:103B480013F5004F01D17D4B7B617B69C7337C4AFC
:103B580032F91320784BB3F94A399A4221DA764B75
:103B6800B3F94639012B1CD14FF00002754BC7E958
:103B78000623714BB3F84039BB816F4BB3F9422927
:103B88006D4BA3F840296C4BB3F944296A4BA3F851
:103B98004229694B0122A3F84429674ABB89A2F844
:103BA80046397B68B3F90030013B7B617B68B3F928
:103BB800003013F5004F01D1604B7B617B69C7333F
:103BC8005F4A32F913205C4BB3F94A399A4224DA36
:103BD800594BB3F94039012B1FD14FF000024FF078
:103BE8008043C7E90623544BB3F84439FB81524B51
:103BF800B3F84639BB81504BB3F942294E4BA3F871
:103C080046294D4B0122A3F844294B4AFB89A2F8C7
:103C18004039494ABB89A2F842397B68B3F9003078
:103C2800013B7B617B68B3F9003013F5004F01D18C
:103C3800424B7B617B69C733414A32F913203E4BC3
:103C4800B3F94A399A4222DD3B4BB3F94439012B87
:103C58001DD14FF000024FF08043C7E90623364BD1
:103C6800B3F84639BB81344BB3F94229324BA3F838
:103C78004629314BB3F940292F4BA3F844292E4B41
:103C88000122A3F840292C4ABB89A2F842397B6853
:103C9800B3F90030013B7B617B68B3F9003013F561
:103CA800004F01D1254B7B617B69013B244A32F9E6
:103CB8001320214BB3F948399A4224DA1E4BB3F941
:103CC8004239012B1FD14FF000024FF08043C7E962
:103CD8000623194BB3F84439FB81174BB3F846391F
:103CE800BB81154B0122A3F84629134BB3F9402990
:103CF800114BA3F84429104AFB89A2F840390E4A0F
:103D0800BB89A2F842397B68B3F90030013B7B617B
:103D18007B68B3F9003013F5004F01D1074B7B6185
:103D28007B69013B064A32F91320034BB3F9483942
:103D38009A4209E00000F03F381D00200080FFFF94
:103D4800F00300200000F0BF22DD174BB3F946391D
:103D5800012B1DD14FF000024FF08043C7E9062325
:103D6800114BB3F84439FB810F4BB3F942290E4B81
:103D7800A3F846290C4BB3F940290B4BA3F8442967
:103D8800094AFB89A2F84039074B0122A3F84229C6
:103D9800D7E9062343EC172BB0EE470AF0EE670A83
:103DA8002037BD4680BD00BF381D00200000000040
:103DB800B0B588B000AF87ED040BF860B9607A60E1
:103DC800B9684FF000024FF00003C1E90023796899
:103DD8004FF000024FF00003C1E900234FF000024A
:103DE800044BD7E90401FCF7EFFD0346002B03D190
:103DF8000EE200BF0000F03FFB681033D3E900017A
:103E08004FF00002B84BFCF7DFFD0346002B15D03E
:103E1800FB682833D3E900014FF000024FF000039C
:103E2800FCF7D2FD0346002B08D0B04B03F509631D
:103E380019464FF00002AE4B41E90223FB681033EC
:103E4800D3E900014FF000024FF00003FCF7BCFD7E
:103E58000346002B2BD0FB682833D3E900014FF031
:103E68000002A14BFCF7B0FD0346002B08D09F4B86
:103E780003F5096319464FF000029B4B41E9022301
:103E8800FB682833D3E900014FF000024FF000032C
:103E9800FCF79AFD0346002B09D0944B03F5096300
:103EA80019464FF000024FF0000341E902238F4BFF
:103EB80003F5096353E902014FF000028A4BFCF74E
:103EC80083FD0346002B21D0FB681033D3E90001A2
:103ED8004FF00002844BFCF777FD0346002B15D00A
:103EE800FB682833D3E900014FF000027E4BFCF752
:103EF8006BFD0346002B09D07C4B03F5096319467B
:103F08004FF000024FF0804341E90223774B03F55D
:103F1800096353E902014FF00002754BFCF754FDA9
:103F28000346002B21D0FB681033D3E900014FF082
:103F380000026D4BFCF748FD0346002B15D0FB68CB
:103F48002833D3E900014FF00002674BFCF73CFD32
:103F58000346002B09D0654B03F5096319464FF05A
:103F680000024FF0404341E90223604B03F5086328
:103F7800D3E900015D4B03F5096353E90223FCF71C
:103F880005F902460B46594901F50861C1E90023C4
:103F9800564B03F50863D3E90045544B03F5086312
:103FA800D3E900014CA3D3E90023FCF7A5FA0246A4
:103FB8000B4620462946FCF7E7F802460B464B49D4
:103FC80001F50861C1E90023484B03F5096353E98A
:103FD8000201464B03F5086353E90223FCF7D4F8C2
:103FE80002460B4614461D46404B03F50963D3E9C8
:103FF80000013BA3D3E90023FCF77EFA02460B46F7
:1040080020462946FCF7C2F802460B46374901F517
:104018000961C1E90023354B03F5096353E902013E
:104028004FF00002334BFCF767FA02460B46144682
:104038001D462E4B03F50863D3E900014FF000023B
:104048002D4BFCF759FA02460B4620462946FCF749
:104058009DF802460B4614461D46244B03F509639A
:10406800D3E900014FF00002244BFCF745FA024661
:104078000B4620462946FCF789F802460B46C7E955
:1040880006231A4B03F5096353E90223174901F57F
:10409800086141E90223D7E906234FF000001749D8
:1040A800FCF772F802460B46104619464FF000021C
:1040B800134BFCF7A7FC0346002B26D0D7E90623B1
:1040C8004FF000000D49FCF75FF802460B46B9684F
:1040D80018E000BFAFF300807B14AE47E17A743F6D
:1040E8009A9999999999E93F0000F03F381D002065
:1040F8000000F0BF00002E400000E03F00005940E3
:10410800000059C0C1E9002305E0B9684FF000027A
:10411800414BC1E90023BB68D3E900014FF000021D
:104128003E4BFCF779FC0346002B05D0B9684FF0ED
:1041380000023A4BC1E900234FF00002374BD7E9A0
:104148000601FCF723F802460B46104619464FF0C5
:104158000002314BFCF756FC0346002B0CD04FF005
:1041680000022E4BD7E90601FCF710F802460B4671
:104178007968C1E9002305E079684FF00002264B11
:10418800C1E900237B68D3E900014FF00002234B0B
:10419800FCF742FC0346002B05D079684FF000027B
:1041A8001E4BC1E900231E4B03F5096353E90201C5
:1041B8004FF000024FF00003FCF706FC0346002B0B
:1041C80000D125E0FB681033D3E900014FF000026D
:1041D800144BFCF7F9FB0346002B00D118E0FB68F1
:1041E8002833D3E900014FF000020E4BFCF7ECFB3B
:1041F8000346002B00D10BE0B9684FF000020A4BD0
:10420800C1E9002379684FF00002074BC1E9002398
:1042180000BF2037BD46B0BD000059C0000059405E
:10422800381D00200000F03F000049C080B58CB068
:1042380002AF78607B6800221A727B6801225A609C
:104248007B681033BB6100237B741A4BFB611A4BEC
:104258003B620123BB74002387F82430022387F8CC
:1042680025300923FB6009233B7407F10C00082360
:104278000093042301220421FDF754FF02467B68C2
:10428800DA607B68DB6802211846FEF7BFF87B68B6
:10429800DB681846FDF7D4FF7B68DB680121184608
:1042A800FDF717FF7B6801221A7200BF2837BD4649
:1042B80080BD00BF000104500000024080B5A6B0D8
:1042C80000AF78601A4BBB6000233B7300237B73FD
:1042D80007F108031846FDF7D1F902467B68DA6052
:1042E8007B68DB6800211846FCF783FE7B68DB6887
:1042F80002211846FDF7F2F87B68DB6802211846B0
:10430800FDF794F97B68DB681846FEF7F9FA03466F
:1043180087F8973097F89730002B05D17B68DB68D2
:1043280000211846FEF704FB00BF9837BD4680BD44
:104338000004004080B5A6B000AF78601A4BBB609F
:1043480000233B7300237B7307F108031846FDF72E
:1043580095F902467B68DA607B68DB6800211846BD
:10436800FCF747FE7B68DB6802211846FCF776FFFE
:104378007B68DB6802211846FDF710F87B68DB686C
:104388001846FEF7BDFA034687F8973097F8973036
:10439800002B05D17B68DB6800211846FEF7C8FAB8
:1043A80000BF9837BD4680BD0004004000000000F3
:1043B8002DE9B04F9CB000AFFEF75EFBA04BD3F8E1
:1043C800D437A04A04211846FDF74FFF9C4BB3F899
:1043D8005439A7F864309B4BDB899B4AA2F8E8372D
:1043E800984B1B88984AA2F8F637964B9B89964AB1
:1043F800A2F8EA37934B5B88934AA2F8F437914BBB
:104408005B89914AA2F8EC378E4B9B888E4AA2F8BA
:10441800F2378C4B1B898C4AA2F8EE37894BDB8824
:10442800894AA2F8F0370023FB6612E0864AFB6E41
:1044380003F57D7332F813301846FBF7E3FF824A21
:10444800FB6EED33DB001344C3E90001FB6E01335F
:10445800FB66FB6E072BE9DD7B4B03F5EE6393ED03
:10446800007B7A4A7A497B48B0EE470AF0EE670A41
:10447800FEF7B3FB744B03F5A753103353E902015E
:10448800714B03F50563C3E900010023BB6629E00E
:10449800BB6E01336C4A03F29D23DB001344D3E95E
:1044A8000001694B03F5056343E90201664B03F517
:1044B8000563D3E90001644B03F5056353E902235F
:1044C800FCF78CFA0346002B09D05F4B03F5056314
:1044D80053E902015C4B03F50563C3E90001BB6EB8
:1044E8000133BB66BB6E082BD2DD574B03F5056362
:1044F80093ED007B584A59495948B0EE470AF0EE07
:10450800670AFEF703FB504B03F5BE5353E902015C
:104518004D4B03F50463C3E900010023BB6629E0A2
:10452800BB6E0133484A03F2F723DB001344D3E997
:104538000001454B03F5056343E90201424B03F5CE
:104548000463D3E90001404B03F5056353E90223F3
:10455800FCF762FA0346002B09D03B4B03F50563D1
:1045680053E90201384B03F50463C3E90001BB6E4C
:104578000133BB66BB6E172BD2DD334B03F5F063FB
:1045880013ED027B374A38493848B0EE470AF0EE57
:10459800670AFEF7BBFA2C4B03F5825353E9020175
:1045A800294B03F50563C3E900010023BB6629E035
:1045B800BB6E0133244A03F20723DB001344D3E91B
:1045C8000001214B03F5056343E902011E4B03F586
:1045D8000563D3E900011C4B03F5056353E9022386
:1045E800FCF7FCF90346002B09D0174B03F50563CC
:1045F80053E90201144B03F50563C3E90001BB6EDF
:104608000133BB66BB6E172BD2DD0F4B03F5F0638E
:1046180093ED007B164A17491748B0EE470AF0EEAB
:10462800670AFEF773FA084B03F5526353E9020170
:10463800054B03F50263C3E900010023BB6647E0AD
:10464800381D00209C030020F0030020B800002043
:10465800982D0020D8180020D0000020482F0020D6
:10466800A81B0020A0000020F82A00202814002001
:10467800900000203829002008110020BB6E01336B
:104688008F4A03F2A313DB001344D3E900018C4BD8
:1046980003F5056343E90201894B03F50263D3E996
:1046A8000001874B03F5056353E90223FCF796F9EC
:1046B8000346002B09D0824B03F5056353E9020139
:1046C8007F4B03F50263C3E90001BB6E0133BB6690
:1046D800BB6E172BD2DD7A4B03F5F26313ED027B29
:1046E800784A79497948B0EE470AF0EE670AFEF74A
:1046F8000DFA734B03F5396353E90201704B03F567
:10470800036343E902010023BB6629E0BB6E013362
:104718006B4A03F27113DB001344D3E90001684BC1
:1047280003F5056343E90201654B03F5036353E9A8
:104738000201634B03F5056353E90223FCF74EF9C5
:104748000346002B09D05E4B03F5056353E90201CC
:104758005B4B03F5036343E90201BB6E0133BB66A0
:10476800BB6E172BD2DD564B03F5F26393ED007B3E
:10477800574A58495848B0EE470AF0EE670AFEF71C
:10478800C5F94F4B03F5206353E902014C4B03F580
:104798000363C3E900010023BB6629E0BB6E013354
:1047A800474A03F23F13DB001344D3E90001444BAB
:1047B80003F5056343E90201414B03F50363D3E9BC
:1047C80000013F4B03F5056353E90223FCF706F9A3
:1047D8000346002B09D03A4B03F5056353E9020160
:1047E800374B03F50363C3E90001BB6E0133BB66B6
:1047F800BB6E172BD2DD324B03F5F46313ED027B4E
:10480800364A37493748B0EE470AF0EE670AFEF7EE
:10481800E4F92B4B03F5AC53103353E90201284B51
:1048280003F5046343E902010023BB6629E0BB6E7C
:104838000133234A03F2B123DB001344D3E9000117
:104848001F4B03F5056343E902011D4B03F50463A0
:1048580053E902011A4B03F5056353E90223FCF7F8
:10486800BDF80346002B09D0154B03F5056353E942
:104878000201134B03F5046343E90201BB6E0133E4
:10488800BB66BB6E082BD2DD0D4B03F5046313ED3D
:10489800027B154A15491648B0EE470AF0EE670A3A
:1048A800FEF734F9064B03F5B153103353E902010F
:1048B800034B03F5046343E902010023BB6643E0AD
:1048C800F00300208800002058280020780F0020DE
:1048D8008000002078270020E80D0020C00000207C
:1048E800002E002078190020C8000020682E002023
:1048F800181A0020BB6E0133AD4A03F2C523DB0052
:104908001344D3E90001AA4B03F5056343E9020107
:10491800A74B03F5046353E90201A54B03F50563AF
:1049280053E90223FCF778F80346002B09D0A04B83
:1049380003F5056353E902019D4B03F5046343E95D
:104948000201BB6E0133BB66BB6E172BD2DD994BE0
:10495800B3F85639A7F86230974AB7F8643013802D
:10496800934B03F5046393ED007BB0EE470AF0EE3A
:10497800670A0EF079FAB0EE407AF0EE607A9FEDB1
:104988008A1BB0EE470AF0EE670A0EF035FAB0EE71
:10499800407AF0EE607A864B03F5056303ED027BFF
:1049A800834B03F5056353E902014FF000024FF012
:1049B8000003FCF713F80346002B10D07C4B03F5DB
:1049C800056353E90223144683F00045204629462F
:1049D800FCF76AF803469BB25B429BB20AE0744B51
:1049E80003F5056353E9022310461946FCF75CF802
:1049F80003469BB2704A53806D4B03F5056393EDF4
:104A0800007BB0EE470AF0EE670A0EF02DFAB0EE22
:104A1800407AF0EE607A9FED641BB0EE470AF0EE44
:104A2800670A0EF0E9F9B0EE407AF0EE607A604B72
:104A380003F5056303ED027B5D4B03F5056353E95D
:104A480002014FF000024FF00003FBF7C7FF0346D7
:104A5800002B10D0564B03F5056353E9022390460B
:104A680083F0004940464946FCF71EF803469BB2CE
:104A78005B429BB20AE04E4B03F5056353E9022300
:104A880010461946FCF710F803469BB24A4A938031
:104A9800474B03F5026393ED007BB0EE470AF0EE57
:104AA800670A0EF0E1F9B0EE407AF0EE607A9FED19
:104AB8003E1BB0EE470AF0EE670A0EF09DF9B0EE25
:104AC800407AF0EE607A3A4B03F5056303ED027B1A
:104AD800374B03F5056353E902014FF000024FF02D
:104AE8000003FBF77BFF0346002B10D0304B03F588
:104AF800056353E90223924683F0004B504659461A
:104B0800FBF7D2FF03469BB25B429BB20AE0284BFD
:104B180003F5056353E9022310461946FBF7C4FF62
:104B280003469BB2244AD380214B03F5036313ED5C
:104B3800027BB0EE470AF0EE670A0EF095F9B0EE88
:104B4800407AF0EE607A9FED181BB0EE470AF0EE5F
:104B5800670A0EF051F9B0EE407AF0EE607A144B25
:104B680003F5056303ED027B114B03F5056353E978
:104B780002014FF000024FF00003FBF72FFF03463E
:104B8800002B1BD00A4B03F5056353E902233A6552
:104B980083F000437B65D7E91401FBF785FF0346E3
:104BA8009BB25B429BB214E0000000000000F040A2
:104BB800F0030020381D0020B0030020A44B03F5AB
:104BC800056353E9022310461946FBF76DFF0346B8
:104BD8009BB2A04A13819E4B03F5036393ED007BC0
:104BE800B0EE470AF0EE670A0EF03EF9B0EE407AF2
:104BF800F0EE607A9FED941BB0EE470AF0EE670A7C
:104C08000EF0FAF8B0EE407AF0EE607A904B03F5C9
:104C1800056303ED027B8E4B03F5056353E902013F
:104C28004FF000024FF00003FBF7D8FE0346002BBD
:104C380011D0874B03F5056353E90223BA6483F067
:104C48000043FB64D7E91201FBF72EFF03469BB232
:104C58005B429BB20AE07E4B03F5056353E90223EE
:104C680010461946FBF720FF03469BB2794A538149
:104C7800774B03F5046313ED027BB0EE470AF0EEC1
:104C8800670A0EF0F1F8B0EE407AF0EE607A9FED28
:104C98006E1BB0EE470AF0EE670A0EF0ADF8B0EE04
:104CA800407AF0EE607A6A4B03F5056303ED027B08
:104CB800674B03F5056353E902014FF000024FF01B
:104CC8000003FBF78BFE0346002B11D0604B03F566
:104CD800056353E902233A6483F000437B64D7E910
:104CE8001001FBF7E1FE03469BB25B429BB20AE070
:104CF800574B03F5056353E9022310461946FBF7A2
:104D0800D3FE03469BB2534A9381524AB7F86230A6
:104D1800D381514BB3F866304E4A13824F4BB3F8E8
:104D28005839A7F864304A4B03F5EE6393ED007BDE
:104D38004B4A4C494C48B0EE470AF0EE670AFDF77B
:104D4800E5FE434B03F59B5353E90201404B03F542
:104D58000463C3E900010023BB6629E0BB6E01338D
:104D68003B4A03F26B23DB001344D3E90001384BC1
:104D780003F5056343E90201354B03F50463D3E901
:104D88000001334B03F5056353E90223FBF744FEA7
:104D98000346002B09D02E4B03F5056353E90201A6
:104DA8002B4B03F50463C3E90001BB6E0133BB66FB
:104DB800BB6E172BD2DD264B03F5825353E9020154
:104DC800234B03F5046343E902010023BB6629E092
:104DD800BB6E01331E4A03F20723DB001344D3E9F9
:104DE80000011B4B03F5056343E90201184B03F56A
:104DF800046353E90201164B03F5056353E90223E3
:104E0800FBF70AFE0346002B09D0114B03F5056397
:104E180053E902010E4B03F5046343E90201BB6E3B
:104E28000133BB66BB6E172BD2DD094B03F552630A
:104E380053E90201064B03F50563C3E900010023AA
:104E4800BB663DE0AFF30080000000000000F040CA
:104E5800F0030020B003002000000020381D0020CF
:104E6800B0000020B82C002048170020BB6E01338A
:104E78009B4A03F2A313DB001344D3E90001984BC8
:104E880003F5056343E90201954B03F50563D3E98F
:104E98000001934B03F5056353E90223FBF7BCFDBF
:104EA8000346002B09D08E4B03F5056353E9020135
:104EB8008B4B03F50563C3E90001BB6E0133BB6689
:104EC800BB6E172BD2DD864B03F5396353E902011C
:104ED800834B03F50263C3E900010023BB6629E0A5
:104EE800BB6E01337E4A03F27113DB001344D3E92E
:104EF80000017B4B03F5056343E90201784B03F599
:104F08000263D3E90001764B03F5056353E90223F5
:104F1800FBF782FD0346002B09D0714B03F50563AF
:104F280053E902016E4B03F50263C3E90001BB6E4E
:104F38000133BB66BB6E172BD2DD694B03F52063CB
:104F480053E90201664B03F5036343E902010023B9
:104F5800BB6629E0BB6E0133614A03F23F13DB00F5
:104F68001344D3E900015E4B03F5056343E90201ED
:104F78005B4B03F5036353E90201594B03F50563E2
:104F880053E90223FBF748FD0346002B09D0544B95
:104F980003F5056353E90201514B03F5036343E944
:104FA8000201BB6E0133BB66BB6E172BD2DD4C4BC7
:104FB80003F5F46313ED027B4A4A4B494B48B0EEC4
:104FC800470AF0EE670AFDF7A1FD454B03F58E533E
:104FD800103353E90201424B03F50363C3E90001AF
:104FE8000023BB6629E0BB6E01333D4A03F2392337
:104FF800DB001344D3E90001394B03F5056343E9AA
:105008000201374B03F50363D3E90001344B03F581
:10501800056353E90223FBF7FFFC0346002B09D085
:105028002F4B03F5056353E902012D4B03F5036389
:10503800C3E90001BB6E0133BB66BB6E172BD2DD23
:105048002B4BB3F85A39A7F862302A4AB7F86430BC
:105058001380234B03F5046393ED007BB0EE470AFE
:10506800F0EE670A0DF000FFB0EE407AF0EE607ADD
:105078009FED191BB0EE470AF0EE670A0DF0BCFE73
:10508800B0EE407AF0EE607A154B03F5056303ED58
:10509800027B134B03F5056353E902014FF000024D
:1050A8004FF00003FBF79AFC0346002B24D00C4B6F
:1050B80003F5056353E90223BA6383F00043FB63F6
:1050C800D7E90E01FBF7F0FC03469BB25B429BB2AB
:1050D8001DE000BFAFF30080000000000000F040BA
:1050E800F0030020A8000020D82B0020B8150020CD
:1050F800381D0020C4030020C34B03F5056353E9A2
:10510800022310461946FBF7CFFC03469BB2BF4A61
:105118005380BD4B03F5046313ED027BB0EE470AE1
:10512800F0EE670A0DF0A0FEB0EE407AF0EE607A7D
:105138009FEDB31BB0EE470AF0EE670A0DF05CFE78
:10514800B0EE407AF0EE607AAF4B03F5056303EDFD
:10515800027BAD4B03F5056353E902014FF00002F2
:105168004FF00003FBF73AFC0346002B11D0A64B87
:1051780003F5056353E902233A6383F000437B6335
:10518800D7E90C01FBF790FC03469BB25B429BB24C
:105198000AE09D4B03F5056353E9022310461946BF
:1051A800FBF782FC03469BB2984A9380964B03F523
:1051B800056393ED007BB0EE470AF0EE670A0DF049
:1051C80053FEB0EE407AF0EE607A9FED8D1BB0EEA4
:1051D800470AF0EE670A0DF00FFEB0EE407AF0EEE7
:1051E800607A894B03F5056303ED027B864B03F573
:1051F800056353E902014FF000024FF00003FBF78B
:10520800EDFB0346002B11D07F4B03F5056353E9F3
:105218000223BA6283F00043FB62D7E90A01FBF775
:1052280043FC03469BB25B429BB20AE0764B03F514
:10523800056353E9022310461946FBF735FC03467C
:105248009BB2724AD380704B03F5026393ED007BE7
:10525800B0EE470AF0EE670A0DF006FEB0EE407AAF
:10526800F0EE607A9FED661BB0EE470AF0EE670A33
:105278000DF0C2FDB0EE407AF0EE607A624B03F5B5
:10528800056303ED027B604B03F5056353E90201F7
:105298004FF000024FF00003FBF7A0FB0346002B82
:1052A80011D0594B03F5056353E902233A6283F0A1
:1052B80000437B62D7E90801FBF7F6FB03469BB284
:1052C8005B429BB20AE0504B03F5056353E90223A6
:1052D80010461946FBF7E8FB03469BB24B4A13817D
:1052E800494B03F5036313ED027BB0EE470AF0EE7A
:1052F800670A0DF0B9FDB0EE407AF0EE607A9FEDE6
:10530800401BB0EE470AF0EE670A0DF075FDB0EEEF
:10531800407AF0EE607A3C4B03F5056303ED027BBF
:10532800394B03F5056353E902014FF000024FF0D2
:105338000003FBF753FB0346002B11D0324B03F558
:10534800056353E90223BA6183F00043FB61D7E99F
:105358000601FBF7A9FB03469BB25B429BB20AE03E
:10536800294B03F5056353E9022310461946FBF759
:105378009BFB03469BB2254A5381234B03F50363EA
:1053880093ED007BB0EE470AF0EE670A0DF06CFD76
:10539800B0EE407AF0EE607A9FED191BB0EE470A46
:1053A800F0EE670A0DF028FDB0EE407AF0EE607A74
:1053B800154B03F5056303ED027B134B03F50563FA
:1053C80053E902014FF000024FF00003FBF706FB20
:1053D8000346002B1CD00C4B03F5056353E902234D
:1053E8003A6183F000437B61D7E90401FBF75CFB7A
:1053F80003469BB25B429BB215E000BFAFF300804F
:10540800000000000000F040F0030020C40300206A
:10541800AC4B03F5056353E9022310461946FBF725
:1054280043FB03469BB2A84A9381A74AB7F8623068
:10543800D381A64BB3F86C20A34B1A82A44B9B795B
:10544800002B13D09F4B03F5EE6353E90223A149C8
:1054580001F50261C1E900239A4B03F5F463D3E92E
:1054680000239C4901F5036141E902230023FB66FF
:1054780029E0964BB3F860301946924AFB6E03F563
:105488007D7332F8133001FB03F31846FAF7BAFFBD
:105498004FF00002904BFBF72FF802460B46894865
:1054A800F96EF531C9000144C1E900238B4AFB6E4E
:1054B800134400221A708A4AFB6E002122F8131046
:1054C800FB6E0133FB66FB6E072BD2DD854B00229A
:1054D8001A60854B00221A607E4B03F50A6353E974
:1054E80002014FF00002814BFAF750FE02460B46CC
:1054F800784901F50A6141E902230023FB660EE0C1
:105508007B4AFB6E134493F900106E4AFB6E1344FA
:1055180003F658030A461A70FB6E0133FB66FB6EEE
:10552800042BEDDD6B4B03F50A6353E902014FF0E1
:1055380000024FF00003FBF751FA0346002B0FD08F
:10554800644B03F50A6353E9022310461946FBF737
:1055580083FA03465B42FB66002387F867300DE059
:105568005C4B03F50A6353E9022310461946FBF71F
:1055780073FA0346FB66012387F86730FB6E052B39
:105588000BDDFA6E5B4B83FB02135910D317C91A54
:105598000B469B000B44D31AFB66FB6E022B0CDDFB
:1055A800FB6EC3F10503FB6697F86730002B0CBF51
:1055B80001230023DBB287F86730002387F85830CF
:1055C800002387F85930FB6E002B4BDD97F86730C6
:1055D800002B1FD00523BB6611E0BA6EFB6ED31AF1
:1055E8005A1EBB6E013B37490A4492F95818354A8E
:1055F80013440A4683F85828BB6E013BBB66FA6E13
:10560800BB6E9A42E9DBFB6E1A4600213A480DF060
:10561800F5FD27E0FA6E07F15803354918460DF0F5
:105628001FFEFB6EC3F105031A46002132480DF038
:10563800E5FD0023BB6611E0BA6EFB6ED31A053395
:1056480007F15801BA6E0A4492F900101D4A134432
:105658000A4683F85828BB6E0133BB66BA6EFB6EE8
:105668009A42E9DB174B254AC3F8F827154B93F9FB
:105678005A38002B03D04FF40073FB6601E0002377
:10568800FB66104BD3F8F837FA6E11461846FDF74B
:1056980026F80C4BD3F8F827FB6EDB4303F40073B2
:1056A80019461046FDF729F8064B144AC3F8F8279F
:1056B800044B93F95A38002B22D04FF48043FB66F1
:1056C80020E000BFF0030020C403002000000020F9
:1056D80028300020381D00200000503EE80300203C
:1056E800D803002094030020980300200000F03F16
:1056F8000033010867666666480C00200010004801
:105708000023FB66644BD3F8F837FA6E1146184647
:10571800FCF7E5FF604BD3F8F827FB6EDB4303F497
:10572800804319461046FCF7E8FF5B4B5B4AC3F819
:10573800F827594B93F95938002B03D04FF480734D
:10574800FB6601E00023FB66534BD3F8F837FA6E8B
:1057580011461846FCF7C3FF4F4BD3F8F827FB6EEA
:10576800DB4303F4807319461046FCF7C6FF4A4B27
:105778004A4AC3F8F827484B93F95938002B03D005
:105788004FF40043FB6601E00023FB66424BD3F86D
:10579800F837FA6E11461846FCF7A1FF3E4BD3F8CE
:1057A800F827FB6EDB4303F4004319461046FCF769
:1057B800A4FF394B394AC3F8F827374B93F95B38BC
:1057C800002B03D04FF48053FB6601E00023FB66F7
:1057D800314BD3F8F837FA6E11461846FCF77FFFBD
:1057E8002D4BD3F8F827FB6EDB4303F4805319469F
:1057F8001046FCF782FF284B294AC3F8F827264BA6
:1058080093F95838002B03D04FF48053FB6601E01E
:105818000023FB66204BD3F8F837FA6E114618467A
:10582800FCF75DFF1C4BD3F8F827FB6EDB4303F452
:10583800805319461046FCF760FF174B174AC3F808
:10584800F827154B93F95838002B03D04FF4005321
:10585800FB6601E00023FB660F4BD3F8F837FA6EBE
:1058680011461846FCF73BFF0B4BD3F8F827FB6EA5
:10587800DB4303F4005319461046FCF73EFF064B82
:10588800064AC3F8F827044B93F95B38002B09D074
:105898004FF40063FB6607E0F003002000100048A7
:1058A800000400480023FB66724BD3F8F837FA6E01
:1058B80011461846FCF713FF6E4BD3F8F827FB6E1A
:1058C800DB4303F4006319461046FCF716FF6A48E9
:1058D800FCF7F9FE0346674AC2F86038654B93F94E
:1058E80058381846FAF79EFD02460B46614901F5FD
:1058F800EE6141E902235F4B93F959381846FAF7EC
:1059080091FD02460B465B4901F5EE61C1E90023B2
:10591800584B93F95A381846FAF784FD02460B4655
:10592800544901F5F06141E90223524B93F95B3880
:105938001846FAF777FD02460B464E4901F5F06125
:10594800C1E900234B4B93F95B381846FAF76AFD17
:1059580002460B46474901F5F26141E90223454BEE
:1059680093F95A381846FAF75DFD02460B46414945
:1059780001F5F261C1E900233E4B93F95938184605
:10598800FAF750FD02460B463A4901F5F46141E940
:105998000223384B93F958381846FAF743FD024664
:1059A8000B46344901F5F461C1E90023334B93F800
:1059B8005D39002B08D14022314932480DF050FCA6
:1059C8002E4B012283F85D292C4B93F85E39002B6E
:1059D80010D1284B93F95C381846FAF723FD024694
:1059E8000B46264901F50B61C1E90023234B01222F
:1059F80083F85E29214B93F85F39002B10D11F4B98
:105A08000122C3F840271D4B0822C3F8442740222F
:105A180000211D480DF0F2FB184B012283F85F2985
:105A2800164B03F50B63D3E900014FF00002174B47
:105A3800FAF7CAFF0346002B0CD0104B0822C3F814
:105A480040270E4B0122C3F84427402210490E4834
:105A58000DF006FC074B93F95C381846FAF7E2FCA0
:105A680002460B46054901F50B61C1E900230023F5
:105A7800FB6661E0F003002000040048381D0020A8
:105A8800580B002080240020782200200000F03FDE
:105A9800980B0020AA4AFB6EE933DB001344D3E9D4
:105AA80000014FF00002A74BFAF78EFF0346002BC8
:105AB8000DD0A54AFB6EF533DB001344D3E9002370
:105AC8009F48F96EF131C9000144C1E900239C4A9D
