:020000040800F2
:1000000000800120C5BC0008997700089D77000892
:10001000A1770008A5770008A97700080000000074
:1000200000000000000000000000000089620008DD
:10003000AD770008000000004562000881610008FB
:1000400015BD000815BD000815BD000815BD000848
:1000500015BD000815BD000815BD000815BD000838
:1000600015BD000815BD000815BD0008B1770008D2
:100070003510000815BD000815BD000815BD0008A5
:10008000B5770008B9770008BD77000815BD0008EE
:1000900015BD000815BD000815BD000815BD0008F8
:1000A00015BD0008C177000815BD000815BD000882
:1000B00015BD000815BD000815BD000815BD0008D8
:1000C00015BD000815BD000815BD000815BD0008C8
:1000D00015BD000815BD000815BD000815BD0008B8
:1000E00015BD000815BD000815BD000815BD0008A8
:1000F00015BD000815BD000815BD000815BD000898
:1001000015BD000815BD000815BD000815BD000887
:1001100015BD000815BD000815BD000815BD000877
:1001200015BD000815BD000815BD000815BD000867
:1001300015BD000815BD000815BD000815BD000857
:1001400015BD000815BD000815BD0008CD770008D5
:1001500015BD000815BD000815BD000815BD000837
:1001600015BD000815BD000815BD000815BD000827
:1001700015BD000815BD000815BD000800000000F1
:0801800015BD000815BD0008C3
:1001880081F0004102E000BF83F0004330B54FEA40
:1001980041044FEA430594EA050F08BF90EA020FAD
:1001A8001FBF54EA000C55EA020C7FEA645C7FEA40
:1001B800655C00F0E2804FEA5454D4EB5555B8BF63
:1001C8006D420CDD2C4480EA020281EA030382EAD4
:1001D800000083EA010180EA020281EA0303362D66
:1001E80088BF30BD11F0004F4FEA01314FF4801C39
:1001F8004CEA113102D0404261EB410113F0004F4B
:100208004FEA03334CEA133302D0524263EB430301
:1002180094EA050F00F0A780A4F10104D5F1200E9F
:100228000DDB02FA0EFC22FA05F2801841F10001FA
:1002380003FA0EF2801843FA05F359410EE0A5F1CE
:1002480020050EF1200E012A03FA0EFC28BF4CF0FF
:10025800020C43FA05F3C01851EBE37101F00045B5
:1002680007D54FF0000EDCF1000C7EEB00006EEBC2
:100278000101B1F5801F1BD3B1F5001F0CD349084C
:100288005FEA30004FEA3C0C04F101044FEA4452A3
:1002980012F5800F80F09A80BCF1004F08BF5FEA2A
:1002A800500C50F1000041EB045141EA050130BD0A
:1002B8005FEA4C0C404141EB0101013C28BFB1F51C
:1002C800801FE9D291F0000F04BF01460020B1FA67
:1002D80081F308BF2033A3F10B03B3F120020CDA3A
:1002E8000C3208DD02F1140CC2F10C0201FA0CF018
:1002F80021FA02F10CE002F11402D8BFC2F1200C7D
:1003080001FA02F120FA0CFCDCBF41EA0C01904032
:10031800E41AA2BF01EB0451294330BD6FEA04047B
:100328001F3C1CDA0C340EDC04F11404C4F1200266
:1003380020FA04F001FA02F340EA030021FA04F378
:1003480045EA030130BDC4F10C04C4F1200220FACF
:1003580002F001FA04F340EA0300294630BD21FA0D
:1003680004F0294630BD94F0000F83F4801306BFD3
:1003780081F480110134013D4EE77FEA645C18BFC7
:100388007FEA655C29D094EA050F08BF90EA020F5E
:1003980005D054EA000C04BF1946104630BD91EA56
:1003A800030F1EBF0021002030BD5FEA545C05D159
:1003B8004000494128BF41F0004130BD14F5800498
:1003C8003CBF01F5801130BD01F0004545F0FE410C
:1003D80041F470014FF0000030BD7FEA645C1ABF41
:1003E800194610467FEA655C1CBF0B46024650EA78
:1003F800013406BF52EA033591EA030F41F40021A4
:1004080030BD00BF90F0000F04BF0021704730B529
:100418004FF4806404F132044FF000054FF00001FE
:1004280050E700BF90F0000F04BF0021704730B5BF
:100438004FF4806404F1320410F0004548BF404294
:100448004FF000013EE700BF42004FEAE2014FEAE9
:1004580031014FEA02701FBF12F07F4393F07F4FC4
:1004680081F06051704732F07F4208BF704793F0C7
:100478007F4F04BF41F40021704730B54FF46074DA
:1004880001F0004521F000411CE700BF50EA0102DD
:1004980008BF704730B54FF000050AE050EA010286
:1004A80008BF704730B511F0004502D5404261EBF6
:1004B80041014FF4806404F132045FEA915C3FF437
:1004C800D8AE4FF003025FEADC0C18BF03325FEAD4
:1004D800DC0C18BF033202EBDC02C2F1200300FA85
:1004E80003FC20FA02F001FA03FE40EA0E0021FAAA
:1004F80002F11444BDE600BF70B54FF0FF0C4CF498
:10050800E06C1CEA11541DBF1CEA135594EA0C0F49
:1005180095EA0C0F00F0DEF82C4481EA030621EA84
:100528004C5123EA4C5350EA013518BF52EA0335BF
:1005380041F4801143F4801338D0A0FB02CE4FF071
:100548000005E1FB02E506F00042E0FB03E54FF0A1
:100558000006E1FB03569CF0000F18BF4EF0010E99
:10056800A4F1FF04B6F5007F64F5407404D25FEA95
:100578004E0E6D4146EB060642EAC62141EA555148
:100588004FEAC52040EA5E504FEACE2EB4F1FD0C8A
:1005980088BFBCF5E06F1ED8BEF1004F08BF5FEA08
:1005A800500E50F1000041EB045170BD06F00046BA
:1005B80046EA010140EA020081EA0301B4EB5C0467
:1005C800C2BFD4EB0C0541EA045170BD41F480115F
:1005D8004FF0000E013C00F3AB8014F1360FDEBF84
:1005E800002001F0004170BDC4F10004203C35DA60
:1005F8000C341BDC04F11404C4F1200500FA05F3E3
:1006080020FA04F001FA05F240EA020001F0004283
:1006180021F0004110EBD37021FA04F642EB0601F9
:100628005EEA430E08BF20EAD37070BDC4F10C0423
:10063800C4F1200500FA04F320FA05F001FA04F2E7
:1006480040EA020001F0004110EBD37041F10001D3
:100658005EEA430E08BF20EAD37070BDC4F12005DE
:1006680000FA05F24EEA020E20FA04F301FA05F246
:1006780043EA020321FA04F001F0004121FA04F2EE
:1006880020EA020000EBD3705EEA430E08BF20EABE
:10069800D37070BD94F0000F0FD101F000464000F8
:1006A80041EB010111F4801F08BF013CF7D041EA7A
:1006B800060195F0000F18BF704703F0004652007E
:1006C80043EB030313F4801F08BF013DF7D043EA4F
:1006D8000603704794EA0C0F0CEA135518BF95EA05
:1006E8000C0F0CD050EA410618BF52EA4306D1D18C
:1006F80081EA030101F000414FF0000070BD50EAAB
:10070800410606BF1046194652EA430619D094EA34
:100718000C0F02D150EA013613D195EA0C0F05D11E
:1007280052EA03361CBF104619460AD181EA030172
:1007380001F0004141F0FE4141F470014FF000002A
:1007480070BD41F0FE4141F4780170BD70B54FF0C5
:10075800FF0C4CF4E06C1CEA11541DBF1CEA135545
:1007680094EA0C0F95EA0C0F00F0A7F8A4EB050427
:1007780081EA030E52EA03354FEA013100F088801E
:100788004FEA03334FF0805545EA131343EA1263E7
:100798004FEA022245EA111545EA10654FEA00269C
:1007A8000EF000419D4208BF964244F1FD0404F555
:1007B800407402D25B084FEA3202B61A65EB0305B1
:1007C8005B084FEA32024FF480104FF4002CB6EB6E
:1007D800020E75EB030E22BFB61A754640EA0C00EE
:1007E8005B084FEA3202B6EB020E75EB030E22BF2E
:1007F800B61A754640EA5C005B084FEA3202B6EB6F
:10080800020E75EB030E22BFB61A754640EA9C002D
:100818005B084FEA3202B6EB020E75EB030E22BFFD
:10082800B61A754640EADC0055EA060E18D04FEABB
:10083800051545EA16754FEA06164FEAC30343EA5B
:1008480052734FEAC2025FEA1C1CC0D111F4801F28
:100858000BD141EA00014FF000004FF0004CB6E721
:1008680011F4801F04BF01430020B4F1FD0C88BFC0
:10087800BCF5E06F3FF6AFAEB5EB030C04BFB6EBCB
:10088800020C5FEA500C50F1000041EB045170BDBE
:100898000EF0004E4EEA113114EB5C04C2BFD4EBEB
:1008A8000C0541EA045170BD41F480114FF0000E6F
:1008B800013C90E645EA060E8DE60CEA135594EAEB
:1008C8000C0F08BF95EA0C0F3FF43BAF94EA0C0FEE
:1008D8000AD150EA01347FF434AF95EA0C0F7FF463
:1008E80025AF104619462CE795EA0C0F06D152EAB7
:1008F80003353FF4FDAE1046194622E750EA41069B
:1009080018BF52EA43067FF4C5AE50EA41047FF4AB
:100918000DAF52EA43057FF4EBAE12E74FF0FF3C10
:1009280006E000BF4FF0010C02E000BF4FF0010CE1
:100938004DF804CD4FEA410C7FEA6C5C4FEA430C5A
:1009480018BF7FEA6C5C1BD001B050EA410C0CBFA9
:1009580052EA430C91EA030F02BF90EA020F00200B
:10096800704710F1000F91EA030F58BF994208BF72
:1009780090422CBFD8176FEAE37040F0010070472F
:100988004FEA410C7FEA6C5C02D150EA013C07D186
:100998004FEA430C7FEA6C5CD6D152EA033CD3D0D1
:1009A8005DF8040B704700BF8446104662468C46CB
:1009B8001946634600E000BF01B5FFF7B7FF0028FE
:1009C80048BF10F1000F01BD4DF808EDFFF7F4FF27
:1009D8000CBF012000205DF808FB00BF4DF808EDB2
:1009E800FFF7EAFF34BF012000205DF808FB00BFD5
:1009F8004DF808EDFFF7E0FF94BF012000205DF8F7
:100A080008FB00BF4DF808EDFFF7CEFF94BF0120AB
:100A180000205DF808FB00BF4DF808EDFFF7C4FFA4
:100A280034BF012000205DF808FB00BF4FEA410CED
:100A38007FEA6C5C02D150EA013C0AD14FEA430CD0
:100A48007FEA6C5C02D152EA033C02D14FF000000D
:100A580070474FF0010070474FEA410212F500124B
:100A680015D211D56FF47873B3EB625212D94FEAED
:100A7800C12343F0004343EA505311F0004F23FAD7
:100A880002F018BF404270474FF00000704750EA2C
:100A9800013005D111F0004008BF6FF000407047E9
:100AA8004FF00000704700BF4A0011D212F5001243
:100AB80011D20DD56FF47873B3EB62520ED44FEAAE
:100AC800C12343F0004343EA505323FA02F070472E
:100AD8004FF00000704750EA013002D14FF0FF306C
:100AE80070474FF0000070474FEA4102B2F1E0430F
:100AF80024BFB3F5001CDCF1FE5C0DD901F0004CFD
:100B08004FEAC0024CEA5070B2F1004F40EB83004C
:100B180008BF20F00100704711F0804F21D113F178
:100B28003872BCBF01F00040704741F480114FEAB1
:100B38005252C2F11802C2F1200C10FA0CF320FA3A
:100B480002F018BF40F001004FEAC1234FEAD32357
:100B580003FA0CFC40EA0C0023FA02F34FEA4303C1
:100B6800CCE77FEA625307D150EA01331EBF4FF04A
:100B7800FE4040F44000704701F0004040F0FE4065
:100B880040F40000704700BF0348044B834202D082
:100B9800034B03B118477047C8020020C802002061
:100BA800000000000548064B1B1AD90F01EBA301F2
:100BB800491002D0034B03B118477047C802002000
:100BC800C80200200000000010B5064C237843B985
:100BD800FFF7DAFF044B13B10448AFF30080012399
:100BE800237010BDC802002000000000D8C1000812
:100BF80008B5054B1BB105490548AFF30080BDE8B2
:100C08000840FFF7CFBF00BF00000000CC02002063
:100C1800D8C10008CB0703D50368DA6852064DD55A
:100C28008B0703D50368DA68920742D54B0703D5CB
:100C38000368DA68520737D50B0703D50368DA6803
:100C480012072CD5CB0603D50368DA68D20621D55E
:100C58008B0603D50368DA68D20716D54B0603D589
:100C68000368DA6812060BD5090603D50368DA6843
:100C7800920600D57047DA6842F02002DA607047C1
:100C8800DA6842F08002DA60EEE7DA6842F00102E0
:100C9800DA60E3E7DA6842F01002DA60D8E7DA6887
:100CA80042F00802DA60CDE7DA6842F00402DA605E
:100CB800C2E7DA6842F00202DA60B7E7DA6842F0BF
:100CC8004002DA60ACE700BFCB0703D50368DA68F7
:100CD80052064CD48B0703D50368DA68920741D4CF
:100CE8004B0703D50368DA68520736D40B0703D5D8
:100CF8000368DA6812072BD4CB0603D50368DA68D1
:100D0800D20620D48B0603D50368DA68D20715D536
:100D18004B0603D50368DA6812060AD4090607D514
:100D28000368DA68920603D5DA6822F02002DA60EE
:100D38007047DA6822F08002DA60EFE7DA6822F0BA
:100D48000102DA60E4E7DA6822F01002DA60D9E733
:100D5800DA6822F00802DA60CEE7DA6822F00402E4
:100D6800DA60C3E7DA6822F00202DA60B8E7DA6824
:100D780022F04002DA60ADE7022921D00368134A65
:100D880093420FD002F5006293420BD002F5406205
:100D9800934207D002F58062934203D002F5806245
:100DA800934203D1032906D0042900D070471A6A58
:100DB80042F001021A621A6A42F004021A6270478B
:100DC8000268136A43F0010313627047002C014064
:100DD800022921D00368134A93420FD002F500621A
:100DE80093420BD002F54062934207D002F580622D
:100DF800934203D002F58062934203D1032906D0BF
:100E0800042900D070471A6A22F001021A621A6A8D
:100E180022F004021A6270470268136A23F0010381
:100E280013627047002C0140022921D00368134A3D
:100E380093420FD002F5006293420BD002F5406254
:100E4800934207D002F58062934203D002F5806294
:100E5800934203D1032906D0042900D070471A6AA7
:100E680042F010021A621A6A42F040021A6270478F
:100E78000268136A43F0100313627047002C0140A4
:100E8800022921D00368134A93420FD002F5006269
:100E980093420BD002F54062934207D002F580627C
:100EA800934203D002F58062934203D1032906D00E
:100EB800042900D070471A6A22F010021A621A6ACE
:100EC80022F040021A6270470268136A23F0100386
:100ED80013627047002C0140022921D00368134A8D
:100EE80093420FD002F5006293420BD002F54062A4
:100EF800934207D002F58062934203D002F58062E4
:100F0800934203D1032906D0042900D070471A6AF6
:100F180042F480721A621A6A42F480621A62704756
:100F28000268136A43F4807313627047002C01400F
:100F3800022921D00368134A93420FD002F50062B8
:100F480093420BD002F54062934207D002F58062CB
:100F5800934203D002F58062934203D1032906D05D
:100F6800042900D070471A6A22F480721A621A6A39
:100F780022F480621A6270470268136A23F480734D
:100F880013627047002C0140022904D10268136AD9
:100F980043F4805313627047022904D10268136A2C
:100FA80023F4805313627047084B02689A420AD1AF
:100FB8001368074906480A6013F0600314BF012349
:100FC80012680B71704700231A60FFDE00040040AE
:100FD800E40200200369DA6812F4406F24D1427AEF
:100FE800022A08D0427A042A05D0427A082A02D076
:100FF8001A68110718D51A68D20602D510221A6085
:101008004272427A102A0FD0427A082A0CBF012273
:10101800202242729A6822F0004222F03F0242F0F7
:10102800040200209A60704701207047154916484D
:101038008A794B69825C9858800703EB020C1DD5AE
:10104800186880061BD504204872202058609858DC
:10105800800615D4985820F0010010B40C689850F8
:10106800DCF80410090C09042143CCF80410995841
:101078005DF8044B41F00101995070477047704783
:10108800704700BF70030020F0C100080129026901
:101098000DD0D36C13F0C00F00D17047936823F0C4
:1010A800004323F03F0343F0080393607047D3687D
:1010B80013F4406FF1D0936823F0004323F03F030B
:1010C80043F0040393607047F0B4324C0569A542BD
:1010D8002FD1314C4FF0000C012B256184F807C04B
:1010E80024D04AB3637A082B20D0C76842690668BF
:1010F800E760626190F806C084F806C0037923713E
:101108002B6B0498266023F00F03034301292B63FC
:1011180007D0042920D0022903D16B6843F00803C3
:101128006B60082363721C48F0BC70472046F0BC13
:1011380070470020F0BC7047A37A082BF6D043799B
:101148006371022903D008231348A372EFE76B6881
:1011580043F040036B60F6E7104BE96813F80C3076
:1011680041F00301D018E9600D4981608160C760D2
:101178004168090C090431434160D15841F002012A
:10118800D150D15841F00801D150D15841F0010156
:10119800D150C6E70001045070030020F0C10008D8
:1011A8004001045002699368DB0707D4936823F071
:1011B800004323F03F0343F001039360704700BFEF
:1011C800036953B1012928D0042910B5944604466F
:1011D80005D0022923D0012010BD01207047DA680C
:1011E80012F4406FF7D1012242729A6822F000424D
:1011F80022F03F0242F004029A60637A042BFCD189
:10120800E379012B21D02268E168520060460AF098
:10121800D1FF08236372002010BDFFF7DBBE437ABD
:10122800202B05D0437A042B02D0437A102BD2D13D
:10123800E3790822012B627210D02268E16852001B
:1012480060460AF0B7FF002010BD2368E1685A0025
:1012580001EB430160460AF0ADFFDAE72368E16875
:101268005A0001EB430160460AF0A4FF002010BDBC
:10127800036910B49C68E40707D59C6824F0004C07
:101288002CF03F0C4CF002049C605C68240603D5EB
:101298005C6824F080045C605C68E40603D55C68E4
:1012A80024F010045C6092B1012903D0022936D0E1
:1012B800042916D0002282710271196BC26021F0D4
:1012C8000F010260426119635DF8044B70470229FF
:1012D8004271F9D15A685DF8044B22F040025A6015
:1012E80070478179104C4269615C545824F00104BC
:1012F8005450545824F004045450545824F008040A
:101308005450545824F0020454500A445168090CAB
:1013180009045160DA6822F00302DA60CAE75A6801
:1013280022F008025A60C5E7F0C1000810B403694A
:101338009A6812F0010283B007D09C6824F0004C30
:101348002CF03F0C4CF002049C6031BB996821F0F2
:10135800404121F03F0141F000419960996800291E
:10136800FCDB002304E000BFBDF8063001331BB2EC
:10137800ADF80630BDF806309BB2032BF3D942B165
:101388000269936823F0004323F03F0343F001030D
:10139800936003B05DF8044B70470129996821F008
:1013A800404121F03F0126D041F000419960996801
:1013B8000029FCDB0021ADF80610BDF8061089B243
:1013C80003290CD800BFBDF8063001331BB2ADF8B5
:1013D8000630BDF806309BB2032BF3D90369996830
:1013E80021F0404121F03F0141F040419960996866
:1013F8000029B6DAFBE741F0404199609968002975
:10140800AFDAFBE770B51D4C002604F5A87E03E0B3
:1014180094451CD0A6452FD034F902CF8445F7D186
:10142800B4F950518D42F3D1B4F9A0529542EFD19D
:10143800B4F9F0539D42EBD14FF0000C944526804F
:10144800A4F85061A4F8A062A4F8F063E2D1B4F95A
:1014580050C19C45DED1B4F9A0528542DAD1B4F925
:10146800F0538D42D6D1A6452680A4F85061A4F841
:10147800A062A4F8F063CFD170BD00BF361D002074
:101488002DE9F04F7B4B7C497C4AC3F8D8190024DE
:101498000127C3F8DC29C3F8D079C3F8D449214619
:1014A800184683B04FF4A8620AF052FE4FF0020BC0
:1014B8000346214647F6FF7500F58036CDE90067FB
:1014C800012000220FFA87FCACB1A94260D08E46F9
:1014D800019F23F81E700EF1A8090EF5A8780EF5E5
:1014E800FC7E0FFA80FA23F819A0013123F818407E
:1014F80023F81EA009B29AB1A94200F095808E4641
:101508000EF1A80823F81EC023F818000EF5A878D5
:101518000EF5FC7E23F818C0013123F81E2009B20D
:10152800062C6BD0A94200F08D808E46019F23F8CF
:101538001E700EF1A8090EF5A8780EF5FC7E0FFABC
:1015480080FA0131062A23F819A009B223F818B045
:1015580023F81EA057D0A94279D04F1C8E4601F11E
:10156800A80A01F5A87901F5FC7839B223F81EC05C
:1015780002F1020E0132072A23F81A0023F819C0D3
:1015880000F1010023F818E09ED1DDE900673BE097
:101598003B4F019EA7F8FC6F009E0FFA80FAA6F851
:1015A8004CA1009EA6F89C42009EA6F8ECA3B2B3FC
:1015B800A7F8FCCFA6F84C01009EA6F89CC2009E96
:1015C800062CA6F8EC2340D02D49019EA1F8FC6F0B
:1015D8000099A1F84CA10099A1F89CB20099062A9B
:1015E800A1F8ECA33CD047F6FF7148F2F61848F290
:1015F8004E1948F2A60A47F6FE7EB7E7062AAAD190
:1016080003B0BDE8F08F009E01340BF10102072CF6
:1016180007F101071FFA82FB7FF450AFF0E7062CB1
:1016280015D0A6F89CB2DEE7009E154FA7F8FCCFB0
:10163800A6F84C01009EA6F89CC2009E062CA6F8AF
:10164800EC2312D00FFA80FABEE7062AD8D048F267
:10165800F61848F24E1948F2A60A47F6FE7E85E7C4
:10166800374647F6FF71009ECEE7062AEFD1019F65
:10167800CAE700BF381D0020010002000200010077
:10168800380D01202DE9F04F904C914B914D04F508
:10169800F46151E9020183B00022FFF795F90028AF
:1016A80040F0BC8004F5EE61D1E90001002200237E
:1016B800FFF78AF9002800F0B1808749844B51E987
:1016C80002010022FFF780F9002840F04F82834989
:1016D8007F4BD1E900010022FFF776F9002840F09E
:1016E80010827F4B6FF0802103F1600243F8041BE6
:1016F8009342FBD147F6FF79C42200217948A4F828
:1017080064970AF025FDC8260223C5F8CC394FF4A2
:1017180048720021C5F8C86973480AF019FD4FF4EA
:1017280048726A4800210AF013FDB5F9DA89B5F95B
:10173800D879A4F8207308F1FF33C3EBC3033B4403
:1017480003F27F3304EB430300229A80A5F8E829CB
:10175800A4F8B084BB464346012600951A46013BCF
:10176800C3EBC3035B4403F27F336048019704EB88
:101778004305924630F9023F5B451CD033465C4A2C
:101788009042F7D1012B019F0BD05A49013B5A00D7
:10179800881E01920AF0C2FC5749019A881E0AF075
:1017A800BDFC013EB1B236B2002972D0B4F9B034F2
:1017B800B4F920B3D2E7B0F950315345DED1B5F9C9
:1017C80004200132B2F5004FD8D0B0F9F073B0F967
:1017D800A0C27B1EC3EBC303634403F27F3104EB57
:1017E8004101B1F904E07245C8DA8A8003F21F3278
:1017F80003F554734E4524F812B024F813A042D0D0
:10180800731C324606F1C8011EB202F5C87201F512
:10181800C87124F812C024F81170B0E7B5F9D809D6
:10182800B5F9D2C9DFF8D8E0B5F9DA19B5F9D06950
:10183800B5F9D439B5F9D62984440E44F445B8BF6E
:10184800F446764547F6FF77B8BF7646BE42D4BF22
:10185800C3EB0603C3EB0703BC45D4BFC2EB0C02C2
:10186800C2EB07027345B8BF73467245B8BF7246EC
:10187800BB42A8BF3B46BA42A8BF3A461BB212B207
:10188800FFF7C0FD19E7334648F2C60147F6FE7276
:10189800BBE7009D14484FF448720AF059FCB5F9AB
:1018A800DCB9B5F8DE39A4F820B3BBF1000FA4F811
:1018B800B034D8BF4FF0FF3263DD104E00954FF0C3
:1018C800010C06F5C97A06F2223920E0E803002067
:1018D8000000F03F381D0020780B0020680B002026
:1018E800EC0A0020280A002008070020361D0020E6
:1018F800861E00200A0700209A080020780500208C
:101908000080FFFF954214BF0FFA81FCAC460CF132
:1019180000400138514624F810B0B4F9B03426F824
:101928001030013BB4F92003C3EBC303034403F2B3
:101938001F3003F5547334F910B034F813E0A4F8E9
:10194800B2E44FF4C772D548A4F822B30FFA8CF565
:101958000AF0E4FB4FF4C7724946D1480AF0DEFBAF
:10196800BBF1000F47F6FF7205F10101CADC2B46F7
:10197800009D13F5004FA5F8E83903F1FF3200F098
:10198800BC80531EC73234F91360BE4251DDB5F92D
:10199800D039012B00F01F81B5F9D4C9BCF1010F72
:1019A8004FF000004FF0000100F02C8134F91230A4
:1019B80043455FDDB5F9D229012A00F05681B5F912
:1019C800D649B5F9D439012C0ED1B5F9D019A5F8F5
:1019D800D429A5F8D639A5F8D049A5F8D2191C46B6
:1019E80013460A46AF490020012B0CD1A5F8D62989
:1019F800B5F8D029A5F8D24900204FF08041A5F8C4
:101A0800D429A5F8D039BE4261DAB5F9D239012B0B
:101A18000CD1D5F8D429B5F8D019A5F8D419A5F85A
:101A2800D63900204FF08041C5F8D02903B0BDE871
:101A3800F08F80F22F81B5F9D0C9BCF1010F00F009
:101A48000481B5F9D43900200021012BAED1B5F9B4
:101A5800D219A5F8D419B5F8D619A5F8D63934F994
:101A68001230A5F8D01943458E49A5F8D2C94FF0D0
:101A780000009FDCC7DAB5F9D229012A00F0D3802B
:101A8800B5F9D649B5F9D039012C0ED1B5F9D41923
:101A9800A5F8D029A5F8D639A5F8D449A5F8D219BA
:101AA8001C4613460A4680490020012BABD1A5F8F5
:101AB800D629BE42B5F9D429A5F8D249A5F8D02926
:101AC800A5F8D4394FF000004FF080419DDBBE42AD
:101AD800ACDDB5F9D639012BA8D1D5F8D029B5F99F
:101AE800D419A5F8D01900204FF08041C5F8D429A1
:101AF800A5F8D23903B0BDE8F08F6C4A6FF4004303
:101B080041E7B5F9D809B5F9D4C9DFF8A4E1B5F9C1
:101B1800DA19B5F9D269B5F9D639B5F9D0298444B5
:101B28000E44F445B8BFF446764547F6FF77B8BF8C
:101B38007646BE42D4BFC3EB0603C3EB0703BC45DE
:101B4800D4BFC2EB0C02C2EB07027345B8BF7346A1
:101B58007245B8BF7246BB42A8BF3B46BA42A8BF4F
:101B68003A461BB212B2FFF74DFCBAE5B5F9D809EF
:101B7800B5F9D0C9DFF838E1B5F9DA19B5F9D66998
:101B8800B5F9D239B5F9D42984440E44F445B8BF1F
:101B9800F446764547F6FF77B8BF7646BE42D4BFCF
:101BA800C3EB0603C3EB0703BC45D4BFC2EB0C026F
:101BB800C2EB07027345B8BF73467245B8BF724699
:101BC800BB42A8BF3B46BA42A8BF3A461BB212B2B4
:101BD800FFF718FC7BE5B5F9D2C9B5F9D419B5F901
:101BE800D639A5F8D619BCF1010F4FF00101A5F8B7
:101BF800D219A5F8D4C92B49A5F8D0394FF000005F
:101C08007FF4D4AE34F91210B5F9D249B5F9D62912
:101C1800A5F8D2C98845A5F8D049A5F8D429A5F8CA
:101C2800D63928DB33DDB5F9D449B5F9D029B5F96A
:101C3800D639A5F8D2290121A5F8D419A5F8D039A3
:101C48001849A5F8D64900201EE7D5F8D219B5F9E4
:101C5800D639B5F9D2C9A5F8D4390120A5F8D609DD
:101C6800C5F8D01900201049EFE6B5F9D049B5F903
:101C7800D429B5F9D639A5F8D2290121A5F8D01962
:101C8800A5F8D4390849A5F8D64900209BE60649A5
:101C980000201CE70020002188E600BF080700207C
:101CA800980800200000F03F0000F0BFC780FFFF49
:101CB8000080FFFF000000002DE9F04FC04EDFF864
:101CC800089356E902454FF0000883B042464B4658
:101CD80020462946FEF778FE00283AD0B346FBE9AD
:101CE800040100220023FEF76FFE002800F00E8199
:101CF800DFF800A3B34F0026D346CAE900676BE9B3
:101D08000467B04B002230463946FEF75DFE0028D6
:101D180000F07481AC4B204629460022FEF754FEA1
:101D2800002800F01181A94B0022D3E90001A64B3D
:101D3800FEF74AFE002800F007819FED977B0026FA
:101D48004FF04047CAE90067CBE900678DED007B9B
:101D580022E02046294600220023FEF735FE00280F
:101D680000F05D81D6E9046742464B463046394665
:101D7800FEF72AFE002800F09780DFF878A2D34605
:101D8800CAE900896BE90489914B0022304639463B
:101D9800FEF7B2FBCDE900015AE902233046394685
:101DA800FEF7F4F97EA3D3E9002304460D46FEF7B7
:101DB800A3FB02460B4620462946FEF7E5F9804676
:101DC80089465BE902234AE9028930463946FEF72B
:101DD800DBF9804B04460D4653E9020172A3D3E9AF
:101DE8000023FEF789FB02460B4620462946FEF7EC
:101DF800CDF9784B04460D4643E902454046764BFB
:101E080049460022FEF778FBDDE90023FEF7BEF91C
:101E180002460B462046294614461D4600226F4BB3
:101E2800FEF76AFB02460B4620462946FEF7AEF946
:101E38004BE9026702460B4604460D4600206849F6
:101E4800684FFEF7A1F9002632463B468046894690
:101E5800FEF7D8FD00287CD0DFF894A14946CAE9EE
:101E68000089DFF87C9140464FF0000842464B4617
:101E7800FEF7D2FD00286FD042464B462046294641
:101E8800CAE90089FEF782F932463B4604460D4608
:101E9800FEF7B8FD00286ED134463D46524B43E963
:101EA800024503B0BDE8F08F3046394600220023D2
:101EB800FEF78AFD002800F0B2809FED3D7BDFF839
:101EC80034A153EC172BD3466BE8042317EE106AA2
:101ED8001F463D4B204629460022FEF775FD002887
:101EE8003FF452AF394B0022D3E90001364BFEF7DD
:101EF8006BFD00283FF448AF3C4BD3F80069DBF892
:101F0800043003F10047CAE900673DE7DFF8E4A0C1
:101F1800DAE9006742464B4630463946FEF754FD3B
:101F2800002879D0DBE90001274B0022FEF74CFDA1
:101F3800002600286CD0DFF8C0B04FF08047CAE90F
:101F48000067CBE900671FE79FED1B7B8DED007BEA
:101F580022E7274BC3E90067214B224F0022204686
:101F68002946FEF713F9002632463B4604460D463D
:101F7800FEF748FD48B11A4F002632463B46204638
:101F88002946FEF749FD002888D0174B43E9026728
:101F980003B0BDE8F08F00BF0000000000003EC0A5
:101FA8007B14AE47E17A743F9A9999999999E93FD8
:101FB80000000000000000000000000000002EC02B
:101FC800680B00200000F0BF0000F03F780B0020F5
:101FD80000002E40582600200000E03F00405F40EF
:101FE80000005940000059C0080C0020381D00208E
:101FF800F80B002048260020382600200022002365
:1020080030463946FEF7E0FC00287FF462AFBBE6B5
:10201800104FDFF844B0B7E6AAF1100B71E6DFF80D
:102028003CA00C4BDAE90067002230463946FEF73F
:10203800CBFC0028F0D0074B204629460022FEF7AB
:10204800C3FCAAF1100B00283FF49EAEDFF810B0D5
:1020580068E700BF0000F03F38260020482600202F
:10206800780B0020034B5B79B3FA83F35B09437069
:10207800704700BFC03000202DE9F04F2DED108BC8
:10208800B449B54C4A79B54D531CDBB20A2BB2FAA8
:1020980082F228BF00235209ABB08A714B712246E5
:1020A800D5F814080421FFF78BF8B5F8EA39AC4ADB
:1020B800E1892688A789B4F804C06089A2F8F66780
:1020C8009BB219931346A2F8EA77A3F8F2C7A2F8CD
:1020D800E817CDF828C06288B4F808C0E488A3F8E7
:1020E800EC0708902046A3F8EEC7A3F8F427A3F856
:1020F800F0070C9008466446CDF860C0169617970E
:1021080006921491FEF77EF90A46014642EC171B27
:10211800944B384603ED027BCDE92612FEF772F99F
:102128000A4601468F4B08988F4F42EC171B83EDE8
:10213800007BCDE91012FEF765F90A46014642EC2C
:10214800171B204607ED027BCDE91C12FEF75AF952
:1021580003460C4644EC173B0C9887ED007BCDE911
:102168001A34FEF74FF90A46014642EC171B0A9843
:1021780087ED027BCDE91212FEF744F90A460146C3
:1021880042EC171B069887ED047BCDE90412FEF795
:1021980039F9CDE90E01C7E906013046FEF732F9F3
:1021A800724B05F58856D3E93245CDE92401C7E9D4
:1021B80008012246D6E900012B46FEF705FC08B9BE
:1021C800C6E900456A4C6B495022204609F0F2FFE7
:1021D800DDE910232746E7E914236649482204F17C
:1021E800580009F0E7FFA04650223946614809F037
:1021F800E1FFF8E80434214658E90245184622462A
:102208002B46CDE91E01FEF7E9FB002801F09C836F
:102218000126D8E9008922462B4640464946FEF762
:10222800FBFB10B144464D460126DFF858A15AE998
:10223800028922462B4640464946FEF7EDFB10B17F
:1022480044464D460126DAE9008922462B46404697
:102258004946FEF7E1FB10B144464D460126DFF83A
:1022680028A15AE9028922462B4640464946FEF7EC
:10227800D3FB10B144464D460126DAE900892246CF
:102288002B4640464946FEF7C7FB10B144464D462B
:102298000126DFF8F8A05AE9028922462B46404673
:1022A8004946FEF7B9FB10B144464D460126DAE926
:1022B800008922462B4640464946FEF7ADFB57E9C2
:1022C80002AB002801F0308342464B46504659463F
:1022D800FEF7A2FB002801F04383244B264ED3E9E6
:1022E8003845D6E9000122462B46FEF76DFB08B9B2
:1022F800C6E90045214D2249C822284609F05AFF5F
:10230800C5E932AB1E4905F1D000C02209F052FFE1
:102318002C4605F1C801C822194809F04BFFF4E81A
:1023280002894FF0000A4B464246CDE91E8904F166
:10233800C005D1469B469246F4E8026752465B4682
:1023480030463946FEF74AFB10B3B246BB464FF05B
:1023580001091DE0C03000208C030020381D00203A
:10236800E8030020580B0020680B00200000002024
:10237800D8180020402E0020E82F0020A81B00209D
:10238800F02F0020F8180020081900201819002044
:10239800A542D1D14BEC1CABCA46DDE91E89BAF186
:1023A800000F01D149EC1C8BAE4BAF4ED3E92C4545
:1023B800D6E9000122462B46FEF706FB08B9C6E916
:1023C8000045AA4CAA49C822204609F0F3FE9DED13
:1023D8001C7BA74984ED327BC02204F1D00009F0B0
:1023E800E9FE2646A24804F1C801C82209F0E2FE27
:1023F800B6EC02BB04F1C003083359EC1B8B1C96E6
:10240800239300279A46F6E8024542464B46204663
:102418002946FEF701FB10B1A046A94601275645FB
:10242800F1D149EC1D8B1FB9B0EE4BDAF0EE6BDA47
:102438008C4B904ED3E92845D6E9000122462B461D
:10244800FEF7C2FA08B9C6E900458B4C8B49C82289
:10245800204609F0AFFE9DED1A7B884984ED327B5A
:10246800C02204F1D00009F0A5FE2646834804F1F5
:10247800C801C82209F09EFEB6EC02AB04F1C803FD
:1024880059EC1A8B2096219300279A46F6E80245C4
:1024980042464B4620462946FEF7BEFA10B1A046F2
:1024A800A9460127B245F1D149EC1E8B1FB9B0EE00
:1024B8004AEAF0EE6AEA6B4B714ED3E92645D6E953
:1024C800000122462B46FEF77FFA08B9C6E9004507
:1024D8006C4C6D49C822204609F06CFE9DED127BBC
:1024E800694984ED327BC02204F1D00009F062FE14
:1024F8002646654804F1C801C82209F05BFEB6EC1F
:10250800029B04F1C80359EC198B1A9622930027F1
:102518009A46F6E8024542464B4620462946FEF7CB
:102528007BFA10B1A046A9460127B245F1D149EC82
:102538001F8B1FB9B0EE49FAF0EE69FA494B534EBA
:10254800D3E92445D6E9000122462B46FEF73CFA9A
:1025580008B9C6E900454E4C4E49C822204609F044
:1025680029FE9DED047B4B4984ED327BC02204F1AA
:10257800D00009F01FFE2746464804F1C801C822CA
:1025880009F018FEB7EC028B04F1C8035BEC18AB3A
:102598001E934FF000083E469946F6E8024552461B
:1025A8005B4620462946FEF737FA18B1A246AB46E5
:1025B8004FF001084E45F0D1CDE912ABB8F1000F4C
:1025C80001D18DED128B274B334ED3E9344556E9B3
:1025D800020122462B46FEF7F7F908B946E90245FB
:1025E8002E4C2D495022204609F0E4FDDDE90E234A
:1025F800A346EBE914232849482204F1580009F0BE
:10260800D9FDA04650225946234809F0D3FDF8E8E1
:102618000434214658E90245184622462B46CDE99E
:102628000401FEF7DBF9002801F06D810126D8E9E5
:10263800008922462B4640464946FEF7EDF910B17F
:1026480044464D460126DFF858A05AE90289224639
:102658002B4640464946FEF7DFF918B344464D4637
:1026680001261FE000000020982B002028140020DD
:10267800A02B0020D829002008110020E0290020E4
:10268800F8280020780F00200029002018280020B2
:10269800E80D002020280020A82E0020781900200E
:1026A80098190020DAE9008922462B464046494617
:1026B800FEF7B2F910B144464D460126DFF8C4A32F
:1026C8005AE9028922462B4640464946FEF7A4F9B4
:1026D80010B144464D460126DAE9008922462B46C8
:1026E80040464946FEF798F910B144464D46012642
:1026F800DFF894A35AE9028922462B464046494608
:10270800FEF78AF910B144464D460126DAE90089F8
:1027180022462B4640464946FEF77EF9002801F03E
:10272800E5801BED027B424651EC170B4B468DEDC5
:10273800047BFEF771F9002801F0E180C44BC54E17
:10274800D3E93645D6E9000122462B46FEF73CF987
:1027580008B9C6E90045C04CC049C822204609F05E
:1027680029FD9DED047BBD4984ED327BC02204F137
:10277800D00009F01FFD2646B84804F1C801C82258
:1027880009F018FDB6EC027BB54B8DED047B03F523
:10279800B7585BEC17AB08F118084FF00009F6E8DA
:1027A800024552465B4620462946FEF717F918B1FE
:1027B800A246AB464FF001094645F0D1A84A182376
:1027C800C2F86038B9F1000F01D1DDE904ABB0EE11
:1027D8004C0AF0EE6C0AA34BA34CB3F8EC399DB24B
:1027E800199B238009F0D0FA9FED971B09F096FA00
:1027F80059EC108B10EE100A002200234946FEF710
:10280800EDF8002841F0AF8440464946FEF74CF900
:1028180080B26080B0EE4D0AF0EE6D0A09F0B4FAAD
:102828009FED891B09F07AFA59EC108B10EE100A0B
:10283800002200234946FEF7D1F8002841F08A8497
:1028480040464946FEF730F980B2A080B0EE4E0A05
:10285800F0EE6E0A09F098FA9FED7B1B09F05EFA1C
:1028680059EC108B10EE100A002200234946FEF79F
:10287800B5F8002841F0658440464946FEF714F94A
:1028880080B2E080B0EE4F0AF0EE6F0A09F07CFAF1
:102898009FED6D1B09F042FA59EC108B10EE100AEF
:1028A800002200234946FEF799F8002841F04084A9
:1028B80040464946FEF7F8F880B220819DED120B9C
:1028C80009F062FA9FED601B09F028FA59EC108BA9
:1028D80010EE100A002200234946FEF77FF8002870
:1028E80041F0AF8440464946FEF7DEF880B2608189
:1028F8004BEC10AB09F048FA9FED531B09F00EFAA8
:1029080059EC108B10EE100A002200234946FEF7FE
:1029180065F8002841F08C8440464946FEF7C4F823
:1029280080B2524E4A4AA081A6F58153E581B3F898
:10293800EE399BB20493B2F876302382D2E930455F
:10294800D6E9000122462B46FEF73EF808B9C6E94B
:102958000045474E4749C822304609F02BFC9DEDFB
:10296800107B444986ED327B06F1D000C02209F085
:1029780021FCC822B1183F4809F01CFC96ED00DB89
:102988000836A6F6383383ED00DB06F1B80A59ECB1
:102998001D8B0AF1080A4FF0000BF6E80245424683
:1029A8004B4620462946FEF719F818B1A046A94615
:1029B8004FF0010BB245F0D1BBF1000F04D02E4B04
:1029C800C3E9008949EC1D8B2C4B1C9C239D03ED0E
:1029D80002BB59EC1B8B0026F4E802AB42464B467F
:1029E80050465946FDF7FAFF10B1D046D9460126A0
:1029F800AC42F1D126B1214B43E9028949EC1B8B4A
:102A08001E4BDDE9204583ED00AB59EC1A8B0026FF
:102A1800F4E802AB4046494652465B46FDF7FCFFE8
:102A280010B1D046D9460126AC42F1D126B1134B9C
:102A3800C3E9008949EC1A8B114B1A9C229D03EDBE
:102A4800029B59EC198B21E0000000000000F040C7
:102A580000000020082F0020181A0020102F002046
:102A6800E8030020381D0020A0030020582D002076
:102A780048170020602D0020180C0020280C00208A
:102A8800380C0020A8190020B81900200026F4E806
:102A980002AB42464B4650465946FDF79FFF10B1E0
:102AA800D046D9460126AC42F1D126B1C64B43E9FE
:102AB800028949EC198BC54BDDF878A083ED008BB2
:102AC80059EC188B0026F7E802454046494622464D
:102AD8002B46FDF7A1FF10B1A046A9460126574590
:102AE800F1D126B1B94BC3E9008949EC188BB84B31
:102AF800B84ED3E92E45D6E9000122462B46FDF70C
:102B080063FF08B9C6E90045B34CB449C82220465A
:102B180009F050FB9DED0E7BB04984ED327BC0225D
:102B280004F1D00009F046FBA046AC4804F1C80106
:102B3800C82209F03FFBB8EC02CBA4F51A6303EDF9
:102B480002CB04F1B00957EC1C6B09F118094FF0DE
:102B5800000AF8E802453046394622462B46FDF77A
:102B68005BFF18B126462F464FF0010AC145F0D148
:102B7800BAF1000F04D09A4B43E9026747EC1C6B8B
:102B8800B0EE4D0AF0EE6D0A964B974CB3F8F0593B
:102B9800049B238009F0F8F89FED891B09F0BEF823
:102BA80057EC106B10EE100A002200233946ADB224
:102BB800FDF714FF002841F0328330463946FDF70F
:102BC80073FF80B26080B0EE4B0AF0EE6B0A09F03A
:102BD800DBF89FED7B1B09F0A1F857EC106B10EEAA
:102BE800100A002200233946FDF7F8FE002841F0BC
:102BF8000D8330463946FDF757FF80B2A080B0EE0E
:102C08004A0AF0EE6A0A09F0BFF89FED6D1B09F059
:102C180085F857EC106B10EE100A00220023394695
:102C2800FDF7DCFE002841F0E88230463946FDF722
:102C38003BFF80B2E080B0EE490AF0EE690A09F085
:102C4800A3F89FED5F1B09F069F857EC106B10EEC5
:102C5800100A002200233946FDF7C0FE002841F083
:102C6800C38230463946FDF71FFF80B22081B0EE9F
:102C7800480AF0EE680A09F087F89FED511B09F041
:102C88004DF857EC106B10EE100A0022002339465D
:102C9800FDF7A4FE002841F0788230463946FDF75A
:102CA80003FF80B26081B0EE4C0AF0EE6C0A09F0C6
:102CB8006BF89FED431B09F031F8434957EC106B53
:102CC80081ED000B10EE100A002200233946FDF7B3
:102CD80085FE002841F0508230463946FDF7E4FE73
:102CE80080B2424B3A4A9B79B2F87C20A081E581B8
:102CF8002282002B40F00C863D4B1293344B1498E3
:102D0800B3F870403B4D04FB00F0FDF77BFB3A4BFA
:102D18000022FDF7F1FB45E90201179804FB00F0DA
:102D2800FDF770FB344B0022FDF7E6FBE5E80401F4
:102D38000898049504FB00F0FDF764FB2E4B002275
:102D4800FDF7DAFB45E90201189804FB00F0FDF7EE
:102D580059FB294B0022FDF7CFFBC5E900010C9870
:102D6800264D04FB00F0FDF74DFB234B0022FDF739
:102D7800C3FB45E902010A9804FB00F0FDF742FB9A
:102D88001D4B0022FDF7B8FBC5E90001069804FBBE
:102D980000F0FDF737FB184B0022FDF7ADFBC5E946
:102DA8000201169804FB00F0FDF72CFB124B0022E1
:102DB800FDF7A2FB124B0026C3E9006622E000BF24
:102DC800000000000000F040380C0020080C002033
:102DD80000000020782C0020B8150020802C00204E
:102DE800180C0020381D0020B4030020C03000203B
:102DF800A8250020980B00200000503EB80B0020AA
:102E0800C8300020C3E90266C14BC3E90066C14B64
:102E1800C5E904011E60C049C04B51E902011E60AA
:102E28000022BF4BFDF7B2F9BE4ABB4BA2F85C6863
:102E380004460D46012743E90245C2F858780023A5
:102E48000022FDF7CBFD804629462046B8F1000F49
:102E580041F06781FDF700FE0446062C08DDB24B01
:102E680083FB0423A3EBE47303EB4303A4EB4304C6
:102E7800032C4FF00003C4BFC4F1060447469C422C
:102E8800ADF8A4308DF8A63041F32D81002F01F064
:102E98002882A44A131B032C93F85D3882F85D3806
:102EA800A2EB040393F85C3882F85C38A2EB0403C5
:102EB80093F85B3882F85B380AD0131B012C93F81F
:102EC8005A3882F85A3804BF92F8583882F8593874
:102ED800944B2246002103F65800C3F8604809F0D5
:102EE80037F9904B93F95968002E01F033828D49D8
:102EF8008E4B91F95C7891F95A584FF0000A4FF4CB
:102F08000072B7EB0A089A612846C3F828A018BFD0
:102F18004FF0010891F95848FDF784FACDE9060108
:102F28002046FDF77FFA02460B463046CDE90823D6
:102F3800FDF778FA0246384616460F46FDF772FA4C
:102F4800784B4FEA083993F95D3814934FEAC8284B
:102F5800524689F4805E88F4006A4FF4804C734BC3
:102F6800C3F818C09A62002C00F0F3854FF48074FF
:102F780000229C619A624FF400446C4B9C619A62F7
:102F8800C3F81890C3F828E0002D00F0D985684AE6
:102F980000234FF4805494614FF4005593629DEDE3
:102FA800067B644A02ED027B82ED0C7B9DED087B7B
:102FB80002F1300482ED0A7B82ED007BC2E90267F0
:102FC800C2E90867C2E90401584A44E90601956163
:102FD8009362594BC2F81880C2F828A093F8F539C3
:102FE800A265103C002B01F04D81A4F12803169333
:102FF800514B93F8F639002B00F08285464BD3E904
:1030080000454D4B93F8F719002900F08885444B8B
:10301800204629460022FDF7D7FC002841F04581CB
:10302800464C3F4B54E902010022FDF7CDFC002835
:1030380040F0278594ED0E7B8DED107BD4E9006779
:103048003F4B002203ED027B3046354B3946FDF7F6
:10305800BBFC002840F007853A4BD3E90089384B80
:10306800394CC3E9008954E902012D4B0022FDF7D0
:10307800ABFC002840F0E68494ED0E7B8DED087BD8
:10308800049BD4E9000103ED027B0022244BFDF7E9
:103098009BFC002840F0C6842C4B93ED007B8DED03
:1030A8000A7B049B2A4C83ED007B54E902011C4BEC
:1030B8000022FDF789FC002840F0A38494ED0E7BE4
:1030C8008DED0C7B234BD4E9000103ED027B00223C
:1030D800134BFDF779FC002840F083841E4B93EDD9
:1030E800007B8DED067B1B4B1C4C83ED007B14EDA8
:1030F800027B0B4BB0EE478AF0EE678A51EC170B58
:103108000022FDF761FC002840F05C8428E000BF45
:10311800C8030020DC30002078260020D8300020AA
:103128000000F03FE8030020ABAAAA2A00100048DC
:1031380000040048580B0020381D00208824002077
:10314800980B0020C824002098240020D8240020B0
:10315800A8240020B80B0020E8240020B824002070
:10316800D4E90EABD4E90045A74B002243E902ABF2
:103178002046A64B2946FDF727FC002800F01B84B3
:10318800A14AA34BD2E9000163E8A00153E9022355
:10319800FCF7FAFFCDE90E0141EC170B9D4B3046C9
:1031A800C3E9004503ED1C7B3946984B0022FDF727
:1031B8000BFC18B342464B4640464946FCF7E6FF2F
:1031C800954BD3E90023FCF7DFFF89A3D3E900235C
:1031D800FDF792F988A3D3E9002304460D4640463B
:1031E8004946FDF789F90B46024629462046FCF771
:1031F800CDFF8A4B80468946C3E9008951EC180BFC
:10320800824B0022FDF7E0FB18B352465B4650465E
:103218005946FCF7BBFF824B53E90223FCF7B4FF86
:1032280073A3D3E90023FDF767F973A3D3E9002358
:1032380004460D4650465946FDF75EF90B460246D0
:1032480029462046FCF7A2FF6F4B82468B4643E98E
:1032580002AB1498734E744CFDF7E4F8734BC3E952
:103268000001734B9868FDF7EFF865A3D3E90023D5
:10327800FDF742F9D6E90023FCF788FF35460246F8
:103288000B4665E84A23CDE914230FCC0FC50FCCB4
:103298000FC50FCC0FC594E80F00A4F1700785E89F
:1032A8000F000FCFA6F5B4760FC60FCF0FC60FCFFE
:1032B8000FC697E80F0086E80F00A4F170004022BF
:1032C800002108F045FF129BD3E90045DDE90823FA
:1032D80020462946FDF782FB18B14C4B002247E9EE
:1032E8000823544951E90267DDE906233046394687
:1032F800FDF774FB20B1454B4F490022C1E900237B
:103308004E49424651E902014B46FDF767FB20B1A1
:103318003E4B4B490022C1E900234A495246D1E9B4
:1033280000015B46FDF75AFB20B1384B46490022A5
:1033380041E902233F49DDE90C23D1E90001FDF70A
:103348004DFB20B1314B3C49002241E902233D4964
:10335800DDE90A2351E90201FDF740FB20B12B4BBF
:103368003A490022C1E900232E49DDE90E2351E93B
:103378000201FDF733FBDDE91023002800F0F48299
:103388003149224D0024C1E900452C49D1E9000109
:10339800FDF724FB10B12A4B43E902454FF0000822
:1033A8004FF000091B4B2A4AC3E90089294B1969C8
:1033B800D3F8100CC2F86418C2F86808264AB2F8A4
:1033C800F239B3F5FF7F9CBF0133A2F8F239224AE4
:1033D80092F8F4397E2B03D80133DBB282F8F43942
:1033E8001D4D95F9E44995F8E429002C36E000BF15
:1033F8009A9999999999E93F9A9999999999C93F67
:103408007B14AE47E17A843FC80B00200000F03FF0
:1034180038250020380C0020C8240020980B0020F4
:10342800F8240020E8250020900B002078260020B2
:10343800DC030020B8250020780B0020D8250020C8
:10344800580B0020C8250020880B0020680B00209E
:10345800E803002000040048381D0020C0F2278639
:1034680002F06002C64B62F06A0285F8E429002285
:10347800D3E90267A5F8F22973E80445D3E900AB5C
:10348800C04B002220462946FDF7C6FA002800F066
:10349800E186BD4B204629460022FDF757F9BB4B74
:1034A8000022FCF773FE04460D46FDF71DFB08EEEF
:1034B800100AB74BB749DFEDB88AC3E900450022C7
:1034C800002341E90223D1E90489AE4B00223046AA
:1034D8003946FDF7A1FA002800F0BC85AA4B304612
:1034E80039460022FDF732F9A84B0022FCF74EFEC0
:1034F80004460D46FDF7F8FADFEDA76A07EE100A55
:1035080000260027A34BB5EEC08AC3E90045C3E9EE
:103518000267A24BF1EE10FAD3F8583800F1C385D0
:10352800DFED9F7AB4EE678AF1EE10FAC8BFB0EE0D
:10353800678A19681A79CB6ADFED995AC86BB2FAAB
:1035480082F25209134407EE903AF8EE677AF5EEE4
:10355800C08A67EE887A87EEA56AFCEEC67A17EE0F
:10356800903A834218BFCB63F1EE10FA00F19785C9
:10357800DFED8B7AF4EE678AF1EE10FAC8BFF0EE51
:10358800678ACB6ADFED865A134407EE903AF8EE65
:10359800677A0A6C67EEA87AB5EEC07A87EEA56AF4
:1035A800FCEEC67A17EE903A934218BF0B647B4B39
:1035B800F1EE10FAD3F8483800F16D85DFED787A2E
:1035C800B4EE677AF1EE10FAC8BFB0EE677A196800
:1035D8001A79CB6A9FED726A486B724CB2FA82F222
:1035E8005209134407EE903AF8EE677A67EE877A45
:1035F80087EE867AFCEEC77A17EE903A834218BFB8
:103608004B63DFED677ACB6AF4EE676AF1EE10FA86
:103618001344C8BFF0EE676AB0EE676A07EE903AE7
:10362800F8EE677A8A6B67EEA67A87EE867AFCEE02
:10363800C77A17EE903A934218BF8B630022D4E9F9
:1036480002010023FDF7C0F9B0FA80F0564B40099B
:10365800C001986180F080009862544B0022D3E941
:1036680000010023FDF7B0F9B0FA80F05049400995
:103678004003886180F4005088624246D4E904011E
:103688004B46FDF7ABF9002800F0DF84D4E90001D0
:10369800484B474C484DC3E9000100220023FDF781
:1036A80093F9B0FA80F04009444B8003A06180F49C
:1036B8008040A062002253E902010023FDF784F94B
:1036C8003F4BB0FA80F04009C3F8F857C003354BB8
:1036D800A06180F40040A0620022D3E90601002323
:1036E800FDF772F9B0FA80F04009C000A86180F0D7
:1036F8000800A862334B504659460022FDF764F98A
:10370800002840F03382304BA3F170020692A3F1F7
:1037180060020892A3F120020C92D3E90067A3F19A
:10372800500253E902450492A3F13002A3F1400A82
:103738000A92A3F1100B089B53E90289D3E900010F
:1037480042464B46FCF720FD0BA3D3E90023FCF7C8
:10375800D3FE42464B46FCF719FD069A1B4B52E92D
:10376800028943E90201D2E900014B464246FCF7CF
:103778000BFD2DE0AFF30080666666666666E63F81
:10378800F80B002000002440000008400080504052
:10379800180C0020280C002000000000381D002014
:1037A8000000C84200000020000C0048680B002000
:1037B80000080048380C002000040048780B00205E
:1037C800E80300200000F03FF8260020B82500207C
:1037D800C9A3D3E90023FCF78FFE42464B46FCF70A
:1037E800D5FC129AC2E90001049A52E90289D2E989
:1037F80000014B464246FCF7C7FCABA3D3E90023C4
:10380800FCF77AFE42464B46FCF7C0FCAC4BC3E9DA
:1038180000010C9B53E90289D3E9000142464B465B
:10382800FCF7B2FCA0A3D3E90023FCF765FE4246EF
:103838004B46FCF7ABFC0A9AA24B52E9028943E9D2
:103848000201D2E900014B464246FCF79DFC98A3D1
:10385800D3E90023FCF750FE42464B46FCF796FCA2
:10386800984BC3E900015AE90289DAE900014246A6
:103878004B46FCF789FC8EA3D3E90023FCF73CFEFA
:1038880042464B46FCF782FC8F4B224643E9020135
:103898002B4630463946FCF777FC87A3D3E900234B
:1038A800FCF72AFE22462B46FCF770FC5BE9024532
:1038B800864A2B4642E90201DBE900012246FCF771
:1038C80063FC7DA3D3E90023FCF716FE22462B46B2
:1038D800FCF75CFC7C4BC3E9000102F03FF92BB01C
:1038E800BDEC108BBDE8F04F02F01ABA5BE9028913
:1038F8002046294642464B46FDF770F848B3CDE9C5
:103908000489FEF71BBFDDE904450026FEF78FBEDC
:10391800DDE926126E4B9DED247BE3E8041203EDEE
:10392800027B1293FFF7EAB92046294652465B46C6
:10393800FDF754F800287EF4D0AC002E41F04F80FB
:10394800DDE91EABFEF7C9BCDDE91E450026FEF722
:1039580060BC002E3EF4F2AECDE90445FEF7EEBEA3
:10396800C246CB46FEF7B9BC5749D1E90001FDF77D
:1039780035F820B1574B5849002241E90223DDE9C7
:103988000823DDE90601FCF701FC32463B46064602
:103998000F4620462946FCF7F9FB02460B463046FF
:1039A8003946FDF71BF84FF0000800283FF4F8AC43
:1039B800DFF82091F6E4494B93ED007B8DED0E7B0B
:1039C800FFF7ECBB464951E90201A4F50473D3E9BA
:1039D8000023C4E91E01FCF7D7FB82468B46FFF79C
:1039E800C1BB404A404BD2E9000163E8A00153E95A
:1039F8000223FCF7C9FBCDE9060141EC170BFFF7E1
:103A080072BB384951E90201A4F50473D3E90023D4
:103A1800C4E91E01FCF7B8FBCDE90C0141EC170B1A
:103A2800FFF750BB049A314BD2E9000163E8A001CB
:103A380053E90223FCF7A8FBCDE90A0141EC170B77
:103A4800FFF72FBB049951E90201A4F50473D3E9E8
:103A58000023C4E91E01FCF797FBCDE9080141ECFE
:103A6800170BFFF70DBB224A224BD2E9000163E88E
:103A7800A00153E90223FCF787FB80468946FFF73C
:103A8800EEBA1B4951E90201A4F50473D3E90023F6
:103A9800C4E91E01FCF778FBCDE9100141EC170BD6
:103AA800FFF7CCBAAFF300809A9999999999D93FC1
:103AB800333333333333D33F9A9999999999E93FFB
:103AC800B8250020C8250020D8250020E82500209A
:103AD800982500200000F03F580B0020F824002013
:103AE800C80B0020B80B002028250020182500202E
:103AF800980B002008250020666666666666E63F25
:103B08001498FCF78FFC174A012382F8F639154BF5
:103B18000D4693F8F719044600297FF478AA1A4647
:103B28000126C3F8406703F5A86017460823C2F8C2
:103B38004437402208F00CFB87F8F769FFF767BAAB
:103B4800094B4FF480529D619A624FF40053FFF77E
:103B580026BA4FF480729C619A624FF40042FFF7D4
:103B68000CBA00BF381D002000040048BC4B049A62
:103B7800069352E90245D3E90067204629463246B2
:103B88003B46FCF749FFC0B1B1A3D3E90023304657
:103B98003946FCF7B1FCB0A3D3E9002306460F462B
:103BA80020462946FCF7A8FC0B4602463946304613
:103BB800FCF7ECFAAA4BC3E90001069B53E902673C
:103BC8002046294632463B46FCF708FFD0B1A0A361
:103BD800D3E9002330463946FCF78EFC02460B46F3
:103BE8002046294614461D469BA3D3E90023FCF72B
:103BF80083FC0B46024629462046FCF7C7FA069B7B
:103C080043E90201974B984A0893D2E90045D3E962
:103C180000672046294632463B46FCF7FDFEC0B108
:103C28008BA3D3E9002330463946FCF765FC8AA309
:103C3800D3E9002306460F4620462946FCF75CFCDC
:103C48000B46024639463046FCF7A0FA854BC3E9D5
:103C58000001089B53E902672046294632463B4645
:103C6800FCF7BCFED0B17AA3D3E90023304639462D
:103C7800FCF742FC02460B462046294614461D46E0
:103C880075A3D3E90023FCF737FC0B460246294607
:103C98002046FCF77BFA089B43E90201734B049A20
:103CA8000C93D2E90045D3E90067204629463246FD
:103CB8003B46FCF7B1FEB0B16D4B304639460022A9
:103CC800FCF71AFC6A4B06460F4600222046294696
:103CD800FCF712FC0B46024639463046FCF756FA0A
:103CE800624BC3E900010C9B53E902672046294651
:103CF80032463B46FCF772FEC0B15D4B00223046AF
:103D08003946FCF7F9FB02460B462046294614467D
:103D18001D460022564BFCF7EFFB0B460246294690
:103D28002046FCF733FA0C9B43E90201514B4E4AFB
:103D3800049352E90245D3E90067204629463246F2
:103D48003B46FCF769FEB0B1494B30463946002284
:103D5800FCF7D2FB464B06460F4600222046294672
:103D6800FCF7CAFB0B46024639463046FCF70EFA0A
:103D7800404BC3E90001049B53E9026720462946EA
:103D880032463B46FCF72AFEC0B1394B002230468A
:103D98003946FCF7B1FB02460B4620462946144635
:103DA8001D460022324BFCF7A7FB0B46024629466C
:103DB8002046FCF7EBF9049B43E902012E4BDFF8A0
:103DC800C4A0D3E90045DAE900672046294632460F
:103DD8003B46FCF721FEA8B1254B30463946002268
:103DE800FCF78AFB224B06460F460022204629464E
:103DF800FCF782FB02460B4630463946FCF7C6F90B
:103E0800CAE900015AE902672046294632463B467C
:103E1800FCF7E4FDB8B1164B002230463946FCF7F2
:103E28006BFB02460B462046294614461D460022D7
:103E38000F4BFCF761FB02460B4620462946FCF770
:103E4800A5F94AE902010D4B0D4A0A931CE000BF8F
:103E58009A9999999999E93F9A9999999999C93FFC
:103E68008826002098260020B80B0020D82600209D
:103E78000000E03FA8260020980B0020C82600205C
:103E8800C80B0020B826002052E90245D3E9006794
:103E98002046294632463B46FCF7BEFDB0B1C64B2C
:103EA800304639460022FCF727FBC34B06460F462F
:103EB800002220462946FCF71FFB0B4602463946DE
:103EC8003046FCF763F9BD4BC3E900010A9B53E98F
:103ED80002672046294632463B46FCF77FFDC0B1C3
:103EE800B54B002230463946FCF706FB02460B4626
:103EF8002046294614461D460022AF4BFCF7FCFA23
:103F08000B46024629462046FCF740F90A9B43E93E
:103F18000201AB4BDFF8CCB253E90245DBE900679D
:103F28002046294632463B46FCF776FDB8B19CA3AD
:103F3800D3E9002330463946FCF7DEFA9AA3D3E9E1
:103F4800002306460F4620462946FCF7D5FA0246C6
:103F58000B4630463946FCF719F9CBE900015BE915
:103F680002672046294632463B46FCF737FDC8B172
:103F78008BA3D3E9002330463946FCF7BDFA024645
:103F88000B462046294614461D4687A3D3E900233D
:103F9800FCF7B2FA02460B4620462946FCF7F6F82B
:103FA8004BE90201874BD3E90089874BD3E90067C6
:103FB8004046494632463B46FCF72EFDD0B178A331
:103FC800D3E9002330463946FCF796FA76A3D3E9BD
:103FD800002304460D4640464946FCF78DFA0B4639
:103FE800024629462046FCF7D1F8774B06460F468D
:103FF800C3E90067744B53E90245404649462246E7
:104008002B46FCF7EBFC00283FF495AB64A3D3E9FF
:10401800002320462946FCF76FFA63A3D3E900235F
:1040280004460D4640464946FCF766FA0B460246EA
:1040380029462046FCF7AAF8634B04460D4643E997
:104048000245D3E90067FFF776BB604BD3E900016F
:10405800FFF71EBB5E4B002230463946FCF7BEFC1C
:10406800002800F034815B4B304639460022FCF7CB
:104078006DFB594B0022FCF787F821F000473946C1
:104088000646FCF731FD002406EE900A9FED537AB0
:104098000025FFF737BA9FED517AFFF798BADFEDA1
:1040A8004F8AFFF76EBA9FED4D8AFFF742BA02F0CA
:1040B8001F04013C132C01F20980DFE814F0810190
:1040C800AB01D5010002570277028D0253030503A5
:1040D8003D03E40201039A0374047E035204CD03F2
:1040E8007201720108049FED327B002000218DEDE2
:1040F800087BCDE90601994614934FF4006A984667
:104108001D464FF4805E0124354B00229A61944687
:104118004FF400729A6200264FF480420027FEF79F
:104128001EBFFCF799FCB84644423746FEF795BED9
:10413800404609F10041FCF7B7FC404280B2FEF767
:10414800BCBB404609F10041FCF7AEFC404280B2DE
:10415800FEF797BB404609F10041FCF7A5FC404239
:1041680080B2FEF772BB404609F10041FCF79CFCA7
:10417800404280B2FEF74DBB304607F10041FCF7E4
:1041880093FC404280B2FEF7ACBD304607F10041D7
:10419800FCF78AFC404280B2FEF784BDAFF3008092
:1041A8009A9999999999E93F9A9999999999C93FA9
:1041B800000000000000F03F0000E03FC82600209B
:1041C800980B0020C80B0020F8260020580B002070
:1041D800000024C00000084000805040000000009B
:1041E80000100048E8260020304607F10041FCF79F
:1041F8005BFC404280B2FEF739BD304607F1004112
:10420800FCF752FC404280B2FEF714BD304607F17D
:104218000041FCF749FC404280B2FEF7EFBC304653
:1042280007F10041FCF740FC404280B2FEF7CABCEF
:10423800404609F10041FCF737FC404280B2FEF7E6
:1042480070BB404609F10041FCF72EFC404280B2A9
:10425800FEF74DBBAC4B002220462946FCF7BEFBBF
:10426800002857D1A94BD3E90089A949DFEDA98ACC
:1042780000220023C1E90023C1E90223B0EE688AC5
:10428800FFF723B9A44B16931D460FCDA34C0FC4BB
:104298000FCD0FC40FCD0FC495E80F00012684E899
:1042A8000F0084F87D62FEF7A3BE9D4C9D4D082249
:1042B8000123C4E980230FCD0FC40FCD0FC40FCD48
:1042C8000FC495E80F0084E80F00FEF7A9BEDFEDE4
:1042D800916A00240025B0EE667A26462F46FFF73D
:1042E80011B99149224629A807F064FF3946C4F15B
:1042F80006028E4807F02CFF8D4BC4F505601D465D
:104308000E3029A91844224607F054FFC5F8604822
:10431800FEF7E7BD874B204629460022FCF716FA30
:10432800854B0022FBF730FF21F000452946044663
:10433800FCF7DAFB08EE900A804B75499FED758A09
:1043480043E9024500220023C1E90023D1E9088995
:10435800FFF7BBB8764F97F95C6897F95A5897F901
:104368005848B6F10008284618BF4FF00108FCF776
:1043780059F8CDE906012046FCF754F802460B46E9
:104388003046CDE908234FEA0839FCF74BF84FEAE5
:10439800C82897F95D38149389F4805E88F4006A18
:1043A800B2E6674BB3F8F239042B00F29682654BFC
:1043B800D3E9026773E80445D3E900ABFFF760B8B7
:1043C8005F4AB2F8F239092B40F2FA8292F8E439DE
:1043D800DFED5D8A5B4D1446DDE91401092262F3C5
:1043E800040384F8E439594B594F002265E8042343
:1043F800584B002643E902670022574BFBF7C6FEDD
:1044080004F50D6444E90201D5E900AB3AA5D5E904
:10441800004591E74A4AB2F8F239092B40F2D082B6
:1044280092F8E439474D4D4FDFED478A1446102284
:1044380062F3040384F8E439444B002265E804235A
:10444800444B002643E90267DDE91401444B00228E
:10445800FBF79CFE04F50D6444E90201D5E900ABC5
:1044680025A5D5E9004567E7354AB2F8F239092BA1
:1044780040F2A68292F8E439324D344F9FED398AE2
:104488001446112262F3040384F8E439334B002202
:104498000026C5E90023C5E90267DDE91401304BB0
:1044A8000022FBF771FE04F50D6444E9020114A52E
:1044B800D5E900452C4BD3E900ABFEF7FABF204AFB
:1044C800B2F8F239B3F5C87FC0F0C48210461D4B6C
:1044D80092F8E429052161F30402D3E9026773E83D
:1044E800044580F8E4290022D3E900ABA0F8F229BA
:1044F800FEF7C6BFAFF30080ABAAAAAAAAAA544087
:104508005655555555D55840000024C0380C002044
:10451800180C002000000000500B00208024002010
:1045280078220020900B0020FCC10008400C0020DD
:10453800E80300200000084000805040280C0020BC
:10454800381D0020F80B00205555A542000049C031
:1045580000004940080C00200080664000005940D7
:1045680000805640ABAAC642E80B0020AA4AB2F81F
:10457800F239632B40F2A28392F8E43910460B22F9
:1045880062F3040380F8E439A4490023A0F8F2395F
:10459800A0F8E83900220023C1E90023C1E9022379
:1045A8009F4B0026D3E900AB00275EE6DFF8A4A204
:1045B8009C4B5AE90267002230463946FCF704FA58
:1045C8000446002800F05C82AAF50C610846934B6B
:1045D8009AF8242102217EE78F4BB3F8F239632B36
:1045E8007FF6E5AE8C4C904894F8E439062262F3E5
:1045F800040384F8E439FDF745F8B4F9D859B4F957
:10460800D229B4F9DA390F46B4F9D019154422463B
:10461800864C19441346A542B2F9D629B3F9D439C0
:104628000646B8BF254647F6FF70A142B8BF2146E7
:104638008542D4BFC2EB0502C2EB00028142D4BF5F
:10464800C3EB0103C3EB0003A242B8BF2246A34257
:10465800B8BF234682427049A8BF02468342A8BF1A
:104668000346A1F8DA3901F50C6343E90267704B98
:10467800A1F8D82953E90267169BD3E92A45D3E95B
:1046880026ABFEF7FDBE11F0040140F0AC81624A92
:10469800B2F8F239C72B40F2A681A2F8F2191046F7
:1046A8005E4B92F8E4290421D3E9026773E80445D4
:1046B80061F30402D3E900AB80F8E429FEF7E0BE19
:1046C800554890F8E4395AE75A4CDDE9142354E97F
:1046D8000201FBF759FD584B0022FCF77FF900282F
:1046E8003FF465AE55490022D1E900010023FCF7EB
:1046F8006BF900283FF45BAEA4F50D629FED508A7C
:1047080094F8143145491046142262F3040380F8E2
:10471800E4390023A0F8F2394A4B4B4F0022C4E990
:1047280000234A4B00260022C1E90267C1E90023A1
:1047380037A5D5E90045BDE6632B00F2B78102F045
:104748006002202A344AB2F8F23900F0A883012B1B
:1047580040F2EF83104692F8E429304B012161F3CF
:104768004612BAE6374B002240464946FCF72CF978
:10477800002800F04981284BB3F8F239272B40F282
:104788004381254BD3F8DC29D3F8D83993427FF4F9
:1047980029AF2148214990F8E42904460E2060F306
:1047A800040284F8E429D4F8E029C4F8E0390023A5
:1047B800C4F8DC29A4F8F239ECE6174AB2F8F23961
:1047C800632B40F2BD8192F8E439114602F50C647E
:1047D8000F2262F3040381F8E4390023A1F8F239C7
:1047E8000022D4E900011A4BFBF7D0FCC4E9000110
:1047F800DDE5094CDFED128A94F8E439074D09220A
:1048080062F30403DDE9140184F8E439EBE500BF41
:10481800ABAAAAAAAAAA5440381D0020F80B002067
:10482800E80B00200000F0BF500B00200080FFFFC5
:10483800080C00200826002000002440780B0020E7
:104848005555A5420000F03F000049C0000049400E
:1048580000805640F8250020AB4CDDE9142354E9CC
:104868000201FBF791FCA94B0022FCF7D5F80028C0
:104878003FF49DADA6490022D1E900010023FCF7D1
:10488800A3F800283FF493AD94F81421A14BA24F4C
:10489800DFEDA28AA4F50D610846122161F3040236
:1048A80080F8E4299E490022A0F8F229002063E854
:1048B8000401D3E900AB9B4B002643E902679A4BFE
:1048C8000022C4E900238EA5D5E9004534E5974BBD
:1048D800B3F8F239092B7FF66AAD8B4CDFF834A2B6
:1048E80094F81431A4F50D621146082262F304030A
:1048F800D4E9006781F8E4390023A1F8F2398A4B3A
:1049080000224AE9022330463946FCF75DF850B1E7
:10491800002200232146E1E91023C4E9122341E9DA
:104928000223C4E90A23DFF81482CDF808A0A8F10D
:10493800B00200200021CDE90067CDF80C8002F11B
:10494800B806CAE90001C2E92C0177490020FDF741
:10495800B3F9DAE9004556E9026758E906ABFEF70C
:104968008FBD694CDDE9142354E90201FBF70CFC07
:104978006F4B0022FCF732F800283FF418AD6D4960
:10498800002251E902010023FCF71EF800283FF439
:104998000EADA4F50D6210469FED608A94F81431AF
:1049A8005C491322B1E6614BB3F8F239C72B7FF6A5
:1049B800FEAC5E49574B91F8E429084607218AE581
:1049C800544B574FDFED558A0026C3E9026763E869
:1049D80004674BA5D5E90045D3E900ABACE4A24692
:1049E800AB46FDF77ABC4306E3D5534B4FF0000ABC
:1049F8004FF0000BD3E90667E3E804AB43E902ABE9
:104A0800D3E90045FEF73CBD424C474B0026002742
:104A1800C4E90067C4E9026754E902010022FBF710
:104A2800D3FF00283FF4BCAD04F10803A4F1A802A9
:104A3800CDE90067029403933B490020FDF73CF958
:104A4800234673E80445374AD3E900AB52E90267C5
:104A5800FEF716BD384BDFF8D0B02F4F314A30493A
:104A6800DFED2E8A4FF0000AE3E804AB00260020B1
:104A780042E90267C3E9000121A5D5E900455BE4E5
:104A8800DFF8A4904FF000083046394642464B46BE
:104A9800FBF79AFF0546002800F00D8223481D4BBE
:104AA80090F8E429A0F8F2490321FDE51F4A92F89D
:104AB800E43923F07F0343F00C03144682F8E43909
:104AC800FCF7DEFC4FF00112124BC4F8D829C4F8E9
:104AD800E0290132C4F8DC29D3E902670122C4F8CD
:104AE800D029002204F50C61C4F8D429002400253B
:104AF800C1E9004573E80445D3E900ABFEF7C0BC43
:104B0800ABAAAAAAAAAA544008260020000034C0CA
:104B1800780B0020F80B0020000049405555A542AD
:104B2800000049C0080C00200000F03F381D00209C
:104B380000003440680B0020E80B0020000C002027
:104B4800594EDDE914233746F6E81C01FBF71CFB38
:104B580056E9022380468946FBF718FB4AA3D3E9A6
:104B6800002304460D46FBF7C7FC02460B462046C9
:104B78002946FBF709FB82468B46F7E9182346E9E5
:104B880002AB40464946FBF7FFFA41A3D3E90023AD
:104B980004460D46D6E90001FBF7AEFC02460B467B
:104BA80020462946FBF7F2FA4246C6E90001CDE95C
:104BB80006014B4640464946FBF7E8FA36A3D3E9D7
:104BC800002304460D4650465946FBF795FC02461D
:104BD8000B4620462946FBF7D9FA344B04460D46C6
:104BE8000022DDE90601FBF787FC02460B4620465A
:104BF8002946FBF7CBFAC7E9008906460F46324635
:104C08003B4600200021FBF7BFFA294B002204464F
:104C18000D46FBF7F7FE002800F084810FF28009AB
:104C2800D9E900892046294642464B46FBF7F4FE5F
:104C3800002800F07981DFF880A0CAE900891C4DBE
:104C480000242B46304639462246FBF7C7FE194B4F
:104C580070B913A5D5E9004543E9026730463946DE
:104C680022462B46FBF7D8FE002800F02882114B7D
:104C780043E9024526462F46DAE9004553E908ABE1
:104C8800FEF7FEBBAFF300807B14AE47E17A743FBA
:104C98009A9999999999E93F7B14AE47E17A943F9B
:104CA8000000000000C05240F8250020000020400D
:104CB80000C052C0080C0020F80B0020B04BB14DCA
:104CC80013ED027B002451EC170BB0EE478AF0EE8F
:104CD800678A22462B46FBF777FE002800F00581FD
:104CE800A949AA4ED1E9000100220023FBF76CFE76
:104CF800002800F09E81DFF898924FF0000846E9FE
:104D08000289A34B002240464946FBF75DFEA0B14D
:104D18009C4B51EC180B0022FBF756FE68B19A49E0
:104D2800984BD1E900010022FBF74EFE28B14FF065
:104D380000084FF0404946E90289964F4046D7E9B6
:104D480000234946FBF722FA85A3D3E9002304464A
:104D58000D46FBF7D1FB02460B4620462946FBF7DA
:104D680013FA82468B4657E90223C7E900AB40464F
:104D78004946FBF709FA7CA3D3E9002304460D460C
:104D8800D6E90001FBF7B8FB02460B462046294648
:104D9800FBF7FCF9804BC6E90001CDE906010022CA
:104DA80040464946FBF7A8FB7C4B04460D460022CB
:104DB80050465946FBF7A0FB02460B4620462946BB
:104DC800FBF7E4F9764B04460D460022DDE90601BF
:104DD800FBF792FB02460B4620462946FBF7D6F91D
:104DE80047E9028906460F4632463B460020002125
:104DF800FBF7CAF96B4B002204460D46FBF702FE8F
:104E080000286BD0684B204629460022FBF704FE99
:104E1800002865D09FED567BDFF89CA18AED007BCA
:104E280055EC174B5F4B002230463946FBF7D6FD51
:104E3800002840F091805C4B002230463946FBF751
:104E4800EBFD08B1584F0026584B404643E902672E
:104E5800494600220023FBF7B7FDB8B151EC180B07
:104E6800484B0022FBF7B0FD80B14749454BD1E9DB
:104E780000010022FBF7A8FD40B14D4F4B4B002627
:104E8800CAE9006743E9026734463D4649494FF09D
:104E9800000A4FF0000BC1E900ABFEF7F1BA012B95
:104EA80040F2F080104692F8E429434B022161F366
:104EB8004612FFF712BB00224FF0804330463946B6
:104EC800FBF782FD044600287ED03C483A4B90F818
:104ED800E429A0F8F2590121FFF7E6BB314D00247F
:104EE800DFF8D4A0CAE900459CE74FF0000A4FF06C
:104EF800000B51EC180B52465B46FBF765FD00288A
:104F080000F0D080204BD3E9008922462B4640464A
:104F18004946FBF759FD002800F0A7801B4E46E9DB
:104F280002450AE7264D0024DFF88CA0CAE90045AF
:104F380085E6214B1B491C4FDFED228A002063E8E0
:104F48000401D3E900AB194B002643E902670AA51F
:104F5800D5E90045FFF7F0B9124F002674E700BF06
:104F68007B14AE47E17A743F9A9999999999E93FE8
:104F780000000000000059405655555555D5584079
:104F8800680B00200000F03F780B00202826002046
:104F98000000F0BF18260020000024400000E03F79
:104FA80000004940000059C000005940080C00208A
:104FB800000049C0E80B0020F80B0020381D002035
:104FC80000C052C0ABAAC642304639460026002768
:104FD80032463B46FBF7F8FC00283FF4E8A9504B63
:104FE800504AA2F8F249A3F11004CAE90467CDE9CE
:104FF800006743E90267029443E906892346E3E828
:105008000267039392F8E4391546082262F3040311
:1050180085F8E439A4F1A80240464946FCF74CFE5D
:105028002346D4E9026773E80445D3E900ABFEF7E9
:1050380027BA56E9028922462B4640464946FBF7DD
:10504800C3FC00283FF45DAE37492246D1E9000190
:105058002B46FBF7B9FC00283FF46FAE4FF0000871
:105068004FF0804946E9028967E64046494652467C
:105078005B46FBF7A9FCA8B12C4ED04646E902AB2B
:10508800D9465AE62A492B4F2B4B9FED2C8A0026EE
:105098000022C1E90267C1E900231FA5D5E900453F
:1050A800FFF708BA214E264B56E9028900224046EE
:1050B8004946FBF789FC00287FF43FAE21E6214BE7
:1050C800DAE90045D3E900ABFEF7DAB9154BB3F8D6
:1050D800F239632B7FF66BA9124C94F8E4390C2251
:1050E80062F3040384F8E439FCF7CAF94FF00112BB
:1050F800C4F8D829C4F8E02901320D4BC4F8DC29DA
:105108000122C4F8D0290022D3E9026704F50C6112
:10511800C4F8D429EAE400BF5655555555D558402A
:10512800080C0020381D0020780B002028260020BD
:10513800F80B0020000059C000005940ABAAC64235
:105148000000F03FE80B00202DE9F04FA24BA34CE4
:105158002DED048BD3E92A67D4E9008904F5A4640A
:1051680083B0D4E9000132463B46FBF72DFC08B971
:10517800C4E900679A4C9B49C822204607F01AF8F0
:10518800A4F56B65C4E932899649009504F1D0000D
:10519800C02207F00FF8C822A118924807F00AF8B1
:1051A800D4E900AB04F108052C46D046D946F4E80A
:1051B80002674046494632463B46FBF70FFC08B1BA
:1051C800B046B946884B9C42F1D149EC108B06F0A9
:1051D800DBFD9FED7F1B06F0A1FD57EC106B10EE79
:1051E800100A002200233946FBF7F8FB002840F09C
:1051F800CD8030463946FBF757FC83B20193764A97
:105208007A4BD2E922671C4613ED028BF4E964015C
:1052180032463B46FBF7D8FB08B9C4E90067744E31
:10522800009B7449C822304603F6381806F0C2FFBE
:1052380086ED328B6F4906F1D000C02206F0BAFF26
:10524800344606F1C8016B48C82206F0B3FFB4EC37
:10525800027B57EC176BB0EE478AF0EE678A4BEC8F
:1052680019ABA146A3460095F9E8024530463946F0
:1052780022462B46FBF7B2FB08B126462F46C1450E
:10528800F2D147EC106B06F07FFD9FED511B009D9E
:1052980006F044FD57EC106B10EE100A00220023B4
:1052A80039465C465BEC19ABFBF798FB002840F0ED
:1052B800868030463946FBF7F7FB80B2DFF8389135
:1052C800019B00954BEC19ABC346A04655EC184B17
:1052D800A9F8EC09A9F8EA39F8E80267204629464E
:1052E80032463B46FBF798FB08B134463D46D84565
:1052F800F2D145EC104B06F047FD9FED351B009DA4
:1053080006F00CFD57EC106B10EE100A002200237B
:1053180039465BEC19ABFBF761FB002847D13046F7
:105328003946FBF7C1FB84B2F5E8026752465B4693
:1053380030463946FBF752FB08B1B246BB462A4B0A
:10534800AB42F1D14BEC10AB06F01EFD9FED201BDC
:1053580006F0E4FC57EC106B10EE100A0022002354
:105368003946FBF73BFBD0B930463946FBF79CFB87
:1053780080B2A9F8F049A9F8EE0900F0EFFB03B0F4
:10538800BDEC048BBDE8F04F00F0CABC304607F115
:105398000041FBF789FB404283B201932FE7304677
:1053A80007F10041FBF780FB404280B2E1E730465D
:1053B80007F10041FBF778FB404284B2B4E730467E
:1053C80007F10041FBF770FB404280B276E700BF6F
:1053D800000000000000F040000000209825002098
:1053E80098120020C02A002060130020A825002061
:1053F800580C002040270020381D00200000000025
:105408002DE9F04FB44DB548B5F87E70B5F8806019
:10541800B5F882400782002167F30F0167F31F4147
:105428000022C0E90011C0E9021166F30F02AC497D
:10543800AC480E8266F31F420023C1E90022C1E98D
:10544800022264F30F03A849B5F884600C8264F360
:105458001F43A7B0C1E90033C1E90233082295F818
:105468008610A24C06F074FE0023A14AA96EA1483A
:1054780066F30F0366F31F43C2E90033C2E9023340
:105488009D4B2E6E1960596099609C4BEA6E2660A0
:105498009B4C1A60D5E90A675A609A606B6E036084
:1054A80004F5086343E90267D5E90C67C3E90067B7
:1054B800D5E90E6704F5096343E90267D5E9106782
:1054C800C3E90067D5E9126704F50A6343E902678F
:1054D800D5E91467C3E90067D5E9166704F50B63D6
:1054E80043E90267D5E9082304F507610126C1E904
:1054F800002300F0D5FB08220020C4F80C680092B5
:10550800C4F8440784F8080884F81008B5F872004D
:10551800A4F8EA09B5F87400A4F8EC09B5F878001D
:10552800A4F8EE09B5F87A00A4F8F0090920754F37
:105538000390ADF8100074488DF812609FED647BFD
:10554800CDE9077004F61800042304F51B6C04F574
:105558001A6E04F5196704F5156B04F5166A04F557
:10556800176904F5186806904FF40070194632461A
:105578000BED027B0AED027B09ED027B08ED027B55
:1055880007ED027B0CED027B87ED0A7B0EED027BBB
:10559800ADF8240003A8FBF797FD0221C4F814080E
:1055A800FBF7C4FED4F81408FBF7FCFD3146D4F829
:1055B8001408FBF76BFDD5E9320104F580520AF5B2
:1055C800F66A07F5F86704F5895804F58A5C04F566
:1055D800885BCBE900014AE90201CAE9000148E910
:1055E8000201C8E90001C2E94A01C2E94C014CE9DB
:1055F8000201CCE9000147E90201C7E90001D5E948
:10560800380109F51469C9E9000184F8106882F8BD
:105618005861C2F8F86082F88063C2F8A86202F59F
:105628002E7304F59C56E3E802019E42FBD1012348
:10563800D5E92C0184F8303FC4F8583E334B03F1C8
:10564800D006E3E80201E3E80201B342FBD10123FB
:10565800D5E9280184F8703DC4F8983C2C4B03F137
:10566800D006E3E80201E3E802019E42FBD10123F0
:10567800D5E9260184F8903CC4F8B83B254B03F1E2
:10568800D006E3E80201E3E802019E42FBD10123D0
:10569800D5E9240184F8B03BC4F8D83A1E4B03F18D
:1056A800D006E3E80201E3E80201B342FBD1DFF8E8
:1056B8006CC0D5E934016746E7E804014CE902010A
:1056C80047E90201C7E90001CCE9120128E000BF5F
:1056D8000000000000000840000000208C030020AB
:1056E800A0030020C8030020B4030020DC30002001
:1056F800C8300020D8300020D0030020DC03002070
:10570800381D00200001045000000240982B0020A2
:10571800D8290020F828002018280020A82E0020CA
:10572800CCE90601CCE90801CCE90A01CCE90C0175
:10573800CCE90E01CCE91001D5E93601CCE9180114
:1057480001230CF120090CF130080CF1400E82F80D
:10575800C031C2F8603182F8A032C2F8C8310CF505
:1057680098760CF16803E3E80201B342FBD1012308
:10577800D5E9300182F8F03093615E4B03F1D00631
:10578800E3E80201E3E80201B342FBD10123D5E9D2
:105798002E011374C4F8383F574B03F1D002E3E8E5
:1057A8000201E3E802019A42FBD101230026C4F872
:1057B800503803A8514B039384F84C6884F8546814
:1057C800ADF81060FBF7F0FB3146C4F85808FBF75A
:1057D80021FAD4F858080221FBF77EFB0221D4F8FD
:1057E8005808FBF7D1FBD4F85838454A1B68996824
:1057F8000A40062A4CD10123002684F85438C4F8FC
:10580800403803A83D4B039384F83C6884F8446807
:10581800ADF81060FBF7C8FB3146C4F84808FBF741
:10582800F9F9D4F848080221FBF7A6FA0221D4F8BE
:105838004808FBF7F9FAD4F84838314A1B689968E0
:105848000A40062A38D12F4AD5E92A01012384F8CB
:10585800443884F8503EC4F8783D1346E3E8020122
:10586800D032E3E802019342FBD1D5E92201264A6E
:105878001346E3E80201012584F8D05AC4F8F85920
:10588800D032E3E802019A42FBD127B0BDE8F08F9D
:105898001A68510724D41A6842F004021A605A6937
:1058A80042F001025A611A6822F004021A601A686A
:1058B80042F001021A609EE71A68520715D41A6866
:1058C80042F004021A605A6942F001025A611A68E9
:1058D80022F004021A601A6842F001021A60B2E764
:1058E8005A6942F001025A61E1E75A6942F001023D
:1058F8005A61F0E7582D0020782C00200004004061
:1059080007000100B82A00203827002010B52D4CC8
:1059180094F8083833B9D4F80C2801239A4284F84B
:1059280008382DD094F84C1831B9D4F850380122E1
:10593800934284F84C282DD094F83C1831B9D4F807
:1059480040380122934284F83C2800D010BD94F8D6
:105958004438002BFAD0D4F848080268136823F0BA
:1059680001031360FBF7B0F9D4F848080221FBF7EC
:105978002FFAD4F848080221BDE81040FBF780BA96
:1059880094F81038002BCDD0D4F814080421FBF774
:105998006FFCC7E794F85438002BCDD0D4F85808DA
:1059A8000268136823F001031360FBF78DF9D4F83C
:1059B80058080221FBF7BCFAD4F858080221FBF773
:1059C800EBFAB9E7381D002038B5044672B60C4D1D
:1059D80000F096FB2B68B3F5C87F0FD00949024643
:1059E80003F5C87041F8234041F82020064803F524
:1059F8004872006841F8220001332B6062B638BD56
:105A0800B0430020F0300020E430002030B5214CB5
:105A180023785A1C83B022702BB11F4A23700121AE
:105A2800116003B030BD01A8FCF71CFB62B6022070
:105A380006F06EF9FCF720FB022006F06BF972B64F
:105A48002378164D9DF80520013B23706B78C2B171
:105A58005A1C6A70CBB96378002BE2D101236370BA
:105A680062B6032006F054F9FFF76EFB032006F038
:105A780051F972B66A786378013A013B6A706370CB
:105A8800CFE7002BE7D103B030BD034A6B7001218B
:105A98001160C6E7E8300020E0300020EC3000203C
:105AA800F8B52A4C2A4D002727702F7001DF03F024
:105AB80007FD00F011FC00F071FC00F099FC01F00A
:105AC800ABF800F08FFD01F04BF901F0D3F801F0CD
