:020000040800F2
:10000000008001200DB90008E1730008E5730008C5
:10001000E9730008ED730008F173000800000000A8
:10002000000000000000000000000000CD5E00089D
:10003000F573000800000000895E0008C55D000837
:100040005DB900085DB900085DB900085DB9000838
:100050005DB900085DB900085DB900085DB9000828
:100060005DB900085DB900085DB90008F9730008C2
:10007000351000085DB900085DB900085DB90008D9
:10008000FD73000801740008057400085DB90008DC
:100090005DB900085DB900085DB900085DB90008E8
:1000A0005DB90008097400085DB900085DB9000871
:1000B0005DB900085DB900085DB900085DB90008C8
:1000C0005DB900085DB900085DB900085DB90008B8
:1000D0005DB900085DB900085DB900085DB90008A8
:1000E0005DB900085DB900085DB900085DB9000898
:1000F0005DB900085DB900085DB900085DB9000888
:100100005DB900085DB900085DB900085DB9000877
:100110005DB900085DB900085DB900085DB9000867
:100120005DB900085DB900085DB900085DB9000857
:100130005DB900085DB900085DB900085DB9000847
:100140005DB900085DB900085DB9000815740008C4
:100150005DB900085DB900085DB900085DB9000827
:100160005DB900085DB900085DB900085DB9000817
:100170005DB900085DB900085DB900080000000025
:080180005DB900085DB900083B
:1001880081F0004102E000BF83F0004330B54FEA40
:1001980041044FEA430594EA050F08BF90EA020FAD
:1001A8001FBF54EA000C55EA020C7FEA645C7FEA40
:1001B800655C00F0E2804FEA5454D4EB5555B8BF63
:1001C8006D420CDD2C4480EA020281EA030382EAD4
:1001D800000083EA010180EA020281EA0303362D66
:1001E80088BF30BD11F0004F4FEA01314FF4801C39
:1001F8004CEA113102D0404261EB410113F0004F4B
:100208004FEA03334CEA133302D0524263EB430301
:1002180094EA050F00F0A780A4F10104D5F1200E9F
:100228000DDB02FA0EFC22FA05F2801841F10001FA
:1002380003FA0EF2801843FA05F359410EE0A5F1CE
:1002480020050EF1200E012A03FA0EFC28BF4CF0FF
:10025800020C43FA05F3C01851EBE37101F00045B5
:1002680007D54FF0000EDCF1000C7EEB00006EEBC2
:100278000101B1F5801F1BD3B1F5001F0CD349084C
:100288005FEA30004FEA3C0C04F101044FEA4452A3
:1002980012F5800F80F09A80BCF1004F08BF5FEA2A
:1002A800500C50F1000041EB045141EA050130BD0A
:1002B8005FEA4C0C404141EB0101013C28BFB1F51C
:1002C800801FE9D291F0000F04BF01460020B1FA67
:1002D80081F308BF2033A3F10B03B3F120020CDA3A
:1002E8000C3208DD02F1140CC2F10C0201FA0CF018
:1002F80021FA02F10CE002F11402D8BFC2F1200C7D
:1003080001FA02F120FA0CFCDCBF41EA0C01904032
:10031800E41AA2BF01EB0451294330BD6FEA04047B
:100328001F3C1CDA0C340EDC04F11404C4F1200266
:1003380020FA04F001FA02F340EA030021FA04F378
:1003480045EA030130BDC4F10C04C4F1200220FACF
:1003580002F001FA04F340EA0300294630BD21FA0D
:1003680004F0294630BD94F0000F83F4801306BFD3
:1003780081F480110134013D4EE77FEA645C18BFC7
:100388007FEA655C29D094EA050F08BF90EA020F5E
:1003980005D054EA000C04BF1946104630BD91EA56
:1003A800030F1EBF0021002030BD5FEA545C05D159
:1003B8004000494128BF41F0004130BD14F5800498
:1003C8003CBF01F5801130BD01F0004545F0FE410C
:1003D80041F470014FF0000030BD7FEA645C1ABF41
:1003E800194610467FEA655C1CBF0B46024650EA78
:1003F800013406BF52EA033591EA030F41F40021A4
:1004080030BD00BF90F0000F04BF0021704730B529
:100418004FF4806404F132044FF000054FF00001FE
:1004280050E700BF90F0000F04BF0021704730B5BF
:100438004FF4806404F1320410F0004548BF404294
:100448004FF000013EE700BF42004FEAE2014FEAE9
:1004580031014FEA02701FBF12F07F4393F07F4FC4
:1004680081F06051704732F07F4208BF704793F0C7
:100478007F4F04BF41F40021704730B54FF46074DA
:1004880001F0004521F000411CE700BF50EA0102DD
:1004980008BF704730B54FF000050AE050EA010286
:1004A80008BF704730B511F0004502D5404261EBF6
:1004B80041014FF4806404F132045FEA915C3FF437
:1004C800D8AE4FF003025FEADC0C18BF03325FEAD4
:1004D800DC0C18BF033202EBDC02C2F1200300FA85
:1004E80003FC20FA02F001FA03FE40EA0E0021FAAA
:1004F80002F11444BDE600BF70B54FF0FF0C4CF498
:10050800E06C1CEA11541DBF1CEA135594EA0C0F49
:1005180095EA0C0F00F0DEF82C4481EA030621EA84
:100528004C5123EA4C5350EA013518BF52EA0335BF
:1005380041F4801143F4801338D0A0FB02CE4FF071
:100548000005E1FB02E506F00042E0FB03E54FF0A1
:100558000006E1FB03569CF0000F18BF4EF0010E99
:10056800A4F1FF04B6F5007F64F5407404D25FEA95
:100578004E0E6D4146EB060642EAC62141EA555148
:100588004FEAC52040EA5E504FEACE2EB4F1FD0C8A
:1005980088BFBCF5E06F1ED8BEF1004F08BF5FEA08
:1005A800500E50F1000041EB045170BD06F00046BA
:1005B80046EA010140EA020081EA0301B4EB5C0467
:1005C800C2BFD4EB0C0541EA045170BD41F480115F
:1005D8004FF0000E013C00F3AB8014F1360FDEBF84
:1005E800002001F0004170BDC4F10004203C35DA60
:1005F8000C341BDC04F11404C4F1200500FA05F3E3
:1006080020FA04F001FA05F240EA020001F0004283
:1006180021F0004110EBD37021FA04F642EB0601F9
:100628005EEA430E08BF20EAD37070BDC4F10C0423
:10063800C4F1200500FA04F320FA05F001FA04F2E7
:1006480040EA020001F0004110EBD37041F10001D3
:100658005EEA430E08BF20EAD37070BDC4F12005DE
:1006680000FA05F24EEA020E20FA04F301FA05F246
:1006780043EA020321FA04F001F0004121FA04F2EE
:1006880020EA020000EBD3705EEA430E08BF20EABE
:10069800D37070BD94F0000F0FD101F000464000F8
:1006A80041EB010111F4801F08BF013CF7D041EA7A
:1006B800060195F0000F18BF704703F0004652007E
:1006C80043EB030313F4801F08BF013DF7D043EA4F
:1006D8000603704794EA0C0F0CEA135518BF95EA05
:1006E8000C0F0CD050EA410618BF52EA4306D1D18C
:1006F80081EA030101F000414FF0000070BD50EAAB
:10070800410606BF1046194652EA430619D094EA34
:100718000C0F02D150EA013613D195EA0C0F05D11E
:1007280052EA03361CBF104619460AD181EA030172
:1007380001F0004141F0FE4141F470014FF000002A
:1007480070BD41F0FE4141F4780170BD70B54FF0C5
:10075800FF0C4CF4E06C1CEA11541DBF1CEA135545
:1007680094EA0C0F95EA0C0F00F0A7F8A4EB050427
:1007780081EA030E52EA03354FEA013100F088801E
:100788004FEA03334FF0805545EA131343EA1263E7
:100798004FEA022245EA111545EA10654FEA00269C
:1007A8000EF000419D4208BF964244F1FD0404F555
:1007B800407402D25B084FEA3202B61A65EB0305B1
:1007C8005B084FEA32024FF480104FF4002CB6EB6E
:1007D800020E75EB030E22BFB61A754640EA0C00EE
:1007E8005B084FEA3202B6EB020E75EB030E22BF2E
:1007F800B61A754640EA5C005B084FEA3202B6EB6F
:10080800020E75EB030E22BFB61A754640EA9C002D
:100818005B084FEA3202B6EB020E75EB030E22BFFD
:10082800B61A754640EADC0055EA060E18D04FEABB
:10083800051545EA16754FEA06164FEAC30343EA5B
:1008480052734FEAC2025FEA1C1CC0D111F4801F28
:100858000BD141EA00014FF000004FF0004CB6E721
:1008680011F4801F04BF01430020B4F1FD0C88BFC0
:10087800BCF5E06F3FF6AFAEB5EB030C04BFB6EBCB
:10088800020C5FEA500C50F1000041EB045170BDBE
:100898000EF0004E4EEA113114EB5C04C2BFD4EBEB
:1008A8000C0541EA045170BD41F480114FF0000E6F
:1008B800013C90E645EA060E8DE60CEA135594EAEB
:1008C8000C0F08BF95EA0C0F3FF43BAF94EA0C0FEE
:1008D8000AD150EA01347FF434AF95EA0C0F7FF463
:1008E80025AF104619462CE795EA0C0F06D152EAB7
:1008F80003353FF4FDAE1046194622E750EA41069B
:1009080018BF52EA43067FF4C5AE50EA41047FF4AB
:100918000DAF52EA43057FF4EBAE12E74FF0FF3C10
:1009280006E000BF4FF0010C02E000BF4FF0010CE1
:100938004DF804CD4FEA410C7FEA6C5C4FEA430C5A
:1009480018BF7FEA6C5C1BD001B050EA410C0CBFA9
:1009580052EA430C91EA030F02BF90EA020F00200B
:10096800704710F1000F91EA030F58BF994208BF72
:1009780090422CBFD8176FEAE37040F0010070472F
:100988004FEA410C7FEA6C5C02D150EA013C07D186
:100998004FEA430C7FEA6C5CD6D152EA033CD3D0D1
:1009A8005DF8040B704700BF8446104662468C46CB
:1009B8001946634600E000BF01B5FFF7B7FF0028FE
:1009C80048BF10F1000F01BD4DF808EDFFF7F4FF27
:1009D8000CBF012000205DF808FB00BF4DF808EDB2
:1009E800FFF7EAFF34BF012000205DF808FB00BFD5
:1009F8004DF808EDFFF7E0FF94BF012000205DF8F7
:100A080008FB00BF4DF808EDFFF7CEFF94BF0120AB
:100A180000205DF808FB00BF4DF808EDFFF7C4FFA4
:100A280034BF012000205DF808FB00BF4FEA410CED
:100A38007FEA6C5C02D150EA013C0AD14FEA430CD0
:100A48007FEA6C5C02D152EA033C02D14FF000000D
:100A580070474FF0010070474FEA410212F500124B
:100A680015D211D56FF47873B3EB625212D94FEAED
:100A7800C12343F0004343EA505311F0004F23FAD7
:100A880002F018BF404270474FF00000704750EA2C
:100A9800013005D111F0004008BF6FF000407047E9
:100AA8004FF00000704700BF4A0011D212F5001243
:100AB80011D20DD56FF47873B3EB62520ED44FEAAE
:100AC800C12343F0004343EA505323FA02F070472E
:100AD8004FF00000704750EA013002D14FF0FF306C
:100AE80070474FF0000070474FEA4102B2F1E0430F
:100AF80024BFB3F5001CDCF1FE5C0DD901F0004CFD
:100B08004FEAC0024CEA5070B2F1004F40EB83004C
:100B180008BF20F00100704711F0804F21D113F178
:100B28003872BCBF01F00040704741F480114FEAB1
:100B38005252C2F11802C2F1200C10FA0CF320FA3A
:100B480002F018BF40F001004FEAC1234FEAD32357
:100B580003FA0CFC40EA0C0023FA02F34FEA4303C1
:100B6800CCE77FEA625307D150EA01331EBF4FF04A
:100B7800FE4040F44000704701F0004040F0FE4065
:100B880040F40000704700BF0348044B834202D082
:100B9800034B03B118477047B8020020B802002081
:100BA800000000000548064B1B1AD90F01EBA301F2
:100BB800491002D0034B03B118477047B802002010
:100BC800B80200200000000010B5064C237843B995
:100BD800FFF7DAFF044B13B10448AFF30080012399
:100BE800237010BDB80200200000000020BE0008DD
:100BF80008B5054B1BB105490548AFF30080BDE8B2
:100C08000840FFF7CFBF00BF00000000BC02002073
:100C180020BE0008CB0703D50368DA6852064DD515
:100C28008B0703D50368DA68920742D54B0703D5CB
:100C38000368DA68520737D50B0703D50368DA6803
:100C480012072CD5CB0603D50368DA68D20621D55E
:100C58008B0603D50368DA68D20716D54B0603D589
:100C68000368DA6812060BD5090603D50368DA6843
:100C7800920600D57047DA6842F02002DA607047C1
:100C8800DA6842F08002DA60EEE7DA6842F00102E0
:100C9800DA60E3E7DA6842F01002DA60D8E7DA6887
:100CA80042F00802DA60CDE7DA6842F00402DA605E
:100CB800C2E7DA6842F00202DA60B7E7DA6842F0BF
:100CC8004002DA60ACE700BFCB0703D50368DA68F7
:100CD80052064CD48B0703D50368DA68920741D4CF
:100CE8004B0703D50368DA68520736D40B0703D5D8
:100CF8000368DA6812072BD4CB0603D50368DA68D1
:100D0800D20620D48B0603D50368DA68D20715D536
:100D18004B0603D50368DA6812060AD4090607D514
:100D28000368DA68920603D5DA6822F02002DA60EE
:100D38007047DA6822F08002DA60EFE7DA6822F0BA
:100D48000102DA60E4E7DA6822F01002DA60D9E733
:100D5800DA6822F00802DA60CEE7DA6822F00402E4
:100D6800DA60C3E7DA6822F00202DA60B8E7DA6824
:100D780022F04002DA60ADE7022921D00368134A65
:100D880093420FD002F5006293420BD002F5406205
:100D9800934207D002F58062934203D002F5806245
:100DA800934203D1032906D0042900D070471A6A58
:100DB80042F001021A621A6A42F004021A6270478B
:100DC8000268136A43F0010313627047002C014064
:100DD800022921D00368134A93420FD002F500621A
:100DE80093420BD002F54062934207D002F580622D
:100DF800934203D002F58062934203D1032906D0BF
:100E0800042900D070471A6A22F001021A621A6A8D
:100E180022F004021A6270470268136A23F0010381
:100E280013627047002C0140022921D00368134A3D
:100E380093420FD002F5006293420BD002F5406254
:100E4800934207D002F58062934203D002F5806294
:100E5800934203D1032906D0042900D070471A6AA7
:100E680042F010021A621A6A42F040021A6270478F
:100E78000268136A43F0100313627047002C0140A4
:100E8800022921D00368134A93420FD002F5006269
:100E980093420BD002F54062934207D002F580627C
:100EA800934203D002F58062934203D1032906D00E
:100EB800042900D070471A6A22F010021A621A6ACE
:100EC80022F040021A6270470268136A23F0100386
:100ED80013627047002C0140022921D00368134A8D
:100EE80093420FD002F5006293420BD002F54062A4
:100EF800934207D002F58062934203D002F58062E4
:100F0800934203D1032906D0042900D070471A6AF6
:100F180042F480721A621A6A42F480621A62704756
:100F28000268136A43F4807313627047002C01400F
:100F3800022921D00368134A93420FD002F50062B8
:100F480093420BD002F54062934207D002F58062CB
:100F5800934203D002F58062934203D1032906D05D
:100F6800042900D070471A6A22F480721A621A6A39
:100F780022F480621A6270470268136A23F480734D
:100F880013627047002C0140022904D10268136AD9
:100F980043F4805313627047022904D10268136A2C
:100FA80023F4805313627047084B02689A420AD1AF
:100FB8001368074906480A6013F0600314BF012349
:100FC80012680B71704700231A60FFDE00040040AE
:100FD800D40200200369DA6812F4406F24D1427AFF
:100FE800022A08D0427A042A05D0427A082A02D076
:100FF8001A68110718D51A68D20602D510221A6085
:101008004272427A102A0FD0427A082A0CBF012273
:10101800202242729A6822F0004222F03F0242F0F7
:10102800040200209A60704701207047154916484D
:101038008A794B69825C9858800703EB020C1DD5AE
:10104800186880061BD504204872202058609858DC
:10105800800615D4985820F0010010B40C689850F8
:10106800DCF80410090C09042143CCF80410995841
:101078005DF8044B41F00101995070477047704783
:10108800704700BF6003002038BE000801290269CC
:101098000DD0D36C13F0C00F00D17047936823F0C4
:1010A800004323F03F0343F0080393607047D3687D
:1010B80013F4406FF1D0936823F0004323F03F030B
:1010C80043F0040393607047F0B4324C0569A542BD
:1010D8002FD1314C4FF0000C012B256184F807C04B
:1010E80024D04AB3637A082B20D0C76842690668BF
:1010F800E760626190F806C084F806C0037923713E
:101108002B6B0498266023F00F03034301292B63FC
:1011180007D0042920D0022903D16B6843F00803C3
:101128006B60082363721C48F0BC70472046F0BC13
:1011380070470020F0BC7047A37A082BF6D043799B
:101148006371022903D008231348A372EFE76B6881
:1011580043F040036B60F6E7104BE96813F80C3076
:1011680041F00301D018E9600D4981608160C760D2
:101178004168090C090431434160D15841F002012A
:10118800D150D15841F00801D150D15841F0010156
:10119800D150C6E7000104506003002038BE0008A3
:1011A8004001045002699368DB0707D4936823F071
:1011B800004323F03F0343F001039360704700BFEF
:1011C800036953B1012928D0042910B5944604466F
:1011D80005D0022923D0012010BD01207047DA680C
:1011E80012F4406FF7D1012242729A6822F000424D
:1011F80022F03F0242F004029A60637A042BFCD189
:10120800E379012B21D02268E168520060460AF098
:10121800F5FD08236372002010BDFFF7DBBE437A9B
:10122800202B05D0437A042B02D0437A102BD2D13D
:10123800E3790822012B627210D02268E16852001B
:1012480060460AF0DBFD002010BD2368E1685A0003
:1012580001EB430160460AF0D1FDDAE72368E16853
:101268005A0001EB430160460AF0C8FD002010BD9A
:10127800036910B49C68E40707D59C6824F0004C07
:101288002CF03F0C4CF002049C605C68240603D5EB
:101298005C6824F080045C605C68E40603D55C68E4
:1012A80024F010045C6092B1012903D0022936D0E1
:1012B800042916D0002282710271196BC26021F0D4
:1012C8000F010260426119635DF8044B70470229FF
:1012D8004271F9D15A685DF8044B22F040025A6015
:1012E80070478179104C4269615C545824F00104BC
:1012F8005450545824F004045450545824F008040A
:101308005450545824F0020454500A445168090CAB
:1013180009045160DA6822F00302DA60CAE75A6801
:1013280022F008025A60C5E738BE000810B4036905
:101338009A6812F0010283B007D09C6824F0004C30
:101348002CF03F0C4CF002049C6031BB996821F0F2
:10135800404121F03F0141F000419960996800291E
:10136800FCDB002304E000BFBDF8063001331BB2EC
:10137800ADF80630BDF806309BB2032BF3D942B165
:101388000269936823F0004323F03F0343F001030D
:10139800936003B05DF8044B70470129996821F008
:1013A800404121F03F0126D041F000419960996801
:1013B8000029FCDB0021ADF80610BDF8061089B243
:1013C80003290CD800BFBDF8063001331BB2ADF8B5
:1013D8000630BDF806309BB2032BF3D90369996830
:1013E80021F0404121F03F0141F040419960996866
:1013F8000029B6DAFBE741F0404199609968002975
:10140800AFDAFBE770B51D4C002604F5A87E03E0B3
:1014180094451CD0A6452FD034F902CF8445F7D186
:10142800B4F950518D42F3D1B4F9A0529542EFD19D
:10143800B4F9F0539D42EBD14FF0000C944526804F
:10144800A4F85061A4F8A062A4F8F063E2D1B4F95A
:1014580050C19C45DED1B4F9A0528542DAD1B4F925
:10146800F0538D42D6D1A6452680A4F85061A4F841
:10147800A062A4F8F063CFD170BD00BF261D002084
:101488002DE9F04F904C914B914D04F5F661D1E95F
:10149800000183B00022FFF797FA002840F0BC80D3
:1014A80004F5FC6151E90201884B0022FFF78CFA30
:1014B800002840F0B1808749844B51E9020100229D
:1014C800FFF782FA002840F04F8283497F4BD1E929
:1014D80000010022FFF778FA002840F010827F4BC5
:1014E8006FF0802103F1600243F8041B9342FBD1A3
:1014F80047F6FF79C42200217948A4F864970AF0D6
:101508004BFCC8260223C5F80C3D4FF44872002155
:10151800C5F8086D73480AF03FFC4FF448726A48F2
:1015280000210AF039FCB5F91A8DB5F9187DA4F82F
:10153800207308F1FF33C3EBC3033B4403F27F334B
:1015480004EB430300229A80A5F8302DA4F8B08458
:10155800BB464346012600951A46013BC3EBC3032D
:101568005B4403F27F336048019704EB43059246DE
:1015780030F9023F5B451CD033465C4A9042F7D1B4
:10158800012B019F0BD05A49013B5A00881E01923A
:101598000AF0E8FB5749019A881E0AF0E3FB013E6E
:1015A800B1B236B2002972D0B4F9B034B4F920B36C
:1015B800D2E7B0F950315345DED1B5F904200132F4
:1015C800B2F5004FD8D0B0F9F073B0F9A0C27B1EC5
:1015D800C3EBC303634403F27F3104EB4101B1F968
:1015E80004E07245C8DA8A8003F21F3203F55473A7
:1015F8004E4524F812B024F813A042D0731C32468A
:1016080006F1C8011EB202F5C87201F5C87124F8C6
:1016180012C024F81170B0E7B5F9180DB5F912CD5C
:10162800DFF8D8E0B5F91A1DB5F9106DB5F9143D14
:10163800B5F9162D84440E44F445B8BFF4467645F2
:1016480047F6FF77B8BF7646BE42D4BFC3EB060362
:10165800C3EB0703BC45D4BFC2EB0C02C2EB0702C5
:101668007345B8BF73467245B8BF7246BB42A8BF40
:101678003B46BA42A8BF3A461BB212B2FFF7C2FEB7
:1016880019E7334648F2C60147F6FE72BBE7009DEC
:1016980014484FF448720AF07FFBB5F91CBDB5F841
:1016A8001E3DA4F820B3BBF1000FA4F8B034D8BF96
:1016B8004FF0FF3263DD104E00954FF0010C06F538
:1016C800C97A06F2223920E0D80300200000F03F52
:1016D800281D0020A80B0020980B0020DC0A002001
:1016E800180A0020F8060020261D0020761E00207B
:1016F800FA0600208A080020680500200080FFFF05
:10170800954214BF0FFA81FCAC460CF10040013839
:10171800514624F810B0B4F9B03426F81030013B23
:10172800B4F92003C3EBC303034403F21F3003F5EA
:10173800547334F910B034F813E0A4F8B2E44FF459
:10174800C772D548A4F822B30FFA8CF50AF00AFB41
:101758004FF4C7724946D1480AF004FBBBF1000FA9
:1017680047F6FF7205F10101CADC2B46009D13F50F
:10177800004FA5F8303D03F1FF3200F0BC80531E46
:10178800C73234F91360BE4251DDB5F9103D012B63
:1017980000F01F81B5F914CDBCF1010F4FF0000026
:1017A8004FF0000100F02C8134F9123043455FDD21
:1017B800B5F9122D012A00F05681B5F9164DB5F983
:1017C800143D012C0ED1B5F9101DA5F8142DA5F85E
:1017D800163DA5F8104DA5F8121D1C4613460A46DD
:1017E800AF490020012B0CD1A5F8162DB5F8102D06
:1017F800A5F8124D00204FF08041A5F8142DA5F84A
:10180800103DBE4261DAB5F9123D012B0CD1D5F875
:10181800142DB5F8101DA5F8141DA5F8163D0020C7
:101828004FF08041C5F8102D03B0BDE8F08F80F26D
:101838002F81B5F910CDBCF1010F00F00481B5F985
:10184800143D00200021012BAED1B5F9121DA5F8D9
:10185800141DB5F8161DA5F8163D34F91230A5F873
:10186800101D43458E49A5F812CD4FF000009FDCAE
:10187800C7DAB5F9122D012A00F0D380B5F9164D53
:10188800B5F9103D012C0ED1B5F9141DA5F8102D90
:10189800A5F8163DA5F8144DA5F8121D1C461346CB
:1018A8000A4680490020012BABD1A5F8162DBE426F
:1018B800B5F9142DA5F8124DA5F8102DA5F8143D6D
:1018C8004FF000004FF080419DDBBE42ACDDB5F922
:1018D800163D012BA8D1D5F8102DB5F9141DA5F882
:1018E800101D00204FF08041C5F8142DA5F8123DB9
:1018F80003B0BDE8F08F6C4A6FF4004341E7B5F9D7
:10190800180DB5F914CDDFF8A4E1B5F91A1DB5F92C
:10191800126DB5F9163DB5F9102D84440E44F44501
:10192800B8BFF446764547F6FF77B8BF7646BE425D
:10193800D4BFC3EB0603C3EB0703BC45D4BFC2EB5C
:101948000C02C2EB07027345B8BF73467245B8BFB5
:101958007246BB42A8BF3B46BA42A8BF3A461BB232
:1019680012B2FFF74FFDBAE5B5F9180DB5F910CD6C
:10197800DFF838E1B5F91A1DB5F9166DB5F9123D5C
:10198800B5F9142D84440E44F445B8BFF4467645A1
:1019980047F6FF77B8BF7646BE42D4BFC3EB06030F
:1019A800C3EB0703BC45D4BFC2EB0C02C2EB070272
:1019B8007345B8BF73467245B8BF7246BB42A8BFED
:1019C8003B46BA42A8BF3A461BB212B2FFF71AFD0D
:1019D8007BE5B5F912CDB5F9141DB5F9163DA5F895
:1019E800161DBCF1010F4FF00101A5F8121DA5F855
:1019F80014CD2B49A5F8103D4FF000007FF4D4AE6C
:101A080034F91210B5F9124DB5F9162DA5F812CD05
:101A18008845A5F8104DA5F8142DA5F8163D28DB26
:101A280033DDB5F9144DB5F9102DB5F9163DA5F806
:101A3800122D0121A5F8141DA5F8103D1849A5F887
:101A4800164D00201EE7D5F8121DB5F9163DB5F95B
:101A580012CDA5F8143D0120A5F8160DC5F8101DE6
:101A680000201049EFE6B5F9104DB5F9142DB5F978
:101A7800163DA5F8122D0121A5F8101DA5F8143D55
:101A88000849A5F8164D00209BE6064900201CE7EA
:101A98000020002188E600BFF80600208808002002
:101AA8000000F03F0000F0BFC780FFFF0080FFFF8D
:101AB8002DE9F0479C4E9D4D56E90289002482B0DD
:101AC80022462B4640464946FEF77EFF002800F096
:101AD8008680D6E9040100220023FEF775FF00285E
:101AE80000F0F3809FED847B914FDFF860A2002621
:101AF8008DED007BCAE900675AE902233046394672
:101B0800FEF744FB7EA3D3E9002380468946FEF70F
:101B1800F3FC02460B4640464946FEF735FB854D29
:101B28002C46F4E808234AE9020130463946FEF714
:101B38002BFB75A3D3E900238046894654E90201AB
:101B4800FEF7DAFC02460B4640464946FEF71EFB06
:101B580002460B4644E90223774BDFF8F4A1002242
:101B6800FEF7CAFCDDE90023FEF710FBC5E90067B4
:101B780002460B4604460D4600207049704FFEF79A
:101B880003FB002632463B4680468946FEF73AFF6D
:101B9800002871D04AE902894946DFF8A0914046F9
:101BA8004FF0000842464B46FEF736FF002865D046
:101BB8002046294642464B464AE90289FEF7E6FA9C
:101BC80032463B4604460D46FEF71CFF002864D10A
:101BD80034463D46CAE9004502B0BDE8F0874046B4
:101BE80049464FF000084FF0000942464B46FEF7C1
:101BF800EBFEC8B1D6E9046722462B463046394683
:101C0800FEF7E2FE40B19FED427BDFF840A18DED8B
:101C1800007BCAE900456FE73046394642464B46E5
:101C2800FEF7D2FE002847D1464C0022D4E9000135
:101C38000023FEF7C9FE90B154E904013B4B002292
:101C4800FEF7C2FE58B19FED347BDFF800A10026F5
:101C58004FF040478DED007BCAE900674CE7DFF89D
:101C6800ECA0394BDAE90067002230463946FEF726
:101C780043FCCDE900013FE74AE902672F4B304FAB
:101C8800002220462946FEF781FA002632463B46C6
:101C980004460D46FEF7B6FE48B1284F00262046FA
:101CA800294632463B46FEF7B7FE002892D0CAE9DD
:101CB800006702B0BDE8F087DFF890A046464F46BF
:101CC800CDE90067CAE9008916E756E9060100224E
:101CD8000023FEF779FE0028A6D09FED117BDFF8E0
:101CE8006CA000264FF080478DED007BCAE90067A5
:101CF80002E700BFAFF300800000000000002EC024
:101D08007B14AE47E17A743FCDCCCCCCCCCCEC3F45
:101D18000000000000002E400000000000003EC04F
:101D28000000000000003E40980B00200000F03F3B
:101D38000000F0BF7829002000405F4000005940B3
:101D4800000059C0B80B002000002E408829002050
:101D5800F80B0020034B5B79B3FA83F35B094370FC
:101D6800704700BFF83300202DE9F04F2DED108BA0
:101D7800B349B44C4A79DFF8F0B2531CDBB2142BE8
:101D8800B2FA82F228BF00235209A9B08A714B71B6
:101D980022460421DBF88C0BFFF712FABBF8323D20
:101DA800A94AE1892588A6896788B4F808C0A08867
:101DB800A2F8F6579BB2A2F8EA67A2F8E8171A93B6
:101DC800A2F8F47713466289E488A3F8F2070F9023
:101DD8002046A3F8EEC7A3F8EC27A3F8F007149061
:101DE80008466446CDF864C0169517960E9215916C
:101DF8001897FEF707FB0A46014642EC171B934B60
:101E0800304603ED027BCDE92412FEF7FBFA0A46C1
:101E180001468E4B0E988E4E42EC171B83ED007BCD
:101E2800CDE91012FEF7EEFA0A46014642EC171BFE
:101E3800204606ED027BCDE90612FEF7E3FA0346DB
:101E48000C4644EC173B149886ED007BCDE904342E
:101E5800FEF7D8FA02460B4643EC172B0F9886ED8F
:101E6800027BCDE90A23FEF7CDFAC6E90401CDE9E4
:101E780008013846FEF7C6FAC6E90601CDE912019F
:101E88002846FEF7BFFA734BD3E92E45C6E9080189
:101E9800714ECDE92201224656E902012B46FEF792
:101EA80093FD08B946E902456C4C6B49502220461F
:101EB80009F0A4FFDDE910232746E7E91423664962
:101EC800482204F1580009F099FFA04650223946EB
:101ED800614809F093FFF8E80434214658E90245BF
:101EE800184622462B46CDE90201FEF777FD002869
:101EF80001F025820126D8E9008920462946424674
:101F08004B46FEF76BFD10B144464D460126DFF8FF
:101F18005CA15AE902892046294642464B46FEF70B
:101F28005DFD10B144464D460126DAE90089224696
:101F38002B4640464946FEF76FFD10B144464D46D4
:101F48000126DFF82CA15AE9028920462946424693
:101F58004B46FEF743FD10B144464D460126DAE9EB
:101F6800008922462B4640464946FEF755FD10B1EA
:101F780044464D460126DFF8FCA05AE9028922466C
:101F88002B4640464946FEF747FD10B144464D46AC
:101F980001269AED007B224651EC170BB0EE478ADA
:101FA800F0EE678A2B46FEF737FD57E902890028CD
:101FB80001F0B58151EC180B42464B46FEF70EFD79
:101FC800002801F0C981234B254ED3E9344556E951
:101FD800020122462B46FEF7F7FC08B946E90245FE
:101FE800204C1F49C822204609F008FFC4E932895D
:101FF8001B49C02204F1D00009F000FFA046184890
:1020080004F1C801C82209F0F9FEF8E802674FF0A8
:10201800000ACDF808A0CDF830B008F1C009B246E2
:10202800BB46F8E8024552465B4620462946FEF77D
:10203800D5FC08B30123A246AB4602931CE000BFBF
:10204800F83300207C030020D8030020480B002030
:10205800580B00200000002078310020C81800200C
:1020680028330020981B0020281D0020E818002095
:10207800F818002008190020C845D2D14BEC18AB3D
:10208800DDF808A0DDF830B0BAF1000F01D147EC57
:10209800186BB24BB24ED3E9284556E902012246E5
:1020A8002B46FEF791FC08B946E90245AD4CAC4910
:1020B800C822204609F0A2FE9DED067BA84984EDC2
:1020C800327BC02204F1D00009F098FEC822A4484F
:1020D80004F1C80109F092FE2346B3EC027B04F137
:1020E800C0028DED027B083259EC178B1D92002738
:1020F80020931E469246F6E8024542464B46204645
:102108002946FEF789FC10B1A046A9460127564585
:10211800F1D149EC198B2FB99DED027BB0EE479AAE
:10212800F0EE679A8D4B904ED3E9244556E90201AB
:1021380022462B46FEF748FC08B946E902458B4C77
:102148008949C822204609F059FE9DED047B86493D
:1021580084ED327BC02204F1D00009F04FFEC82282
:10216800814804F1C80109F049FE2346B3EC027B1B
:102178008DED047B04F1C80259EC178B1C920027E3
:102188001F931E469246F6E8024542464B462046B5
:102198002946FEF741FC10B1A046A946012756453D
:1021A800F1D149EC1A8B2FB99DED047BB0EE47AA0B
:1021B800F0EE67AA694B6E4ED3E9224556E9020153
:1021C80022462B46FEF700FC08B946E90245694C51
:1021D8006749C822204609F011FE9DED0A7B644933
:1021E80084ED327BC02204F1D00009F007FEA2463C
:1021F8005F4804F1C801C82209F000FEBAEC027B6E
:102208008DED067B04F1C80359EC178B5646CDF8C3
:1022180028A01B9300279A46F6E8024542464B46FB
:1022280020462946FEF7F8FB10B1A046A94601272B
:10223800B245F1D1DDF828A049EC1B8B2FB99DEDF3
:10224800067BB0EE47BAF0EE67BA444B4A4ED3E984
:10225800204556E9020122462B46FEF7B5FB08B990
:1022680046E90245454C4449C822204609F0C6FDC6
:102278009DED087B404984ED327BC02204F1D000FB
:1022880009F0BCFD27463C4804F1C801C82209F002
:10229800B5FDB7EC027B4FF000088DED087B04F12B
:1022A800C803CDF830A0C24659EC178B3E460A97B2
:1022B8001E931F46F6E8024542464B4620462946ED
:1022C800FEF7AAFB18B1A046A9464FF0010ABE4284
:1022D800F0D149EC1C8BD0460A9FDDF830A0B8F14C
:1022E800000F05D19DED087BB0EE47CAF0EE67CA36
:1022F8001A4B234ED3E93045D6E9000122462B4636
:10230800FEF762FB08B9C6E900451E4C1E4950227B
:10231800204609F073FDDDE912232646E6E9142379
:102328001949482204F1580009F068FDA0465022D6
:102338003146154809F062FDF8E80434214658E9A9
:102348000245184622462B46CDE90C01FEF746FB0E
:10235800002800F0DE8701230A9317E00000002020
:10236800D82E002018140020182D0020F810002066
:10237800382C0020680F0020582B0020D80D002092
:10238800D831002068190020E0310020D8E9008900
:1023980022462B4640464946FEF73EFB18B101232C
:1023A80044464D460A93C84951E9028922462B46BC
:1023B80040464946FEF730FB18B1012344464D46D6
:1023C8000A93C14BD3E9008922462B464046494629
:1023D800FEF722FB18B1012344464D460A93BB4938
:1023E80051E9028922462B4640464946FEF714FB2E
:1023F80018B1012344464D460A93B44BD3E90089EA
:102408002046294642464B46FEF7E8FA18B1012312
:1024180044464D460A93AE4B53E902892046294665
:1024280042464B46FEF7DAFA18B1012344464D46B8
:102438000A93A74BD3E900892046294642464B46D2
:10244800FEF7CCFA002800F0578716ED027B4246CB
:1024580051EC170B4B468DED0C7BFEF7DDFA00288F
:1024680000F053879B4B9C4ED3E9324556E9020155
:1024780022462B46FEF7A8FA08B946E90245974CCA
:102488009549C822204609F0B9FC9DED0C7B92497C
:1024980084ED327BC02204F1D00009F0AFFC26465F
:1024A8008D4804F1C801C82209F0A8FCB6EC027BEB
:1024B8008B4B0C9703F5B75808F118084FF0000933
:1024C8008DED0A7B4746CDF884A0CA4659EC178B98
:1024D800F6E8024542464B4620462946FEF77EFA74
:1024E80018B1A046A9464FF0010AB742F0D17C4A7C
:1024F8000C9F49EC1D8B1823D146C2F86838DDF8CB
:1025080084A0B9F1000F05D19DED0A7BB0EE47DA42
:10251800F0EE67DABBF8343D724CB0EE480AF0EEE4
:10252800680A9DB21A9B238009F052FA9FED641B3A
:1025380009F018FA59EC108B10EE100A002200234B
:102548004946FEF74BFA002841F0C7804046494605
:10255800FEF7AAFA80B26080B0EE490AF0EE690A86
:1025680009F036FA9FED561B09F0FCF959EC108B6F
:1025780010EE100A002200234946FEF72FFA002821
:1025880041F0A28040464946FEF78EFA80B2A0800C
:10259800B0EE4A0AF0EE6A0A09F01AFA9FED481BF3
:1025A80009F0E0F959EC108B10EE100A0022002314
:1025B8004946FEF713FA002841F07D804046494617
:1025C800FEF772FA80B2E080B0EE4B0AF0EE6B0ACA
:1025D80009F0FEF99FED3A1B09F0C4F959EC108B8C
:1025E80010EE100A002200234946FEF7F7F90028EA
:1025F80041F0588040464946FEF756FA80B220819D
:10260800B0EE4C0AF0EE6C0A09F0E2F99FED2C1BD3
:1026180009F0A8F959EC108B10EE100A00220023DB
:102628004946FEF7DBF9002841F0B98040464946A3
:10263800FEF73AFA80B26081B0EE4D0AF0EE6D0A0C
:1026480009F0C6F99FED1E1B09F08CF959EC108BA7
:1026580010EE100A002200234946FEF7BFF90028B1
:1026680041F0948040464946FEF71EFA80B2BBF816
:10267800363D184AA0819BB20C93B2F8663023828B
:10268800E581D2E92C45184E224656E902012B462F
:10269800FEF79AF908B946E90245144C1249C822CE
:1026A800204609F0ABFB9DED107B0F4984ED327B92
:1026B800C02204F1D00009F0A1FBC82218E000BF35
:1026C800000000000000F040881900209819002040
:1026D800A81900200000002048320020081A002015
:1026E800D8030020900300209830002038170020DD
:1026F800C948A11809F082FB94ED007B04F1C008D9
:10270800A4F5326308F108084FF000098DED0A7B43
:1027180083ED007B1097CDF868A04746CA4659EC70
:10272800178B04F10806F6E8024542464B46204658
:102738002946FEF753F918B1A046A9464FF0010AF9
:10274800BE42F0D149EC178B49EC198BD146109F4A
:10275800DDF868A0B9F1000F01F03280AF4B83EDCE
:10276800007B9DED027BAE4B0A97002603ED027BB2
:10277800CDF840A01D9D209CB24657EC176BF4E89D
:10278800028932463B4640464946FEF727F918B1CA
:1027980046464F464FF0010AA542F0D147EC176B69
:1027A80047EC1A6B56460A9FDDF840A0002E00F051
:1027B800FF879B4B03ED027B9DED047B984B0297B3
:1027C800002683ED007BCDF828A01C9D1F9CB246F7
:1027D80057EC176BF4E8028932463B4640464946B7
:1027E800FEF7FCF818B146464F464FF0010AA542DD
:1027F800F0D147EC176B47EC1B6B5646029FDDF890
:1028080028A0002E00F0F487854B83ED007B9DED1A
:10281800067B844E04974FF0000806ED027BCDF846
:1028280008801B9F59EC178BFAE802454046494639
:1028380022462B46FEF7F0F818B10123A046A94618
:1028480002935745F0D149EC178B49EC188BDDF80A
:102858000880049FB8F1000F00F0C28706ED027BE4
:102868009DED087B4FF0000886ED007BCDF80880D1
:102878005AEC179BDDF87880F7E802454846514640
:1028880022462B46FEF7C8F818B10123A146AA46EE
:1028980002934745F0D1DDF80880B8F1000F00F049
:1028A8009B87C6E9009A604B604ED3E92A4556E9F2
:1028B800020122462B46FEF787F808B946E9024589
:1028C8005B4C5A49C822204609F098FA9DED127BC4
:1028D800564984ED327BC02204F1D00009F08EFA0B
:1028E800A046C822514804F1C80109F087FAB8EC9B
:1028F800027B504B0022029203F504628DED047BAB
:1029080003F5945302ED027B183357EC176B4AEC2E
:102918001C9B9A46F8E8024532463B462046294623
:10292800FEF75CF818B1012326462F460293C245EC
:10293800F0D1029B5AEC1C9B002B00F04987374BC7
:1029480043E90267B0EE490AF0EE690ABBF8383D80
:102958000C9A1FFA83F8384B1A8009F039F89FED62
:102968002C1B08F0FFFF55EC104B10EE100A00224C
:1029780000232946FEF732F8002840F0FE8620465C
:102988002946FEF791F880B22B4BB0EE4A0AF0EEDA
:102998006A0A588009F01CF89FED1D1B08F0E2FF39
:1029A80055EC104B10EE100A002200232946FEF7C2
:1029B80015F8002840F0D88620462946FEF774F816
:1029C80080B21D4BB0EE4B0AF0EE6B0A988008F00F
:1029D800FFFF9FED0F1B08F0C5FF55EC104B10EEE5
:1029E800100A002200232946FDF7F8FF002840F0CE
:1029F800B28620462946FEF757F880B20E4BB0EE55
:102A0800480AF0EE680AD88018E000BFAFF30080EB
:102A1800000000000000F04098300020180C002052
:102A2800280C0020080C002000000020B82F0020EF
:102A3800A8150020D8030020A403002008F0C8FF30
:102A48009FEDC91B08F08EFF55EC104B10EE100AD5
:102A5800002200232946FDF7C1FF002840F07286B6
:102A680020462946FEF720F880B2C14B4AEC109B5D
:102A7800188108F0ADFF9FEDBC1B08F073FF55EC03
:102A8800104B10EE100A002200232946FDF7A6FF7E
:102A9800002840F04E8620462946FEF705F880B209
:102AA800B34B47EC106B588108F092FF9FEDAE1BBB
:102AB80008F058FFAF4B55EC104B03ED020B10EE2E
:102AC800100A002200232946FDF788FF002840F05D
:102AD800278620462946FDF7E7FF80B2A64BA74A7E
:102AE800A3499B79B2F86C208881A1F80E800A82EC
:102AF80043B19DED247BA24B03ED027B9DED227B30
:102B080083ED007B9D4B1598B3F86040DFF8A492E5
:102B18009C4D04FB00F0FDF775FC9B4B0022FDF774
:102B2800EBFC49E90201179804FB00F0FDF76AFC89
:102B3800954B0022FDF7E0FCE9E804010E9804FB40
:102B480000F0FDF75FFC904B0022FDF7D5FC49E94A
:102B58000201199804FB00F0FDF754FC8A4B00228F
:102B6800FDF7CAFCC9E90001149804FB00F0FDF761
:102B780049FC854B0022FDF7BFFC45E902010F988F
:102B880004FB00F0FDF73EFC7F4B0022FDF7B4FC90
:102B9800C5E90001189804FB00F0FDF733FC7A4BF7
:102BA8000022FDF7A9FCC5E90201169804FB00F014
:102BB800FDF728FC744B0022FDF79EFC734B0026A2
:102BC800C3E90066C3E90266714BC3E90066714B4D
:102BD800C5E904011E607049704BD1E900011E600F
:102BE80000226F4BFDF7D2FA6E4B6B4AA3F864686C
:102BF80004460D460127C2E90045C3F8607883F80A
:102C0800666800220023FDF7E9FE80462946204633
:102C1800B8F1000F40F07D85FDF71EFF0446072C34
:102C280009DD614A82FB04322244E317C3EBA203A5
:102C3800C3EBC303E41A032C4FF00003C4BFC4F171
:102C4800070447469C42ADF89C308DF89E3040F30F
:102C58004D85002F01F0C283524A131B032C93F8B1
:102C6800663882F86638A2EB040393F8653882F870
:102C78006538A2EB040393F8643882F86438A2EB51
:102C8800040393F8633882F863380AD0131B012CC5
:102C980093F8623882F8623804BF92F8603882F894
:102CA8006138404B2246002103F50660C3F86848A6
:102CB80009F072F83B4B93F96048002C41F0ED8322
:102CC800384D3A4A95F965A89461BAF100034FF472
:102CD800007118BF01239162180395F96358DB024C
:102CE80080F4805783F400664FF48041A4462F4A4D
:102CF800C2F818C09162002D00F0A1844FF4807CC6
:102D08000021C2F818C091624FF4004C274AC2F85B
:102D180018C0916290619762002C00F08684244A62
:102D28004FF480500021906191624FF400501D4A89
:102D3800174682F8FC4782F8FD5782F8FE4782F86A
:102D4800FFA782F800A882F8014882F8025882F8A2
:102D58000348164A90619162936196629BF83D3DE3
:102D68002AE000BFAFF30080000000000000F04040
:102D7800A4030020380C0020F833002000000020B5
:102D880008290020A80B00200000503E0034002035
:102D9800B803002014340020A82900201034002093
:102DA8000000F03FD8030020932449920010004807
:102DB80000040048880B0020C7F8F827002B00F013
:102DC8000484AC4B029303F1100703F12008AA4EC8
:102DD800DFF8D8C2B646BEE80F00ACE80F00BEE880
:102DE8000F00ACE80F00BEE80F00ACE80F009EE84B
:102DF8000F008CE80F0056E91001A04B0022FDF7E8
:102E0800E3FD002840F0D183012C04D19C4B53E909
:102E18000223C6E910230299984B51E902010022C6
:102E2800FDF7D2FD002840F0AF83012D05D1944A6B
:102E3800944BD2E9000143E9020102998F4BD1E991
:102E480000010022FDF7C0FD002840F08D83012C11
:102E580004D159E902018B4BC3E9000157E902018A
:102E6800864B0022FDF7B0FD002840F06C83BAF1D4
:102E7800010F04D1D9E90001834B43E90201D7E9E5
:102E880000017E4B0022FDF79FFD002840F049839A
:102E9800BAF1010F05D17D4A7B4B52E90201C3E922
:102EA800000158E90201754B0022FDF78DFD00284D
:102EB80040F02683012C05D1744A754BD2E90001F4
:102EC80043E90201D8E900016C4B0022FDF77CFDC3
:102ED800002840F00483012D05D16E4A6C4B52E95D
:102EE8000201C3E9000156E90201644B0022FDF723
:102EF8006BFD002800F0E982664A674BD2E90001C1
:102F0800012C43E9020101F0988253E91223FDF7ED
:102F18003BF9624BC3E900010299584B51E90201A0
:102F28000022FDF751FD002840F0B3825C4B93ED81
:102F3800007BB0EE47AAF0EE67AA57E902014F4BB3
:102F48000022FDF741FD002840F07882554B93EDB3
:102F5800007BB0EE47BAF0EE67BAD7E90001474BFD
:102F68000022FDF731FD002840F04C824E4B13ED56
:102F7800027BB0EE47CAF0EE67CAD8E900013F4BC2
:102F88000022FDF721FD002840F02082434B13ED7D
:102F9800027BB0EE47DAF0EE67DA444C364D0FCCE0
:102FA8000FC50FCC0FC50FCC0FC594E80F0085E8EF
:102FB8000F0094F96400FDF735FA46E9100194F919
:102FC8006500FDF72FFA029B43E9020194F96600B8
:102FD800FDF728FA46E90C0194F96700FDF722FA93
:102FE80047E9020194F96800FDF71CFA46E908016F
:102FF80094F96900FDF716FA48E9020194F96A00A4
:10300800FDF710FA46E9040194F96B00FDF70AFA96
:10301800402246E9020104F11000002108F0BCFE3C
:10302800234B14ED087B53E90245B0EE478AF0EED6
:10303800678A51EC170B22462B46FDF7EDFC18B1B9
:103048000E4B002249E90223174B93ED007B184BE6
:10305800B0EE47EAF0EE67EA93ED006B51EC170B20
:10306800B0EE46FAF0EE66FA53EC162BFDF7D4FCF8
:1030780028B31FE0B8270020E82700200000F03F11
:10308800880B00203828002048280020A80B0020A2
:1030980058280020B80B0020A8280020780B002012
:1030A800480B0020580B0020680B0020400B002024
:1030B80018290020B04BB1490022C1E90023B049CA
:1030C80053EC1A2BD1E90001FDF788FC002800F029
:1030D8007881A94BAB490022C1E90023CDE904233B
:1030E800A74B53E9020153EC1D2BFDF777FC20B1E8
:1030F800A14BA549002241E90223A44953EC1C2B0A
:1031080051E90201FDF76AFC002800F0B8810023AC
:1031180008934FF4004399490693974B002241E9DD
:1031280002239A4BD3E9000153EC1B2BFDF756FC05
:10313800002800F09F8100230A938F4B0022C9E9E1
:1031480000234FF4005A924B93ED007B914BB0EE65
:10315800479AF0EE679AD3E9006751EC170B3246AD
:103168003B46FDF759FC20B1834B87490022C1E952
:103178000023894B53E90289864B13ED027B4046B5
:1031880053EC172B49468DED027BFDF745FC20B12A
:10319800794B7C49002241E9022342464B4651ECD7
:1031A800190BFCF7F3FF53EC1E2BFCF7EFFF53EC66
:1031B800182BFCF7EBFF41EC170B53EC1F2B2046A9
:1031C800294655EC174BFCF7E1FFDDE90223FCF734
:1031D800DDFF32463B46FCF7D9FF61A3D3E9002364
:1031E800FDF78AF902460B4620462946FDF7F6FB0D
:1031F800002840F049819FED5C7B8DED027B674B99
:103208000A9A03ED027B664BDDE90401C3F818A0B6
:103218009A6200220023FDF7D7FB002800F0CE8039
:10322800594B002253E902010023FDF7CDFBB0FA08
:1032380080F04009830383F48040594A594C9361D4
:10324800069B90629361089B9362574B574AC3F859
:10325800F847D2E9000100230022FDF7B5FBB0FAD8
:1032680080F04009524B534DC000A06180F0080027
:10327800A0629868FDF7E8F83DA3D3E90023FDF7BD
:103288003BF955E90223FCF781FF4B4BD4F810C0FA
:103298009BF83A4D1A69444B06460F46FF2C45E900
:1032A8000267C3F86C2803D00134E4B28BF83A4DB6
:1032B8009BF82C3D13F0200A00F0A48203F01F03B2
:1032C800013B0CF0040A02F04002112B01F2C98103
:1032D800DFE813F02F09BC0A760AD50AD209680B71
:1032E8001E0B910B47094D097B098B099E09C509DE
:1032F800F609660A1A099D0856E9028920462946F0
:1033080042464B46FDF76AFBF0B1CDE90C89FFF761
:10331800A9B80023DDE90C450A93FFF737B8224620
:103328002B4640464946FDF777FB00287EF44BAE16
:10333800002E41F08783DDE90289FEF744BEDDE90E
:1033480002450026FEF7D7BD0A9B002B3FF48AA84A
:10335800CDE90C45FFF786B859EC188BFEF733BE5C
:10336800333333333333E33F000000000000000001
:103378007B14AE47E17A743F0000F03FA80B0020B1
:1033880038290020880B0020B80B002028290020AD
:10339800780B002048290020480B0020380C00201A
:1033A8000008004800040048D8030020000000205E
:1033B800CC03002058290020001000484FF4804317
:1033C8003BE79FEDA37B8DED047B89E6A449A54BE4
:1033D80051E902010022FDF78FF8A34B04460D4680
:1033E8000022D3E900019F4BFDF786F80B46024601
:1033F80029462046FCF7CAFE994B41EC1D0B43E9D0
:103408000201CAE59949974B51E902010022FDF7EB
:1034180073F8974B04460D460022D3E90001914BFF
:10342800FDF76AF80B46024629462046FCF7AEFE31
:103438008E4B41EC1C0B43E902019EE58D49894BFB
:10344800D1E900010022FDF757F8894B04460D46E3
:10345800002253E90201834BFDF74EF80B46024662
:1034680029462046FCF792FE824B41EC1B0BC3E930
:10347800000172E54FF4005382460A9363E64FF465
:103488000043069008934CE69FED737B8DED027B1D
:10349800B5E67949734BD1E900010022FDF72CF814
:1034A800764B04460D46002253E902016D4BFDF7A9
:1034B80023F80B46024629462046FCF767FE6E4B6A
:1034C80041EC1A0BC3E9000137E5012C7FF424AD68
:1034D8006B4A6C4BD2E9000143E902011CE5684ADA
:1034E800694B52E90201012DC3E9000100F0C387CD
:1034F80053E91023FCF748FE594B43E90201F2E473
:10350800624A614BD2E90001012C43E9020100F053
:10351800BE8753E91223FCF737FE544BC3E9000179
:10352800D0E45A4A5A4B52E90201BAF1010FC3E9F1
:10353800000100F0A68753E91023FCF725FE4B4B4A
:1035480043E90201ADE4D9E90001514BBAF1010F99
:1035580043E9020100F0898753E91223FCF714FEBE
:10356800444BC3E900018AE459E90201494B012CA3
:10357800C3E9000100F0738753E91023FCF704FE48
:103588003C4B43E9020169E4434A424BD2E900015A
:10359800012D43E9020100F05C8753E91223FCF78F
:1035A800F3FD354BC3E9000147E43B4B53E9020106
:1035B800012CC6E9200100F04687D6E91023FCF764
:1035C800E3FD2D4B43E9020125E42046FCF72AFFE1
:1035D800DFF8CC800F4606464346E3E804672846F2
:1035E8000293FCF71FFF029BC3E900670B46029991
:1035F800024641E902235046CDE90423FCF712FFB5
:10360800DDE90423C8E90C230122C8E90E67C8E9EB
:103618000A67C8E90601C8E9080108F120078BF81C
:103628003D2D08F13008FFF7D2BB1C4A4FF48051FA
:103638009461204691624FF40051FFF778BB4FF434
:1036480080719561AC4691624FF40041FFF75EBB13
:103658000000000000000000000000000000F03F33
:10366800780B00200000E03F18280020680B00209D
:1036780008280020580B0020480B0020F8270020BD
:10368800B80B00206828002098280020A80B0020EC
:103698008828002078280020880B00200004004893
:1036A800A8270020404609F10041FDF7FDF94042F6
:1036B80080B2FEF7A4BF404609F10041FDF7F4F9D6
:1036C800404280B2FEF77FBF404609F10041FDF756
:1036D800EBF9404280B2FEF75ABF404609F100417B
:1036E800FDF7E2F9404280B2FEF735BF4FF40066BD
:1036F8004FF4805718469A461D460124404A4FF415
:10370800007C0021C2F818C091624FF4804CFFF78A
:10371800EEBAFDF7A1F9B84644423746FFF77FBA3B
:10372800204605F10041FDF7BFF9404280B2FFF79E
:10373800D5B9204605F10041FDF7B6F9404280B2FF
:10374800FFF7AEB9204605F10041FDF7ADF940425B
:1037580080B2FFF78AB9204605F10041FDF7A4F9C8
:10376800404280B2FFF74AB9204605F10041FDF713
:103778009BF9404280B2FFF724B9204605F1004189
:10378800FDF792F9404280B2FFF7FEB8404609F1D2
:103798000041FDF789F9404280B2FEF768BF404614
:1037A80009F10041FDF780F9404280B2FEF743BFBE
:1037B8009DED027BB0EE47AAF0EE67AAFEF7FCBFCC
:1037C8009DED0A7BB0EE479AF0EE679AFEF7C9BF07
:1037D800DDE90467FFF7B6B8DDE9089AFFF763B8D3
:1037E8009DED067BB0EE478AF0EE678AFFF738B8A2
:1037F8009DED047BB0EE47BAF0EE67BAFFF707B865
:103808000010004823F03F0343F02C038BF82C3DB5
:103818000125C74BCBF814AD5146CBF8183DC54828
:10382800CBF8105D4FF4A86208F0B6FAC24B5146C7
:103838000C464FF0020A47F6FF7C03F5805E012232
:10384800002328B2002C00F07B82614500F07C82C6
:103858000E4606F1A8082BF8165006F5A87706F5C7
:10386800FC760FFA82F901312BF8189009B22BF87F
:1038780017402BF816909BB1614500F070820E46F8
:1038880006F1A8072BF816002BF8172006F5A877DD
:1038980006F5FC762BF8170001312BF8163009B223
:1038A800062C00F07E82614500F064820E4606F127
:1038B800A8082BF8165006F5A87706F5FC760FFA37
:1038C80082F90131062B2BF8189009B22BF817A0B2
:1038D8002BF816901BD0614500F05A824E1C0296B8
:1038E80001F1A8070E4601F5A87801F5FC79BDF9A4
:1038F80008102BF816009E1C0133072B2BF81720F5
:103908002BF8180002F101022BF819609AD1013442
:103918000AF10103072C05F101051FFA83FA8ED17C
:10392800864BCBF81A3DCBF8263D854B8149CBF821
:103938001E3D0423ABF82A3D4FF4A8624FF0011353
:10394800CBF8223D881808F059FA7E4F7E4B0022AA
:1039580053E902017D4BFDF737F8002840F08C82CF
:103968007B4BA3F1700293ED007B0292A3F16002FE
:103978000492A3F120020C92A3F150020692B0EE39
:10398800478AF0EE678AA3F1400297ED007B53E97E
:103998000245B0EE479AF0EE679A57E90289089215
:1039A800A3F130020A92A3F1100A049B53E90267BB
:1039B800D3E9000132463B46FCF7E6FB58A3D3E9BE
:1039C8000023FCF799FD32463B46FCF7DFFB029AE1
:1039D800604B52E90267C3E90001D2E900013B46A6
:1039E8003246FCF7D1FB4EA3D3E90023FCF784FD54
:1039F80032463B46FCF7CAFB564B43E90201069B9D
:103A080053E90267D3E9000132463B46FCF7BCFBA9
:103A180045A3D3E90023FCF76FFD32463B46FCF78C
:103A2800B5FB0C9A4C4B52E9026743E90201D2E913
:103A380000013B463246FCF7A7FB3BA3D3E9002332
:103A4800FCF75AFD32463B46FCF7A0FB424BC3E964
:103A580000010A9B53E90267D3E9000132463B465D
:103A6800FCF792FB3D4B0022FCF746FD32463B46F5
:103A7800FCF78CFB089A3A4B43E9020152E90267CA
:103A8800D2E900013B463246FCF77EFB334B00226D
:103A9800FCF732FD32463B46FCF778FB304B2246BA
:103AA800C3E900012B4651EC180BFCF76DFB1CA376
:103AB800D3E90023FCF720FD22462B46FCF766FBE2
:103AC8005AE90245274B2246C3E900012B46DAE9A9
:103AD8000001FCF759FB12A3D3E90023FCF70CFD06
:103AE80022462B46FCF752FB1F4B04460D4600228C
:103AF80040464946FCF790FF002800F082811B4BA6
:103B0800DFED1B8A404649460022FCF71FFE194B91
:103B18000022FCF73BFB06460F462DE0AFF3008082
:103B28003D0AD7A3703DEA3FAE47E17A14AED73FCE
:103B380001000200281D0020280D012001000400BA
:103B480004000100F80B0020E80B00200000F03F03
:103B5800282A002018290020282900200000D03F0A
:103B6800382900204829002000002440000008408F
:103B78000000000000805040FCF7B6FF08EE100A75
:103B88004FF000084FF00009AE4B43E90245AE4B39
:103B980055EC194B43E9026743E9088940F20113E0
:103BA800ABF83B3D19EE100AA84B00222946FCF75A
:103BB80033FF002800F00381A54B2946002219EEA7
:103BC800100AFCF7C3FDA34B0022FCF7DFFA0446FA
:103BD8000D46FCF789FFDFEDA06A07EE100A002604
:103BE80000279E4BB5EEC08AF1EE10FA43E9024574
:103BF800C3E90067DBF8D03B00F1DA83DFED987AA0
:103C0800B4EE678AF1EE10FAC8BFB0EE678A196899
:103C18001A79CB6ADFED925AC86BB2FA82F252096E
:103C2800134407EE903AF8EE677A67EE887A87EEE3
:103C3800A56AFCEEC67A17EE903A8342DFED887AE1
:103C480018BFCB63CB6AF4EE678AF1EE10FA13441F
:103C5800C8BFF0EE678AF0EE675A07EE903AF8EEC2
:103C6800677A0A6C67EEA87AB5EEC07A87EEA56A1D
:103C7800FCEEC67A17EE903A934218BF0B64F1EE49
:103C880010FADBF8C03B00F19083DFED757AB4EEF3
:103C9800677AF1EE10FAC8BFB0EE677A19681A7938
:103CA800CB6A9FED6F6A486B6E4CB2FA82F252098A
:103CB800134407EE903AF8EE677A67EE877A87EE54
:103CC800867AFCEEC77A9FED667A17EE903A8342C1
:103CD80018BF4B63CB6A134407EE903AF4EE476A79
:103CE800F1EE10FAF8EE677AC8BFF0EE476A67EEB1
:103CF800A67AF0EE476A87EEA67A8A6BFCEEC77A58
:103D080017EE903A934218BF8B635749C1F8F847AA
:103D180056490022D1E902010023FCF755FEB0FA0A
:103D280080F04009C00180F08003A061A36201F027
:103D380031FD29B0BDEC108BBDE8F04F01F012BE8B
:103D4800002B7FF499ADAEE5494EA6F8FC5F16B29C
:103D5800AEF89C42AEF84C61AEF8EC632BB3444924
:103D6800062CA1F8FC0FAEF84C21AEF89C02AEF878
:103D7800EC331FD03E49062BA1F8FC5F11B2AEF818
:103D88009CA2AEF84C11AEF8EC1315D047F6FF71B3
:103D980048F2F61948F24E1848F2A60747F6FE769A
:103DA800A7E5062B7FF497ADBAE5062CF0D0AEF860
:103DB8009CA2EBE7062BE9D147F6FF71A7E52D4B4F
:103DC80019EE100A00222946FCF708FE002800F028
:103DD800F2821F4B2946002219EE100AFCF7B6FCA6
:103DE8001C4B0022FCF7D0F921F000473946064663
:103DF800FCF77AFE002406EE900A9FED177A00255C
:103E0800EFE61C4B002240464946FCF7E7FD002838
:103E180000F0DA820E4B9FED108A40464946002298
:103E2800FCF794FC0B4B0022FCF7AEF921F000499B
:103E380049468046FCF758FE002608EE900A0027FF
:103E4800A2E600BF48290020380C002000002440CA
:103E5800000008400080504000000000280C0020AE
:103E68000000C842000C0048D803002000000020D1
:103E7800280D0120000024C0C74B13ED027BB0EED3
:103E8800478AF0EE678A93ED007BB0EE47BAF0EE12
:103E980067BA93ED047BB0EE47EAF0EE67EA93ED7C
:103EA800027BB0EE47CAF0EE67CA13ED047BB0EEB2
:103EB80047AAF0EE67AA93ED067B53E90689B0EEB0
:103EC80047DAF0EE67DA93ED087BB0EE479AF0EE4A
:103ED800679AB24E0296D6E9004553EC182B204655
:103EE8002946FCF77BFDB8B19FA3D3E90023204600
:103EF8002946FCF701FB9EA3D3E9002304460D469F
:103F080051EC180BFCF7F8FA02460B4620462946F6
:103F1800FCF73CF9C6E90001029E56E9024553EC5C
:103F2800182B20462946FCF777FDB8B18EA3D3E9B4
:103F3800002320462946FCF7DFFA8DA3D3E90023A6
:103F480004460D4651EC180BFCF7D6FA02460B4610
:103F580020462946FCF71AF946E90201904E0496D4
:103F6800D6E9004553EC1E2B20462946FCF736FDC2
:103F7800B8B17DA3D3E9002320462946FCF7BCFA53
:103F88007BA3D3E9002304460D4651EC1E0BFCF736
:103F9800B3FA02460B4620462946FCF7F7F8C6E96D
:103FA8000001049E56E9024553EC1E2B2046294683
:103FB800FCF732FDB8B16CA3D3E9002320462946AB
:103FC800FCF79AFA6AA3D3E9002304460D4651EC9C
:103FD8001E0BFCF791FA02460B4620462946FCF7D1
:103FE800D5F846E902016F4E0C96D6E9004553EC28
:103FF8001B2B20462946FCF7F1FCB8B15EA3D3E998
:10400800002320462946FCF777FA5DA3D3E900236D
:1040180004460D4651EC1B0BFCF76EFA02460B46A4
:1040280020462946FCF7B2F8C6E900010C9E56E97D
:10403800024553EC1B2B20462946FCF7EDFCB8B192
:104048004DA3D3E9002320462946FCF755FA4CA393
:10405800D3E9002304460D4651EC1B0BFCF74CFA40
:1040680002460B4620462946FCF790F846E902012D
:104078004D4E0696D6E9004553EC1C2B20462946A2
:10408800FCF7ACFCB8B13CA3D3E900232046294691
:10409800FCF732FA3AA3D3E9002304460D4651EC63
:1040A8001C0BFCF729FA02460B4620462946FCF76A
:1040B8006DF8C6E90001069E56E9024553EC1C2B33
:1040C80020462946FCF7A8FCB8B12BA3D3E9002366
:1040D80020462946FCF710FA29A3D3E90023044611
:1040E8000D4651EC1C0BFCF707FA02460B4620461E
:1040F8002946FCF74BF846E902012C4E0896D6E90A
:10410800004553EC1A2B20462946FCF767FCB8B14A
:104118001DA3D3E9002320462946FCF7EDF91CA38B
:10412800D3E9002304460D4651EC1A0BFCF7E4F9D9
:1041380002460B4620462946FCF728F8C6E9000146
:10414800089E56E9024553EC1A2B20462946FCF7EF
:1041580063FC00283DD00CA3D3E900232046294660
:10416800FCF7CAF924E000BF9A9999999999E93F0F
:104178009A9999999999C93F666666666666EE3F07
:104188009A9999999999A93FCDCCCCCCCCCCEC3FB4
:104198009A9999999999B93F580B0020B829002004
:1041A800C8290020082A0020D8290020E829002052
:1041B800C5A3D3E9002304460D4651EC1A0BFCF7BE
:1041C8009BF902460B4620462946FBF7DFFF46E9E6
:1041D8000201C34E0A96D6E9004553EC1D2B204632
:1041E8002946FCF7FBFBB8B1B5A3D3E90023204669
:1041F8002946FCF781F9B4A3D3E9002304460D4608
:1042080051EC1D0BFCF778F902460B46204629466F
:10421800FBF7BCFFC6E900010A9E56E9024553ECCC
:104228001D2B20462946FCF7F7FBB8B1A4A3D3E918
:10423800002320462946FCF75FF9A3A3D3E900230E
:1042480004460D4651EC1D0BFCF756F902460B4689
:1042580020462946FBF79AFF46E90201DFF8A4A2A7
:10426800DAE9004542464B4620462946FCF7B6FBAC
:10427800B8B197A3D3E9002320462946FCF73CF9B7
:1042880095A3D3E9002304460D4640464946FCF76A
:1042980033F902460B4620462946FBF777FFCAE961
:1042A80000015AE9024542464B4620462946FCF79A
:1042B800B3FBB8B186A3D3E9002320462946FCF70F
:1042C8001BF985A3D3E9002304460D464046494619
:1042D800FCF712F902460B4620462946FBF756FF23
:1042E8004AE902017F4E96ED007B59EC198BB0EE3E
:1042F800478AF0EE678A55EC174B19EE102A17EE2D
:10430800100A4B462946FCF769FBD8B170A3D3E9DC
:10431800002318EE100A2946FCF7EEF86EA3D3E93D
:10432800002304460D4619EE100A4946FCF7E4F846
:1043380002460B4620462946FBF728FFC6E900013E
:1043480041EC180B56E9024553EC192B2046294637
:10435800FCF762FBF8B15EA3D3E9002320462946A7
:10436800FCF7CAF85CA3D3E9002304460D4651ECD8
:10437800190BFCF7C1F802460B4620462946FBF705
:1043880005FF04460D4696ED007B46E90245B0EE72
:10439800478AF0EE678A97ED007B57E90289B0EE0D
:1043A800479AF0EE679AFFF700BB9FED4F7A75E4E6
:1043B8009FED4D8A2BE4DFED4C6A00240025B0EE1A
:1043C800667A26462F460CE4DFED478A002600274A
:1043D800B0EE688AB046B946FFF7D6BB43492246D5
:1043E80027A807F00BFD3946C4F10702404807F03B
:1043F800D3FC404BC4F506601D46073027A9184476
:10440800224607F0FBFCC5F86848FEF753BC9BF84A
:104418002C3D394C394F052262F304038BF82C3DAF
:10442800002354E902018BF83A3D0022344BFBF794
:10443800ADFE44E90201FFF789BA43E912010246D9
:104448000B46FEF764BDC6E9100102460B46FFF7AE
:10445800B6B843E9120102460B46FFF7A0B843E994
:10446800100102460B46FFF789B843E912010246DC
:104478000B46FFF773B843E9100102460B46FFF7F6
:1044880039B843E9100102460B46FFF756B843E92D
:10449800120102460B46FFF73EB8164B93F965A882
:1044A80093F96358BAF1000318BF01231803DB021C
:1044B80080F4805783F40066FFF720B9AFF30080DB
:1044C800CDCCCCCCCCCCEC3F9A9999999999B93F61
:1044D8009A9999999999E93F9A9999999999C93F76
:1044E800F8290020282A00200000000044BE000807
:1044F800380C0020D803002078290020F80B002071
:1045080000805640182A0020C72C2DD99BF82C3D36
:10451800C14C042262F3040339468BF82C3D304623
:10452800BE4BBF4F0022FBF72FFE44E90201FFF705
:104538000DBA052C18D99BF82C3DB74C102262F304
:1045480004038BF82C3D002339468BF83A3D30465E
:10455800B44BB34F0022FBF717FE44E90201FFF703
:10456800F5B9632C3FF653AFAD4FFFF7EFB93246BD
:10457800A94E3B4656E90201FBF706FE002200233E
:1045880080468946FCF72AFA10B98B2C40F2AB809A
:104598009BF82C3DA44FA549082262F304038BF82D
:1045A8002C3D002000238BF83A3DBB18A7F1680288
:1045B800E7E8040100240025009747E90245C7E918
:1045C8000045FDF775FAFFF7C1B9BAF1000F40F0E1
:1045D80082829BF82C3D924F8BF83AAD112262F300
:1045E80004038BF82C3DFFF7B1B99BF82C3D8C4F99
:1045F8000B2262F304038BF82C3D0023ABF8303D0B
:104608000022002347E90223C7E90023FFF79EB9E8
:10461800002A00F03D83BAF1000FA5D19BF82C3D8C
:1046280083497F4F0E2262F30403A1F5A8604FF47B
:10463800A8628BF82C3D07F0E1FBDBF8243DCBF8B2
:10464800183DCBF8203DDBF8283DCBF81C3D012375
:10465800CBF8103D0023CBF8143DFFF777B9002ABB
:1046680082D19BF82C3D072262F304038BF82C3D82
:1046780000238BF83A3D77E732466E4E3B4656E9C3
:104688000201FBF781FD0022002380468946FCF7E2
:10469800A5F910B9632C40F21F839BF82C3D604F9D
:1046A800092262F304038BF82C3D00238BF83A3D72
:1046B800614B002247E90223C7E90023FFF746B907
:1046C8003246554E3B4656E90201FBF75DFD002296
:1046D800002380468946FCF781F900287FF458AF0B
:1046E8004F2C3FF655AFD6E90E2340464946FBF717
:1046F8004DFD45A3D3E9002304460D46FBF7FCFE18
:1047080002460B4620462946FBF73EFDC6E90E0148
:10471800F6E90C2340464946FBF736FD474B002295
:10472800FBF7EAFE464B04460D4600224046494642
:10473800FBF7E2FE02460B4620462946FBF726FD1C
:1047480004460D46C6E9008922462B460020002172
:10475800FBF71AFD3B4B002280468946FCF752F9CD
:10476800002800F08D82344B404649460022FCF771
:1047780053F9002800F088829FED257B284F07ED2C
:10478800027B304B002220462946FCF727F90028F7
:1047980000F065822B4B0022C7E90023FFF7D6B84B
:1047A80032461D4E3B4656E90201FBF7EDFC00225E
:1047B800002380468946FCF72FF9002890D0E7E6C9
:1047C800052C7FF6D1AE9BF82C3D134C0A2262F3E0
:1047D80004038BF82C3D002339468BF83A3D104FE3
:1047E800184B002247E90223134B0022C7E9002394
:1047F8003046154B0022FBF7C9FC44E90201FFF7DC
:10480800A5B800BFAFF300807B14AE47E17A743FD0
:104818000000000000005940682900200080864000
:10482800F80B002000805640E80B00200000F03F05
:1048380068220020782900200000594000004E40DE
:1048480000001840000059C000806640052C7FF623
:104858008BAE9BF82C3DBA4C0F2262F304038BF805
:104868002C3D002339468BF83A3D3046B54BB64FC0
:104878000022FBF78BFC44E90201FFF767B8DFF879
:10488800C0A25AE90245304622462B463946FBF774
:104898007BFC00220023FCF7A1F8002800F06481CB
:1048A8009FEDA57BA94BB0EE479AF0EE679A03ED12
:1048B800027B83ED027B83ED047B9BF82C3D0B226E
:1048C80062F304038BF82C3D59EC178B0023ABF8EB
:1048D800303D9F4BA3F170020292A3F16002049253
:1048E800A3F1200293ED007B0C92A3F150020692F3
:1048F800A3F140020892A3F1300253E90245B0EE59
:10490800478AF0EE678A0A92A3F1100AFFF74DB8BA
:10491800C72C7FF629AE9BF82C3D8E488E4C8A4FCB
:10492800062262F304038BF82C3DFCF7A9FDBBF9C2
:10493800122DBBF91A3DC5E90001BBF9185DBBF999
:10494800101D15441944A542BBF9162DBBF9143D99
:1049580047F6FF70B8BF2546A142B8BF2146854239
:10496800D4BFC2EB0502C2EB00028142D4BFC3EB45
:104978000103C3EB0003A242B8BF2246A342B8BF5B
:1049880023468242A8BF02468342A8BF0346734912
:10499800ABF81A3D6A4BABF8182D0020C3E90001AB
:1049A800FEF7D4BFD5E9004500224FF080432046EA
:1049B8002946FCF709F80646002847D0604B002234
:1049C800D3E90001654BFBF7FFFF00283FF4CCADAE
:1049D8009BF82C3D5C4F032262F304038BF82C3DBB
:1049E80000238BF83A3D5E4B002247E90223C7E9D2
:1049F8000023FEF7ABBFDDE90201584B0022FBF7AD
:104A0800E3FF002847D04F2C45D9DBF81C2DDBF8F5
:104A1800183D93427FF47FAF9BF82C2D4A4F0D2110
:104A280061F304028BF82C2DDBF8202DCBF81C2D1C
:104A3800CBF8203D0022002347E90223C7E90023E1
:104A4800FEF784BFA046A946FDF7BDBA454B002234
:104A580020462946FBF7B8FF074600284FD0384BB9
:104A68000022D3E900013D4BFBF7AEFF00283FF4DD
:104A78007BAD9BF82C3D344F8BF83A6D022262F3E4
:104A880004038BF82C3D364B002247E90223C7E983
:104A98000023FEF75BBFBAF1000F3FF4BFAD2B4C0C
:104AA8002746F7E804010022002347E90223C7E963
:104AB80000232A4B0022FBF787FF00283EF446AF6D
:104AC8002649009704F10803A4F168020020FCF7C6
:104AD800EFFFFEF73BBF002A3FF4C3AD1B4A00209F
:104AE80013460021E3E8040193ED007B42E902014B
:104AF800B0EE479AF0EE679A53E90289E9E6174B58
:104B0800002220462946FBF75FFF002800F0D080EE
:104B18000B4B0022D3E90001104BFBF755FF00288F
:104B28003FF422AD8BF83A7D9BF82C3D064F0122CD
:104B3800A5E700BFAFF30080000000000000000000
:104B48006829002000805640F80B0020E80B002060
:104B5800282A0020800B00200080FFFF0000F03F83
:104B6800000049C00000F0BF3B46CDF808A0764FD2
:104B7800DFF8F8A1324600264AE9026720462946AE
:104B8800FBF702FB714B53E9022304460D46FBF782
:104B9800FDFA67A3D3E9002306460F46FBF7ACFCF2
:104BA80002460B4630463946FBF7EEFA674B43E9B7
:104BB80002010299F1E90C23204602912946FBF7EC
:104BC800E3FA634B0022FBF797FC624B06460F465D
:104BD800002220462946FBF78FFC02460B4630464A
:104BE8003946FBF7D3FA029BC3E9004504460D4654
:104BF80022462B4600200021FBF7C6FA02460B4648
:104C0800CDE90223544B0022FBF7FCFE002800F0FC
:104C18008280524F0026DDE9020132463B46FBF70F
:104C2800FBFE9DED027B002879D0CAE902670AF1F4
:104C38001007494B204629460022FBF7CFFE0028E3
:104C480063D1464B204629460022FBF7E5FE0028A3
:104C580069D09FED397B87ED007BFFF73AB9C7E94B
:104C680000453E4B204629460022FBF7D5FE00288A
:104C78003EF46CAE394B0022C7E90023FEF766BE4E
:104C8800DFF8D4904FF00008354F47E9028978E5FE
:104C98009BF82C3D3349324F132262F304034FF43F
:104CA800A86288188BF82C3D07F0A8F8FEF74EBECE
:104CB8002046294600220023FBF786FE00283FF401
:104CC80053AC294B0022D3E900011F4BFBF77CFEB4
:104CD80000283FF449AC5BE41C4F404657E90223E7
:104CE8004946FBF753FA12A3D3E9002304460D46BD
:104CF800FBF702FC02460B4620462946FBF744FA1E
:104D0800F6E9082347E9020104E59FED0D7B87EDED
:104D1800007BFFF7DEB89FED0A7B8DED027B104F1D
:104D280007ED027B85E7C7E90045FFF7D2B800BF6A
:104D38007B14AE47E17A743F000000000000594040
:104D480000000000000059C00000F03FA829002022
:104D580000004E4000001840000059C000005940B3
:104D6800F80B0020281D002068290020E80B0020EF
:104D78002DE9F04FA24AA34B2DED048BD2E926670B
:104D880003F59E6453E9028983B054E9020132466F
:104D98003B46FBF719FE08B944E902679A4C9B4960
:104DA800C822204607F02AF8A4F56B65C4E93289C1
:104DB80096490095C02204F1D00007F01FF8C822D8
:104DC800A118924807F01AF8D4E900AB04F10805D5
:104DD8002C46D046D946F4E8026740464946324652
:104DE8003B46FBF7FBFD08B1B046B946884B9C42F1
:104DF800F1D149EC108B06F0EBFD9FED7F1B06F01F
:104E0800B1FD57EC106B10EE100A00220023394652
:104E1800FBF7E4FD002840F0CE8030463946FBF72A
:104E280043FE83B20193764B7A4CD3E91E67A4F50F
:104E3800B87393ED008B54E9020132463B46FBF709
:104E4800C3FD08B944E90267734E009B7149C82243
:104E5800304603F6381806F0D1FF86ED328B6D49DF
:104E680006F1D000C02206F0C9FF344606F1C80199
:104E78006848C82206F0C2FFB4EC027B57EC176BF7
:104E8800B0EE478AF0EE678A4BEC19ABA146A34611
:104E98000095F9E802453046394622462B46FBF78D
:104EA8009DFD08B126462F46C145F2D147EC106B4F
:104EB80006F08EFD9FED501B009D06F053FD57EC4C
:104EC800106B10EE100A0022002339465C465BEC9A
:104ED80019ABFBF783FD002840F086803046394641
:104EE800FBF7E2FD80B2DFF83491019B00954BECB3
:104EF80019ABC346A04655EC184BA9F8340DA9F8D0
:104F0800323DF8E802672046294632463B46FBF721
:104F180083FD08B134463D46D845F2D145EC104BE7
:104F280006F056FD9FED341B009D06F01BFD57EC67
:104F3800106B10EE100A0022002339465BEC19AB07
:104F4800FBF74CFD002847D130463946FBF7ACFD4E
:104F580084B2F5E8026752465B4630463946FBF7AD
:104F68003DFD08B1B246BB46294BAB42F1D14BECF3
:104F780010AB06F02DFD9FED201B06F0F3FC57EC5F
:104F8800106B10EE100A002200233946FBF726FDAD
:104F9800D0B930463946FBF787FD80B2A9F8384DBD
:104FA800A9F8360D00F0F6FB03B0BDEC048BBDE8A4
:104FB800F04F00F0D7BC304607F10041FBF774FD15
:104FC800404283B201932EE7304607F10041FBF7D8
:104FD8006BFD404280B2E1E7304607F10041FBF744
:104FE80063FD404284B2B4E7304607F10041FBF765
:104FF8005BFD404280B276E7000000000000F04010
:10500800000000200829002088120020F82D002028
:1050180050130020782A0020480C0020281D00206A
:105028002DE9F04FB84DB948B5F86E70B5F8706015
:10503800B5F872400782002167F30F0167F31F413B
:105048000022C0E90011C0E9021166F30F02B0495D
:10505800B0480E8266F31F420023C1E90022C1E96D
:10506800022264F30F03AC49B5F874600C8264F350
:105078001F43A7B0C1E90033C1E90233082295F8FC
:105088007610A64C06F088FE0023A54AA96DA5480F
:1050980066F30F0366F31F43C2E90033C2E9023324
:1050A800A14B2E6D196059609960A04BEA6D26607E
:1050B8009F4C1A60D5E908675A609A606B6D036067
:1050C80004F5406343E90267D5E90A67C3E9006765
:1050D800D5E90C6704F5416343E90267D5E90E6732
:1050E800C3E90067D5E9106704F5426343E902673D
:1050F800D5E91267C3E90067D5E9042304F53F61E0
:1051080041E90223D5E90623C1E9002300F0E4FBC5
:105118004FF00102B5F862008DF812200123082231
:10512800C4F8843B0092A4F8320DB5F86400A4F8E2
:10513800340DB5F86800A4F8360DB5F86A00A4F87F
:10514800380D002084F8800B84F8880B0920794FEB
:105158000390ADF8100078489FED697BCDE90770A2
:1051680004F53960042304F54D6E04F54E6C04F51E
:105178004F6704F5496B04F54A6A04F54B6904F571
:105188004C6806904FF4007019460BED027B0AED4F
:10519800027B09ED027B08ED027B0EED027B0CED34
:1051A800027B07ED027B87ED027B0122ADF824002C
:1051B80003A8FBF789FF0221C4F88C0BFCF7B6F8AB
:1051C800D4F88C0BFBF7EEFFD4F88C0B0121FBF71E
:1051D8005DFFD5E92E0104F580560AF5F66A08F553
:1051E800F66806F5926C04F5A35904F5A45E04F577
:1051F800A55B4BE902014AE90201CAE9000149E954
:105208000201C9E9000148E90201C8E900014EE9C3
:105218000201CEE900014CE90201CCE90001D5E91F
:10522800340104F5B05747E902014FF001020123A8
:1052380084F8882B86F8A024C6F8403486F8C82657
:10524800C6F8F03506F5D9623B46E3E802019A4212
:10525800FBD1D5E92801394F47E90201012386F836
:105268007832C6F8A03107F1C8023B46E3E80201EC
:105278009342FBD1D5E92401314F47E902010123CB
:1052880086F8B830C4F8E03F07F1C8023B46E3E8C7
:1052980002019A42FBD1D5E922012A4F47E90201CE
:1052A800012384F8D83FC4F8003F07F1C8023B4601
:1052B800E3E802019A42FBD1D5E92001224F47E9F0
:1052C8000201012384F8F83EC4F8203E07F1C80221
:1052D8003B46E3E802019342FBD1D5E930891B49FB
:1052E80001F1200A01F1300E01F1400C01F15000EA
:1052F80001F1700701F59C72E1E8048928E000BF1C
:105308000000000000000840000000207C0300208E
:1053180090030020B8030020A403002014340020C8
:105328000034002010340020C0030020CC030020EB
:10533800281D00200001045000000240D82E002043
:10534800182D0020382C0020582B0020D8310020A0
:1053580040E9028941E90289C1E90089C0E9008977
:10536800D5E932014AE9028947E90201CAE9008917
:105378004EE90289CEE900894CE90289CCE9008925
:10538800012386F80835C6F8A83486F8E835C6F843
:1053980010353B46E3E802019342FBD1D5E92C01E5
:1053A800624F47E90201012386F83834C6F86033B2
:1053B80007F1C8023B46E3E802019342FBD1D5E975
:1053C8002A015B4F47E90201012386F85833C6F8E2
:1053D800803207F1C8023B46E3E802019A42FBD15A
:1053E800544B03930027012303A8C4F8C83B84F84F
:1053F800C47B84F8CC7BADF81070FBF7D5FD39463B
:10540800C4F8D00BFBF706FCD4F8D00B0221FBF74D
:1054180063FD0221D4F8D00BFBF7B6FDD4F8D03BDE
:10542800454A1B6899680A40062A4CD1012300277F
:1054380084F8CC3BC4F8B83B03A83E4B039384F8EC
:10544800B47B84F8BC7BADF81070FBF7ADFD394632
:10545800C4F8C00BFBF7DEFBD4F8C00B0221FBF746
:105468008BFC0221D4F8C00BFBF7DEFCD4F8C03B60
:10547800314A1B6899680A40062A38D10123D5E9C0
:10548800260184F8BC3B86F89831C6F8C0302B4B0F
:1054980043E9020103F1C802E3E802019342FBD1A8
:1054A800D5E91E01264B43E90201012284F8182E92
:1054B800C4F8402D03F1C802E3E802019A42FBD187
:1054C80027B0BDE8F08F1A68510724D41A6842F053
:1054D80004021A605A6942F001025A611A6822F0FD
:1054E80004021A601A6842F001021A609EE71A68FC
:1054F800520715D41A6842F004021A605A6942F039
:1055080001025A611A6822F004021A601A6842F00D
:1055180001021A60B2E75A6942F001025A61E1E7F2
:105528005A6942F001025A61F0E700BF9830002042
:10553800B82F00200004004007000100F82D0020CB
:10554800782A002010B52D4C94F8803B33B9D4F854
:10555800842B01239A4284F8803B2DD094F8C41BF5
:1055680031B9D4F8C83B0122934284F8C42B2DD01A
:1055780094F8B41B31B9D4F8B83B0122934284F8AB
:10558800B42B00D010BD94F8BC3B002BFAD0D4F853
:10559800C00B0268136823F001031360FBF794FB48
:1055A800D4F8C00B0221FBF713FCD4F8C00B02217E
:1055B800BDE81040FBF764BC94F8883B002BCDD0C5
:1055C800D4F88C0B0421FBF753FEC7E794F8CC3BC7
:1055D800002BCDD0D4F8D00B0268136823F0010358
:1055E8001360FBF771FBD4F8D00B0221FBF7A0FC8A
:1055F800D4F8D00B0221FBF7CFFCB9E7281D002017
:1056080038B5044672B60C4D00F09CFB2B68B3F518
:10561800C87F0FD00949024603F5C87041F82340F6
:1056280041F82020064803F54872006841F8220036
:1056380001332B6062B638BDE846002028340020CC
:105648001C34002030B5214C23785A1C83B02270BA
:105658002BB11F4A23700121116003B030BD01A88E
:10566800FCF778FB62B6022006F076F9FCF77CFBC3
:10567800022006F073F972B62378164D9DF80520BE
:10568800013B23706B78C2B15A1C6A70CBB963783E
:10569800002BE2D10123637062B6032006F05CF9A7
:1056A800FFF766FB032006F059F972B66A7863784B
:1056B800013A013B6A706370CFE7002BE7D103B072
:1056C80030BD034A6B7001211160C6E72034002009
:1056D8001834002024340020F8B52A4C2A4D00271D
:1056E80027702F7001DF03F00FFD00F017FC00F0AA
:1056F80077FC00F0A1FC01F0B3F800F097FD01F091
:1057080053F901F0DBF801F001FA00F00FFF01F0A6
:105718001FFB01F055FA1D4B1E680120376006F08B
:105728001BF9FFF77DFC012006F018F972B69FED12
:10573800180A00F04BFB3368B3FA83F35B092B704C
:1057480062B662B64FF0E02206E03368003B18BF4D
:105758000123237023787BB92B7803F0FF07002BF4
:10576800F3D1042006F0F8F8FFF7ECFE042006F069
:10577800F5F872B63846F8BD136923F001031361D2
:10578800EAE700BFED460020EC46002040BE0008D6
:105798000AD7A33B2DE9F0412DED028B494CDFEDF3
:1057A8004A8ADFF82C819FED498A86B04FF0FF378F
:1057B800022605ADCDE90167012300953B22D321DF
:1057C800204604F057F9BDF814300297DBBA03EB12
:1057D80083035B0007EE903AF8EEE77ACDE90056CE
:1057E80067EEA87A0123C8ED007A3D22D32120462E
:1057F80004F040F9BDF814300095DBBA03EB8303DD
:105808005B0007EE903AF8EEE77ACDE9016767EEBC
:10581800A87A0123C8ED017A3F22D321204604F05B
:1058280029F9BDF814300095DBBA03EB83035B005C
:1058380007EE903AF8EEE77ACDE9016767EEA87AC5
:105848000123C8ED027A4322D321204604F012F93D
:10585800BDF81430DFF87C800297DBBA07EE903A87
:10586800F8EEE77ACDE9005687EE887A01234522DB
:10587800D321204688ED007A04F0FCF82046BDF8D4
:1058880014400095E4BA07EE904AF8EEE77ACDE9BD
:10589800016787EE887A01234722D32188ED017AB0
:1058A80004F0E8F8BDF81430DBBA07EE903AF8EEE9
:1058B800E77A87EE887A88ED027A06B0BDEC028B2B
:1058C800BDE8F081184700200000803833330342D8
:1058D800C0030020CC03002070B586B01F4D002205
:1058E80001244FF0FF360DF116018DF81620102215
:1058F800234600918DF81720CDE901466B22D2216D
:10590800284603F087FF072223460092CDE9014687
:105918001922D221284603F07DFF2346CDE901460E
:105928001C220094D221284603F074FF0DF11702BF
:1059380023460092CDE901461B22D221284603F0D6
:1059480069FF074B0093CDE9014623467522D32111
:10595800284604F08FF806B070BD00BF1847002035
:10596800EE46002038B54021B648B74CB74D03F095
:1059780029FD031E18BF012323700421B44803F036
:1059880021FD031E18BF012363704FF40051B14875
:10599800B14C03F017FD031E18BF01232B704FF401
:1059A8008041AC4803F00EFD031E18BF01236B7045
:1059B8004FF40041A74803F005FD031E18BF01235B
:1059C800AB704FF48051A24803F0FCFC031E18BFD3
:1059D800012323704FF480719A4803F0F3FC031EEF
:1059E80018BF012363704FF40071964803F0EAFC76
:1059F800031E18BF0123A3704FF48051914803F090
:105A0800E1FC031E18BF0123E3704FF400618D48C9
:105A180003F0D8FC031E18BF012323714FF4804103
:105A2800884803F0CFFC031E18BF012363714FF4AD
:105A38000041844803F0C6FC031E18BF0123A3716C
:105A48004FF400517F4803F0BDFC844B844A596BE6
:105A58001180996B51800038824AD96B1B6C118078
:105A680018BF0120E07153800125002401E00134B2
:105A78000135432C60B2FAD0052CF8D004F0E8F9CF
:105A8800F02DF4D1784C03E003F09CFC01280AD1F6
:105A98000321204601F08AFC03464FF400714FF0C1
:105AA8009040002BF0D1684C03E003F08BFC0128F8
:105AB8000AD10221204601F079FC03464FF4007117
:105AC8004FF09040002BF0D1604C03E003F07AFCDB
