:020000040800F2
:1000000000800120F10E010853960008599600085F
:100010005F960008659600086B96000800000000D7
:1000200000000000000000000000000099690008C6
:1000300071960008000000005569000885680008F6
:10004000410F0108410F0108410F0108410F01084C
:10005000410F0108410F0108410F0108410F01083C
:10006000410F0108410F0108410F01087F96000868
:1000700079200008410F0108410F0108410F0108D4
:100080008D9600089B960008A9960008410F01086C
:10009000410F0108410F0108410F0108410F0108FC
:1000A000410F0108B9960008410F0108410F0108EE
:1000B000410F0108410F0108410F0108410F0108DC
:1000C000410F0108410F0108410F0108410F0108CC
:1000D000410F0108410F0108410F0108410F0108BC
:1000E000410F0108410F0108410F0108410F0108AC
:1000F000410F0108410F0108410F0108410F01089C
:10010000410F0108410F0108410F0108410F01088B
:10011000410F0108410F0108410F0108410F01087B
:10012000410F0108410F0108410F0108410F01086B
:10013000410F0108410F0108410F0108410F01085B
:10014000410F0108410F0108410F0108CD96000839
:10015000410F0108410F0108410F0108410F01083B
:10016000410F0108410F0108410F0108410F01082B
:10017000410F0108410F0108410F01080000000074
:08018000410F0108410F0108C5
:1001880081F0004102E000BF83F0004330B54FEA40
:1001980041044FEA430594EA050F08BF90EA020FAD
:1001A8001FBF54EA000C55EA020C7FEA645C7FEA40
:1001B800655C00F0E2804FEA5454D4EB5555B8BF63
:1001C8006D420CDD2C4480EA020281EA030382EAD4
:1001D800000083EA010180EA020281EA0303362D66
:1001E80088BF30BD11F0004F4FEA01314FF4801C39
:1001F8004CEA113102D0404261EB410113F0004F4B
:100208004FEA03334CEA133302D0524263EB430301
:1002180094EA050F00F0A780A4F10104D5F1200E9F
:100228000DDB02FA0EFC22FA05F2801841F10001FA
:1002380003FA0EF2801843FA05F359410EE0A5F1CE
:1002480020050EF1200E012A03FA0EFC28BF4CF0FF
:10025800020C43FA05F3C01851EBE37101F00045B5
:1002680007D54FF0000EDCF1000C7EEB00006EEBC2
:100278000101B1F5801F1BD3B1F5001F0CD349084C
:100288005FEA30004FEA3C0C04F101044FEA4452A3
:1002980012F5800F80F09A80BCF1004F08BF5FEA2A
:1002A800500C50F1000041EB045141EA050130BD0A
:1002B8005FEA4C0C404141EB0101013C28BFB1F51C
:1002C800801FE9D291F0000F04BF01460020B1FA67
:1002D80081F308BF2033A3F10B03B3F120020CDA3A
:1002E8000C3208DD02F1140CC2F10C0201FA0CF018
:1002F80021FA02F10CE002F11402D8BFC2F1200C7D
:1003080001FA02F120FA0CFCDCBF41EA0C01904032
:10031800E41AA2BF01EB0451294330BD6FEA04047B
:100328001F3C1CDA0C340EDC04F11404C4F1200266
:1003380020FA04F001FA02F340EA030021FA04F378
:1003480045EA030130BDC4F10C04C4F1200220FACF
:1003580002F001FA04F340EA0300294630BD21FA0D
:1003680004F0294630BD94F0000F83F4801306BFD3
:1003780081F480110134013D4EE77FEA645C18BFC7
:100388007FEA655C29D094EA050F08BF90EA020F5E
:1003980005D054EA000C04BF1946104630BD91EA56
:1003A800030F1EBF0021002030BD5FEA545C05D159
:1003B8004000494128BF41F0004130BD14F5800498
:1003C8003CBF01F5801130BD01F0004545F0FE410C
:1003D80041F470014FF0000030BD7FEA645C1ABF41
:1003E800194610467FEA655C1CBF0B46024650EA78
:1003F800013406BF52EA033591EA030F41F40021A4
:1004080030BD00BF90F0000F04BF0021704730B529
:100418004FF4806404F132044FF000054FF00001FE
:1004280050E700BF90F0000F04BF0021704730B5BF
:100438004FF4806404F1320410F0004548BF404294
:100448004FF000013EE700BF42004FEAE2014FEAE9
:1004580031014FEA02701FBF12F07F4393F07F4FC4
:1004680081F06051704732F07F4208BF704793F0C7
:100478007F4F04BF41F40021704730B54FF46074DA
:1004880001F0004521F000411CE700BF50EA0102DD
:1004980008BF704730B54FF000050AE050EA010286
:1004A80008BF704730B511F0004502D5404261EBF6
:1004B80041014FF4806404F132045FEA915C3FF437
:1004C800D8AE4FF003025FEADC0C18BF03325FEAD4
:1004D800DC0C18BF033202EBDC02C2F1200300FA85
:1004E80003FC20FA02F001FA03FE40EA0E0021FAAA
:1004F80002F11444BDE600BF70B54FF0FF0C4CF498
:10050800E06C1CEA11541DBF1CEA135594EA0C0F49
:1005180095EA0C0F00F0DEF82C4481EA030621EA84
:100528004C5123EA4C5350EA013518BF52EA0335BF
:1005380041F4801143F4801338D0A0FB02CE4FF071
:100548000005E1FB02E506F00042E0FB03E54FF0A1
:100558000006E1FB03569CF0000F18BF4EF0010E99
:10056800A4F1FF04B6F5007F64F5407404D25FEA95
:100578004E0E6D4146EB060642EAC62141EA555148
:100588004FEAC52040EA5E504FEACE2EB4F1FD0C8A
:1005980088BFBCF5E06F1ED8BEF1004F08BF5FEA08
:1005A800500E50F1000041EB045170BD06F00046BA
:1005B80046EA010140EA020081EA0301B4EB5C0467
:1005C800C2BFD4EB0C0541EA045170BD41F480115F
:1005D8004FF0000E013C00F3AB8014F1360FDEBF84
:1005E800002001F0004170BDC4F10004203C35DA60
:1005F8000C341BDC04F11404C4F1200500FA05F3E3
:1006080020FA04F001FA05F240EA020001F0004283
:1006180021F0004110EBD37021FA04F642EB0601F9
:100628005EEA430E08BF20EAD37070BDC4F10C0423
:10063800C4F1200500FA04F320FA05F001FA04F2E7
:1006480040EA020001F0004110EBD37041F10001D3
:100658005EEA430E08BF20EAD37070BDC4F12005DE
:1006680000FA05F24EEA020E20FA04F301FA05F246
:1006780043EA020321FA04F001F0004121FA04F2EE
:1006880020EA020000EBD3705EEA430E08BF20EABE
:10069800D37070BD94F0000F0FD101F000464000F8
:1006A80041EB010111F4801F08BF013CF7D041EA7A
:1006B800060195F0000F18BF704703F0004652007E
:1006C80043EB030313F4801F08BF013DF7D043EA4F
:1006D8000603704794EA0C0F0CEA135518BF95EA05
:1006E8000C0F0CD050EA410618BF52EA4306D1D18C
:1006F80081EA030101F000414FF0000070BD50EAAB
:10070800410606BF1046194652EA430619D094EA34
:100718000C0F02D150EA013613D195EA0C0F05D11E
:1007280052EA03361CBF104619460AD181EA030172
:1007380001F0004141F0FE4141F470014FF000002A
:1007480070BD41F0FE4141F4780170BD70B54FF0C5
:10075800FF0C4CF4E06C1CEA11541DBF1CEA135545
:1007680094EA0C0F95EA0C0F00F0A7F8A4EB050427
:1007780081EA030E52EA03354FEA013100F088801E
:100788004FEA03334FF0805545EA131343EA1263E7
:100798004FEA022245EA111545EA10654FEA00269C
:1007A8000EF000419D4208BF964244F1FD0404F555
:1007B800407402D25B084FEA3202B61A65EB0305B1
:1007C8005B084FEA32024FF480104FF4002CB6EB6E
:1007D800020E75EB030E22BFB61A754640EA0C00EE
:1007E8005B084FEA3202B6EB020E75EB030E22BF2E
:1007F800B61A754640EA5C005B084FEA3202B6EB6F
:10080800020E75EB030E22BFB61A754640EA9C002D
:100818005B084FEA3202B6EB020E75EB030E22BFFD
:10082800B61A754640EADC0055EA060E18D04FEABB
:10083800051545EA16754FEA06164FEAC30343EA5B
:1008480052734FEAC2025FEA1C1CC0D111F4801F28
:100858000BD141EA00014FF000004FF0004CB6E721
:1008680011F4801F04BF01430020B4F1FD0C88BFC0
:10087800BCF5E06F3FF6AFAEB5EB030C04BFB6EBCB
:10088800020C5FEA500C50F1000041EB045170BDBE
:100898000EF0004E4EEA113114EB5C04C2BFD4EBEB
:1008A8000C0541EA045170BD41F480114FF0000E6F
:1008B800013C90E645EA060E8DE60CEA135594EAEB
:1008C8000C0F08BF95EA0C0F3FF43BAF94EA0C0FEE
:1008D8000AD150EA01347FF434AF95EA0C0F7FF463
:1008E80025AF104619462CE795EA0C0F06D152EAB7
:1008F80003353FF4FDAE1046194622E750EA41069B
:1009080018BF52EA43067FF4C5AE50EA41047FF4AB
:100918000DAF52EA43057FF4EBAE12E74FF0FF3C10
:1009280006E000BF4FF0010C02E000BF4FF0010CE1
:100938004DF804CD4FEA410C7FEA6C5C4FEA430C5A
:1009480018BF7FEA6C5C1BD001B050EA410C0CBFA9
:1009580052EA430C91EA030F02BF90EA020F00200B
:10096800704710F1000F91EA030F58BF994208BF72
:1009780090422CBFD8176FEAE37040F0010070472F
:100988004FEA410C7FEA6C5C02D150EA013C07D186
:100998004FEA430C7FEA6C5CD6D152EA033CD3D0D1
:1009A8005DF8040B704700BF8446104662468C46CB
:1009B8001946634600E000BF01B5FFF7B7FF0028FE
:1009C80048BF10F1000F01BD4DF808EDFFF7F4FF27
:1009D8000CBF012000205DF808FB00BF4DF808EDB2
:1009E800FFF7EAFF34BF012000205DF808FB00BFD5
:1009F8004DF808EDFFF7E0FF94BF012000205DF8F7
:100A080008FB00BF4DF808EDFFF7CEFF94BF0120AB
:100A180000205DF808FB00BF4DF808EDFFF7C4FFA4
:100A280034BF012000205DF808FB00BF4FEA410CED
:100A38007FEA6C5C02D150EA013C0AD14FEA430CD0
:100A48007FEA6C5C02D152EA033C02D14FF000000D
:100A580070474FF0010070474FEA410212F500124B
:100A680015D211D56FF47873B3EB625212D94FEAED
:100A7800C12343F0004343EA505311F0004F23FAD7
:100A880002F018BF404270474FF00000704750EA2C
:100A9800013005D111F0004008BF6FF000407047E9
:100AA8004FF00000704700BF4A0011D212F5001243
:100AB80011D20DD56FF47873B3EB62520ED44FEAAE
:100AC800C12343F0004343EA505323FA02F070472E
:100AD8004FF00000704750EA013002D14FF0FF306C
:100AE80070474FF0000070474FEA4102B2F1E0430F
:100AF80024BFB3F5001CDCF1FE5C0DD901F0004CFD
:100B08004FEAC0024CEA5070B2F1004F40EB83004C
:100B180008BF20F00100704711F0804F21D113F178
:100B28003872BCBF01F00040704741F480114FEAB1
:100B38005252C2F11802C2F1200C10FA0CF320FA3A
:100B480002F018BF40F001004FEAC1234FEAD32357
:100B580003FA0CFC40EA0C0023FA02F34FEA4303C1
:100B6800CCE77FEA625307D150EA01331EBF4FF04A
:100B7800FE4040F44000704701F0004040F0FE4065
:100B880040F40000704700BF0348044B834202D082
:100B9800034B03B118477047B8020020B802002081
:100BA800000000000548064B1B1AD90F01EBA301F2
:100BB800491002D0034B03B118477047B802002010
:100BC800B80200200000000010B5064C237843B995
:100BD800FFF7DAFF044B13B10448AFF30080012399
:100BE800237010BDB8020020000000001414010892
:100BF80008B5054B1BB105490548AFF30080BDE8B2
:100C08000840FFF7CFBF00BF00000000BC02002073
:100C18001414010880B485B000AF78607B681B6845
:100C280003F06003FB60FB68002B04D17B681B6842
:100C380003F01003FB60FB6818461437BD465DF8E7
:100C4800047B704780B483B000AF78607B681B6B0F
:100C580018460C37BD465DF8047B704780B483B0F6
:100C680000AF786039607B681A6A3B681A437B6812
:100C78001A6200BF0C37BD465DF8047B704780B42C
:100C880083B000AF786039607B681A6A3B68DB43E1
:100C98001A407B681A6200BF0C37BD465DF8047BBA
:100CA800704780B483B000AF78607B685B6C43F4B6
:100CB80000427B685A6400BF0C37BD465DF8047B70
:100CC800704780B483B000AF78607B68DB6843F01E
:100CD80001027B68DA6000BF0C37BD465DF8047B13
:100CE800704780B483B000AF78607B68DB6823F01E
:100CF80001027B68DA6000BF0C37BD465DF8047BF3
:100D0800704780B483B000AF78607B68DB6803F01D
:100D18000103012B01D1012300E0002318460C3701
:100D2800BD465DF8047B704780B483B000AF78603F
:100D38007B68DB6843F002027B68DA6000BF0C372F
:100D4800BD465DF8047B704780B483B000AF78601F
:100D58007B68DB6823F002027B68DA6000BF0C372F
:100D6800BD465DF8047B704780B483B000AF7860FF
:100D78007B68DB6803F00203022B01D1012300E04A
:100D8800002318460C37BD465DF8047B704780B4D5
:100D980083B000AF78607B68DB6843F004027B684F
:100DA800DA6000BF0C37BD465DF8047B704780B43D
:100DB80083B000AF78607B68DB6823F004027B684F
:100DC800DA6000BF0C37BD465DF8047B704780B41D
:100DD80083B000AF78607B68DB6803F00403042B02
:100DE80001D1012300E0002318460C37BD465DF809
:100DF800047B704780B483B000AF78607B68DB68A1
:100E080043F008027B68DA6000BF0C37BD465DF826
:100E1800047B704780B483B000AF78607B68DB6880
:100E280023F008027B68DA6000BF0C37BD465DF826
:100E3800047B704780B483B000AF78607B68DB6860
:100E480003F00803082B01D1012300E00023184612
:100E58000C37BD465DF8047B704780B483B000AFA3
:100E680078607B68DB6843F010027B68DA6000BF5B
:100E78000C37BD465DF8047B704780B483B000AF83
:100E880078607B68DB6823F010027B68DA6000BF5B
:100E98000C37BD465DF8047B704780B483B000AF63
:100EA80078607B68DB6803F01003102B01D1012305
:100EB80000E0002318460C37BD465DF8047B7047F8
:100EC80080B483B000AF78607B68DB6843F02002B1
:100ED8007B68DA6000BF0C37BD465DF8047B70475D
:100EE80080B483B000AF78607B68DB6823F02002B1
:100EF8007B68DA6000BF0C37BD465DF8047B70473D
:100F080080B483B000AF78607B68DB6803F02003AF
:100F1800202B01D1012300E0002318460C37BD46E1
:100F28005DF8047B704780B483B000AF78607B685D
:100F3800DB6843F040027B68DA6000BF0C37BD46CF
:100F48005DF8047B704780B483B000AF78607B683D
:100F5800DB6823F040027B68DA6000BF0C37BD46CF
:100F68005DF8047B704780B483B000AF78607B681D
:100F7800DB6803F04003402B01D1012300E000238C
:100F880018460C37BD465DF8047B704780B483B0C3
:100F980000AF78607B68DB6843F080027B68DA60CA
:100FA80000BF0C37BD465DF8047B704780B483B042
:100FB80000AF78607B68DB6823F080027B68DA60CA
:100FC80000BF0C37BD465DF8047B704780B483B022
:100FD80000AF78607B68DB6803F08003802B01D169
:100FE800012300E0002318460C37BD465DF8047B5A
:100FF800704780B582B000AF78600B467B807B88F5
:1010080003F00103002B0CD07B681B681846FFF720
:10101800AAFF0346012B04D07B681B681846FFF71C
:1010280082FF7B8803F00203002B0CD07B681B68CF
:101038001846FFF799FE0346012B04D07B681B680E
:101048001846FFF771FE7B8803F00403002B0CD0D1
:101058007B681B681846FFF7BAFE0346012B04D0CD
:101068007B681B681846FFF792FE7B8803F008032D
:10107800002B0CD07B681B681846FFF7DBFE034685
:10108800012B04D07B681B681846FFF7B3FE7B88EA
:1010980003F01003002B0CD07B681B681846FFF781
:1010A800FCFE0346012B04D07B681B681846FFF73B
:1010B800D4FE7B8803F02003002B0CD07B681B68D0
:1010C8001846FFF71EFE0346012B04D07B681B68F9
:1010D8001846FFF7F6FD7B8803F04003002B0CD081
:1010E8007B681B681846FFF771FF0346012B04D085
:1010F8007B681B681846FFF749FF7B8803F080036D
:10110800002B0CD07B681B681846FFF7F9FE0346D6
:10111800012B04D07B681B681846FFF7D1FE00BF7F
:101128000837BD4680BD80B582B000AF78600B46F9
:101138007B807B8803F00103002B0CD07B681B6845
:101148001846FFF710FF0346012B04D17B681B6884
:101158001846FFF7F8FE7B8803F00203002B0CD03B
:101168007B681B681846FFF7FFFD0346012B04D177
:101178007B681B681846FFF7E7FD7B8803F00403CC
:10118800002B0CD07B681B681846FFF720FE03462F
:10119800012B04D17B681B681846FFF708FE7B8883
:1011A80003F00803002B0CD07B681B681846FFF778
:1011B80041FE0346012B04D17B681B681846FFF7E4
:1011C80029FE7B8803F01003002B0CD07B681B687A
:1011D8001846FFF762FE0346012B04D17B681B68A3
:1011E8001846FFF74AFE7B8803F02003002B0CD03B
:1011F8007B681B681846FFF784FD0346012B04D063
:101208007B681B681846FFF76CFD7B8803F040037A
:10121800002B0CD07B681B681846FFF7D7FE0346E7
:10122800012B04D17B681B681846FFF7BFFE7B883B
:1012380003F08003002B0CD07B681B681846FFF76F
:101248005FFE0346012B04D17B681B681846FFF735
:1012580047FE00BF0837BD4680BD000080B582B09C
:1012680000AF78600B46FB70FB78022B06D17B68D9
:101278001B6801211846FFF7F1FC31E07B681B6809
:10128800194A934213D07B681B68184A93420ED0C0
:101298007B681B68164A934209D07B681B68154A0D
:1012A800934204D07B681B68134A934218D1FB7899
:1012B800032B06D17B681B6804211846FFF7CEFC78
:1012C8000EE0FB78042B0BD17B681B6801211846C4
:1012D800FFF7C4FC7B681B6804211846FFF7BEFCB7
:1012E80000BF0837BD4680BD002C014000340140D6
:1012F80000400140004401400048014080B582B0F0
:1013080000AF78600B46FB70FB78022B06D17B6838
:101318001B6801211846FFF7B2FC31E07B681B68A7
:10132800194A934213D07B681B68184A93420ED01F
:101338007B681B68164A934209D07B681B68154A6C
:10134800934204D07B681B68134A934218D1FB78F8
:10135800032B06D17B681B6804211846FFF78FFC16
:101368000EE0FB78042B0BD17B681B680121184623
:10137800FFF785FC7B681B6804211846FFF77FFC94
:1013880000BF0837BD4680BD002C01400034014035
:1013980000400140004401400048014080B582B04F
:1013A80000AF78600B46FB70FB78022B06D17B6898
:1013B8001B6810211846FFF751FC31E07B681B6859
:1013C800194A934213D07B681B68184A93420ED07F
:1013D8007B681B68164A934209D07B681B68154ACC
:1013E800934204D07B681B68134A934218D1FB7858
:1013F800032B06D17B681B6840211846FFF72EFC9B
:101408000EE0FB78042B0BD17B681B681021184673
:10141800FFF724FC7B681B6840211846FFF71EFC79
:1014280000BF0837BD4680BD002C01400034014094
:1014380000400140004401400048014080B582B0AE
:1014480000AF78600B46FB70FB78022B06D17B68F7
:101458001B6810211846FFF712FC31E07B681B68F7
:10146800194A934213D07B681B68184A93420ED0DE
:101478007B681B68164A934209D07B681B68154A2B
:10148800934204D07B681B68134A934218D1FB78B7
:10149800032B06D17B681B6840211846FFF7EFFB3A
:1014A8000EE0FB78042B0BD17B681B6810211846D3
:1014B800FFF7E5FB7B681B6840211846FFF7DFFB59
:1014C80000BF0837BD4680BD002C014000340140F4
:1014D80000400140004401400048014080B582B00E
:1014E80000AF78600B46FB70FB78022B07D17B6856
:1014F8001B684FF480711846FFF7B0FB34E07B6837
:101508001B681B4A934213D07B681B68194A934295
:101518000ED07B681B68184A934209D07B681B6809
:10152800164A934204D07B681B68154A93421BD124
:10153800FB78032B07D17B681B684FF48061184642
:10154800FFF78CFB10E0FB78042B0DD17B681B6840
:101558004FF480711846FFF781FB7B681B684FF4D6
:1015680080611846FFF77AFB00BF0837BD4680BD8B
:10157800002C01400034014000400140004401407B
:101588000048014080B582B000AF78600B46FB7020
:10159800FB78022B07D17B681B684FF480711846D3
:1015A800FFF76DFB34E07B681B681B4A934213D03E
:1015B8007B681B68194A93420ED07B681B68184ADF
:1015C800934209D07B681B68164A934204D07B6813
:1015D8001B68154A93421BD1FB78032B07D17B6804
:1015E8001B684FF480611846FFF749FB10E0FB7851
:1015F800042B0DD17B681B684FF480711846FFF7E8
:101608003EFB7B681B684FF480611846FFF737FB89
:1016180000BF0837BD4680BD002C014000340140A2
:1016280000400140004401400048014080B582B0BC
:1016380000AF78600B46FB70FB78022B06D17B6805
:101648001B684FF480511846FFF708FB00BF0837A6
:10165800BD4680BD80B582B000AF78600B46FB7098
:10166800FB78022B06D17B681B684FF48051184623
:10167800FFF705FB00BF0837BD4680BD80B584B0C5
:1016880000AF78600023FB607B681B68304A934298
:1016980001D1304BFB607B681A68FB681A60FB68F5
:1016A8001B681846FFF7B6FAB860BB68002B06D06F
:1016B800BB68102B03D0FB6801221A7102E0FB689B
:1016C80000221A71FB681B68234A934213D0FB68F7
:1016D8001B68224A93420ED0FB681B68204A93423B
:1016E80009D0FB681B681F4A934204D0FB681B683B
:1016F8001D4A934204D1FB681B681846FFF7D1FACC
:10170800FB681B68144A934213D0FB681B68134A92
:1017180093420ED0FB681B68114A934209D0FB68BC
:101728001B68104A934204D0FB681B680E4A934218
:1017380008D17B681B681846FFF784FA0346DAB2BB
:10174800FB685A71FB6818461037BD4680BD00BF5C
:1017580000040040D4020020002C01400034014065
:1017680000400140004401400048014080B485B079
:1017780000AF786039603B68002B03D17B68403349
:10178800FB6001E0044BFB60FB6818461437BD465C
:101798005DF8047B704700BF0C03045080B483B02D
:1017A80000AF78607B68DB6803F44063002B01D1ED
:1017B800012300E0002318460C37BD465DF8047B82
:1017C800704780B483B000AF786039607B681B6B6A
:1017D80023F00F023B681A437B681A6300BF0C377B
:1017E800BD465DF8047B704780B483B000AF786075
:1017F80039607B68DB6823F003023B681A437B6827
:10180800DA6000BF0C37BD465DF8047B704780B4D2
:1018180083B000AF78607B68DB6C03F0C003002BFB
:1018280001D1012300E0002318460C37BD465DF8BE
:10183800047B704780B483B000AF78607B689B6896
:1018480023F0004323F03F0343F001027B689A60D2
:1018580000BF0C37BD465DF8047B704780B483B089
:1018680000AF78607B689B6823F0004323F03F0358
:1018780043F002027B689A6000BF0C37BD465DF8F2
:10188800047B704780B483B000AF78607B689B6846
:1018980003F00103012B01D1012300E000231846C6
:1018A8000C37BD465DF8047B704780B483B000AF49
:1018B800786039607B689B6823F0404323F03F03DE
:1018C8003A6802F08042134343F000427B689A6012
:1018D80000BF0C37BD465DF8047B704780B483B009
:1018E80000AF78607B689B6803F00043B3F1004F5A
:1018F80001D1012300E0002318460C37BD465DF8EE
:10190800047B704780B483B000AF78607B689B68C5
:1019180023F0004323F03F0343F004027B689A60FE
:1019280000BF0C37BD465DF8047B704780B483B0B8
:1019380000AF78607B689B6823F0004323F03F0387
:1019480043F008027B689A6000BF0C37BD465DF81B
:10195800047B704780B483B000AF78607B681B68F5
:1019680003F00803082B01D1012300E000231846E7
:101978000C37BD465DF8047B704780B483B000AF78
:1019880078607B681B6803F01003102B01D10123DA
:1019980000E0002318460C37BD465DF8047B70470D
:1019A80080B483B000AF78607B6810221A6000BFF3
:1019B8000C37BD465DF8047B704780B483B000AF38
:1019C80078607B685B6843F008027B685A6000BFF8
:1019D8000C37BD465DF8047B704780B483B000AF18
:1019E80078607B685B6843F040027B685A6000BFA0
:1019F8000C37BD465DF8047B704780B483B000AFF8
:101A080078607B685B6823F008027B685A6000BFD7
:101A18000C37BD465DF8047B704780B483B000AFD7
:101A280078607B685B6823F010027B685A6000BFAF
:101A38000C37BD465DF8047B704780B483B000AFB7
:101A480078607B685B6823F040027B685A6000BF5F
:101A58000C37BD465DF8047B704780B483B000AF97
:101A680078607B685B6823F080027B685A6000BFFF
:101A78000C37BD465DF8047B704780B483B000AF77
:101A880078607B685B6803F01003102B01D1012399
:101A980000E0002318460C37BD465DF8047B70470C
:101AA80080B483B000AF78607B685B6803F0800324
:101AB800802B01D1012300E0002318460C37BD46D6
:101AC8005DF8047B7047000080B485B000AF786093
:101AD80039607B68FB600C4A3B6813441B781A46E4
:101AE800FB6813441B6808493A680A44127811468F
:101AF800FA680A4443F00103136000BF1437BD4677
:101B08005DF8047B704700BF8414010880B485B079
:101B180000AF786039607B68FB600C4A3B6813440F
:101B28001B781A46FB6813441B6808493A680A443C
:101B380012781146FA680A4423F00103136000BFC3
:101B48001437BD465DF8047B704700BF8414010854
:101B580080B485B000AF786039607B68FB60084A64
:101B68003B6813441B781A46FB6813441B6803F050
:101B7800200318461437BD465DF8047B704700BF44
:101B88008414010880B487B000AFF860B9607A6047
:101B9800FB687B610D4ABB6813441B781A467B6956
:101BA80013445B681B0C1B040849BA680A44127882
:101BB80011467A690A4411467A6813434B6000BF9C
:101BC8001C37BD465DF8047B704700BF84140108CC
:101BD80080B487B000AFF860B9607A603B60FB689A
:101BE8007B613B6A102B14D1174ABB6813441B78DE
:101BF8001A467B6913441A467B68D360124ABB684D
:101C080013441B781A467B6913441A463B68936051
:101C180013E00D4ABB6813441B781A467B691344CA
:101C28001A467B689360084ABB6813441B781A46B7
:101C38007B6913441A463B68D36000BF1C37BD4616
:101C48005DF8047B704700BF8414010880B487B036
:101C580000AFF860B9607A60FB687B61074ABB68CF
:101C680013441B781A467B6913441A467B689360B1
:101C780000BF1C37BD465DF8047B7047841401081B
:101C880080B483B000AF78607B681B6803F02003E2
:101C9800202B01D1012300E0002318460C37BD4654
:101CA8005DF8047B704780B483B000AF78607B68D0
:101CB80020225A6000BF0C37BD465DF8047B704790
:101CC80080B485B000AF786039607B68FB600C4AEF
:101CD8003B6813441B781A46FB6813441B68084981
:101CE8003A680A4412781146FA680A4443F0020333
:101CF800136000BF1437BD465DF8047B704700BF12
:101D08008414010880B485B000AF786039607B68BE
:101D1800FB600C4A3B6813441B781A46FB68134463
:101D28001B6808493A680A4412781146FA680A4456
:101D380043F00803136000BF1437BD465DF8047B09
:101D4800704700BF8414010880B485B000AF786084
:101D580039607B68FB600C4A3B6813441B781A4661
:101D6800FB6813441B6808493A680A44127811460C
:101D7800FA680A4423F00203136000BF1437BD4613
:101D88005DF8047B704700BF8414010880B485B0F7
:101D980000AF786039607B68FB600C4A3B6813448D
:101DA8001B781A46FB6813441B6808493A680A44BA
:101DB80012781146FA680A4423F00403136000BF3E
:101DC8001437BD465DF8047B704700BF84140108D2
:101DD80080B485B000AF786039607B68FB600C4ADE
:101DE8003B6813441B781A46FB6813441B68084970
:101DF8003A680A4412781146FA680A4423F008033C
:101E0800136000BF1437BD465DF8047B704700BF00
:101E18008414010880B485B000AF786039607B68AD
:101E2800FB600A4A3B6813441B781A46FB68134454
:101E38001B6803F00203022B01D1012300E00023F9
:101E480018461437BD465DF8047B704784140108B2
:101E580080B584B000AF78600123FB817B681B6983
:101E68001846FFF79BFC0346002B2FD07B685B7A54
:101E7800DBB2022B11D07B685B7ADBB2042B0CD06F
:101E88007B685B7ADBB2082B07D07B681B69184636
:101E9800FFF760FD0346012B18D1786800F0F8F8C9
:101EA8000346002B12D17B685B7ADBB2082B03D187
:101EB8007B6801225A7202E07B6820225A727B6892
:101EC8001B691846FFF71EFD0023FB81FB89184696
:101ED8001037BD4680BD80B586B002AFF860B960E6
:101EE8007A603B600021F868FFF740FC03461A4619
:101EF8007968B868FFF7AAFE0021F868FFF736FC92
:101F080002463B68002100917968B868FFF760FED7
:101F1800BA697968B868FFF735FE7968B868FFF775
:101F2800CFFE7968B868FFF7EDFE7968B868FFF703
:101F3800CBFD00BF1037BD4680BD80B584B000AF73
:101F4800F860B9607A607968B868FFF7DFFD79688A
:101F5800B868FFF71BFF7968B868FFF739FF796839
:101F6800B868FFF7F1FE00227968B868FFF70AFE43
:101F780000BF1037BD4680BD80B584B000AF786023
:101F880039600223FB737B68DB79012B0FD17B68F7
:101F9800DA687B681B685B00D118FB7B7A6812687B
:101FA80002FB03F31A4638680FF022FA0AE07B684E
:101FB800D968FB7B7A68126802FB03F31A46386813
:101FC8000FF016FA00BF1037BD4680BD80B586B049
:101FD80000AFF860B9607A60FB685A69FB689B7962
:101FE80019461046FFF716FF0346DBB2012B37D11F
:101FF800FB685A69BB68104698470346012B2FD1E6
:10200800FB6804225A72FB685A697B681046984735
:10201800FB685A69FB689B7919461046FFF798FDDB
:102028000346002B19D1FB685A69FB689B7919464E
:102038001046FFF76BFDFB685869FB689B791946EA
:10204800FB681B681A46FFF79DFDFB685A69FB6829
:102058009B7919461046FFF737FD0123FB7501E010
:102068000023FB75FB7D18461837BD4680BD000070
:1020780080B500AF034A04490448FFF7A7FF00BF33
:1020880080BD00BFAF1C0008891C00086003002049
:1020980080B582B000AF78607B681B691846FFF78F
:1020A8006CFC0346DBB2012B07D17B681B69184621
:1020B800FFF776FC7B6810225A727B685B7ADBB28A
:1020C800102B0CBF01230023DBB218460837BD468E
:1020D80080BD80B582B000AF78600B46FB70FB789E
:1020E800012B0DD17B681B691846FFF757FB034688
:1020F800012B12D07B681B691846FFF703FC0CE024
:102108007B681B691846FFF782FB0346012B04D046
:102118007B681B691846FFF709FC00BF0837BD46F6
:1021280080BD000090B589B002AFF860084611463E
:102138001A4603467B810B463B811346FB800023EE
:102148007B61FB681B693C4A934201D13B4B7B6135
:102158007B69002B6BD0FB681A697B691A617B6904
:102168000022DA71FB88012B61D03B89002B47D014
:102178007B695B7ADBB2082B42D0FB68DA687B6943
:10218800DA60FB681A687B691A60FB685A697B69C0
:102198005A61FB689A797B699A71FB681A797B693D
:1021A8001A717B691B69B96A1846FFF70AFB7B89B4
:1021B800012B21D07B89042B16D17B691B69032154
:1021C8001846FFF711FB7B6918697B6959697B69B8
:1021D8009B791C467B69DA687B691B680093134608
:1021E8002246FFF778FE07E07B89022B04D17B6942
:1021F8001B691846FFF7E1FB7B6908225A7216E053
:102208003B89002B13D17B699B7ADBB2082B0ED05C
:10221800FB685A797B695A717B89022B04D17B69E7
:102228001B691846FFF7D9FB7B6908229A727B69FC
:1022380018461C37BD4690BD0001045060030020BD
:1022480080B582B000AF78607B681B691846FFF7DD
:1022580019FB0346002B04D17B681B691846FFF75E
:10226800E9FA00BF0837BD4680BD80B586B000AF2B
:10227800F8600B467A607B810123FB82FB681B694F
:10228800002B46D07B89012B05D1F868FFF7E0FDCC
:102298000346FB823DE07B89042B1FD1FB681B6949
:1022A8001846FFF77BFA0346002B32D0FB68012261
:1022B8005A72FB681B691846FFF724FB00BFFB68CE
:1022C8005B7ADBB2042BFAD17968F868FFF754FE21
:1022D800FB6808225A720023FB821AE07B89022BD2
:1022E80017D1FB685B7ADBB2202B09D0FB685B7ADD
:1022F800DBB2042B04D0FB685B7ADBB2102B08D16D
:10230800FB6808225A727968F868FFF735FE0023DF
:10231800FB82FB8A18461837BD4680BD80B582B05F
:1023280000AF78600B467B8013463B807B681B6957
:102338001846FFF7A7FA0346002B04D07B681B69F1
:102348001846FFF78BFA7B681B691846FFF7A8FB4E
:102358000346002B04D07B681B691846FFF77DFBFA
:102368007B681B691846FFF788FB0346002B04D0DF
:102378007B681B691846FFF750FB3B88002B35D05C
:102388007B88012B1AD07B88022B05D17B681B69BF
:102398001846FFF732FB11E07B88042B0ED17B68CF
:1023A80018697B6859697B689B791A46FFF7C5FDF0
:1023B8007B681B6900211846FFF716FA7B68002224
:1023C800DA607B6800221A607B6800225A617B68A9
:1023D80000229A717B6800221A717B681A697B68EF
:1023E8001B7919461046FFF7ECF90AE07B680022D2
:1023F8005A717B88022B04D17B681B691846FFF74A
:102408001CFB00BF0837BD4680BD000080B584B006
:1024180000AF78600B46FB707B681B691846FFF7B6
:1024280031FA0346FB7397F90F30012B04D17B680F
:102438001B691846FFF712FAFB78002B0FD17B684F
:102448001B697F211846FFF730FA00BF7B681B69BC
:102458001846FFF743FA0346012BF7D040E0FB7814
:10246800012B0FD17B681B692C491846FFF71DFA11
:1024780000BF7B681B691846FFF730FA0346012B3B
:10248800F7D02DE07B681B697F211846FFF70DFA0E
:1024980000BF7B681B691846FFF720FA0346012B2B
:1024A800F7D00023BB8107E000BFBB891BB29BB2FA
:1024B80001339BB21BB2BB81BB891BB29BB2032BFE
:1024C800F2D97B681B6915491846FFF7EEF900BF7A
:1024D8007B681B691846FFF701FA0346012BF7D002
:1024E8000023BB8107E000BFBB891BB29BB201334D
:1024F8009BB21BB2BB81BB891BB29BB2032BF2D927
:1025080097F90F30012B04D17B681B691846FFF738
:1025180091F900BF1037BD4680BD00BF00007F4065
:1025280080B483B000AF78607B681B6843F0010219
:102538007B681A6000BF0C37BD465DF8047B7047A6
:1025480080B483B000AF78607B681B6823F0010219
:102558007B681A6000BF0C37BD465DF8047B704786
:1025680080B483B000AF786039607B681B6823F063
:1025780004023B681A437B681A6000BF0C37BD46EB
:102588005DF8047B704780B483B000AF78607B68E7
:102598001B6803F0040318460C37BD465DF8047B3E
:1025A800704780B483B000AF78607B68DB6A1846F8
:1025B8000C37BD465DF8047B704780B483B000AF2C
:1025C800786039607B683A681A6300BF0C37BD468B
:1025D8005DF8047B704780B483B000AF78603960E1
:1025E8007B683A685A6300BF0C37BD465DF8047BC8
:1025F800704780B483B000AF786039607B683A6810
:102608009A6300BF0C37BD465DF8047B704780B401
:1026180083B000AF786039607B683A68DA6300BFDE
:102628000C37BD465DF8047B704780B483B000AFBB
:10263800786039607B683A681A6400BF0C37BD4619
:102648005DF8047B704780B483B000AF78607B6826
:102658005B6B18460C37BD465DF8047B704780B449
:1026680083B000AF78607B689B6B18460C37BD461B
:102678005DF8047B704780B483B000AF78607B68F6
:10268800DB6B18460C37BD465DF8047B704780B499
:1026980083B000AF78607B681B6C18460C37BD466A
:1026A8005DF8047B704780B483B000AF78607B68C6
:1026B8005B6943F001027B685A6100BF0C37BD4675
:1026C8005DF8047B704780B483B000AF78607B68A6
:1026D8001B6918460C37BD465DF8047B704780B40B
:1026E80083B000AF786039607B683A689A6100BF50
:1026F8000C37BD465DF8047B704780B483B000AFEB
:10270800786039607B683A689A6200BF0C37BD46CA
:102718005DF8047B7047000080B584B000AF786036
:1027280087ED000AD7ED007AF5EEC07AF1EE10FADF
:1027380003D54FF000033B600AE0D7ED007A9FED28
:10274800167AF4EEC77AF1EE10FA01DD134B3B600E
:102758007B681B681846FFF724FFF8607B681B79C5
:10276800002B0CBF01230023DBB21A46FB6813447D
:1027780007EE903AB8EE677AD7ED007A27EE277A17
:10278800DFED056AC7EE267AFCEEE77A17EE903A97
:1027980018461037BD4680BD0000C8420000C84238
:1027A80080B582B000AF786039607B681B681846D6
:1027B800FFF749FF02463B68934205D07B681B68D8
:1027C80039681846FFF707FF00BF0837BD4680BDC8
:1027D80080B582B000AF786039607B681B681846A6
:1027E800FFF73DFF02463B68934205D07B681B68B4
:1027F80039681846FFF7FDFE00BF0837BD4680BDA3
:1028080080B582B000AF786039607B681B68184675
:10281800FFF731FF02463B68934205D07B681B688F
:1028280039681846FFF7F3FE00BF0837BD4680BD7C
:1028380080B582B000AF786039607B681B68184645
:10284800FFF725FF02463B68934205D07B681B686B
:1028580039681846FFF7E9FE00BF0837BD4680BD56
:1028680080B584B000AF786087ED000A97ED000A64
:102878007868FFF751FFF860F9687868FFF790FF0C
:1028880000BF1037BD4680BD80B584B000AF78600A
:1028980087ED000A97ED000A7868FFF73DFFF860BA
:1028A800F9687868FFF794FF00BF1037BD4680BD10
:1028B80080B584B000AF786087ED000A97ED000A14
:1028C8007868FFF729FFF860F9687868FFF798FFDC
:1028D80000BF1037BD4680BD80B584B000AF7860BA
:1028E80087ED000A97ED000A7868FFF715FFF86092
:1028F800F9687868FFF79CFF00BF1037BD4680BDB8
:1029080080B485B000AF78607B681B689A68074B15
:102918001340FB60FB68062B0CBF01230023DBB2CE
:1029280018461437BD465DF8047B70470700010060
:1029380080B584B000AF78600B46FB707B681B687D
:102948001846FFF720FEF860FB78002B1ED07B6846
:102958001B68324A934213D07B681B68304A934203
:102968000ED07B681B682F4A934209D07B681B688E
:102978002D4A934204D07B681B682C4A934205D1A8
:102988007B681B6800211846FFF717FEFB68042BBD
:1029980011D07B681B6804211846FFF7E1FD7B68AE
:1029A8001B681846FFF77FFE7B681B68F9681846A6
:1029B800FFF7D6FD04E07B681B681846FFF773FE37
:1029C8007B681B681846FFF7ABFDFB78002B20D00F
:1029D8007B681B68114A934213D07B681B68104AB6
:1029E80093420ED07B681B680E4A934209D07B68DD
:1029F8001B680D4A934204D07B681B680B4A9342BC
:102A080007D17B681A687B685B7919461046FFF71F
:102A1800D4FD00BF1037BD4680BD00BF002C01406B
:102A2800003401400040014000440140004801409A
:102A380080B582B000AF78607B681B681846FFF7E6
:102A48007FFD00BF0837BD4680BD000080B483B05D
:102A580000AF7860074B5B79002B0CBF0123002384
:102A6800DAB27B6801331A7000BF0C37BD465DF8D7
:102A7800047B70478023002080B400AF0C4B5B7947
:102A8800002B0CBF01230023DAB2094B9A71084BC3
:102A98005A790132D2B25A71054B5B79092B02D9A6
:102AA800034B00225A7100BFBD465DF8047B704796
:102AB8008023002080B485B000AF786039607B68DF
:102AC800012283F8D8203B68D3E900237968C1E95B
:102AD80002237B6801221A600023FB600CE07B68FC
:102AE800D3E902237868F9680231C9000144C1E9D1
:102AF8000023FB680133FB60FB68182BEFDD00BF88
:102B080000BF1437BD465DF8047B704780B586B0BA
:102B180000AF87ED040BF860B9607A60BB68D3E951
:102B280002017B68D3E90023FDF74EFF0346002B23
:102B380005D17B68D3E90023B968C1E90223F868A5
:102B4800BB681033C82219460EF052FCF968D7E961
:102B58000423C1E93223FB6803F1D000BB681033BA
:102B6800C02219460EF044FCBB6803F11000FB6854
:102B7800C833C82219460EF03BFC00BF1837BD46C3
:102B880080BD80B485B000AF786039607B68012271
:102B980083F860203B68D3E900237968C1E9022300
:102BA8007B6801221A600023FB600CE07B68D3E994
:102BB80002237868F9680231C9000144C1E9002399
:102BC800FB680133FB60FB68092BEFDD00BF00BF2A
:102BD8001437BD465DF8047B704780B586B000AFFA
:102BE80087ED040BF860B9607A60BB68D3E902012D
:102BF8007B68D3E90023FDF7E7FE0346002B05D1E8
:102C08007B68D3E90023B968C1E90223F868BB6887
:102C18001033502219460EF0EBFBF968D7E904236C
:102C2800C1E91423FB6803F15800BB68103348223C
:102C380019460EF0DDFBBB6803F11000FB6850334A
:102C4800502219460EF0D4FB00BF1837BD4680BD90
:102C5800B0B588B000AF87ED040BF860B9607A6052
:102C6800B9684FF000024FF00003C1E9002379680A
:102C78004FF000024FF00003C1E900234FF00002BB
:102C8800A74BD7E90401FDF79FFE0346002B00D1AF
:102C9800D5E1FB681033D3E900014FF00002A04BE7
:102CA800FDF792FE0346002B12D0FB682833D3E9C8
:102CB80000014FF000024FF00003FDF785FE0346C8
:102CC800002B05D097494FF00002974BC1E9E2234A
:102CD800FB681033D3E900014FF000024FF0000306
:102CE800FDF772FE0346002B25D0FB682833D3E995
:102CF80000014FF000028A4BFDF766FE0346002BE9
:102D080005D088494FF00002854BC1E9E223FB68F2
:102D18002833D3E900014FF000024FF00003FDF71C
:102D280053FE0346002B06D07E494FF000024FF0B9
:102D38000003C1E9E2237B4BD3E9E2014FF0000233
:102D4800774BFDF741FE0346002B1ED0FB6810337E
:102D5800D3E900014FF00002714BFDF735FE034641
:102D6800002B12D0FB682833D3E900014FF0000292
:102D78006B4BFDF729FE0346002B06D069494FF03F
:102D880000024FF08043C1E9E223664BD3E9E20138
:102D98004FF00002644BFDF717FE0346002B1ED0D0
:102DA800FB681033D3E900014FF000025C4BFDF7DC
:102DB8000BFE0346002B12D0FB682833D3E9000131
:102DC8004FF00002564BFDF7FFFD0346002B06D0DF
:102DD80054494FF000024FF04043C1E9E223514B00
:102DE800D3E9E0014F4BD3E9E223FDF7CFF90246DF
:102DF8000B464C49C1E9E0234A4BD3E9E045494B2E
:102E0800D3E9E00142A3D3E90023FDF775FB0246AD
:102E18000B4620462946FDF7B7F902460B464149BD
:102E2800C1E9E0233F4BD3E9E2013E4BD3E9DE237E
:102E3800FDF7AAF902460B4614461D46394BD3E95D
:102E4800E40135A3D3E90023FDF756FB02460B4600
:102E580020462946FDF79AF902460B463149C1E951
:102E6800E423304BD3E9E2014FF000022F4BFDF78A
:102E780043FB02460B4614461D462A4BD3E9E001A4
:102E88004FF000022A4BFDF737FB02460B4620465F
:102E98002946FDF77BF902460B4614461D46214B91
:102EA800D3E9E4014FF00002224BFDF725FB02466F
:102EB8000B4620462946FDF769F902460B46C7E945
:102EC8000623184BD3E9E2231649C1E9DE23D7E9E3
:102ED80006234FF000001749FDF756F902460B4646
:102EE800104619464FF00002134BFDF78BFD0346C1
:102EF800002B23D0D7E906234FF000000D49FDF73A
:102F080043F902460B46B968C1E900231CE000BF3B
:102F18007B14AE47E17A743F9A9999999999E93F58
:102F28000000F03FB01500200000F0BF00002E4068
:102F38000000E03F00005940000059C0B9684FF058
:102F48000002414BC1E90023BB68D3E900014FF0FF
:102F580000023E4BFDF760FD0346002B05D0B96823
:102F68004FF00002394BC1E900234FF00002374B04
:102F7800D7E90601FDF70AF902460B46104619463D
:102F88004FF00002304BFDF73DFD0346002B0CD0FF
:102F98004FF000022D4BD7E90601FDF7F7F802467E
:102FA8000B467968C1E9002305E079684FF0000213
:102FB800254BC1E900237B68D3E900014FF00002EB
:102FC800224BFDF729FD0346002B05D079684FF009
:102FD80000021E4BC1E900231D4BD3E9E2014FF06B
:102FE80000024FF00003FDF7EFFC0346002B00D171
:102FF80025E0FB681033D3E900014FF00002154BC0
:10300800FDF7E2FC0346002B00D118E0FB682833EB
:10301800D3E900014FF000020E4BFDF7D5FC034643
:10302800002B00D10BE0B9684FF000020A4BC1E950
:10303800002379684FF00002074BC1E9002300BF65
:103048002037BD46B0BD00BF000059C00000594040
:10305800B01500200000F03F000049C080B58CB0DA
:1030680002AF78607B6800221A727B6801225A607E
:103078007B681033BB6100237B741A4BFB611A4BCE
:103088003B620123BB74002387F82430022387F8AE
:1030980025300923FB6009233B7407F10C00082342
:1030A8000093042301220421FFF73CF802467B68C1
:1030B800DA607B68DB6802211846FFF7A7F97B68AE
:1030C800DB681846FFF7BCF87B68DB680121184607
:1030D800FEF7FFFF7B6801221A7200BF2837BD4642
:1030E80080BD00BF000104500000024080B5A6B0BA
:1030F80000AF78601A4BBB6000233B7300237B73DF
:1031080007F108031846FEF7B9FA02467B68DA6049
:103118007B68DB6800211846FDF76BFF7B68DB687E
:1031280002211846FEF7DAF97B68DB6802211846A7
:10313800FEF77CFA7B68DB681846FFF7E1FB03467D
:1031480087F8973097F89730002B05D17B68DB68B4
:1031580000211846FFF7ECFB00BF9837BD4680BD3D
:103168000004004080B5A6B000AF78601A4BBB6081
:1031780000233B7300237B7307F108031846FEF70F
:103188007DFA02467B68DA607B68DB6800211846B6
:10319800FDF72FFF7B68DB6802211846FEF75EF813
:1031A8007B68DB6802211846FEF7F8F87B68DB6865
:1031B8001846FFF7A5FB034687F8973097F897302E
:1031C800002B05D17B68DB6800211846FFF7B0FBB0
:1031D80000BF9837BD4680BD0004004000000000D5
:1031E8002DE9F043A7B000AFFFF746FC984BD3F8A2
:1031F800D432984A04211846FFF737F8944BB3F8AD
:103208003434A7F87030934BDB89934AA2F88030A6
:10321800904B1B88904AA2F88E308E4B9B898E4A21
:10322800A2F882308B4B5B888B4AA2F88C30894B92
:103238005B89894AA2F88430864B9B88864AA2F823
:103248008A30844B1B89844AA2F88630814BDB88FC
:10325800814AA2F888300023FB6710E07E4AFB6FA2
:10326800403332F813301846FDF7CCF87A4AFB6F32
:10327800DB001344C3E90001FB6F0133FB67FB6FFD
:10328800072BEBDD744B93ED027B744A7449754848
:10329800B0EE470AF0EE670AFFF79FFC6E4B03F5A6
:1032A8005663D3E90023C7E922230023BB671AE04A
:1032B800BB6F0133684A03F5D673DB001344D3E9C7
:1032C8000023C7E92023D7E92023D7E92201FDF706
:1032D80085FB0346002B03D0D7E92023C7E9222327
:1032E800BB6F0133BB67BB6F082BE1DD5E4A5F49EB
:1032F8005F4897ED220BFFF709FC574B03F5815305
:103308001033D3E90023C7E924230023BB671AE05D
:10331800BB6F0133504A03F20623DB001344D3E9A1
:103328000023C7E92023D7E92023D7E92401FDF7A3
:1033380073FB0346002B03D0D7E92023C7E92423D6
:10334800BB6F0133BB67BB6F172BE1DD424B93EDBE
:10335800047B484A48494948B0EE470AF0EE670AF4
:10336800FFF7D4FB3C4B03F50B63D3E90023C7E914
:1033780022230023BB671AE0BB6F0133364A03F5EB
:103388008B73DB001344D3E90023C7E92023D7E973
:103398002023D7E92201FDF721FB0346002B03D0A8
:1033A800D7E92023C7E92223BB6F0133BB67BB6F73
:1033B800172BE1DD284B93ED067B314A3149324822
:1033C800B0EE470AF0EE670AFFF7A0FB224B03F5C1
:1033D800B263D3E900232049C1E930230023BB6746
:1033E8001BE0BB6F01331C4AB233DB001344D3E943
:1033F8000023C7E92023184BD3E93023D7E920015C
:10340800FDF70AFB0346002B04D01349D7E9202314
:10341800C1E93023BB6F0133BB67BB6F172BE0DDFE
:103428000D4B93ED087B194A19491A48B0EE470A23
:10343800F0EE670AFFF76AFB074B03F58063D3E9F1
:1034480000230549C1E932230023BB6740E000BFE0
:10345800B01500209C030020F0030020B8000020D5
:10346800F020002050110020D0000020A0220020D1
:1034780020140020A0000020501E0020A00C0020D6
:1034880090000020901C0020800900208800002067
:10349800B01B0020F0070020BB6F0133964A803331
:1034A800DB001344D3E90023C7E92023924BD3E977
:1034B8003223D7E92001FDF7AFFA0346002B04D0E9
:1034C8008D49D7E92023C1E93223BB6F0133BB679C
:1034D800BB6F172BE0DD884B93ED0A7B874A884941
:1034E8008848B0EE470AF0EE670AFFF70FFB824BF9
:1034F800D3E99C238049C1E934230023BB671BE03F
:10350800BB6F01337C4A4E33DB001344D3E90023FD
:10351800C7E92023784BD3E93423D7E92001FDF705
:103528007BFA0346002B04D07349D7E92023C1E96D
:103538003423BB6F0133BB67BB6F172BE0DD6E4BCA
:1035480093ED0C7B704A71497148B0EE470AF0EE72
:10355800670AFFF742FB684B03F56063D3E9002372
:103568006549C1E936230023BB671CE0BB6F013303
:10357800614A03F5E073DB001344D3E90023C7E98C
:1035880020235D4BD3E93623D7E92001FDF744FA20
:103598000346002B04D05849D7E92023C1E9362334
:1035A800BB6F0133BB67BB6F082BDFDD524B93ED5D
:1035B800367B584A58495948B0EE470AF0EE670A30
:1035C800FFF7A4FA4C4B03F56A63D3E900234A4991
:1035D800C1E936230023BB671CE0BB6F0133464AB1
:1035E80003F5EA73DB001344D3E90023C7E920237A
:1035F800414BD3E93623D7E92001FDF7EFF903461C
:10360800002B04D03C49D7E92023C1E93623BB6FFE
:103618000133BB67BB6F172BDFDD414BB3F8363483
:10362800A7F86E303F4AB7F87030138097ED240B37
:103638000DF0E2FCB0EE407AF0EE607A9FED2C1BC4
:10364800B0EE470AF0EE670A0DF09EFC87ED200BFE
:103658004FF000024FF00003D7E92001FDF7BEF953
:103668000346002B0ED0D7F88040D7F8843083F07B
:10367800004520462946FDF717FA03469BB25B42F0
:103688009BB205E0D7E92001FDF70EFA03469BB28D
:10369800244A538097ED220B0DF0AEFCB0EE407A31
:1036A800F0EE607A9FED121BB0EE470AF0EE670A63
:1036B8000DF06AFC87ED200B4FF000024FF000037D
:1036C800D7E92001FDF78AF90346002B2CD0D7F85B
:1036D80080303B65D7F8843083F000437B65D7E9B9
:1036E8001401FDF7E1F903469BB25B429BB221E06E
:1036F800000000000000F040F003002080000020DF
:10370800D01A002060060020C000002058210020A8
:10371800F0110020C8000020C021002090120020D5
:10372800B0150020B0030020D7E92001FDF7BCF94F
:1037380003469BB2A04A9380A04B93ED307BB0EE3A
:10374800470AF0EE670A0DF057FCB0EE407AF0EE4B
:10375800607A9FED971BB0EE470AF0EE670A0DF00E
:1037680013FC87ED200B4FF000024FF00003D7E960
:103778002001FDF733F90346002B10D0D7F880302D
:10378800BB64D7F8843083F00043FB64D7E91201A7
:10379800FDF78AF903469BB25B429BB205E0D7E985
:1037A8002001FDF781F903469BB2834AD380834BFE
:1037B80093ED327BB0EE470AF0EE670A0DF01CFC81
:1037C800B0EE407AF0EE607A9FED791BB0EE470AD2
:1037D800F0EE670A0DF0D8FB87ED200B4FF00002E2
:1037E8004FF00003D7E92001FDF7F8F80346002B56
:1037F80010D0D7F880303B64D7F8843083F000438A
:103808007B64D7E91001FDF74FF903469BB25B4291
:103818009BB205E0D7E92001FDF746F903469BB2C4
:10382800654A1381654B93ED347BB0EE470AF0EEA1
:10383800670A0DF0E1FBB0EE407AF0EE607A9FED9A
:103848005C1BB0EE470AF0EE670A0DF09DFB87EDB2
:10385800200B4FF000024FF00003D7E92001FDF7DD
:10386800BDF80346002B10D0D7F88030BB63D7F8DB
:10387800843083F00043FB63D7E90E01FDF714F9A8
:1038880003469BB25B429BB205E0D7E92001FDF7F6
:103898000BF903469BB2484A5381484B93ED367B5C
:1038A800B0EE470AF0EE670A0DF0A6FBB0EE407ADC
:1038B800F0EE607A9FED3E1BB0EE470AF0EE670A25
:1038C8000DF062FB87ED200B4FF000024FF0000374
:1038D800D7E92001FDF782F80346002B10D0D7F86E
:1038E80080303B63D7F8843083F000437B63D7E9AB
:1038F8000C01FDF7D9F803469BB25B429BB205E089
:10390800D7E92001FDF7D0F803469BB22A4A9381F4
:10391800294AB7F86E30D381294BB3F86630264A66
:103928001382284BB3F83834A7F87030234B93ED43
:10393800027B254A25492648B0EE470AF0EE670A79
:10394800FFF7E4F81D4B03F53D63D3E90023C7E90E
:1039580024230023BB671AE0BB6F0133174A03F522
:10396800BD73DB001344D3E90023C7E92023D7E95B
:103978002023D7E92401FDF74FF80346002B03D095
:10398800D7E92023C7E92423BB6F0133BB67BB6F8B
:10399800172BE1DD094B03F50B63D3E90023074936
:1039A800C1E936230023BB6731E000BFAFF30080D5
:1039B800000000000000F040B0030020F0030020E9
:1039C80000000020B0150020B000002010200020CA
:1039D800C00F0020BB6F0133A14A03F58B73DB00D6
:1039E8001344D3E90023C7E920239D4BD3E93623A9
:1039F800D7E92001FCF7F2FF0346002B04D09849D1
:103A0800D7E92023C1E93623BB6F0133BB67BB6FFE
:103A1800172BDFDD924B03F5B263D3E90023C7E927
:103A280022230023BB6719E0BB6F01338C4AB233F2
:103A3800DB001344D3E90023C7E92023D7E9202377
:103A4800D7E92201FCF7E8FF0346002B03D0D7E9AA
:103A58002023C7E92223BB6F0133BB67BB6F172B3A
:103A6800E2DD7F4B03F58063D3E900237C49C1E99C
:103A780030230023BB671BE0BB6F0133784A8033D8
:103A8800DB001344D3E90023C7E92023744BD3E9AF
:103A98003023D7E92001FCF7A1FF0346002B04D00F
:103AA8006F49D7E92023C1E93023BB6F0133BB67D6
:103AB800BB6F172BE0DD6A4BD3E99C236849C1E94A
:103AC80032230023BB671BE0BB6F0133644A4E33CC
:103AD800DB001344D3E90023C7E92023604BD3E973
:103AE8003223D7E92001FCF779FF0346002B04D0E5
:103AF8005B49D7E92023C1E93223BB6F0133BB6798
:103B0800BB6F172BE0DD564B93ED0C7B554A56499E
:103B18005648B0EE470AF0EE670AFEF7F7FF504B3B
:103B280003F52463D3E900234D49C1E93423002375
:103B3800BB671CE0BB6F0133494A03F5A473DB0084
:103B48001344D3E90023C7E92023454BD3E93423A1
:103B5800D7E92001FCF742FF0346002B04D0404977
:103B6800D7E92023C1E93423BB6F0133BB67BB6F9F
:103B7800172BDFDD3E4BB3F83A34A7F86E303D4AD9
:103B8800B7F87030138097ED240B0DF035FAB0EECE
:103B9800407AF0EE607A9FED301BB0EE470AF0EE07
:103BA800670A0DF0F1F987ED200B4FF000024FF096
:103BB8000003D7E92001FCF711FF0346002B10D0C2
:103BC800D7F88030BB62D7F8843083F00043FB62BB
:103BD800D7E90A01FCF768FF03469BB25B429BB238
:103BE80005E0D7E92001FCF75FFF03469BB2214AB5
:103BF80053801B4B93ED367BB0EE470AF0EE670A15
:103C08000DF0FAF9B0EE407AF0EE607A9FED121BF3
:103C1800B0EE470AF0EE670A0DF0B6F987ED200B13
:103C28004FF000024FF00003D7E92001FCF7D6FE61
:103C38000346002B20D0D7F880303B62D7F8843079
:103C480083F000437B62D7E90801FCF72DFF0346A8
:103C58009BB25B429BB215E0000000000000F04000
:103C6800F0030020A8000020301F0020300E0020A4
:103C7800B0150020C4030020D7E92001FCF714FF89
:103C880003469BB2A44A938097ED220B0DF0B4F93A
:103C9800B0EE407AF0EE607A9FED9D1BB0EE470AD9
:103CA800F0EE670A0DF070F987ED200B4FF0000277
:103CB8004FF00003D7E92001FCF790FE0346002BE4
:103CC80010D0D7F88030BB61D7F8843083F0004338
:103CD800FB61D7E90601FCF7E7FE03469BB25B42AE
:103CE8009BB205E0D7E92001FCF7DEFE03469BB254
:103CF800894AD380894B93ED307BB0EE470AF0EECA
:103D0800670A0DF079F9B0EE407AF0EE607A9FED2F
:103D1800801BB0EE470AF0EE670A0DF035F987ED23
:103D2800200B4FF000024FF00003D7E92001FCF709
:103D380055FE0346002B10D0D7F880303B61D7F8EA
:103D4800843083F000437B61D7E90401FCF7ACFEC3
:103D580003469BB25B429BB205E0D7E92001FCF722
:103D6800A3FE03469BB26C4A13816C4B93ED327BE6
:103D7800B0EE470AF0EE670A0DF03EF9B0EE407A71
:103D8800F0EE607A9FED621BB0EE470AF0EE670A2C
:103D98000DF0FAF887ED200B4FF000024FF000030A
:103DA800D7E92001FCF71AFE0346002B10D0D7F8FC
:103DB8008030BB60D7F8843083F00043FB60D7E9DC
:103DC8000201FCF771FE03469BB25B429BB205E021
:103DD800D7E92001FCF768FE03469BB24E4A53819F
:103DE8004E4B93ED347BB0EE470AF0EE670A0DF0C8
:103DF80003F9B0EE407AF0EE607A9FED451BB0EE25
:103E0800470AF0EE670A0DF0BFF887ED200B4FF078
:103E180000024FF00003D7E92001FCF7DFFD03465D
:103E2800002B10D0D7F880303B60D7F8843083F06F
:103E380000437B60D7E90001FCF736FE03469BB2DE
:103E48005B429BB205E0D7E92001FCF72DFE034653
:103E58009BB2314A9381304AB7F86E30D381304BE8
:103E6800B3F86C202C4B1A822E4B9B79002B0BD06D
:103E78002A4BD3E900232C49C1E9C823274BD3E9AE
:103E88000E232949C1E9CA230023FB6727E0244BF5
:103E9800B3F860301946214AFB6F403332F81330CB
:103EA80001FB03F31846FCF7ADFA4FF000021F4B75
:103EB800FCF722FB02460B461848F96FC90001447B
:103EC800C1E900231A4AFB6F134400221A70194AE9
:103ED800FB6F002122F81310FB6F0133FB67FB6FA8
:103EE800072BD4DD144B00221A60144B00221A60F1
:103EF8000D4BD3E9DC014FF00002114BFCF746F9FA
:103F080002460B460849C1E9DC230023FB6727E08A
:103F1800000000000000F040C4030020F00300206F
:103F28000000002080230020B01500200000503E33
:103F3800E8030020D8030020940300209803002001
:103F48000000F03FB14AFB6F134493F9001007F1EA
:103F58005C02FB6F13440A461A70FB6F0133FB6760
:103F6800FB6F042BEEDDAA4BD3E9DC014FF0000216
:103F78004FF00003FCF732FD0346002B0DD0A44B95
:103F8800D3E9DC2310461946FCF766FD03465B427D
:103F9800FB67002387F873300BE09D4BD3E9DC23E4
:103FA80010461946FCF758FD0346FB67012387F8BE
:103FB8007330FB6F052B0BDDFA6F964B83FB0213F7
:103FC8005910D317C91A0B469B000B44D31AFB6729
:103FD800FB6F022B0CDDFB6FC3F10503FB6797F842
:103FE8007330002B0CBF01230023DBB287F873303A
:103FF800002387F85830002387F85930FB6F002BCF
:1040080052DD97F87330002B23D00523BB6714E0EB
:10401800BA6FFB6FD31A5A1EBB6F013B403207F1D0
:1040280058010A4412F93C2C403307F158010B445B
:1040380003F83C2CBB6F013BBB67FA6FBB6F9A421E
:10404800E6DBFA6F07F15C03002118460DF09EF9D4
:104058002AE0FA6F07F158036C4918460DF0C8F9C1
:10406800FB6FC3F105031A4607F15C0300211846EC
:104078000DF08CF90023BB6712E0BA6FFB6FD31AFF
:10408800053307F15801BA6F0A4492F9002040330A
:1040980007F158010B4403F83C2CBB6F0133BB6795
:1040A800BA6FFB6F9A42E8DB5B4B5C4AC3F890201F
:1040B80097F95E30002B03D04FF40073BB6701E023
:1040C8000023BB67544BD3F89030BA6F114618469B
:1040D800FEF705FB504BD3F89020BB6FDB4303F48E
:1040E800007319461046FEF708FB4B4B4B4AC3F8C2
:1040F800902097F95E30002B03D04FF48043BB67C4
:1041080001E00023BB67444BD3F89030BA6F1146E7
:104118001846FEF7E4FA404BD3F89020BB6FDB4318
:1041280003F4804319461046FEF7E7FA3A4B3B4A38
:10413800C3F8902097F95D30002B03D04FF48073BB
:10414800BB6701E00023BB67334BD3F89030BA6FED
:1041580011461846FEF7C3FA2F4BD3F89020BB6FD1
:10416800DB4303F4807319461046FEF7C6FA2A4B60
:104178002A4AC3F8902097F95D30002B03D04FF4FA
:104188000043BB6701E00023BB67234BD3F89030A3
:10419800BA6F11461846FEF7A2FA1F4BD3F89020C3
:1041A800BB6FDB4303F4004319461046FEF7A5FA3C
:1041B800194B1A4AC3F8902097F95F30002B03D0A7
:1041C8004FF48053BB6701E00023BB67124BD3F861
:1041D8009030BA6F11461846FEF781FA0E4BD3F8A5
:1041E8009020BB6FDB4303F4805319461046FEF75B
:1041F80084FA094B0A4AC3F8902097F95C30002BDF
:1042080010D04FF48053BB670EE000BF9014010834
:10421800B015002067666666F003002000100048AD
:10422800000400480023BB67744BD3F89030BA6F82
:1042380011461846FEF753FA704BD3F89020BB6F1F
:10424800DB4303F4805319461046FEF756FA6B4BCE
:104258006B4AC3F8902097F95C30002B03D04FF4D9
:104268000053BB6701E00023BB67644BD3F8903071
:10427800BA6F11461846FEF732FA604BD3F8902011
:10428800BB6FDB4303F4005319461046FEF735FABB
:104298005A4B5B4AC3F8902097F95F30002B03D044
:1042A8004FF40063BB6701E00023BB67534BD3F8AF
:1042B8009030BA6F11461846FEF711FA4F4BD3F8F3
:1042C8009020BB6FDB4303F4006319461046FEF7EA
:1042D80014FA4C48FEF7F7F9B86697F95C20474B93
:1042E80083F8942097F95D20444B83F8952097F93B
:1042F8005E20424B83F8962097F95F203F4B83F866
:10430800972097F95F203D4B83F8982097F95E2016
:104318003A4B83F8992097F95D20384B83F89A2017
:1043280097F95C20354B83F89B20374B93F83D3445
:10433800002B1ED10023FB6714E0304AFB6F1344A7
:10434800943393F900301846FCF76CF802460B4694
:104358002D48F96F4131C9000144C1E90023FB6FC1
:104368000133FB67FB6F072BE7DD274B012283F83F
:104378003D24254B93F83E34002B0DD197F960303E
:104388001846FCF74FF802460B461F49C1E9EA23D5
:104398001D4B012283F83E241B4B93F83F34002B1E
:1043A80010D1194B0122C3F80022174B0822C3F879
:1043B80004224022002114480CF0E8FF124B01228D
:1043C80083F83F24104BD3E9EA014FF000020F4B6A
:1043D800FCF7FAFA0346002B0CD00B4B0822C3F863
:1043E8000022094B0122C3F804224022034906484F
:1043F8000CF0FEFF0023FB6741E000BFF003002044
:104408000010004800040048B01500200000F03FEC
:10441800654AFB6F4133DB001344D3E900014FF0D9
:104428000002624BFCF7D0FA0346002B0CD0604A1E
:10443800FB6FDB001344D3E900235B48F96F51316C
:10444800C9000144C1E90023574AFB6F5133DB001F
:104458001344D3E90001544AFB6FDB001344D3E94A
:104468000023FBF791FE02460B465148F96F0831CD
:10447800C9000144C1E90023FB6F0133FB67FB6FEF
:10448800072BC5DD4A4BD3E9120143A3D3E9002327
:10449800FCF732F802460B4614461D46424BD3E958
:1044A80094013FA3D3E90023FCF726F802460B4604
:1044B80020462946FBF76AFE02460B463C49C1E9FD
:1044C80012233B4BD3E9160133A3D3E90023FCF7AE
:1044D80013F802460B4614461D46334BD3E99801A0
:1044E8002FA3D3E90023FCF707F802460B46204622
:1044F8002946FBF74BFE02460B462D49C1E9162318
:104508002B4BD3E9180124A3D3E90023FBF7F4FFCD
:1045180002460B4614461D46234BD3E99A0120A3B5
:10452800D3E90023FBF7E8FF02460B46204629465D
:10453800FBF72CFE02460B461D49C1E918231C4B0C
:10454800D3E91C0114A3D3E90023FBF7D5FF0246E6
:104558000B4614461D46144BD3E99E0110A3D3E91C
:104568000023FBF7C9FF02460B4620462946FBF706
:104578000DFE02460B460E49C1E91C2397F960302F
:104588001846FBF74FFF02460B460749C1E9EA23E5
:104598000023FB673BE000BF9A9999999999C93F15
:1045A8009A9999999999E93FB01500200000F03F30
:1045B800F0030020904AFB6F0833DB001344D3E973
:1045C80000238E48F96F4931C9000144C1E900232D
:1045D800894AFB6F1344943393F900301846FBF76C
:1045E80021FF02460B468548F96F4131C900014455
:1045F800C1E90023804AFB6FDB00D1184FF00002AD
:104608004FF00003C1E90023FB6F0133FB67FB6F29
:10461800072BCFDD784BD3E91401784BD3E9CC23B2
:10462800FCF7FAF90346002B05D073494FF0000256
:10463800734BC1E90423704BD3E91A016F4BD3E9DB
:10464800CE23FCF7E9F90346002B05D06A494FF061
:1046580000026B4BC1E90A23674BD3E91401664B8F
:10466800D3E91A23FBF792FD02460B4614461D4672
:10467800624BD3E9CC01614BD3E9CE23FBF786FD2E
:1046880002460B461046194655A3D3E90023FBF70B
:1046980033FF02460B4601210E4620462946FCF709
:1046A8009DF90346002B01D100231E46F3B2FB6798
:1046B800514BD3E91201514BD3E9D623FCF7ACF99E
:1046C8000346002B05D04C494FF000024C4BC1E982
:1046D8000223494BD3E91C01484BD3E9D423FCF707
:1046E8009BF90346002B05D043494FF00002444B89
:1046F800C1E90C23404BD3E91801404BD3E9D0233F
:10470800FCF78AF90346002B05D03B494FF000021D
:104718003B4BC1E90823384BD3E91601374BD3E9A2
:10472800D223FCF779F90346002B05D032494FF024
:104738000002334BC1E906232F4BD3E91E452F4B0B
:10474800D3E9DA0128A3D3E90023FBF7D5FE024613
:104758000B4620462946FCF75FF90346002B06D096
:1047680026494FF00002264BC1E9E8231AE0224B04
:10477800D3E91E45214BD3E9DA011DA3D3E9002370
:10478800FBF7BAFE02460B4620462946FCF726F9F7
:104798000346002B06D019494FF000024FF00003E2
:1047A800C1E9E823144BD3E91045144BD3E9D801E8
:1047B8000DA3D3E90023FBF79FFE02460B462046D4
:1047C8002946FCF729F90346002B1BD00B494FF06B
:1047D80000020B4BC1E9E6232FE000BFAFF30080D6
:1047E800CDCCCCCCCCCCE43FCDCCCCCCCCCCF03FDD
:1047F800666666666666EE3FF0030020B015002028
:104808000000F03FAE4BD3E91045AE4BD3E9D801D9
:10481800A9A3D3E90023FBF76FFE02460B46204607
:104828002946FCF7DBF80346002B06D0A5494FF0D4
:1048380000024FF00003C1E9E623A24BD3E9E823C5
:104848009F49C1E90E239F4BD3E9E6239C49C1E95F
:1048580000239D48FDF737FF78669A4B93F83C3460
:10486800FF2B07D0974B93F83C340133DAB2954BC2
:1048780083F83C24934B93F8303403F00803DBB2FD
:10488800002B13D18F4A92F8303443F0080382F892
:1048980030348C4B002283F83C248A4A92F8303416
:1048A800052161F3020382F8303418E1854B93F84F
:1048B8003034C3F30203DBB2013B042B00F2D78090
:1048C80001A252F823F000BFE54800081749000884
:1048D80049490008D7490008074A0008794B93F866
:1048E8003C34C72B0CD9774B002283F83C24754AFB
:1048F80092F83034052161F3020382F83034EEE097
:104908006F494FF00002714BC1E92823E7E06D4B76
:1049180093F83C34632B40F2CA806A4B002283F838
:104928003C24684A92F83034032161F3020382F888
:10493800303463494FF00002644BC1E92A23B6E0E2
:10494800BB6E03F00403002B0CD15E4B002283F8EE
:104958003C245C4A92F83034052161F3020382F862
:104968003034BCE0FB6F012B24D1564B93F83C3418
:10497800312B1FD9534B002283F83C24514A92F81B
:104988003034062161F3020382F830344C494FF089
:1049980000024FF00003C1E92A2349494FF0000201
:1049A8004B4BC1E92C2346494FF00002484BC1E963
:1049B8002E2394E0424B93ED2A7B464A46494048D1
:1049C800B0EE470AF0EE670AFEF742F987E03D4B82
:1049D80093F83C34632B6CD93A4B002283F83C247F
:1049E800384A92F83034032161F3020382F83034F4
:1049F80033494FF00002354BC1E92A2359E0BB6E19
:104A080003F00403002B11D12E4B93F83C34C72B31
:104A18000CD92C4B002283F83C242A4A92F83034D3
:104A2800012161F3020382F8303458E07B6E03F011
:104A38004003002B0CD1234B002283F83C24214A4D
:104A480092F83034022161F3020382F8303446E0F0
:104A58001B494FF000024FF00003C1E92823184911
:104A68004FF000024FF00003C1E92A2337E0154B4D
:104A780093F83C34092B31D911494FF000024FF01B
:104A88000003C1E92C230E494FF000024FF0000348
:104A9800C1E92E230B4B002283F83C24094A92F8E3
:104AA8003034042161F3020382F8303416E000BF89
:104AB80015E000BF13E000BF666666666666EE3FF7
:104AC800F0030020B0150020001000480000F03F5F
:104AD800000049C0A8040020A004002000BF002353
:104AE800BB6700237B67B24BD3E928014FF0000274
:104AF800B04BFBF769FF0346002B00F0EB824B231A
:104B08007B676FF04A03BB67A94BD3E91401AA4B33
:104B1800D3E9EE23FBF780FF0346002B1ED0A64BFC
:104B2800D3E9EE019EA3D3E90023FBF7E5FC024697
:104B38000B4614461D469E4BD3E914019AA3D3E9AC
:104B48000023FBF7D9FC02460B4620462946FBF713
:104B58001DFB02460B469849C1E9EE23944BD3E965
:104B68001401954BD3E9EC23FBF738FF0346002BE0
:104B78001ED0914BD3E9EC0189A3D3E90023FBF7BD
:104B8800BBFC02460B4614461D46894BD3E914016B
:104B980085A3D3E90023FBF7AFFC02460B4620466A
:104BA8002946FBF7F3FA02460B468349C1E9EC2391
:104BB8007F4BD3E91A01804BD3E9F223FBF72CFF93
:104BC8000346002B1ED07C4BD3E9F20174A3D3E932
:104BD8000023FBF791FC02460B4614461D46744B16
:104BE800D3E91A0170A3D3E90023FBF785FC024639
:104BF8000B4620462946FBF7C9FA02460B466E4982
:104C0800C1E9F2236A4BD3E91A016B4BD3E9F023CC
:104C1800FBF7E4FE0346002B1ED0674BD3E9F001F7
:104C28005FA3D3E90023FBF767FC02460B46144653
:104C38001D465F4BD3E91A015BA3D3E90023FBF7B9
:104C48005BFC02460B4620462946FBF79FFA0246C4
:104C58000B465949C1E9F023554BD3E91601564B88
:104C680003F5826353E90223FBF7D6FE0346002BC4
:104C780022D0514B03F5826353E902014FF0000241
:104C88004E4BFBF739FC02460B4614461D46484B73
:104C9800D3E916014FF00002484BFBF72DFC024602
:104CA8000B4620462946FBF771FA02460B46424955
:104CB80001F5826141E902233D4BD3E916013E4BE0
:104CC80003F58063D3E90023FBF788FE0346002B36
:104CD80022D0394B03F58063D3E900014FF000027D
:104CE800364BFBF709FC02460B4614461D46304B73
:104CF800D3E916014FF00002304BFBF7FDFB0246EB
:104D08000B4620462946FBF741FA02460B462A493C
:104D180001F58061C1E90023254BD3E91801264B31
:104D2800D3E9F623FBF778FE0346002B1ED0224B6F
:104D3800D3E9F6014FF00002204BFBF7DDFB0246FA
:104D48000B4614461D461A4BD3E918014FF00002D2
:104D58001A4BFBF7D1FB02460B4620462946FBF7C8
:104D680015FA02460B461449C1E9F623104BD3E95C
:104D78001801114BD3E9F423FBF730FE0346002B4F
:104D880031D00D4BD3E9F4014FF000020B4BFBF788
:104D9800B3FB02460B4614461D4611E0AFF30080F4
:104DA8009A9999999999E93F9A9999999999C93F9D
:104DB800F00300200000F03FB01500200000E03FA5
:104DC800B14BD3E918014FF00002B04BFBF794FB4D
:104DD80002460B4620462946FBF7D8F902460B4601
:104DE800AB49C1E9F423A84BD3E91201A84BD3E995
:104DF800FA23FBF711FE0346002B1ED0A44BD3E980
:104E0800FA014FF00002A14BFBF776FB02460B4676
:104E180014461D469C4BD3E912014FF000029B4BF0
:104E2800FBF76AFB02460B4620462946FBF7AEF91C
:104E380002460B469649C1E9FA23934BD3E912017E
:104E4800934BD3E9F823FBF7C9FD0346002B1ED08B
:104E58008F4BD3E9F8014FF000028C4BFBF74CFB6A
:104E680002460B4614461D46874BD3E912014FF004
:104E78000002864BFBF740FB02460B4620462946BC
:104E8800FBF784F902460B468149C1E9F8237E4BBA
:104E9800D3E91C017E4BD3E9FE23FBF7BDFD034696
:104EA800002B1ED07A4BD3E9FE014FF00002774B5E
:104EB800FBF722FB02460B4614461D46724BD3E90C
:104EC8001C014FF00002714BFBF716FB02460B4624
:104ED80020462946FBF75AF902460B466C49C1E9B8
:104EE800FE23694BD3E91C01694BD3E9FC23FBF78B
:104EF80075FD0346002B1ED0654BD3E9FC014FF02E
:104F08000002624BFBF7F8FA02460B4614461D46B0
:104F18005D4BD3E91C014FF000025C4BFBF7ECFA48
:104F280002460B4620462946FBF730F902460B4657
:104F38005749C1E9FC23544BD3E91001544B03F5FD
:104F4800846353E90223FBF767FD0346002B22D055
:104F58004F4B03F5846353E9020147A3D3E90023C8
:104F6800FBF7CAFA02460B4614461D46464BD3E9E0
:104F7800100143A3D3E90023FBF7BEFA02460B4610
:104F880020462946FBF702F902460B46404901F53F
:104F9800846141E902233C4BD3E910013C4B03F502
:104FA8008263D3E90023FBF719FD0346002B22D0C7
:104FB800374B03F58263D3E900012FA3D3E900231C
:104FC800FBF79AFA02460B4614461D462E4BD3E9C8
:104FD80010012BA3D3E90023FBF78EFA02460B46F8
:104FE80020462946FBF7D2F802460B46284901F528
:104FF8008261C1E90023244BD3E91E01244B03F548
:10500800866353E90223FBF707FD0346002B22D0F2
:105018001F4B03F5866353E9020117A3D3E9002365
:10502800FBF76AFA02460B4614461D46164BD3E9AF
:105038001E0113A3D3E90023FBF75EFA02460B46D1
:1050480020462946FBF7A2F802460B46104901F50F
:10505800866141E902230C4BD3E91E010C4B03F591
:105068008463D3E90023FBF7B9FC0346002B31D056
:10507800074B03F584630DE09A9999999999E93F4B
:105088009A9999999999C93FF00300200000E03F47
:10509800B0150020D3E90001B5A3D3E90023FBF73D
:1050A8002BFA02460B4614461D46AB4BD3E91E01AC
:1050B800A5A3D3E90023FBF71FFA02460B462046B7
:1050C8002946FBF763F802460B46A44901F58461BB
:1050D800C1E90023A14BD3E9F001A04BD3E9F223A6
:1050E800FBF754F802460B46104619464FF00002EB
:1050F8004FF08043FBF72AFB02460B469749C1E96C
:10510800CE23964BD3E9EC01944BD3E9EE23FBF77E
:105118003DF802460B46104619464FF000024FF084
:105128008043FBF713FB02460B468C49C1E9CC23AD
:105138008A4BD3E9F60186A3D3E90023FBF7DCF910
:1051480002460B468549C1E9D023844B03F58263A7
:1051580053E902017EA3D3E90023FBF7CDF9024608
:105168000B467E49C1E9D2237C4BD3E9FE0178A3E3
:10517800D3E90023FBF7C0F902460B467749C1E99A
:10518800D423764BD3E9FA0171A3D3E90023FBF7C3
:10519800B3F902460B467149C1E9D6236F4B03F5B3
:1051A8008463D3E900016D4B03F5866353E9022359
:1051B800FAF7ECFF02460B46104619464FF000027C
:1051C8004FF08043FBF7C2FA02460B466349C1E938
:1051D800DA23624B03F58263D3E900015F4B03F5E1
:1051E800846353E90223FAF7D1FF02460B461046BF
:1051F80019464FF000024FF08043FBF7A7FA02462A
:105208000B465649C1E9D823B86FFBF70BF9524B47
:10521800D3E92C23FAF7BAFF02460B464E49C1E9F7
:105228003623786FFBF7FEF84B4BD3E92E23FAF7BA
:10523800ADFF02460B46C7E92423474BD3E93601A5
:105248004FF00002464BFBF7E7FB0346002B1CD050
:10525800414BD3E936014FF00002424BFBF776FA97
:1052680002460B46104619464FF000023E4BFAF72D
:105278008DFF02460B46C7E9202337494FF000024D
:105288004FF00003C1E9362337E0334BD3E9360149
:105298004FF00002354BFBF7A1FB0346002B1FD054
:1052A8004FF000024FF00003C7E920232A4BD3E94F
:1052B80036014FF000022B4BFBF748FA02460B462B
:1052C800104619464FF00002274BFAF75DFF0246D9
:1052D8000B46904623F000491F4BC3E936890CE082
:1052E8004FF000024FF00003C7E920231A494FF09E
:1052F80000024FF00003C1E936234FF00002184BBB
:10530800D7E92401FBF788FB0346002B34D04FF084
:105318000002144BD7E92401FBF718FA02460B46A2
:10532800104619464FF000020F4BFAF72FFF0246BE
:105338000B46C7E922234FF000024FF00003C7E9EC
:1053480024234FE0AFF300809A9999999999C93F1E
:10535800CDCCCCCCCCCCEC3FF0030020B015002059
:10536800000024400000084000805040000024C095
:105378009A9999999999E93F4FF000028F4BD7E98B
:105388002401FBF72BFB0346002B1FD04FF0000234
:105398004FF00003C7E922234FF00002884BD7E9FA
:1053A8002401FBF7D3F902460B46104619464FF085
:1053B8000002844BFAF7E8FE02460B461146C7F88E
:1053C800901023F00043C7F894300BE04FF0000230
:1053D8004FF00003C7E922234FF000024FF000030B
:1053E800C7E92423784BD3F81843D7E92001FBF702
:1053F8007BFB034600EE103A2046FDF759FA724B44
:10540800D3F81843714BD3E9362310461946FBF7F6
:105418006BFB034600EE103A2046FDF75DFA6A4B37
:10542800D3F80843D7E92201FBF75EFB034600EEF9
:10543800103A2046FDF714FA634BD3F80843D7E92E
:105448002401FBF751FB034600EE103A2046FDF716
:105458001BFA5E4B5E4AC3F890205E4BD3E900010D
:105468004FF000024FF00003FBF7AEFA0346002BA3
:1054780002D18023BB6701E00023BB67534BD3F8FD
:105488009030BA6F11461846FDF729F94F4BD3F8FB
:105498009020BB6FDB4303F0800319461046FDF7ED
:1054A8002CF94A4B4C4AC3F89020484BD3F890301B
:1054B80000211846FDF713F9444BD3F890304FF408
:1054C80000511846FDF719F9404B434AC3F890209C
:1054D800FB6F002B03D04FF48043BB6701E0002330
:1054E800BB673A4BD3F89030BA6F11461846FDF7B0
:1054F800F6F8364BD3F89020BB6FDB4303F48043B8
:1055080019461046FDF7F9F8304B334AC3F8902096
:105518002E4BD3E92A014FF000024FF00003FBF7AE
:1055280053FA0346002B03D14FF40043BB6701E055
:105538000023BB67254BD3F89030BA6F1146184645
:10554800FDF7CDF8214BD3F89020BB6FDB4303F474
:10555800004319461046FDF7D0F81C4B1F4AC3F804
:1055680090201C4BD3E902014FF000024FF00003DA
:10557800FBF72AFA0346002B02D10823BB6701E098
:105588000023BB67114BD3F89030BA6F1146184609
:10559800FDF7A5F80D4BD3F89020BB6FDB4303F064
:1055A800080319461046FDF7A8F800F073FD00F04F
:1055B80087FE00BF9C37BD46BDE8F083000024C0CD
:1055C8000000084000805040B0150020F003002083
:1055D800000C0048000000200008004800040048B3
:1055E800B0B58EB000AF9C4B93EDC87B9B4A9C49ED
:1055F8009C48B0EE470AF0EE670AFDF787FA9A4B27
:1056080003F5E463D3E90023C7E90C230023FB6215
:1056180019E0FB6A0133944AE433DB001344D3E90D
:105628000023C7E90823D7E90823D7E90C01FBF7CA
:10563800D5F90346002B03D0D7E90823C7E90C2383
:10564800FB6A0133FB62FB6A172BE2DD97ED0C0B5B
:105658000BF0D2FCB0EE407AF0EE607A9FED7C1B46
:10566800B0EE470AF0EE670A0BF08EFC87ED080BE8
:105678004FF000024FF00003D7E90801FBF7AEF93D
:105688000346002B0ED03B6A3B617B6A83F00043E4
:105698007B61D7E90401FBF707FA03469BB25B423B
:1056A8009BB205E0D7E90801FBF7FEF903469BB278
:1056B800FB83694B93EDCA7B6C4A6D496D48B0EE2C
:1056C800470AF0EE670AFDF721FA674BD3E938235A
:1056D800C7E90C230023FB6219E0FB6A0133624A25
:1056E8001C33DB001344D3E90023C7E90823D7E9B7
:1056F8000823D7E90C01FBF771F90346002B03D007
:10570800D7E90823C7E90C23FB6A0133FB62FB6A6C
:10571800172BE2DD97ED0C0B0BF06EFCB0EE407A28
:10572800F0EE607A9FED4A1BB0EE470AF0EE670A8A
:105738000BF02AFC87ED080B4FF000024FF0000336
:10574800D7E90801FBF74AF90346002B0ED03B6A5C
:10575800BB607B6A83F00043FB60D7E90201FBF77B
:10576800A3F903469BB25B429BB205E0D7E9080167
:10577800FBF79AF903469BB2BB83374ABB8BA2F867
:105788003634354AFB8BA2F83434374BD3E9382307
:10579800C7E90C230023FB6219E0FB6A0133324A94
:1057A8001C33DB001344D3E90023C7E90823D7E9F6
:1057B8000823D7E90C01FBF72FF90346002B03D088
:1057C800D7E90823C7E90C23FB6A0133FB62FB6AAC
:1057D800172BE2DD97ED0C0B0BF00EFCB0EE407AC8
:1057E800F0EE607A9FED1A1BB0EE470AF0EE670AFA
:1057F8000BF0CAFB87ED080B4FF000024FF00003D7
:10580800D7E90801FBF7EAF80346002B0ED03B6AFC
:105818003B607B6A83F000437B60D7E90001FBF7BC
:1058280043F903469BB25B429BB205E0D7E9080106
:10583800FBF73AF903469BB2FB830B4B03F5E46392
:10584800D3E90023C7E90C230023FB622EE000BF45
:10585800000000000000F040B01500209800002073
:10586800701D0020100B0020F0030020780000209D
:10587800F0190020D0040020FB6A0133304AE433D9
:10588800DB001344D3E90023C7E90823D7E9082339
:10589800D7E90C01FBF7C0F80346002B03D0D7E982
:1058A8000823C7E90C23FB6A0133FB62FB6A172B49
:1058B800E2DD97ED0C0B0BF09FFBB0EE407AF0EEBB
:1058C800607A9FED1D1BB0EE470AF0EE670A0BF0F9
:1058D8005BFB87ED080B4FF000024FF00003D7E9A0
:1058E8000801FBF77BF80346002B0CD03C6A7B6A67
:1058F80083F0004520462946FBF7D6F803469BB2BD
:105908005B429BB205E0D7E90801FBF7CDF80346F7
:105918009BB2BB830B4AFB8BA2F83A34094ABB8B78
:10592800A2F8383400F0B6FB00F0CAFC00BF3837E4
:10593800BD46B0BDAFF30080000000000000F0409D
:10594800F0030020B015002080B582B000AF00231E
:105958007B6017E09F4BB3F86E109F4A7B6822F874
:1059680013109C4BB3F870109C4A7B6822F81310F4
:10597800984BB3F872109A4A7B6822F813107B6828
:1059880001337B607B68082BE4DD00237B6011E03A
:10599800904B93F87610934A7B6813440A461A7022
:1059A8008C4BB3F87410904A7B6822F813107B680C
:1059B80001337B607B68072BEADD864B1B6D8B4AC6
:1059C8001360844B5B6D8A4A1360824B9B6D894AD6
:1059D8001360804BDB6D884A13607E4B9B6D854A54
:1059E80053607C4BDB6D844A53607A4B9B6D814AD4
:1059F8009360784BDB6D804A9360764BD3E9042340
:105A08007E49C1E9CC23734BD3E906237B49C1E91D
:105A1800CE23704BD3E908237849C1E9D0236D4BD5
:105A2800D3E90A237549C1E9D2236A4BD3E90C2388
:105A38007249C1E9D423674BD3E90E236F49C1E901
:105A4800D623644BD3E910236C49C1E9D823614BB1
:105A5800D3E912236949C1E9DA2300F0AFFB5D4BB2
:105A6800B3F86220654BA3F834245A4BB3F864208A
:105A7800624BA3F83624574BB3F868205F4BA3F862
:105A88003824544BB3F86A205C4BA3F83A245B499A
:105A98004FF000025A4BC1E9EC2358494FF000027D
:105AA800574BC1E9F02355494FF00002544BC1E967
:105AB800F42352494FF00002514BC1E9F8234F49F2
:105AC8004FF000024E4BC1E9FC234C4B03F58063B9
