:020000040800F2
:1000000000800120250B0108879200088D920008CE
:1000100093920008999200089F9200080000000047
:10002000000000000000000000000000CD65000896
:10003000A59200080000000089650008B964000866
:10004000750B0108750B0108750B0108750B01088C
:10005000750B0108750B0108750B0108750B01087C
:10006000750B0108750B0108750B0108B3920008A8
:1000700079200008750B0108750B0108750B010844
:10008000C1920008CF920008DD920008750B0108AC
:10009000750B0108750B0108750B0108750B01083C
:1000A000750B0108ED920008750B0108750B01082E
:1000B000750B0108750B0108750B0108750B01081C
:1000C000750B0108750B0108750B0108750B01080C
:1000D000750B0108750B0108750B0108750B0108FC
:1000E000750B0108750B0108750B0108750B0108EC
:1000F000750B0108750B0108750B0108750B0108DC
:10010000750B0108750B0108750B0108750B0108CB
:10011000750B0108750B0108750B0108750B0108BB
:10012000750B0108750B0108750B0108750B0108AB
:10013000750B0108750B0108750B0108750B01089B
:10014000750B0108750B0108750B01080193000878
:10015000750B0108750B0108750B0108750B01087B
:10016000750B0108750B0108750B0108750B01086B
:10017000750B0108750B0108750B010800000000E4
:08018000750B0108750B010865
:1001880081F0004102E000BF83F0004330B54FEA40
:1001980041044FEA430594EA050F08BF90EA020FAD
:1001A8001FBF54EA000C55EA020C7FEA645C7FEA40
:1001B800655C00F0E2804FEA5454D4EB5555B8BF63
:1001C8006D420CDD2C4480EA020281EA030382EAD4
:1001D800000083EA010180EA020281EA0303362D66
:1001E80088BF30BD11F0004F4FEA01314FF4801C39
:1001F8004CEA113102D0404261EB410113F0004F4B
:100208004FEA03334CEA133302D0524263EB430301
:1002180094EA050F00F0A780A4F10104D5F1200E9F
:100228000DDB02FA0EFC22FA05F2801841F10001FA
:1002380003FA0EF2801843FA05F359410EE0A5F1CE
:1002480020050EF1200E012A03FA0EFC28BF4CF0FF
:10025800020C43FA05F3C01851EBE37101F00045B5
:1002680007D54FF0000EDCF1000C7EEB00006EEBC2
:100278000101B1F5801F1BD3B1F5001F0CD349084C
:100288005FEA30004FEA3C0C04F101044FEA4452A3
:1002980012F5800F80F09A80BCF1004F08BF5FEA2A
:1002A800500C50F1000041EB045141EA050130BD0A
:1002B8005FEA4C0C404141EB0101013C28BFB1F51C
:1002C800801FE9D291F0000F04BF01460020B1FA67
:1002D80081F308BF2033A3F10B03B3F120020CDA3A
:1002E8000C3208DD02F1140CC2F10C0201FA0CF018
:1002F80021FA02F10CE002F11402D8BFC2F1200C7D
:1003080001FA02F120FA0CFCDCBF41EA0C01904032
:10031800E41AA2BF01EB0451294330BD6FEA04047B
:100328001F3C1CDA0C340EDC04F11404C4F1200266
:1003380020FA04F001FA02F340EA030021FA04F378
:1003480045EA030130BDC4F10C04C4F1200220FACF
:1003580002F001FA04F340EA0300294630BD21FA0D
:1003680004F0294630BD94F0000F83F4801306BFD3
:1003780081F480110134013D4EE77FEA645C18BFC7
:100388007FEA655C29D094EA050F08BF90EA020F5E
:1003980005D054EA000C04BF1946104630BD91EA56
:1003A800030F1EBF0021002030BD5FEA545C05D159
:1003B8004000494128BF41F0004130BD14F5800498
:1003C8003CBF01F5801130BD01F0004545F0FE410C
:1003D80041F470014FF0000030BD7FEA645C1ABF41
:1003E800194610467FEA655C1CBF0B46024650EA78
:1003F800013406BF52EA033591EA030F41F40021A4
:1004080030BD00BF90F0000F04BF0021704730B529
:100418004FF4806404F132044FF000054FF00001FE
:1004280050E700BF90F0000F04BF0021704730B5BF
:100438004FF4806404F1320410F0004548BF404294
:100448004FF000013EE700BF42004FEAE2014FEAE9
:1004580031014FEA02701FBF12F07F4393F07F4FC4
:1004680081F06051704732F07F4208BF704793F0C7
:100478007F4F04BF41F40021704730B54FF46074DA
:1004880001F0004521F000411CE700BF50EA0102DD
:1004980008BF704730B54FF000050AE050EA010286
:1004A80008BF704730B511F0004502D5404261EBF6
:1004B80041014FF4806404F132045FEA915C3FF437
:1004C800D8AE4FF003025FEADC0C18BF03325FEAD4
:1004D800DC0C18BF033202EBDC02C2F1200300FA85
:1004E80003FC20FA02F001FA03FE40EA0E0021FAAA
:1004F80002F11444BDE600BF70B54FF0FF0C4CF498
:10050800E06C1CEA11541DBF1CEA135594EA0C0F49
:1005180095EA0C0F00F0DEF82C4481EA030621EA84
:100528004C5123EA4C5350EA013518BF52EA0335BF
:1005380041F4801143F4801338D0A0FB02CE4FF071
:100548000005E1FB02E506F00042E0FB03E54FF0A1
:100558000006E1FB03569CF0000F18BF4EF0010E99
:10056800A4F1FF04B6F5007F64F5407404D25FEA95
:100578004E0E6D4146EB060642EAC62141EA555148
:100588004FEAC52040EA5E504FEACE2EB4F1FD0C8A
:1005980088BFBCF5E06F1ED8BEF1004F08BF5FEA08
:1005A800500E50F1000041EB045170BD06F00046BA
:1005B80046EA010140EA020081EA0301B4EB5C0467
:1005C800C2BFD4EB0C0541EA045170BD41F480115F
:1005D8004FF0000E013C00F3AB8014F1360FDEBF84
:1005E800002001F0004170BDC4F10004203C35DA60
:1005F8000C341BDC04F11404C4F1200500FA05F3E3
:1006080020FA04F001FA05F240EA020001F0004283
:1006180021F0004110EBD37021FA04F642EB0601F9
:100628005EEA430E08BF20EAD37070BDC4F10C0423
:10063800C4F1200500FA04F320FA05F001FA04F2E7
:1006480040EA020001F0004110EBD37041F10001D3
:100658005EEA430E08BF20EAD37070BDC4F12005DE
:1006680000FA05F24EEA020E20FA04F301FA05F246
:1006780043EA020321FA04F001F0004121FA04F2EE
:1006880020EA020000EBD3705EEA430E08BF20EABE
:10069800D37070BD94F0000F0FD101F000464000F8
:1006A80041EB010111F4801F08BF013CF7D041EA7A
:1006B800060195F0000F18BF704703F0004652007E
:1006C80043EB030313F4801F08BF013DF7D043EA4F
:1006D8000603704794EA0C0F0CEA135518BF95EA05
:1006E8000C0F0CD050EA410618BF52EA4306D1D18C
:1006F80081EA030101F000414FF0000070BD50EAAB
:10070800410606BF1046194652EA430619D094EA34
:100718000C0F02D150EA013613D195EA0C0F05D11E
:1007280052EA03361CBF104619460AD181EA030172
:1007380001F0004141F0FE4141F470014FF000002A
:1007480070BD41F0FE4141F4780170BD70B54FF0C5
:10075800FF0C4CF4E06C1CEA11541DBF1CEA135545
:1007680094EA0C0F95EA0C0F00F0A7F8A4EB050427
:1007780081EA030E52EA03354FEA013100F088801E
:100788004FEA03334FF0805545EA131343EA1263E7
:100798004FEA022245EA111545EA10654FEA00269C
:1007A8000EF000419D4208BF964244F1FD0404F555
:1007B800407402D25B084FEA3202B61A65EB0305B1
:1007C8005B084FEA32024FF480104FF4002CB6EB6E
:1007D800020E75EB030E22BFB61A754640EA0C00EE
:1007E8005B084FEA3202B6EB020E75EB030E22BF2E
:1007F800B61A754640EA5C005B084FEA3202B6EB6F
:10080800020E75EB030E22BFB61A754640EA9C002D
:100818005B084FEA3202B6EB020E75EB030E22BFFD
:10082800B61A754640EADC0055EA060E18D04FEABB
:10083800051545EA16754FEA06164FEAC30343EA5B
:1008480052734FEAC2025FEA1C1CC0D111F4801F28
:100858000BD141EA00014FF000004FF0004CB6E721
:1008680011F4801F04BF01430020B4F1FD0C88BFC0
:10087800BCF5E06F3FF6AFAEB5EB030C04BFB6EBCB
:10088800020C5FEA500C50F1000041EB045170BDBE
:100898000EF0004E4EEA113114EB5C04C2BFD4EBEB
:1008A8000C0541EA045170BD41F480114FF0000E6F
:1008B800013C90E645EA060E8DE60CEA135594EAEB
:1008C8000C0F08BF95EA0C0F3FF43BAF94EA0C0FEE
:1008D8000AD150EA01347FF434AF95EA0C0F7FF463
:1008E80025AF104619462CE795EA0C0F06D152EAB7
:1008F80003353FF4FDAE1046194622E750EA41069B
:1009080018BF52EA43067FF4C5AE50EA41047FF4AB
:100918000DAF52EA43057FF4EBAE12E74FF0FF3C10
:1009280006E000BF4FF0010C02E000BF4FF0010CE1
:100938004DF804CD4FEA410C7FEA6C5C4FEA430C5A
:1009480018BF7FEA6C5C1BD001B050EA410C0CBFA9
:1009580052EA430C91EA030F02BF90EA020F00200B
:10096800704710F1000F91EA030F58BF994208BF72
:1009780090422CBFD8176FEAE37040F0010070472F
:100988004FEA410C7FEA6C5C02D150EA013C07D186
:100998004FEA430C7FEA6C5CD6D152EA033CD3D0D1
:1009A8005DF8040B704700BF8446104662468C46CB
:1009B8001946634600E000BF01B5FFF7B7FF0028FE
:1009C80048BF10F1000F01BD4DF808EDFFF7F4FF27
:1009D8000CBF012000205DF808FB00BF4DF808EDB2
:1009E800FFF7EAFF34BF012000205DF808FB00BFD5
:1009F8004DF808EDFFF7E0FF94BF012000205DF8F7
:100A080008FB00BF4DF808EDFFF7CEFF94BF0120AB
:100A180000205DF808FB00BF4DF808EDFFF7C4FFA4
:100A280034BF012000205DF808FB00BF4FEA410CED
:100A38007FEA6C5C02D150EA013C0AD14FEA430CD0
:100A48007FEA6C5C02D152EA033C02D14FF000000D
:100A580070474FF0010070474FEA410212F500124B
:100A680015D211D56FF47873B3EB625212D94FEAED
:100A7800C12343F0004343EA505311F0004F23FAD7
:100A880002F018BF404270474FF00000704750EA2C
:100A9800013005D111F0004008BF6FF000407047E9
:100AA8004FF00000704700BF4A0011D212F5001243
:100AB80011D20DD56FF47873B3EB62520ED44FEAAE
:100AC800C12343F0004343EA505323FA02F070472E
:100AD8004FF00000704750EA013002D14FF0FF306C
:100AE80070474FF0000070474FEA4102B2F1E0430F
:100AF80024BFB3F5001CDCF1FE5C0DD901F0004CFD
:100B08004FEAC0024CEA5070B2F1004F40EB83004C
:100B180008BF20F00100704711F0804F21D113F178
:100B28003872BCBF01F00040704741F480114FEAB1
:100B38005252C2F11802C2F1200C10FA0CF320FA3A
:100B480002F018BF40F001004FEAC1234FEAD32357
:100B580003FA0CFC40EA0C0023FA02F34FEA4303C1
:100B6800CCE77FEA625307D150EA01331EBF4FF04A
:100B7800FE4040F44000704701F0004040F0FE4065
:100B880040F40000704700BF0348044B834202D082
:100B9800034B03B118477047B8020020B802002081
:100BA800000000000548064B1B1AD90F01EBA301F2
:100BB800491002D0034B03B118477047B802002010
:100BC800B80200200000000010B5064C237843B995
:100BD800FFF7DAFF044B13B10448AFF30080012399
:100BE800237010BDB8020020000000004410010866
:100BF80008B5054B1BB105490548AFF30080BDE8B2
:100C08000840FFF7CFBF00BF00000000BC02002073
:100C18004410010880B485B000AF78607B681B6819
:100C280003F06003FB60FB68002B04D17B681B6842
:100C380003F01003FB60FB6818461437BD465DF8E7
:100C4800047B704780B483B000AF78607B681B6B0F
:100C580018460C37BD465DF8047B704780B483B0F6
:100C680000AF786039607B681A6A3B681A437B6812
:100C78001A6200BF0C37BD465DF8047B704780B42C
:100C880083B000AF786039607B681A6A3B68DB43E1
:100C98001A407B681A6200BF0C37BD465DF8047BBA
:100CA800704780B483B000AF78607B685B6C43F4B6
:100CB80000427B685A6400BF0C37BD465DF8047B70
:100CC800704780B483B000AF78607B68DB6843F01E
:100CD80001027B68DA6000BF0C37BD465DF8047B13
:100CE800704780B483B000AF78607B68DB6823F01E
:100CF80001027B68DA6000BF0C37BD465DF8047BF3
:100D0800704780B483B000AF78607B68DB6803F01D
:100D18000103012B01D1012300E0002318460C3701
:100D2800BD465DF8047B704780B483B000AF78603F
:100D38007B68DB6843F002027B68DA6000BF0C372F
:100D4800BD465DF8047B704780B483B000AF78601F
:100D58007B68DB6823F002027B68DA6000BF0C372F
:100D6800BD465DF8047B704780B483B000AF7860FF
:100D78007B68DB6803F00203022B01D1012300E04A
:100D8800002318460C37BD465DF8047B704780B4D5
:100D980083B000AF78607B68DB6843F004027B684F
:100DA800DA6000BF0C37BD465DF8047B704780B43D
:100DB80083B000AF78607B68DB6823F004027B684F
:100DC800DA6000BF0C37BD465DF8047B704780B41D
:100DD80083B000AF78607B68DB6803F00403042B02
:100DE80001D1012300E0002318460C37BD465DF809
:100DF800047B704780B483B000AF78607B68DB68A1
:100E080043F008027B68DA6000BF0C37BD465DF826
:100E1800047B704780B483B000AF78607B68DB6880
:100E280023F008027B68DA6000BF0C37BD465DF826
:100E3800047B704780B483B000AF78607B68DB6860
:100E480003F00803082B01D1012300E00023184612
:100E58000C37BD465DF8047B704780B483B000AFA3
:100E680078607B68DB6843F010027B68DA6000BF5B
:100E78000C37BD465DF8047B704780B483B000AF83
:100E880078607B68DB6823F010027B68DA6000BF5B
:100E98000C37BD465DF8047B704780B483B000AF63
:100EA80078607B68DB6803F01003102B01D1012305
:100EB80000E0002318460C37BD465DF8047B7047F8
:100EC80080B483B000AF78607B68DB6843F02002B1
:100ED8007B68DA6000BF0C37BD465DF8047B70475D
:100EE80080B483B000AF78607B68DB6823F02002B1
:100EF8007B68DA6000BF0C37BD465DF8047B70473D
:100F080080B483B000AF78607B68DB6803F02003AF
:100F1800202B01D1012300E0002318460C37BD46E1
:100F28005DF8047B704780B483B000AF78607B685D
:100F3800DB6843F040027B68DA6000BF0C37BD46CF
:100F48005DF8047B704780B483B000AF78607B683D
:100F5800DB6823F040027B68DA6000BF0C37BD46CF
:100F68005DF8047B704780B483B000AF78607B681D
:100F7800DB6803F04003402B01D1012300E000238C
:100F880018460C37BD465DF8047B704780B483B0C3
:100F980000AF78607B68DB6843F080027B68DA60CA
:100FA80000BF0C37BD465DF8047B704780B483B042
:100FB80000AF78607B68DB6823F080027B68DA60CA
:100FC80000BF0C37BD465DF8047B704780B483B022
:100FD80000AF78607B68DB6803F08003802B01D169
:100FE800012300E0002318460C37BD465DF8047B5A
:100FF800704780B582B000AF78600B467B807B88F5
:1010080003F00103002B0CD07B681B681846FFF720
:10101800AAFF0346012B04D07B681B681846FFF71C
:1010280082FF7B8803F00203002B0CD07B681B68CF
:101038001846FFF799FE0346012B04D07B681B680E
:101048001846FFF771FE7B8803F00403002B0CD0D1
:101058007B681B681846FFF7BAFE0346012B04D0CD
:101068007B681B681846FFF792FE7B8803F008032D
:10107800002B0CD07B681B681846FFF7DBFE034685
:10108800012B04D07B681B681846FFF7B3FE7B88EA
:1010980003F01003002B0CD07B681B681846FFF781
:1010A800FCFE0346012B04D07B681B681846FFF73B
:1010B800D4FE7B8803F02003002B0CD07B681B68D0
:1010C8001846FFF71EFE0346012B04D07B681B68F9
:1010D8001846FFF7F6FD7B8803F04003002B0CD081
:1010E8007B681B681846FFF771FF0346012B04D085
:1010F8007B681B681846FFF749FF7B8803F080036D
:10110800002B0CD07B681B681846FFF7F9FE0346D6
:10111800012B04D07B681B681846FFF7D1FE00BF7F
:101128000837BD4680BD80B582B000AF78600B46F9
:101138007B807B8803F00103002B0CD07B681B6845
:101148001846FFF710FF0346012B04D17B681B6884
:101158001846FFF7F8FE7B8803F00203002B0CD03B
:101168007B681B681846FFF7FFFD0346012B04D177
:101178007B681B681846FFF7E7FD7B8803F00403CC
:10118800002B0CD07B681B681846FFF720FE03462F
:10119800012B04D17B681B681846FFF708FE7B8883
:1011A80003F00803002B0CD07B681B681846FFF778
:1011B80041FE0346012B04D17B681B681846FFF7E4
:1011C80029FE7B8803F01003002B0CD07B681B687A
:1011D8001846FFF762FE0346012B04D17B681B68A3
:1011E8001846FFF74AFE7B8803F02003002B0CD03B
:1011F8007B681B681846FFF784FD0346012B04D063
:101208007B681B681846FFF76CFD7B8803F040037A
:10121800002B0CD07B681B681846FFF7D7FE0346E7
:10122800012B04D17B681B681846FFF7BFFE7B883B
:1012380003F08003002B0CD07B681B681846FFF76F
:101248005FFE0346012B04D17B681B681846FFF735
:1012580047FE00BF0837BD4680BD000080B582B09C
:1012680000AF78600B46FB70FB78022B06D17B68D9
:101278001B6801211846FFF7F1FC31E07B681B6809
:10128800194A934213D07B681B68184A93420ED0C0
:101298007B681B68164A934209D07B681B68154A0D
:1012A800934204D07B681B68134A934218D1FB7899
:1012B800032B06D17B681B6804211846FFF7CEFC78
:1012C8000EE0FB78042B0BD17B681B6801211846C4
:1012D800FFF7C4FC7B681B6804211846FFF7BEFCB7
:1012E80000BF0837BD4680BD002C014000340140D6
:1012F80000400140004401400048014080B582B0F0
:1013080000AF78600B46FB70FB78022B06D17B6838
:101318001B6801211846FFF7B2FC31E07B681B68A7
:10132800194A934213D07B681B68184A93420ED01F
:101338007B681B68164A934209D07B681B68154A6C
:10134800934204D07B681B68134A934218D1FB78F8
:10135800032B06D17B681B6804211846FFF78FFC16
:101368000EE0FB78042B0BD17B681B680121184623
:10137800FFF785FC7B681B6804211846FFF77FFC94
:1013880000BF0837BD4680BD002C01400034014035
:1013980000400140004401400048014080B582B04F
:1013A80000AF78600B46FB70FB78022B06D17B6898
:1013B8001B6810211846FFF751FC31E07B681B6859
:1013C800194A934213D07B681B68184A93420ED07F
:1013D8007B681B68164A934209D07B681B68154ACC
:1013E800934204D07B681B68134A934218D1FB7858
:1013F800032B06D17B681B6840211846FFF72EFC9B
:101408000EE0FB78042B0BD17B681B681021184673
:10141800FFF724FC7B681B6840211846FFF71EFC79
:1014280000BF0837BD4680BD002C01400034014094
:1014380000400140004401400048014080B582B0AE
:1014480000AF78600B46FB70FB78022B06D17B68F7
:101458001B6810211846FFF712FC31E07B681B68F7
:10146800194A934213D07B681B68184A93420ED0DE
:101478007B681B68164A934209D07B681B68154A2B
:10148800934204D07B681B68134A934218D1FB78B7
:10149800032B06D17B681B6840211846FFF7EFFB3A
:1014A8000EE0FB78042B0BD17B681B6810211846D3
:1014B800FFF7E5FB7B681B6840211846FFF7DFFB59
:1014C80000BF0837BD4680BD002C014000340140F4
:1014D80000400140004401400048014080B582B00E
:1014E80000AF78600B46FB70FB78022B07D17B6856
:1014F8001B684FF480711846FFF7B0FB34E07B6837
:101508001B681B4A934213D07B681B68194A934295
:101518000ED07B681B68184A934209D07B681B6809
:10152800164A934204D07B681B68154A93421BD124
:10153800FB78032B07D17B681B684FF48061184642
:10154800FFF78CFB10E0FB78042B0DD17B681B6840
:101558004FF480711846FFF781FB7B681B684FF4D6
:1015680080611846FFF77AFB00BF0837BD4680BD8B
:10157800002C01400034014000400140004401407B
:101588000048014080B582B000AF78600B46FB7020
:10159800FB78022B07D17B681B684FF480711846D3
:1015A800FFF76DFB34E07B681B681B4A934213D03E
:1015B8007B681B68194A93420ED07B681B68184ADF
:1015C800934209D07B681B68164A934204D07B6813
:1015D8001B68154A93421BD1FB78032B07D17B6804
:1015E8001B684FF480611846FFF749FB10E0FB7851
:1015F800042B0DD17B681B684FF480711846FFF7E8
:101608003EFB7B681B684FF480611846FFF737FB89
:1016180000BF0837BD4680BD002C014000340140A2
:1016280000400140004401400048014080B582B0BC
:1016380000AF78600B46FB70FB78022B06D17B6805
:101648001B684FF480511846FFF708FB00BF0837A6
:10165800BD4680BD80B582B000AF78600B46FB7098
:10166800FB78022B06D17B681B684FF48051184623
:10167800FFF705FB00BF0837BD4680BD80B584B0C5
:1016880000AF78600023FB607B681B68304A934298
:1016980001D1304BFB607B681A68FB681A60FB68F5
:1016A8001B681846FFF7B6FAB860BB68002B06D06F
:1016B800BB68102B03D0FB6801221A7102E0FB689B
:1016C80000221A71FB681B68234A934213D0FB68F7
:1016D8001B68224A93420ED0FB681B68204A93423B
:1016E80009D0FB681B681F4A934204D0FB681B683B
:1016F8001D4A934204D1FB681B681846FFF7D1FACC
:10170800FB681B68144A934213D0FB681B68134A92
:1017180093420ED0FB681B68114A934209D0FB68BC
:101728001B68104A934204D0FB681B680E4A934218
:1017380008D17B681B681846FFF784FA0346DAB2BB
:10174800FB685A71FB6818461037BD4680BD00BF5C
:1017580000040040D4020020002C01400034014065
:1017680000400140004401400048014080B485B079
:1017780000AF786039603B68002B03D17B68403349
:10178800FB6001E0044BFB60FB6818461437BD465C
:101798005DF8047B704700BF0C03045080B483B02D
:1017A80000AF78607B68DB6803F44063002B01D1ED
:1017B800012300E0002318460C37BD465DF8047B82
:1017C800704780B483B000AF786039607B681B6B6A
:1017D80023F00F023B681A437B681A6300BF0C377B
:1017E800BD465DF8047B704780B483B000AF786075
:1017F80039607B68DB6823F003023B681A437B6827
:10180800DA6000BF0C37BD465DF8047B704780B4D2
:1018180083B000AF78607B68DB6C03F0C003002BFB
:1018280001D1012300E0002318460C37BD465DF8BE
:10183800047B704780B483B000AF78607B689B6896
:1018480023F0004323F03F0343F001027B689A60D2
:1018580000BF0C37BD465DF8047B704780B483B089
:1018680000AF78607B689B6823F0004323F03F0358
:1018780043F002027B689A6000BF0C37BD465DF8F2
:10188800047B704780B483B000AF78607B689B6846
:1018980003F00103012B01D1012300E000231846C6
:1018A8000C37BD465DF8047B704780B483B000AF49
:1018B800786039607B689B6823F0404323F03F03DE
:1018C8003A6802F08042134343F000427B689A6012
:1018D80000BF0C37BD465DF8047B704780B483B009
:1018E80000AF78607B689B6803F00043B3F1004F5A
:1018F80001D1012300E0002318460C37BD465DF8EE
:10190800047B704780B483B000AF78607B689B68C5
:1019180023F0004323F03F0343F004027B689A60FE
:1019280000BF0C37BD465DF8047B704780B483B0B8
:1019380000AF78607B689B6823F0004323F03F0387
:1019480043F008027B689A6000BF0C37BD465DF81B
:10195800047B704780B483B000AF78607B681B68F5
:1019680003F00803082B01D1012300E000231846E7
:101978000C37BD465DF8047B704780B483B000AF78
:1019880078607B681B6803F01003102B01D10123DA
:1019980000E0002318460C37BD465DF8047B70470D
:1019A80080B483B000AF78607B6810221A6000BFF3
:1019B8000C37BD465DF8047B704780B483B000AF38
:1019C80078607B685B6843F008027B685A6000BFF8
:1019D8000C37BD465DF8047B704780B483B000AF18
:1019E80078607B685B6843F040027B685A6000BFA0
:1019F8000C37BD465DF8047B704780B483B000AFF8
:101A080078607B685B6823F008027B685A6000BFD7
:101A18000C37BD465DF8047B704780B483B000AFD7
:101A280078607B685B6823F010027B685A6000BFAF
:101A38000C37BD465DF8047B704780B483B000AFB7
:101A480078607B685B6823F040027B685A6000BF5F
:101A58000C37BD465DF8047B704780B483B000AF97
:101A680078607B685B6823F080027B685A6000BFFF
:101A78000C37BD465DF8047B704780B483B000AF77
:101A880078607B685B6803F01003102B01D1012399
:101A980000E0002318460C37BD465DF8047B70470C
:101AA80080B483B000AF78607B685B6803F0800324
:101AB800802B01D1012300E0002318460C37BD46D6
:101AC8005DF8047B7047000080B485B000AF786093
:101AD80039607B68FB600C4A3B6813441B781A46E4
:101AE800FB6813441B6808493A680A44127811468F
:101AF800FA680A4443F00103136000BF1437BD4677
:101B08005DF8047B704700BFB410010880B485B04D
:101B180000AF786039607B68FB600C4A3B6813440F
:101B28001B781A46FB6813441B6808493A680A443C
:101B380012781146FA680A4423F00103136000BFC3
:101B48001437BD465DF8047B704700BFB410010828
:101B580080B485B000AF786039607B68FB60084A64
:101B68003B6813441B781A46FB6813441B6803F050
:101B7800200318461437BD465DF8047B704700BF44
:101B8800B410010880B487B000AFF860B9607A601B
:101B9800FB687B610D4ABB6813441B781A467B6956
:101BA80013445B681B0C1B040849BA680A44127882
:101BB80011467A690A4411467A6813434B6000BF9C
:101BC8001C37BD465DF8047B704700BFB4100108A0
:101BD80080B487B000AFF860B9607A603B60FB689A
:101BE8007B613B6A102B14D1174ABB6813441B78DE
:101BF8001A467B6913441A467B68D360124ABB684D
:101C080013441B781A467B6913441A463B68936051
:101C180013E00D4ABB6813441B781A467B691344CA
:101C28001A467B689360084ABB6813441B781A46B7
:101C38007B6913441A463B68D36000BF1C37BD4616
:101C48005DF8047B704700BFB410010880B487B00A
:101C580000AFF860B9607A60FB687B61074ABB68CF
:101C680013441B781A467B6913441A467B689360B1
:101C780000BF1C37BD465DF8047B7047B4100108EF
:101C880080B483B000AF78607B681B6803F02003E2
:101C9800202B01D1012300E0002318460C37BD4654
:101CA8005DF8047B704780B483B000AF78607B68D0
:101CB80020225A6000BF0C37BD465DF8047B704790
:101CC80080B485B000AF786039607B68FB600C4AEF
:101CD8003B6813441B781A46FB6813441B68084981
:101CE8003A680A4412781146FA680A4443F0020333
:101CF800136000BF1437BD465DF8047B704700BF12
:101D0800B410010880B485B000AF786039607B6892
:101D1800FB600C4A3B6813441B781A46FB68134463
:101D28001B6808493A680A4412781146FA680A4456
:101D380043F00803136000BF1437BD465DF8047B09
:101D4800704700BFB410010880B485B000AF786058
:101D580039607B68FB600C4A3B6813441B781A4661
:101D6800FB6813441B6808493A680A44127811460C
:101D7800FA680A4423F00203136000BF1437BD4613
:101D88005DF8047B704700BFB410010880B485B0CB
:101D980000AF786039607B68FB600C4A3B6813448D
:101DA8001B781A46FB6813441B6808493A680A44BA
:101DB80012781146FA680A4423F00403136000BF3E
:101DC8001437BD465DF8047B704700BFB4100108A6
:101DD80080B485B000AF786039607B68FB600C4ADE
:101DE8003B6813441B781A46FB6813441B68084970
:101DF8003A680A4412781146FA680A4423F008033C
:101E0800136000BF1437BD465DF8047B704700BF00
:101E1800B410010880B485B000AF786039607B6881
:101E2800FB600A4A3B6813441B781A46FB68134454
:101E38001B6803F00203022B01D1012300E00023F9
:101E480018461437BD465DF8047B7047B410010886
:101E580080B584B000AF78600123FB817B681B6983
:101E68001846FFF79BFC0346002B2FD07B685B7A54
:101E7800DBB2022B11D07B685B7ADBB2042B0CD06F
:101E88007B685B7ADBB2082B07D07B681B69184636
:101E9800FFF760FD0346012B18D1786800F0F8F8C9
:101EA8000346002B12D17B685B7ADBB2082B03D187
:101EB8007B6801225A7202E07B6820225A727B6892
:101EC8001B691846FFF71EFD0023FB81FB89184696
:101ED8001037BD4680BD80B586B002AFF860B960E6
:101EE8007A603B600021F868FFF740FC03461A4619
:101EF8007968B868FFF7AAFE0021F868FFF736FC92
:101F080002463B68002100917968B868FFF760FED7
:101F1800BA697968B868FFF735FE7968B868FFF775
:101F2800CFFE7968B868FFF7EDFE7968B868FFF703
:101F3800CBFD00BF1037BD4680BD80B584B000AF73
:101F4800F860B9607A607968B868FFF7DFFD79688A
:101F5800B868FFF71BFF7968B868FFF739FF796839
:101F6800B868FFF7F1FE00227968B868FFF70AFE43
:101F780000BF1037BD4680BD80B584B000AF786023
:101F880039600223FB737B68DB79012B0FD17B68F7
:101F9800DA687B681B685B00D118FB7B7A6812687B
:101FA80002FB03F31A4638680FF03AF80AE07B6838
:101FB800D968FB7B7A68126802FB03F31A46386813
:101FC8000FF02EF800BF1037BD4680BD80B586B033
:101FD80000AFF860B9607A60FB685A69FB689B7962
:101FE80019461046FFF716FF0346DBB2012B37D11F
:101FF800FB685A69BB68104698470346012B2FD1E6
:10200800FB6804225A72FB685A697B681046984735
:10201800FB685A69FB689B7919461046FFF798FDDB
:102028000346002B19D1FB685A69FB689B7919464E
:102038001046FFF76BFDFB685869FB689B791946EA
:10204800FB681B681A46FFF79DFDFB685A69FB6829
:102058009B7919461046FFF737FD0123FB7501E010
:102068000023FB75FB7D18461837BD4680BD000070
:1020780080B500AF034A04490448FFF7A7FF00BF33
:1020880080BD00BFAF1C0008891C00086003002049
:1020980080B582B000AF78607B681B691846FFF78F
:1020A8006CFC0346DBB2012B07D17B681B69184621
:1020B800FFF776FC7B6810225A727B685B7ADBB28A
:1020C800102B0CBF01230023DBB218460837BD468E
:1020D80080BD80B582B000AF78600B46FB70FB789E
:1020E800012B0DD17B681B691846FFF757FB034688
:1020F800012B12D07B681B691846FFF703FC0CE024
:102108007B681B691846FFF782FB0346012B04D046
:102118007B681B691846FFF709FC00BF0837BD46F6
:1021280080BD000090B589B002AFF860084611463E
:102138001A4603467B810B463B811346FB800023EE
:102148007B61FB681B693C4A934201D13B4B7B6135
:102158007B69002B6BD0FB681A697B691A617B6904
:102168000022DA71FB88012B61D03B89002B47D014
:102178007B695B7ADBB2082B42D0FB68DA687B6943
:10218800DA60FB681A687B691A60FB685A697B69C0
:102198005A61FB689A797B699A71FB681A797B693D
:1021A8001A717B691B69B96A1846FFF70AFB7B89B4
:1021B800012B21D07B89042B16D17B691B69032154
:1021C8001846FFF711FB7B6918697B6959697B69B8
:1021D8009B791C467B69DA687B691B680093134608
:1021E8002246FFF778FE07E07B89022B04D17B6942
:1021F8001B691846FFF7E1FB7B6908225A7216E053
:102208003B89002B13D17B699B7ADBB2082B0ED05C
:10221800FB685A797B695A717B89022B04D17B69E7
:102228001B691846FFF7D9FB7B6908229A727B69FC
:1022380018461C37BD4690BD0001045060030020BD
:1022480080B582B000AF78607B681B691846FFF7DD
:1022580019FB0346002B04D17B681B691846FFF75E
:10226800E9FA00BF0837BD4680BD80B586B000AF2B
:10227800F8600B467A607B810123FB82FB681B694F
:10228800002B46D07B89012B05D1F868FFF7E0FDCC
:102298000346FB823DE07B89042B1FD1FB681B6949
:1022A8001846FFF77BFA0346002B32D0FB68012261
:1022B8005A72FB681B691846FFF724FB00BFFB68CE
:1022C8005B7ADBB2042BFAD17968F868FFF754FE21
:1022D800FB6808225A720023FB821AE07B89022BD2
:1022E80017D1FB685B7ADBB2202B09D0FB685B7ADD
:1022F800DBB2042B04D0FB685B7ADBB2102B08D16D
:10230800FB6808225A727968F868FFF735FE0023DF
:10231800FB82FB8A18461837BD4680BD80B582B05F
:1023280000AF78600B467B8013463B807B681B6957
:102338001846FFF7A7FA0346002B04D07B681B69F1
:102348001846FFF78BFA7B681B691846FFF7A8FB4E
:102358000346002B04D07B681B691846FFF77DFBFA
:102368007B681B691846FFF788FB0346002B04D0DF
:102378007B681B691846FFF750FB3B88002B35D05C
:102388007B88012B1AD07B88022B05D17B681B69BF
:102398001846FFF732FB11E07B88042B0ED17B68CF
:1023A80018697B6859697B689B791A46FFF7C5FDF0
:1023B8007B681B6900211846FFF716FA7B68002224
:1023C800DA607B6800221A607B6800225A617B68A9
:1023D80000229A717B6800221A717B681A697B68EF
:1023E8001B7919461046FFF7ECF90AE07B680022D2
:1023F8005A717B88022B04D17B681B691846FFF74A
:102408001CFB00BF0837BD4680BD000080B584B006
:1024180000AF78600B46FB707B681B691846FFF7B6
:1024280031FA0346FB7397F90F30012B04D17B680F
:102438001B691846FFF712FAFB78002B0FD17B684F
:102448001B697F211846FFF730FA00BF7B681B69BC
:102458001846FFF743FA0346012BF7D040E0FB7814
:10246800012B0FD17B681B692C491846FFF71DFA11
:1024780000BF7B681B691846FFF730FA0346012B3B
:10248800F7D02DE07B681B697F211846FFF70DFA0E
:1024980000BF7B681B691846FFF720FA0346012B2B
:1024A800F7D00023BB8107E000BFBB891BB29BB2FA
:1024B80001339BB21BB2BB81BB891BB29BB2032BFE
:1024C800F2D97B681B6915491846FFF7EEF900BF7A
:1024D8007B681B691846FFF701FA0346012BF7D002
:1024E8000023BB8107E000BFBB891BB29BB201334D
:1024F8009BB21BB2BB81BB891BB29BB2032BF2D927
:1025080097F90F30012B04D17B681B691846FFF738
:1025180091F900BF1037BD4680BD00BF00007F4065
:1025280080B483B000AF78607B681B6843F0010219
:102538007B681A6000BF0C37BD465DF8047B7047A6
:1025480080B483B000AF78607B681B6823F0010219
:102558007B681A6000BF0C37BD465DF8047B704786
:1025680080B483B000AF786039607B681B6823F063
:1025780004023B681A437B681A6000BF0C37BD46EB
:102588005DF8047B704780B483B000AF78607B68E7
:102598001B6803F0040318460C37BD465DF8047B3E
:1025A800704780B483B000AF78607B68DB6A1846F8
:1025B8000C37BD465DF8047B704780B483B000AF2C
:1025C800786039607B683A681A6300BF0C37BD468B
:1025D8005DF8047B704780B483B000AF78603960E1
:1025E8007B683A685A6300BF0C37BD465DF8047BC8
:1025F800704780B483B000AF786039607B683A6810
:102608009A6300BF0C37BD465DF8047B704780B401
:1026180083B000AF786039607B683A68DA6300BFDE
:102628000C37BD465DF8047B704780B483B000AFBB
:10263800786039607B683A681A6400BF0C37BD4619
:102648005DF8047B704780B483B000AF78607B6826
:102658005B6B18460C37BD465DF8047B704780B449
:1026680083B000AF78607B689B6B18460C37BD461B
:102678005DF8047B704780B483B000AF78607B68F6
:10268800DB6B18460C37BD465DF8047B704780B499
:1026980083B000AF78607B681B6C18460C37BD466A
:1026A8005DF8047B704780B483B000AF78607B68C6
:1026B8005B6943F001027B685A6100BF0C37BD4675
:1026C8005DF8047B704780B483B000AF78607B68A6
:1026D8001B6918460C37BD465DF8047B704780B40B
:1026E80083B000AF786039607B683A689A6100BF50
:1026F8000C37BD465DF8047B704780B483B000AFEB
:10270800786039607B683A689A6200BF0C37BD46CA
:102718005DF8047B7047000080B584B000AF786036
:1027280087ED000AD7ED007AF5EEC07AF1EE10FADF
:1027380003D54FF000033B600AE0D7ED007A9FED28
:10274800167AF4EEC77AF1EE10FA01DD134B3B600E
:102758007B681B681846FFF724FFF8607B681B79C5
:10276800002B0CBF01230023DBB21A46FB6813447D
:1027780007EE903AB8EE677AD7ED007A27EE277A17
:10278800DFED056AC7EE267AFCEEE77A17EE903A97
:1027980018461037BD4680BD0000C8420000C84238
:1027A80080B582B000AF786039607B681B681846D6
:1027B800FFF749FF02463B68934205D07B681B68D8
:1027C80039681846FFF707FF00BF0837BD4680BDC8
:1027D80080B582B000AF786039607B681B681846A6
:1027E800FFF73DFF02463B68934205D07B681B68B4
:1027F80039681846FFF7FDFE00BF0837BD4680BDA3
:1028080080B582B000AF786039607B681B68184675
:10281800FFF731FF02463B68934205D07B681B688F
:1028280039681846FFF7F3FE00BF0837BD4680BD7C
:1028380080B582B000AF786039607B681B68184645
:10284800FFF725FF02463B68934205D07B681B686B
:1028580039681846FFF7E9FE00BF0837BD4680BD56
:1028680080B584B000AF786087ED000A97ED000A64
:102878007868FFF751FFF860F9687868FFF790FF0C
:1028880000BF1037BD4680BD80B584B000AF78600A
:1028980087ED000A97ED000A7868FFF73DFFF860BA
:1028A800F9687868FFF794FF00BF1037BD4680BD10
:1028B80080B584B000AF786087ED000A97ED000A14
:1028C8007868FFF729FFF860F9687868FFF798FFDC
:1028D80000BF1037BD4680BD80B584B000AF7860BA
:1028E80087ED000A97ED000A7868FFF715FFF86092
:1028F800F9687868FFF79CFF00BF1037BD4680BDB8
:1029080080B485B000AF78607B681B689A68074B15
:102918001340FB60FB68062B0CBF01230023DBB2CE
:1029280018461437BD465DF8047B70470700010060
:1029380080B584B000AF78600B46FB707B681B687D
:102948001846FFF720FEF860FB78002B1ED07B6846
:102958001B68324A934213D07B681B68304A934203
:102968000ED07B681B682F4A934209D07B681B688E
:102978002D4A934204D07B681B682C4A934205D1A8
:102988007B681B6800211846FFF717FEFB68042BBD
:1029980011D07B681B6804211846FFF7E1FD7B68AE
:1029A8001B681846FFF77FFE7B681B68F9681846A6
:1029B800FFF7D6FD04E07B681B681846FFF773FE37
:1029C8007B681B681846FFF7ABFDFB78002B20D00F
:1029D8007B681B68114A934213D07B681B68104AB6
:1029E80093420ED07B681B680E4A934209D07B68DD
:1029F8001B680D4A934204D07B681B680B4A9342BC
:102A080007D17B681A687B685B7919461046FFF71F
:102A1800D4FD00BF1037BD4680BD00BF002C01406B
:102A2800003401400040014000440140004801409A
:102A380080B582B000AF78607B681B681846FFF7E6
:102A48007FFD00BF0837BD4680BD000080B483B05D
:102A580000AF7860074B5B79002B0CBF0123002384
:102A6800DAB27B6801331A7000BF0C37BD465DF8D7
:102A7800047B70473023002080B400AF0C4B5B7997
:102A8800002B0CBF01230023DAB2094B9A71084BC3
:102A98005A790132D2B25A71054B5B79092B02D9A6
:102AA800034B00225A7100BFBD465DF8047B704796
:102AB8003023002080B485B000AF786039607B682F
:102AC800012283F8D8203B68D3E900237968C1E95B
:102AD80002237B6801221A600023FB600CE07B68FC
:102AE800D3E902237868F9680231C9000144C1E9D1
:102AF8000023FB680133FB60FB68182BEFDD00BF88
:102B080000BF1437BD465DF8047B704780B586B0BA
:102B180000AF87ED040BF860B9607A60BB68D3E951
:102B280002017B68D3E90023FDF74EFF0346002B23
:102B380005D17B68D3E90023B968C1E90223F868A5
:102B4800BB681033C82219460EF06AFAF968D7E94B
:102B58000423C1E93223FB6803F1D000BB681033BA
:102B6800C02219460EF05CFABB6803F11000FB683E
:102B7800C833C82219460EF053FA00BF1837BD46AD
:102B880080BD80B485B000AF786039607B68012271
:102B980083F860203B68D3E900237968C1E9022300
:102BA8007B6801221A600023FB600CE07B68D3E994
:102BB80002237868F9680231C9000144C1E9002399
:102BC800FB680133FB60FB68092BEFDD00BF00BF2A
:102BD8001437BD465DF8047B704780B586B000AFFA
:102BE80087ED040BF860B9607A60BB68D3E902012D
:102BF8007B68D3E90023FDF7E7FE0346002B05D1E8
:102C08007B68D3E90023B968C1E90223F868BB6887
:102C18001033502219460EF003FAF968D7E9042355
:102C2800C1E91423FB6803F15800BB68103348223C
:102C380019460EF0F5F9BB6803F11000FB68503334
:102C4800502219460EF0ECF900BF1837BD4680BD7A
:102C580080B58CB002AF78607B6800221A727B68FE
:102C680001225A607B681033BB6100237B741A4BC6
:102C7800FB611A4B3B620123BB74002387F82430A5
:102C8800022387F825300923FB6009233B7407F1E9
:102C98000C0008230093042301220421FFF742FAC1
:102CA80002467B68DA607B68DB6802211846FFF71A
:102CB800ADFB7B68DB681846FFF7C2FA7B68DB6808
:102CC80001211846FFF705FA7B6801221A7200BF36
:102CD8002837BD4680BD00BF0001045000000240F7
:102CE80080B5A6B000AF78601A4BBB6000233B7379
:102CF80000237B7307F108031846FEF7BFFC024662
:102D08007B68DA607B68DB6800211846FEF771F99A
:102D18007B68DB6802211846FEF7E0FB7B68DB680E
:102D280002211846FEF782FC7B68DB681846FFF72D
:102D3800E7FD034687F8973097F89730002B05D1C1
:102D48007B68DB6800211846FFF7F2FD00BF983763
:102D5800BD4680BD0004004080B5A6B000AF7860D5
:102D68001A4BBB6000233B7300237B7307F10803F6
:102D78001846FEF783FC02467B68DA607B68DB68EE
:102D880000211846FEF735F97B68DB6802211846F2
:102D9800FEF764FA7B68DB6802211846FEF7FEFA44
:102DA8007B68DB681846FFF7ABFD034687F897306A
:102DB80097F89730002B05D17B68DB68002118460F
:102DC800FFF7B6FD00BF9837BD4680BD0004004040
:102DD800B0B5A6B000AFFFF74FFE974BD3F8D4328B
:102DE800964A04211846FFF740FA934BB3F8F43398
:102DF800A7F86C30914BDB89914AA2F880308F4B51
:102E08001B888F4AA2F88E308C4B9B898C4AA2F87B
:102E180082308A4B5B888A4AA2F88C30874B5B8960
:102E2800874AA2F88430854B9B88854AA2F88A3065
:102E3800824B1B89824AA2F88630804BDB88804A05
:102E4800A2F8883000237B6710E07D4A7B6F40330F
:102E580032F813301846FDF7D5FA794A7B6FDB0054
:102E68001344C3E900017B6F01337B677B6F072B3A
:102E7800EBDD734B93ED027B724A73497348B0EEF6
:102E8800470AF0EE670AFFF7A8FE6D4B03F5556396
:102E980053E90223C7E9242300233B671AE03B6F69
:102EA8000133674A03F2A913DB001344D3E9002373
:102EB800C7E92223D7E92223D7E92401FDF78EFDAC
:102EC8000346002B03D0D7E92223C7E924233B6F0D
:102ED80001333B673B6F082BE1DD5D4A5D495E4886
:102EE80097ED240BFFF712FE554B03F5815353E979
:102EF8000223C7E91E2300233B671AE03B6F013317
:102F08004F4A03F20323DB001344D3E90023C7E944
:102F18002223D7E92223D7E91E01FDF77DFD0346C9
:102F2800002B03D0D7E92223C7E91E233B6F0133C7
:102F38003B673B6F172BE1DD414B93ED047B474A21
:102F480047494848B0EE470AF0EE670AFFF7DEFD4A
:102F58003B4B03F50A6353E90223C7E92423002303
:102F68003B671AE03B6F0133354A03F21313DB006A
:102F78001344D3E90023C7E92223D7E92223D7E959
:102F88002401FDF72BFD0346002B03D0D7E92223AC
:102F9800C7E924233B6F01333B673B6F172BE1DD08
:102FA800274B93ED067B304A30493148B0EE470A4B
:102FB800F0EE670AFFF7AAFD214B03F5B06353E96A
:102FC80002231F49C1E92C2300233B671BE03B6F09
:102FD80001331B4AAF33DB001344D3E90023C7E9AD
:102FE8002223174BD3E92C23D7E92201FDF714FD3F
:102FF8000346002B04D01249D7E92223C1E92C2328
:103008003B6F01333B673B6F172BE0DD0C4B93EDB8
:10301800087B184A18491948B0EE470AF0EE670AC3
:10302800FFF774FD064BD3E9FA230549C1E92E23BE
:1030380000233B6740E000BF981500209C03002058
:10304800F0030020B8000020A02000203811002044
:10305800D00000205022002008140020A0000020EA
:10306800001E0020880C002090000020401C00203A
:103078006809002088000020601B0020D807002075
:103088003B6F0133924A7D33DB001344D3E90023BD
:10309800C7E922238E4BD3E92E23D7E92201FDF776
:1030A800BBFC0346002B04D08949D7E92223C1E998
:1030B8002E233B6F01333B673B6F172BE0DD844BBF
:1030C80093ED0A7B834A84498448B0EE470AF0EEC0
:1030D800670AFFF71BFD7E4BD3E996237C49C1E9BC
:1030E800302300233B671BE03B6F0133784A4B33A7
:1030F800DB001344D3E90023C7E92223744BD3E947
:103108003023D7E92201FDF787FC0346002B04D0C2
:103118006F49D7E92223C1E930233B6F01333B676D
:103128003B6F172BE0DD6A4B93ED0C7B6C4A6D49C6
:103138006D48B0EE470AF0EE670AFFF74EFD644BA4
:1031480003F55F6353E90223C7E9202300233B67A4
:103158001AE03B6F01335E4A03F2BD13DB001344F0
:10316800D3E90023C7E92223D7E92223D7E920019D
:10317800FDF734FC0346002B03D0D7E92223C7E927
:1031880020233B6F01333B673B6F082BE1DD574A38
:103198005749584897ED200BFFF7B8FC4C4B03F5FF
:1031A800696353E90223C7E9202300233B671AE038
:1031B8003B6F0133464A03F2D113DB001344D3E9D2
:1031C8000023C7E92223D7E92223D7E92001FDF705
:1031D80023FC0346002B03D0D7E92223C7E9202389
:1031E8003B6F01333B673B6F172BE1DD424BB3F875
:1031F800F633A7F86A30414AB7F86C30138097ED78
:103208001E0B0DF011FDB0EE407AF0EE607A9FEDE6
:103218002E1BB0EE470AF0EE670A0DF0CFFC87EDE3
:10322800220B4FF000024FF00003D7E92201FDF70F
:10323800D5FB0346002B0ED0D7F88840D7F88C3042
:1032480083F0004520462946FDF72EFC03469BB235
:103258005B429BB205E0D7E92201FDF725FC034656
:103268009BB2264A538097ED240B0DF0DDFCB0EE9F
:10327800407AF0EE607A9FED141BB0EE470AF0EE4C
:10328800670A0DF09BFC87ED220B4FF000024FF010
:103298000003D7E92201FDF7A1FB0346002B2FD03D
:1032A800D7F888303B65D7F88C3083F000437B65CE
:1032B800D7E91401FDF7F8FB03469BB25B429BB2CA
:1032C80024E000BFAFF30080000000000000F040E1
:1032D800F003002080000020801A0020480600200B
:1032E800C000002008210020D8110020C8000020BC
:1032F800702100207812002098150020B0030020CB
:10330800D7E92201FDF7D0FB03469BB2B04A938070
:10331800B04B93ED2C7BB0EE470AF0EE670A0DF048
:1033280083FCB0EE407AF0EE607A9FEDA71BB0EE1A
:10333800470AF0EE670A0DF041FC87ED220B4FF0CB
:1033480000024FF00003D7E92201FDF747FB0346CF
:10335800002B10D0D7F88830BB64D7F88C3083F0B6
:103368000043FB64D7E91201FDF79EFB03469BB2BD
:103378005B429BB205E0D7E92201FDF795FB0346C6
:103388009BB2934AD380934B93ED2E7BB0EE470AC2
:10339800F0EE670A0DF048FCB0EE407AF0EE607A85
:1033A8009FED891BB0EE470AF0EE670A0DF006FCA8
:1033B80087ED220B4FF000024FF00003D7E92201FE
:1033C800FDF70CFB0346002B10D0D7F888303B6480
:1033D800D7F88C3083F000437B64D7E91001FDF700
:1033E80063FB03469BB25B429BB205E0D7E922012F
:1033F800FDF75AFB03469BB2754A1381754B93ED53
:10340800307BB0EE470AF0EE670A0DF00DFCB0EE27
:10341800407AF0EE607A9FED6C1BB0EE470AF0EE52
:10342800670A0DF0CBFB87ED220B4FF000024FF03F
:103438000003D7E92201FDF7D1FA0346002B10D08B
:10344800D7F88830BB63D7F88C3083F00043FB6330
:10345800D7E90E01FDF728FB03469BB25B429BB2FE
:1034680005E0D7E92201FDF71FFB03469BB2584A46
:10347800538197ED200B0DF0D7FBB0EE407AF0EEBC
:10348800607A9FED511BB0EE470AF0EE670A0DF027
:1034980095FB87ED220B4FF000024FF00003D7E9B0
:1034A8002201FDF79BFA0346002B10D0D7F888308D
:1034B8003B63D7F88C3083F000437B63D7E90C017A
:1034C800FDF7F2FA03469BB25B429BB205E0D7E9EF
:1034D8002201FDF7E9FA03469BB23D4A93813C4A33
:1034E800B7F86A30D3813C4BB3F86630384A138258
:1034F8003A4BB3F8F833A7F86C30364B93ED027BB0
:10350800374A38493848B0EE470AF0EE670AFFF7FD
:10351800FDFA304B03F53C6353E90223C7E91E2348
:1035280000233B671AE03B6F01332A4A03F2771303
:10353800DB001344D3E90023C7E92223D7E9222378
:10354800D7E91E01FDF768FA0346002B03D0D7E937
:103558002223C7E91E233B6F01333B673B6F172BC1
:10356800E1DD1C4B03F50A6353E90223C7E9202375
:1035780000233B671AE03B6F0133164A03F213132B
:10358800DB001344D3E90023C7E92223D7E9222328
:10359800D7E92001FDF740FA0346002B03D0D7E90D
:1035A8002223C7E920233B6F01333B673B6F172B6F
:1035B800E1DD084B03F5B06353E90223C7E924238F
:1035C80000233B672CE000BF000000000000F04033
:1035D800B0030020F0030020000000209815002010
:1035E800B0000020C01F0020A80F00203B6F01334F
:1035F800A54AAF33DB001344D3E90023C7E92223EC
:10360800D7E92223D7E92401FDF706FA0346002B60
:1036180003D0D7E92223C7E924233B6F01333B6753
:103628003B6F172BE2DD984BD3E9FA239649C1E9A2
:103638002C2300233B671BE03B6F0133924A7D3309
:10364800DB001344D3E90023C7E922238E4BD3E9D7
:103658002C23D7E92201FDF7C1F90346002B04D03A
:103668008949D7E92223C1E92C233B6F01333B6702
:103678003B6F172BE0DD844BD3E996238249C1E9E0
:103688002E2300233B671BE03B6F01337E4A4B33FD
:10369800DB001344D3E90023C7E922237A4BD3E99B
:1036A8002E23D7E92201FDF799F90346002B04D010
:1036B8007549D7E92223C1E92E233B6F01333B67C4
:1036C8003B6F172BE0DD704B93ED0C7B6F4A704915
:1036D8007048B0EE470AF0EE670AFFF717FA6A4B30
:1036E80003F5236353E902236749C1E93023002323
:1036F8003B671CE03B6F0133634A03F24513DB0071
:103708001344D3E90023C7E922235F4BD3E93023CD
:10371800D7E92201FDF762F90346002B04D05A4984
:10372800D7E92223C1E930233B6F01333B673B6F65
:10373800172BDFDD584BB3F8FA33A7F86A30574A2E
:10374800B7F86C30138097ED1E0B0DF06DFAB0EEE4
:10375800407AF0EE607A9FED4A1BB0EE470AF0EE31
:10376800670A0DF02BFA87ED220B4FF000024FF09D
:103778000003D7E92201FDF731F90346002B10D0E9
:10378800D7F88830BB62D7F88C3083F00043FB62EF
:10379800D7E90A01FDF788F903469BB25B429BB261
:1037A80005E0D7E92201FDF77FF903469BB23B4AC2
:1037B800538097ED200B0DF037FAB0EE407AF0EE1B
:1037C800607A9FED2F1BB0EE470AF0EE670A0DF006
:1037D800F5F987ED220B4FF000024FF00003D7E90F
:1037E8002201FDF7FBF80346002B10D0D7F88830EC
:1037F8003B62D7F88C3083F000437B62D7E908013D
:10380800FDF752F903469BB25B429BB205E0D7E94C
:103818002201FDF749F903469BB2204A938097EDB0
:10382800240B0DF001FAB0EE407AF0EE607A9FEDCD
:10383800141BB0EE470AF0EE670A0DF0BFF987EDEA
:10384800220B4FF000024FF00003D7E92201FDF7E9
:10385800C5F80346002B23D0D7F88830BB61D7F8CA
:103868008C3083F00043FB61D7E90601FDF71CF9B2
:1038780003469BB25B429BB218E000BFAFF30080E7
:10388800000000000000F040F0030020A800002025
:10389800E01E0020180E002098150020C403002008
:1038A800D7E92201FDF700F903469BB2A04AD3806D
:1038B800A04B93ED2C7BB0EE470AF0EE670A0DF0B3
:1038C800B3F9B0EE407AF0EE607A9FED971BB0EE58
:1038D800470AF0EE670A0DF071F987ED220B4FF0F9
:1038E80000024FF00003D7E92201FDF777F80346FD
:1038F800002B10D0D7F888303B61D7F88C3083F094
:1039080000437B61D7E90401FDF7CEF803469BB27B
:103918005B429BB205E0D7E92201FDF7C5F80346F3
:103928009BB2834A1381834B93ED2E7BB0EE470AFB
:10393800F0EE670A0DF078F9B0EE407AF0EE607AB2
:103948009FED791BB0EE470AF0EE670A0DF036F9E5
:1039580087ED220B4FF000024FF00003D7E9220158
:10396800FDF73CF80346002B10D0D7F88830BB6031
:10397800D7F88C3083F00043FB60D7E90201FDF7EC
:1039880093F803469BB25B429BB205E0D7E922015C
:10399800FDF78AF803469BB2654A5381654B93ED60
:1039A800307BB0EE470AF0EE670A0DF03DF9B0EE55
:1039B800407AF0EE607A9FED5C1BB0EE470AF0EEBD
:1039C800670A0DF0FBF887ED220B4FF000024FF06D
:1039D8000003D7E92201FDF701F80346002B10D0B8
:1039E800D7F888303B60D7F88C3083F000437B6091
:1039F800D7E90001FDF758F803469BB25B429BB23A
:103A080005E0D7E92201FDF74FF803469BB2484A83
:103A18009381474AB7F86A30D381474BB3F86C2093
:103A2800434B1A82454B9B79002B0BD0414BD3E972
:103A380000234349C1E9C8233E4BD3E90E2340493B
:103A4800C1E9CA2300237B6727E03B4BB3F860300A
:103A58001946384A7B6F403332F8133001FB03F3C1
:103A68001846FCF7CFFC4FF00002364BFCF744FD3C
:103A780002460B462F48796FC9000144C1E900236B
:103A8800314A7B6F134400221A70304A7B6F002141
:103A980022F813107B6F01337B677B6F072BD4DD14
:103AA8002B4B00221A602B4B00221A60244BD3E9BF
:103AB800D0014FF00002284BFCF768FB02460B468A
:103AC8001F49C1E9D02300237B670DE0234A7B6FA0
:103AD800134493F9001007F15C027B6F13440A4604
:103AE8001A707B6F01337B677B6F042BEEDD144B01
:103AF800D3E9D0014FF000024FF00003FCF76EFF4E
:103B08000346002B2CD00E4BD3E9D0231046194680
:103B1800FCF7A2FF03465B427B67002387F86F3000
:103B28002AE000BFAFF30080000000000000F04072
:103B3800C4030020F00300200000002030230020F0
:103B4800981500200000503EE8030020D80300200C
:103B580094030020980300200000F03FC0100108E3
:103B6800AC4BD3E9D02310461946FCF775FF034642
:103B78007B67012387F86F307B6F052B0BDD7A6F2E
:103B8800A54B83FB02135910D317C91A0B469B0088
:103B98000B44D31A7B677B6F022B0CDD7B6FC3F161
:103BA80005037B6797F86F30002B0CBF01230023B8
:103BB800DBB287F86F30002387F85830002387F886
:103BC80059307B6F002B52DD97F86F30002B23D0D4
:103BD80005233B6714E03A6F7B6FD31A5A1E3B6F7D
:103BE800013B403207F158010A4412F93C2C40339A
:103BF80007F158010B4403F83C2C3B6F013B3B6732
:103C08007A6F3B6F9A42E6DB7A6F07F15C0300211B
:103C180018460DF0D3F92AE07A6F07F158037F4967
:103C280018460DF0FDF97B6FC3F105031A4607F13D
:103C38005C03002118460DF0C1F900233B6712E030
:103C48003A6F7B6FD31A053307F158013A6F0A446C
:103C580092F90020403307F158010B4403F83C2C3B
:103C68003B6F01333B673A6F7B6F9A42E8DB6C4BE3
:103C78006C4AC3F8902097F95E30002B03D04FF4BC
:103C880000737B6701E000237B67654BD3F89030B6
:103C98007A6F11461846FEF722FD614BD3F8902043
:103CA8007B6FDB4303F4007319461046FEF725FDCE
:103CB8005B4B5C4AC3F8902097F95E30002B03D029
:103CC8004FF480437B6701E000237B67544BD3F8B4
:103CD80090307A6F11461846FEF701FD504BD3F825
:103CE80090207B6FDB4303F4804319461046FEF7B0
:103CF80004FD4B4B4B4AC3F8902097F95D30002BDD
:103D080003D04FF480737B6701E000237B67444B4B
:103D1800D3F890307A6F11461846FEF7E0FC404B16
:103D2800D3F890207B6FDB4303F480731946104669
:103D3800FEF7E3FC3A4B3B4AC3F8902097F95D3015
:103D4800002B03D04FF400437B6701E000237B671F
:103D5800334BD3F890307A6F11461846FEF7BFFC04
:103D68002F4BD3F890207B6FDB4303F400431946B5
:103D78001046FEF7C2FC2A4B2A4AC3F8902097F94E
:103D88005F30002B03D04FF480537B6701E00023A2
:103D98007B67234BD3F890307A6F11461846FEF7AD
:103DA8009EFC1F4BD3F890207B6FDB4303F48053BA
:103DB80019461046FEF7A1FC194B1B4AC3F8902080
:103DC80097F95C30002B03D04FF480537B6701E0F8
:103DD80000237B67124BD3F890307A6F1146184650
:103DE800FEF77DFC0E4BD3F890207B6FDB4303F48A
:103DF800805319461046FEF780FC094B094AC3F860
:103E0800902097F95C30002B10D04FF400537B675B
:103E18000EE000BF9815002067666666C0100108AE
:103E2800F0030020001000480004004800237B67CE
:103E3800924BD3F890307A6F11461846FEF74FFC34
:103E48008E4BD3F890207B6FDB4303F40053194665
:103E58001046FEF752FC894B894AC3F8902097F91F
:103E68005F30002B03D04FF400637B6701E0002331
:103E78007B67824BD3F890307A6F11461846FEF76D
:103E88002EFC7E4BD3F890207B6FDB4303F400635A
:103E980019461046FEF731FC7A48FEF714FC78669E
:103EA8007B6E03F00403002B0CBF01230023DBB25D
:103EB80087F86F307248FEF706FC7866724B93F805
:103EC800FC33FF2B07D0704B93F8FC330133DAB285
:103ED8006D4B83F8FC236C4B93F8F03303F0080325
:103EE800DBB2002B13D1684A92F8F03343F0080391
:103EF80082F8F033644B002283F8FC23624A92F87C
:103F0800F033042161F3020382F8F03386E05E4B5C
:103F180093F8F033C3F30203DBB2032B33D0032B44
:103F280042DC012B02D0022B19D03DE0564B93F80E
:103F3800FC33632B0CD9544B002283F8FC23524AE0
:103F480092F8F033042161F3020382F8F03365E05C
:103F58004A494FF000024D4BC1E928235EE04A4B25
:103F680093F8FC33632B56D9474A92F8F033032170
:103F780061F3020382F8F03340494FF00002434BEB
:103F8800C1E92A2347E097F86F30002B45D03E4B14
:103F9800002283F8FC233C4A92F8F033042161F3B1
:103FA800020382F8F03338E097F86F30002B11D015
:103FB800354B93F8FC33C72B0CD9334B002283F8CD
:103FC800FC23314A92F8F033012161F3020382F8AD
:103FD800F03323E07B6E03F04003002B0CD12A4B17
:103FE800002283F8FC23284A92F8F033022161F377
:103FF800020382F8F03311E020494FF000024FF03D
:104008000003C1E928231D494FF000024FF00003C7
:10401800C1E92A2302E000BF00E000BF97F95C2055
:10402800164B83F8942097F95D20144B83F895205C
:1040380097F95E20114B83F8962097F95F200F4B74
:1040480083F8972097F95F200C4B83F8982097F90D
:104058005E200A4B83F8992097F95D20074B83F877
:104068009A2097F95C20054B83F89B20064B93F820
:10407800FF33002B28D100237B671EE0F0030020CC
:104088000010004800040048981500200000F03F88
:10409800954A7B6F1344943393F900301846FCF724
:1040A800C1F902460B469148796F4131C900014474
:1040B800C1E900237B6F01337B677B6F072BE7DD4B
:1040C8008A4B012283F8FF23884B93F80034002B96
:1040D8000DD197F960301846FCF7A4F902460B4653
:1040E8008249C1E9D223814B012283F800247F4B06
:1040F80093F80134002B10D17C4B0122C3F8002225
:104108007A4B0822C3F804224022002177480CF099
:1041180055FF764B012283F80124744BD3E9D20171
:104128004FF00002724BFCF74FFC0346002B0CD0FB
:104138006E4B0822C3F800226C4B0122C3F80422FC
:104148004022694969480CF06BFF00237B6736E021
:10415800664A7B6F4133DB001344D3E900014FF01B
:104168000002634BFCF730FC0346002B0CD05E4A80
:104178007B6FDB001344D3E900235C48796F51312E
:10418800C9000144C1E90023584A7B6F5133DB0061
:104198001344D3E90001554A7B6FDB001344D3E98C
:1041A8000023FBF7F1FF02460B464F48796F0831B1
:1041B800C9000144C1E900237B6F01337B677B6F32
:1041C800072BC5DD484BD3E9120143A3D3E90023EC
:1041D800FCF792F902460B4614461D46434BD3E9B9
:1041E80094013FA3D3E90023FCF786F902460B4666
:1041F80020462946FBF7CAFF02460B463A49C1E961
:104208001223394BD3E9160133A3D3E90023FCF772
:1042180073F902460B4614461D46344BD3E9980100
:104228002FA3D3E90023FCF767F902460B46204683
:104238002946FBF7ABFF02460B462B49C1E916237B
:10424800294BD3E9180124A3D3E90023FCF754F937
:1042580002460B4614461D46244BD3E99A0120A377
:10426800D3E90023FCF748F902460B4620462946C5
:10427800FBF78CFF02460B461B49C1E918231A4B72
:10428800D3E91C0114A3D3E90023FCF735F902464E
:104298000B4614461D46154BD3E99E0110A3D3E9DE
:1042A8000023FCF729F902460B4620462946FBF76E
:1042B8006DFF02460B460C49C1E91C2397F9603093
:1042C8001846FCF7AFF802460B460849C1E9D22365
:1042D80000237B6731E000BF9A9999999999C93F62
:1042E8009A9999999999E93FF00300209815002027
:1042F8000000F03FAE4A7B6F0833DB001344D3E97C
:104308000023AC48796F4931C9000144C1E9002351
:10431800A74A7B6F1344943393F900301846FCF78F
:1043280081F802460B46A348796F4131C900014420
:10433800C1E900237B6F01337B677B6F072BD9DDD6
:1043480000233B6700237B67994BD3E928014FF093
:104358000002994BFCF738FB0346002B00F0C9829A
:104368004B237B676FF04A033B67914BD3E91401FA
:10437800904BD3E9DE23FCF74FFB0346002B1ED0FE
:104388008C4BD3E9DE0186A3D3E90023FCF7B4F80C
:1043980002460B4614461D46854BD3E9140182A3F9
:1043A800D3E90023FCF7A8F802460B462046294625
:1043B800FBF7ECFE02460B467E49C1E9DE237C4B47
:1043C800D3E914017B4BD3E9DC23FCF707FB034655
:1043D800002B1ED0774BD3E9DC0171A3D3E900236E
:1043E800FCF78AF802460B4614461D46704BD3E983
:1043F80014016DA3D3E90023FCF77EF802460B46AF
:1044080020462946FBF7C2FE02460B466949C1E928
:10441800DC23674BD3E91A01664BD3E9E223FCF7A7
:10442800FBFA0346002B1ED0624BD3E9E2015CA3E2
:10443800D3E90023FCF760F802460B4614461D46F4
:104448005B4BD3E91A0158A3D3E90023FCF754F8CE
:1044580002460B4620462946FBF798FE02460B46C5
:104468005449C1E9E223524BD3E91A01514BD3E92C
:10447800E023FCF7B3FA0346002B1ED04D4BD3E9DB
:10448800E00147A3D3E90023FCF736F802460B46C0
:1044980014461D46464BD3E91A0143A3D3E900232A
:1044A800FCF72AF802460B4620462946FBF76EFE23
:1044B80002460B463F49C1E9E0233D4BD3E91601CB
:1044C8003C4BD3E9F223FCF7A7FA0346002B1ED096
:1044D800384BD3E9F2014FF00002384BFCF70CF8E7
:1044E80002460B4614461D46314BD3E916014FF0E0
:1044F8000002324BFCF700F802460B4620462946DC
:10450800FBF744FE02460B462A49C1E9F223284B31
:10451800D3E91601274BD3E9F023FCF75FFA0346EA
:10452800002B1ED0234BD3E9F0014FF00002234BA0
:10453800FBF7E2FF02460B4614461D461C4BD3E927
:1045480016014FF000021D4BFBF7D6FF02460B4643
:1045580020462946FBF71AFE02460B461549C1E9D3
:10456800F023134BD3E91801124BD3E9E623FCF7E8
:1045780053FA0346002B31D00E4BD3E9E6014FF036
:1045880000020E4BFBF7B8FF02460B4614461D46C9
:10459800074BD3E918014FF0000211E0AFF3008098
:1045A8009A9999999999E93F9A9999999999C93FA5
:1045B800F0030020981500200000F03F0000E03FC5
:1045C800B14BFBF799FF02460B4620462946FBF7FD
:1045D800DDFD02460B46AD49C1E9E623AC4BD3E904
:1045E8001801AA4BD3E9E423FCF7F8F90346002B9A
:1045F8001ED0A64BD3E9E4014FF00002A24BFBF713
:104608007BFF02460B4614461D46A14BD3E9180111
:104618004FF000029C4BFBF76FFF02460B4620460B
:104628002946FBF7B3FD02460B469849C1E9E42346
:10463800974BD3E91201954BD3E9EA23FCF7ECF940
:104648000346002B1ED0914BD3E9EA014FF000023C
:104658008D4BFBF751FF02460B4614461D468C4B0B
:10466800D3E912014FF00002874BFBF745FF0246E2
:104678000B4620462946FBF789FD02460B4683492F
:10468800C1E9EA23824BD3E91201804BD3E9E8233D
:10469800FCF7A4F90346002B1ED07C4BD3E9E801B4
:1046A8004FF00002784BFBF727FF02460B461446F3
:1046B8001D46774BD3E912014FF00002724BFBF70E
:1046C8001BFF02460B4620462946FBF75FFD0246C4
:1046D8000B466E49C1E9E8236D4BD3E91C016B4BCE
:1046E800D3E9EE23FCF798F90346002B1ED0674B5D
:1046F800D3E9EE014FF00002634BFBF7FDFE0246E3
:104708000B4614461D46624BD3E91C014FF00002CC
:104718005D4BFBF7F1FE02460B4620462946FBF7A8
:1047280035FD02460B465949C1E9EE23584BD3E9FA
:104738001C01564BD3E9EC23FCF750F90346002B38
:104748001ED0524BD3E9EC014FF000024E4BFBF761
:10475800D3FE02460B4614461D464D4BD3E91C01B9
:104768004FF00002484BFBF7C7FE02460B462046B7
:104778002946FBF70BFD02460B464449C1E9EC23E9
:10478800434BD3E91001414BD3E9F623FCF744F935
:104798000346002B1ED03D4BD3E9F60136A3D3E9DF
:1047A8000023FBF7A9FE02460B4614461D46384B6C
:1047B800D3E9100132A3D3E90023FBF79DFE02469B
:1047C8000B4620462946FBF7E1FC02460B462F49DB
:1047D800C1E9F6232E4BD3E910012C4BD3E9F4237E
:1047E800FCF7FCF80346002B1ED0284BD3E9F40154
:1047F80021A3D3E90023FBF77FFE02460B461446AC
:104808001D46234BD3E910011DA3D3E90023FBF771
:1048180073FE02460B4620462946FBF7B7FC0246C4
:104828000B461A49C1E9F423194BD3E91E01174B6A
:10483800D3E9FA23FCF7F0F80346002B2FD0134BEB
:10484800D3E9FA010CA3D3E90023FBF755FE02468E
:104858000B4614461D460E4BD3E91E0108A3D3E9A7
:104868000023FBF749FE02460B4620462946FBF784
:104878008DFC0FE0AFF300809A9999999999E93FD7
:104888009A9999999999C93F0000E03F9815002095
:10489800F003002002460B468D49C1E9FA238D4BEF
:1048A800D3E91E018A4BD3E9F823FCF797F80346AE
:1048B800002B1ED0864BD3E9F8017FA3D3E9002350
:1048C800FBF71AFE02460B4614461D46814BD3E9F8
:1048D8001E017BA3D3E90023FBF70EFE02460B461D
:1048E80020462946FBF752FC02460B467849C1E9A7
:1048F800F8234022002177480CF060FB754BD3E980
:104908001445734BD3E9DC01714BD3E9DE23FBF784
:104918003DFC02460B46104619464FF000024FF088
:104928008043FBF713FF02460B4620462946FCF757
:1049380073F80346002B05D066494FF00002664B1A
:10494800C1E90423634BD3E91A45614BD3E9E0017C
:104958005F4BD3E9E223FBF719FC02460B461046EE
:1049680019464FF000024FF08043FBF7EFFE024676
:104978000B4620462946FCF74FF80346002B05D086
:1049880054494FF00002544BC1E90A23514BD3E973
:1049980012454F4BD3E9EA014BA3D3E90023FBF7B8
:1049A800ABFD02460B4620462946FCF735F8034680
:1049B800002B05D047494FF00002474BC1E90223BD
:1049C800444BD3E91845424BD3E9E6013EA3D3E96A
:1049D8000023FBF791FD02460B4620462946FCF7CB
:1049E8001BF80346002B05D03A494FF000023A4B1A
:1049F800C1E90823374BD3E91645354BD3E9F20112
:104A080031A3D3E90023FBF777FD02460B46204686
:104A18002946FCF701F80346002B05D02D494FF035
:104A280000022D4BC1E906234FF000024FF00003AE
:104A3800C7E922234FF000024FF00003C7E91E2305
:104A4800244BD3E92A014FF00002234BFBF7BCFFAC
:104A58000346002B00F0B2811E4BD3E904014FF04E
:104A680000021D4BFBF7B0FF0346002B12D0194B79
:104A7800D3E90A014FF000024FF00003FBF7A4FF4F
:104A88000346002B33D012494FF00002134BC1E903
:104A9800D8232CE00F4BD3E90A014FF000020E4B4C
:104AA800FBF792FF0346002B1AD009494FF000028A
:104AB800094BC1E9D8231AE09A9999999999E93F3C
:104AC8009A9999999999C93FCDCCCCCCCCCCEC3F4B
:104AD80098150020F00300200000F03F0000F0BF10
:104AE8008F494FF000024FF00003C1E9D8238C4BE7
:104AF800D3E9D8014FF000028A4BFBF765FF034664
:104B0800002B1CD0884BD3E904014FF00002854BE1
:104B1800FBF75AFF0346002B11D0834BD3E90A0158
:104B28004FF000027F4BFBF74FFF0346002B06D0E8
:104B38007B494FF000024FF08043C1E9D823784BFE
:104B4800D3E9D8014FF00002784BFBF73DFF03464D
:104B5800002B1CD0744BD3E904014FF00002714BB9
:104B6800FBF732FF0346002B11D06F4BD3E90A0144
:104B78004FF000026B4BFBF727FF0346002B06D0D4
:104B880067494FF000024FF04043C1E9D823644B16
:104B9800D3E9D601624BD3E9D823FBF7F7FA0246EB
:104BA8000B465F49C1E9D6235D4BD3E9D6455C4B3B
:104BB800D3E9D60156A3D3E90023FBF79DFC0246AF
:104BC8000B4620462946FBF7DFFA02460B465449B6
:104BD800C1E9D623524BD3E9D801514BD3E9D423A9
:104BE800FBF7D2FA02460B4614461D464C4BD3E956
:104BF800DA0149A3D3E90023FBF77EFC02460B4602
:104C080020462946FBF7C2FA02460B464449C1E949
:104C1800DA23434BD3E9D8014FF00002444BFBF7AA
:104C28006BFC02460B46104619463D4BD3E9D6238A
:104C3800FBF7ACFA02460B4614461D46384BD3E93F
:104C4800DA014FF000023B4BFBF756FC02460B46DD
:104C580020462946FBF79AFA02460B46C7E91E2367
:104C68002F4BD3E9D8232E49C1E9D423D7E91E23F2
:104C78004FF000002F49FBF787FA02460B46104613
:104C880019464FF000022C4BFBF7BCFE0346002BE5
:104C98000BD0D7E91E234FF000002649FBF774FA22
:104CA80002460B46C7E9222304E04FF00002224BDC
:104CB800C7E922234FF000021E4BD7E92201FBF778
:104CC800ABFE0346002B04D04FF00002194BC7E996
:104CD80022234FF00002174BD7E91E01FBF756FAC3
:104CE80002460B46104619464FF00002124BFBF7DE
:104CF80089FE0346002B21D04FF000020D4BD7E967
:104D08001E01FBF743FA02460B46C7E91E231AE0C9
:104D18007B14AE47E17A743F9A9999999999E93F3A
:104D2800981500200000F03FF00300200000F0BFBD
:104D380000003E4000005940000059C04FF00002FA
:104D48009D4BC7E91E234FF000029C4BD7E91E017B
:104D5800FBF762FE0346002B04D04FF00002974B8E
:104D6800C7E91E23964BD3E9D8014FF000024FF054
:104D78000003FBF729FE0346002B1FD0914BD3E914
:104D880004014FF00002904BFBF71EFE0346002B78
:104D980014D08C4BD3E90A014FF000028A4BFBF781
:104DA80013FE0346002B09D04FF00002874BC7E9DA
:104DB80022234FF00002854BC7E91E23386FFBF70B
:104DC80031FB02460B46D7E92201FBF7DFF9024621
:104DD8000B46C7E92223786FFBF724FB02460B46F4
:104DE800D7E91E01FBF7D2F902460B46C7E91E2395
:104DF800734B93F8FD33002B08D17149D7E922236F
:104E0800C1E9CC236E4B012283F8FD236C4B93F848
:104E1800FE33002B08D16A49D7E91E23C1E9CE2306
:104E2800674B012283F8FE23654BD3E9CC015EA3CF
:104E3800D3E90023FBF760FB02460B4614461D46E8
:104E48005BA3D3E90023D7E92201FBF755FB024610
:104E58000B4620462946FBF799F902460B46584966
:104E6800C1E9CC23564BD3E9CE014FA3D3E90023A4
:104E7800FBF742FB02460B4614461D464CA3D3E9FA
:104E88000023D7E91E01FBF737FB02460B462046F5
:104E98002946FBF77BF902460B464949C1E9CE236F
:104EA800474BD3E9CC014FF00002494BFBF7B4FD67
:104EB8000346002B1BD0424BD3E9CC014FF0000234
:104EC800444BFBF743FC02460B46104619464FF08D
:104ED8000002414BFBF75AF902460B46C7E9222369
:104EE8004FF000024FF00003C7E91E2335E0344BB2
:104EF800D3E9CC014FF00002384BFBF76FFD0346B6
:104F0800002B1ED04FF000024FF00003C7E9222308
:104F18002B4BD3E9CC014FF000022E4BFBF716FCCC
:104F280002460B46104619464FF000022A4BFBF783
:104F38002BF902460B461146B96723F00043FB677D
:104F48000BE04FF000024FF00003C7E922234FF0B7
:104F580000024FF00003C7E91E23194BD3E9CE0125
:104F68004FF000021A4BFBF757FD0346002B37D0D2
:104F7800134BD3E9CE014FF00002164BFBF7E6FBCB
:104F880002460B46104619464FF00002124BFBF73B
:104F9800FDF802460B46C7E920234FF000024FF008
:104FA8000003C7E9242353E09A9999999999C93F2D
:104FB8009A9999999999E93F000059C00000594078
:104FC80098150020F00300200000F03F000049C0C1
:104FD800000024400000084000805040000024C029
:104FE8009F4BD3E9CE014FF000029E4BFBF7F6FC36
:104FF8000346002B20D04FF000024FF00003C7E912
:105008002023974BD3E9CE014FF00002964BFBF7D4
:105018009DFB02460B46104619464FF00002934B83
:10502800FBF7B2F802460B461146C7F8901023F07A
:105038000043C7F894300BE04FF000024FF0000334
:10504800C7E920234FF000024FF00003C7E92423EB
:10505800834BD3F81843D7E92201FBF745FD0346F4
:1050680000EE103A2046FDF723FC7D4BD3F8184399
:10507800D7E91E01FBF738FD034600EE103A20463B
:10508800FDF72AFC764BD3F80843D7E92001FBF754
:105098002BFD034600EE103A2046FDF7E1FB704B6E
:1050A800D3F80843D7E92401FBF71EFD034600EEB9
:1050B800103A2046FDF7E8FB6D4B6E4AC3F8902086
:1050C8006D4BD3E900014FF000024FF00003FBF7EE
:1050D8007BFC0346002B02D180237B6701E0002381
:1050E8007B67634BD3F890307A6F11461846FDF70B
:1050F800F6FA5F4BD3F890207B6FDB4303F0800315
:1051080019461046FDF7F9FA594B5C4AC3F8902046
:10511800574BD3E906014FF000024FF00003FBF7AD
:1051280053FC0346002B03D14FF400537B6701E087
:1051380000237B674E4BD3F890307A6F11461846A0
:10514800FDF7CDFA4A4BD3F890207B6FDB4303F48D
:10515800005319461046FDF7D0FA454B474AC3F8A5
:105168009020434BD3E902014FF000024FF00003B7
:10517800FBF72AFC0346002B03D14FF480437B67DF
:1051880001E000237B673A4BD3F890307A6F1146E1
:105198001846FDF7A4FA364BD3F890207B6FDB4313
:1051A80003F4804319461046FDF7A7FA304B334AFB
:1051B800C3F890202E4BD3E908014FF000024FF0BE
:1051C8000003FBF701FC0346002B03D14FF4004317
:1051D8007B6701E000237B67254BD3F890307A6F1B
:1051E80011461846FDF77BFA214BD3F890207B6FC8
:1051F800DB4303F4004319461046FDF77EFA1C4BC7
:105208001F4AC3F890201C4BD3E902014FF000025B
:105218004FF00003FBF7D8FB0346002B02D108230D
:105228007B6701E000237B67114BD3F890307A6FDE
:1052380011461846FDF753FA0D4BD3F890207B6FB3
:10524800DB4303F0080319461046FDF756FA00F051
:105258003BFD00F04FFE00BF9837BD46B0BD00BF14
:1052680098150020000024C000000840008050402D
:10527800F0030020000C004800000020000800484F
:105288000004004800000000B0B58EB000AF9C4B91
:1052980093EDC87B9B4A9C499C48B0EE470AF0EEC8
:1052A800670AFDF733FC9A4B03F5E26353E90223DF
:1052B800C7E90C230023FB6219E0FB6A0133944A17
:1052C800E133DB001344D3E90023C7E90823D7E916
:1052D8000823D7E90C01FBF781FB0346002B03D019
:1052E800D7E90823C7E90C23FB6A0133FB62FB6A91
:1052F800172BE2DD97ED0C0B0BF096FCB0EE407A25
:10530800F0EE607A9FED7C1BB0EE470AF0EE670A7C
:105318000BF054FC87ED080B4FF000024FF0000330
:10532800D7E90801FBF75AFB0346002B0ED03B6A6E
:105338003B617B6A83F000437B61D7E90401FBF79B
:10534800B3FB03469BB25B429BB205E0D7E9080179
:10535800FBF7AAFB03469BB2FB83694B93EDCA7B21
:105368006C4A6D496D48B0EE470AF0EE670AFDF7E2
:10537800CDFB674BD3E93223C7E90C230023FB623B
:1053880019E0FB6A0133624A1933DB001344D3E99D
:105398000023C7E90823D7E90823D7E90C01FBF75D
:1053A8001DFB0346002B03D0D7E90823C7E90C23CC
:1053B800FB6A0133FB62FB6A172BE2DD97ED0C0BEE
:1053C8000BF032FCB0EE407AF0EE607A9FED4A1BAB
:1053D800B0EE470AF0EE670A0BF0F0FB87ED080B1A
:1053E8004FF000024FF00003D7E90801FBF7F6FA87
:1053F8000346002B0ED03B6ABB607B6A83F00043F8
:10540800FB60D7E90201FBF74FFB03469BB25B4207
:105418009BB205E0D7E90801FBF746FB03469BB2C0
:10542800BB83374ABB8BA2F8F633354AFB8BA2F80D
:10543800F433374BD3E93223C7E90C230023FB624B
:1054480019E0FB6A0133324A1933DB001344D3E90C
:105458000023C7E90823D7E90823D7E90C01FBF79C
:10546800DBFA0346002B03D0D7E90823C7E90C234E
:10547800FB6A0133FB62FB6A172BE2DD97ED0C0B2D
:105488000BF0D2FBB0EE407AF0EE607A9FED1A1B7B
:10549800B0EE470AF0EE670A0BF090FB87ED080BB9
:1054A8004FF000024FF00003D7E90801FBF796FA26
:1054B8000346002B0ED03B6A3B607B6A83F00043B7
:1054C8007B60D7E90001FBF7EFFA03469BB25B422A
:1054D8009BB205E0D7E90801FBF7E6FA03469BB261
:1054E800FB830B4B03F5E26353E90223C7E90C2363
:1054F8000023FB622EE000BF000000000000F04027
:105508009815002098000020201D0020F80A00208F
:10551800F003002078000020A0190020B804002023
:10552800FB6A0133304AE133DB001344D3E900233B
:10553800C7E90823D7E90823D7E90C01FBF76CFA78
:105548000346002B03D0D7E90823C7E90C23FB6ADD
:105558000133FB62FB6A172BE2DD97ED0C0B0BF0B6
:1055680063FBB0EE407AF0EE607A9FED1D1BB0EE63
:10557800470AF0EE670A0BF021FB87ED080B4FF0A6
:1055880000024FF00003D7E90801FBF727FA0346AA
:10559800002B0CD03C6A7B6A83F0004520462946E4
:1055A800FBF782FA03469BB25B429BB205E0D7E960
:1055B8000801FBF779FA03469BB2BB830B4AFB8BC6
:1055C800A2F8FA33094ABB8BA2F8F83300F07CFB47
:1055D80000F090FC00BF3837BD46B0BDAFF3008087
:1055E800000000000000F040F003002098150020A3
:1055F80080B582B000AF00237B6017E0824BB3F820
:105608006E10824A7B6822F813107F4BB3F8701033
:105618007F4A7B6822F813107B4BB3F872107D4ADF
:105628007B6822F813107B6801337B607B68082B4A
:10563800E4DD00237B6011E0734B93F87610764A23
:105648007B6813440A461A706F4BB3F87410734A98
:105658007B6822F813107B6801337B607B68072B1B
:10566800EADD694B1B6D6E4A1360674B5B6D6D4AD3
:105678001360654B9B6D6C4A1360634BDB6D6B4A23
:105688001360614B9B6D684A53605F4BDB6D674AE3
:1056980053605D4B9B6D644A93605B4BDB6D634A63
:1056A800936000F0A5FB584BB3F86220604BA3F859
:1056B800F423554BB3F864205D4BA3F8F623524B03
:1056C800B3F868205A4BA3F8F8234F4BB3F86A2075
:1056D800574BA3F8FA2356494FF00002554BC1E93E
:1056E800DC2353494FF00002524BC1E9E0235049F3
:1056F8004FF000024F4BC1E9E4234D494FF000023F
:105708004C4BC1E9E8234A494FF00002494BC1E933
:10571800EC2347494FF00002464BC1E9F0234449C6
:105728004FF00002434BC1E9F42341494FF0000216
:10573800404BC1E9F8233E4B0022C3F804223C4BFE
:105748000022C3F8CC223A4B002283F8C8223A48F8
:10575800FDF77EFA39493A48FDF713FA39493A48CC
:10576800FDF7A8F939493A48FDF7A4F939493A4803
:10577800FDF7A0F939493A48FDF79CF939493A4803
:10578800FDF798F939493A48FDF7FBF939493A489C
:10579800FDF790F939493A48FDF78CF939493A4803
:1057A800FDF788F9224B002283F80C23204B0022B6
:1057B80083F814231E4B0122C3F810233348FDF746
:1057C8008FFA1B4B012283F81423194B002283F80C
:1057D800FC22174B002283F80423154B0122C3F83F
:1057E80000232B48FDF7B8FA114B012283F8042354
:1057F80028492948FDF75EF928492948FDF75AF94B
:1058080000BF0837BD4680BD000000209C03002073
:10581800B0030020C4030020E8030020D8030020C0
:1058280094030020980300207C03002088030020B4
:10583800981500200000084060180020B8000020DB
:10584800A0200020D000002050220020A00000202E
:10585800001E002090000020401C0020880000202E
:10586800601B002080000020801A0020C00000205B
:1058780008210020C800002070210020B00000206E
:10588800C01F0020A8000020E01E0020A41800204F
:105898009418002098000020201D00207800002087
:1058A800A019002080B500AF3C4B93F8C832002BFC
:1058B80015D13A4B012283F8C822384BD3F8CC32A1
:1058C800012B0CD1354B93F8D032002B07D0334B3A
:1058D800D3F8D432012204211846FCF71FFD2F4BC0
:1058E80093F80C33002B28D12C4B012283F80C237E
:1058F8002A4BD3F81033012B1FD1284B93F81433BC
:10590800002B1AD0254BD3F818331846FDF790F81A
:10591800224BD3F8183300211846FBF704FC1F4B21
:10592800D3F8183302211846FBF72CFE1B4BD3F88B
:10593800183302211846FBF78DFE184B93F8FC32FA
:10594800002B28D1154B012283F8FC22134BD3F8E6
:105958000033012B1FD1114B93F80433002B1AD0BD
:105968000E4BD3F808331846FDF762F80B4BD3F803
:10597800083300211846FBF7D6FB084BD3F8083349
:1059880002211846FBF7BAFC044BD3F8083302216E
:105998001846FBF753FD00BF80BD00BF98150020D7
:1059A80080B489B000AFF860B9607A60FB68BB6109
:1059B8000023FB61BB689B087B611B4B1B68B3F52D
:1059C800C87F2AD00023FB6122E0174B1B681749C8
:1059D8007A6841F82320FB699B00BA691A44124B84
:1059E8001B681268114903F5C87341F823200E4B50
:1059F8001B680F4A12680D4903F5487341F82320C4
:105A0800094B1B680133084A1360FB690133FB61CA
:105A1800FA697B699A42D8D300E000BF2437BD46B3
:105A28005DF8047B704700BF382300204023002026
:105A38003C23002080B584B000AF786072B600BF08
:105A480000F0A6FC0346FB6007F10C037A6804210A
:105A58001846FFF7A5FF62B600BF00BF1037BD4666
:105A680080BD000080B582B000AF344B1B785A1C53
:105A7800D1B2324A1170002B09D0314B01221A6081
:105A88002E4B1B78013BDAB22C4B1A7053E03B1DAE
:105A98001846FCF7DBFF62B600BF02200BF072F875
:105AA800FDF796F902200BF078F872B600BF234B89
:105AB8001B78013BDAB2214B1A707B79002B11D08D
:105AC800204B5B785A1CD1B21E4A5170002B09D06A
