:020000040800F2
:100000000080012085BC0008597700085D77000852
:100010006177000865770008697700080000000034
:10002000000000000000000000000000496200081D
:100030006D770008000000000562000841610008BB
:10004000D5BC0008D5BC0008D5BC0008D5BC00084C
:10005000D5BC0008D5BC0008D5BC0008D5BC00083C
:10006000D5BC0008D5BC0008D5BC000871770008D5
:1000700035100008D5BC0008D5BC0008D5BC000868
:1000800075770008797700087D770008D5BC0008EF
:10009000D5BC0008D5BC0008D5BC0008D5BC0008FC
:1000A000D5BC000881770008D5BC0008D5BC000885
:1000B000D5BC0008D5BC0008D5BC0008D5BC0008DC
:1000C000D5BC0008D5BC0008D5BC0008D5BC0008CC
:1000D000D5BC0008D5BC0008D5BC0008D5BC0008BC
:1000E000D5BC0008D5BC0008D5BC0008D5BC0008AC
:1000F000D5BC0008D5BC0008D5BC0008D5BC00089C
:10010000D5BC0008D5BC0008D5BC0008D5BC00088B
:10011000D5BC0008D5BC0008D5BC0008D5BC00087B
:10012000D5BC0008D5BC0008D5BC0008D5BC00086B
:10013000D5BC0008D5BC0008D5BC0008D5BC00085B
:10014000D5BC0008D5BC0008D5BC00088D770008D8
:10015000D5BC0008D5BC0008D5BC0008D5BC00083B
:10016000D5BC0008D5BC0008D5BC0008D5BC00082B
:10017000D5BC0008D5BC0008D5BC000800000000B4
:08018000D5BC0008D5BC000845
:1001880081F0004102E000BF83F0004330B54FEA40
:1001980041044FEA430594EA050F08BF90EA020FAD
:1001A8001FBF54EA000C55EA020C7FEA645C7FEA40
:1001B800655C00F0E2804FEA5454D4EB5555B8BF63
:1001C8006D420CDD2C4480EA020281EA030382EAD4
:1001D800000083EA010180EA020281EA0303362D66
:1001E80088BF30BD11F0004F4FEA01314FF4801C39
:1001F8004CEA113102D0404261EB410113F0004F4B
:100208004FEA03334CEA133302D0524263EB430301
:1002180094EA050F00F0A780A4F10104D5F1200E9F
:100228000DDB02FA0EFC22FA05F2801841F10001FA
:1002380003FA0EF2801843FA05F359410EE0A5F1CE
:1002480020050EF1200E012A03FA0EFC28BF4CF0FF
:10025800020C43FA05F3C01851EBE37101F00045B5
:1002680007D54FF0000EDCF1000C7EEB00006EEBC2
:100278000101B1F5801F1BD3B1F5001F0CD349084C
:100288005FEA30004FEA3C0C04F101044FEA4452A3
:1002980012F5800F80F09A80BCF1004F08BF5FEA2A
:1002A800500C50F1000041EB045141EA050130BD0A
:1002B8005FEA4C0C404141EB0101013C28BFB1F51C
:1002C800801FE9D291F0000F04BF01460020B1FA67
:1002D80081F308BF2033A3F10B03B3F120020CDA3A
:1002E8000C3208DD02F1140CC2F10C0201FA0CF018
:1002F80021FA02F10CE002F11402D8BFC2F1200C7D
:1003080001FA02F120FA0CFCDCBF41EA0C01904032
:10031800E41AA2BF01EB0451294330BD6FEA04047B
:100328001F3C1CDA0C340EDC04F11404C4F1200266
:1003380020FA04F001FA02F340EA030021FA04F378
:1003480045EA030130BDC4F10C04C4F1200220FACF
:1003580002F001FA04F340EA0300294630BD21FA0D
:1003680004F0294630BD94F0000F83F4801306BFD3
:1003780081F480110134013D4EE77FEA645C18BFC7
:100388007FEA655C29D094EA050F08BF90EA020F5E
:1003980005D054EA000C04BF1946104630BD91EA56
:1003A800030F1EBF0021002030BD5FEA545C05D159
:1003B8004000494128BF41F0004130BD14F5800498
:1003C8003CBF01F5801130BD01F0004545F0FE410C
:1003D80041F470014FF0000030BD7FEA645C1ABF41
:1003E800194610467FEA655C1CBF0B46024650EA78
:1003F800013406BF52EA033591EA030F41F40021A4
:1004080030BD00BF90F0000F04BF0021704730B529
:100418004FF4806404F132044FF000054FF00001FE
:1004280050E700BF90F0000F04BF0021704730B5BF
:100438004FF4806404F1320410F0004548BF404294
:100448004FF000013EE700BF42004FEAE2014FEAE9
:1004580031014FEA02701FBF12F07F4393F07F4FC4
:1004680081F06051704732F07F4208BF704793F0C7
:100478007F4F04BF41F40021704730B54FF46074DA
:1004880001F0004521F000411CE700BF50EA0102DD
:1004980008BF704730B54FF000050AE050EA010286
:1004A80008BF704730B511F0004502D5404261EBF6
:1004B80041014FF4806404F132045FEA915C3FF437
:1004C800D8AE4FF003025FEADC0C18BF03325FEAD4
:1004D800DC0C18BF033202EBDC02C2F1200300FA85
:1004E80003FC20FA02F001FA03FE40EA0E0021FAAA
:1004F80002F11444BDE600BF70B54FF0FF0C4CF498
:10050800E06C1CEA11541DBF1CEA135594EA0C0F49
:1005180095EA0C0F00F0DEF82C4481EA030621EA84
:100528004C5123EA4C5350EA013518BF52EA0335BF
:1005380041F4801143F4801338D0A0FB02CE4FF071
:100548000005E1FB02E506F00042E0FB03E54FF0A1
:100558000006E1FB03569CF0000F18BF4EF0010E99
:10056800A4F1FF04B6F5007F64F5407404D25FEA95
:100578004E0E6D4146EB060642EAC62141EA555148
:100588004FEAC52040EA5E504FEACE2EB4F1FD0C8A
:1005980088BFBCF5E06F1ED8BEF1004F08BF5FEA08
:1005A800500E50F1000041EB045170BD06F00046BA
:1005B80046EA010140EA020081EA0301B4EB5C0467
:1005C800C2BFD4EB0C0541EA045170BD41F480115F
:1005D8004FF0000E013C00F3AB8014F1360FDEBF84
:1005E800002001F0004170BDC4F10004203C35DA60
:1005F8000C341BDC04F11404C4F1200500FA05F3E3
:1006080020FA04F001FA05F240EA020001F0004283
:1006180021F0004110EBD37021FA04F642EB0601F9
:100628005EEA430E08BF20EAD37070BDC4F10C0423
:10063800C4F1200500FA04F320FA05F001FA04F2E7
:1006480040EA020001F0004110EBD37041F10001D3
:100658005EEA430E08BF20EAD37070BDC4F12005DE
:1006680000FA05F24EEA020E20FA04F301FA05F246
:1006780043EA020321FA04F001F0004121FA04F2EE
:1006880020EA020000EBD3705EEA430E08BF20EABE
:10069800D37070BD94F0000F0FD101F000464000F8
:1006A80041EB010111F4801F08BF013CF7D041EA7A
:1006B800060195F0000F18BF704703F0004652007E
:1006C80043EB030313F4801F08BF013DF7D043EA4F
:1006D8000603704794EA0C0F0CEA135518BF95EA05
:1006E8000C0F0CD050EA410618BF52EA4306D1D18C
:1006F80081EA030101F000414FF0000070BD50EAAB
:10070800410606BF1046194652EA430619D094EA34
:100718000C0F02D150EA013613D195EA0C0F05D11E
:1007280052EA03361CBF104619460AD181EA030172
:1007380001F0004141F0FE4141F470014FF000002A
:1007480070BD41F0FE4141F4780170BD70B54FF0C5
:10075800FF0C4CF4E06C1CEA11541DBF1CEA135545
:1007680094EA0C0F95EA0C0F00F0A7F8A4EB050427
:1007780081EA030E52EA03354FEA013100F088801E
:100788004FEA03334FF0805545EA131343EA1263E7
:100798004FEA022245EA111545EA10654FEA00269C
:1007A8000EF000419D4208BF964244F1FD0404F555
:1007B800407402D25B084FEA3202B61A65EB0305B1
:1007C8005B084FEA32024FF480104FF4002CB6EB6E
:1007D800020E75EB030E22BFB61A754640EA0C00EE
:1007E8005B084FEA3202B6EB020E75EB030E22BF2E
:1007F800B61A754640EA5C005B084FEA3202B6EB6F
:10080800020E75EB030E22BFB61A754640EA9C002D
:100818005B084FEA3202B6EB020E75EB030E22BFFD
:10082800B61A754640EADC0055EA060E18D04FEABB
:10083800051545EA16754FEA06164FEAC30343EA5B
:1008480052734FEAC2025FEA1C1CC0D111F4801F28
:100858000BD141EA00014FF000004FF0004CB6E721
:1008680011F4801F04BF01430020B4F1FD0C88BFC0
:10087800BCF5E06F3FF6AFAEB5EB030C04BFB6EBCB
:10088800020C5FEA500C50F1000041EB045170BDBE
:100898000EF0004E4EEA113114EB5C04C2BFD4EBEB
:1008A8000C0541EA045170BD41F480114FF0000E6F
:1008B800013C90E645EA060E8DE60CEA135594EAEB
:1008C8000C0F08BF95EA0C0F3FF43BAF94EA0C0FEE
:1008D8000AD150EA01347FF434AF95EA0C0F7FF463
:1008E80025AF104619462CE795EA0C0F06D152EAB7
:1008F80003353FF4FDAE1046194622E750EA41069B
:1009080018BF52EA43067FF4C5AE50EA41047FF4AB
:100918000DAF52EA43057FF4EBAE12E74FF0FF3C10
:1009280006E000BF4FF0010C02E000BF4FF0010CE1
:100938004DF804CD4FEA410C7FEA6C5C4FEA430C5A
:1009480018BF7FEA6C5C1BD001B050EA410C0CBFA9
:1009580052EA430C91EA030F02BF90EA020F00200B
:10096800704710F1000F91EA030F58BF994208BF72
:1009780090422CBFD8176FEAE37040F0010070472F
:100988004FEA410C7FEA6C5C02D150EA013C07D186
:100998004FEA430C7FEA6C5CD6D152EA033CD3D0D1
:1009A8005DF8040B704700BF8446104662468C46CB
:1009B8001946634600E000BF01B5FFF7B7FF0028FE
:1009C80048BF10F1000F01BD4DF808EDFFF7F4FF27
:1009D8000CBF012000205DF808FB00BF4DF808EDB2
:1009E800FFF7EAFF34BF012000205DF808FB00BFD5
:1009F8004DF808EDFFF7E0FF94BF012000205DF8F7
:100A080008FB00BF4DF808EDFFF7CEFF94BF0120AB
:100A180000205DF808FB00BF4DF808EDFFF7C4FFA4
:100A280034BF012000205DF808FB00BF4FEA410CED
:100A38007FEA6C5C02D150EA013C0AD14FEA430CD0
:100A48007FEA6C5C02D152EA033C02D14FF000000D
:100A580070474FF0010070474FEA410212F500124B
:100A680015D211D56FF47873B3EB625212D94FEAED
:100A7800C12343F0004343EA505311F0004F23FAD7
:100A880002F018BF404270474FF00000704750EA2C
:100A9800013005D111F0004008BF6FF000407047E9
:100AA8004FF00000704700BF4A0011D212F5001243
:100AB80011D20DD56FF47873B3EB62520ED44FEAAE
:100AC800C12343F0004343EA505323FA02F070472E
:100AD8004FF00000704750EA013002D14FF0FF306C
:100AE80070474FF0000070474FEA4102B2F1E0430F
:100AF80024BFB3F5001CDCF1FE5C0DD901F0004CFD
:100B08004FEAC0024CEA5070B2F1004F40EB83004C
:100B180008BF20F00100704711F0804F21D113F178
:100B28003872BCBF01F00040704741F480114FEAB1
:100B38005252C2F11802C2F1200C10FA0CF320FA3A
:100B480002F018BF40F001004FEAC1234FEAD32357
:100B580003FA0CFC40EA0C0023FA02F34FEA4303C1
:100B6800CCE77FEA625307D150EA01331EBF4FF04A
:100B7800FE4040F44000704701F0004040F0FE4065
:100B880040F40000704700BF0348044B834202D082
:100B9800034B03B118477047B8020020B802002081
:100BA800000000000548064B1B1AD90F01EBA301F2
:100BB800491002D0034B03B118477047B802002010
:100BC800B80200200000000010B5064C237843B995
:100BD800FFF7DAFF044B13B10448AFF30080012399
:100BE800237010BDB80200200000000098C1000862
:100BF80008B5054B1BB105490548AFF30080BDE8B2
:100C08000840FFF7CFBF00BF00000000BC02002073
:100C180098C10008CB0703D50368DA6852064DD59A
:100C28008B0703D50368DA68920742D54B0703D5CB
:100C38000368DA68520737D50B0703D50368DA6803
:100C480012072CD5CB0603D50368DA68D20621D55E
:100C58008B0603D50368DA68D20716D54B0603D589
:100C68000368DA6812060BD5090603D50368DA6843
:100C7800920600D57047DA6842F02002DA607047C1
:100C8800DA6842F08002DA60EEE7DA6842F00102E0
:100C9800DA60E3E7DA6842F01002DA60D8E7DA6887
:100CA80042F00802DA60CDE7DA6842F00402DA605E
:100CB800C2E7DA6842F00202DA60B7E7DA6842F0BF
:100CC8004002DA60ACE700BFCB0703D50368DA68F7
:100CD80052064CD48B0703D50368DA68920741D4CF
:100CE8004B0703D50368DA68520736D40B0703D5D8
:100CF8000368DA6812072BD4CB0603D50368DA68D1
:100D0800D20620D48B0603D50368DA68D20715D536
:100D18004B0603D50368DA6812060AD4090607D514
:100D28000368DA68920603D5DA6822F02002DA60EE
:100D38007047DA6822F08002DA60EFE7DA6822F0BA
:100D48000102DA60E4E7DA6822F01002DA60D9E733
:100D5800DA6822F00802DA60CEE7DA6822F00402E4
:100D6800DA60C3E7DA6822F00202DA60B8E7DA6824
:100D780022F04002DA60ADE7022921D00368134A65
:100D880093420FD002F5006293420BD002F5406205
:100D9800934207D002F58062934203D002F5806245
:100DA800934203D1032906D0042900D070471A6A58
:100DB80042F001021A621A6A42F004021A6270478B
:100DC8000268136A43F0010313627047002C014064
:100DD800022921D00368134A93420FD002F500621A
:100DE80093420BD002F54062934207D002F580622D
:100DF800934203D002F58062934203D1032906D0BF
:100E0800042900D070471A6A22F001021A621A6A8D
:100E180022F004021A6270470268136A23F0010381
:100E280013627047002C0140022921D00368134A3D
:100E380093420FD002F5006293420BD002F5406254
:100E4800934207D002F58062934203D002F5806294
:100E5800934203D1032906D0042900D070471A6AA7
:100E680042F010021A621A6A42F040021A6270478F
:100E78000268136A43F0100313627047002C0140A4
:100E8800022921D00368134A93420FD002F5006269
:100E980093420BD002F54062934207D002F580627C
:100EA800934203D002F58062934203D1032906D00E
:100EB800042900D070471A6A22F010021A621A6ACE
:100EC80022F040021A6270470268136A23F0100386
:100ED80013627047002C0140022921D00368134A8D
:100EE80093420FD002F5006293420BD002F54062A4
:100EF800934207D002F58062934203D002F58062E4
:100F0800934203D1032906D0042900D070471A6AF6
:100F180042F480721A621A6A42F480621A62704756
:100F28000268136A43F4807313627047002C01400F
:100F3800022921D00368134A93420FD002F50062B8
:100F480093420BD002F54062934207D002F58062CB
:100F5800934203D002F58062934203D1032906D05D
:100F6800042900D070471A6A22F480721A621A6A39
:100F780022F480621A6270470268136A23F480734D
:100F880013627047002C0140022904D10268136AD9
:100F980043F4805313627047022904D10268136A2C
:100FA80023F4805313627047084B02689A420AD1AF
:100FB8001368074906480A6013F0600314BF012349
:100FC80012680B71704700231A60FFDE00040040AE
:100FD800D40200200369DA6812F4406F24D1427AFF
:100FE800022A08D0427A042A05D0427A082A02D076
:100FF8001A68110718D51A68D20602D510221A6085
:101008004272427A102A0FD0427A082A0CBF012273
:10101800202242729A6822F0004222F03F0242F0F7
:10102800040200209A60704701207047154916484D
:101038008A794B69825C9858800703EB020C1DD5AE
:10104800186880061BD504204872202058609858DC
:10105800800615D4985820F0010010B40C689850F8
:10106800DCF80410090C09042143CCF80410995841
:101078005DF8044B41F00101995070477047704783
:10108800704700BF60030020B0C100080129026951
:101098000DD0D36C13F0C00F00D17047936823F0C4
:1010A800004323F03F0343F0080393607047D3687D
:1010B80013F4406FF1D0936823F0004323F03F030B
:1010C80043F0040393607047F0B4324C0569A542BD
:1010D8002FD1314C4FF0000C012B256184F807C04B
:1010E80024D04AB3637A082B20D0C76842690668BF
:1010F800E760626190F806C084F806C0037923713E
:101108002B6B0498266023F00F03034301292B63FC
:1011180007D0042920D0022903D16B6843F00803C3
:101128006B60082363721C48F0BC70472046F0BC13
:1011380070470020F0BC7047A37A082BF6D043799B
:101148006371022903D008231348A372EFE76B6881
:1011580043F040036B60F6E7104BE96813F80C3076
:1011680041F00301D018E9600D4981608160C760D2
:101178004168090C090431434160D15841F002012A
:10118800D150D15841F00801D150D15841F0010156
:10119800D150C6E70001045060030020B0C1000828
:1011A8004001045002699368DB0707D4936823F071
:1011B800004323F03F0343F001039360704700BFEF
:1011C800036953B1012928D0042910B5944604466F
:1011D80005D0022923D0012010BD01207047DA680C
:1011E80012F4406FF7D1012242729A6822F000424D
:1011F80022F03F0242F004029A60637A042BFCD189
:10120800E379012B21D02268E168520060460AF098
:10121800B1FF08236372002010BDFFF7DBBE437ADD
:10122800202B05D0437A042B02D0437A102BD2D13D
:10123800E3790822012B627210D02268E16852001B
:1012480060460AF097FF002010BD2368E1685A0045
:1012580001EB430160460AF08DFFDAE72368E16895
:101268005A0001EB430160460AF084FF002010BDDC
:10127800036910B49C68E40707D59C6824F0004C07
:101288002CF03F0C4CF002049C605C68240603D5EB
:101298005C6824F080045C605C68E40603D55C68E4
:1012A80024F010045C6092B1012903D0022936D0E1
:1012B800042916D0002282710271196BC26021F0D4
:1012C8000F010260426119635DF8044B70470229FF
:1012D8004271F9D15A685DF8044B22F040025A6015
:1012E80070478179104C4269615C545824F00104BC
:1012F8005450545824F004045450545824F008040A
:101308005450545824F0020454500A445168090CAB
:1013180009045160DA6822F00302DA60CAE75A6801
:1013280022F008025A60C5E7B0C1000810B403698A
:101338009A6812F0010283B007D09C6824F0004C30
:101348002CF03F0C4CF002049C6031BB996821F0F2
:10135800404121F03F0141F000419960996800291E
:10136800FCDB002304E000BFBDF8063001331BB2EC
:10137800ADF80630BDF806309BB2032BF3D942B165
:101388000269936823F0004323F03F0343F001030D
:10139800936003B05DF8044B70470129996821F008
:1013A800404121F03F0126D041F000419960996801
:1013B8000029FCDB0021ADF80610BDF8061089B243
:1013C80003290CD800BFBDF8063001331BB2ADF8B5
:1013D8000630BDF806309BB2032BF3D90369996830
:1013E80021F0404121F03F0141F040419960996866
:1013F8000029B6DAFBE741F0404199609968002975
:10140800AFDAFBE770B51D4C002604F5A87E03E0B3
:1014180094451CD0A6452FD034F902CF8445F7D186
:10142800B4F950518D42F3D1B4F9A0529542EFD19D
:10143800B4F9F0539D42EBD14FF0000C944526804F
:10144800A4F85061A4F8A062A4F8F063E2D1B4F95A
:1014580050C19C45DED1B4F9A0528542DAD1B4F925
:10146800F0538D42D6D1A6452680A4F85061A4F841
:10147800A062A4F8F063CFD170BD00BF1E1D00208C
:101488002DE9F04F844C854B854D85B004F5F4600B
:101498000191002250E90201FFF796FA002840F076
:1014A800BF8004F5EE61D1E9000100220023FFF7B7
:1014B8008BFA002800F0B4807A49784B51E9020190
:1014C8000022FFF781FA002840F06A837649734BBF
:1014D800D1E900010022FFF777FA002840F02B83BA
:1014E800724B6FF0802203F1600143F8042B8B42AA
:1014F800FBD1C42200216E4847F6FF79C826A4F81C
:1015080064970AF005FE0223C5F8F4374FF44872D1
:101518000021C5F8F06767480AF0FAFD4FF44872F1
:101528005D4800210AF0F4FD019B029500221A8013
:10153800B5F90278B5F90088A4F820837B1EC3EBBF
:10154800C303434403F27F3304EB4303A4F8B074AA
:101558009A80C3463B4601261A46013BC3EBC303A8
:101568005B4403F27F335448CDF80C8004EB430509
:10157800924630F9023F5B451ED033464F4A8242BD
:10158800F7D1012BDDF80C800BD04D49013B5A00F7
:10159800881E03920AF0A2FD4A49039A881E0AF09F
:1015A8009DFD013EB1B236B2002900F08F80B4F93A
:1015B80020B3B4F9B034CFE7B0F950315345DCD19A
:1015C800B5F904200132B2F5004FD6D0B0F9F0C316
:1015D800B0F9A0E20CF1FF33C3EBC303734403F289
:1015E8007F3104EB4101B1F904804245C5DA8A80B4
:1015F80003F21F3203F554734E4524F812B024F851
:1016080013A042D0731C324606F1C8011EB202F57F
:10161800C87201F5C87124F812E024F811C0ADE7CA
:10162800B5F90008B5F9FA67DFF89CE0B5F90218D2
:10163800B5F9F877B5F9FC37B5F9FE2706440F4434
:101648007645B8BF7646774547F6FF7CB8BF7746FC
:101658006745D4BFC3EB0703C3EB0C036645D4BF90
:10166800C2EB0602C2EB0C027345B8BF7346724563
:10167800B8BF72466345A8BF63466245A8BF6246C5
:101688001BB212B2FFF7BEFE16E7334648F2C60198
:1016980047F6FE72BBE700BFD80300200000F03F0A
:1016A800201D0020680B0020580B0020DC0A0020B9
:1016B800180A0020F80600201E1D00206E1E0020BB
:1016C800FA0600208A0800200080FFFF029DD64805
:1016D800C823C5F8F0370223C5F8F4374FF4487229
:1016E8000AF016FDB5F90498B5F80638A4F8209361
:1016F800B9F1000FA4F8B03445DDCC4EDDF8048014
:1017080047F6FF77B8F90030C949BB424FEA4303AF
:101718000CBF4FF6FC7303F5C87C24F8039008BF90
:10172800B446B4F9B03424F80C30B8F90030BB42F0
:101738001CBF01331BB2A8F80030B4F9B034B4F9B7
:1017480020C3013BC3EBC303634403F21F3C03F50F
:10175800547334F91C9034F81330A4F8B2344FF4AD
:10176800C772881EA4F822930AF0B8FCB1494FF456
:10177800C772881E0AF0B2FCB9F1000FC2DCB5F9D5
:101788000088B5F90278019BB3F9006016F5004F9F
:10179800334606F1FF3200F07981B11E34F9111099
:1017A800414540F37081B5F9F817012900F02F82FF
:1017B80013F5004F4FF000004FF0000100F0428297
:1017C80002F1FF3C34F91CE0C6451FDDB5F9FCC742
:1017D800BCF1010F14D1B5F9F837B5F8FA27A5F817
:1017E800F827B5F8FE27A5F8FE37019BA5F8FC27D2
:1017F800A5F8FAC7B3F900308F491E465A1E0020D3
:1018080013F5004F00F04F8202F1FF3C34F91CE061
:10181800C6451BDAB5F9F8C7BCF1010F10D1D5F8E8
:10182800FA37C5F8F837B5F8FE37A5F8FC37019B45
:10183800A5F8FEC7B3F900307F491E465A1E00209E
:1018480013F5004F00F0268202F1FF3C34F91CC06A
:10185800C4451DDAB5F9FCC7BCF1010F14D1B5F9BF
:10186800FA37A5F8FC37B5F9F837A5F8FA37B5F817
:10187800FE37A5F8F837019BA5F8FEC7B3F9003085
:101888006E491E465A1E002013F5004F00F02481B1
:1018980002F1C70C34F91CE0BE451FDDB5F9FAC7E3
:1018A800BCF1010F14D1B5F9F837B5F8FC27A5F844
:1018B800FA27B5F8FE27A5F8FE37019BA5F8FC27FF
:1018C800A5F8F8C7B3F900305B491E465A1E002038
:1018D80013F5004F00F00A8102F1C70C34F91CC05F
:1018E800BC451DDDB5F9FEC7BCF1010F14D1B5F932
:1018F800F837B5F9FC27A5F8FE27B5F8FA27A5F8B3
:10190800FA37019BA5F8FC27A5F8F8C7B3F900300A
:101918004A491E465A1E002013F5004F00F0F08079
:1019280006F1C60C34F91CC0BC451DDAB5F9FAC776
:10193800BCF1010F14D1B5F9FC37B5F9F827A5F8B2
:10194800FA27B5F8FE27A5F8FE37019BA5F8F82772
:10195800A5F8FCC7B3F9003038491E465A1E0020C6
:1019680013F5004F00F0D68002F1C70C34F91CC003
:10197800BC4519DAB5F9FEC7BCF1010F10D1B5F9AC
:10198800F837A5F8FE37D5F8FA37C5F8F837019BC8
:10199800A5F8FCC7B3F9003027491E465A1E002097
:1019A80013F5004F00F0828106F1C60C34F91CC013
:1019B800BC4519DAB5F9F8C7BCF1010F11D1D5F852
:1019C800FC37B5F8FA27C5F8F837019BA5F8FE27C4
:1019D800A5F8FCC7B3F9003000201E465A1E4FF088
:1019E800804113F5004F63D002F1C70C34F91CC0D5
:1019F800BC4525DDB5F9FC77012F11D1B5F9FE37C6
:101A0800D5F8F827A5F8FA37019BC5F8FC27A5F8FB
:101A1800F877B3F9003000201E465A1E4FF0804177
:101A280013F5004F4AD00BE0F80600208C010100A6
:101A3800FA0600208A0800200000F0BF0000F03FEE
:101A4800023E34F91630434507DAB5F9FA37012B67
:101A580000F00581013A34F91230984510DAB5F9E9
:101A6800FE37012B0CD1D5F8F827B5F9FC17A5F8E6
:101A7800F81700204FF08041C5F8FC27A5F8FA3781
:101A880005B0BDE8F08F0020002199E6DFF830C2EC
:101A98003CF9021C41453FF786AE3CF9023C434500
:101AA8004FF000004FF0000140F3D380814B8DE6EA
:101AB800814BB3F90030BB4200F3A780DFF800C2C6
:101AC8003CF9023C4345C8DAB5F9FA37012B00F076
:101AD800C6803CF9023CC0E7DFF8E8C1ACF67263A7
:101AE800B3F90030BB4203DD724BD7E6DFF8D4C14F
:101AF800ACF67263B3F90030BB4203DD6D4BF1E61F
:101B0800DFF8C0C1ACF67263B3F90030BB420ADA41
:101B1800684B0BE7DFF8ACC1ACF6726EBEF900E0BB
:101B2800BE45FFF627AFACF6726CBCF90030BB427D
:101B3800C1DA604B3EE7B5F90008B5F9FC67DFF894
:101B480074E1B5F90218B5F9FA77B5F9FE37B5F9C0
:101B5800F82706440F447645B8BF7646774547F6DA
:101B6800FF7CB8BF77466745D4BFC3EB0703C3EB19
:101B78000C036645D4BFC2EB0602C2EB0C027345E8
:101B8800B8BF73467245B8BF72466345A8BF63467F
:101B98006245A8BF62461BB212B2FFF733FC9FE44E
:101BA800B5F90008B5F9F867DFF808E1B5F90218E2
:101BB800B5F9FE77B5F9FA37B5F9FC2706440F44AD
:101BC8007645B8BF7646774547F6FF7CB8BF774677
:101BD8006745D4BFC3EB0703C3EB0C036645D4BF0B
:101BE800C2EB0602C2EB0C027345B8BF73467245DE
:101BF800B8BF72466345A8BF63466245A8BF624640
:101C08001BB212B2FFF7FEFB60E42A4BF2E6B5F90D
:101C1800FA27B5F9FC37A5F8FC27B5F8FE27A5F88B
:101C2800FE37019BA5F8FA17A5F8F827B3F9003095
:101C3800224913F5004F1E4603F1FF324FF0000012
:101C48007FF4BEADDFF878C03CF9023C43453FF76E
:101C58002DAF3CF9023C43451EDA164BDAE5D5F8C0
:101C6800FC37B5F8F827C5F8F8370123A5F8FE378B
:101C7800019BA5F8FC27B3F9003013F5004F03F1D9
:101C8800FF324FF000004FF080417FF4E3AEDFF801
:101C980030C01EE7DFF828C03CF9023C4345BFF6D8
:101CA8001BAF044BD6E5DFF818C0D2E7DFF814C045
:101CB80039E700BF0080FFFF6605FF1F0000F03F07
:101CC800D803FF1FD813FF1F2DE9F84F904CDFF8FA
:101CD800609254E902674FF0000842464B4630468E
:101CE8003946FEF771FE002800F08380D4E904012C
:101CF80000220023FEF768FE002800F0EB80854DE7
:101D0800854FDFF834B2002447E902454FF0000A56
:101D1800824E2046D6E900232946FEF737FA78A3F3
:101D2800D3E9002380468946FEF7E6FB02460B46C8
:101D380040464946FEF728FA56E90223C6E900015B
:101D480020462946FEF720FA6FA3D3E900238046F0
:101D58008946D7E90001FEF7CFFB02460B4640460D
:101D68004946FEF713FA02460B46C7E900236C4BB7
:101D78006C4F0022FEF7C0FB52465B46FEF706FAA0
:101D880046E9024502460B4604460D4600206649D0
:101D9800DFF8A8A1FEF7F8F9002632463B46804650
:101DA8008946FEF72FFE002869D04AE9028949468C
:101DB800DFF8749140464FF0000842464B46FEF764
:101DC8002BFE00285DD02046294642464B464AE96C
:101DD8000289FEF7DBF932463B4604460D46FEF71C
:101DE80011FE00285CD134463D46CAE90045BDE8ED
:101DF800F88F3046394600220023FEF7E5FDC0B1D2
:101E0800D4E9044542464B4620462946FEF7DCFD08
:101E180038B1414FDFF81CB147E902894FF0000A99
:101E280076E72046294600220023FEF7CDFD00284C
:101E380044D13E4C002254E902010023FEF7C4FDC0
:101E480088B154E904013A4B0022FEF7BDFD50B1B8
:101E5800314FDFF8ECB000244FF0404547E9024528
:101E68004FF0000A54E72C4F324B57E90245002245
:101E780020462946FEF740FB82468B4648E74AE95A
:101E88000267294B274F002220462946FEF77EF994
:101E9800002632463B4604460D46FEF7B3FD48B1E0
:101EA800214F00262046294632463B46FEF7B4FD20
:101EB80000289AD0CAE90067BDE8F88F4FF0000AF9
:101EC8004FF0000B144F4BEC17AB544607ED027B59
:101ED8005D461DE754E9060100220023FEF774FD64
:101EE8000028A6D00C4FDFF85CB000244FF08045E6
:101EF80047E902454FF0000A0AE700BFAFF3008048
:101F08007B14AE47E17A743FCDCCCCCCCCCCEC3F43
:101F1800580B00200000F0BF70240020602400202F
:101F280000405F40000059C000005940780B002075
:101F38000000F03F00002E4000002EC0F80B0020EB
:101F480000003EC000003E40034B5B79B3FA83F3C8
:101F58005B094370704700BFD02E002000000000CE
:101F68002DE9F04F2DED0A8BB849B94C4A79B94D96
:101F7800531CDBB2142BB2FA82F228BF0023520999
:101F8800A5B08A714B712246D5F84C060421FFF79B
:101F980017F9B5F81038B04AE1892688A789B4F846
:101FA80004C06089A2F8F6679BB21C931346A2F896
:101FB800EA77A3F8F2C7A2F8E817CDF848C0628814
:101FC800B4F808C0E488A3F8EC0711902046A3F8F9
:101FD800EEC7A3F8F427A3F8F00713900846644661
:101FE800CDF86CC019961A9710921891FEF70AFA54
:101FF8000A46014642EC171B984B384603ED027B14
:10200800CDE92012FEF7FEF90A460146934B1198D6
:10201800934F42EC171B83ED007BCDE91612FEF7B8
:10202800F1F90A46014642EC171B204607ED027BF0
:10203800CDE90612FEF7E6F903460C4644EC173BD9
:10204800139887ED007BCDE90834FEF7DBF90A46E3
:10205800014642EC171B129887ED027BCDE90A1264
:10206800FEF7D0F90A46014642EC171B109887ED97
:10207800047BCDE90C12FEF7C5F9CDE91401C7E9D7
:1020880006013046FEF7BEF9764B05F57366D3E9CF
:102098002E45CDE91E01C7E90801224656E902018D
:1020A8002B46FEF791FC08B946E902456E4C6F498C
:1020B8005022A4F158000AF05DF89DED167B6B499B
:1020C80004ED027B482220460AF054F8A4F10801E6
:1020D800502266480AF04EF8503C14ED027BD4E9D1
:1020E800004551EC170B22462B468DED047BFEF77D
:1020F80075FC002801F0768101265D4F57E90289B9
:1021080022462B4640464946FEF786FC10B1444617
:102118004D460126D7E9008922462B4640464946C6
:10212800FEF77AFC10B144464D460126514F57E957
:10213800028922462B4640464946FEF76DFC10B1FF
:1021480044464D460126D7E9008922462B4640469B
:102158004946FEF761FC10B144464D460126464FFC
:1021680057E9028922462B4640464946FEF754FC69
:1021780010B144464D460126D7E9008922462B4630
:1021880040464946FEF748FC10B144464D460126F4
:102198003A4F57E9028922462B4640464946FEF700
:1021A8003BFCD7E900AB002801F00C8140464946CA
:1021B80052465B46FEF712FC002801F05081294B7D
:1021C8002F4ED3E9344556E9020122462B46FEF745
:1021D800FBFB08B946E902452A4E2949C822A6F15F
:1021E800C80009F0C7FF3046E0E802AB2449C02226
:1021F80009F0C0FF2248C822314609F0BBFF56E962
:1022080032ABA6F1C0034FF000085C461F465346A8
:10221800CDE904ABA146C3469846F7E802454246D5
:102228004B4620462946FEF7D9FB18B1A046A946D9
:102238004FF0010BBE42F0D149EC188BD846DDE9CE
:1022480004ABB8F1000F01F0DE821DE0D02E0020B3
:102258007C030020201D0020D8030020480B00200C
:10226800580B00200000002018190020502C0020D6
:10227800D8180020E8180020F818002008190020B5
:10228800002E0020581C0020B14BB24ED3E928453F
:1022980056E9020122462B46FEF796FB08B946E9A5
:1022A8000245AC49AC48C82209F064FF9DED067BA5
:1022B800AA48A849A0EC027BC02209F05BFFA54808
:1022C800A649C82209F056FFA44B13ED327B8DEDC9
:1022D800067BC03B59EC178B1E461D930027F6E87A
:1022E800024542464B4620462946FEF795FB10B16B
:1022F800A046A9460127994BB342F0D149EC198B66
:10230800002F01F04882924B954ED3E9244556E9B7
:10231800020122462B46FEF757FB08B946E902455B
:10232800904E8F49C822304609F024FF9DED087B66
:102338008B4986ED327BC02206F1D00009F01AFFE6
:10234800C822B118864809F015FFB6EC027B8DED5E
:10235800087B5BEC17AB4FF000083746F7E80245FF
:1023680052465B4620462946FEF756FB18B1A24660
:10237800AB464FF001087C4BBB42EFD14BEC1AAB9C
:10238800B8F1000F01F0FF81714B784FD3E9224576
:1023980057E9020122462B46FEF716FB08B947E922
:1023A8000245734D7149C822284609F0E3FE9DEDA8
:1023B8000A7B6E4985ED327BC02205F1D00009F019
:1023C800D9FEC822A918694809F0D4FEB5EC027BE9
:1023D8008DED0A7B5BEC17AB00272C46F4E80289ED
:1023E80052465B4640464946FEF716FB10B1C246C8
:1023F800CB4601275F4BA342F0D14BEC1BAB002F20
:1024080001F0E181524B5C4CD3E9208954E9020187
:1024180042464B46FEF7D8FA08B944E90289574CB8
:1024280055492046C82209F0A5FE9DED0C7B04F114
:10243800D00084ED327B5049C02209F09BFEC822AF
:10244800A1184D4809F096FEB4EC027B8DED0C7B8B
:1024580027460496A3462E4655EC174B4FF0000A24
:10246800F7E8028922462B4640464946FEF7D4FA49
:1024780018B144464D464FF0010A414BBB42EFD1DB
:1024880045EC1C4B35465C46049EBAF1000F01F042
:102498006E812F4B3B4FD3E93089D7E90001424683
:1024A8004B46FEF791FA08B9C7E90089364F374914
:1024B8005022A7F1580009F05DFE9DED147B3349C9
:1024C80007ED027B4822384609F054FE5022A7F156
:1024D80008012E4809F04EFE17ED167B57E914AB9C
:1024E80051EC170B52465B468DED047BFEF776FAEE
:1024F800002800F0618701230F93254F57E90289CF
:1025080052465B4640464946FEF786FA18B1012313
:10251800C246CB460F93D7E9008952465B464046F0
:102528004946FEF779FA18B10123C246CB460F9304
:10253800184F57E9028952465B4640464946FEF71E
:102548006BFA48B30123C246CB460F9324E000BF81
:1025580000000020B029002010140020D81400200A
:10256800F0270020F0100020B811002010270020CC
:10257800600F00202810002030260020D00D0020F9
:10258800980E0020B02C0020B8190020B82C00208C
:102598007819002088190020D7E9008952465B463F
:1025A80040464946FEF738FA18B10123C246CB46E1
:1025B8000F93C74F57E9028952465B464046494642
:1025C800FEF72AFA18B10123C246CB460F93D7E982
:1025D800008952465B4640464946FEF71DFA18B147
:1025E8000123C246CB460F93BA4F57E90289524698
:1025F8005B4640464946FEF70FFA002800F0CE86B3
:1026080097ED007B424651EC170B4B468DED047B52
:10261800FEF702FA002800F0CB86AF4BAF4FD3E9A4
:10262800328957E9020142464B46FEF7CDF908B90F
:1026380047E90289A949AA48C82209F09BFD9DEDEE
:10264800047BA848A549A0EC027BC02209F092FDB2
:10265800A248A449C82209F08DFDA24B0F9413ED9E
:10266800327BC03B8DED047B1F465BEC17AB002330
:102678001C46F7E8028952465B4640464946FEF743
:10268800ADF910B1C246CB460124964B9F42F0D11A
:1026980023460F9C002B01F07280B0EE480AF0EE42
:1026A800680A914B1C9AB3F812389FB28F4B1A8064
:1026B80009F04AFB9FED841B09F010FB59EC108BC5
:1026C80010EE100A002200234946FEF787F9002879
:1026D80040F0CD8740464946FEF7E6F980B2834B85
:1026E800B0EE490AF0EE690A588009F02DFB9FED1B
:1026F800761B09F0F3FA59EC108B10EE100A002241
:1027080000234946FEF76AF9002841F01380404645
:102718004946FEF7C9F980B2744BB0EE4A0AF0EEAA
:102728006A0A988009F010FB9FED671B09F0D6FA3A
:1027380059EC108B10EE100A002200234946FEF7D0
:102748004DF9002840F0ED8740464946FEF7ACF9C0
:1027580080B2664BB0EE4B0AF0EE6B0AD88009F0F7
:10276800F3FA9FED591B09F0B9FA59EC108B10EEEA
:10277800100A002200234946FEF730F9002840F0ED
:10278800C78740464946FEF78FF980B2574BB0EEEF
:102798004C0AF0EE6C0A188109F0D6FA9FED4A1B34
:1027A80009F09CFA59EC108B10EE100A0022002355
:1027B8004946FEF713F9002840F0A18740464946EC
:1027C800FEF772F980B2494B4BEC10AB588109F017
:1027D800BBFA9FED3D1B09F081FA59EC108B10EE06
:1027E800100A002200234946FEF7F8F8002840F0B6
:1027F8007D8740464946FEF757F980B23B4A36493D
:10280800D7813B4F9081A7F56563D1E92C89B3F84F
:1028180014389BB20F93B1F86630138257E902015E
:1028280042464B46FEF7D0F808B947E90289DFF877
:10283800C8A02F49C822AAF1C80009F09BFC9DED49
:10284800167B5046A0EC027B2949C02209F092FC75
:102858002748C822514609F08DFC1AED327BAAF1AF
:10286800C0031F46AAF53D638DED047B03ED027B93
:1028780016961C95264655EC174B4FF0000BF7E8BB
:10288800028922462B4640464946FEF7A7F818B16A
:1028980044464D464FF0010B5745F0D145EC174BD8
:1028A80045EC184B34461C9D169EBBF1000F00F0FA
:1028B8009687104B03ED027B9DED067B0D4BDDF8F3
:1028C800748004941AE000BF000000000000F0408B
:1028D80098190020A819002000000020202D0020B1
:1028E800001A0020C81A0020201D00209003002094
:1028F800702B0020280C0020F817002083ED007BA7
:102908005BEC17AB0027A946F8E8024552465B4640
:1029180020462946FEF762F810B1A246AB460127C9
:10292800CB4B9845F0D1049C4D46002F00F06787AB
:10293800A3F50B63C3E900AB9DED087BC54B04947D
:10294800002703ED027B4BEC19AB3C46AB46354602
:1029580057EC176BF5E8028932463B464046494634
:10296800FEF73CF810B146464F460124BA4B9D424B
:10297800F0D147EC176B5D465BEC19AB47EC196B74
:102988002746049C002F00F03287A3F5B06303EDBF
:10299800027B9DED0A7BDFF8EC82049408ED027B54
:1029A8004FF0000957EC176B4BEC1AABCB46A94616
:1029B800F9E8024532463B4620462946FEF70EF81E
:1029C80018B126462F464FF0010BA44B9945EFD17D
:1029D800D946049C5BEC1AAB47EC1A6BB9F1000FB3
:1029E80000F0E98648E902679DED0C7B002588ED3B
:1029F800007B4BEC1CABA146AB4655EC174BF9E8FA
:102A0800026722462B4630463946FDF7E7FF18B1E4
:102A180034463D464FF0010B914B9945EFD145ECBB
:102A2800174B45EC1B4B5D465BEC1CAB002D00F0D7
:102A3800BA8688ED007B8B4B8B4ED3E92A4556E945
:102A4800020122462B46FDF7BFFF08B946E90245B9
:102A5800864D8549C822A5F1C80009F08BFB9DED7C
:102A6800147B2846A0EC027B7F49C02209F082FB38
:102A78007D48C822294609F07DFB15ED327BA5F17A
:102A8800C0031C468DED047BA5F5256303ED027B91
:102A980059EC178B00234BEC1CAB9B46F4E8026700
:102AA8004046494632463B46FDF7B6FF18B1B046A8
:102AB800B9464FF0010BAC42F0D15B465BEC1CAB66
:102AC800002B00F088866A4B43E90289B0EE480A79
:102AD800F0EE680A674B684EB3F816389FB20F9B42
:102AE800338009F031F99FED581B09F0F7F855ECE0
:102AF800104B10EE100A002200232946FDF76EFF46
:102B0800002840F0EA8520462946FDF7CDFF80B22F
:102B180070804BEC10AB09F017F99FED4B1B09F0D7
:102B2800DDF855EC104B10EE100A00220023294660
:102B3800FDF754FF002840F0C78520462946FDF7D9
:102B4800B3FF80B2B080B0EE490AF0EE690A09F02E
:102B5800FBF89FED3D1B09F0C1F855EC104B10EE4A
:102B6800100A002200232946FDF738FF002840F00C
:102B7800A28520462946FDF797FF80B2F080B0EE87
:102B88004A0AF0EE6A0A09F0DFF89FED2F1B09F0F8
:102B9800A5F855EC104B10EE100A00220023294628
:102BA800FDF71CFF002840F07D8520462946FDF7EB
:102BB8007BFF80B23081B0EE4B0AF0EE6B0A09F071
:102BC800C3F89FED211B09F089F855EC104B10EE66
:102BD800100A002200232946FDF700FF002840F0D4
:102BE800588520462946FDF75FFF80B2708149EC81
:102BF800108B09F0A9F89FED141B09F06FF81C4918
:102C080055EC104B81ED000B10EE100A002200234A
:102C18002946FDF7E3FE002840F032852046294684
:102C2800FDF742FF80B2154B0E4A9B79B2F86C2033
:102C3800B081F78132824BB39DED207B104B03EDC1
:102C4800027B9DED1E7B1FE0000000000000F040AD
:102C5800D8140020380C0020B811002028100020BB
:102C6800980E002000000020902A002068160020FE
:102C7800180C0020201D0020A4030020D02E0020C6
:102C8800C0230020080C002083ED007BBB4FBC4A0A
:102C9800BC4B002657E9020116601E600022BA4BA1
:102CA800FDF774FAB94A04460D4647E902451898F3
:102CB800B2F8607007FB00F0FDF7A4FBB44B0022EC
:102CC800FDF71AFCB34A42E902011A9807FB00F023
:102CD800FDF798FB0022AE4BFDF70EFCAD4BE3E889
:102CE80004011198089307FB00F0FDF78BFB002205
:102CF800A74BFDF701FC089B43E902011B9807FB62
:102D080000F0FDF77FFB0022A14BFDF7F5FB089BC8
:102D1800C3E90001139807FB00F0FDF773FB0022DD
:102D28009B4BFDF7E9FB9C4B43E90201129807FB1B
:102D380000F0FDF767FB0022954BFDF7DDFB964B96
:102D4800C3E90001109807FB00F0FDF75BFB0022C8
:102D58008F4BFDF7D1FB914B43E90201199807FB13
:102D680000F0FDF74FFB8A4B0022FDF7C5FB8B4BAC
:102D78008B4AC3E900018B4BC3E90066C3E90266CD
:102D880092E80300884B834AC3E9006602F14803CE
:102D980083E803000022294600232046FDF71EFE93
:102DA800074629462046002F40F05B84FDF754FE75
:102DB80001260446082CC8BF04F00704042C4FF071
:102DC80000037A4AC4BFC4F108043E469C42C2F8D4
:102DD800603832DD002E01F0E483131B042C93F8D5
:102DE800FF3782F8FF37A2EB040393F8FE3782F827
:102DF800FE37A2EB040393F8FD3782F8FD37A2EB08
:102E0800040393F8FC3782F8FC3711D0131B032C0A
:102E180093F8FB3782F8FB370AD0131B012C93F881
:102E2800FA3782F8FA3704BF92F8F83782F8F93798
:102E38005F482246002109F06BF95C4B93F9FCA727
:102E4800BAF1000F00F0F9825A4B4FF400710022DA
:102E580099619A624FF48041564B99619A62534A3C
:102E680092F9FA87B8F1000F00F0DE8200224FF4E1
:102E7800807199619A624FF4004113464B484D4A5C
:102E880090F9FEB791619362BBF1000318BF01236B
:102E98001903916181F48051916290F9F897B9F121
:102EA800000F00F0B782444A4FF48050002190612F
:102EB80091624FF400503F4ADB0290619162936146
:102EC80083F400639362394B4846C3F80028FDF742
:102ED800A9FA3A4BCDE9040143E9020140461C46F0
:102EE800FDF7A0FA06460F46C4E900675046FDF70D
:102EF80099FA02460B46C4E9022304F11001584628
:102F0800CDE906230D46FDF78DFADDE90623C4E970
:102F180008232B4B9DED047B93F81A38C4E90A6704
:102F280084ED0C7BC4E90601C5E900012034002BBF
:102F380001F08D82A4F12803224E0693D6E9000100
:102F4800114B0022FDF740FD002840F05082B9F1F6
:102F5800010F00F088821C4B0493D3E900230D492C
:102F680041E90223194C084B54E902010022FDF7FC
:102F78002BFD002840F062832AE000BF9024002047
:102F8800EC2E0020E82E00200000F03F000000207A
:102F98000000503E880B0020A80B0020B80B002032
:102FA800BCC10008D82E0020B8030020D803002098
:102FB800D00B00200010004800040048480B0020F7
:102FC800201D002060220020A02200207022002066
:102FD800B8F1010F41F0D882A549D1E90023C4E92D
:102FE8001E23D4E90E23C1E90023D4E90001A14B33
:102FF8000022FDF7E9FC002840F00C83BAF1010F2C
:1030080041F0B482089D9C4B55E9020163E8100128
:10301800D3E9002345E90223984D964B55E902016F
:103028000022FDF7D1FC002840F0CC82BBF1010F53
:1030380041F021820899D1E90023C5E91E23D5E989
:103048000E23C1E9002305F18006D5E90001894B6B
:103058000022FDF7B9FC002840F07583884EBBF1CB
:10306800010FD6E9002341F076828648864950E967
:10307800026740E90223C1E90067844D7D4B55E9A9
:1030880002010022FDF7A0FC002840F0B082BAF14E
:10309800010F41F04B827B49D1E90023C5E91E238A
:1030A800D5E90E23C1E90023D5E90001714B0022BF
:1030B800FDF78AFC002840F07382B8F1010F41F057
:1030C800FD81734E734B56E9020163E81001D3E9A1
:1030D800002346E90223049B53E902670022654B5B
:1030E80030463946FDF770FC002800F01C82684A1B
:1030F800694BD2E90001B9F1010F43E9020101F07E
:10310800D78153E91223FDF73FF8614BC3E900016A
:10311800624B54E90201C3E900670022554BFDF7F1
:1031280053FC002840F0D881514BD3E900AB514BF8
:10313800D5E900010022FDF747FC554B002840F077
:10314800A48153E90245564BDFF874819868554EBF
:10315800FDF77AF944A3D3E90023FDF7CDF958E93F
:103168000223FDF713F8DDF810E048E90201CDE984
:1031780004010FCEAEE80F000FCEAEE80F000FCE61
:10318800AEE80F0096E80F00A6F1700C8EE80F006D
:10319800BCE80F00A8F5D8770FC7BCE80F000FC729
:1031A800BCE80F000FC79CE80F0087E80F0040221B
:1031B8000021A6F1700008F0ABFF089B97ED4E6B5D
:1031C80013ED027BB0EE469AF0EE669A51EC170BBF
:1031D800B0EE478AF0EE678A53EC162BFDF71CFC1D
:1031E80018B1244B002246E91823264B93ED007BA7
:1031F8002D4BB0EE47AAF0EE67AA93ED006B51ECA9
:10320800170BB0EE46BAF0EE66BA53EC162BFDF784
:1032180003FC20B1174B25490022C1E900232449AA
:103228005246D1E900015B46FDF7D8FB20B1114BAE
:1032380020490022C1E900231D49224651E9020123
:103248002B46FDF7CBFB20B10A4B1B49002241E975
:1032580002230C4B53E90201184B53E90223FDF7F3
:10326800DBFB2FE0AFF300807B14AE47E17A743FBD
:10327800880B00200000F03FF02200208022002070
:10328800C0220020A80B002000230020902200204C
:10329800B80B00201023002060230020180C002009
:1032A800CC030020800B0020D0230020680B0020D6
:1032B800F0230020480B0020780B0020E02300209A
:1032C8001024002020B1A44BA449002241E9022384
:1032D800A34B0899D3E90023D1E90001FDF79CFB32
:1032E80020B19D4B9F490022C1E900239E4BD3E9A1
:1032F80000679E4BD3E900AB3046394652465B46E1
:10330800FDF78AFB20B1944B99490022C1E90023BB
:10331800984B13ED027B954BB0EE47CAF0EE67CAA7
:1033280053E9024551EC170B22462B46FDF774FB77
:1033380020B1894B9049002241E902238F4B1A6939
:103348008F4BC3F864288F4B18698F4BB3F81898C4
:10335800B9F5FF7F05D809F101091FFA89F9A3F822
:103368001898894B93F80C3813F0100100F05C8220
:1033780003F00F03013B0D2B01F2D981DFE813F0B5
:10338800100A3C0A380B720BD80B5B0C7709D4096E
:1033980027093F0C9109F70927092E0CD7E900895D
:1033A8005046594642464B46FDF718FB00284ED07A
:1033B800CDE90489FFF731B90023DDE904AB0F93A8
:1033C800FFF79BB82046294652465B46FDF706FBA9
:1033D80000287EF4F4AE002E41F02785DDE904AB29
:1033E800FEF7EDBEDDE904450026FEF786BE614A1C
:1033F800664B52E90201B9F1010FC3E900013FD060
:1034080053E91023FCF7C0FE5A4B43E90201604B15
:103418000493A7E5594A4FF48051C2F818904846DA
:1034280091624FF4005146E54FF48072C3F818805A
:1034380041469A624FF4004320E5524B4FF4007224
:10344800C3F818A051469A624FF4804204E50F9BD6
:10345800002B3FF4E2A8CDE904ABFFF7DEB8C24683
:10346800CB46FEF7ACBE434C4A4B54E90201C3E9D4
:103478000001194671E9102344E90223049171E51A
:1034880043E9100102460B46BCE753E9026732469E
:103498003B4630463946FCF779FE3F4BD3E90023DB
:1034A800FCF772FE28A3D3E90023FDF725F828A32B
:1034B800D3E9002304460D4630463946FDF71CF88B
:1034C8000B46024629462046FCF760FE264B04467A
:1034D8000D4643E9024536E6264CD4E900AB524690
:1034E8005B4650465946FCF751FE2C4B53E90223E4
:1034F800FCF74AFE14A3D3E90023FCF7FDFF14A34D
:10350800D3E9002306460F4650465946FCF7F4FF18
:1035180002460B4630463946FCF738FE82468B4653
:10352800C4E900AB03E6B9F1010F40F0CF870E4ABA
:10353800164BD2E9000143E9020153E912230A4973
:10354800C1E90023E4E500BF9A9999999999E93F5F
:103558009A9999999999C93F0000F03F680B002002
:10356800E0230020580B0020B80B00200024002086
:10357800780B0020880B0020480B0020000400482E
:10358800D803002000100048201D00202023002020
:10359800A0220020E0220020D0220020B02200201B
:1035A8009B4A9C4B52E90201B8F1010FC3E90001A3
:1035B80000F0CB8753E91023FCF7E6FD944B43E971
:1035C800020188E5089BD3E90023BBF1010FC5E997
:1035D8002E2300F0B28705F180061046194656E9F9
:1035E8000223FCF7D1FD089BC3E900012DE58A4BB6
:1035F800D3E90023BAF1010FC5E92E2300F0BE87F5
:1036080010461946D5E91E23FCF7BEFD824BC3E9D7
:10361800000149E5089B814D53E90223BAF1010FE6
:10362800C5E9002300F0B7871046194655E910236D
:10363800FCF7AAFD089B43E90201EDE4784BD3E9C6
:103648000023B8F1010FC4E92E2300F08987104642
:103658001946D4E91E23FCF797FD714BC3E9000115
:10366800C3E4FDF7F9F901274442FFF7A3BB40463D
:1036780009F10041FDF718FA404280B2FFF72FB870
:10368800204605F10041FDF70FFA404280B2FFF7EE
:10369800CABA204605F10041FDF706FA404280B259
:1036A800FFF7A4BA204605F10041FDF7FDF94042B5
:1036B80080B2FFF77FBA204605F10041FDF7F4F923
:1036C800404280B2FFF75ABA204605F10041FDF7A3
:1036D800EBF9404280B2FFF735BA204605F10041C8
:1036E800FDF7E2F9404280B2FFF712BA404609F10D
:1036F8000041FDF7D9F9404280B2FFF77FB8404654
:1037080009F10041FDF7D0F9404280B2FFF75BB8FC
:10371800404609F10041FDF7C7F9404280B2FFF782
:1037280035B8404609F10041FDF7BEF9404280B284
:10373800FFF70FB8404609F10041FDF7B5F94042DF
:1037480080B2FEF7E9BF344B364953E90223BBF197
:10375800010FC1E9002340F0A586C6E90023104601
:103768001946FCF711FD2C4B43E9020185E49DED58
:103778000C7BB0EE47CAF0EE67CAFEF78ABEDDE9F9
:1037880004ABFEF78ABF9DED087BB0EE47AAF0EECA
:1037980067AAFEF7F9BD9DED067BB0EE479AF0EEFD
:1037A800679AFEF7B0BD9DED0C7BB0EE47BAF0EE20
:1037B80067BAFFF740B99DED0A7BB0EE47AAF0EE75
:1037C80067AAFFF711B99DED0A7BB0EE47BAF0EE94
:1037D80067BAFEF717BEDDE90489FFF777B99DEDF3
:1037E800047BB0EE478AF0EE678AFFF765B89DED77
:1037F800087BB0EE479AF0EE679AFFF7CAB8DDE9A2
:1038080006ABFFF799B84BEC18ABFEF73DBD00BF10
:10381800B80B002050230020A80B002030230020E4
:10382800880B002040230020CD4A049123F01F0379
:1038380043F01B0382F80C38CA4BC2F80038CA4B55
:10384800C2F804380123C2F8FC17C2F8F83710464A
:103858004FF4A86208F05CFC0499C44B4FF0020ACC
:103868000F4647F6FF7C03F580597B1C0A931DB26F
:10387800012400220497049B002B00F0CB826145B1
:1038880000F0F282481C0E4601F1A80B01F5A87859
:1038980001F5FC7E8B1C01B2B14F27F8165026B2F9
:1038A80027F81B600696049E27F81860069E27F8DE
:1038B8001E6096B2002A00F08982614500F0C78236
:1038C80003F1A70B03F24F1803F2F71E19B2A44B2A
:1038D80023F8105023F81B4023F8185023F81E60D3
:1038E800049B062B00F0BC8208464B1C614500F087
:1038F800A58203F1A70B03F24F1803F2F71E19B2C2
:10390800974B1F4623F81050062A23B227F81B307E
:1039180027F818A027F81E301BD06145084601F18A
:10392800010300F07B828E4F03F1A70127F81050A6
:1039380027F8114003F24F11013227F8115003F212
:10394800F7110236072A27F8116004F1010419B2A9
:1039580091D10A9F0AF1010A072F1FFA8AFA84D126
:10396800834A7F484FF00113C0F80838134673E8BC
:10397800048952E9024553E902AB0121A0F8021873
:103988007C4B002220462946FDF746F8002800F027
:103998003D85794B9FED798A204629460022FCF720
:1039A800D5FE774B0022FCF7F1FB04460D46FDF7E8
:1039B8009BF808EE900A00260027724B0022C3E904
:1039C8000045C3E9026740466A4B4946FDF724F8BB
:1039D800002800F0FA84684B002240464946FCF76C
:1039E800B5FE674B0022FCF7D1FB04460D46FDF7F8
:1039F8007BF8DFED626A07EE100A00260027624BAB
:103A0800F5EEC08AC3E90045C3E90267544BF1EEFD
:103A180010FAD3F8903600F1D084DFED5C7AF4EE3A
:103A2800678AF1EE10FAC8BFF0EE678A19681A794A
:103A3800CB6ADFED565AC86BB2FA82F252091344C8
:103A480007EE903AF8EE677AB5EEC08A67EEA87A84
:103A580087EEA56AFCEEC67A17EE903A834218BF45
:103A6800CB63F1EE10FA00F1A484DFED487AB4EEEE
:103A7800678AF1EE10FAC8BFB0EE678ACB6ADFED4D
:103A8800435A134407EE903AF8EE677A0A6C67EEE9
:103A9800887AB5EEC07A87EEA56AFCEEC67A17EE8C
:103AA800903A934218BF0B642D4BF1EE10FAD3F8FD
:103AB800803600F18684DFED357AB4EE677AF1EE70
:103AC80010FAC8BFB0EE677A19681A79CB6A9FED09
:103AD8002F6A486BB2FA82F25209134407EE903A01
:103AE800F8EE677A67EE877A87EE867AFCEEC77A11
:103AF80017EE903A834218BF4B63DFED247ACB6A06
:103B0800F4EE676AF1EE10FA1344C8BFF0EE676A84
:103B1800B0EE676A07EE903AF8EE677A8A6B67EE5E
:103B2800A67A87EE867AFCEEC77A17EE903A934229
:103B380018BF8B63164B0022D3E900010023FCF762
:103B480043FFB0FA80F0134B4009C001986180F040
:103B580080009862104B0022D3E9000100231DE089
:103B6800201D00200100020002000100200D01209C
:103B7800F80B00200000244000000840000000006E
:103B880000805040180C0020280C00200000C8427B
:103B980000000020000C0048580B0020FCF714FF20
:103BA800B0FA80F0BC4B40094003986180F40050A3
:103BB8009862BA4B002253E902010023FCF704FF84
:103BC800002800F08581B64B0022D3E900010023CC
:103BD800FCF7FAFEB0FA80F04009830383F48040D2
:103BE800AD4CB04DA361B04BA062002253E9020175
:103BF8000023FCF7E9FEAD4BB0FA80F04009C3F8AA
:103C08000058C003AA4BA06180F40040A0620022C3
:103C1800D3E902010023FCF7D7FEB0FA80F040098F
:103C2800C000A86180F00800A862A24B504659461F
:103C38000022FCF7C9FE002840F04D819E4BA3F1FD
:103C480070020C92A3F160020492A3F120021C46B8
:103C58000A92A3F13002089253E902ABA3F1500291
:103C680074E904670F92A3F1400206920C9D049B2D
:103C7800D5E9008953E9020142464B46FCF784FA2C
:103C88007FA3D3E90023FCF737FC42464B46FCF7F9
:103C98007DFA8A4AD2E93089C2E900014B4655E9E2
:103CA80002014246FCF770FA75A3D3E90023FCF73A
:103CB80023FC42464B46FCF769FA049B0F9D7F4A5A
:103CC800D3E9008942E902014B4655E9020142461F
:103CD800FCF75AFA6CA3D3E90023FCF70DFC424623
:103CE8004B46FCF753FA089A754BD2E9008943E929
:103CF80002010A9942464B4651E90201FCF744FA8F
:103D080061A3D3E90023FCF7F7FB42464B46FCF7D7
:103D18003DFA6B4B089AC3E90001069BD3E9008979
:103D280052E902014B464246FCF72EFA58A3D3E962
:103D38000023FCF7E1FB42464B46FCF727FAD5E99E
:103D48000089069B5F4A604D42E9020153E902017E
:103D580042464B46FCF718FA4DA3D3E90023FCF77B
:103D6800CBFB42464B46FCF711FA564A3B46C2E9A2
:103D78000001324650465946FCF706FA40A3D3E9FB
:103D88000023FCF7B9FB32463B46FCF7FFF9C5E9CF
:103D980000010A99D1E9006754E9020132463B461D
:103DA800FCF7F2F936A3D3E90023FCF7A5FB32466A
:103DB8003B46FCF7EBF945E9020101F0A9FE01F0E9
:103DC8008FFF25B0BDEC0A8BBDE8F08F049F062F4E
:103DD8007FF48CAD61457FF4A6AD3C4BA9F84C410E
:103DE8000236A9F8EC630134A3F8FC5F0122A9F8B4
:103DF8009C52049F47F6FF7147F6FE7648F2A60BE1
:103E080048F24E1848F2F61E08464FF40043002FB9
:103E18007FF442AD96B208464B1C4BE52B4BA9F8F4
:103E28004C4101320236072AA9F8EC6304F1010477
:103E3800A3F8FC5FA9F89C52DBD18AE548F2F61E8C
:103E480048F24E1848F2A60B47F6FE7058E548F2BD
:103E5800F61E48F24E1848F2A60B47F6FE7036E5F5
:103E6800062A7FF45AAD7BE54FF40043084648F232
:103E7800F61E48F24E1848F2A60B47F6FE760BE5FA
:103E88009A9999999999E93F9A9999999999D93FBC
:103E9800CDCCCCCCCCCCDC3F00080048480B002073
:103EA800780B002000040048680B0020D80300208D
:103EB800000000200000F03F10250020D023002043
:103EC800E0230020F023002000240020200D012002
:103ED8004FF4804384E6BC4B089A0C9352E90245A0
:103EE80053E902672046294632463B46FCF794FDD3
:103EF800C0B1B1A3D3E9002330463946FCF7FCFA38
:103F0800AFA3D3E9002306460F4620462946FCF70F
:103F1800F3FA0B46024639463046FCF737F9AA4B06
:103F280043E90201A94BD3E90067204629463246F6
:103F38003B46FCF753FDD0B19FA3D3E9002330469D
:103F48003946FCF7D9FA02460B462046294614465C
:103F58001D469BA3D3E90023FCF7CEFA0B46024685
:103F680029462046FCF712F9984BC3E90001984B03
:103F7800984A0493D2E9004553E902672046294646
:103F880032463B46FCF748FDC0B18BA3D3E900237A
:103F980030463946FCF7B0FA89A3D3E90023064630
:103FA8000F4620462946FCF7A7FA0B460246394633
:103FB8003046FCF7EBF8864B43E902010C9BD3E94A
:103FC80000672046294632463B46FCF707FDD0B13C
:103FD80079A3D3E9002330463946FCF78DFA024627
:103FE8000B462046294614461D4675A3D3E90023EF
:103FF800FCF782FA0B46024629462046FCF7C6F82B
:104008000C9BC3E90001744B089A0A93D2E9004556
:1040180053E902672046294632463B46FCF7FCFC3A
:10402800B0B16E4B304639460022FCF765FA6B4B4F
:1040380006460F46002220462946FCF75DFA0B4645
:10404800024639463046FCF7A1F8634B43E90201C2
:10405800634B0893D3E900672046294632463B461E
:10406800FCF7BCFCC0B15D4B002230463946FCF77A
:1040780043FA02460B462046294614461D460022AE
:10408800564BFCF739FA0B46024629462046FCF700
:104098007DF8534BC3E90001524B4E4A0F9352E946
:1040A800024553E902672046294632463B46FCF75B
:1040B800B3FCB0B1494B304639460022FCF71CFA34
:1040C800464B06460F46002220462946FCF714FABE
:1040D8000B46024639463046FCF758F8414B43E94F
:1040E8000201049BD3E900672046294632463B4635
:1040F800FCF774FCC0B1394B002230463946FCF756
:10410800FBF902460B462046294614461D46002266
:10411800324BFCF7F1F90B46024629462046FCF7DC
:1041280035F8049BC3E900012F4B304A0693D2E9C6
:10413800004553E902672046294632463B46FCF7CC
:104148006BFCB0B1254B304639460022FCF7D4F958
:10415800224B06460F46002220462946FCF7CCF99A
:104168000B46024639463046FCF710F81E4B43E929
:1041780002010F9BD3E900672046294632463B4699
:10418800FCF72CFCB0B3154B002230463946FCF73F
:10419800B3F902460B462046294614461D4600221E
:1041A8000E4BFCF7A9F90B46024629462046FBF7B9
:1041B800EDFF0F9B1CE000BF9A9999999999E93FE7
:1041C8009A9999999999C93FA02400209024002090
:1041D800B0240020A80B0020F02400200000E03FBD
:1041E800E0240020C0240020D0240020880B0020D8
:1041F800C3E90001BE4B53E90245089B53E9026736
:104208002046294632463B46FCF706FCB0B1B94B7E
:10421800304639460022FCF76FF9B64B06460F4682
:10422800002220462946FCF767F90B460246394624
:104238003046FBF7ABFF089B43E90201069BD3E935
:1042480000672046294632463B46FCF7C7FBC0B10B
:10425800A84B002230463946FCF74EF902460B4679
:104268002046294614461D460022A24BFCF744F975
:104278000B46024629462046FBF788FF069BC3E902
:1042880000019D4B9D4C53E9026754E90289304671
:10429800394642464B46FCF7BFFBB8B190A3D3E979
:1042A800002340464946FCF727F98FA3D3E90023AA
:1042B8008046894630463946FCF71EF902460B46C9
:1042C80040464946FBF762FF44E902010A9DD5E9E9
:1042D80000893046394642464B46FCF77FFBC8B159
:1042E8007FA3D3E9002340464946FCF705F9024677
:1042F8000B463046394616461F467BA3D3E90023B2
:10430800FCF7FAF802460B4630463946FBF73EFF03
:10431800C5E90001764B7A4DD3E9008955E902AB2E
:104328004046494652465B46FCF776FBC8B16CA34B
:10433800D3E9002350465946FCF7DEF86AA3D3E9CF
:10434800002306460F4640464946FCF7D5F8024684
:104358000B4630463946FBF719FF82468B4645E93E
:1043680002ABD4E900674046494632463B46FCF773
:1043780035FB00283FF47AAC59A3D3E90023304633
:104388003946FCF7B9F858A3D3E9002306460F4687
:1043980040464946FCF7B0F802460B4630463946D7
:1043A800FBF7F4FE06460F46C4E9006755E902AB81
:1043B8005CE49FED548AFFF761BBDFED528AFFF79B
:1043C80035BB9FED507AFFF77FBB4F4B002240462D
:1043D8004946FCF703FB002800F09C814B4B002268
:1043E80040464946FCF7B2F9494B0022FBF7CCFEA0
:1043F80021F0004739460646FCF776FB002406EE16
:10440800900A9FED407A0025FFF7F9BA3E4B00224B
:1044180020462946FCF7E2FA002800F071813B4B60
:10442800002220462946FCF791F9394B0022FBF778
:10443800ABFE21F0004739460646FCF755FB08EE6F
:10444800100ADFED308A00240025FFF7B6BA314B99
:1044580006931D460FCD304E34460FC40FCD0FC402
:104468000FCD0FC495E80F00012784E80F0084F8EA
:10447800AA72FEF763BDD5E90E230899C1E90023A6
:10448800D5E90001254B002205F14006FCF79CFA0E
:1044980000283EF4E4AD224B53E90223C5E930235A
:1044A80005F1800610461946D6E90023FFF759B9E9
:1044B80043E9120102460B46FEF725BE194B0C498B
:1044C800D3E9002341E90223FEF705BE164B08494C
:1044D80053E90223C1E90023FEF71ABEAFF30080B7
:1044E8009A9999999999E93F9A9999999999C93F66
:1044F800B80B00200000E03F880B002000250020BA
:104508001025002000000000000024C00000084022
:1045180000805040400B0020602200200000F03F47
:10452800A80B0020D0220020E0220020D5E90E238D
:10453800A149C1E90023FEF7B7BDC5E91E2305F16E
:10454800800610461946FFF74CB843E910010246A9
:104558000B46FFF731B8984941E90223FEF78DBDB4
:10456800C4E91E2310461946FFF775B8934B0899FE
:10457800D3E9002341E90223FEF74EBDC5E91E2316
:1045880010461946FFF740B8D4E90E238C49C1E913
:104598000023FEF72ABD45E9102310461946FFF708
:1045A80047B822468749884807F0E4FD3146C4F1F8
:1045B8000802864807F0ACFD854BC4F5006022462A
:1045C800184403F5066107F089FDFEF736BC814EF5
:1045D800DDE9042356E90201FBF7D6FD002200239A
:1045E80082468B46FCF7FAF918B9B9F1630F40F225
:1045F800AD83794A794C92F80C381146062262F359
:104608000303D6E9006781F80C380023A1F81838AD
:10461800734B0022C4E9002330463946FCF7D4F92D
:1046280050B1704900220023C1E9002341E9022367
:1046380041E9062341E90423CDE900676A4E039660
:1046480000200021A6F10803029346E90201C6E909
:104658000001A6F1B80262490020FDF735FB54E9D4
:1046680002ABD6E9008956E90245FFF789B95B4CE8
:104678005B4B2646F6E804014FF000084FF00009AE
:1046880046E90289C6E900890022FCF79DF9E8B1EC
:1046980004F10803CDE9008903960293A4F1A80266
:1046A800D9E74D4A504992F80C3810460A2262F36D
:1046B800030380F80C3802460023A2F818380C4689
:1046C8000022002341E9022364E80423474ADFED7E
:1046D800486A414B0020002154E902ABC2E90001BD
:1046E800C2E90601C2E90201C2E90401D3F8903621
:1046F800B0EE667AB0EE668AF0EE668AFFF796B993
:104708009FED3B8A00240025F0EE488A26462F4676
:10471800FFF753B9DFED366A00240025B0EE667A5C
:1047280026462F46FFF76BB9B9F1630F15D92A4A08
:1047380092F80C38114602F5E264032262F303038F
:1047480081F80C380023A1F818380022D4E90001B8
:10475800284BFBF71BFDC4E90001234A134673E805
:10476800048952E9024553E902ABFFF709B9B9F5E3
:10477800C87FF2D318481C4A90F80C180446134610
:10478800052073E8048960F3030184F80C180021FC
:10479800A4F8181853E902AB52E90245FFF7F0B83C
:1047A800B9F5C87FC0F0A7830B480F4A90F80C18DA
:1047B800044613460220E4E7A80B0020B02200209C
:1047C800880B0020BCC10008380C0020D00B00204A
:1047D800D803002020240020201D0020E80B002002
:1047E8000000F03F70240020F80B0020180C002077
:1047F8000000000000805640B9F1C70F3FF651AFE6
:10480800B74BB84F13ED027B002651EC170BB0EEF7
:10481800478AF0EE678A32463B46FCF7D5F800280F
:1048280000F0C883B049DFF8FC82D1E9000100221A
:104838000023FCF7C9F8002800F00284DFF8ACB2C6
:104848004FF0000A48E902ABA84B002250465946EF
:10485800FCF7BAF8002800F0EA83A24B51EC180BD9
:104868000022FCF7B1F8002800F0D3839E499D4B45
:10487800D1E900010022FCF7A7F8002800F0C9835D
:104888004FF0000A4FF0404B48E902AB984F002622
:10489800DFF894925046D9E900235946FBF776FC95
:1048A80087A3D3E9002304460D46FBF725FE0246FD
:1048B8000B4620462946FBF767FC59E90223C9E95C
:1048C8000001CDE9040150465946FBF75DFC7EA383
:1048D800D3E9002304460D46D8E90001FBF70CFE96
:1048E80002460B4620462946FBF750FC04460D4677
:1048F800C8E900457F4B0022DDE90401FBF7FCFD18
:1049080032463B46FBF742FC02460B462046294608
:1049180014461D460022784BFBF7EEFD02460B4677
:1049280020462946FBF732FC49E902AB8046894616
:1049380042464B4600200021FBF726FC6F4B002225
:1049480004460D46FCF75EF8002800F057836C4BD0
:10495800204629460022FCF75FF8002800F0508323
:104968009FED5B7B674E06ED027B55EC174B634B67
:10497800002240464946FCF731F8002840F04483BD
:10498800C6E900895E4B002240464946FCF744F8D8
:1049980018B1DFF86C914FF00008C6E9008950465D
:1049A800594600220023FCF70FF8C0B151EC180B50
:1049B8004C4B0022FCF708F888B14B49494BD1E928
:1049C80000010022FCF700F848B1DFF860914FF0D1
:1049D800000846E90289C6E9008944464D464A4925
:1049E8004FF0000A4FF0000B41E902ABFEF7C8BFD9
:1049F800464EDDE90423D6E90001FBF7C5FB00229A
:104A0800002382468B46FBF7E9FF18B9B9F1630F1B
:104A180040F2F1823B4A3E48DFF8E49090F80C18E7
:104A28009FED3C8ADFED3C8A13464FF0000863E8AF
:104A380004890446082060F3030142E9028953E926
:104A480002AB84F80C1824A3D3E900230021A4F8AE
:104A580018183249C1E9002300220023C1E90223C2
:104A6800FEF7B9BFD8E90045204B00222046294669
:104A7800FBF7AAFF0646002800F02B81234C194BB0
:104A880054E902010022FBF79FFF00283FF465AEBE
:104A98001F4A92F80C3815460D2262F3030385F875
:104AA8000C380023A5F81838DDE904011C4B002256
:104AB800FBF76CFB44E906014FE600BFAFF300804B
:104AC8007B14AE47E17A743F9A9999999999E93F8D
:104AD80000000000000059405655555555D558401E
:104AE800580B00200000F03F680B00200000F0BFCA
:104AF800000034C00000E03F00004940000059C0F9
:104B080000005940F80B0020E80B0020302400205A
:104B1800201D002000000000ABAAC642180C00208F
:104B2800008056405024002040240020000049C046
:104B3800B9F1C70F7FF611AEC34EC44896F80C38CA
:104B4800C34C042262F303030DF18E0186F80C387E
:104B5800FCF796FCB6F90058B6F9FA27B6F9023808
:104B6800C8E90001B6F9F81715441944A542B6F981
:104B7800FE27B6F9FC3747F6FF70B8BF2546A142B5
:104B8800B8BF21468542D4BFC2EB0502C2EB000282
:104B98008142D4BFC3EB0103C3EB0003A242B8BFF9
:104BA8002246A342B8BF23468242A8BF02460699BE
:104BB800A6F800288342A8BF0346D1E92E89A6F8A3
:104BC8000238A449A44B06F5E262002042E902013A
:104BD80053E9024553E906ABFEF7D2BE9F4EDDE925
:104BE800042356E90201FBF7CFFA0022002382468C
:104BF8008B46FBF711FF00283FF4F7ACF9E412F0FD
:104C0800040240F09080B9F5C87FC0F08C808E4CCB
:104C1800A4F81828904A94F80C18134673E80489E5
:104C2800012060F3030184F80C1853E902AB52E940
:104C38000245FEF7A5BE53EC1C2B30463946FBF760
:104C4800A5FA53EC1A2BFBF7A1FA53EC182BFBF738
:104C58009DFA53EC1B2B06460F4651EC190BFBF73C
:104C680095FA22462B46FBF791FA52465B46FBF72C
:104C78008DFA71A3D3E90023FBF73EFC02460B46ED
:104C880030463946FBF7AAFE00283FF4F0ACB9F1EC
:104C98004F0F7FF6ECAC6C4BD3F80428D3F80038F0
:104CA80093427FF449AF68486B4990F80C28044652
:104CB8000C2060F3030284F80C28D4F80828C4F800
:104CC8000428B4F80A28ADF88E20C4F8083822461B
:104CD800F2E4DFF880914FF000082046294642466A
:104CE8004B46FBF771FE0746002800F0C7805C4C76
:104CF800424654E902014B46FBF766FE00283FF4A2
:104D08002CAD94F8FC30A4F808610E2262F303037A
:104D180084F8FC30DDE90401524B0022FBF734FA39
:104D280044E9060119E543067FF524AD4E4A4FF0E4
:104D3800000A13464FF0000BE3E804AB42E902AB6C
:104D480053E90245D3E90089FEF71ABEF6E91823AC
:104D580050465946FBF71AFA39A3D3E9002304460B
:104D68000D46FBF7C9FB02460B4620462946FBF7D2
:104D78000BFA56E90223C6E9000150465946FBF7EB
:104D880003FA3A4B0022FBF7B7FB394B04460D46B2
:104D9800002250465946FBF7AFFB02460B46204619
:104DA8002946FBF7F3F98046894642464B4646E9D1
:104DB80002AB00200021FBF7E7F92E4B0022044646
:104DC8000D46FBF71FFE002800F0AE80DFF8A8B004
:104DD8004FF0000A2046294652465B46FBF71CFE68
:104DE800002800F0A3801C4E46E902AB214D0024A8
:104DF8004046494622462B46FBF7F0FD50B91E4D6A
:104E08000024C6E900894046494622462B46FBF75E
:104E180003FE18B1C6E90045A046A946124B56E95B
:104E2800024553E902ABFEF7ABBDA246AB46FDF720
:104E3800C6B900BFAFF30080333333333333E33FB6
:104E48007B14AE47E17A743F201D0020400B002000
:104E58000080FFFF0000F03FF80B00202024002016
:104E68003024002000805640E80B002000004E400F
:104E780000001840000059C00000594000224FF0BF
:104E8800804320462946FBF79FFD0646002851D05F
:104E9800894D424655E902014B46FBF795FD00282E
:104EA8003FF45BACA5F5E263A5F808711F4695F8D9
:104EB800FC30824EDFF834929FED818A092262F33A
:104EC800030387F80C387F4B344600224FF0000864
:104ED80046E9022364E80489DDE904017A4B0022EB
:104EE800FBF754F96EA7D7E9006745E9060154E9CD
:104EF80002ABFFF7A6BA754ADFF8ECB174499FED2B
:104F0800758A0FF2A419D9E900891346E3E90489DF
:104F18004FF0000A002042E902AB43E9020164A70E
:104F2800D7E90067FFF78DBA664D0024634E46E95E
:104F380002455BE74FF0000A4FF0000B2046294678
:104F480052465B46FBF740FD00283FF406AC5A4C3E
:104F5800424654E902014B46FBF736FD00283FF470
:104F6800FCAB44E904ABA4F80861A4F5E265CDE91B
:104F780000AB564C95F80C382646E6E8048906221C
:104F880062F30303039685F80C3804F1080346E935
:104F980002ABC6E900AB40464946A4F1A802029319
:104FA800FCF792FE54E902ABD6E9008956E90245BE
:104FB800FEF7E6BC4FF0000A4FF0000B51EC180B5F
:104FC80052465B46FBF700FD002858D0424BD3E918
:104FD800004532463B4620462946FBF7F5FCD8B14A
:104FE800DFF80C8148E902673C4FDFF8FCB0002687
:104FF8004FF0000A4CE4F6E91423A9E6314D0024E9
:105008002E4E46E90245B2E4DFF8B8904FF00008AA
:10501800C3E4334F00263BE42046294652465B460C
:10502800FBF7D2FC58B3DFF8C88048E902AB2B4B3A
:10503800002250465946FBF75FFA06460F4627E41A
:1050480058E902AB32463B4650465946FBF7BCFC92
:1050580000283FF4F9AB20493246D1E900013B462C
:10506800FBF7B2FC40B14FF0000A4FF0804B48E923
:1050780002AB1C4F00260BE4184F002608E4DFF8AB
:105088007080194B58E902AB002250465946FBF78D
:105098009BFC0028A8D1FFF7D7BB00BFAFF3008067
:1050A8005655555555D558400000000000C052408F
:1050B8000000000000C0564030240020F80B0020FB
:1050C800ABAAC642000059C000806640E80B002029
:1050D80000C052C00000B642680B00200000244007
:1050E800000024C0000034400000F03F0000594098
:1050F80050240020000000002DE9F04FA24AA34BE5
:105108002DED048BD2E9266703F5A26453E90289E1
:1051180083B054E9020132463B46FBF755FC08B917
:1051280044E902679A4B9B49A3F6A8600446C82243
:105138000090184607F01EF89649C0E93289C02247
:10514800D03007F017F804F577619248C82207F0C5
:1051580011F804F56B6353E902AB1D461C46D046B3
:10516800D946F4E802674046494632463B46FBF7D3
:1051780035FC08B1B046B946874B9C42F1D149ECA1
:10518800108B06F0E1FD9FED7E1B06F0A7FD57ECA6
:10519800106B10EE100A002200233946FBF71EFCA4
:1051A800002840F0CC8030463946FBF77DFC83B2BE
:1051B8000193754B794CD3E91E67A4F5C87393ED39
:1051C800008B54E9020132463B46FBF7FDFB08B968
:1051D80044E90267724C009B7049C822204603F5D7
:1051E800136806F0C7FF84ED328B6C49C02204F1C6
:1051F800D00006F0BFFFC822A118684806F0BAFF21
:10520800B4EC027B57EC176BB0EE478AF0EE678A76
:105218004BEC19ABA146A3460095F9E80245304688
:10522800394622462B46FBF7D9FB08B126462F46BE
:10523800C145F2D147EC106B06F086FD9FED501B7F
:10524800009D06F04BFD57EC106B10EE100A002283
:10525800002339465C465BEC19ABFBF7BFFB002823
:1052680040F0868030463946FBF71EFC80B2DFF8F6
:105278003491019B00954BEC19ABC346A04655EC05
:10528800184BA9F81208A9F81038F8E80267204660
:10529800294632463B46FBF7BFFB08B134463D463C
:1052A800D845F2D145EC104B06F04EFD9FED341B6E
:1052B800009D06F013FD57EC106B10EE100A00224B
:1052C800002339465BEC19ABFBF788FB002847D174
:1052D80030463946FBF7E8FB84B2F5E802675246E8
:1052E8005B4630463946FBF779FB08B1B246BB4608
:1052F800294BAB42F1D14BEC10AB06F025FD9FEDED
:10530800201B06F0EBFC57EC106B10EE100A002285
:1053180000233946FBF762FBD0B930463946FBF724
:10532800C3FB80B2A9F81648A9F8140800F0F0FBEE
:1053380003B0BDEC048BBDE8F04F00F0D1BC3046A3
:1053480007F10041FBF7B0FB404283B2019330E71D
:10535800304607F10041FBF7A7FB404280B2E1E786
:10536800304607F10041FBF79FFB404284B2B4E7A7
:10537800304607F10041FBF797FB404280B276E7E1
:10538800000000000000F04000000020C0230020C2
:1053980080120020D028002048130020502500202B
:1053A800400C0020201D00202DE9F04FBA4DBB48CD
:1053B800B5F86E70B5F87060B5F8724007820021D4
:1053C80067F30F0167F31F410022C0E90011C0E92C
:1053D800021166F30F02B249B2480E8266F31F4209
:1053E8000023C1E90022C1E9022264F30F03AE4998
:1053F800B5F874600C8264F31F43A7B0C1E90033A9
:10540800C1E90233082295F87610A84C06F080FE10
:105418000023A74AA96DA74866F30F0366F31F4345
:10542800C2E90033C2E90233A34B2E6D19605960FB
:105438009960A24BEA6D2660A14C1A60D5E908670D
:105448005A609A606B6D036004F5D86343E902679C
:10545800D5E90A67C3E90067D5E90C6704F5DA639B
:1054680043E90267D5E90E67C3E90067D5E9106724
:1054780004F5DC6343E90267D5E91267C3E900670D
:10548800D5E9042304F5D66141E90223D5E90623C9
:105498000126C1E9002300F0DDFBB5F86200C4F87D
:1054A800446608220092A4F81008B5F86400A4F82D
:1054B8001208B5F86800A4F81408B5F86A00A4F84A
:1054C8001608002084F8400684F8480609207D4F15
:1054D8000390ADF810007C488DF812609FED6C7B4E
:1054E800CDE9077004F5CA60042304F5F86E04F5E5
:1054F800FA6C04F5F667069004F5EE6B4FF400704D
:1055080004F5F06A04F5F26904F5F46819463246C0
:1055180087ED007B87ED0C7B8BED007B8AED007BB4
:1055280089ED007B88ED007B8EED007B8CED007BA8
:10553800ADF8240003A8FBF7C7FD0221C4F84C0608
:10554800FBF7F4FED4F84C06FBF72CFE3146D4F8F2
:105558004C06FBF79BFDD5E92E2304F5736141E961
:105568000223C1E9002304F5746141E90223C1E97A
:10557800002304F5756141E90223C1E9002304F51C
:10558800766141E90223C1E9002304F5776141E925
:105598000223C1E9002304F5786141E9022304F5F7
:1055A800805284F8486684F8806FC4F8206F82F8C7
:1055B800A861C2F8D06001F50A76D5E9340104F58E
:1055C800875747E902013B46E3E802019E42FBD1C7
:1055D800D5E928013D4F47E90201012384F8583DE8
:1055E800C4F8803C07F1C8063B46E3E80201B34231
:1055F800FBD1D5E92401364F47E90201012384F89C
:10560800983BC4F8C03A07F1C8063B46E3E80201F4
:105618009E42FBD1D5E922012E4F47E90201012321
:1056280084F8B83AC4F8E03907F1C8063B46E3E81D
:1056380002019E42FBD1D5E92001274F47E902012B
:10564800012384F8D839C4F8003907F1C8063B4665
:10565800E3E80201B342FBD1D5E930891F490123B0
:1056680001F1200E01F1300C01F1400701F1500069
:1056780001F59C7684F8E83FC4F8883F82F8C83082
:10568800C4F8F03F01F170032AE000BFAFF30080D7
:105698000000000000000840000000207C030020FB
:1056A80090030020B8030020A4030020EC2E002063
:1056B800D82E0020E82E0020C0030020CC030020B4
:1056C800201D00200001045000000240B0290020E5
:1056D800F02700201027002030260020B02C0020C2
:1056E800E1E8048940E9028941E90289C1E90089C0
:1056F800C0E90089D5E932014EE9028942E902018F
:10570800CEE900894CE90289CCE9008947E9028998
:10571800C7E90089E3E80201B342FBD10123D5E9D7
:105728002C0184F8183FC4F8403E5F4B43E902015E
:1057380003F1C802E3E802019342FBD10123D5E952
:105748002A0184F8383EC4F8603D584B43E9020109
:1057580003F1C802E3E802019A42FBD101230026C3
:10576800C4F8883603A8524B039384F8846684F8F7
:105778008C66ADF81060FBF717FC3146C4F890064C
:10578800FBF748FAD4F890060221FBF7A5FB0221A3
:10579800D4F89006FBF7F8FBD4F89036454A1B6816
:1057A80099680A40062A4CD10123002684F88C36D1
:1057B800C4F8783603A83E4B039384F8746684F8DB
:1057C8007C66ADF81060FBF7EFFB3146C4F8800645
:1057D800FBF720FAD4F880060221FBF7CDFA022164
:1057E800D4F88006FBF720FBD4F88036314A1B68D2
:1057F80099680A40062A38D1D5E926012E4B43E993
:105808000201012284F87C2684F8782CC4F8A02BA5
:1058180003F1C802E3E802019342FBD1D5E91E0176
:10582800264B43E90201012284F8F828C4F820280D
:1058380003F1C802E3E802019A42FBD127B0BDE8B0
:10584800F08F1A68510724D41A6842F004021A60CB
:105858005A6942F001025A611A6822F004021A6079
:105868001A6842F001021A609EE71A68520715D4B6
:105878001A6842F004021A605A6942F001025A6139
:105888001A6822F004021A601A6842F001021A60CB
:10589800B2E75A6942F001025A61E1E75A6942F0F7
:1058A80001025A61F0E700BF702B0020902A002007
:1058B8000004004007000100D028002050250020E7
:1058C80010B52D4C94F8403633B9D4F8442601234A
:1058D8009A4284F840362DD094F8841631B9D4F819
:1058E80088360122934284F884262DD094F87416C1
:1058F80031B9D4F878360122934284F8742600D05E
:1059080010BD94F87C36002BFAD0D4F880060268D3
:10591800136823F001031360FBF7D6F9D4F8800667
:105928000221FBF755FAD4F880060221BDE81040A1
:10593800FBF7A6BA94F84836002BCDD0D4F84C061D
:105948000421FBF795FCC7E794F88C36002BCDD0E3
:10595800D4F890060268136823F001031360FBF77C
:10596800B3F9D4F890060221FBF7E2FAD4F89006CE
:105978000221FBF711FBB9E7201D002038B50446CA
:1059880072B60C4D00F09CFB2B68B3F5C87F0FD0A6
:105998000949024603F5C87041F8234041F8202020
:1059A800064803F54872006841F8220001332B606D
:1059B80062B638BDC0410020002F0020F42E002020
:1059C80030B5214C23785A1C83B022702BB11F4A62
:1059D80023700121116003B030BD01A8FCF7B4FAAF
:1059E80062B6022006F074F9FCF7BAFA022006F053
:1059F80071F972B62378164D9DF80520013B237086
:105A08006B78C2B15A1C6A70CBB96378002BE2D1AB
:105A18000123637062B6032006F05AF9FFF76CFBA6
:105A2800032006F057F972B66A786378013A013BA9
:105A38006A706370CFE7002BE7D103B030BD034A2B
:105A48006B7001211160C6E7F82E0020F02E0020AF
:105A5800FC2E0020F8B52A4C2A4D002727702F70FD
:105A680001DF03F00DFD00F017FC00F077FC00F0FB
:105A78009FFC01F0B1F800F095FD01F051F901F03B
:105A8800D9F801F0FFF900F00DFF01F01DFB01F05E
:105A980053FA1D4B1E680120376006F019F9FFF70D
:105AA80083FC012006F016F972B69FED180A00F083
:105AB8004BFB3368B3FA83F35B092B7062B662B6AB
:105AC8004FF0E02206E03368003B18BF0123237043
