:020000040800F2
:10000000008001205DB900083174000835740008D3
:10001000397400083D7400084174000800000000B5
:100020000000000000000000000000001D5F00084C
:100030004574000800000000D95E0008155E000845
:10004000ADB90008ADB90008ADB90008ADB90008F8
:10005000ADB90008ADB90008ADB90008ADB90008E8
:10006000ADB90008ADB90008ADB900084974000881
:1000700035100008ADB90008ADB90008ADB90008E9
:100080004D7400085174000855740008ADB900089B
:10009000ADB90008ADB90008ADB90008ADB90008A8
:1000A000ADB9000859740008ADB90008ADB9000831
:1000B000ADB90008ADB90008ADB90008ADB9000888
:1000C000ADB90008ADB90008ADB90008ADB9000878
:1000D000ADB90008ADB90008ADB90008ADB9000868
:1000E000ADB90008ADB90008ADB90008ADB9000858
:1000F000ADB90008ADB90008ADB90008ADB9000848
:10010000ADB90008ADB90008ADB90008ADB9000837
:10011000ADB90008ADB90008ADB90008ADB9000827
:10012000ADB90008ADB90008ADB90008ADB9000817
:10013000ADB90008ADB90008ADB90008ADB9000807
:10014000ADB90008ADB90008ADB900086574000884
:10015000ADB90008ADB90008ADB90008ADB90008E7
:10016000ADB90008ADB90008ADB90008ADB90008D7
:10017000ADB90008ADB90008ADB900080000000035
:08018000ADB90008ADB900089B
:1001880081F0004102E000BF83F0004330B54FEA40
:1001980041044FEA430594EA050F08BF90EA020FAD
:1001A8001FBF54EA000C55EA020C7FEA645C7FEA40
:1001B800655C00F0E2804FEA5454D4EB5555B8BF63
:1001C8006D420CDD2C4480EA020281EA030382EAD4
:1001D800000083EA010180EA020281EA0303362D66
:1001E80088BF30BD11F0004F4FEA01314FF4801C39
:1001F8004CEA113102D0404261EB410113F0004F4B
:100208004FEA03334CEA133302D0524263EB430301
:1002180094EA050F00F0A780A4F10104D5F1200E9F
:100228000DDB02FA0EFC22FA05F2801841F10001FA
:1002380003FA0EF2801843FA05F359410EE0A5F1CE
:1002480020050EF1200E012A03FA0EFC28BF4CF0FF
:10025800020C43FA05F3C01851EBE37101F00045B5
:1002680007D54FF0000EDCF1000C7EEB00006EEBC2
:100278000101B1F5801F1BD3B1F5001F0CD349084C
:100288005FEA30004FEA3C0C04F101044FEA4452A3
:1002980012F5800F80F09A80BCF1004F08BF5FEA2A
:1002A800500C50F1000041EB045141EA050130BD0A
:1002B8005FEA4C0C404141EB0101013C28BFB1F51C
:1002C800801FE9D291F0000F04BF01460020B1FA67
:1002D80081F308BF2033A3F10B03B3F120020CDA3A
:1002E8000C3208DD02F1140CC2F10C0201FA0CF018
:1002F80021FA02F10CE002F11402D8BFC2F1200C7D
:1003080001FA02F120FA0CFCDCBF41EA0C01904032
:10031800E41AA2BF01EB0451294330BD6FEA04047B
:100328001F3C1CDA0C340EDC04F11404C4F1200266
:1003380020FA04F001FA02F340EA030021FA04F378
:1003480045EA030130BDC4F10C04C4F1200220FACF
:1003580002F001FA04F340EA0300294630BD21FA0D
:1003680004F0294630BD94F0000F83F4801306BFD3
:1003780081F480110134013D4EE77FEA645C18BFC7
:100388007FEA655C29D094EA050F08BF90EA020F5E
:1003980005D054EA000C04BF1946104630BD91EA56
:1003A800030F1EBF0021002030BD5FEA545C05D159
:1003B8004000494128BF41F0004130BD14F5800498
:1003C8003CBF01F5801130BD01F0004545F0FE410C
:1003D80041F470014FF0000030BD7FEA645C1ABF41
:1003E800194610467FEA655C1CBF0B46024650EA78
:1003F800013406BF52EA033591EA030F41F40021A4
:1004080030BD00BF90F0000F04BF0021704730B529
:100418004FF4806404F132044FF000054FF00001FE
:1004280050E700BF90F0000F04BF0021704730B5BF
:100438004FF4806404F1320410F0004548BF404294
:100448004FF000013EE700BF42004FEAE2014FEAE9
:1004580031014FEA02701FBF12F07F4393F07F4FC4
:1004680081F06051704732F07F4208BF704793F0C7
:100478007F4F04BF41F40021704730B54FF46074DA
:1004880001F0004521F000411CE700BF50EA0102DD
:1004980008BF704730B54FF000050AE050EA010286
:1004A80008BF704730B511F0004502D5404261EBF6
:1004B80041014FF4806404F132045FEA915C3FF437
:1004C800D8AE4FF003025FEADC0C18BF03325FEAD4
:1004D800DC0C18BF033202EBDC02C2F1200300FA85
:1004E80003FC20FA02F001FA03FE40EA0E0021FAAA
:1004F80002F11444BDE600BF70B54FF0FF0C4CF498
:10050800E06C1CEA11541DBF1CEA135594EA0C0F49
:1005180095EA0C0F00F0DEF82C4481EA030621EA84
:100528004C5123EA4C5350EA013518BF52EA0335BF
:1005380041F4801143F4801338D0A0FB02CE4FF071
:100548000005E1FB02E506F00042E0FB03E54FF0A1
:100558000006E1FB03569CF0000F18BF4EF0010E99
:10056800A4F1FF04B6F5007F64F5407404D25FEA95
:100578004E0E6D4146EB060642EAC62141EA555148
:100588004FEAC52040EA5E504FEACE2EB4F1FD0C8A
:1005980088BFBCF5E06F1ED8BEF1004F08BF5FEA08
:1005A800500E50F1000041EB045170BD06F00046BA
:1005B80046EA010140EA020081EA0301B4EB5C0467
:1005C800C2BFD4EB0C0541EA045170BD41F480115F
:1005D8004FF0000E013C00F3AB8014F1360FDEBF84
:1005E800002001F0004170BDC4F10004203C35DA60
:1005F8000C341BDC04F11404C4F1200500FA05F3E3
:1006080020FA04F001FA05F240EA020001F0004283
:1006180021F0004110EBD37021FA04F642EB0601F9
:100628005EEA430E08BF20EAD37070BDC4F10C0423
:10063800C4F1200500FA04F320FA05F001FA04F2E7
:1006480040EA020001F0004110EBD37041F10001D3
:100658005EEA430E08BF20EAD37070BDC4F12005DE
:1006680000FA05F24EEA020E20FA04F301FA05F246
:1006780043EA020321FA04F001F0004121FA04F2EE
:1006880020EA020000EBD3705EEA430E08BF20EABE
:10069800D37070BD94F0000F0FD101F000464000F8
:1006A80041EB010111F4801F08BF013CF7D041EA7A
:1006B800060195F0000F18BF704703F0004652007E
:1006C80043EB030313F4801F08BF013DF7D043EA4F
:1006D8000603704794EA0C0F0CEA135518BF95EA05
:1006E8000C0F0CD050EA410618BF52EA4306D1D18C
:1006F80081EA030101F000414FF0000070BD50EAAB
:10070800410606BF1046194652EA430619D094EA34
:100718000C0F02D150EA013613D195EA0C0F05D11E
:1007280052EA03361CBF104619460AD181EA030172
:1007380001F0004141F0FE4141F470014FF000002A
:1007480070BD41F0FE4141F4780170BD70B54FF0C5
:10075800FF0C4CF4E06C1CEA11541DBF1CEA135545
:1007680094EA0C0F95EA0C0F00F0A7F8A4EB050427
:1007780081EA030E52EA03354FEA013100F088801E
:100788004FEA03334FF0805545EA131343EA1263E7
:100798004FEA022245EA111545EA10654FEA00269C
:1007A8000EF000419D4208BF964244F1FD0404F555
:1007B800407402D25B084FEA3202B61A65EB0305B1
:1007C8005B084FEA32024FF480104FF4002CB6EB6E
:1007D800020E75EB030E22BFB61A754640EA0C00EE
:1007E8005B084FEA3202B6EB020E75EB030E22BF2E
:1007F800B61A754640EA5C005B084FEA3202B6EB6F
:10080800020E75EB030E22BFB61A754640EA9C002D
:100818005B084FEA3202B6EB020E75EB030E22BFFD
:10082800B61A754640EADC0055EA060E18D04FEABB
:10083800051545EA16754FEA06164FEAC30343EA5B
:1008480052734FEAC2025FEA1C1CC0D111F4801F28
:100858000BD141EA00014FF000004FF0004CB6E721
:1008680011F4801F04BF01430020B4F1FD0C88BFC0
:10087800BCF5E06F3FF6AFAEB5EB030C04BFB6EBCB
:10088800020C5FEA500C50F1000041EB045170BDBE
:100898000EF0004E4EEA113114EB5C04C2BFD4EBEB
:1008A8000C0541EA045170BD41F480114FF0000E6F
:1008B800013C90E645EA060E8DE60CEA135594EAEB
:1008C8000C0F08BF95EA0C0F3FF43BAF94EA0C0FEE
:1008D8000AD150EA01347FF434AF95EA0C0F7FF463
:1008E80025AF104619462CE795EA0C0F06D152EAB7
:1008F80003353FF4FDAE1046194622E750EA41069B
:1009080018BF52EA43067FF4C5AE50EA41047FF4AB
:100918000DAF52EA43057FF4EBAE12E74FF0FF3C10
:1009280006E000BF4FF0010C02E000BF4FF0010CE1
:100938004DF804CD4FEA410C7FEA6C5C4FEA430C5A
:1009480018BF7FEA6C5C1BD001B050EA410C0CBFA9
:1009580052EA430C91EA030F02BF90EA020F00200B
:10096800704710F1000F91EA030F58BF994208BF72
:1009780090422CBFD8176FEAE37040F0010070472F
:100988004FEA410C7FEA6C5C02D150EA013C07D186
:100998004FEA430C7FEA6C5CD6D152EA033CD3D0D1
:1009A8005DF8040B704700BF8446104662468C46CB
:1009B8001946634600E000BF01B5FFF7B7FF0028FE
:1009C80048BF10F1000F01BD4DF808EDFFF7F4FF27
:1009D8000CBF012000205DF808FB00BF4DF808EDB2
:1009E800FFF7EAFF34BF012000205DF808FB00BFD5
:1009F8004DF808EDFFF7E0FF94BF012000205DF8F7
:100A080008FB00BF4DF808EDFFF7CEFF94BF0120AB
:100A180000205DF808FB00BF4DF808EDFFF7C4FFA4
:100A280034BF012000205DF808FB00BF4FEA410CED
:100A38007FEA6C5C02D150EA013C0AD14FEA430CD0
:100A48007FEA6C5C02D152EA033C02D14FF000000D
:100A580070474FF0010070474FEA410212F500124B
:100A680015D211D56FF47873B3EB625212D94FEAED
:100A7800C12343F0004343EA505311F0004F23FAD7
:100A880002F018BF404270474FF00000704750EA2C
:100A9800013005D111F0004008BF6FF000407047E9
:100AA8004FF00000704700BF4A0011D212F5001243
:100AB80011D20DD56FF47873B3EB62520ED44FEAAE
:100AC800C12343F0004343EA505323FA02F070472E
:100AD8004FF00000704750EA013002D14FF0FF306C
:100AE80070474FF0000070474FEA4102B2F1E0430F
:100AF80024BFB3F5001CDCF1FE5C0DD901F0004CFD
:100B08004FEAC0024CEA5070B2F1004F40EB83004C
:100B180008BF20F00100704711F0804F21D113F178
:100B28003872BCBF01F00040704741F480114FEAB1
:100B38005252C2F11802C2F1200C10FA0CF320FA3A
:100B480002F018BF40F001004FEAC1234FEAD32357
:100B580003FA0CFC40EA0C0023FA02F34FEA4303C1
:100B6800CCE77FEA625307D150EA01331EBF4FF04A
:100B7800FE4040F44000704701F0004040F0FE4065
:100B880040F40000704700BF0348044B834202D082
:100B9800034B03B118477047B8020020B802002081
:100BA800000000000548064B1B1AD90F01EBA301F2
:100BB800491002D0034B03B118477047B802002010
:100BC800B80200200000000010B5064C237843B995
:100BD800FFF7DAFF044B13B10448AFF30080012399
:100BE800237010BDB80200200000000070BE00088D
:100BF80008B5054B1BB105490548AFF30080BDE8B2
:100C08000840FFF7CFBF00BF00000000BC02002073
:100C180070BE0008CB0703D50368DA6852064DD5C5
:100C28008B0703D50368DA68920742D54B0703D5CB
:100C38000368DA68520737D50B0703D50368DA6803
:100C480012072CD5CB0603D50368DA68D20621D55E
:100C58008B0603D50368DA68D20716D54B0603D589
:100C68000368DA6812060BD5090603D50368DA6843
:100C7800920600D57047DA6842F02002DA607047C1
:100C8800DA6842F08002DA60EEE7DA6842F00102E0
:100C9800DA60E3E7DA6842F01002DA60D8E7DA6887
:100CA80042F00802DA60CDE7DA6842F00402DA605E
:100CB800C2E7DA6842F00202DA60B7E7DA6842F0BF
:100CC8004002DA60ACE700BFCB0703D50368DA68F7
:100CD80052064CD48B0703D50368DA68920741D4CF
:100CE8004B0703D50368DA68520736D40B0703D5D8
:100CF8000368DA6812072BD4CB0603D50368DA68D1
:100D0800D20620D48B0603D50368DA68D20715D536
:100D18004B0603D50368DA6812060AD4090607D514
:100D28000368DA68920603D5DA6822F02002DA60EE
:100D38007047DA6822F08002DA60EFE7DA6822F0BA
:100D48000102DA60E4E7DA6822F01002DA60D9E733
:100D5800DA6822F00802DA60CEE7DA6822F00402E4
:100D6800DA60C3E7DA6822F00202DA60B8E7DA6824
:100D780022F04002DA60ADE7022921D00368134A65
:100D880093420FD002F5006293420BD002F5406205
:100D9800934207D002F58062934203D002F5806245
:100DA800934203D1032906D0042900D070471A6A58
:100DB80042F001021A621A6A42F004021A6270478B
:100DC8000268136A43F0010313627047002C014064
:100DD800022921D00368134A93420FD002F500621A
:100DE80093420BD002F54062934207D002F580622D
:100DF800934203D002F58062934203D1032906D0BF
:100E0800042900D070471A6A22F001021A621A6A8D
:100E180022F004021A6270470268136A23F0010381
:100E280013627047002C0140022921D00368134A3D
:100E380093420FD002F5006293420BD002F5406254
:100E4800934207D002F58062934203D002F5806294
:100E5800934203D1032906D0042900D070471A6AA7
:100E680042F010021A621A6A42F040021A6270478F
:100E78000268136A43F0100313627047002C0140A4
:100E8800022921D00368134A93420FD002F5006269
:100E980093420BD002F54062934207D002F580627C
:100EA800934203D002F58062934203D1032906D00E
:100EB800042900D070471A6A22F010021A621A6ACE
:100EC80022F040021A6270470268136A23F0100386
:100ED80013627047002C0140022921D00368134A8D
:100EE80093420FD002F5006293420BD002F54062A4
:100EF800934207D002F58062934203D002F58062E4
:100F0800934203D1032906D0042900D070471A6AF6
:100F180042F480721A621A6A42F480621A62704756
:100F28000268136A43F4807313627047002C01400F
:100F3800022921D00368134A93420FD002F50062B8
:100F480093420BD002F54062934207D002F58062CB
:100F5800934203D002F58062934203D1032906D05D
:100F6800042900D070471A6A22F480721A621A6A39
:100F780022F480621A6270470268136A23F480734D
:100F880013627047002C0140022904D10268136AD9
:100F980043F4805313627047022904D10268136A2C
:100FA80023F4805313627047084B02689A420AD1AF
:100FB8001368074906480A6013F0600314BF012349
:100FC80012680B71704700231A60FFDE00040040AE
:100FD800D40200200369DA6812F4406F24D1427AFF
:100FE800022A08D0427A042A05D0427A082A02D076
:100FF8001A68110718D51A68D20602D510221A6085
:101008004272427A102A0FD0427A082A0CBF012273
:10101800202242729A6822F0004222F03F0242F0F7
:10102800040200209A60704701207047154916484D
:101038008A794B69825C9858800703EB020C1DD5AE
:10104800186880061BD504204872202058609858DC
:10105800800615D4985820F0010010B40C689850F8
:10106800DCF80410090C09042143CCF80410995841
:101078005DF8044B41F00101995070477047704783
:10108800704700BF6003002088BE0008012902697C
:101098000DD0D36C13F0C00F00D17047936823F0C4
:1010A800004323F03F0343F0080393607047D3687D
:1010B80013F4406FF1D0936823F0004323F03F030B
:1010C80043F0040393607047F0B4324C0569A542BD
:1010D8002FD1314C4FF0000C012B256184F807C04B
:1010E80024D04AB3637A082B20D0C76842690668BF
:1010F800E760626190F806C084F806C0037923713E
:101108002B6B0498266023F00F03034301292B63FC
:1011180007D0042920D0022903D16B6843F00803C3
:101128006B60082363721C48F0BC70472046F0BC13
:1011380070470020F0BC7047A37A082BF6D043799B
:101148006371022903D008231348A372EFE76B6881
:1011580043F040036B60F6E7104BE96813F80C3076
:1011680041F00301D018E9600D4981608160C760D2
:101178004168090C090431434160D15841F002012A
:10118800D150D15841F00801D150D15841F0010156
:10119800D150C6E7000104506003002088BE000853
:1011A8004001045002699368DB0707D4936823F071
:1011B800004323F03F0343F001039360704700BFEF
:1011C800036953B1012928D0042910B5944604466F
:1011D80005D0022923D0012010BD01207047DA680C
:1011E80012F4406FF7D1012242729A6822F000424D
:1011F80022F03F0242F004029A60637A042BFCD189
:10120800E379012B21D02268E168520060460AF098
:101218001DFE08236372002010BDFFF7DBBE437A72
:10122800202B05D0437A042B02D0437A102BD2D13D
:10123800E3790822012B627210D02268E16852001B
:1012480060460AF003FE002010BD2368E1685A00DA
:1012580001EB430160460AF0F9FDDAE72368E1682B
:101268005A0001EB430160460AF0F0FD002010BD72
:10127800036910B49C68E40707D59C6824F0004C07
:101288002CF03F0C4CF002049C605C68240603D5EB
:101298005C6824F080045C605C68E40603D55C68E4
:1012A80024F010045C6092B1012903D0022936D0E1
:1012B800042916D0002282710271196BC26021F0D4
:1012C8000F010260426119635DF8044B70470229FF
:1012D8004271F9D15A685DF8044B22F040025A6015
:1012E80070478179104C4269615C545824F00104BC
:1012F8005450545824F004045450545824F008040A
:101308005450545824F0020454500A445168090CAB
:1013180009045160DA6822F00302DA60CAE75A6801
:1013280022F008025A60C5E788BE000810B40369B5
:101338009A6812F0010283B007D09C6824F0004C30
:101348002CF03F0C4CF002049C6031BB996821F0F2
:10135800404121F03F0141F000419960996800291E
:10136800FCDB002304E000BFBDF8063001331BB2EC
:10137800ADF80630BDF806309BB2032BF3D942B165
:101388000269936823F0004323F03F0343F001030D
:10139800936003B05DF8044B70470129996821F008
:1013A800404121F03F0126D041F000419960996801
:1013B8000029FCDB0021ADF80610BDF8061089B243
:1013C80003290CD800BFBDF8063001331BB2ADF8B5
:1013D8000630BDF806309BB2032BF3D90369996830
:1013E80021F0404121F03F0141F040419960996866
:1013F8000029B6DAFBE741F0404199609968002975
:10140800AFDAFBE770B51D4C002604F5A87E03E0B3
:1014180094451CD0A6452FD034F902CF8445F7D186
:10142800B4F950518D42F3D1B4F9A0529542EFD19D
:10143800B4F9F0539D42EBD14FF0000C944526804F
:10144800A4F85061A4F8A062A4F8F063E2D1B4F95A
:1014580050C19C45DED1B4F9A0528542DAD1B4F925
:10146800F0538D42D6D1A6452680A4F85061A4F841
:10147800A062A4F8F063CFD170BD00BF261D002084
:101488002DE9F04F904C914B914D04F5F661D1E95F
:10149800000183B00022FFF797FA002840F0BC80D3
:1014A80004F5FC6151E90201884B0022FFF78CFA30
:1014B800002840F0B1808749844B51E9020100229D
:1014C800FFF782FA002840F04F8283497F4BD1E929
:1014D80000010022FFF778FA002840F010827F4BC5
:1014E8006FF0802103F1600243F8041B9342FBD1A3
:1014F80047F6FF79C42200217948A4F864970AF0D6
:1015080073FCC8260223C5F80C3D4FF4487200212D
:10151800C5F8086D73480AF067FC4FF448726A48CA
:1015280000210AF061FCB5F91A8DB5F9187DA4F807
:10153800207308F1FF33C3EBC3033B4403F27F334B
:1015480004EB430300229A80A5F8302DA4F8B08458
:10155800BB464346012600951A46013BC3EBC3032D
:101568005B4403F27F336048019704EB43059246DE
:1015780030F9023F5B451CD033465C4A9042F7D1B4
:10158800012B019F0BD05A49013B5A00881E01923A
:101598000AF010FC5749019A881E0AF00BFC013E1C
:1015A800B1B236B2002972D0B4F9B034B4F920B36C
:1015B800D2E7B0F950315345DED1B5F904200132F4
:1015C800B2F5004FD8D0B0F9F073B0F9A0C27B1EC5
:1015D800C3EBC303634403F27F3104EB4101B1F968
:1015E80004E07245C8DA8A8003F21F3203F55473A7
:1015F8004E4524F812B024F813A042D0731C32468A
:1016080006F1C8011EB202F5C87201F5C87124F8C6
:1016180012C024F81170B0E7B5F9180DB5F912CD5C
:10162800DFF8D8E0B5F91A1DB5F9106DB5F9143D14
:10163800B5F9162D84440E44F445B8BFF4467645F2
:1016480047F6FF77B8BF7646BE42D4BFC3EB060362
:10165800C3EB0703BC45D4BFC2EB0C02C2EB0702C5
:101668007345B8BF73467245B8BF7246BB42A8BF40
:101678003B46BA42A8BF3A461BB212B2FFF7C2FEB7
:1016880019E7334648F2C60147F6FE72BBE7009DEC
:1016980014484FF448720AF0A7FBB5F91CBDB5F819
:1016A8001E3DA4F820B3BBF1000FA4F8B034D8BF96
:1016B8004FF0FF3263DD104E00954FF0010C06F538
:1016C800C97A06F2223920E0D80300200000F03F52
:1016D800281D0020A80B0020980B0020DC0A002001
:1016E800180A0020F8060020261D0020761E00207B
:1016F800FA0600208A080020680500200080FFFF05
:10170800954214BF0FFA81FCAC460CF10040013839
:10171800514624F810B0B4F9B03426F81030013B23
:10172800B4F92003C3EBC303034403F21F3003F5EA
:10173800547334F910B034F813E0A4F8B2E44FF459
:10174800C772D548A4F822B30FFA8CF50AF032FB19
:101758004FF4C7724946D1480AF02CFBBBF1000F81
:1017680047F6FF7205F10101CADC2B46009D13F50F
:10177800004FA5F8303D03F1FF3200F0BC80531E46
:10178800C73234F91360BE4251DDB5F9103D012B63
:1017980000F01F81B5F914CDBCF1010F4FF0000026
:1017A8004FF0000100F02C8134F9123043455FDD21
:1017B800B5F9122D012A00F05681B5F9164DB5F983
:1017C800143D012C0ED1B5F9101DA5F8142DA5F85E
:1017D800163DA5F8104DA5F8121D1C4613460A46DD
:1017E800AF490020012B0CD1A5F8162DB5F8102D06
:1017F800A5F8124D00204FF08041A5F8142DA5F84A
:10180800103DBE4261DAB5F9123D012B0CD1D5F875
:10181800142DB5F8101DA5F8141DA5F8163D0020C7
:101828004FF08041C5F8102D03B0BDE8F08F80F26D
:101838002F81B5F910CDBCF1010F00F00481B5F985
:10184800143D00200021012BAED1B5F9121DA5F8D9
:10185800141DB5F8161DA5F8163D34F91230A5F873
:10186800101D43458E49A5F812CD4FF000009FDCAE
:10187800C7DAB5F9122D012A00F0D380B5F9164D53
:10188800B5F9103D012C0ED1B5F9141DA5F8102D90
:10189800A5F8163DA5F8144DA5F8121D1C461346CB
:1018A8000A4680490020012BABD1A5F8162DBE426F
:1018B800B5F9142DA5F8124DA5F8102DA5F8143D6D
:1018C8004FF000004FF080419DDBBE42ACDDB5F922
:1018D800163D012BA8D1D5F8102DB5F9141DA5F882
:1018E800101D00204FF08041C5F8142DA5F8123DB9
:1018F80003B0BDE8F08F6C4A6FF4004341E7B5F9D7
:10190800180DB5F914CDDFF8A4E1B5F91A1DB5F92C
:10191800126DB5F9163DB5F9102D84440E44F44501
:10192800B8BFF446764547F6FF77B8BF7646BE425D
:10193800D4BFC3EB0603C3EB0703BC45D4BFC2EB5C
:101948000C02C2EB07027345B8BF73467245B8BFB5
:101958007246BB42A8BF3B46BA42A8BF3A461BB232
:1019680012B2FFF74FFDBAE5B5F9180DB5F910CD6C
:10197800DFF838E1B5F91A1DB5F9166DB5F9123D5C
:10198800B5F9142D84440E44F445B8BFF4467645A1
:1019980047F6FF77B8BF7646BE42D4BFC3EB06030F
:1019A800C3EB0703BC45D4BFC2EB0C02C2EB070272
:1019B8007345B8BF73467245B8BF7246BB42A8BFED
:1019C8003B46BA42A8BF3A461BB212B2FFF71AFD0D
:1019D8007BE5B5F912CDB5F9141DB5F9163DA5F895
:1019E800161DBCF1010F4FF00101A5F8121DA5F855
:1019F80014CD2B49A5F8103D4FF000007FF4D4AE6C
:101A080034F91210B5F9124DB5F9162DA5F812CD05
:101A18008845A5F8104DA5F8142DA5F8163D28DB26
:101A280033DDB5F9144DB5F9102DB5F9163DA5F806
:101A3800122D0121A5F8141DA5F8103D1849A5F887
:101A4800164D00201EE7D5F8121DB5F9163DB5F95B
:101A580012CDA5F8143D0120A5F8160DC5F8101DE6
:101A680000201049EFE6B5F9104DB5F9142DB5F978
:101A7800163DA5F8122D0121A5F8101DA5F8143D55
:101A88000849A5F8164D00209BE6064900201CE7EA
:101A98000020002188E600BFF80600208808002002
:101AA8000000F03F0000F0BFC780FFFF0080FFFF8D
:101AB8002DE9F0479C4E9D4D56E90289002482B0DD
:101AC80022462B4640464946FEF77EFF002800F096
:101AD8008680D6E9040100220023FEF775FF00285E
:101AE80000F0F3809FED847B914FDFF860A2002621
:101AF8008DED007BCAE900675AE902233046394672
:101B0800FEF744FB7EA3D3E9002380468946FEF70F
:101B1800F3FC02460B4640464946FEF735FB854D29
:101B28002C46F4E808234AE9020130463946FEF714
:101B38002BFB75A3D3E900238046894654E90201AB
:101B4800FEF7DAFC02460B4640464946FEF71EFB06
:101B580002460B4644E90223774BDFF8F4A1002242
:101B6800FEF7CAFCDDE90023FEF710FBC5E90067B4
:101B780002460B4604460D4600207049704FFEF79A
:101B880003FB002632463B4680468946FEF73AFF6D
:101B9800002871D04AE902894946DFF8A0914046F9
:101BA8004FF0000842464B46FEF736FF002865D046
:101BB8002046294642464B464AE90289FEF7E6FA9C
:101BC80032463B4604460D46FEF71CFF002864D10A
:101BD80034463D46CAE9004502B0BDE8F0874046B4
:101BE80049464FF000084FF0000942464B46FEF7C1
:101BF800EBFEC8B1D6E9046722462B463046394683
:101C0800FEF7E2FE40B19FED427BDFF840A18DED8B
:101C1800007BCAE900456FE73046394642464B46E5
:101C2800FEF7D2FE002847D1464C0022D4E9000135
:101C38000023FEF7C9FE90B154E904013B4B002292
:101C4800FEF7C2FE58B19FED347BDFF800A10026F5
:101C58004FF040478DED007BCAE900674CE7DFF89D
:101C6800ECA0394BDAE90067002230463946FEF726
:101C780043FCCDE900013FE74AE902672F4B304FAB
:101C8800002220462946FEF781FA002632463B46C6
:101C980004460D46FEF7B6FE48B1284F00262046FA
:101CA800294632463B46FEF7B7FE002892D0CAE9DD
:101CB800006702B0BDE8F087DFF890A046464F46BF
:101CC800CDE90067CAE9008916E756E9060100224E
:101CD8000023FEF779FE0028A6D09FED117BDFF8E0
:101CE8006CA000264FF080478DED007BCAE90067A5
:101CF80002E700BFAFF300800000000000002EC024
:101D08007B14AE47E17A743FCDCCCCCCCCCCEC3F45
:101D18000000000000002E400000000000003EC04F
:101D28000000000000003E40980B00200000F03F3B
:101D38000000F0BF7829002000405F4000005940B3
:101D4800000059C0B80B002000002E408829002050
:101D5800F80B0020034B5B79B3FA83F35B094370FC
:101D6800704700BFF83300202DE9F04F2DED108BA0
:101D7800B349B44C4A79DFF8F0B2531CDBB2142BE8
:101D8800B2FA82F228BF00235209A9B08A714B71B6
:101D980022460421DBF88C0BFFF712FABBF8323D20
:101DA800A94AE1892588A6896788B4F808C0A08867
:101DB800A2F8F6579BB2A2F8EA67A2F8E8171A93B6
:101DC800A2F8F47713466289E488A3F8F2070F9023
:101DD8002046A3F8EEC7A3F8EC27A3F8F007149061
:101DE80008466446CDF864C0169517960E9215916C
:101DF8001897FEF707FB0A46014642EC171B934B60
:101E0800304603ED027BCDE92412FEF7FBFA0A46C1
:101E180001468E4B0E988E4E42EC171B83ED007BCD
:101E2800CDE91012FEF7EEFA0A46014642EC171BFE
:101E3800204606ED027BCDE90612FEF7E3FA0346DB
:101E48000C4644EC173B149886ED007BCDE904342E
:101E5800FEF7D8FA02460B4643EC172B0F9886ED8F
:101E6800027BCDE90A23FEF7CDFAC6E90401CDE9E4
:101E780008013846FEF7C6FAC6E90601CDE912019F
:101E88002846FEF7BFFA734BD3E92E45C6E9080189
:101E9800714ECDE92201224656E902012B46FEF792
:101EA80093FD08B946E902456C4C6B49502220461F
:101EB80009F0CCFFDDE910232746E7E9142366493A
:101EC800482204F1580009F0C1FFA04650223946C3
:101ED800614809F0BBFFF8E80434214658E9024597
:101EE800184622462B46CDE90201FEF777FD002869
:101EF80001F023820126D8E9008920462946424676
:101F08004B46FEF76BFD10B144464D460126DFF8FF
:101F18005CA15AE902892046294642464B46FEF70B
:101F28005DFD10B144464D460126DAE90089224696
:101F38002B4640464946FEF76FFD10B144464D46D4
:101F48000126DFF82CA15AE9028920462946424693
:101F58004B46FEF743FD10B144464D460126DAE9EB
:101F6800008922462B4640464946FEF755FD10B1EA
:101F780044464D460126DFF8FCA05AE9028922466C
:101F88002B4640464946FEF747FD10B144464D46AC
:101F980001269AED007B224651EC170BB0EE478ADA
:101FA800F0EE678A2B46FEF737FD57E902890028CD
:101FB80001F0B38151EC180B42464B46FEF70EFD7B
:101FC800002801F0C781234B254ED3E9344556E953
:101FD800020122462B46FEF7F7FC08B946E90245FE
:101FE800204C1F49C822204609F030FFC4E9328935
:101FF8001B49C02204F1D00009F028FFA046184868
:1020080004F1C801C82209F021FFF8E802674FF07F
:10201800000ACDF808A0CDF830B008F1C009B246E2
:10202800BB46F8E8024552465B4620462946FEF77D
:10203800D5FC08B30123A246AB4602931CE000BFBF
:10204800F83300207C030020D8030020480B002030
:10205800580B00200000002078310020C81800200C
:1020680028330020981B0020281D0020E818002095
:10207800F818002008190020C845D2D14BEC18AB3D
:10208800DDF808A0DDF830B0BAF1000F01D147EC57
:10209800186BB24BB24ED3E9284556E902012246E5
:1020A8002B46FEF791FC08B946E90245AD4CAC4910
:1020B800C822204609F0CAFE9DED067BA84984ED9A
:1020C800327BC02204F1D00009F0C0FEC822A44827
:1020D80004F1C80109F0BAFE2346B3EC027B04F10F
:1020E800C0028DED027B083259EC178B1D92002738
:1020F80020931E469246F6E8024542464B46204645
:102108002946FEF789FC10B1A046A9460127564585
:10211800F1D149EC198B2FB99DED027BB0EE479AAE
:10212800F0EE679A8D4B904ED3E9244556E90201AB
:1021380022462B46FEF748FC08B946E902458B4C77
:102148008949C822204609F081FE9DED047B864915
:1021580084ED327BC02204F1D00009F077FEC8225A
:10216800814804F1C80109F071FE2346B3EC027BF3
:102178008DED047B04F1C80259EC178B1C920027E3
:102188001F931E469246F6E8024542464B462046B5
:102198002946FEF741FC10B1A046A946012756453D
:1021A800F1D149EC1A8B2FB99DED047BB0EE47AA0B
:1021B800F0EE67AA694B6E4ED3E9224556E9020153
:1021C80022462B46FEF700FC08B946E90245694C51
:1021D8006749C822204609F039FE9DED0A7B64490B
:1021E80084ED327BC02204F1D00009F02FFEA24614
:1021F8005F4804F1C801C82209F028FEBAEC027B46
:102208008DED067B04F1C80359EC178B5646CDF8C3
:1022180028A01B9300279A46F6E8024542464B46FB
:1022280020462946FEF7F8FB10B1A046A94601272B
:10223800B245F1D1DDF828A049EC1B8B2FB99DEDF3
:10224800067BB0EE47BAF0EE67BA444B4A4ED3E984
:10225800204556E9020122462B46FEF7B5FB08B990
:1022680046E90245454C4449C822204609F0EEFD9E
:102278009DED087B404984ED327BC02204F1D000FB
:1022880009F0E4FD27463C4804F1C801C82209F0DA
:10229800DDFDB7EC027B4FF000088DED087B04F103
:1022A800C803CDF830A0C24659EC178B3E460A97B2
:1022B8001E931F46F6E8024542464B4620462946ED
:1022C800FEF7AAFB18B1A046A9464FF0010ABE4284
:1022D800F0D149EC1C8BD0460A9FDDF830A0B8F14C
:1022E800000F05D19DED087BB0EE47CAF0EE67CA36
:1022F8001A4B234ED3E93045D6E9000122462B4636
:10230800FEF762FB08B9C6E900451E4C1E4950227B
:10231800204609F09BFDDDE912232646E6E9142351
:102328001949482204F1580009F090FDA0465022AE
:102338003146154809F08AFDF8E80434214658E981
:102348000245184622462B46CDE90C01FEF746FB0E
:10235800002800F0DC8701230A9317E00000002022
:10236800D82E002018140020182D0020F810002066
:10237800382C0020680F0020582B0020D80D002092
:10238800D831002068190020E0310020D8E9008900
:1023980022462B4640464946FEF73EFB18B101232C
:1023A80044464D460A93C84951E9028922462B46BC
:1023B80040464946FEF730FB18B1012344464D46D6
:1023C8000A93C14BD3E9008922462B464046494629
:1023D800FEF722FB18B1012344464D460A93BB4938
:1023E80051E9028922462B4640464946FEF714FB2E
:1023F80018B1012344464D460A93B44BD3E90089EA
:102408002046294642464B46FEF7E8FA18B1012312
:1024180044464D460A93AE4B53E902892046294665
:1024280042464B46FEF7DAFA18B1012344464D46B8
:102438000A93A74BD3E900892046294642464B46D2
:10244800FEF7CCFA002800F0558716ED027B4246CD
:1024580051EC170B4B468DED0C7BFEF7DDFA00288F
:1024680000F051879B4B9C4ED3E9324556E9020157
:1024780022462B46FEF7A8FA08B946E90245974CCA
:102488009549C822204609F0E1FC9DED0C7B924954
:1024980084ED327BC02204F1D00009F0D7FC264637
:1024A8008D4804F1C801C82209F0D0FCB6EC027BC3
:1024B8008B4B0C9703F5B75808F118084FF0000933
:1024C8008DED0A7B4746CDF884A0CA4659EC178B98
:1024D800F6E8024542464B4620462946FEF77EFA74
:1024E80018B1A046A9464FF0010AB742F0D17C4A7C
:1024F8000C9F49EC1D8B1823D146C2F86838DDF8CB
:1025080084A0B9F1000F05D19DED0A7BB0EE47DA42
:10251800F0EE67DABBF8343D724CB0EE480AF0EEE4
:10252800680A9DB21A9B238009F07AFA9FED641B12
:1025380009F040FA59EC108B10EE100A0022002323
:102548004946FEF74BFA002841F0C7804046494605
:10255800FEF7AAFA80B26080B0EE490AF0EE690A86
:1025680009F05EFA9FED561B09F024FA59EC108B1E
:1025780010EE100A002200234946FEF72FFA002821
:1025880041F0A28040464946FEF78EFA80B2A0800C
:10259800B0EE4A0AF0EE6A0A09F042FA9FED481BCB
:1025A80009F008FA59EC108B10EE100A00220023EB
:1025B8004946FEF713FA002841F07D804046494617
:1025C800FEF772FA80B2E080B0EE4B0AF0EE6B0ACA
:1025D80009F026FA9FED3A1B09F0ECF959EC108B3B
:1025E80010EE100A002200234946FEF7F7F90028EA
:1025F80041F0588040464946FEF756FA80B220819D
:10260800B0EE4C0AF0EE6C0A09F00AFA9FED2C1BAA
:1026180009F0D0F959EC108B10EE100A00220023B3
:102628004946FEF7DBF9002841F0B98040464946A3
:10263800FEF73AFA80B26081B0EE4D0AF0EE6D0A0C
:1026480009F0EEF99FED1E1B09F0B4F959EC108B57
:1026580010EE100A002200234946FEF7BFF90028B1
:1026680041F0948040464946FEF71EFA80B2BBF816
:10267800363D184AA0819BB20C93B2F8663023828B
:10268800E581D2E92C45184E224656E902012B462F
:10269800FEF79AF908B946E90245144C1249C822CE
:1026A800204609F0D3FB9DED107B0F4984ED327B6A
:1026B800C02204F1D00009F0C9FBC82218E000BF0D
:1026C800000000000000F040881900209819002040
:1026D800A81900200000002048320020081A002015
:1026E800D8030020900300209830002038170020DD
:1026F800C948A11809F0AAFB94ED007B04F1C008B1
:10270800A4F5326308F108084FF000098DED0A7B43
:1027180083ED007B1097CDF868A04746CA4659EC70
:10272800178B04F10806F6E8024542464B46204658
:102738002946FEF753F918B1A046A9464FF0010AF9
:10274800BE42F0D149EC178B49EC198BD146109F4A
:10275800DDF868A0B9F1000F01F03280AF4B83EDCE
:10276800007B9DED027BAE4B0A97002603ED027BB2
:10277800CDF840A01D9D209CB24657EC176BF4E89D
:10278800028932463B4640464946FEF727F918B1CA
:1027980046464F464FF0010AA542F0D147EC176B69
:1027A80047EC1A6B56460A9FDDF840A0002E00F051
:1027B800FF879B4B03ED027B9DED047B984B0297B3
:1027C800002683ED007BCDF828A01C9D1F9CB246F7
:1027D80057EC176BF4E8028932463B4640464946B7
:1027E800FEF7FCF818B146464F464FF0010AA542DD
:1027F800F0D147EC176B47EC1B6B5646029FDDF890
:1028080028A0002E00F0F487854B83ED007B9DED1A
:10281800067B844E04974FF0000806ED027BCDF846
:1028280008801B9F59EC178BFAE802454046494639
:1028380022462B46FEF7F0F818B10123A046A94618
:1028480002935745F0D149EC178B49EC188BDDF80A
:102858000880049FB8F1000F00F0C28706ED027BE4
:102868009DED087B4FF0000886ED007BCDF80880D1
:102878005AEC179BDDF87880F7E802454846514640
:1028880022462B46FEF7C8F818B10123A146AA46EE
:102898000293B845F0D1DDF80880B8F1000F00F0D8
:1028A8009B87C6E9009A604B604ED3E92A4556E9F2
:1028B800020122462B46FEF787F808B946E9024589
:1028C8005B4C5A49C822204609F0C0FA9DED127B9C
:1028D800564984ED327BC02204F1D00009F0B6FAE3
:1028E800A046C822514804F1C80109F0AFFAB8EC73
:1028F800027B504B0022029203F504628DED047BAB
:1029080003F5945302ED027B183357EC176B4AEC2E
:102918001C9B9A46F8E8024532463B462046294623
:10292800FEF75CF818B1012326462F460293C245EC
:10293800F0D1029B5AEC1C9B002B00F04987374BC7
:1029480043E90267B0EE490AF0EE690ABBF8383D80
:102958000C9A1FFA83F8384B1A8009F061F89FED3A
:102968002C1B09F027F855EC104B10EE100A00222A
:1029780000232946FEF732F8002840F0FE8620465C
:102988002946FEF791F880B22B4BB0EE4A0AF0EEDA
:102998006A0A588009F044F89FED1D1B09F00AF8EF
:1029A80055EC104B10EE100A002200232946FEF7C2
:1029B80015F8002840F0D88620462946FEF774F816
:1029C80080B21D4BB0EE4B0AF0EE6B0A988009F00E
:1029D80027F89FED0F1B08F0EDFF55EC104B10EE9C
:1029E800100A002200232946FDF7F8FF002840F0CE
:1029F800B28620462946FEF757F880B20E4BB0EE55
:102A0800480AF0EE680AD88018E000BFAFF30080EB
:102A1800000000000000F04098300020180C002052
:102A2800280C0020080C002000000020B82F0020EF
:102A3800A8150020D8030020A403002008F0F0FF08
:102A48009FEDC71B08F0B6FF55EC104B10EE100AAF
:102A5800002200232946FDF7C1FF002840F07286B6
:102A680020462946FEF720F880B2BF4B4AEC109B5F
:102A7800188108F0D5FF9FEDBA1B08F09BFF55ECB5
:102A8800104B10EE100A002200232946FDF7A6FF7E
:102A9800002840F04E8620462946FEF705F880B209
:102AA800B14B47EC106B588108F0BAFF9FEDAC1B97
:102AB80008F080FFAD4B55EC104B03ED020B10EE08
:102AC800100A002200232946FDF788FF002840F05D
:102AD800278620462946FDF7E7FF80B2A44BA54A82
:102AE800A1499B79B2F86C208881A1F80E800A82EE
:102AF80043B19DED247BA04B03ED027B9DED227B32
:102B080083ED007B9B4B1598B3F860409B4D04FB0D
:102B180000F0FDF777FC9A4B0022FDF7EDFC45E944
:102B28000201179804FB00F0FDF76CFC944B00229F
:102B3800FDF7E2FCE5E804010E98029504FB00F0BD
:102B4800FDF760FC8E4B0022FDF7D6FC45E902013B
:102B5800199804FB00F0FDF755FC894B0022FDF79E
:102B6800CBFCC5E900011498864D04FB00F0FDF785
:102B780049FC834B0022FDF7BFFC45E902010F9891
:102B880004FB00F0FDF73EFC7D4B0022FDF7B4FC92
:102B9800C5E90001189804FB00F0FDF733FC784BF9
:102BA8000022FDF7A9FCC5E90201169804FB00F014
:102BB800FDF728FC724B0022FDF79EFC724B0026A5
:102BC800C3E90066C3E90266704BC3E90066704B4F
:102BD800C5E904011E606F496F4BD1E900011E6011
:102BE80000226E4BFDF7D2FA6D4B6A4AA3F864686F
:102BF80004460D460127C2E90045C3F8607883F80A
:102C0800666800220023FDF7E9FE80462946204633
:102C1800B8F1000F40F07D85FDF71EFF0446072C34
:102C280009DD604A82FB04322244E317C3EBA203A6
:102C3800C3EBC303E41A032C4FF00003C4BFC4F171
:102C4800070447469C42ADF89C308DF89E3040F30F
:102C58004D85002F01F0FD83514A131B032C93F877
:102C6800663882F86638A2EB040393F8653882F870
:102C78006538A2EB040393F8643882F86438A2EB51
:102C8800040393F8633882F863380AD0131B012CC5
:102C980093F8623882F8623804BF92F8603882F894
:102CA80061383F4B2246002103F50660C3F86848A7
:102CB80009F09AF83A4B93F96048002C41F02884BF
:102CC800374D394A95F965A89461BAF100034FF474
:102CD800007118BF01239162180395F96358DB024C
:102CE80080F4805783F400664FF48041A4462E4A4E
:102CF800C2F818C09162002D00F0A1844FF4807CC6
:102D08000021C2F818C091624FF4004C264AC2F85C
:102D180018C0916290619762002C00F08684234A63
:102D28004FF480500021906191624FF400501C4A8A
:102D3800174682F8FC4782F8FD5782F8FE4782F86A
:102D4800FFA782F800A882F8014882F8025882F8A2
:102D58000348154A906191629361966228E000BF2A
:102D6800000000000000F040A4030020380C002000
:102D7800F83300200000002008290020880B0020DC
:102D88000000503EA80B002000340020B8030020AB
:102D980014340020A8290020103400200000F03F3F
:102DA800D8030020932449920010004800040048EA
:102DB8009BF83D3DC7F8F827002B00F00984DFF8A1
:102DC800F09209F1100709F12008AA4EDFF8D8C2DD
:102DD800B646BEE80F00ACE80F00BEE80F00ACE84E
:102DE8000F00BEE80F00ACE80F009EE80F008CE86B
:102DF8000F0056E91001A04B0022FDF7E5FD002861
:102E080040F0D683012C04D19C4B53E90223C6E938
:102E1800102359E90201984B0022FDF7D5FD00283F
:102E280040F0B583012D05D1944A954BD2E90001B4
:102E380043E90201D9E900018F4B0022FDF7C4FDE7
:102E4800002840F09383012C05D1029A8C4B52E95B
:102E58000201C3E9000157E90201874B0022FDF78F
:102E6800B3FD002840F07083BAF1010F05D1029A32
:102E7800844BD2E9000143E90201D7E900017E4B06
:102E88000022FDF7A1FD002840F04C83BAF1010FA4
:102E980005D17D4A7B4B52E90201C3E9000158E99B
:102EA8000201754B0022FDF78FFD002840F02983B1
:102EB800012C05D1744A754BD2E9000143E902019E
:102EC800D8E900016C4B0022FDF77EFD002840F098
:102ED8000783012D05D16E4A6C4B52E90201C3E903
:102EE800000156E90201644B0022FDF76DFD002840
:102EF80000F0EC82664A674BD2E90001012C43E9F5
:102F0800020101F0D58253E91223FDF73DF9624B26
:102F1800C3E9000159E90201574B0022FDF754FDAE
:102F2800002840F0B7825D4B93ED007BB0EE479AE6
:102F3800F0EE679A57E902014F4B0022FDF744FD76
:102F4800002840F07C82564B93ED007BB0EE47AAF8
:102F5800F0EE67AAD7E90001474B0022FDF734FDE0
:102F6800002840F050824F4B13ED027BB0EE47BA79
:102F7800F0EE67BAD8E900013F4B0022FDF724FDC7
:102F8800002840F02482444B13ED027BB0EE47CA80
:102F9800F0EE67CA444C374D0FCC0FC50FCC0FC5A8
:102FA8000FCC0FC594E80F0085E80F0094F9640072
:102FB800FDF738FA46E9100194F96500FDF732FA91
:102FC80049E9020194F96600FDF72CFA46E90C017B
:102FD80094F96700FDF726FA47E9020194F96800B9
:102FE800FDF720FA46E9080194F96900FDF71AFA95
:102FF80048E9020194F96A00FDF714FA46E9040168
:1030080094F96B00FDF70EFA402246E9020104F13B
:103018001000002108F0E8FE244B14ED087B53E96A
:103028000245B0EE47DAF0EE67DA51EC170B2246AC
:103038002B46FDF7F1FC20B10F4B0299002241E924
:103048000223184B93ED007B184BB0EE47EAF0EEE5
:1030580067EA93ED006B51EC170B53EC162B8DEDD3
:10306800046BFDF7D9FC28B3034B07490022C1E9DB
:1030780000231FE0E82700200000F03F880B002015
:103088003828002048280020A80B002058280020B5
:10309800B80B0020A8280020780B0020480B00203F
:1030A800580B0020680B0020400B00201829002036
:1030B800B8270020B24953EC192BD1E90001FDF7DC
:1030C8008DFC002800F07E81AE4BAF490022C1E99B
:1030D8000023CDE90623AA4B53E9020153EC1C2B2C
:1030E800FDF77CFC20B1A74BA849002241E9022347
:1030F800A74953EC1B2B51E90201FDF76FFC00288F
:1031080000F0BE8100230A934FF40043A1490893BD
:103118009C4B002241E902239D4BD3E9000153EC6B
:103128001A2BFDF75BFC002800F0A581002302990B
:103138000C93944B0022C1E900234FF4005A964B9C
:1031480093ED007B954BB0EE478AF0EE678AD3E9A2
:10315800006751EC170B32463B46FDF75DFC20B18A
:10316800884B8A490022C1E900238D4B13ED027B6D
:103178008A4BB0EE47FAF0EE67FA53E9028951EC50
:10318800170B42464B46FDF747FC20B17D4B7E4965
:10319800002241E9022353EC1F2B51EC180BFCF7DA
:1031A800F5FF53EC1E2BFCF7F1FF53EC1D2BFCF73E
:1031B800EDFF41EC170BDDE904232046294655ECC9
:1031C800174BFCF7E3FF42464B46FCF7DFFF32465E
:1031D8003B46FCF7DBFF64A3D3E90023FDF78CF93A
:1031E80002460B4620462946FDF7F8FB002840F02A
:1031F8004C819FED5F7B8DED027B6A4B0C9A03ED52
:10320800027B694BDDE90601C3F818A09A62002227
:103218000023FDF7D9FB002800F0A0805B4B0022BB
:1032280053E902010023FDF7CFFBB0FA80F0400913
:10323800830383F480405C4A5C4C9361089B9062F2
:1032480093610A9B93625A4B5A4AC3F8F847D2E9EA
:10325800000100230022FDF7B7FBB0FA80F0400917
:10326800554B564DC000A06180F00800A0629868D8
:10327800FDF7EAF840A3D3E90023FDF73DF955E946
:103288000223FCF783FF4E4BD4F810C09BF83A4D4D
:103298001A69474B06460F46FF2C45E90267C3F8F3
:1032A8006C2803D00134E4B28BF83A4D9BF82C3DDE
:1032B80013F0200900F0A68203F01F03013B0CF075
:1032C800040802F04002112B01F20782DFE813F034
:1032D8006D09FA0AB40A130B100AA40B5A0BCD0B8A
:1032E80085098B09B909C909DC09030A340AA40A42
:1032F8005809DA0856E902892046294642464B46CB
:10330800FDF76CFBF0B1CDE90C89FFF7ABB80023F2
:10331800DDE90C450A93FFF739B822462B464046AB
:103328004946FDF779FB00287EF44DAE002E41F0AA
:10333800C383DDE90289FEF746BEDDE902450026C2
:10334800FEF7D9BD0A9B002B3FF48CA8CDE90C45AC
:10335800FFF788B859EC188BFEF735BE4FF4804359
:1033680069E700BFAFF30080333333333333E33FD0
:1033780000000000000000007B14AE47E17A743FB3
:10338800382900200000F03F880B0020B80B0020EF
:1033980028290020A80B0020780B002048290020AD
:1033A800480B0020380C00200008004800040048A2
:1033B800D803002000000020CC030020582900205A
:1033C800001000489FEDA27B8DED067B83E6A449A3
:1033D800A44B51E902010022FDF78EF8A24B0446E6
:1033E8000D460022D3E900019E4BFDF785F80B46F8
:1033F800024629462046FCF7C9FE994B41EC1C0BB6
:1034080043E90201C6E59949964B51E902010022B8
:10341800FDF772F8964B04460D460022D3E90001E9
:10342800904BFDF769F80B46024629462046FCF703
:10343800ADFE8E4B41EC1B0B43E902019AE58D4929
:10344800884BD1E900010022FDF756F8884B044665
:103458000D46002253E90201824BFDF74DF80B4659
:10346800024629462046FCF791FE824B41EC1A0B96
:10347800C3E900016EE54FF4005382460C935EE603
:103488004FF4004308900A9346E69FED737B8DED59
:10349800027BB2E67849734BD1E900010022FDF7BF
:1034A8002BF8764B04460D46002253E902016D4B7A
:1034B800FDF722F80B46024629462046FCF766FE31
:1034C8006D4B41EC190BC3E9000133E5012C7FF486
:1034D80021AD6B4A6B4BD2E9000143E9020119E5C2
:1034E800674A694B52E90201012DC3E9000100F066
:1034F800FD8753E91023FCF747FE594B43E90201C6
:10350800EFE4624A604BD2E90001012C43E9020171
:1035180000F0F88753E91223FCF736FE534BC3E952
:103528000001CDE4594A5A4B52E90201BAF1010FA0
:10353800C3E9000100F0E08753E91023FCF724FEFB
:103548004A4B43E90201AAE4029A514BD2E900012D
:10355800BAF1010F43E9020100F0C28753E91223CF
:10356800FCF712FE434BC3E9000186E4029A494B7B
:1035780052E90201012CC3E9000100F0AB8753E9CD
:103588001023FCF701FE3B4B43E9020163E4424A86
:10359800404BD2E90001012D43E9020100F0948774
:1035A80053E91223FCF7F0FD334BC3E9000141E472
:1035B800394B53E90201012CC6E9200100F07E874E
:1035C800D6E91023FCF7E0FD2B4B43E9020120E488
:1035D8002046FCF727FFDFF8C8800F460646C1469D
:1035E800E9E804672846FCF71DFF02460B46C9E9CF
:1035F800006749E902235046CDE90423FCF712FF8E
:10360800DDE90423C8E90C230122C8E90E67C8E9EB
:103618000A67C8E90601C8E9080108F120078BF81C
:103628003D2D08F13008FFF7D0BB1C4A4FF48051FC
:103638009461204691624FF40051FFF778BB4FF434
:1036480080719561AC4691624FF40041FFF75EBB13
:103658000000000000000000000000000000F03F33
:10366800780B00200000E03F18280020680B00209D
:1036780008280020580B0020480B0020F8270020BD
:10368800B80B00206828002098280020A80B0020EC
:103698008828002078280020880B00200004004893
:1036A800A8270020404609F10041FDF7FDF94042F6
:1036B80080B2FEF7A4BF404609F10041FDF7F4F9D6
:1036C800404280B2FEF77FBF404609F10041FDF756
:1036D800EBF9404280B2FEF75ABF404609F100417B
:1036E800FDF7E2F9404280B2FEF735BF4FF40066BD
:1036F8004FF4805718469A461D460124404A4FF415
:10370800007C0021C2F818C091624FF4804CFFF78A
:10371800EEBAFDF7A1F9B84644423746FFF77FBA3B
:10372800204605F10041FDF7BFF9404280B2FFF79E
:10373800D5B9204605F10041FDF7B6F9404280B2FF
:10374800FFF7AEB9204605F10041FDF7ADF940425B
:1037580080B2FFF78AB9204605F10041FDF7A4F9C8
:10376800404280B2FFF74AB9204605F10041FDF713
:103778009BF9404280B2FFF724B9204605F1004189
:10378800FDF792F9404280B2FFF7FEB8404609F1D2
:103798000041FDF789F9404280B2FEF768BF404614
:1037A80009F10041FDF780F9404280B2FEF743BFBE
:1037B8009DED027BB0EE47AAF0EE67AAFEF7FCBFCC
:1037C8009DED0A7BB0EE479AF0EE679AFEF7C9BF07
:1037D800DDE90467FFF7B6B8DDE9089AFFF763B8D3
:1037E8009DED067BB0EE478AF0EE678AFFF738B8A2
:1037F8009DED047BB0EE47BAF0EE67BAFFF707B865
:103808000010004823F03F0343F02C038BF82C3DB5
:10381800C74BCBF8183D0125C64BCBF81C3D494694
:10382800C548CBF8149DCBF8105D4FF4A86208F09A
:10383800DBFAC24B49464FF0020A4C4647F6FF7C7A
:1038480003F5805E0122002328B2002C00F0768266
:10385800614500F077820E4606F1A8082BF816504D
:1038680006F5A87706F5FC760FFA82F901312BF8F0
:10387800189009B22BF817402BF816909BB16145A8
:1038880000F06B820E4606F1A8072BF816002BF8FD
:10389800172006F5A87706F5FC762BF817000131F6
:1038A8002BF8163009B2062C00F07982614500F039
:1038B8005F820E4606F1A8082BF8165006F5A87781
:1038C80006F5FC760FFA82F90131062B2BF81890D1
:1038D80009B22BF817A02BF816901BD0614500F001
:1038E80055824E1C029601F1A8070E4601F5A878EC
:1038F80001F5FC79BDF908102BF816009E1C013360
:10390800072B2BF817202BF8180002F101022BF8CF
:1039180019609AD101340AF10103072C05F1010558
:103928001FFA83FA8ED14FF001138349CBF8203D5B
:10393800CBF8243D0133CBF8283D4FF4A86201238E
:10394800ABF81A3D881808F081FA7D4F7D4B0022AC
:1039580053E902017C4BFDF737F8002840F08A82D2
:103968007A4BA3F1700293ED007B0292A3F16002FF
:103978000492A3F120020C92A3F150020692B0EE39
:1039880047AAF0EE67AAA3F1400297ED007B53E93E
:103998000245B0EE479AF0EE679A57E90289089215
:1039A800A3F130020A92A3F1100A049B53E90267BB
:1039B800D3E9000132463B46FCF7E6FB58A3D3E9BE
:1039C8000023FCF799FD32463B46FCF7DFFB029AE1
:1039D8005F4B52E90267C3E90001D2E900013B46A7
:1039E8003246FCF7D1FB4EA3D3E90023FCF784FD54
:1039F80032463B46FCF7CAFB554B43E90201069B9E
:103A080053E90267D3E9000132463B46FCF7BCFBA9
:103A180045A3D3E90023FCF76FFD32463B46FCF78C
:103A2800B5FB0C9A4B4B52E9026743E90201D2E914
:103A380000013B463246FCF7A7FB3BA3D3E9002332
:103A4800FCF75AFD32463B46FCF7A0FB414BC3E965
:103A580000010A9B53E90267D3E9000132463B465D
:103A6800FCF792FB3C4B0022FCF746FD32463B46F6
:103A7800FCF78CFB089A394B43E9020152E90267CB
:103A8800D2E900013B463246FCF77EFB324B00226E
:103A9800FCF732FD32463B46FCF778FB2F4B2246BB
:103AA800C3E900012B4651EC1A0BFCF76DFB1CA374
:103AB800D3E90023FCF720FD22462B46FCF766FBE2
:103AC8005AE90245264B2246C3E900012B46DAE9AA
:103AD8000001FCF759FB12A3D3E90023FCF70CFD06
:103AE80022462B46FCF752FB1E4B04460D4600228D
:103AF80040464946FCF790FF002800F080811A4BA9
:103B0800DFED1A8A404649460022FCF71FFE184B93
:103B18000022FCF73BFB06460F462BE0AFF3008084
:103B28003D0AD7A3703DEA3FAE47E17A14AED73FCE
:103B38000100020002000100281D0020280D0120BC
:103B4800F80B0020E80B00200000F03F282A002096
:103B580018290020282900200000D03F38290020FB
:103B68004829002000002440000008400000000010
:103B780000805040FCF7B8FF08EE100A4FF000082C
:103B88004FF00009AE4B43E90245AE4B55EC194BDB
:103B980043E9026743E9088940F20113ABF83B3D6A
:103BA80019EE100AA84B00222946FCF735FF002819
:103BB80000F00381A54B2946002219EE100AFCF7F4
:103BC800C5FDA34B0022FCF7E1FA04460D46FCF7BD
:103BD8008BFFDFEDA06A07EE100A002600279E4B38
:103BE800B5EEC08AF1EE10FA43E90245C3E9006771
:103BF800DBF8D03B00F11584DFED987AB4EE678AE4
:103C0800F1EE10FAC8BFB0EE678A19681A79CB6A64
:103C1800DFED925AC86BB2FA82F25209134407EEEA
:103C2800903AF8EE677A67EE887A87EEA56AFCEE36
:103C3800C67A17EE903A8342DFED887A18BFCB63D5
:103C4800CB6AF4EE678AF1EE10FA1344C8BFF0EEBF
:103C5800678AF0EE675A07EE903AF8EE677A0A6CD0
:103C680067EEA87AB5EEC07A87EEA56AFCEEC67A4A
:103C780017EE903A934218BF0B64F1EE10FADBF896
:103C8800C03B00F1CB83DFED757AB4EE677AF1EED5
:103C980010FAC8BFB0EE677A19681A79CB6A9FED37
:103CA8006F6A486B6E4CB2FA82F25209134407EEFF
:103CB800903AF8EE677A67EE877A87EE867AFCEEB6
:103CC800C77A9FED667A17EE903A834218BF4B6326
:103CD800CB6A134407EE903AF4EE476AF1EE10FA15
:103CE800F8EE677AC8BFF0EE476A67EEA67AF0EE9C
:103CF800476A87EEA67A8A6BFCEEC77A17EE903A87
:103D0800934218BF8B635749C1F8F84756490022B8
:103D1800D1E902010023FCF757FEB0FA80F0400910
:103D2800C00180F08003A061A36201F05BFD29B0AF
:103D3800BDEC108BBDE8F04F01F03CBE002B7FF4CA
:103D48009EADB3E5494EA6F8FC5F16B2AEF89C42AC
:103D5800AEF84C61AEF8EC632BB34449062CA1F8DD
:103D6800FC0FAEF84C21AEF89C02AEF8EC331FD035
:103D78003E49062BA1F8FC5F11B2AEF89CA2AEF842
:103D88004C11AEF8EC1315D047F6FF7148F2F6194E
:103D980048F24E1848F2A60747F6FE76ACE5062B21
:103DA8007FF49CADBFE5062CF0D0AEF89CA2EBE703
:103DB800062BE9D147F6FF71ACE52D4B19EE100A39
:103DC80000222946FCF70AFE002800F02E831F4B2C
:103DD8002946002219EE100AFCF7B8FC1C4B0022F9
:103DE800FCF7D2F921F0004739460646FCF77CFE7D
:103DF800002406EE900A9FED177A0025EFE61C4B8B
:103E0800002240464946FCF7E9FD002800F01783E8
:103E18000E4B9FED108A404649460022FCF796FC5F
:103E28000B4B0022FCF7B0F921F0004949468046C7
:103E3800FCF75AFE002608EE900A0027A2E600BF0B
:103E480048290020380C00200000244000000840C9
:103E58000080504000000000280C00200000C842EC
:103E6800000C0048D803002000000020280D012085
:103E7800000024C0CE4B13ED027BB0EE47DAF0EE23
:103E880067DA93ED007BB0EE47AAF0EE67AA93EDF0
:103E9800047BB0EE47EAF0EE67EA93ED027BB0EE02
:103EA80047BAF0EE67BA13ED047BB0EE479AF0EE2E
:103EB800679A13ED067BB0EE47FAF0EE67FA93EDDA
:103EC800067BB0EE47CAF0EE67CA93ED087BB0EE0A
:103ED800478AF0EE678AB74E0296D6E9004559EC54
:103EE8001D8B1DEE102A4B4620462946FCF776FD11
:103EF800C0B1A3A3D3E9002320462946FCF7FCFA66
:103F0800A1A3D3E9002304460D461DEE100A494635
:103F1800FCF7F2FA02460B4620462946FCF736F92A
:103F2800C6E90001029E56E9024559EC1D8B1DEEBB
:103F3800102A4B4620462946FCF76EFDC0B190A3D7
:103F4800D3E9002320462946FCF7D6FA8EA3D3E905
:103F5800002304460D461DEE100A4946FCF7CCFA2C
:103F680002460B4620462946FCF710F946E90201AD
:103F7800914E0496D6E9004559EC1E8B1EEE102A88
:103F88004B4620462946FCF729FDC0B17CA3D3E95E
:103F9800002320462946FCF7AFFA7BA3D3E9002388
:103FA80004460D461EEE100A4946FCF7A5FA0246DD
:103FB8000B4620462946FCF7E9F8C6E90001049EAD
:103FC80056E9024559EC1E8B1EEE102A4B46204638
:103FD8002946FCF721FDC0B169A3D3E90023204697
:103FE8002946FCF789FA68A3D3E9002304460D465D
:103FF8001EEE100A4946FCF77FFA02460B46204699
:104008002946FCF7C3F846E902016C4E0C96D6E93E
:10401800004559EC1A8B1AEE102A4B4620462946C1
:10402800FCF7DCFCC0B15AA3D3E90023204629469B
:10403800FCF762FA58A3D3E9002304460D461AEEAA
:10404800100A4946FCF758FA02460B46204629460C
:10405800FCF79CF8C6E900010C9E56E9024559ECAC
:104068001A8B1AEE102A4B4620462946FCF7D4FC38
:10407800C0B147A3D3E9002320462946FCF73CFA00
:1040880045A3D3E9002304460D461AEE100A494613
:10409800FCF732FA02460B4620462946FCF776F82A
:1040A80046E90201464E0696D6E9004559EC1B8BB7
:1040B8001BEE102A4B4620462946FCF78FFCC0B160
:1040C80033A3D3E9002320462946FCF715FA32A387
:1040D800D3E9002304460D461BEE100A4946FCF7B7
:1040E8000BFA02460B4620462946FCF74FF8C6E96C
:1040F8000001069E56E9024559EC1B8B1BEE102A5F
:104108004B4620462946FCF787FCC0B120A3D3E9DB
:10411800002320462946FCF7EFF91FA3D3E9002323
:1041280004460D461BEE100A4946FCF7E5F902461F
:104138000B4620462946FCF729F846E90201214E9C
:104148000896D6E9004559EC198B19EE102A4B460A
:1041580020462946FCF742FC00283DD010A3D3E9AD
:10416800002320462946FCF7C7F90FA3D3E900230B
:1041780004460D4619EE100A4946FCF7BDF923E03E
:104188009A9999999999E93F9A9999999999C93FC9
:10419800666666666666EE3F9A9999999999A93F07
:1041A800CDCCCCCCCCCCEC3F9A9999999999B93F84
:1041B800580B0020B8290020C8290020082A002010
:1041C800D8290020E829002002460B462046294627
:1041D800FBF7DCFFC6E90001089E56E9024559ECE9
:1041E800198B19EE102A4B4620462946FCF714FC79
:1041F800C0B1D1A3D3E9002320462946FCF77CF9B6
:10420800CFA3D3E9002304460D4619EE100A494608
:10421800FCF772F902460B4620462946FBF7B6FF23
:1042280046E90201CC4E0A96D6E9004559EC1C8BAA
:104238001CEE102A4B4620462946FCF7CFFBC0B19E
:10424800BDA3D3E9002320462946FCF755F9BCA3B2
:10425800D3E9002304460D461CEE100A4946FCF734
:104268004BF902460B4620462946FBF78FFFC6E965
:1042780000010A9E56E9024559EC1C8B1CEE102AD7
:104288004B4620462946FCF7C7FBC0B1AAA3D3E991
:10429800002320462946FCF72FF9A9A3D3E90023D8
:1042A80004460D461CEE100A4946FCF725F902465D
:1042B8000B4620462946FBF769FF46E90201DFF86D
:1042C800BCA2DAE9004559EC1F8B1FEE102A4B46B9
:1042D80020462946FCF782FBC0B19BA3D3E9002303
:1042E80020462946FCF708F999A3D3E90023044698
:1042F8000D461FEE100A4946FCF7FEF802460B462B
:1043080020462946FBF742FFCAE900015AE902455F
:1043180059EC1F8B1FEE102A4B4620462946FCF706
:104328007BFBC0B188A3D3E9002320462946FCF7CC
:10433800E3F887A3D3E9002304460D461FEE100ACD
:104348004946FCF7D9F802460B4620462946FBF7B2
:104358001DFF4AE90201814E96ED007B59EC188B4E
:10436800B0EE47AAF0EE67AA55EC174B18EE102AE4
:1043780017EE100A4B462946FCF730FBD8B172A35A
:10438800D3E900231AEE100A2946FCF7B5F870A302
:10439800D3E9002304460D4618EE100A4946FCF7F7
:1043A800ABF802460B4620462946FBF7EFFEC6E966
:1043B800000141EC1A0B56E9024553EC182B204634
:1043C8002946FCF729FBF8B15FA3D3E9002320466F
:1043D8002946FCF791F85EA3D3E9002304460D466D
:1043E80051EC180BFCF788F802460B462046294684
:1043F800FBF7CCFE04460D4696ED007B46E90245E8
:10440800B0EE47AAF0EE67AA97ED007B57E902895C
:10441800B0EE479AF0EE679AFFF7C7BA9FED507A69
:104428003AE49FED4F8AFFF7F0BBDFED4D6A0024B9
:104438000025B0EE667A26462F46FFF7D0BBDFEDA3
:10444800488A00260027B0EE688AB046B946FFF7CA
:1044580099BB4449224627A807F0F8FC3946C4F11D
:104468000702414807F0C0FC404BC4F506601D46F2
:10447800073027A91844224607F0E8FCC5F8684821
:10448800FEF718BC9BF82C3D394C3A4F052262F3D5
:1044980004038BF82C3D002354E902018BF83A3DC4
:1044A8000022354BFBF772FE44E90201FFF74EBAD2
:1044B80043E9120102460B46FEF727BDC6E9100183
:1044C80002460B46FFF77EB843E9120102460B4647
:1044D800FFF768B843E9100102460B46FFF751B8E9
:1044E80043E9120102460B46FFF73AB843E91001C7
:1044F80002460B46FEF7FFBF43E9100102460B4692
:10450800FFF71CB843E9120102460B46FFF704B84F
:10451800164B93F965A893F96358BAF1000318BFCD
:1045280001231803DB0280F4805783F40066FFF749
:10453800E5B800BFAFF30080CDCCCCCCCCCCEC3F01
:104548009A9999999999B93F9A9999999999E93F15
:104558009A9999999999C93FF8290020282A002001
:104568000000000094BE0008380C0020D80300208A
:1045780078290020F80B002000805640182A0020D7
:10458800C72C2DD99BF82C3DC14C042262F304039F
:1045980039468BF82C3D3046BE4BBF4F0022FBF707
:1045A800F3FD44E90201FFF7D1B9052C18D99BF8AE
:1045B8002C3DB74C102262F304038BF82C3D0023EA
:1045C80039468BF83A3D3046B44BB34F0022FBF7DF
:1045D800DBFD44E90201FFF7B9B9632C3FF652AF9E
:1045E800AD4FFFF7B3B93246A94E3B4656E9020133
:1045F800FBF7CAFD0022002380468946FCF7EEF946
:1046080010B98B2C40F2AB809BF82C3DA44FA549E8
:10461800082262F304038BF82C3D002000238BF85A
:104628003A3DBB18A7F16802E7E804010024002519
:10463800009747E90245C7E90045FDF739FAFFF752
:1046480085B9B8F1000F40F080829BF82C3D924F5D
:104658008BF83A8D112262F304038BF82C3DFFF797
:1046680075B99BF82C3D8C4F0B2262F304038BF831
:104678002C3D0023ABF8303D0022002347E90223FC
:10468800C7E90023FFF762B9002A00F03583B8F1C3
:10469800000FA5D19BF82C3D83497F4F0E2262F372
:1046A8000403A1F5A8604FF4A8628BF82C3D07F02D
:1046B800CDFBDBF8243DCBF8183DCBF8203DDBF8EB
:1046C800283DCBF81C3D0123CBF8103D0023CBF847
:1046D800143DFFF73BB9002A82D19BF82C3D0722F5
:1046E80062F304038BF82C3D00238BF83A3D77E7FF
:1046F80032466E4E3B4656E90201FBF745FD002265
:10470800002380468946FCF769F910B9632C40F20A
:104718001F839BF82C3D604F092262F304038BF83A
:104728002C3D00238BF83A3D614B002247E90223D8
:10473800C7E90023FFF70AB93246554E3B4656E90A
:104748000201FBF721FD0022002380468946FCF781
:1047580045F900287FF458AF4F2C3FF655AFD6E9FE
:104768000E2340464946FBF711FD45A3D3E9002334
:1047780004460D46FBF7C0FE02460B462046294676
:10478800FBF702FDC6E90E01F6E90C23404649464F
:10479800FBF7FAFC474B0022FBF7AEFE464B0446FC
:1047A8000D46002240464946FBF7A6FE02460B4648
:1047B80020462946FBF7EAFC04460D46C6E900896F
:1047C80022462B4600200021FBF7DEFC3B4B002253
:1047D80080468946FCF716F9002800F08582344B9C
:1047E800404649460022FCF717F9002800F080826D
:1047F8009FED257B284F07ED027B304B002220469A
:104808002946FCF7EBF8002800F05D822B4B0022CC
:10481800C7E90023FFF79AB832461D4E3B4656E9D2
:104828000201FBF7B1FC0022002380468946FCF711
:10483800F3F8002890D0E7E6052C7FF6D1AE9BF878
:104848002C3D134C0A2262F304038BF82C3D002301
:1048580039468BF83A3D104F184B002247E902239E
:10486800134B0022C7E900233046154B0022FBF703
:104878008DFC44E90201FFF769B800BFAFF300807F
:104888007B14AE47E17A743F0000000000005940F5
:104898006829002000808640F80B002000805640E0
:1048A800E80B00200000F03F682200207829002053
:1048B8000000594000004E4000001840000059C058
:1048C80000806640052C7FF68BAE9BF82C3DB64CDD
:1048D8000F2262F304038BF82C3D002339468BF832
:1048E8003A3D3046B14BB24F0022FBF74FFC44E94A
:1048F8000201FFF72BB8DFF8B0A25AE902454FF0E2
:10490800000822462B464FF0000930463946FBF78F
:104918003BFC42464B46FCF761F8002800F0588102
:10492800A44B43E90289C3E90289C3E904899BF8D6
:104938002C3D0B2262F304038BF82C3D49EC198BB8
:104948000023ABF8303D9C4BA3F170020292A3F117
:1049580060020492A3F1200293ED007B0C92A3F174
:1049680050020692A3F140020892A3F1300253E9E3
:104978000245B0EE47AAF0EE67AA0A92A3F1100A20
:10498800FFF713B8C72C7FF62BAE9BF82C3D8B484E
:104998008B4C874F062262F304038BF82C3DFCF7FF
:1049A8006FFDBBF9122DBBF91A3DC5E90001BBF932
:1049B800185DBBF9101D15441944A542BBF9162D05
:1049C800BBF9143D47F6FF70B8BF2546A142B8BFF2
:1049D80021468542D4BFC2EB0502C2EB00028142E8
:1049E800D4BFC3EB0103C3EB0003A242B8BF224606
:1049F800A342B8BF23468242A8BF02468342A8BF4B
:104A080003467049ABF81A3D674BABF8182D0020E8
:104A1800C3E90001FEF79ABFD5E9004500224FF02F
:104A2800804320462946FBF7CFFF0646002847D09B
:104A38005D4B0022D3E90001624BFBF7C5FF00285C
:104A48003FF4CEAD9BF82C3D594F032262F304038B
:104A58008BF82C3D00238BF83A3D5B4B002247E94D
:104A68000223C7E90023FEF771BFDDE90201554BB8
:104A78000022FBF7A9FF002847D04F2C45D9DBF8C7
:104A88001C2DDBF8183D93427FF47FAF9BF82C2D4B
:104A9800474F0D2161F304028BF82C2DDBF8202DF4
:104AA800CBF81C2DCBF8203D0022002347E9022338
:104AB800C7E90023FEF74ABFA046A946FDF783BA17
:104AC800424B002220462946FBF77EFF0746002876
:104AD8004FD0354B0022D3E900013A4BFBF774FF66
:104AE80000283FF47DAD9BF82C3D314F8BF83A6D93
:104AF800022262F304038BF82C3D334B002247E972
:104B08000223C7E90023FEF721BFB8F1000F3FF4E5
:104B1800C1AD284C2746F7E804010022002347E9E5
:104B28000223C7E90023274B0022FBF74DFF00288B
:104B38003EF40CAF2349009704F10803A4F168027E
:104B48000020FCF7B5FFFEF701BF002A3FF4C5AD12
:104B5800184A002013460021E3E8040193ED007B86
:104B680042E90201B0EE479AF0EE679A53E90289EA
:104B7800E9E6144B002220462946FBF725FF0028CA
:104B880000F0D280084B0022D3E900010D4BFBF75F
:104B98001BFF00283FF424AD8BF83A7D9BF82C3D91
:104BA800034F0122A5E700BF682900200080564076
:104BB800F80B0020E80B0020282A0020800B00209A
:104BC8000080FFFF0000F03F000049C00000F0BF78
:104BD8003B46CDF808A0704FDFF8E0A1324600262A
:104BE8004AE9026720462946FBF7CEFA6B4B53E9A0
:104BF800022304460D46FBF7C9FA65A3D3E900234F
:104C080006460F46FBF778FC02460B463046394607
:104C1800FBF7BAFA614B43E902010299F1E90C2367
:104C2800204602912946FBF7AFFA5D4B0022FBF7BD
:104C380063FC5C4B06460F46002220462946FBF7DC
:104C48005BFC02460B4630463946FBF79FFA029B4F
:104C5800C3E9004504460D464046494622462B46D0
:104C6800FBF792FA504B002280468946FBF7CAFEB2
:104C7800002851D04D4F00264046494632463B4613
:104C8800FBF7CAFE00284BD0CAE902670AF11007F1
:104C9800DFF814914FF000082046294642464B465B
:104CA800FBF79CFE58B9DFF804914FF00008204646
:104CB800294642464B46FBF7AFFE002861D0C7E9BC
:104CC8000089FFF708B9C7E90045384B204629464F
:104CD8000022FBF7A1FE00283EF438AE334B002239
:104CE800C7E90023FEF732BEDFF8BC904FF000089A
:104CF8002F4F47E9028980E59BF82C3D2D492C4F21
:104D0800132262F304034FF4A86288188BF82C3D31
:104D180007F09CF8FEF71ABEDFF88C904FF00008F9
:104D2800234F47E90289B3E720462946002200239A
:104D3800FBF74AFE00283FF453AC1F4B0022D3E98F
:104D48000001154BFBF740FE00283FF449AC5BE43B
:104D5800124F404657E902234946FBF717FA0CA3BE
:104D6800D3E9002304460D46FBF7C6FB02460B4673
:104D780020462946FBF708FAF6E9082347E9020125
:104D880004E5C7E90045FFF7A6B800BFAFF3008008
:104D98007B14AE47E17A743F0000F03FA829002059
:104DA80000004E4000001840000059C00000594063
:104DB800F80B0020281D002068290020E80B00209F
:104DC8002DE9F04FA24AA34B2DED048BD2E92667BB
:104DD80003F59E6453E9028983B054E9020132461F
:104DE8003B46FBF7F1FD08B944E902679A4C9B4939
:104DF800C822204607F02AF8A4F56B65C4E9328971
:104E080096490095C02204F1D00007F01FF8C82287
:104E1800A118924807F01AF8D4E900AB04F1080584
:104E28002C46D046D946F4E8026740464946324601
:104E38003B46FBF7D3FD08B1B046B946884B9C42C8
:104E4800F1D149EC108B06F0EBFD9FED7F1B06F0CE
:104E5800B1FD57EC106B10EE100A00220023394602
:104E6800FBF7BCFD002840F0CE8030463946FBF702
:104E78001BFE83B20193764B7A4CD3E91E67A4F5E7
:104E8800B87393ED008B54E9020132463B46FBF7B9
:104E98009BFD08B944E90267734E009B7149C8221B
:104EA800304603F6381806F0D1FF86ED328B6D498F
:104EB80006F1D000C02206F0C9FF344606F1C80149
:104EC8006848C82206F0C2FFB4EC027B57EC176BA7
:104ED800B0EE478AF0EE678A4BEC19ABA146A346C1
:104EE8000095F9E802453046394622462B46FBF73D
:104EF80075FD08B126462F46C145F2D147EC106B27
:104F080006F08EFD9FED501B009D06F053FD57ECFB
:104F1800106B10EE100A0022002339465C465BEC49
:104F280019ABFBF75BFD002840F086803046394618
:104F3800FBF7BAFD80B2DFF83491019B00954BEC8A
:104F480019ABC346A04655EC184BA9F8340DA9F87F
:104F5800323DF8E802672046294632463B46FBF7D1
:104F68005BFD08B134463D46D845F2D145EC104BBF
:104F780006F056FD9FED341B009D06F01BFD57EC17
:104F8800106B10EE100A0022002339465BEC19ABB7
:104F9800FBF724FD002847D130463946FBF784FD4E
:104FA80084B2F5E8026752465B4630463946FBF75D
:104FB80015FD08B1B246BB46294BAB42F1D14BECCB
:104FC80010AB06F02DFD9FED201B06F0F3FC57EC0F
:104FD800106B10EE100A002200233946FBF7FEFC86
:104FE800D0B930463946FBF75FFD80B2A9F8384D95
:104FF800A9F8360D00F0F6FB03B0BDEC048BBDE854
:10500800F04F00F0D7BC304607F10041FBF74CFDEC
:10501800404283B201932EE7304607F10041FBF787
:1050280043FD404280B2E1E7304607F10041FBF71B
:105038003BFD404284B2B4E7304607F10041FBF73C
:1050480033FD404280B276E7000000000000F040E7
:10505800000000200829002088120020F82D0020D8
:1050680050130020782A0020480C0020281D00201A
:105078002DE9F04FB84DB948B5F86E70B5F87060C5
:10508800B5F872400782002167F30F0167F31F41EB
:105098000022C0E90011C0E9021166F30F02B0490D
:1050A800B0480E8266F31F420023C1E90022C1E91D
:1050B800022264F30F03AC49B5F874600C8264F300
:1050C8001F43A7B0C1E90033C1E90233082295F8AC
:1050D8007610A64C06F088FE0023A54AA96DA548BF
:1050E80066F30F0366F31F43C2E90033C2E90233D4
:1050F800A14B2E6D196059609960A04BEA6D26602E
:105108009F4C1A60D5E908675A609A606B6D036016
:1051180004F5406343E90267D5E90A67C3E9006714
:10512800D5E90C6704F5416343E90267D5E90E67E1
:10513800C3E90067D5E9106704F5426343E90267EC
:10514800D5E91267C3E90067D5E9042304F53F618F
:1051580041E90223D5E90623C1E9002300F0E4FB75
:105168004FF00102B5F862008DF8122001230822E1
:10517800C4F8843B0092A4F8320DB5F86400A4F892
:10518800340DB5F86800A4F8360DB5F86A00A4F82F
:10519800380D002084F8800B84F8880B0920794F9B
:1051A8000390ADF8100078489FED697BCDE9077052
:1051B80004F53960042304F54D6E04F54E6C04F5CE
:1051C8004F6704F5496B04F54A6A04F54B6904F521
:1051D8004C6806904FF4007019460BED027B0AEDFF
:1051E800027B09ED027B08ED027B0EED027B0CEDE4
:1051F800027B07ED027B87ED027B0122ADF82400DC
:1052080003A8FBF761FF0221C4F88C0BFCF78EF8AA
:10521800D4F88C0BFBF7C6FFD4F88C0B0121FBF7F5
:1052280035FFD5E92E0104F580560AF5F66A08F52A
:10523800F66806F5926C04F5A35904F5A45E04F526
:10524800A55B4BE902014AE90201CAE9000149E903
:105258000201C9E9000148E90201C8E900014EE973
:105268000201CEE900014CE90201CCE90001D5E9CF
:10527800340104F5B05747E902014FF00102012358
:1052880084F8882B86F8A024C6F8403486F8C82607
:10529800C6F8F03506F5D9623B46E3E802019A42C2
:1052A800FBD1D5E92801394F47E90201012386F8E6
:1052B8007832C6F8A03107F1C8023B46E3E802019C
:1052C8009342FBD1D5E92401314F47E9020101237B
:1052D80086F8B830C4F8E03F07F1C8023B46E3E877
:1052E80002019A42FBD1D5E922012A4F47E902017E
:1052F800012384F8D83FC4F8003F07F1C8023B46B1
:10530800E3E802019A42FBD1D5E92001224F47E99F
:105318000201012384F8F83EC4F8203E07F1C802D0
:105328003B46E3E802019342FBD1D5E930891B49AA
:1053380001F1200A01F1300E01F1400C01F1500099
:1053480001F1700701F59C72E1E8048928E000BFCB
:105358000000000000000840000000207C0300203E
:1053680090030020B8030020A40300201434002078
:105378000034002010340020C0030020CC0300209B
:10538800281D00200001045000000240D82E0020F3
:10539800182D0020382C0020582B0020D831002050
:1053A80040E9028941E90289C1E90089C0E9008927
:1053B800D5E932014AE9028947E90201CAE90089C7
:1053C8004EE90289CEE900894CE90289CCE90089D5
:1053D800012386F80835C6F8A83486F8E835C6F8F3
:1053E80010353B46E3E802019342FBD1D5E92C0195
:1053F800624F47E90201012386F83834C6F8603362
:1054080007F1C8023B46E3E802019342FBD1D5E924
:105418002A015B4F47E90201012386F85833C6F891
:10542800803207F1C8023B46E3E802019A42FBD109
:10543800544B03930027012303A8C4F8C83B84F8FE
:10544800C47B84F8CC7BADF81070FBF7ADFD394612
:10545800C4F8D00BFBF7DEFBD4F8D00B0221FBF726
:105468003BFD0221D4F8D00BFBF78EFDD4F8D03BDE
:10547800454A1B6899680A40062A4CD1012300272F
:1054880084F8CC3BC4F8B83B03A83E4B039384F89C
:10549800B47B84F8BC7BADF81070FBF785FD39460A
:1054A800C4F8C00BFBF7B6FBD4F8C00B0221FBF71E
:1054B80063FC0221D4F8C00BFBF7B6FCD4F8C03B60
:1054C800314A1B6899680A40062A38D10123D5E970
:1054D800260184F8BC3B86F89831C6F8C0302B4BBF
:1054E80043E9020103F1C802E3E802019342FBD158
:1054F800D5E91E01264B43E90201012284F8182E42
:10550800C4F8402D03F1C802E3E802019A42FBD136
:1055180027B0BDE8F08F1A68510724D41A6842F002
:1055280004021A605A6942F001025A611A6822F0AC
:1055380004021A601A6842F001021A609EE71A68AB
:10554800520715D41A6842F004021A605A6942F0E8
:1055580001025A611A6822F004021A601A6842F0BD
:1055680001021A60B2E75A6942F001025A61E1E7A2
:105578005A6942F001025A61F0E700BF98300020F2
:10558800B82F00200004004007000100F82D00207B
:10559800782A002010B52D4C94F8803B33B9D4F804
:1055A800842B01239A4284F8803B2DD094F8C41BA5
:1055B80031B9D4F8C83B0122934284F8C42B2DD0CA
:1055C80094F8B41B31B9D4F8B83B0122934284F85B
:1055D800B42B00D010BD94F8BC3B002BFAD0D4F803
:1055E800C00B0268136823F001031360FBF76CFB20
:1055F800D4F8C00B0221FBF7EBFBD4F8C00B022157
:10560800BDE81040FBF73CBC94F8883B002BCDD09C
:10561800D4F88C0B0421FBF72BFEC7E794F8CC3B9E
:10562800002BCDD0D4F8D00B0268136823F0010307
:105638001360FBF749FBD4F8D00B0221FBF778FC89
:10564800D4F8D00B0221FBF7A7FCB9E7281D0020EE
:1056580038B5044672B60C4D00F09CFB2B68B3F5C8
:10566800C87F0FD00949024603F5C87041F82340A6
:1056780041F82020064803F54872006841F82200E6
:1056880001332B6062B638BDE8460020283400207C
:105698001C34002030B5214C23785A1C83B022706A
:1056A8002BB11F4A23700121116003B030BD01A83E
:1056B800FCF750FB62B6022006F076F9FCF754FBC3
:1056C800022006F073F972B62378164D9DF805206E
:1056D800013B23706B78C2B15A1C6A70CBB96378EE
:1056E800002BE2D10123637062B6032006F05CF957
:1056F800FFF766FB032006F059F972B66A786378FB
:10570800013A013B6A706370CFE7002BE7D103B021
:1057180030BD034A6B7001211160C6E720340020B8
:105728001834002024340020F8B52A4C2A4D0027CC
:1057380027702F7001DF03F00FFD00F017FC00F059
:1057480077FC00F0A1FC01F0B3F800F097FD01F040
:1057580053F901F0DBF801F001FA00F00FFF01F056
:105768001FFB01F055FA1D4B1E680120376006F03B
:105778001BF9FFF77DFC012006F018F972B69FEDC2
:10578800180A00F04BFB3368B3FA83F35B092B70FC
:1057980062B662B64FF0E02206E03368003B18BFFD
:1057A8000123237023787BB92B7803F0FF07002BA4
:1057B800F3D1042006F0F8F8FFF7ECFE042006F019
:1057C800F5F872B63846F8BD136923F00103136182
:1057D800EAE700BFED460020EC46002090BE000836
:1057E8000AD7A33B2DE9F0412DED028B494CDFEDA3
:1057F8004A8ADFF82C819FED498A86B04FF0FF373F
:10580800022605ADCDE90167012300953B22D3218E
:10581800204604F057F9BDF814300297DBBA03EBC1
:1058280083035B0007EE903AF8EEE77ACDE900567D
:1058380067EEA87A0123C8ED007A3D22D3212046DD
:1058480004F040F9BDF814300095DBBA03EB83038C
:105858005B0007EE903AF8EEE77ACDE9016767EE6C
:10586800A87A0123C8ED017A3F22D321204604F00B
:1058780029F9BDF814300095DBBA03EB83035B000C
:1058880007EE903AF8EEE77ACDE9016767EEA87A75
:105898000123C8ED027A4322D321204604F012F9ED
:1058A800BDF81430DFF87C800297DBBA07EE903A37
:1058B800F8EEE77ACDE9005687EE887A012345228B
:1058C800D321204688ED007A04F0FCF82046BDF884
:1058D80014400095E4BA07EE904AF8EEE77ACDE96D
:1058E800016787EE887A01234722D32188ED017A60
:1058F80004F0E8F8BDF81430DBBA07EE903AF8EE99
:10590800E77A87EE887A88ED027A06B0BDEC028BDA
:10591800BDE8F08118470020000080383333034287
:10592800C0030020CC03002070B586B01F4D0022B4
:1059380001244FF0FF360DF116018DF816201022C4
:10594800234600918DF81720CDE901466B22D2211C
:10595800284603F087FF072223460092CDE9014637
:105968001922D221284603F07DFF2346CDE90146BE
:105978001C220094D221284603F074FF0DF117026F
:1059880023460092CDE901461B22D221284603F086
:1059980069FF074B0093CDE9014623467522D321C1
:1059A800284604F08FF806B070BD00BF18470020E5
:1059B800EE46002038B54021B648B74CB74D03F045
:1059C80029FD031E18BF012323700421B44803F0E6
:1059D80021FD031E18BF012363704FF40051B14825
:1059E800B14C03F017FD031E18BF01232B704FF4B1
:1059F8008041AC4803F00EFD031E18BF01236B70F5
:105A08004FF40041A74803F005FD031E18BF01230A
:105A1800AB704FF48051A24803F0FCFC031E18BF82
:105A2800012323704FF480719A4803F0F3FC031E9E
:105A380018BF012363704FF40071964803F0EAFC25
:105A4800031E18BF0123A3704FF48051914803F03F
:105A5800E1FC031E18BF0123E3704FF400618D4879
:105A680003F0D8FC031E18BF012323714FF48041B3
:105A7800884803F0CFFC031E18BF012363714FF45D
:105A88000041844803F0C6FC031E18BF0123A3711C
:105A98004FF400517F4803F0BDFC844B844A596B96
:105AA8001180996B51800038824AD96B1B6C118028
:105AB80018BF0120E07153800125002401E0013462
:105AC8000135432C60B2FAD0052CF8D004F0E8F97F
