:020000040800F2
:1000000000800120CD0401082F8C0008358C0008E9
:100010003B8C0008418C0008478C00080000000061
:10002000000000000000000000000000755F0008F4
:100030004D8C000800000000315F0008615E000880
:100040001D0501081D0501081D0501081D05010804
:100050001D0501081D0501081D0501081D050108F4
:100060001D0501081D0501081D0501085B8C000820
:10007000792000081D0501081D0501081D0501085E
:10008000698C0008778C0008858C00081D05010824
:100090001D0501081D0501081D0501081D050108B4
:1000A0001D050108958C00081D0501081D050108A6
:1000B0001D0501081D0501081D0501081D05010894
:1000C0001D0501081D0501081D0501081D05010884
:1000D0001D0501081D0501081D0501081D05010874
:1000E0001D0501081D0501081D0501081D05010864
:1000F0001D0501081D0501081D0501081D05010854
:100100001D0501081D0501081D0501081D05010843
:100110001D0501081D0501081D0501081D05010833
:100120001D0501081D0501081D0501081D05010823
:100130001D0501081D0501081D0501081D05010813
:100140001D0501081D0501081D050108A98C0008F1
:100150001D0501081D0501081D0501081D050108F3
:100160001D0501081D0501081D0501081D050108E3
:100170001D0501081D0501081D05010800000000FE
:080180001D0501081D05010821
:1001880081F0004102E000BF83F0004330B54FEA40
:1001980041044FEA430594EA050F08BF90EA020FAD
:1001A8001FBF54EA000C55EA020C7FEA645C7FEA40
:1001B800655C00F0E2804FEA5454D4EB5555B8BF63
:1001C8006D420CDD2C4480EA020281EA030382EAD4
:1001D800000083EA010180EA020281EA0303362D66
:1001E80088BF30BD11F0004F4FEA01314FF4801C39
:1001F8004CEA113102D0404261EB410113F0004F4B
:100208004FEA03334CEA133302D0524263EB430301
:1002180094EA050F00F0A780A4F10104D5F1200E9F
:100228000DDB02FA0EFC22FA05F2801841F10001FA
:1002380003FA0EF2801843FA05F359410EE0A5F1CE
:1002480020050EF1200E012A03FA0EFC28BF4CF0FF
:10025800020C43FA05F3C01851EBE37101F00045B5
:1002680007D54FF0000EDCF1000C7EEB00006EEBC2
:100278000101B1F5801F1BD3B1F5001F0CD349084C
:100288005FEA30004FEA3C0C04F101044FEA4452A3
:1002980012F5800F80F09A80BCF1004F08BF5FEA2A
:1002A800500C50F1000041EB045141EA050130BD0A
:1002B8005FEA4C0C404141EB0101013C28BFB1F51C
:1002C800801FE9D291F0000F04BF01460020B1FA67
:1002D80081F308BF2033A3F10B03B3F120020CDA3A
:1002E8000C3208DD02F1140CC2F10C0201FA0CF018
:1002F80021FA02F10CE002F11402D8BFC2F1200C7D
:1003080001FA02F120FA0CFCDCBF41EA0C01904032
:10031800E41AA2BF01EB0451294330BD6FEA04047B
:100328001F3C1CDA0C340EDC04F11404C4F1200266
:1003380020FA04F001FA02F340EA030021FA04F378
:1003480045EA030130BDC4F10C04C4F1200220FACF
:1003580002F001FA04F340EA0300294630BD21FA0D
:1003680004F0294630BD94F0000F83F4801306BFD3
:1003780081F480110134013D4EE77FEA645C18BFC7
:100388007FEA655C29D094EA050F08BF90EA020F5E
:1003980005D054EA000C04BF1946104630BD91EA56
:1003A800030F1EBF0021002030BD5FEA545C05D159
:1003B8004000494128BF41F0004130BD14F5800498
:1003C8003CBF01F5801130BD01F0004545F0FE410C
:1003D80041F470014FF0000030BD7FEA645C1ABF41
:1003E800194610467FEA655C1CBF0B46024650EA78
:1003F800013406BF52EA033591EA030F41F40021A4
:1004080030BD00BF90F0000F04BF0021704730B529
:100418004FF4806404F132044FF000054FF00001FE
:1004280050E700BF90F0000F04BF0021704730B5BF
:100438004FF4806404F1320410F0004548BF404294
:100448004FF000013EE700BF42004FEAE2014FEAE9
:1004580031014FEA02701FBF12F07F4393F07F4FC4
:1004680081F06051704732F07F4208BF704793F0C7
:100478007F4F04BF41F40021704730B54FF46074DA
:1004880001F0004521F000411CE700BF50EA0102DD
:1004980008BF704730B54FF000050AE050EA010286
:1004A80008BF704730B511F0004502D5404261EBF6
:1004B80041014FF4806404F132045FEA915C3FF437
:1004C800D8AE4FF003025FEADC0C18BF03325FEAD4
:1004D800DC0C18BF033202EBDC02C2F1200300FA85
:1004E80003FC20FA02F001FA03FE40EA0E0021FAAA
:1004F80002F11444BDE600BF70B54FF0FF0C4CF498
:10050800E06C1CEA11541DBF1CEA135594EA0C0F49
:1005180095EA0C0F00F0DEF82C4481EA030621EA84
:100528004C5123EA4C5350EA013518BF52EA0335BF
:1005380041F4801143F4801338D0A0FB02CE4FF071
:100548000005E1FB02E506F00042E0FB03E54FF0A1
:100558000006E1FB03569CF0000F18BF4EF0010E99
:10056800A4F1FF04B6F5007F64F5407404D25FEA95
:100578004E0E6D4146EB060642EAC62141EA555148
:100588004FEAC52040EA5E504FEACE2EB4F1FD0C8A
:1005980088BFBCF5E06F1ED8BEF1004F08BF5FEA08
:1005A800500E50F1000041EB045170BD06F00046BA
:1005B80046EA010140EA020081EA0301B4EB5C0467
:1005C800C2BFD4EB0C0541EA045170BD41F480115F
:1005D8004FF0000E013C00F3AB8014F1360FDEBF84
:1005E800002001F0004170BDC4F10004203C35DA60
:1005F8000C341BDC04F11404C4F1200500FA05F3E3
:1006080020FA04F001FA05F240EA020001F0004283
:1006180021F0004110EBD37021FA04F642EB0601F9
:100628005EEA430E08BF20EAD37070BDC4F10C0423
:10063800C4F1200500FA04F320FA05F001FA04F2E7
:1006480040EA020001F0004110EBD37041F10001D3
:100658005EEA430E08BF20EAD37070BDC4F12005DE
:1006680000FA05F24EEA020E20FA04F301FA05F246
:1006780043EA020321FA04F001F0004121FA04F2EE
:1006880020EA020000EBD3705EEA430E08BF20EABE
:10069800D37070BD94F0000F0FD101F000464000F8
:1006A80041EB010111F4801F08BF013CF7D041EA7A
:1006B800060195F0000F18BF704703F0004652007E
:1006C80043EB030313F4801F08BF013DF7D043EA4F
:1006D8000603704794EA0C0F0CEA135518BF95EA05
:1006E8000C0F0CD050EA410618BF52EA4306D1D18C
:1006F80081EA030101F000414FF0000070BD50EAAB
:10070800410606BF1046194652EA430619D094EA34
:100718000C0F02D150EA013613D195EA0C0F05D11E
:1007280052EA03361CBF104619460AD181EA030172
:1007380001F0004141F0FE4141F470014FF000002A
:1007480070BD41F0FE4141F4780170BD70B54FF0C5
:10075800FF0C4CF4E06C1CEA11541DBF1CEA135545
:1007680094EA0C0F95EA0C0F00F0A7F8A4EB050427
:1007780081EA030E52EA03354FEA013100F088801E
:100788004FEA03334FF0805545EA131343EA1263E7
:100798004FEA022245EA111545EA10654FEA00269C
:1007A8000EF000419D4208BF964244F1FD0404F555
:1007B800407402D25B084FEA3202B61A65EB0305B1
:1007C8005B084FEA32024FF480104FF4002CB6EB6E
:1007D800020E75EB030E22BFB61A754640EA0C00EE
:1007E8005B084FEA3202B6EB020E75EB030E22BF2E
:1007F800B61A754640EA5C005B084FEA3202B6EB6F
:10080800020E75EB030E22BFB61A754640EA9C002D
:100818005B084FEA3202B6EB020E75EB030E22BFFD
:10082800B61A754640EADC0055EA060E18D04FEABB
:10083800051545EA16754FEA06164FEAC30343EA5B
:1008480052734FEAC2025FEA1C1CC0D111F4801F28
:100858000BD141EA00014FF000004FF0004CB6E721
:1008680011F4801F04BF01430020B4F1FD0C88BFC0
:10087800BCF5E06F3FF6AFAEB5EB030C04BFB6EBCB
:10088800020C5FEA500C50F1000041EB045170BDBE
:100898000EF0004E4EEA113114EB5C04C2BFD4EBEB
:1008A8000C0541EA045170BD41F480114FF0000E6F
:1008B800013C90E645EA060E8DE60CEA135594EAEB
:1008C8000C0F08BF95EA0C0F3FF43BAF94EA0C0FEE
:1008D8000AD150EA01347FF434AF95EA0C0F7FF463
:1008E80025AF104619462CE795EA0C0F06D152EAB7
:1008F80003353FF4FDAE1046194622E750EA41069B
:1009080018BF52EA43067FF4C5AE50EA41047FF4AB
:100918000DAF52EA43057FF4EBAE12E74FF0FF3C10
:1009280006E000BF4FF0010C02E000BF4FF0010CE1
:100938004DF804CD4FEA410C7FEA6C5C4FEA430C5A
:1009480018BF7FEA6C5C1BD001B050EA410C0CBFA9
:1009580052EA430C91EA030F02BF90EA020F00200B
:10096800704710F1000F91EA030F58BF994208BF72
:1009780090422CBFD8176FEAE37040F0010070472F
:100988004FEA410C7FEA6C5C02D150EA013C07D186
:100998004FEA430C7FEA6C5CD6D152EA033CD3D0D1
:1009A8005DF8040B704700BF8446104662468C46CB
:1009B8001946634600E000BF01B5FFF7B7FF0028FE
:1009C80048BF10F1000F01BD4DF808EDFFF7F4FF27
:1009D8000CBF012000205DF808FB00BF4DF808EDB2
:1009E800FFF7EAFF34BF012000205DF808FB00BFD5
:1009F8004DF808EDFFF7E0FF94BF012000205DF8F7
:100A080008FB00BF4DF808EDFFF7CEFF94BF0120AB
:100A180000205DF808FB00BF4DF808EDFFF7C4FFA4
:100A280034BF012000205DF808FB00BF4FEA410CED
:100A38007FEA6C5C02D150EA013C0AD14FEA430CD0
:100A48007FEA6C5C02D152EA033C02D14FF000000D
:100A580070474FF0010070474FEA410212F500124B
:100A680015D211D56FF47873B3EB625212D94FEAED
:100A7800C12343F0004343EA505311F0004F23FAD7
:100A880002F018BF404270474FF00000704750EA2C
:100A9800013005D111F0004008BF6FF000407047E9
:100AA8004FF00000704700BF4A0011D212F5001243
:100AB80011D20DD56FF47873B3EB62520ED44FEAAE
:100AC800C12343F0004343EA505323FA02F070472E
:100AD8004FF00000704750EA013002D14FF0FF306C
:100AE80070474FF0000070474FEA4102B2F1E0430F
:100AF80024BFB3F5001CDCF1FE5C0DD901F0004CFD
:100B08004FEAC0024CEA5070B2F1004F40EB83004C
:100B180008BF20F00100704711F0804F21D113F178
:100B28003872BCBF01F00040704741F480114FEAB1
:100B38005252C2F11802C2F1200C10FA0CF320FA3A
:100B480002F018BF40F001004FEAC1234FEAD32357
:100B580003FA0CFC40EA0C0023FA02F34FEA4303C1
:100B6800CCE77FEA625307D150EA01331EBF4FF04A
:100B7800FE4040F44000704701F0004040F0FE4065
:100B880040F40000704700BF0348044B834202D082
:100B9800034B03B1184770478802002088020020E1
:100BA800000000000548064B1B1AD90F01EBA301F2
:100BB800491002D0034B03B1184770478802002040
:100BC800880200200000000010B5064C237843B9C5
:100BD800FFF7DAFF044B13B10448AFF30080012399
:100BE800237010BD8802002000000000EC090108F5
:100BF80008B5054B1BB105490548AFF30080BDE8B2
:100C08000840FFF7CFBF00BF000000008C020020A3
:100C1800EC09010880B485B000AF78607B681B6878
:100C280003F06003FB60FB68002B04D17B681B6842
:100C380003F01003FB60FB6818461437BD465DF8E7
:100C4800047B704780B483B000AF78607B681B6B0F
:100C580018460C37BD465DF8047B704780B483B0F6
:100C680000AF786039607B681A6A3B681A437B6812
:100C78001A6200BF0C37BD465DF8047B704780B42C
:100C880083B000AF786039607B681A6A3B68DB43E1
:100C98001A407B681A6200BF0C37BD465DF8047BBA
:100CA800704780B483B000AF78607B685B6C43F4B6
:100CB80000427B685A6400BF0C37BD465DF8047B70
:100CC800704780B483B000AF78607B68DB6843F01E
:100CD80001027B68DA6000BF0C37BD465DF8047B13
:100CE800704780B483B000AF78607B68DB6823F01E
:100CF80001027B68DA6000BF0C37BD465DF8047BF3
:100D0800704780B483B000AF78607B68DB6803F01D
:100D18000103012B01D1012300E0002318460C3701
:100D2800BD465DF8047B704780B483B000AF78603F
:100D38007B68DB6843F002027B68DA6000BF0C372F
:100D4800BD465DF8047B704780B483B000AF78601F
:100D58007B68DB6823F002027B68DA6000BF0C372F
:100D6800BD465DF8047B704780B483B000AF7860FF
:100D78007B68DB6803F00203022B01D1012300E04A
:100D8800002318460C37BD465DF8047B704780B4D5
:100D980083B000AF78607B68DB6843F004027B684F
:100DA800DA6000BF0C37BD465DF8047B704780B43D
:100DB80083B000AF78607B68DB6823F004027B684F
:100DC800DA6000BF0C37BD465DF8047B704780B41D
:100DD80083B000AF78607B68DB6803F00403042B02
:100DE80001D1012300E0002318460C37BD465DF809
:100DF800047B704780B483B000AF78607B68DB68A1
:100E080043F008027B68DA6000BF0C37BD465DF826
:100E1800047B704780B483B000AF78607B68DB6880
:100E280023F008027B68DA6000BF0C37BD465DF826
:100E3800047B704780B483B000AF78607B68DB6860
:100E480003F00803082B01D1012300E00023184612
:100E58000C37BD465DF8047B704780B483B000AFA3
:100E680078607B68DB6843F010027B68DA6000BF5B
:100E78000C37BD465DF8047B704780B483B000AF83
:100E880078607B68DB6823F010027B68DA6000BF5B
:100E98000C37BD465DF8047B704780B483B000AF63
:100EA80078607B68DB6803F01003102B01D1012305
:100EB80000E0002318460C37BD465DF8047B7047F8
:100EC80080B483B000AF78607B68DB6843F02002B1
:100ED8007B68DA6000BF0C37BD465DF8047B70475D
:100EE80080B483B000AF78607B68DB6823F02002B1
:100EF8007B68DA6000BF0C37BD465DF8047B70473D
:100F080080B483B000AF78607B68DB6803F02003AF
:100F1800202B01D1012300E0002318460C37BD46E1
:100F28005DF8047B704780B483B000AF78607B685D
:100F3800DB6843F040027B68DA6000BF0C37BD46CF
:100F48005DF8047B704780B483B000AF78607B683D
:100F5800DB6823F040027B68DA6000BF0C37BD46CF
:100F68005DF8047B704780B483B000AF78607B681D
:100F7800DB6803F04003402B01D1012300E000238C
:100F880018460C37BD465DF8047B704780B483B0C3
:100F980000AF78607B68DB6843F080027B68DA60CA
:100FA80000BF0C37BD465DF8047B704780B483B042
:100FB80000AF78607B68DB6823F080027B68DA60CA
:100FC80000BF0C37BD465DF8047B704780B483B022
:100FD80000AF78607B68DB6803F08003802B01D169
:100FE800012300E0002318460C37BD465DF8047B5A
:100FF800704780B582B000AF78600B467B807B88F5
:1010080003F00103002B0CD07B681B681846FFF720
:10101800AAFF0346012B04D07B681B681846FFF71C
:1010280082FF7B8803F00203002B0CD07B681B68CF
:101038001846FFF799FE0346012B04D07B681B680E
:101048001846FFF771FE7B8803F00403002B0CD0D1
:101058007B681B681846FFF7BAFE0346012B04D0CD
:101068007B681B681846FFF792FE7B8803F008032D
:10107800002B0CD07B681B681846FFF7DBFE034685
:10108800012B04D07B681B681846FFF7B3FE7B88EA
:1010980003F01003002B0CD07B681B681846FFF781
:1010A800FCFE0346012B04D07B681B681846FFF73B
:1010B800D4FE7B8803F02003002B0CD07B681B68D0
:1010C8001846FFF71EFE0346012B04D07B681B68F9
:1010D8001846FFF7F6FD7B8803F04003002B0CD081
:1010E8007B681B681846FFF771FF0346012B04D085
:1010F8007B681B681846FFF749FF7B8803F080036D
:10110800002B0CD07B681B681846FFF7F9FE0346D6
:10111800012B04D07B681B681846FFF7D1FE00BF7F
:101128000837BD4680BD80B582B000AF78600B46F9
:101138007B807B8803F00103002B0CD07B681B6845
:101148001846FFF710FF0346012B04D17B681B6884
:101158001846FFF7F8FE7B8803F00203002B0CD03B
:101168007B681B681846FFF7FFFD0346012B04D177
:101178007B681B681846FFF7E7FD7B8803F00403CC
:10118800002B0CD07B681B681846FFF720FE03462F
:10119800012B04D17B681B681846FFF708FE7B8883
:1011A80003F00803002B0CD07B681B681846FFF778
:1011B80041FE0346012B04D17B681B681846FFF7E4
:1011C80029FE7B8803F01003002B0CD07B681B687A
:1011D8001846FFF762FE0346012B04D17B681B68A3
:1011E8001846FFF74AFE7B8803F02003002B0CD03B
:1011F8007B681B681846FFF784FD0346012B04D063
:101208007B681B681846FFF76CFD7B8803F040037A
:10121800002B0CD07B681B681846FFF7D7FE0346E7
:10122800012B04D17B681B681846FFF7BFFE7B883B
:1012380003F08003002B0CD07B681B681846FFF76F
:101248005FFE0346012B04D17B681B681846FFF735
:1012580047FE00BF0837BD4680BD000080B582B09C
:1012680000AF78600B46FB70FB78022B06D17B68D9
:101278001B6801211846FFF7F1FC31E07B681B6809
:10128800194A934213D07B681B68184A93420ED0C0
:101298007B681B68164A934209D07B681B68154A0D
:1012A800934204D07B681B68134A934218D1FB7899
:1012B800032B06D17B681B6804211846FFF7CEFC78
:1012C8000EE0FB78042B0BD17B681B6801211846C4
:1012D800FFF7C4FC7B681B6804211846FFF7BEFCB7
:1012E80000BF0837BD4680BD002C014000340140D6
:1012F80000400140004401400048014080B582B0F0
:1013080000AF78600B46FB70FB78022B06D17B6838
:101318001B6801211846FFF7B2FC31E07B681B68A7
:10132800194A934213D07B681B68184A93420ED01F
:101338007B681B68164A934209D07B681B68154A6C
:10134800934204D07B681B68134A934218D1FB78F8
:10135800032B06D17B681B6804211846FFF78FFC16
:101368000EE0FB78042B0BD17B681B680121184623
:10137800FFF785FC7B681B6804211846FFF77FFC94
:1013880000BF0837BD4680BD002C01400034014035
:1013980000400140004401400048014080B582B04F
:1013A80000AF78600B46FB70FB78022B06D17B6898
:1013B8001B6810211846FFF751FC31E07B681B6859
:1013C800194A934213D07B681B68184A93420ED07F
:1013D8007B681B68164A934209D07B681B68154ACC
:1013E800934204D07B681B68134A934218D1FB7858
:1013F800032B06D17B681B6840211846FFF72EFC9B
:101408000EE0FB78042B0BD17B681B681021184673
:10141800FFF724FC7B681B6840211846FFF71EFC79
:1014280000BF0837BD4680BD002C01400034014094
:1014380000400140004401400048014080B582B0AE
:1014480000AF78600B46FB70FB78022B06D17B68F7
:101458001B6810211846FFF712FC31E07B681B68F7
:10146800194A934213D07B681B68184A93420ED0DE
:101478007B681B68164A934209D07B681B68154A2B
:10148800934204D07B681B68134A934218D1FB78B7
:10149800032B06D17B681B6840211846FFF7EFFB3A
:1014A8000EE0FB78042B0BD17B681B6810211846D3
:1014B800FFF7E5FB7B681B6840211846FFF7DFFB59
:1014C80000BF0837BD4680BD002C014000340140F4
:1014D80000400140004401400048014080B582B00E
:1014E80000AF78600B46FB70FB78022B07D17B6856
:1014F8001B684FF480711846FFF7B0FB34E07B6837
:101508001B681B4A934213D07B681B68194A934295
:101518000ED07B681B68184A934209D07B681B6809
:10152800164A934204D07B681B68154A93421BD124
:10153800FB78032B07D17B681B684FF48061184642
:10154800FFF78CFB10E0FB78042B0DD17B681B6840
:101558004FF480711846FFF781FB7B681B684FF4D6
:1015680080611846FFF77AFB00BF0837BD4680BD8B
:10157800002C01400034014000400140004401407B
:101588000048014080B582B000AF78600B46FB7020
:10159800FB78022B07D17B681B684FF480711846D3
:1015A800FFF76DFB34E07B681B681B4A934213D03E
:1015B8007B681B68194A93420ED07B681B68184ADF
:1015C800934209D07B681B68164A934204D07B6813
:1015D8001B68154A93421BD1FB78032B07D17B6804
:1015E8001B684FF480611846FFF749FB10E0FB7851
:1015F800042B0DD17B681B684FF480711846FFF7E8
:101608003EFB7B681B684FF480611846FFF737FB89
:1016180000BF0837BD4680BD002C014000340140A2
:1016280000400140004401400048014080B582B0BC
:1016380000AF78600B46FB70FB78022B06D17B6805
:101648001B684FF480511846FFF708FB00BF0837A6
:10165800BD4680BD80B582B000AF78600B46FB7098
:10166800FB78022B06D17B681B684FF48051184623
:10167800FFF705FB00BF0837BD4680BD80B584B0C5
:1016880000AF78600023FB607B681B68304A934298
:1016980001D1304BFB607B681A68FB681A60FB68F5
:1016A8001B681846FFF7B6FAB860BB68002B06D06F
:1016B800BB68102B03D0FB6801221A7102E0FB689B
:1016C80000221A71FB681B68234A934213D0FB68F7
:1016D8001B68224A93420ED0FB681B68204A93423B
:1016E80009D0FB681B681F4A934204D0FB681B683B
:1016F8001D4A934204D1FB681B681846FFF7D1FACC
:10170800FB681B68144A934213D0FB681B68134A92
:1017180093420ED0FB681B68114A934209D0FB68BC
:101728001B68104A934204D0FB681B680E4A934218
:1017380008D17B681B681846FFF784FA0346DAB2BB
:10174800FB685A71FB6818461037BD4680BD00BF5C
:1017580000040040A4020020002C01400034014095
:1017680000400140004401400048014080B485B079
:1017780000AF786039603B68002B03D17B68403349
:10178800FB6001E0044BFB60FB6818461437BD465C
:101798005DF8047B704700BF0C03045080B483B02D
:1017A80000AF78607B68DB6803F44063002B01D1ED
:1017B800012300E0002318460C37BD465DF8047B82
:1017C800704780B483B000AF786039607B681B6B6A
:1017D80023F00F023B681A437B681A6300BF0C377B
:1017E800BD465DF8047B704780B483B000AF786075
:1017F80039607B68DB6823F003023B681A437B6827
:10180800DA6000BF0C37BD465DF8047B704780B4D2
:1018180083B000AF78607B68DB6C03F0C003002BFB
:1018280001D1012300E0002318460C37BD465DF8BE
:10183800047B704780B483B000AF78607B689B6896
:1018480023F0004323F03F0343F001027B689A60D2
:1018580000BF0C37BD465DF8047B704780B483B089
:1018680000AF78607B689B6823F0004323F03F0358
:1018780043F002027B689A6000BF0C37BD465DF8F2
:10188800047B704780B483B000AF78607B689B6846
:1018980003F00103012B01D1012300E000231846C6
:1018A8000C37BD465DF8047B704780B483B000AF49
:1018B800786039607B689B6823F0404323F03F03DE
:1018C8003A6802F08042134343F000427B689A6012
:1018D80000BF0C37BD465DF8047B704780B483B009
:1018E80000AF78607B689B6803F00043B3F1004F5A
:1018F80001D1012300E0002318460C37BD465DF8EE
:10190800047B704780B483B000AF78607B689B68C5
:1019180023F0004323F03F0343F004027B689A60FE
:1019280000BF0C37BD465DF8047B704780B483B0B8
:1019380000AF78607B689B6823F0004323F03F0387
:1019480043F008027B689A6000BF0C37BD465DF81B
:10195800047B704780B483B000AF78607B681B68F5
:1019680003F00803082B01D1012300E000231846E7
:101978000C37BD465DF8047B704780B483B000AF78
:1019880078607B681B6803F01003102B01D10123DA
:1019980000E0002318460C37BD465DF8047B70470D
:1019A80080B483B000AF78607B6810221A6000BFF3
:1019B8000C37BD465DF8047B704780B483B000AF38
:1019C80078607B685B6843F008027B685A6000BFF8
:1019D8000C37BD465DF8047B704780B483B000AF18
:1019E80078607B685B6843F040027B685A6000BFA0
:1019F8000C37BD465DF8047B704780B483B000AFF8
:101A080078607B685B6823F008027B685A6000BFD7
:101A18000C37BD465DF8047B704780B483B000AFD7
:101A280078607B685B6823F010027B685A6000BFAF
:101A38000C37BD465DF8047B704780B483B000AFB7
:101A480078607B685B6823F040027B685A6000BF5F
:101A58000C37BD465DF8047B704780B483B000AF97
:101A680078607B685B6823F080027B685A6000BFFF
:101A78000C37BD465DF8047B704780B483B000AF77
:101A880078607B685B6803F01003102B01D1012399
:101A980000E0002318460C37BD465DF8047B70470C
:101AA80080B483B000AF78607B685B6803F0800324
:101AB800802B01D1012300E0002318460C37BD46D6
:101AC8005DF8047B7047000080B485B000AF786093
:101AD80039607B68FB600C4A3B6813441B781A46E4
:101AE800FB6813441B6808493A680A44127811468F
:101AF800FA680A4443F00103136000BF1437BD4677
:101B08005DF8047B704700BF5C0A010880B485B0AB
:101B180000AF786039607B68FB600C4A3B6813440F
:101B28001B781A46FB6813441B6808493A680A443C
:101B380012781146FA680A4423F00103136000BFC3
:101B48001437BD465DF8047B704700BF5C0A010886
:101B580080B485B000AF786039607B68FB60084A64
:101B68003B6813441B781A46FB6813441B6803F050
:101B7800200318461437BD465DF8047B704700BF44
:101B88005C0A010880B487B000AFF860B9607A6079
:101B9800FB687B610D4ABB6813441B781A467B6956
:101BA80013445B681B0C1B040849BA680A44127882
:101BB80011467A690A4411467A6813434B6000BF9C
:101BC8001C37BD465DF8047B704700BF5C0A0108FE
:101BD80080B487B000AFF860B9607A603B60FB689A
:101BE8007B613B6A102B14D1174ABB6813441B78DE
:101BF8001A467B6913441A467B68D360124ABB684D
:101C080013441B781A467B6913441A463B68936051
:101C180013E00D4ABB6813441B781A467B691344CA
:101C28001A467B689360084ABB6813441B781A46B7
:101C38007B6913441A463B68D36000BF1C37BD4616
:101C48005DF8047B704700BF5C0A010880B487B068
:101C580000AFF860B9607A60FB687B61074ABB68CF
:101C680013441B781A467B6913441A467B689360B1
:101C780000BF1C37BD465DF8047B70475C0A01084D
:101C880080B483B000AF78607B681B6803F02003E2
:101C9800202B01D1012300E0002318460C37BD4654
:101CA8005DF8047B704780B483B000AF78607B68D0
:101CB80020225A6000BF0C37BD465DF8047B704790
:101CC80080B485B000AF786039607B68FB600C4AEF
:101CD8003B6813441B781A46FB6813441B68084981
:101CE8003A680A4412781146FA680A4443F0020333
:101CF800136000BF1437BD465DF8047B704700BF12
:101D08005C0A010880B485B000AF786039607B68F0
:101D1800FB600C4A3B6813441B781A46FB68134463
:101D28001B6808493A680A4412781146FA680A4456
:101D380043F00803136000BF1437BD465DF8047B09
:101D4800704700BF5C0A010880B485B000AF7860B6
:101D580039607B68FB600C4A3B6813441B781A4661
:101D6800FB6813441B6808493A680A44127811460C
:101D7800FA680A4423F00203136000BF1437BD4613
:101D88005DF8047B704700BF5C0A010880B485B029
:101D980000AF786039607B68FB600C4A3B6813448D
:101DA8001B781A46FB6813441B6808493A680A44BA
:101DB80012781146FA680A4423F00403136000BF3E
:101DC8001437BD465DF8047B704700BF5C0A010804
:101DD80080B485B000AF786039607B68FB600C4ADE
:101DE8003B6813441B781A46FB6813441B68084970
:101DF8003A680A4412781146FA680A4423F008033C
:101E0800136000BF1437BD465DF8047B704700BF00
:101E18005C0A010880B485B000AF786039607B68DF
:101E2800FB600A4A3B6813441B781A46FB68134454
:101E38001B6803F00203022B01D1012300E00023F9
:101E480018461437BD465DF8047B70475C0A0108E4
:101E580080B584B000AF78600123FB817B681B6983
:101E68001846FFF79BFC0346002B2FD07B685B7A54
:101E7800DBB2022B11D07B685B7ADBB2042B0CD06F
:101E88007B685B7ADBB2082B07D07B681B69184636
:101E9800FFF760FD0346012B18D1786800F0F8F8C9
:101EA8000346002B12D17B685B7ADBB2082B03D187
:101EB8007B6801225A7202E07B6820225A727B6892
:101EC8001B691846FFF71EFD0023FB81FB89184696
:101ED8001037BD4680BD80B586B002AFF860B960E6
:101EE8007A603B600021F868FFF740FC03461A4619
:101EF8007968B868FFF7AAFE0021F868FFF736FC92
:101F080002463B68002100917968B868FFF760FED7
:101F1800BA697968B868FFF735FE7968B868FFF775
:101F2800CFFE7968B868FFF7EDFE7968B868FFF703
:101F3800CBFD00BF1037BD4680BD80B584B000AF73
:101F4800F860B9607A607968B868FFF7DFFD79688A
:101F5800B868FFF71BFF7968B868FFF739FF796839
:101F6800B868FFF7F1FE00227968B868FFF70AFE43
:101F780000BF1037BD4680BD80B584B000AF786023
:101F880039600223FB737B68DB79012B0FD17B68F7
:101F9800DA687B681B685B00D118FB7B7A6812687B
:101FA80002FB03F31A4638680EF00EFD0AE07B6860
:101FB800D968FB7B7A68126802FB03F31A46386813
:101FC8000EF002FD00BF1037BD4680BD80B586B05B
:101FD80000AFF860B9607A60FB685A69FB689B7962
:101FE80019461046FFF716FF0346DBB2012B37D11F
:101FF800FB685A69BB68104698470346012B2FD1E6
:10200800FB6804225A72FB685A697B681046984735
:10201800FB685A69FB689B7919461046FFF798FDDB
:102028000346002B19D1FB685A69FB689B7919464E
:102038001046FFF76BFDFB685869FB689B791946EA
:10204800FB681B681A46FFF79DFDFB685A69FB6829
:102058009B7919461046FFF737FD0123FB7501E010
:102068000023FB75FB7D18461837BD4680BD000070
:1020780080B500AF034A04490448FFF7A7FF00BF33
:1020880080BD00BFAF1C0008891C00083003002079
:1020980080B582B000AF78607B681B691846FFF78F
:1020A8006CFC0346DBB2012B07D17B681B69184621
:1020B800FFF776FC7B6810225A727B685B7ADBB28A
:1020C800102B0CBF01230023DBB218460837BD468E
:1020D80080BD80B582B000AF78600B46FB70FB789E
:1020E800012B0DD17B681B691846FFF757FB034688
:1020F800012B12D07B681B691846FFF703FC0CE024
:102108007B681B691846FFF782FB0346012B04D046
:102118007B681B691846FFF709FC00BF0837BD46F6
:1021280080BD000090B589B002AFF860084611463E
:102138001A4603467B810B463B811346FB800023EE
:102148007B61FB681B693C4A934201D13B4B7B6135
:102158007B69002B6BD0FB681A697B691A617B6904
:102168000022DA71FB88012B61D03B89002B47D014
:102178007B695B7ADBB2082B42D0FB68DA687B6943
:10218800DA60FB681A687B691A60FB685A697B69C0
:102198005A61FB689A797B699A71FB681A797B693D
:1021A8001A717B691B69B96A1846FFF70AFB7B89B4
:1021B800012B21D07B89042B16D17B691B69032154
:1021C8001846FFF711FB7B6918697B6959697B69B8
:1021D8009B791C467B69DA687B691B680093134608
:1021E8002246FFF778FE07E07B89022B04D17B6942
:1021F8001B691846FFF7E1FB7B6908225A7216E053
:102208003B89002B13D17B699B7ADBB2082B0ED05C
:10221800FB685A797B695A717B89022B04D17B69E7
:102228001B691846FFF7D9FB7B6908229A727B69FC
:1022380018461C37BD4690BD0001045030030020ED
:1022480080B582B000AF78607B681B691846FFF7DD
:1022580019FB0346002B04D17B681B691846FFF75E
:10226800E9FA00BF0837BD4680BD80B586B000AF2B
:10227800F8600B467A607B810123FB82FB681B694F
:10228800002B46D07B89012B05D1F868FFF7E0FDCC
:102298000346FB823DE07B89042B1FD1FB681B6949
:1022A8001846FFF77BFA0346002B32D0FB68012261
:1022B8005A72FB681B691846FFF724FB00BFFB68CE
:1022C8005B7ADBB2042BFAD17968F868FFF754FE21
:1022D800FB6808225A720023FB821AE07B89022BD2
:1022E80017D1FB685B7ADBB2202B09D0FB685B7ADD
:1022F800DBB2042B04D0FB685B7ADBB2102B08D16D
:10230800FB6808225A727968F868FFF735FE0023DF
:10231800FB82FB8A18461837BD4680BD80B582B05F
:1023280000AF78600B467B8013463B807B681B6957
:102338001846FFF7A7FA0346002B04D07B681B69F1
:102348001846FFF78BFA7B681B691846FFF7A8FB4E
:102358000346002B04D07B681B691846FFF77DFBFA
:102368007B681B691846FFF788FB0346002B04D0DF
:102378007B681B691846FFF750FB3B88002B35D05C
:102388007B88012B1AD07B88022B05D17B681B69BF
:102398001846FFF732FB11E07B88042B0ED17B68CF
:1023A80018697B6859697B689B791A46FFF7C5FDF0
:1023B8007B681B6900211846FFF716FA7B68002224
:1023C800DA607B6800221A607B6800225A617B68A9
:1023D80000229A717B6800221A717B681A697B68EF
:1023E8001B7919461046FFF7ECF90AE07B680022D2
:1023F8005A717B88022B04D17B681B691846FFF74A
:102408001CFB00BF0837BD4680BD000080B584B006
:1024180000AF78600B46FB707B681B691846FFF7B6
:1024280031FA0346FB7397F90F30012B04D17B680F
:102438001B691846FFF712FAFB78002B0FD17B684F
:102448001B697F211846FFF730FA00BF7B681B69BC
:102458001846FFF743FA0346012BF7D040E0FB7814
:10246800012B0FD17B681B692C491846FFF71DFA11
:1024780000BF7B681B691846FFF730FA0346012B3B
:10248800F7D02DE07B681B697F211846FFF70DFA0E
:1024980000BF7B681B691846FFF720FA0346012B2B
:1024A800F7D00023BB8107E000BFBB891BB29BB2FA
:1024B80001339BB21BB2BB81BB891BB29BB2032BFE
:1024C800F2D97B681B6915491846FFF7EEF900BF7A
:1024D8007B681B691846FFF701FA0346012BF7D002
:1024E8000023BB8107E000BFBB891BB29BB201334D
:1024F8009BB21BB2BB81BB891BB29BB2032BF2D927
:1025080097F90F30012B04D17B681B691846FFF738
:1025180091F900BF1037BD4680BD00BF00007F4065
:1025280080B483B000AF78607B681B6843F0010219
:102538007B681A6000BF0C37BD465DF8047B7047A6
:1025480080B483B000AF78607B681B6823F0010219
:102558007B681A6000BF0C37BD465DF8047B704786
:1025680080B483B000AF786039607B681B6823F063
:1025780004023B681A437B681A6000BF0C37BD46EB
:102588005DF8047B704780B483B000AF78607B68E7
:102598001B6803F0040318460C37BD465DF8047B3E
:1025A800704780B483B000AF78607B68DB6A1846F8
:1025B8000C37BD465DF8047B704780B483B000AF2C
:1025C800786039607B683A681A6300BF0C37BD468B
:1025D8005DF8047B704780B483B000AF78603960E1
:1025E8007B683A685A6300BF0C37BD465DF8047BC8
:1025F800704780B483B000AF786039607B683A6810
:102608009A6300BF0C37BD465DF8047B704780B401
:1026180083B000AF786039607B683A68DA6300BFDE
:102628000C37BD465DF8047B704780B483B000AFBB
:10263800786039607B683A681A6400BF0C37BD4619
:102648005DF8047B704780B483B000AF78607B6826
:102658005B6B18460C37BD465DF8047B704780B449
:1026680083B000AF78607B689B6B18460C37BD461B
:102678005DF8047B704780B483B000AF78607B68F6
:10268800DB6B18460C37BD465DF8047B704780B499
:1026980083B000AF78607B681B6C18460C37BD466A
:1026A8005DF8047B704780B483B000AF78607B68C6
:1026B8005B6943F001027B685A6100BF0C37BD4675
:1026C8005DF8047B704780B483B000AF78607B68A6
:1026D8001B6918460C37BD465DF8047B704780B40B
:1026E80083B000AF786039607B683A689A6100BF50
:1026F8000C37BD465DF8047B704780B483B000AFEB
:10270800786039607B683A689A6200BF0C37BD46CA
:102718005DF8047B7047000080B584B000AF786036
:1027280087ED000AD7ED007AF5EEC07AF1EE10FADF
:1027380003D54FF000033B600AE0D7ED007A9FED28
:10274800167AF4EEC77AF1EE10FA01DD134B3B600E
:102758007B681B681846FFF724FFF8607B681B79C5
:10276800002B0CBF01230023DBB21A46FB6813447D
:1027780007EE903AB8EE677AD7ED007A27EE277A17
:10278800DFED056AC7EE267AFCEEE77A17EE903A97
:1027980018461037BD4680BD0000C8420000C84238
:1027A80080B582B000AF786039607B681B681846D6
:1027B800FFF749FF02463B68934205D07B681B68D8
:1027C80039681846FFF707FF00BF0837BD4680BDC8
:1027D80080B582B000AF786039607B681B681846A6
:1027E800FFF73DFF02463B68934205D07B681B68B4
:1027F80039681846FFF7FDFE00BF0837BD4680BDA3
:1028080080B582B000AF786039607B681B68184675
:10281800FFF731FF02463B68934205D07B681B688F
:1028280039681846FFF7F3FE00BF0837BD4680BD7C
:1028380080B582B000AF786039607B681B68184645
:10284800FFF725FF02463B68934205D07B681B686B
:1028580039681846FFF7E9FE00BF0837BD4680BD56
:1028680080B584B000AF786087ED000A97ED000A64
:102878007868FFF751FFF860F9687868FFF790FF0C
:1028880000BF1037BD4680BD80B584B000AF78600A
:1028980087ED000A97ED000A7868FFF73DFFF860BA
:1028A800F9687868FFF794FF00BF1037BD4680BD10
:1028B80080B584B000AF786087ED000A97ED000A14
:1028C8007868FFF729FFF860F9687868FFF798FFDC
:1028D80000BF1037BD4680BD80B584B000AF7860BA
:1028E80087ED000A97ED000A7868FFF715FFF86092
:1028F800F9687868FFF79CFF00BF1037BD4680BDB8
:1029080080B485B000AF78607B681B689A68074B15
:102918001340FB60FB68062B0CBF01230023DBB2CE
:1029280018461437BD465DF8047B70470700010060
:1029380080B584B000AF78600B46FB707B681B687D
:102948001846FFF720FEF860FB78002B1ED07B6846
:102958001B68324A934213D07B681B68304A934203
:102968000ED07B681B682F4A934209D07B681B688E
:102978002D4A934204D07B681B682C4A934205D1A8
:102988007B681B6800211846FFF717FEFB68042BBD
:1029980011D07B681B6804211846FFF7E1FD7B68AE
:1029A8001B681846FFF77FFE7B681B68F9681846A6
:1029B800FFF7D6FD04E07B681B681846FFF773FE37
:1029C8007B681B681846FFF7ABFDFB78002B20D00F
:1029D8007B681B68114A934213D07B681B68104AB6
:1029E80093420ED07B681B680E4A934209D07B68DD
:1029F8001B680D4A934204D07B681B680B4A9342BC
:102A080007D17B681A687B685B7919461046FFF71F
:102A1800D4FD00BF1037BD4680BD00BF002C01406B
:102A2800003401400040014000440140004801409A
:102A380080B582B000AF78607B681B681846FFF7E6
:102A48007FFD00BF0837BD4680BD000080B483B05D
:102A580000AF7860074B5B79002B0CBF0123002384
:102A6800DAB27B6801331A7000BF0C37BD465DF8D7
:102A7800047B70472822002080B400AF0C4B5B79A0
:102A8800002B0CBF01230023DAB2094B9A71084BC3
:102A98005A790132D2B25A71054B5B79092B02D9A6
:102AA800034B00225A7100BFBD465DF8047B704796
:102AB8002822002080B485B000AF786039607B6838
:102AC800012283F8D8203B68D3E900237968C1E95B
:102AD80002237B6801221A600023FB600CE07B68FC
:102AE800D3E902237868F9680231C9000144C1E9D1
:102AF8000023FB680133FB60FB68182BEFDD00BF88
:102B080000BF1437BD465DF8047B704780B586B0BA
:102B180000AF87ED040BF860B9607A60BB68D3E951
:102B280002017B68D3E90023FDF74EFF0346002B23
:102B380005D17B68D3E90023B968C1E90223F868A5
:102B4800BB681033C82219460DF03EFFF968D7E973
:102B58000423C1E93223FB6803F1D000BB681033BA
:102B6800C02219460DF030FFBB6803F11000FB6866
:102B7800C833C82219460DF027FF00BF1837BD46D5
:102B880080BD80B485B000AF786039607B68012271
:102B980083F860203B68D3E900237968C1E9022300
:102BA8007B6801221A600023FB600CE07B68D3E994
:102BB80002237868F9680231C9000144C1E9002399
:102BC800FB680133FB60FB68092BEFDD00BF00BF2A
:102BD8001437BD465DF8047B704780B586B000AFFA
:102BE80087ED040BF860B9607A60BB68D3E902012D
:102BF8007B68D3E90023FDF7E7FE0346002B05D1E8
:102C08007B68D3E90023B968C1E90223F868BB6887
:102C18001033502219460DF0D7FEF968D7E904237E
:102C2800C1E91423FB6803F15800BB68103348223C
:102C380019460DF0C9FEBB6803F11000FB6850335C
:102C4800502219460DF0C0FE00BF1837BD4680BDA2
:102C580080B58CB002AF78607B6800221A727B68FE
:102C680001225A607B681033BB6100237B741A4BC6
:102C7800FB611A4B3B620123BB74002387F82430A5
:102C8800022387F825300923FB6009233B7407F1E9
:102C98000C0008230093042301220421FFF742FAC1
:102CA80002467B68DA607B68DB6802211846FFF71A
:102CB800ADFB7B68DB681846FFF7C2FA7B68DB6808
:102CC80001211846FFF705FA7B6801221A7200BF36
:102CD8002837BD4680BD00BF0001045000000240F7
:102CE80080B5A6B000AF78601A4BBB6000233B7379
:102CF80000237B7307F108031846FEF7BFFC024662
:102D08007B68DA607B68DB6800211846FEF771F99A
:102D18007B68DB6802211846FEF7E0FB7B68DB680E
:102D280002211846FEF782FC7B68DB681846FFF72D
:102D3800E7FD034687F8973097F89730002B05D1C1
:102D48007B68DB6800211846FFF7F2FD00BF983763
:102D5800BD4680BD0004004080B5A6B000AF7860D5
:102D68001A4BBB6000233B7300237B7307F10803F6
:102D78001846FEF783FC02467B68DA607B68DB68EE
:102D880000211846FEF735F97B68DB6802211846F2
:102D9800FEF764FA7B68DB6802211846FEF7FEFA44
:102DA8007B68DB681846FFF7ABFD034687F897306A
:102DB80097F89730002B05D17B68DB68002118460F
:102DC800FFF7B6FD00BF9837BD4680BD0004004040
:102DD800B0B5AAB000AFFFF74FFEA94BD3F89432B5
:102DE800A84A04211846FFF740FAA54BB3F8543314
:102DF800A7F87830A34BDB89A34AA2F85030A14B3F
:102E08001B88A14AA2F85E309E4B9B899E4AA2F875
:102E180052309C4B5B889C4AA2F85C30994B5B898A
:102E2800994AA2F85430974B9B88974AA2F85A308F
:102E3800944B1B89944AA2F85630924BDB88924AED
:102E4800A2F858300023C7F8843012E08E4AD7F829
:102E58008430283332F813008B49D7F8843003F1D3
:102E68002002034621F81230D7F884300133C7F81E
:102E78008430D7F88430072BE8DD834BB3F8423031
:102E88001846FDF7BFFA04460D46804A8049814836
:102E980045EC104BFFF7A1FE7B4B03F55163D3E9DB
:102EA8000023C7E928230023C7F880301DE0D7F89E
:102EB80080300133744A03F5D173DB001344D3E93E
:102EC8000023C7E92623D7E92623D7E92801FDF7F8
:102ED80085FD0346002B03D0D7E92623C7E928231D
:102EE800D7F880300133C7F88030D7F88030082B06
:102EF800DDDD694A69496A4897ED280BFFF706FE48
:102F0800614B03F57E63D3E90023C7E9222300233D
:102F1800C7F880301DE0D7F8803001335A4A03F5EE
:102F2800FE73DB001344D3E90023C7E92623D7E95E
:102F38002623D7E92201FDF76FFD0346002B03D0B6
:102F4800D7E92623C7E92223D7F880300133C7F809
:102F58008030D7F88030172BDDDD4B4BB3F8443089
:102F68001846FDF74FFA04460D464E4A4E494F485B
:102F780045EC104BFFF7CAFD434B03F50663D3E955
:102F88000023C7E928230023C7F880301DE0D7F8BD
:102F9800803001333C4A03F58673DB001344D3E9E0
:102FA8000023C7E92623D7E92623D7E92801FDF717
:102FB80015FD0346002B03D0D7E92623C7E92823AC
:102FC800D7F880300133C7F88030D7F88030172B16
:102FD800DDDD2D4BB3F846301846FDF713FA0446ED
:102FE8000D46334A3349344845EC104BFFF78EFD04
:102FF800254B03F5A863D3E900232349C1E91E2320
:103008000023C7F880301EE0D7F8803001331E4A0D
:10301800A833DB001344D3E90023C7E926231A4B5E
:10302800D3E91E23D7E92601FDF7F6FC0346002B5A
:1030380004D01549D7E92623C1E91E23D7F88030E3
:103048000133C7F88030D7F88030172BDCDD0E4B02
:10305800B3F848301846FDF7D5F904460D46174A27
:103068001749184845EC104BFFF750FD064BD3E9BC
:10307800EC230549C1E920230023C7F8803042E04A
:10308800301500206C030020C003002088000020B9
:10309800981F0020D0100020A00000204821002008
:1030A800A013002070000020F81C0020200C002035
:1030B80060000020381B0020000900205800002074
:1030C800581A002070070020D7F8803001339E4A34
:1030D8007633DB001344D3E90023C7E926239A4B50
:1030E800D3E92023D7E92601FDF796FC0346002BF8
:1030F80004D09549D7E92623C1E92023D7F88030A1
:103108000133C7F88030D7F88030172BDCDD8E4BC1
:10311800B3F84A301846FDF775F904460D468B4A50
:103128008B498C4845EC104BFFF7F0FC864BD3E9F4
:1031380088238549C1E922230023C7F880301EE08F
:10314800D7F880300133804A4433DB001344D3E995
:103158000023C7E926237C4BD3E92223D7E926019C
:10316800FDF75AFC0346002B04D07749D7E92623FC
:10317800C1E92223D7F880300133C7F88030D7F867
:103188008030172BDCDD704BB3F84C301846FDF758
:1031980039F904460D46704A7049714845EC104BA0
:1031A800FFF71BFD684B03F55B63D3E90023C7E911
:1031B80024230023C7F880301DE0D7F8803001337E
:1031C800614A03F5DB73DB001344D3E90023C7E945
:1031D8002623D7E92623D7E92401FDF7FFFB034679
:1031E800002B03D0D7E92623C7E92423D7F880305A
:1031F8000133C7F88030D7F88030082BDDDD594A15
:1032080059495A4897ED240BFFF780FC4E4B03F5BC
:103218006563D3E90023C7E924230023C7F8803076
:103228001DE0D7F880300133474A03F5E573DB002A
:103238001344D3E90023C7E92623D7E92623D7E98E
:103248002401FDF7E9FB0346002B03D0D7E9262329
:10325800C7E92423D7F880300133C7F88030D7F87E
:103268008030172BDDDD424BB3F85633A7F87630A4
:10327800404AB7F87830138097ED220B0DF0A8F983
:10328800B0EE407AF0EE607A9FED2D1BB0EE470A63
:10329800F0EE670A0DF066F987ED260B4FF0000295
:1032A8004FF00003D7E92601FDF798FB0346002BF2
:1032B80010D0D7F89830BB65D7F89C3083F000431E
:1032C800FB65D7E91601FDF7EFFB03469BB25B42AE
:1032D8009BB205E0D7E92601FDF7E6FB03469BB262
:1032E800244A538097ED280B0DF072F9B0EE407A1E
:1032F800F0EE607A9FED121BB0EE470AF0EE670A17
:103308000DF030F987ED260B4FF000024FF0000367
:10331800D7E92601FDF762FB0346002B2CD0D7F82E
:1033280098303B65D7F89C3083F000437B65D7E93C
:103338001401FDF7B9FB03469BB25B429BB221E047
:10334800000000000000F040C003002050000020F2
:1033580078190020E00500209000002000200020BF
:103368007011002098000020682000201012002012
:103378003015002080030020D7E92601FDF794FBD3
:1033880003469BB2B64A9380B64B93ED1E7BB0EED4
:10339800470AF0EE670A0DF01BF9B0EE407AF0EE3E
:1033A800607A9FEDAD1BB0EE470AF0EE670A0DF0AC
:1033B800D9F887ED260B4FF000024FF00003D7E94C
:1033C8002601FDF70BFB0346002B10D0D7F89830E9
:1033D800BB64D7F89C3083F00043FB64D7E9120143
:1033E800FDF762FB03469BB25B429BB205E0D7E95F
:1033F8002601FDF759FB03469BB2994AD380994BA6
:1034080093ED207BB0EE470AF0EE670A0DF0E0F886
:10341800B0EE407AF0EE607A9FED8F1BB0EE470A6F
:10342800F0EE670A0DF09EF887ED260B4FF00002CC
:103438004FF00003D7E92601FDF7D0FA0346002B29
:1034480010D0D7F898303B64D7F89C3083F000430D
:103458007B64D7E91001FDF727FB03469BB25B426B
:103468009BB205E0D7E92601FDF71EFB03469BB298
:103478007B4A13817B4B93ED227BB0EE470AF0EE3B
:10348800670A0DF0A5F8B0EE407AF0EE607A9FED8D
:10349800721BB0EE470AF0EE670A0DF063F887ED8D
:1034A800260B4FF000024FF00003D7E92601FDF785
:1034B80095FA0346002B10D0D7F89830BB63D7F89D
:1034C8009C3083F00043FB63D7E90E01FDF7ECFA6B
:1034D80003469BB25B429BB205E0D7E92601FDF7A4
:1034E800E3FA03469BB25E4A538197ED240B0DF035
:1034F8006FF8B0EE407AF0EE607A9FED571BB0EEB1
:10350800470AF0EE670A0DF02DF887ED260B4FF00D
:1035180000024FF00003D7E92601FDF75FFA0346E2
:10352800002B10D0D7F898303B63D7F89C3083F045
:1035380000437B63D7E90C01FDF7B6FA03469BB25B
:103548005B429BB205E0D7E92601FDF7ADFA0346D9
:103558009BB2434A9381424AB7F87630D381424BB3
:10356800DB8E3F4A1382414BB3F85833A7F87830C3
:103578003C4BB3F842301846FCF744FF04460D466E
:103588003B4A3C493C4845EC104BFFF7BFFA354BEA
:1035980003F53863D3E90023C7E922230023C7F8DA
:1035A80080301DE0D7F8803001332E4A03F5B87318
:1035B800DB001344D3E90023C7E92623D7E92623F0
:1035C800D7E92201FDF728FA0346002B03D0D7E9F3
:1035D8002623C7E92223D7F880300133C7F8803083
:1035E800D7F88030172BDDDD1E4B03F50663D3E9D2
:1035F8000023C7E924230023C7F880301DE0D7F84B
:1036080080300133174A03F58673DB001344D3E98E
:103618000023C7E92623D7E92623D7E92401FDF7A4
:10362800FBF90346002B03D0D7E92623C7E9242357
:10363800D7F880300133C7F88030D7F88030172B9F
:10364800DDDD084B03F5A863D3E90023C7E9282388
:103658000023C7F880302EE0000000000000F04092
:1036680080030020C0030020000000203015002047
:1036780080000020B81E0020400F0020D7F88030BE
:103688000133AF4AA833DB001344D3E90023C7E969
:103698002623D7E92623D7E92801FDF7BDF90346F4
:1036A800002B03D0D7E92623C7E92823D7F8803091
:1036B8000133C7F88030D7F88030172BDEDDA04BF8
:1036C800D3E9EC239E49C1E91E230023C7F88030C3
:1036D8001EE0D7F880300133994A7633DB00134473
:1036E800D3E90023C7E92623954BD3E91E23D7E95D
:1036F8002601FDF773F90346002B04D09049D7E95A
:103708002623C1E91E23D7F880300133C7F880305B
:10371800D7F88030172BDCDD894BD3E9882388491B
:10372800C1E920230023C7F880301EE0D7F8803095
:103738000133834A4433DB001344D3E90023C7E948
:1037480026237F4BD3E92023D7E92601FDF746F945
:103758000346002B04D07A49D7E92623C1E9202360
:10376800D7F880300133C7F88030D7F88030172B6E
:10377800DCDD734BB3F84C301846FCF743FE0446C7
:103788000D46704A7049714845EC104BFFF7BEF979
:103798006B4B03F51F63D3E900236949C1E9222371
:1037A8000023C7F880301FE0D7F880300133644A1F
:1037B80003F59F73DB001344D3E90023C7E92623ED
:1037C8005F4BD3E92223D7E92601FDF707F9034622
:1037D800002B04D05A49D7E92623C1E92223D7F878
:1037E80080300133C7F88030D7F88030172BDBDD05
:1037F800574BB3F85A33A7F87630564AB7F87830AB
:10380800138097ED220B0CF0E3FEB0EE407AF0EE59
:10381800607A9FED491BB0EE470AF0EE670A0CF09C
:10382800A1FE87ED260B4FF000024FF00003D7E909
:103838002601FDF7D3F80346002B10D0D7F89830AF
:10384800BB62D7F89C3083F00043FB62D7E90A01DA
:10385800FDF72AF903469BB25B429BB205E0D7E924
:103868002601FDF721F903469BB23A4A538097EDAA
:10387800240B0CF0ADFEB0EE407AF0EE607A9FEDCE
:103888002E1BB0EE470AF0EE670A0CF06BFE87EDD0
:10389800260B4FF000024FF00003D7E92601FDF791
:1038A8009DF80346002B10D0D7F898303B62D7F824
:1038B8009C3083F000437B62D7E90801FDF7F4F8F8
:1038C80003469BB25B429BB205E0D7E92601FDF7B0
:1038D800EBF803469BB21F4A938097ED280B0CF038
:1038E80077FEB0EE407AF0EE607A9FED131BB0EEF3
:1038F800470AF0EE670A0CF035FE87ED260B4FF00D
:1039080000024FF00003D7E92601FDF767F80346E8
:10391800002B21D0D7F89830BB61D7F89C3083F0C2
:103928000043FB61D7E90601FDF7BEF803469BB2E9
:103938005B429BB216E000BF000000000000F040B0
:10394800C003002078000020D81D0020B00D002002
:103958003015002094030020D7E92601FDF7A4F8CC
:1039680003469BB2AA4AD380AA4B93ED1E7BB0EEC6
:10397800470AF0EE670A0CF02BFEB0EE407AF0EE44
:10398800607A9FEDA11BB0EE470AF0EE670A0CF0D3
:10399800E9FD87ED260B4FF000024FF00003D7E951
:1039A8002601FDF71BF80346002B10D0D7F89830F6
:1039B8003B61D7F89C3083F000437B61D7E9040171
:1039C800FDF772F803469BB25B429BB205E0D7E96C
:1039D8002601FDF769F803469BB28D4A13818D4B8A
:1039E80093ED207BB0EE470AF0EE670A0CF0F0FD8D
:1039F800B0EE407AF0EE607A9FED831BB0EE470A96
:103A0800F0EE670A0CF0AEFD87ED260B4FF00002D2
:103A18004FF00003D7E92601FCF7E0FF0346002B2F
:103A280010D0D7F89830BB60D7F89C3083F00043AB
:103A3800FB60D7E90201FDF737F803469BB25B420A
:103A48009BB205E0D7E92601FDF72EF803469BB2A5
:103A58006F4A53816F4B93ED227BB0EE470AF0EE2D
:103A6800670A0CF0B5FDB0EE407AF0EE607A9FED93
:103A7800661BB0EE470AF0EE670A0CF073FD87ED9F
:103A8800260B4FF000024FF00003D7E92601FCF7A0
:103A9800A5FF0346002B10D0D7F898303B60D7F825
:103AA8009C3083F000437B60D7E90001FCF7FCFF02
:103AB80003469BB25B429BB205E0D7E92601FCF7BF
:103AC800F3FF03469BB2524A9381514AB7F87630C6
:103AD800D381514B9A8F4E4B1A82504B9B79002BB6
:103AE80015D04C4BB3F840301846FCF78BFC024617
:103AF8000B464B49C1E9B823464BB3F84E3018463C
:103B0800FCF780FC02460B464549C1E9BA2300236D
:103B1800C7F884302CE0404B1B8E19463D4AD7F835
:103B28008430283332F8133001FB03F31846FCF7CE
:103B380069FC4FF000023B4BFCF7DEFC02460B46EB
:103B48003448D7F88410C9000144C1E90023364A33
:103B5800D7F88430134400221A70344AD7F88430D6
:103B6800002122F81310D7F884300133C7F88430C5
:103B7800D7F88430072BCEDD2D4B00221A602D4B51
:103B880000221A60264BD3E9CA014FF000022A4BE3
:103B9800FCF7FCFA02460B462149C1E9CA23002377
:103BA800C7F8843011E0254AD7F88430134493F9D4
:103BB800001007F16402D7F8843013440A461A70DB
:103BC800D7F884300133C7F88430D7F88430042B11
:103BD800E9DD134BD3E9CA014FF000024FF00003AF
:103BE800FCF7FCFE0346002B2AD00D4BD3E9CA2371
:103BF80010461946FCF730FF03465B42C7F884308D
:103C0800002387F87B3028E0000000000000F04027
:103C180094030020C0030020000000202822002078
:103C2800301500200000503EB8030020A8030020F3
:103C380064030020680300200000F03F680A0108C0
:103C4800BC4BD3E9CA2310461946FCF705FF0346C7
:103C5800C7F88430012387F87B30D7F88430052BE8
:103C68000DDDD7F88420B44B83FB02135910D3170A
:103C7800C91A0B469B000B44D31AC7F88430D7F8EF
:103C88008430022B0EDDD7F88430C3F10503C7F862
:103C9800843097F87B30002B0CBF01230023DBB264
:103CA80087F87B30002387F86030002387F861307D
:103CB800D7F88430002B65DD97F87B30002B2CD0AB
:103CC8000523C7F8803019E0D7F88020D7F884306A
:103CD800D31A5A1ED7F88030013B483207F16001E9
:103CE8000A4412F9442C483307F160010B4403F8E5
:103CF800442CD7F88030013BC7F88030D7F88420AF
:103D0800D7F880309A42DFDBD7F8842007F16403C4
:103D1800002118460CF026FE34E0D7F8842007F17D
:103D28006003864918460CF04FFED7F88430C3F17B
:103D380005031A4607F16403002118460CF012FE29
:103D48000023C7F8803017E0D7F88020D7F88430F0
:103D5800D31A053307F16001D7F880200A4492F995
:103D68000020483307F160010B4403F8442CD7F8CE
:103D780080300133C7F88030D7F88020D7F88430F6
:103D88009A42E1DB6E4B6F4A1A6697F96630002B50
:103D980004D04FF40073C7F8843002E00023C7F85A
:103DA8008430674B1B6ED7F8842011461846FEF7FF
:103DB80096FC634B1A6ED7F88430DB4303F4007328
:103DC80019461046FEF799FC5D4B5E4A1A6697F94C
:103DD8006630002B04D04FF48043C7F8843002E0EB
:103DE8000023C7F88430564B1B6ED7F88420114641
:103DF8001846FEF774FC524B1A6ED7F88430DB4332
:103E080003F4804319461046FEF777FC4C4B4D4AA5
:103E18001A6697F96530002B04D04FF48073C7F801
:103E2800843002E00023C7F88430454B1B6ED7F876
:103E3800842011461846FEF752FC414B1A6ED7F8FB
:103E48008430DB4303F4807319461046FEF755FCB3
:103E58003B4B3C4A1A6697F96530002B04D04FF467
:103E68000043C7F8843002E00023C7F88430344B9D
:103E78001B6ED7F8842011461846FEF730FC304BED
:103E88001A6ED7F88430DB4303F400431946104612
:103E9800FEF733FC2A4B2B4A1A6697F96730002B3A
:103EA80004D04FF48053C7F8843002E00023C7F8E9
:103EB8008430234B1B6ED7F8842011461846FEF732
:103EC8000EFC1F4B1A6ED7F88430DB4303F4805383
:103ED80019461046FEF711FC194B1B4A1A6697F94A
:103EE8006430002B04D04FF48053C7F8843002E0CC
:103EF8000023C7F88430124B1B6ED7F88420114674
:103F08001846FEF7ECFB0E4B1A6ED7F88430DB43ED
:103F180003F4805319461046FEF7EFFB084B094A95
:103F28001A6697F96430002B10D04FF40053C7F885
:103F380084300EE03015002067666666680A01085E
:103F4800C003002000100048000400480023C7F800
:103F58008430874B1B6ED7F8842011461846FEF72D
:103F6800BEFB834B1A6ED7F88430DB4303F400534F
:103F780019461046FEF7C1FB7D4B7E4A1A6697F933
:103F88006730002B04D04FF40063C7F8843002E098
:103F98000023C7F88430764B1B6ED7F8842011466F
:103FA8001846FEF79CFB724B1A6ED7F88430DB4339
:103FB80003F4006319461046FEF79FFB6E48FEF7B0
:103FC80082FB38676B48FEF77EFBF8666B4B93F80D
:103FD8005C33FF2B07D0694B93F85C330133DAB2BB
:103FE800664B83F85C23654B93F8503303F0040366
:103FF800DBB2002B13D1614A92F8503343F004032B
:1040080082F850335D4B002283F85C235B4A92F8B8
:104018005033022161F3010382F850336FE0574BAC
:1040280093F85033C3F30103DBB2012B02D0022B08
:1040380012D04AE03B6F03F00403002B5ED14F4BD4
:10404800002283F85C234D4A92F85033022161F331
:10405800010382F8503351E03B6F03F00403002B57
:1040680010D1464B93F85C33C72B0BD9434B002236
:1040780083F85C23414A92F8503343F0030382F8F3
:1040880050333CE0FB6E03F04003002B0ED13B4A5B
:1040980092F85033012161F3010382F85033344917
:1040A8004FF00002364BC1E91C2328E030494FF09D
:1040B80000024FF00003C1E91A232D494FF0000216
:1040C8004FF00003C1E91C2319E02C4B93F85C3333
:1040D800632B0CD9294B002283F85C23274A92F8DA
:1040E8005033022161F3010382F8503307E020497D
:1040F8004FF00002224BC1E91A2300E000BF97F9F4
:1041080064309AB21A4BA3F8402097F965309AB2F6
:10411800174BA3F8422097F966309AB2144BA3F8CC
:10412800442097F967309AB2114BA3F8462097F9C3
:1041380067309AB20E4BA3F8482097F966309AB2C6
:104148000B4BA3F84A2097F965309AB2084BA3F8AD
:104158004C2097F964309AB2054BA3F84E20074BD0
:1041680093F85F33002B2DD10023C7F8843021E06A
:10417800C00300200010004800040048301500204B
:104188000000F03F374AD7F88430203332F8133034
:104198001846FCF737F902460B463348D7F884101F
:1041A8004131C9000144C1E90023D7F88430013303
:1041B800C7F88430D7F88430072BE3DD2A4B012277
:1041C80083F85F23284B93F86033002B0DD197F9C0
:1041D80068301846FCF726F902460B462249C1E921
:1041E800C023214B012283F860231F4B93F86133CE
:1041F800002B10D11C4B0122C3F800221A4B0822B5
:10420800C3F804224022002117480CF0ABFB164BE0
:10421800012283F86123144BD3E9C0014FF0000257
:10422800124BFCF7D1FB0346002B0CD00E4B082297
:10423800C3F800220C4B0122C3F80422402209498A
:1042480009480CF0C1FB97F968301846FCF7EAF802
:1042580002460B460449C1E9C0230023C7F884304D
:1042680057E000BFC0030020301500200000F03FD9
:104278008F4AD7F884304133DB001344D3E9000177
:104288004FF000028B4BFCF79FFB0346002B0ED030
:10429800894AD7F88430DB001344D3E900238448E3
:1042A800D7F884104931C9000144C1E90023804A84
:1042B800D7F884304933DB001344D3E900017C4A42
:1042C800D7F88430DB001344D3E90023FBF75CFF05
:1042D80002460B467848D7F88410C9000144C1E962
:1042E8000023754AD7F88430203332F81330184643
:1042F800FCF788F802460B466D48D7F88410413120
:10430800C9000144C1E90023D7F884300133C7F854
:104318008430D7F88430072BAADD0023C7F8803013
:104328000023FB67644BD3E91A014FF00002614B8D
:10433800FCF74AFB0346002B00F0AE806423FB67C2
:104348006FF06303C7F880305B4BD3E90401584B27
:10435800D3E9C423FCF760FB0346002B1ED0544B63
:10436800D3E9C4014EA3D3E90023FCF7C5F80246FC
:104378000B4614461D46504BD3E904014AA3D3E922
:104388000023FCF7B9F802460B4620462946FBF7FE
:10439800FDFE02460B464649C1E9C423464BD3E914
:1043A8000401434BD3E9C223FCF718FB0346002B57
:1043B8001ED03F4BD3E9C20139A3D3E90023FCF750
:1043C8009BF802460B4614461D463B4BD3E90401B5
:1043D80035A3D3E90023FCF78FF802460B462046A5
:1043E8002946FBF7D3FE02460B463149C1E9C223F1
:1043F800314BD3E90A012E4BD3E9C823FCF70CFB58
:104408000346002B1ED02A4BD3E9C80124A3D3E9C5
:104418000023FCF771F802460B4614461D46264B4E
:10442800D3E90A0120A3D3E90023FCF765F8024683
:104438000B4620462946FBF7A9FE02460B461C49B7
:10444800C1E9C8231C4BD3E90A01194BD3E9C62398
:10445800FCF7C4FA0346002B1ED0154BD3E9C6015E
:104468000FA3D3E90023FCF747F802460B4614468E
:104478001D46114BD3E90A010BA3D3E90023FCF72E
:104488003BF802460B4620462946FBF77FFE0246CC
:104498000B460749C1E9C6230023C7F8843019E051
:1044A8009A9999999999E93F9A9999999999C93FA6
:1044B800301500200000F03FC0030020A64AD7F8BE
:1044C80084302033002122F81310D7F884300133C8
:1044D800C7F88430D7F88430072BEFDD9E4BD3E93B
:1044E80004459E4BD3E9C2019C4BD3E9C423FBF797
:1044F8004DFE02460B46104619464FF000024FF09B
:104508008043FCF723F902460B4620462946FCF770
:1045180083FA0346002B03D08F4B0122A3F84420D3
:104528008D4BD3E90A458D4BD3E9C6018B4BD3E9B3
:10453800C823FBF72BFE02460B46104619464FF0E0
:1045480000024FF08043FCF701F902460B46204673
:104558002946FCF761FA0346002B03D07E4B012263
:10456800A3F84A204FF000024FF00003C7E92623C2
:104578004FF000024FF00003C7E92223764BD3E93E
:104588001C014FF00002764BFCF71EFA0346002B85
:1045980000F03B81704BB3F84430012B0BD16E4BCC
:1045A800B3F84A30002B19D16C494FF000026D4B1B
:1045B800C1E9D02312E0684BB3F84A30012B06D189
:1045C80066494FF00002664BC1E9D02306E0634913
:1045D8004FF000024FF00003C1E9D0235F4BD3E94D
:1045E800D0014FF000025E4BFCF7EEF90346002BBA
:1045F80010D0594BB3F84430012B0BD1564BB3F8BC
:104608004A30012B06D155494FF000024FF0804344
:10461800C1E9D023514BD3E9D0014FF00002514BEF
:10462800FCF7D2F90346002B10D04B4BB3F84430BB
:10463800012B0BD1484BB3F84A30012B06D147491F
:104648004FF000024FF04043C1E9D023434BD3E978
:10465800CE01424BD3E9D023FBF798FD02460B4627
:104668003E49C1E9CE233D4BD3E9D0013B4BD3E9C9
:10467800CC23FBF789FD02460B4614461D46374BF3
:10468800D3E9D20132A3D3E90023FBF735FF024671
:104698000B4620462946FBF779FD02460B462F4973
:1046A800C1E9D2232D4BD3E9D0014FF000022E4BA4
:1046B800FBF722FF02460B4614461D46274BD3E95B
:1046C800CE014FF00002294BFBF716FF02460B46BE
:1046D80020462946FBF75AFD02460B4614461D465E
:1046E8001E4BD3E9D2014FF00002214BFBF704FF28
:1046F80002460B4620462946FBF748FD02460B4674
:10470800C7E92223154BD3E9D0231449C1E9CC23A7
:10471800D7E922234FF000001649FBF735FD024682
:104728000B46104619464FF00002134BFCF76AF986
:104738000346002B22D0D7E922234FF000000D4971
:10474800FBF722FD02460B46C7E926231BE000BF04
:104758009A9999999999E93FC0030020301500204A
:104768000000F03F0000F0BF00002E400000E03FD6
:1047780000004E4000005940000059C04FF00002B0
:10478800A54BC7E926234FF00002A44BD7E9260121
:10479800FCF742F90346002B04D04FF000029F4B70
:1047A800C7E926234FF000029C4BD7E92201FBF70B
:1047B800EDFC02460B46104619464FF00002964B98
:1047C800FCF720F90346002B0BD04FF00002934B67
:1047D800D7E92201FBF7DAFC02460B46C7E9222398
:1047E80004E04FF000028C4BC7E922234FF000028F
:1047F8008A4BD7E92201FCF70FF90346002B04D0B6
:104808004FF00002854BC7E92223D7F88000FBF759
:1048180009FE02460B46D7E92601FBF7B7FC02461C
:104828000B46C7E92623F86FFBF7FCFD02460B464B
:10483800D7E92201FBF7AAFC02460B46C7E9222367
:10484800774B93F85D33002B08D17549D7E92623B8
:10485800C1E9BC23724B012283F85D23704B93F8A6
:104868005E33002B08D16E49D7E92223C1E9BE2364
:104878006B4B012283F85E23694BD3E9BC0162A329
:10488800D3E90023FBF738FE02460B4614461D46C3
:104898005FA3D3E90023D7E92601FBF72DFE0246E3
:1048A8000B4620462946FBF771FC02460B465C493D
:1048B800C1E9BC235A4BD3E9BE0153A3D3E9002372
:1048C800FBF71AFE02460B4614461D4650A3D3E9D1
:1048D8000023D7E92201FBF70FFE02460B462046CC
:1048E8002946FBF753FC02460B464D49C1E9BE2356
:1048F8004B4BD3E9BC014FF000024FF00003FCF72B
:104908008BF80346002B1CD0454BD3E9BC014FF074
:1049180000024FF08043FBF719FF02460B46104692
:1049280019464FF000023F4BFBF730FC02460B469E
:10493800C7E926234FF000024FF00003C7E92223FE
:1049480039E0374BD3E9BC014FF000024FF00003C8
:10495800FCF744F80346002B21D04FF000024FF03B
:104968000003C7E926232E4BD3E9BC014FF0000210
:104978004FF08043FBF7EAFE02460B461046194605
:104988004FF00002274BFBF7FFFB02460B46114690
:10499800C7F8881023F00043C7F88C300BE04FF0BD
:1049A80000024FF00003C7E926234FF000024FF042
:1049B8000003C7E922231A4BD3E9BE014FF00002D6
:1049C8004FF00003FCF728F80346002B2CD0144BBB
:1049D800D3E9BE014FF000024FF08043FBF7B6FE6B
:1049E80002460B46104619464FF000020D4BFBF7E6
:1049F800CDFB02460B46C7E924234FF000024FF0D7
:104A08000003C7E9282349E09A9999999999E93FB8
:104A18009A9999999999C93F000059C0000059403D
:104A280030150020000049408E4BD3E9BE014FF0FD
:104A380000024FF00003FBF7D1FF0346002B21D003
:104A48004FF000024FF00003C7E92423854BD3E958
:104A5800BE014FF000024FF08043FBF777FE02469D
:104A68000B46104619464FF000027F4BFBF78CFBB4
:104A780002460B461146C7F8A01023F00043C7F8BA
:104A8800A4300BE04FF000024FF00003C7E92423E5
:104A98004FF000024FF00003C7E92823714BD3F809
:104AA800D842D7E92601FCF71FF8034600EE103A72
:104AB8002046FDF7FDFE6B4BD3F8D842D7E922011B
:104AC800FCF712F8034600EE103A2046FDF704FF03
:104AD800644BD3F8C842D7E92401FCF705F803462C
:104AE80000EE103A2046FDF7BBFE5E4BD3F8C842F5
:104AF800D7E92801FBF7F8FF034600EE103A2046F5
:104B0800FDF7C2FE594B5A4A1A665A4BD3E90001BF
:104B18004FF000024FF00003FBF756FF0346002B4F
:104B280003D18023C7F8843002E00023C7F884301B
:104B38004E4B1B6ED7F8842011461846FDF7CFFD63
:104B48004A4B1A6ED7F88430DB4303F080031946CA
:104B58001046FDF7D2FD454B474A1A66434B1B6E7C
:104B680000211846FDF7BBFD404B1B6E4FF400516A
:104B78001846FDF7C2FD3D4B3F4A1A663B4BB3F85A
:104B88004430002B04D04FF48043C7F8843002E04F
:104B98000023C7F88430354B1B6ED7F884201146A4
:104BA8001846FDF79CFD314B1A6ED7F88430DB436D
:104BB80003F4804319461046FDF79FFD2B4B2E4A00
:104BC8001A662A4BB3F84A30002B04D04FF400433E
:104BD800C7F8843002E00023C7F88430234B1B6EEB
:104BE800D7F8842011461846FDF779FD1F4B1A6E39
:104BF800D7F88430DB4303F4004319461046FDF729
:104C08007CFD1A4B1D4A1A661A4BD3E902014FF074
:104C180000024FF00003FBF7D7FE0346002B03D139
:104C28000823C7F8843002E00023C7F884300F4B0C
:104C38001B6ED7F8842011461846FDF750FD0B4B24
:104C48001A6ED7F88430DB4303F008031946104680
:104C5800FDF753FD00F00CFD00F020FE00BFA83763
:104C6800BD46B0BD3015002000004940C0030020FB
:104C7800000C00480000002000080048000400481C
:104C8800B0B58EB000AF9C4B93EDB87B9B4A9C4966
:104C98009C48B0EE470AF0EE670AFDF737FF9A4BDB
:104CA80003F5DA63D3E90023C7E90C230023FB6289
:104CB80019E0FB6A0133944ADA33DB001344D3E981
:104CC8000023C7E90823D7E90823D7E90C01FBF734
:104CD80085FE0346002B03D0D7E90823C7E90C2338
:104CE800FB6A0133FB62FB6A172BE2DD97ED0C0BC5
:104CF8000BF06EFCB0EE407AF0EE607A9FED7C1B14
:104D0800B0EE470AF0EE670A0BF02CFC87ED080BB3
:104D18004FF000024FF00003D7E90801FBF75EFEF1
:104D28000346002B0ED03B6A3B617B6A83F000434D
:104D38007B61D7E90401FBF7B7FE03469BB25B42F0
:104D48009BB205E0D7E90801FBF7AEFE03469BB22C
:104D5800FB83694B93EDBA7B6C4A6D496D48B0EEA5
:104D6800470AF0EE670AFDF7D1FE674BD3E9242323
:104D7800C7E90C230023FB6219E0FB6A0133624A8E
:104D88001233DB001344D3E90023C7E90823D7E92A
:104D98000823D7E90C01FBF721FE0346002B03D0BB
:104DA800D7E90823C7E90C23FB6A0133FB62FB6AD6
:104DB800172BE2DD97ED0C0B0BF00AFCB0EE407AF6
:104DC800F0EE607A9FED4A1BB0EE470AF0EE670AF4
:104DD8000BF0C8FB87ED080B4FF000024FF0000303
:104DE800D7E90801FBF7FAFD0346002B0ED03B6A12
:104DF800BB607B6A83F00043FB60D7E90201FBF7E5
:104E080053FE03469BB25B429BB205E0D7E908011B
:104E1800FBF74AFE03469BB2BB83374ABB8BA2F81B
:104E28005633354AFB8BA2F85433374BD3E9242346
:104E3800C7E90C230023FB6219E0FB6A0133324AFD
:104E48001233DB001344D3E90023C7E90823D7E969
:104E58000823D7E90C01FBF7DFFD0346002B03D03D
:104E6800D7E90823C7E90C23FB6A0133FB62FB6A15
:104E7800172BE2DD97ED0C0B0BF0AAFBB0EE407A96
:104E8800F0EE607A9FED1A1BB0EE470AF0EE670A63
:104E98000BF068FB87ED080B4FF000024FF00003A2
:104EA800D7E90801FBF79AFD0346002B0ED03B6AB1
:104EB8003B607B6A83F000437B60D7E90001FBF726
:104EC800F3FD03469BB25B429BB205E0D7E90801BC
:104ED800FBF7EAFD03469BB2FB830B4B03F5DA6352
:104EE800D3E90023C7E90C230023FB622EE000BFAF
:104EF800000000000000F04030150020680000208D
:104F0800181C0020900A0020C00300204800002040
:104F18009818002050040020FB6A0133304ADA3325
:104F2800DB001344D3E90023C7E90823D7E90823A2
:104F3800D7E90C01FBF770FD0346002B03D0D7E936
:104F48000823C7E90C23FB6A0133FB62FB6A172BB2
:104F5800E2DD97ED0C0B0BF03BFBB0EE407AF0EE88
:104F6800607A9FED1D1BB0EE470AF0EE670A0BF062
:104F7800F9FA87ED080B4FF000024FF00003D7E96C
:104F88000801FBF72BFD0346002B0CD03C6A7B6A1B
:104F980083F0004520462946FBF786FD03469BB271
:104FA8005B429BB205E0D7E90801FBF77DFD0346AC
:104FB8009BB2BB830B4AFB8BA2F85A33094ABB8BC3
:104FC800A2F8583300F054FB00F068FC00BF3837F3
:104FD800BD46B0BDAFF30080000000000000F04007
:104FE800C00300203015002080B582B000AF002338
:104FF8007B6016E06E4BD98F6E4A7B6822F81310DF
:105008006B4BB3F840106C4A7B6822F81310684B5E
:10501800B3F84210694A7B6822F813107B680133A1
:105028007B607B68082BE5DD00237B6011E0604B2B
:1050380093F84610624A7B6813440A461A705C4B20
:10504800B3F844105F4A7B6822F813107B68013379
:105058007B607B68072BEADD554B1B6A5A4A136055
:10506800534B5B6A594A1360514B9B6A584A136009
:105078004F4BDB6A574A13604D4B9B6A544A536047
:105088004B4BDB6A534A5360494B9B6A504A9360C7
:10509800474BDB6A4F4A936000F07EFB444B5A8EC5
:1050A8004D4BA3F85423424B9A8E4B4BA3F85623EF
:1050B8003F4B1A8F484BA3F858233D4B5A8F464B0A
:1050C800A3F85A2344494FF00002444BC1E9C223D4
:1050D80041494FF00002414BC1E9C6233E4B002233
:1050E800C3F804223C4B0022C3F88C223A4B00221E
:1050F80083F888223A48FDF7ABFD3A493A48FDF76C
:1051080040FD3A493A48FDF7D5FC3A493A48FDF797
:10511800D1FC3A493A48FDF7CDFC3A493A48FDF7FF
:10512800C9FC3A493A48FDF7C5FC3A493A48FDF7FF
:1051380028FD3A493A48FDF7BDFC3A493A48FDF797
:10514800B9FC3A493A48FDF7B5FC234B002283F8ED
:10515800CC22214B002283F8D4221F4B0122C3F812
:10516800D0223448FDF7BCFD1B4B012283F8D42222
:10517800194B002283F8BC22174B002283F8C42263
:10518800154B0122C3F8C0222B48FDF7E5FD124B51
:10519800012283F8C42229492948FDF78BFC2949B3
:1051A8002948FDF787FC00BF0837BD4680BD00BF12
:1051B800000000206C0300208003002094030020DE
:1051C800B8030020A803002064030020680300201F
:1051D8004C03002058030020301500200000084030
:1051E800B817002088000020981F0020A000002089
:1051F8004821002070000020F81C002060000020DA
:10520800381B002058000020581A002050000020A9
:10521800781900209000002000200020980000202D
:105228006820002080000020B81E002078000020A0
:10523800D81D0020FC170020EC1700206800002073
:10524800181C0020480000209818002080B500AFE6
:105258003C4B93F88832002B15D13A4B012283F846
:105268008822384BD3F88C32012B0CD1354B93F86C
:105278009032002B07D0334BD3F89432012204210B
:105288001846FDF74BF82F4B93F8CC32002B28D15A
:105298002C4B012283F8CC222A4BD3F8D032012B95
:1052A8001FD1284B93F8D432002B1AD0254BD3F8B2
:1052B800D8321846FDF7BCFB224BD3F8D832002170
:1052C8001846FBF730FF1F4BD3F8D8320221184697
:1052D800FCF758F91B4BD3F8D83202211846FCF7D3
:1052E800B9F9184B93F8BC32002B28D1154B012281
:1052F80083F8BC22134BD3F8C032012B1FD1114BBA
:1053080093F8C432002B1AD00E4BD3F8C832184683
:10531800FDF78EFB0B4BD3F8C83200211846FBF77C
:1053280002FF084BD3F8C83202211846FBF7E6FF04
:10533800044BD3F8C83202211846FCF77FF800BFA7
:1053480080BD00BF3015002080B489B000AFF86080
:10535800B9607A60FB68BB610023FB61BB689B088E
:105368007B611B4B1B68B3F5C87F2AD00023FB6108
:1053780022E0174B1B6817497A6841F82320FB691C
:105388009B00BA691A44124B1B681268114903F54D
:10539800C87341F823200E4B1B680F4A12680D4949
:1053A80003F5487341F82320094B1B680133084A69
:1053B8001360FB690133FB61FA697B699A42D8D3B0
:1053C80000E000BF2437BD465DF8047B704700BF8E
:1053D80030220020382200203422002080B584B0FA
:1053E80000AF786072B600BF00F0A6FC0346FB6011
:1053F80007F10C037A6804211846FFF7A5FF62B687
:1054080000BF00BF1037BD4680BD000080B582B028
:1054180000AF344B1B785A1CD1B2324A1170002BA2
:1054280009D0314B01221A602E4B1B78013BDAB2AE
:105438002C4B1A7053E03B1D1846FDF707FB62B66C
:1054480000BF02200BF072F8FDF7C2FC02200BF03F
:1054580078F872B600BF234B1B78013BDAB2214BB8
:105468001A707B79002B11D0204B5B785A1CD1B273
:105478001E4A5170002B09D01B4B01221A601B4B8E
:105488005B78013BDAB2194B5A7028E0174B5B780E
:10549800002B24D0134B5B78002B1FD1114B5B786A
:1054A8000133DAB20F4B5A7062B600BF03200BF01B
:1054B8003DF8FFF7E5FB03200BF043F800BF72B699
:1054C80000BF0A4B5B78013BDAB2084B5A70054BB8
:1054D8005B78013BDAB2034B5A7000E000BF083733
:1054E800BD4680BDFC340020F83400200035002083
:1054F80080B584B000AF78603960374BFB60374BBC
:10550800BB60374B00221A70364B00221A7001DF3D
:1055180006F026FB00F0E0FE00F02EFF00F08EFF04
:1055280001F054FF01F072FB02F09EF901F0BEFF9A
:1055380002F04AFA01F00EFD02F00EFD02F066FCE0
:10554800294B1B6800221A6001200AF0EFFFFFF7C1
:105558004BFD01200AF0F5FF72B600BF97ED030A74
:1055680000F08AFC204B1B681B68002B0CBF012332
:105578000023DBB21A461B4B1A7062B600BF62B634
:1055880000BF15E0184B1B681B68002B14BF0123D4
:105598000023DBB21A46124B1A70114B1B78DBB290
:1055A800002B05D0114B1B68104A23F00103136030
:1055B8000C4B1B78DBB2002BE4D104200AF0B6FFB9
:1055C800FFF744FE04200AF0BCFF72B600BF0023B8
:1055D80018461037BD4680BD0AD7233C0000A042BC
:1055E8000235002003350020640A010810E000E0BD
:1055F80080B485B000AF0346FB80B7F90630002BB6
:1056080002DBFB88FB8101E0FB88FB81B7F90E30E8
:1056180018461437BD465DF8047B704780B588B0DE
:1056280004AF03460A46FB711346BB71FB799BB274
:105638005B009BB2013399B2BB799AB24FF0FF334A
:1056480002930223019307F10C03009301230748F7
:1056580006F078FE3B7B1B021AB27B7B1BB213431E
:105668001BB29BB218461037BD4680BD30350020AE
:1056780080B500AF3B216920FFF7D0FF03461846ED
:10568800FFF7B6FF03461A4613469B0013445B0018
:1056980007EE903AB8EEE77ADFED3B6AC7EE267A76
:1056A8003A4BC3ED007A3D216920FFF7B7FF034667
:1056B8001846FFF79DFF03461A4613469B001344FE
:1056C8005B0007EE903AB8EEE77ADFED2F6AC7EE97
:1056D800267A2E4BC3ED017A3F216920FFF79EFF02
:1056E80003461846FFF784FF03461A4613469B00F5
:1056F80013445B0007EE903AB8EEE77ADFED226AD2
:10570800C7EE267A214BC3ED027A43216920FFF7C1
:1057180085FF03461846FFF76BFF034607EE903AEE
:10572800B8EEE77ADFED1A6AC7EE267A194BC3EDB1
:10573800007A45216920FFF771FF03461846FFF7F5
:1057480057FF034607EE903AB8EEE77ADFED106AA6
:10575800C7EE267A0F4BC3ED017A47216920FFF780
:105768005DFF03461846FFF743FF034607EE903AEE
:10577800B8EEE77ADFED066AC7EE267A054BC3ED89
:10578800027A00BF80BD00BF000080464C030020A5
:10579800000003435803002080B586B004AF0023FF
:1057A800FB714FF0FF33029301230193FB1D00931C
:1057B80001236B22D2211D4806F0B0FC4FF0FF33C5
:1057C8000293012301930723009301231922D22175
:1057D800164806F0A3FC4FF0FF3302930123019310
:1057E8000023009301231C22D221104806F096FCC6
:1057F8004FF0FF3302930123019300230093012309
:105808001B22D221094806F089FC4FF0FF3302938E
:1058180001230193064B009301237522D3210348EA
:1058280006F090FD00BF0837BD4680BD303500202A
:105838000435002080B582B000AF00237B600FE004
:105848007B68432B08D07B68052B05D07B685BB24F
:10585800184607F0E5FA00E000BF7B6801337B607B
:105868007B68EF2BECD900BF00BF0837BD4680BD71
:1058780080B582B000AF00237B6007E07B685BB235
:10588800184607F0BFFA7B6801337B607B68EF2B13
:10589800F4D900BF00BF0837BD4680BD80B500AF52
:1058A8004021AA4806F092FB0346002B14BF0123AF
:1058B8000023DAB2A64B1A700421A64806F086FB2C
:1058C8000346002B14BF01230023DAB2A04B5A7001
:1058D8004FF40051A04806F079FB0346002B14BF93
:1058E80001230023DAB29D4B1A704FF480419A4885
:1058F80006F06CFB0346002B14BF01230023DAB229
:10590800964B5A704FF40041934806F05FFB0346EC
:10591800002B14BF01230023DAB2904B9A704FF486
:1059280080518C4806F052FB0346002B14BF01231C
:105938000023DAB28A4B1A704FF48071834806F05C
:1059480045FB0346002B14BF01230023DAB2844B26
:105958005A704FF400717D4806F038FB0346002B5F
:1059680014BF01230023DAB27D4B9A704FF48051A3
:10597800764806F02BFB0346002B14BF01230023B7
:10598800DAB2774BDA704FF40061704806F01EFB0C
:105998000346002B14BF01230023DAB2704B1A719F
:1059A8004FF48041694806F011FB0346002B14BFF1
:1059B80001230023DAB26A4B5A714FF4004163485D
:1059C80006F004FB0346002B14BF01230023DAB2C0
:1059D800634B9A714FF400515C4806F0F7FA03469E
:1059E800002B14BF01230023DAB25D4BDA715D4B43
:1059F8005B6B9AB25C4B1A805A4B9B6B9AB25A4BB0
:105A08005A80584BDB6B9AB2584B1A80554B1B6C1B
:105A18009AB2564B5A80FFF70DFF08E04FF4007119
:105A28004FF0904006F0D2FA0346012B07D103212C
:105A38004F4803F0C1F80346002BEFD10AE000BF3E
:105A480008E04FF400714FF0904006F0BFFA0346AB
:105A5800012B07D102213E4803F0AEF80346002B84
:105A6800EFD10AE000BF08E04FF400714FF090401A
:105A780006F0ACFA0346012B07D10321374803F09F
:105A88009BF80346002BEFD10AE000BF08E04FF473
:105A980000714FF0904006F099FA0346012B07D1A8
:105AA8000C21344803F088F80346002BEFD10AE0B4
:105AB80000BF08E04FF400714FF0904006F086FAFE
:105AC8000346012B07D10C212B4803F075F8034638
